{
  "_format": "hh-sol-artifact-1",
  "contractName": "SmolAgeAnimals",
  "sourceName": "contracts/mocks/SmolAgeAnimals.sol",
  "abi": [
    {
      "anonymous": false,
      "inputs": [
        {
          "indexed": true,
          "internalType": "address",
          "name": "account",
          "type": "address"
        },
        {
          "indexed": true,
          "internalType": "address",
          "name": "operator",
          "type": "address"
        },
        {
          "indexed": false,
          "internalType": "bool",
          "name": "approved",
          "type": "bool"
        }
      ],
      "name": "ApprovalForAll",
      "type": "event"
    },
    {
      "anonymous": false,
      "inputs": [
        {
          "indexed": false,
          "internalType": "uint8",
          "name": "version",
          "type": "uint8"
        }
      ],
      "name": "Initialized",
      "type": "event"
    },
    {
      "anonymous": false,
      "inputs": [
        {
          "indexed": true,
          "internalType": "address",
          "name": "operator",
          "type": "address"
        },
        {
          "indexed": true,
          "internalType": "address",
          "name": "from",
          "type": "address"
        },
        {
          "indexed": true,
          "internalType": "address",
          "name": "to",
          "type": "address"
        },
        {
          "indexed": false,
          "internalType": "uint256[]",
          "name": "ids",
          "type": "uint256[]"
        },
        {
          "indexed": false,
          "internalType": "uint256[]",
          "name": "values",
          "type": "uint256[]"
        }
      ],
      "name": "TransferBatch",
      "type": "event"
    },
    {
      "anonymous": false,
      "inputs": [
        {
          "indexed": true,
          "internalType": "address",
          "name": "operator",
          "type": "address"
        },
        {
          "indexed": true,
          "internalType": "address",
          "name": "from",
          "type": "address"
        },
        {
          "indexed": true,
          "internalType": "address",
          "name": "to",
          "type": "address"
        },
        {
          "indexed": false,
          "internalType": "uint256",
          "name": "id",
          "type": "uint256"
        },
        {
          "indexed": false,
          "internalType": "uint256",
          "name": "value",
          "type": "uint256"
        }
      ],
      "name": "TransferSingle",
      "type": "event"
    },
    {
      "anonymous": false,
      "inputs": [
        {
          "indexed": false,
          "internalType": "string",
          "name": "value",
          "type": "string"
        },
        {
          "indexed": true,
          "internalType": "uint256",
          "name": "id",
          "type": "uint256"
        }
      ],
      "name": "URI",
      "type": "event"
    },
    {
      "inputs": [
        {
          "internalType": "address",
          "name": "account",
          "type": "address"
        },
        {
          "internalType": "uint256",
          "name": "id",
          "type": "uint256"
        }
      ],
      "name": "balanceOf",
      "outputs": [
        {
          "internalType": "uint256",
          "name": "",
          "type": "uint256"
        }
      ],
      "stateMutability": "view",
      "type": "function"
    },
    {
      "inputs": [
        {
          "internalType": "address[]",
          "name": "accounts",
          "type": "address[]"
        },
        {
          "internalType": "uint256[]",
          "name": "ids",
          "type": "uint256[]"
        }
      ],
      "name": "balanceOfBatch",
      "outputs": [
        {
          "internalType": "uint256[]",
          "name": "",
          "type": "uint256[]"
        }
      ],
      "stateMutability": "view",
      "type": "function"
    },
    {
      "inputs": [],
      "name": "initialize",
      "outputs": [],
      "stateMutability": "nonpayable",
      "type": "function"
    },
    {
      "inputs": [
        {
          "internalType": "address",
          "name": "account",
          "type": "address"
        },
        {
          "internalType": "address",
          "name": "operator",
          "type": "address"
        }
      ],
      "name": "isApprovedForAll",
      "outputs": [
        {
          "internalType": "bool",
          "name": "",
          "type": "bool"
        }
      ],
      "stateMutability": "view",
      "type": "function"
    },
    {
      "inputs": [
        {
          "internalType": "address",
          "name": "from",
          "type": "address"
        },
        {
          "internalType": "address",
          "name": "to",
          "type": "address"
        },
        {
          "internalType": "uint256[]",
          "name": "ids",
          "type": "uint256[]"
        },
        {
          "internalType": "uint256[]",
          "name": "amounts",
          "type": "uint256[]"
        },
        {
          "internalType": "bytes",
          "name": "data",
          "type": "bytes"
        }
      ],
      "name": "safeBatchTransferFrom",
      "outputs": [],
      "stateMutability": "nonpayable",
      "type": "function"
    },
    {
      "inputs": [
        {
          "internalType": "address",
          "name": "from",
          "type": "address"
        },
        {
          "internalType": "address",
          "name": "to",
          "type": "address"
        },
        {
          "internalType": "uint256",
          "name": "id",
          "type": "uint256"
        },
        {
          "internalType": "uint256",
          "name": "amount",
          "type": "uint256"
        },
        {
          "internalType": "bytes",
          "name": "data",
          "type": "bytes"
        }
      ],
      "name": "safeTransferFrom",
      "outputs": [],
      "stateMutability": "nonpayable",
      "type": "function"
    },
    {
      "inputs": [
        {
          "internalType": "address",
          "name": "operator",
          "type": "address"
        },
        {
          "internalType": "bool",
          "name": "approved",
          "type": "bool"
        }
      ],
      "name": "setApprovalForAll",
      "outputs": [],
      "stateMutability": "nonpayable",
      "type": "function"
    },
    {
      "inputs": [
        {
          "internalType": "bytes4",
          "name": "interfaceId",
          "type": "bytes4"
        }
      ],
      "name": "supportsInterface",
      "outputs": [
        {
          "internalType": "bool",
          "name": "",
          "type": "bool"
        }
      ],
      "stateMutability": "view",
      "type": "function"
    },
    {
      "inputs": [
        {
          "internalType": "uint256",
          "name": "",
          "type": "uint256"
        }
      ],
      "name": "uri",
      "outputs": [
        {
          "internalType": "string",
          "name": "",
          "type": "string"
        }
      ],
      "stateMutability": "view",
      "type": "function"
    }
  ],
  "bytecode": "0x608060405234801561001057600080fd5b506129c5806100206000396000f3fe608060405234801561001057600080fd5b50600436106100925760003560e01c80634e1273f4116100665780634e1273f4146101435780638129fc1c14610173578063a22cb4651461017d578063e985e9c514610199578063f242432a146101c957610092565b8062fdd58e1461009757806301ffc9a7146100c75780630e89341c146100f75780632eb2c2d614610127575b600080fd5b6100b160048036038101906100ac91906116ed565b6101e5565b6040516100be919061173c565b60405180910390f35b6100e160048036038101906100dc91906117af565b6102ae565b6040516100ee91906117f7565b60405180910390f35b610111600480360381019061010c9190611812565b610390565b60405161011e91906118cf565b60405180910390f35b610141600480360381019061013c9190611aee565b610424565b005b61015d60048036038101906101589190611c80565b6104c5565b60405161016a9190611db6565b60405180910390f35b61017b6105de565b005b61019760048036038101906101929190611e04565b61074e565b005b6101b360048036038101906101ae9190611e44565b610764565b6040516101c091906117f7565b60405180910390f35b6101e360048036038101906101de9190611e84565b6107f8565b005b60008073ffffffffffffffffffffffffffffffffffffffff168373ffffffffffffffffffffffffffffffffffffffff1603610255576040517f08c379a000000000000000000000000000000000000000000000000000000000815260040161024c90611f8d565b60405180910390fd5b6065600083815260200190815260200160002060008473ffffffffffffffffffffffffffffffffffffffff1673ffffffffffffffffffffffffffffffffffffffff16815260200190815260200160002054905092915050565b60007fd9b67a26000000000000000000000000000000000000000000000000000000007bffffffffffffffffffffffffffffffffffffffffffffffffffffffff1916827bffffffffffffffffffffffffffffffffffffffffffffffffffffffff1916148061037957507f0e89341c000000000000000000000000000000000000000000000000000000007bffffffffffffffffffffffffffffffffffffffffffffffffffffffff1916827bffffffffffffffffffffffffffffffffffffffffffffffffffffffff1916145b80610389575061038882610899565b5b9050919050565b60606067805461039f90611fdc565b80601f01602080910402602001604051908101604052809291908181526020018280546103cb90611fdc565b80156104185780601f106103ed57610100808354040283529160200191610418565b820191906000526020600020905b8154815290600101906020018083116103fb57829003601f168201915b50505050509050919050565b61042c610903565b73ffffffffffffffffffffffffffffffffffffffff168573ffffffffffffffffffffffffffffffffffffffff16148061047257506104718561046c610903565b610764565b5b6104b1576040517f08c379a00000000000000000000000000000000000000000000000000000000081526004016104a89061207f565b60405180910390fd5b6104be858585858561090b565b5050505050565b6060815183511461050b576040517f08c379a000000000000000000000000000000000000000000000000000000000815260040161050290612111565b60405180910390fd5b6000835167ffffffffffffffff811115610528576105276118f6565b5b6040519080825280602002602001820160405280156105565781602001602082028036833780820191505090505b50905060005b84518110156105d3576105a385828151811061057b5761057a612131565b5b602002602001015185838151811061059657610595612131565b5b60200260200101516101e5565b8282815181106105b6576105b5612131565b5b602002602001018181525050806105cc9061218f565b905061055c565b508091505092915050565b60008060019054906101000a900460ff1615905080801561060f5750600160008054906101000a900460ff1660ff16105b8061063c575061061e30610c2f565b15801561063b5750600160008054906101000a900460ff1660ff16145b5b61067b576040517f08c379a000000000000000000000000000000000000000000000000000000000815260040161067290612249565b60405180910390fd5b60016000806101000a81548160ff021916908360ff16021790555080156106b8576001600060016101000a81548160ff0219169083151502179055505b60005b60078110156106f1576106e03382600160405180602001604052806000815250610c52565b806106ea9061218f565b90506106bb565b50801561074b5760008060016101000a81548160ff0219169083151502179055507f7f26b83ff96e1f2b6a682f133852f6798a09c465da95921460cefb3847402498600160405161074291906122bb565b60405180910390a15b50565b610760610759610903565b8383610e03565b5050565b6000606660008473ffffffffffffffffffffffffffffffffffffffff1673ffffffffffffffffffffffffffffffffffffffff16815260200190815260200160002060008373ffffffffffffffffffffffffffffffffffffffff1673ffffffffffffffffffffffffffffffffffffffff16815260200190815260200160002060009054906101000a900460ff16905092915050565b610800610903565b73ffffffffffffffffffffffffffffffffffffffff168573ffffffffffffffffffffffffffffffffffffffff161480610846575061084585610840610903565b610764565b5b610885576040517f08c379a000000000000000000000000000000000000000000000000000000000815260040161087c9061207f565b60405180910390fd5b6108928585858585610f6f565b5050505050565b60007f01ffc9a7000000000000000000000000000000000000000000000000000000007bffffffffffffffffffffffffffffffffffffffffffffffffffffffff1916827bffffffffffffffffffffffffffffffffffffffffffffffffffffffff1916149050919050565b600033905090565b815183511461094f576040517f08c379a000000000000000000000000000000000000000000000000000000000815260040161094690612348565b60405180910390fd5b600073ffffffffffffffffffffffffffffffffffffffff168473ffffffffffffffffffffffffffffffffffffffff16036109be576040517f08c379a00000000000000000000000000000000000000000000000000000000081526004016109b5906123da565b60405180910390fd5b60006109c8610903565b90506109d881878787878761120d565b60005b8451811015610b8c5760008582815181106109f9576109f8612131565b5b602002602001015190506000858381518110610a1857610a17612131565b5b6020026020010151905060006065600084815260200190815260200160002060008b73ffffffffffffffffffffffffffffffffffffffff1673ffffffffffffffffffffffffffffffffffffffff16815260200190815260200160002054905081811015610aba576040517f08c379a0000000000000000000000000000000000000000000000000000000008152600401610ab19061246c565b60405180910390fd5b8181036065600085815260200190815260200160002060008c73ffffffffffffffffffffffffffffffffffffffff1673ffffffffffffffffffffffffffffffffffffffff16815260200190815260200160002081905550816065600085815260200190815260200160002060008b73ffffffffffffffffffffffffffffffffffffffff1673ffffffffffffffffffffffffffffffffffffffff1681526020019081526020016000206000828254610b71919061248c565b9250508190555050505080610b859061218f565b90506109db565b508473ffffffffffffffffffffffffffffffffffffffff168673ffffffffffffffffffffffffffffffffffffffff168273ffffffffffffffffffffffffffffffffffffffff167f4a39dc06d4c0dbc64b70af90fd698a233a518aa5d07e595d983b8c0526c8f7fb8787604051610c039291906124c0565b60405180910390a4610c19818787878787611215565b610c2781878787878761121d565b505050505050565b6000808273ffffffffffffffffffffffffffffffffffffffff163b119050919050565b600073ffffffffffffffffffffffffffffffffffffffff168473ffffffffffffffffffffffffffffffffffffffff1603610cc1576040517f08c379a0000000000000000000000000000000000000000000000000000000008152600401610cb890612569565b60405180910390fd5b6000610ccb610903565b90506000610cd8856113f4565b90506000610ce5856113f4565b9050610cf68360008985858961120d565b846065600088815260200190815260200160002060008973ffffffffffffffffffffffffffffffffffffffff1673ffffffffffffffffffffffffffffffffffffffff1681526020019081526020016000206000828254610d56919061248c565b925050819055508673ffffffffffffffffffffffffffffffffffffffff16600073ffffffffffffffffffffffffffffffffffffffff168473ffffffffffffffffffffffffffffffffffffffff167fc3d58168c5ae7397731d063d5bbf3d657854427343f4c083240f7aacaa2d0f628989604051610dd4929190612589565b60405180910390a4610deb83600089858589611215565b610dfa8360008989898961146e565b50505050505050565b8173ffffffffffffffffffffffffffffffffffffffff168373ffffffffffffffffffffffffffffffffffffffff1603610e71576040517f08c379a0000000000000000000000000000000000000000000000000000000008152600401610e6890612624565b60405180910390fd5b80606660008573ffffffffffffffffffffffffffffffffffffffff1673ffffffffffffffffffffffffffffffffffffffff16815260200190815260200160002060008473ffffffffffffffffffffffffffffffffffffffff1673ffffffffffffffffffffffffffffffffffffffff16815260200190815260200160002060006101000a81548160ff0219169083151502179055508173ffffffffffffffffffffffffffffffffffffffff168373ffffffffffffffffffffffffffffffffffffffff167f17307eab39ab6107e8899845ad3d59bd9653f200f220920489ca2b5937696c3183604051610f6291906117f7565b60405180910390a3505050565b600073ffffffffffffffffffffffffffffffffffffffff168473ffffffffffffffffffffffffffffffffffffffff1603610fde576040517f08c379a0000000000000000000000000000000000000000000000000000000008152600401610fd5906123da565b60405180910390fd5b6000610fe8610903565b90506000610ff5856113f4565b90506000611002856113f4565b905061101283898985858961120d565b60006065600088815260200190815260200160002060008a73ffffffffffffffffffffffffffffffffffffffff1673ffffffffffffffffffffffffffffffffffffffff168152602001908152602001600020549050858110156110aa576040517f08c379a00000000000000000000000000000000000000000000000000000000081526004016110a19061246c565b60405180910390fd5b8581036065600089815260200190815260200160002060008b73ffffffffffffffffffffffffffffffffffffffff1673ffffffffffffffffffffffffffffffffffffffff16815260200190815260200160002081905550856065600089815260200190815260200160002060008a73ffffffffffffffffffffffffffffffffffffffff1673ffffffffffffffffffffffffffffffffffffffff1681526020019081526020016000206000828254611161919061248c565b925050819055508773ffffffffffffffffffffffffffffffffffffffff168973ffffffffffffffffffffffffffffffffffffffff168573ffffffffffffffffffffffffffffffffffffffff167fc3d58168c5ae7397731d063d5bbf3d657854427343f4c083240f7aacaa2d0f628a8a6040516111de929190612589565b60405180910390a46111f4848a8a86868a611215565b611202848a8a8a8a8a61146e565b505050505050505050565b505050505050565b505050505050565b61123c8473ffffffffffffffffffffffffffffffffffffffff16610c2f565b156113ec578373ffffffffffffffffffffffffffffffffffffffff1663bc197c8187878686866040518663ffffffff1660e01b81526004016112829594939291906126a8565b6020604051808303816000875af19250505080156112be57506040513d601f19601f820116820180604052508101906112bb9190612725565b60015b611363576112ca61275f565b806308c379a00361132657506112de612781565b806112e95750611328565b806040517f08c379a000000000000000000000000000000000000000000000000000000000815260040161131d91906118cf565b60405180910390fd5b505b6040517f08c379a000000000000000000000000000000000000000000000000000000000815260040161135a90612883565b60405180910390fd5b63bc197c8160e01b7bffffffffffffffffffffffffffffffffffffffffffffffffffffffff1916817bffffffffffffffffffffffffffffffffffffffffffffffffffffffff1916146113ea576040517f08c379a00000000000000000000000000000000000000000000000000000000081526004016113e190612915565b60405180910390fd5b505b505050505050565b60606000600167ffffffffffffffff811115611413576114126118f6565b5b6040519080825280602002602001820160405280156114415781602001602082028036833780820191505090505b509050828160008151811061145957611458612131565b5b60200260200101818152505080915050919050565b61148d8473ffffffffffffffffffffffffffffffffffffffff16610c2f565b1561163d578373ffffffffffffffffffffffffffffffffffffffff1663f23a6e6187878686866040518663ffffffff1660e01b81526004016114d3959493929190612935565b6020604051808303816000875af192505050801561150f57506040513d601f19601f8201168201806040525081019061150c9190612725565b60015b6115b45761151b61275f565b806308c379a003611577575061152f612781565b8061153a5750611579565b806040517f08c379a000000000000000000000000000000000000000000000000000000000815260040161156e91906118cf565b60405180910390fd5b505b6040517f08c379a00000000000000000000000000000000000000000000000000000000081526004016115ab90612883565b60405180910390fd5b63f23a6e6160e01b7bffffffffffffffffffffffffffffffffffffffffffffffffffffffff1916817bffffffffffffffffffffffffffffffffffffffffffffffffffffffff19161461163b576040517f08c379a000000000000000000000000000000000000000000000000000000000815260040161163290612915565b60405180910390fd5b505b505050505050565b6000604051905090565b600080fd5b600080fd5b600073ffffffffffffffffffffffffffffffffffffffff82169050919050565b600061168482611659565b9050919050565b61169481611679565b811461169f57600080fd5b50565b6000813590506116b18161168b565b92915050565b6000819050919050565b6116ca816116b7565b81146116d557600080fd5b50565b6000813590506116e7816116c1565b92915050565b600080604083850312156117045761170361164f565b5b6000611712858286016116a2565b9250506020611723858286016116d8565b9150509250929050565b611736816116b7565b82525050565b6000602082019050611751600083018461172d565b92915050565b60007fffffffff0000000000000000000000000000000000000000000000000000000082169050919050565b61178c81611757565b811461179757600080fd5b50565b6000813590506117a981611783565b92915050565b6000602082840312156117c5576117c461164f565b5b60006117d38482850161179a565b91505092915050565b60008115159050919050565b6117f1816117dc565b82525050565b600060208201905061180c60008301846117e8565b92915050565b6000602082840312156118285761182761164f565b5b6000611836848285016116d8565b91505092915050565b600081519050919050565b600082825260208201905092915050565b60005b8381101561187957808201518184015260208101905061185e565b60008484015250505050565b6000601f19601f8301169050919050565b60006118a18261183f565b6118ab818561184a565b93506118bb81856020860161185b565b6118c481611885565b840191505092915050565b600060208201905081810360008301526118e98184611896565b905092915050565b600080fd5b7f4e487b7100000000000000000000000000000000000000000000000000000000600052604160045260246000fd5b61192e82611885565b810181811067ffffffffffffffff8211171561194d5761194c6118f6565b5b80604052505050565b6000611960611645565b905061196c8282611925565b919050565b600067ffffffffffffffff82111561198c5761198b6118f6565b5b602082029050602081019050919050565b600080fd5b60006119b56119b084611971565b611956565b905080838252602082019050602084028301858111156119d8576119d761199d565b5b835b81811015611a0157806119ed88826116d8565b8452602084019350506020810190506119da565b5050509392505050565b600082601f830112611a2057611a1f6118f1565b5b8135611a308482602086016119a2565b91505092915050565b600080fd5b600067ffffffffffffffff821115611a5957611a586118f6565b5b611a6282611885565b9050602081019050919050565b82818337600083830152505050565b6000611a91611a8c84611a3e565b611956565b905082815260208101848484011115611aad57611aac611a39565b5b611ab8848285611a6f565b509392505050565b600082601f830112611ad557611ad46118f1565b5b8135611ae5848260208601611a7e565b91505092915050565b600080600080600060a08688031215611b0a57611b0961164f565b5b6000611b18888289016116a2565b9550506020611b29888289016116a2565b945050604086013567ffffffffffffffff811115611b4a57611b49611654565b5b611b5688828901611a0b565b935050606086013567ffffffffffffffff811115611b7757611b76611654565b5b611b8388828901611a0b565b925050608086013567ffffffffffffffff811115611ba457611ba3611654565b5b611bb088828901611ac0565b9150509295509295909350565b600067ffffffffffffffff821115611bd857611bd76118f6565b5b602082029050602081019050919050565b6000611bfc611bf784611bbd565b611956565b90508083825260208201905060208402830185811115611c1f57611c1e61199d565b5b835b81811015611c485780611c3488826116a2565b845260208401935050602081019050611c21565b5050509392505050565b600082601f830112611c6757611c666118f1565b5b8135611c77848260208601611be9565b91505092915050565b60008060408385031215611c9757611c9661164f565b5b600083013567ffffffffffffffff811115611cb557611cb4611654565b5b611cc185828601611c52565b925050602083013567ffffffffffffffff811115611ce257611ce1611654565b5b611cee85828601611a0b565b9150509250929050565b600081519050919050565b600082825260208201905092915050565b6000819050602082019050919050565b611d2d816116b7565b82525050565b6000611d3f8383611d24565b60208301905092915050565b6000602082019050919050565b6000611d6382611cf8565b611d6d8185611d03565b9350611d7883611d14565b8060005b83811015611da9578151611d908882611d33565b9750611d9b83611d4b565b925050600181019050611d7c565b5085935050505092915050565b60006020820190508181036000830152611dd08184611d58565b905092915050565b611de1816117dc565b8114611dec57600080fd5b50565b600081359050611dfe81611dd8565b92915050565b60008060408385031215611e1b57611e1a61164f565b5b6000611e29858286016116a2565b9250506020611e3a85828601611def565b9150509250929050565b60008060408385031215611e5b57611e5a61164f565b5b6000611e69858286016116a2565b9250506020611e7a858286016116a2565b9150509250929050565b600080600080600060a08688031215611ea057611e9f61164f565b5b6000611eae888289016116a2565b9550506020611ebf888289016116a2565b9450506040611ed0888289016116d8565b9350506060611ee1888289016116d8565b925050608086013567ffffffffffffffff811115611f0257611f01611654565b5b611f0e88828901611ac0565b9150509295509295909350565b7f455243313135353a2061646472657373207a65726f206973206e6f742061207660008201527f616c6964206f776e657200000000000000000000000000000000000000000000602082015250565b6000611f77602a8361184a565b9150611f8282611f1b565b604082019050919050565b60006020820190508181036000830152611fa681611f6a565b9050919050565b7f4e487b7100000000000000000000000000000000000000000000000000000000600052602260045260246000fd5b60006002820490506001821680611ff457607f821691505b60208210810361200757612006611fad565b5b50919050565b7f455243313135353a2063616c6c6572206973206e6f7420746f6b656e206f776e60008201527f6572206f7220617070726f766564000000000000000000000000000000000000602082015250565b6000612069602e8361184a565b91506120748261200d565b604082019050919050565b600060208201905081810360008301526120988161205c565b9050919050565b7f455243313135353a206163636f756e747320616e6420696473206c656e67746860008201527f206d69736d617463680000000000000000000000000000000000000000000000602082015250565b60006120fb60298361184a565b91506121068261209f565b604082019050919050565b6000602082019050818103600083015261212a816120ee565b9050919050565b7f4e487b7100000000000000000000000000000000000000000000000000000000600052603260045260246000fd5b7f4e487b7100000000000000000000000000000000000000000000000000000000600052601160045260246000fd5b600061219a826116b7565b91507fffffffffffffffffffffffffffffffffffffffffffffffffffffffffffffffff82036121cc576121cb612160565b5b600182019050919050565b7f496e697469616c697a61626c653a20636f6e747261637420697320616c72656160008201527f647920696e697469616c697a6564000000000000000000000000000000000000602082015250565b6000612233602e8361184a565b915061223e826121d7565b604082019050919050565b6000602082019050818103600083015261226281612226565b9050919050565b6000819050919050565b600060ff82169050919050565b6000819050919050565b60006122a56122a061229b84612269565b612280565b612273565b9050919050565b6122b58161228a565b82525050565b60006020820190506122d060008301846122ac565b92915050565b7f455243313135353a2069647320616e6420616d6f756e7473206c656e6774682060008201527f6d69736d61746368000000000000000000000000000000000000000000000000602082015250565b600061233260288361184a565b915061233d826122d6565b604082019050919050565b6000602082019050818103600083015261236181612325565b9050919050565b7f455243313135353a207472616e7366657220746f20746865207a65726f20616460008201527f6472657373000000000000000000000000000000000000000000000000000000602082015250565b60006123c460258361184a565b91506123cf82612368565b604082019050919050565b600060208201905081810360008301526123f3816123b7565b9050919050565b7f455243313135353a20696e73756666696369656e742062616c616e636520666f60008201527f72207472616e7366657200000000000000000000000000000000000000000000602082015250565b6000612456602a8361184a565b9150612461826123fa565b604082019050919050565b6000602082019050818103600083015261248581612449565b9050919050565b6000612497826116b7565b91506124a2836116b7565b92508282019050808211156124ba576124b9612160565b5b92915050565b600060408201905081810360008301526124da8185611d58565b905081810360208301526124ee8184611d58565b90509392505050565b7f455243313135353a206d696e7420746f20746865207a65726f2061646472657360008201527f7300000000000000000000000000000000000000000000000000000000000000602082015250565b600061255360218361184a565b915061255e826124f7565b604082019050919050565b6000602082019050818103600083015261258281612546565b9050919050565b600060408201905061259e600083018561172d565b6125ab602083018461172d565b9392505050565b7f455243313135353a2073657474696e6720617070726f76616c2073746174757360008201527f20666f722073656c660000000000000000000000000000000000000000000000602082015250565b600061260e60298361184a565b9150612619826125b2565b604082019050919050565b6000602082019050818103600083015261263d81612601565b9050919050565b61264d81611679565b82525050565b600081519050919050565b600082825260208201905092915050565b600061267a82612653565b612684818561265e565b935061269481856020860161185b565b61269d81611885565b840191505092915050565b600060a0820190506126bd6000830188612644565b6126ca6020830187612644565b81810360408301526126dc8186611d58565b905081810360608301526126f08185611d58565b90508181036080830152612704818461266f565b90509695505050505050565b60008151905061271f81611783565b92915050565b60006020828403121561273b5761273a61164f565b5b600061274984828501612710565b91505092915050565b60008160e01c9050919050565b600060033d111561277e5760046000803e61277b600051612752565b90505b90565b600060443d1061280e57612793611645565b60043d036004823e80513d602482011167ffffffffffffffff821117156127bb57505061280e565b808201805167ffffffffffffffff8111156127d9575050505061280e565b80602083010160043d0385018111156127f657505050505061280e565b61280582602001850186611925565b82955050505050505b90565b7f455243313135353a207472616e7366657220746f206e6f6e2d4552433131353560008201527f526563656976657220696d706c656d656e746572000000000000000000000000602082015250565b600061286d60348361184a565b915061287882612811565b604082019050919050565b6000602082019050818103600083015261289c81612860565b9050919050565b7f455243313135353a204552433131353552656365697665722072656a6563746560008201527f6420746f6b656e73000000000000000000000000000000000000000000000000602082015250565b60006128ff60288361184a565b915061290a826128a3565b604082019050919050565b6000602082019050818103600083015261292e816128f2565b9050919050565b600060a08201905061294a6000830188612644565b6129576020830187612644565b612964604083018661172d565b612971606083018561172d565b8181036080830152612983818461266f565b9050969550505050505056fea264697066735822122012d65afddd272427bc499bfe6fe57ec2d4c0a07ad13c52d26217661fb402880f64736f6c63430008110033",
  "linkReferences": {},
  "deployedLinkReferences": {}
}