{
  "_format": "hh-sol-artifact-1",
  "contractName": "Phase2",
  "sourceName": "contracts/Phase2.sol",
  "abi": [
    {
      "inputs": [],
      "name": "CannotClaimNow",
      "type": "error"
    },
    {
      "inputs": [],
      "name": "LengthsNotEqual",
      "type": "error"
    },
    {
      "inputs": [],
      "name": "NeandersmolsIsLocked",
      "type": "error"
    },
    {
      "inputs": [],
      "name": "NotYourToken",
      "type": "error"
    },
    {
      "inputs": [],
      "name": "WrongMultiple",
      "type": "error"
    },
    {
      "inputs": [],
      "name": "ZeroBalanceError",
      "type": "error"
    },
    {
      "anonymous": false,
      "inputs": [
        {
          "indexed": true,
          "internalType": "address",
          "name": "owner",
          "type": "address"
        },
        {
          "indexed": true,
          "internalType": "uint256",
          "name": "tokenId",
          "type": "uint256"
        },
        {
          "indexed": true,
          "internalType": "uint256",
          "name": "animalsId",
          "type": "uint256"
        }
      ],
      "name": "BringInAnimalsToLaborGround",
      "type": "event"
    },
    {
      "anonymous": false,
      "inputs": [
        {
          "indexed": true,
          "internalType": "address",
          "name": "owner",
          "type": "address"
        },
        {
          "indexed": true,
          "internalType": "uint256",
          "name": "tokenId",
          "type": "uint256"
        },
        {
          "indexed": true,
          "internalType": "uint256",
          "name": "amount",
          "type": "uint256"
        }
      ],
      "name": "ClaimCaveReward",
      "type": "event"
    },
    {
      "anonymous": false,
      "inputs": [
        {
          "indexed": true,
          "internalType": "address",
          "name": "owner",
          "type": "address"
        },
        {
          "indexed": true,
          "internalType": "uint256",
          "name": "tokenId",
          "type": "uint256"
        }
      ],
      "name": "ClaimCollectable",
      "type": "event"
    },
    {
      "anonymous": false,
      "inputs": [
        {
          "indexed": true,
          "internalType": "address",
          "name": "owner",
          "type": "address"
        },
        {
          "indexed": true,
          "internalType": "uint256",
          "name": "tokenId",
          "type": "uint256"
        },
        {
          "indexed": true,
          "internalType": "bool",
          "name": "stake",
          "type": "bool"
        }
      ],
      "name": "ClaimDevelopmentGroundBonesReward",
      "type": "event"
    },
    {
      "anonymous": false,
      "inputs": [
        {
          "indexed": true,
          "internalType": "address",
          "name": "owner",
          "type": "address"
        },
        {
          "indexed": true,
          "internalType": "uint256",
          "name": "tokenId",
          "type": "uint256"
        },
        {
          "indexed": true,
          "internalType": "uint256",
          "name": "stakeTime",
          "type": "uint256"
        }
      ],
      "name": "EnterCaves",
      "type": "event"
    },
    {
      "anonymous": false,
      "inputs": [
        {
          "indexed": true,
          "internalType": "address",
          "name": "owner",
          "type": "address"
        },
        {
          "indexed": true,
          "internalType": "uint256",
          "name": "tokenId",
          "type": "uint256"
        },
        {
          "indexed": true,
          "internalType": "uint256",
          "name": "lockTime",
          "type": "uint256"
        },
        {
          "indexed": false,
          "internalType": "uint256",
          "name": "entryTime",
          "type": "uint256"
        },
        {
          "indexed": false,
          "internalType": "enum Lib.Grounds",
          "name": "ground",
          "type": "uint8"
        }
      ],
      "name": "EnterDevelopmentGround",
      "type": "event"
    },
    {
      "anonymous": false,
      "inputs": [
        {
          "indexed": true,
          "internalType": "address",
          "name": "owner",
          "type": "address"
        },
        {
          "indexed": true,
          "internalType": "uint256",
          "name": "tokenId",
          "type": "uint256"
        },
        {
          "indexed": true,
          "internalType": "uint256",
          "name": "supplyId",
          "type": "uint256"
        },
        {
          "indexed": false,
          "internalType": "enum Lib.Jobs",
          "name": "job",
          "type": "uint8"
        }
      ],
      "name": "EnterLaborGround",
      "type": "event"
    },
    {
      "anonymous": false,
      "inputs": [
        {
          "indexed": false,
          "internalType": "uint8",
          "name": "version",
          "type": "uint8"
        }
      ],
      "name": "Initialized",
      "type": "event"
    },
    {
      "anonymous": false,
      "inputs": [
        {
          "indexed": true,
          "internalType": "address",
          "name": "owner",
          "type": "address"
        },
        {
          "indexed": true,
          "internalType": "uint256",
          "name": "tokenId",
          "type": "uint256"
        }
      ],
      "name": "LeaveDevelopmentGround",
      "type": "event"
    },
    {
      "anonymous": false,
      "inputs": [
        {
          "indexed": true,
          "internalType": "address",
          "name": "owner",
          "type": "address"
        },
        {
          "indexed": true,
          "internalType": "uint256",
          "name": "tokenId",
          "type": "uint256"
        }
      ],
      "name": "LeaveLaborGround",
      "type": "event"
    },
    {
      "anonymous": false,
      "inputs": [
        {
          "indexed": true,
          "internalType": "address",
          "name": "owner",
          "type": "address"
        },
        {
          "indexed": true,
          "internalType": "uint256",
          "name": "tokenId",
          "type": "uint256"
        },
        {
          "indexed": true,
          "internalType": "uint256",
          "name": "animalsId",
          "type": "uint256"
        }
      ],
      "name": "RemoveAnimalsFromLaborGround",
      "type": "event"
    },
    {
      "anonymous": false,
      "inputs": [
        {
          "indexed": true,
          "internalType": "address",
          "name": "owner",
          "type": "address"
        },
        {
          "indexed": true,
          "internalType": "uint256",
          "name": "tokenId",
          "type": "uint256"
        },
        {
          "indexed": true,
          "internalType": "uint256",
          "name": "amount",
          "type": "uint256"
        }
      ],
      "name": "RemoveBones",
      "type": "event"
    },
    {
      "anonymous": false,
      "inputs": [
        {
          "indexed": true,
          "internalType": "address",
          "name": "owner",
          "type": "address"
        },
        {
          "indexed": true,
          "internalType": "uint256",
          "name": "amount",
          "type": "uint256"
        },
        {
          "indexed": true,
          "internalType": "uint256",
          "name": "tokenId",
          "type": "uint256"
        }
      ],
      "name": "StakeBonesInDevelopmentGround",
      "type": "event"
    },
    {
      "inputs": [
        {
          "internalType": "uint256[]",
          "name": "_tokenId",
          "type": "uint256[]"
        },
        {
          "internalType": "uint256[]",
          "name": "_animalsId",
          "type": "uint256[]"
        }
      ],
      "name": "bringInAnimalsToLaborGround",
      "outputs": [],
      "stateMutability": "nonpayable",
      "type": "function"
    },
    {
      "inputs": [
        {
          "internalType": "uint256[]",
          "name": "_tokenId",
          "type": "uint256[]"
        }
      ],
      "name": "claimCaveReward",
      "outputs": [],
      "stateMutability": "nonpayable",
      "type": "function"
    },
    {
      "inputs": [
        {
          "internalType": "uint256[]",
          "name": "_tokenId",
          "type": "uint256[]"
        }
      ],
      "name": "claimCollectables",
      "outputs": [],
      "stateMutability": "nonpayable",
      "type": "function"
    },
    {
      "inputs": [
        {
          "internalType": "uint256[]",
          "name": "_tokenId",
          "type": "uint256[]"
        },
        {
          "internalType": "bool[]",
          "name": "_stake",
          "type": "bool[]"
        }
      ],
      "name": "claimDevelopmentGroundBonesReward",
      "outputs": [],
      "stateMutability": "nonpayable",
      "type": "function"
    },
    {
      "inputs": [
        {
          "internalType": "uint256[]",
          "name": "_tokenId",
          "type": "uint256[]"
        }
      ],
      "name": "enterCaves",
      "outputs": [],
      "stateMutability": "nonpayable",
      "type": "function"
    },
    {
      "inputs": [
        {
          "internalType": "uint256[]",
          "name": "_tokenId",
          "type": "uint256[]"
        },
        {
          "internalType": "uint256[]",
          "name": "_lockTime",
          "type": "uint256[]"
        },
        {
          "internalType": "enum Lib.Grounds[]",
          "name": "_ground",
          "type": "uint8[]"
        }
      ],
      "name": "enterDevelopmentGround",
      "outputs": [],
      "stateMutability": "nonpayable",
      "type": "function"
    },
    {
      "inputs": [
        {
          "internalType": "uint256[]",
          "name": "_tokenId",
          "type": "uint256[]"
        },
        {
          "internalType": "uint256[]",
          "name": "_supplyId",
          "type": "uint256[]"
        },
        {
          "internalType": "enum Lib.Jobs[]",
          "name": "_job",
          "type": "uint8[]"
        }
      ],
      "name": "enterLaborGround",
      "outputs": [],
      "stateMutability": "nonpayable",
      "type": "function"
    },
    {
      "inputs": [],
      "name": "getAddress",
      "outputs": [
        {
          "internalType": "address",
          "name": "",
          "type": "address"
        },
        {
          "internalType": "address",
          "name": "",
          "type": "address"
        },
        {
          "internalType": "address",
          "name": "",
          "type": "address"
        },
        {
          "internalType": "address",
          "name": "",
          "type": "address"
        },
        {
          "internalType": "address",
          "name": "",
          "type": "address"
        },
        {
          "internalType": "address",
          "name": "",
          "type": "address"
        },
        {
          "internalType": "address",
          "name": "",
          "type": "address"
        }
      ],
      "stateMutability": "view",
      "type": "function"
    },
    {
      "inputs": [
        {
          "internalType": "uint256",
          "name": "_tokenId",
          "type": "uint256"
        }
      ],
      "name": "getCavesInfo",
      "outputs": [
        {
          "components": [
            {
              "internalType": "address",
              "name": "owner",
              "type": "address"
            },
            {
              "internalType": "uint48",
              "name": "stakingTime",
              "type": "uint48"
            },
            {
              "internalType": "uint48",
              "name": "lastRewardTimestamp",
              "type": "uint48"
            }
          ],
          "internalType": "struct Lib.Caves",
          "name": "",
          "type": "tuple"
        }
      ],
      "stateMutability": "view",
      "type": "function"
    },
    {
      "inputs": [
        {
          "internalType": "uint256",
          "name": "_tokenId",
          "type": "uint256"
        }
      ],
      "name": "getCavesReward",
      "outputs": [
        {
          "internalType": "uint256",
          "name": "",
          "type": "uint256"
        }
      ],
      "stateMutability": "view",
      "type": "function"
    },
    {
      "inputs": [
        {
          "internalType": "uint256",
          "name": "_tokenId",
          "type": "uint256"
        }
      ],
      "name": "getDevelopmentGroundBonesReward",
      "outputs": [
        {
          "internalType": "uint256",
          "name": "",
          "type": "uint256"
        }
      ],
      "stateMutability": "view",
      "type": "function"
    },
    {
      "inputs": [
        {
          "internalType": "uint256",
          "name": "_tokenId",
          "type": "uint256"
        }
      ],
      "name": "getDevelopmentGroundInfo",
      "outputs": [
        {
          "components": [
            {
              "internalType": "address",
              "name": "owner",
              "type": "address"
            },
            {
              "internalType": "uint64",
              "name": "lockPeriod",
              "type": "uint64"
            },
            {
              "internalType": "uint64",
              "name": "amountPosition",
              "type": "uint64"
            },
            {
              "internalType": "uint64",
              "name": "entryTime",
              "type": "uint64"
            },
            {
              "internalType": "uint64",
              "name": "lastRewardTime",
              "type": "uint64"
            },
            {
              "internalType": "uint256",
              "name": "bonesStaked",
              "type": "uint256"
            },
            {
              "internalType": "uint256",
              "name": "currentPitsLockPeriod",
              "type": "uint256"
            },
            {
              "internalType": "enum Lib.Grounds",
              "name": "ground",
              "type": "uint8"
            }
          ],
          "internalType": "struct Lib.DevelopmentGround",
          "name": "",
          "type": "tuple"
        }
      ],
      "stateMutability": "view",
      "type": "function"
    },
    {
      "inputs": [
        {
          "internalType": "uint256",
          "name": "_tokenId",
          "type": "uint256"
        }
      ],
      "name": "getLaborGroundInfo",
      "outputs": [
        {
          "components": [
            {
              "internalType": "address",
              "name": "owner",
              "type": "address"
            },
            {
              "internalType": "uint32",
              "name": "lockTime",
              "type": "uint32"
            },
            {
              "internalType": "uint32",
              "name": "supplyId",
              "type": "uint32"
            },
            {
              "internalType": "uint32",
              "name": "animalId",
              "type": "uint32"
            },
            {
              "internalType": "uint256",
              "name": "requestId",
              "type": "uint256"
            },
            {
              "internalType": "enum Lib.Jobs",
              "name": "job",
              "type": "uint8"
            }
          ],
          "internalType": "struct Lib.LaborGround",
          "name": "",
          "type": "tuple"
        }
      ],
      "stateMutability": "view",
      "type": "function"
    },
    {
      "inputs": [
        {
          "internalType": "uint256",
          "name": "_tokenId",
          "type": "uint256"
        }
      ],
      "name": "getPrimarySkill",
      "outputs": [
        {
          "internalType": "uint256",
          "name": "",
          "type": "uint256"
        }
      ],
      "stateMutability": "view",
      "type": "function"
    },
    {
      "inputs": [
        {
          "internalType": "address",
          "name": "_pits",
          "type": "address"
        },
        {
          "internalType": "address",
          "name": "_bones",
          "type": "address"
        },
        {
          "internalType": "address",
          "name": "_animals",
          "type": "address"
        },
        {
          "internalType": "address",
          "name": "_supplies",
          "type": "address"
        },
        {
          "internalType": "address",
          "name": "_consumables",
          "type": "address"
        },
        {
          "internalType": "address",
          "name": "_neandersmol",
          "type": "address"
        },
        {
          "internalType": "address",
          "name": "_randomizer",
          "type": "address"
        }
      ],
      "name": "initialize",
      "outputs": [],
      "stateMutability": "nonpayable",
      "type": "function"
    },
    {
      "inputs": [
        {
          "internalType": "uint256[]",
          "name": "_tokenId",
          "type": "uint256[]"
        }
      ],
      "name": "leaveCave",
      "outputs": [],
      "stateMutability": "nonpayable",
      "type": "function"
    },
    {
      "inputs": [
        {
          "internalType": "uint256[]",
          "name": "_tokenId",
          "type": "uint256[]"
        }
      ],
      "name": "leaveDevelopmentGround",
      "outputs": [],
      "stateMutability": "nonpayable",
      "type": "function"
    },
    {
      "inputs": [
        {
          "internalType": "uint256[]",
          "name": "_tokenId",
          "type": "uint256[]"
        }
      ],
      "name": "leaveLaborGround",
      "outputs": [],
      "stateMutability": "nonpayable",
      "type": "function"
    },
    {
      "inputs": [
        {
          "internalType": "address",
          "name": "",
          "type": "address"
        },
        {
          "internalType": "address",
          "name": "",
          "type": "address"
        },
        {
          "internalType": "uint256",
          "name": "",
          "type": "uint256"
        },
        {
          "internalType": "uint256",
          "name": "",
          "type": "uint256"
        },
        {
          "internalType": "bytes",
          "name": "",
          "type": "bytes"
        }
      ],
      "name": "onERC1155Received",
      "outputs": [
        {
          "internalType": "bytes4",
          "name": "",
          "type": "bytes4"
        }
      ],
      "stateMutability": "pure",
      "type": "function"
    },
    {
      "inputs": [
        {
          "internalType": "uint256[]",
          "name": "_tokenId",
          "type": "uint256[]"
        },
        {
          "internalType": "uint256[]",
          "name": "_animalsId",
          "type": "uint256[]"
        }
      ],
      "name": "removeAnimalsFromLaborGround",
      "outputs": [],
      "stateMutability": "nonpayable",
      "type": "function"
    },
    {
      "inputs": [
        {
          "internalType": "uint256[]",
          "name": "_tokenId",
          "type": "uint256[]"
        },
        {
          "internalType": "bool[]",
          "name": "_all",
          "type": "bool[]"
        }
      ],
      "name": "removeBones",
      "outputs": [],
      "stateMutability": "nonpayable",
      "type": "function"
    },
    {
      "inputs": [
        {
          "internalType": "uint256[]",
          "name": "_amount",
          "type": "uint256[]"
        },
        {
          "internalType": "uint256[]",
          "name": "_tokenId",
          "type": "uint256[]"
        }
      ],
      "name": "stakeBonesInDevelopmentGround",
      "outputs": [],
      "stateMutability": "nonpayable",
      "type": "function"
    }
  ],
  "bytecode": "0x608060405234801561001057600080fd5b50615e6c80620000216000396000f3fe608060405234801561001057600080fd5b50600436106101425760003560e01c80639426dba2116100b8578063d4053d5b1161007c578063d4053d5b1461035f578063dd4fcc161461037b578063ea32dac5146103ab578063ec42cb77146103c7578063eee0eaa0146103e3578063f23a6e611461041357610142565b80639426dba2146102bf5780639c1a2678146102db578063b3259e14146102f7578063bd69b15714610327578063cb2fe05e1461034357610142565b806342f390d41161010a57806342f390d414610203578063547ac0711461021f5780635970f4531461023b5780635ac384be1461025757806370914034146102735780638de38dda1461028f57610142565b80632a1f4146146101475780633336ddde14610177578063358764761461019357806338cc4831146101af5780633e39953a146101d3575b600080fd5b610161600480360381019061015c9190614a19565b610443565b60405161016e9190614a55565b60405180910390f35b610191600480360381019061018c9190614ad5565b610690565b005b6101ad60048036038101906101a89190614b80565b610975565b005b6101b7610c79565b6040516101ca9796959493929190614c31565b60405180910390f35b6101ed60048036038101906101e89190614a19565b610d8f565b6040516101fa9190614a55565b60405180910390f35b61021d60048036038101906102189190614ad5565b610fd4565b005b61023960048036038101906102349190614ca0565b611290565b005b61025560048036038101906102509190614d77565b6114a5565b005b610271600480360381019061026c9190614ad5565b611937565b005b61028d60048036038101906102889190614ca0565b611977565b005b6102a960048036038101906102a49190614a19565b611b72565b6040516102b69190614e9d565b60405180910390f35b6102d960048036038101906102d49190614ca0565b611c4d565b005b6102f560048036038101906102f09190614f0e565b611e48565b005b610311600480360381019061030c9190614a19565b6122d3565b60405161031e91906150e2565b60405180910390f35b610341600480360381019061033c9190614ad5565b61240d565b005b61035d60048036038101906103589190615153565b61244d565b005b61037960048036038101906103749190614ad5565b612518565b005b61039560048036038101906103909190614a19565b612963565b6040516103a291906152e1565b60405180910390f35b6103c560048036038101906103c09190615153565b612afe565b005b6103e160048036038101906103dc9190614ad5565b612ba7565b005b6103fd60048036038101906103f89190614a19565b612be7565b60405161040a9190614a55565b60405180910390f35b61042d60048036038101906104289190615353565b612d24565b60405161043a9190615428565b60405180910390f35b60008060096000848152602001908152602001600020604051806101000160405290816000820160009054906101000a900473ffffffffffffffffffffffffffffffffffffffff1673ffffffffffffffffffffffffffffffffffffffff1673ffffffffffffffffffffffffffffffffffffffff1681526020016000820160149054906101000a900467ffffffffffffffff1667ffffffffffffffff1667ffffffffffffffff1681526020016001820160009054906101000a900467ffffffffffffffff1667ffffffffffffffff1667ffffffffffffffff1681526020016001820160089054906101000a900467ffffffffffffffff1667ffffffffffffffff1667ffffffffffffffff1681526020016001820160109054906101000a900467ffffffffffffffff1667ffffffffffffffff1667ffffffffffffffff16815260200160028201548152602001600382015481526020016004820160009054906101000a900460ff1660028111156105bc576105bb614ff0565b5b60028111156105ce576105cd614ff0565b5b81525050905073__$c89922958da0ecd017c5bfa382f5c80a2d$__6366ea43f08260a0015183604001518460c0015187600060029054906101000a900473ffffffffffffffffffffffffffffffffffffffff16600a600b6040518863ffffffff1660e01b815260040161064797969594939291906154e9565b602060405180830381865af4158015610664573d6000803e3d6000fd5b505050506040513d601f19601f82011682018060405250810190610688919061556d565b915050919050565b60005b828290508110156109705760008383838181106106b3576106b261559a565b5b9050602002013590506000600760008381526020019081526020016000206040518060600160405290816000820160009054906101000a900473ffffffffffffffffffffffffffffffffffffffff1673ffffffffffffffffffffffffffffffffffffffff1673ffffffffffffffffffffffffffffffffffffffff1681526020016000820160149054906101000a900465ffffffffffff1665ffffffffffff1665ffffffffffff16815260200160008201601a9054906101000a900465ffffffffffff1665ffffffffffff1665ffffffffffff168152505090503373ffffffffffffffffffffffffffffffffffffffff16816000015173ffffffffffffffffffffffffffffffffffffffff16146107f5576040517f091fe61c00000000000000000000000000000000000000000000000000000000815260040160405180910390fd5b4281602001516283d60061080991906155f8565b65ffffffffffff161115610849576040517ff5dcc1e300000000000000000000000000000000000000000000000000000000815260040160405180910390fd5b600061085483612be7565b146108635761086282612d3a565b5b60076000838152602001908152602001600020600080820160006101000a81549073ffffffffffffffffffffffffffffffffffffffff02191690556000820160146101000a81549065ffffffffffff021916905560008201601a6101000a81549065ffffffffffff02191690555050600460009054906101000a900473ffffffffffffffffffffffffffffffffffffffff1673ffffffffffffffffffffffffffffffffffffffff166323b872dd3033856040518463ffffffff1660e01b815260040161093193929190615632565b600060405180830381600087803b15801561094b57600080fd5b505af115801561095f573d6000803e3d6000fd5b505050508260010192505050610693565b505050565b60008060019054906101000a900460ff161590508080156109a65750600160008054906101000a900460ff1660ff16105b806109d357506109b530612e92565b1580156109d25750600160008054906101000a900460ff1660ff16145b5b610a12576040517f08c379a0000000000000000000000000000000000000000000000000000000008152600401610a09906156ec565b60405180910390fd5b60016000806101000a81548160ff021916908360ff1602179055508015610a4f576001600060016101000a81548160ff0219169083151502179055505b86600160006101000a81548173ffffffffffffffffffffffffffffffffffffffff021916908373ffffffffffffffffffffffffffffffffffffffff16021790555085600560006101000a81548173ffffffffffffffffffffffffffffffffffffffff021916908373ffffffffffffffffffffffffffffffffffffffff16021790555087600060026101000a81548173ffffffffffffffffffffffffffffffffffffffff021916908373ffffffffffffffffffffffffffffffffffffffff16021790555084600660006101000a81548173ffffffffffffffffffffffffffffffffffffffff021916908373ffffffffffffffffffffffffffffffffffffffff16021790555081600260006101000a81548173ffffffffffffffffffffffffffffffffffffffff021916908373ffffffffffffffffffffffffffffffffffffffff16021790555083600360006101000a81548173ffffffffffffffffffffffffffffffffffffffff021916908373ffffffffffffffffffffffffffffffffffffffff16021790555082600460006101000a81548173ffffffffffffffffffffffffffffffffffffffff021916908373ffffffffffffffffffffffffffffffffffffffff1602179055508015610c6f5760008060016101000a81548160ff0219169083151502179055507f7f26b83ff96e1f2b6a682f133852f6798a09c465da95921460cefb38474024986001604051610c669190615754565b60405180910390a15b5050505050505050565b60008060008060008060008060029054906101000a900473ffffffffffffffffffffffffffffffffffffffff16600160009054906101000a900473ffffffffffffffffffffffffffffffffffffffff16600560009054906101000a900473ffffffffffffffffffffffffffffffffffffffff16600660009054906101000a900473ffffffffffffffffffffffffffffffffffffffff16600260009054906101000a900473ffffffffffffffffffffffffffffffffffffffff16600360009054906101000a900473ffffffffffffffffffffffffffffffffffffffff16600460009054906101000a900473ffffffffffffffffffffffffffffffffffffffff16965096509650965096509650965090919293949596565b60008060096000848152602001908152602001600020604051806101000160405290816000820160009054906101000a900473ffffffffffffffffffffffffffffffffffffffff1673ffffffffffffffffffffffffffffffffffffffff1673ffffffffffffffffffffffffffffffffffffffff1681526020016000820160149054906101000a900467ffffffffffffffff1667ffffffffffffffff1667ffffffffffffffff1681526020016001820160009054906101000a900467ffffffffffffffff1667ffffffffffffffff1667ffffffffffffffff1681526020016001820160089054906101000a900467ffffffffffffffff1667ffffffffffffffff1667ffffffffffffffff1681526020016001820160109054906101000a900467ffffffffffffffff1667ffffffffffffffff1667ffffffffffffffff16815260200160028201548152602001600382015481526020016004820160009054906101000a900460ff166002811115610f0857610f07614ff0565b5b6002811115610f1a57610f19614ff0565b5b81525050905073__$c89922958da0ecd017c5bfa382f5c80a2d$__63f674f6b78260c0015183602001518460800151600060029054906101000a900473ffffffffffffffffffffffffffffffffffffffff166040518563ffffffff1660e01b8152600401610f8b949392919061576f565b602060405180830381865af4158015610fa8573d6000803e3d6000fd5b505050506040513d601f19601f82011682018060405250810190610fcc919061556d565b915050919050565b60005b8282905081101561128b576000838383818110610ff757610ff661559a565b5b90506020020135905060006007600083815260200190815260200160002090503373ffffffffffffffffffffffffffffffffffffffff16600460009054906101000a900473ffffffffffffffffffffffffffffffffffffffff1673ffffffffffffffffffffffffffffffffffffffff16636352211e846040518263ffffffff1660e01b81526004016110899190614a55565b602060405180830381865afa1580156110a6573d6000803e3d6000fd5b505050506040513d601f19601f820116820180604052508101906110ca91906157c9565b73ffffffffffffffffffffffffffffffffffffffff1614611117576040517f091fe61c00000000000000000000000000000000000000000000000000000000815260040160405180910390fd5b600460009054906101000a900473ffffffffffffffffffffffffffffffffffffffff1673ffffffffffffffffffffffffffffffffffffffff166323b872dd3330856040518463ffffffff1660e01b815260040161117693929190615632565b600060405180830381600087803b15801561119057600080fd5b505af11580156111a4573d6000803e3d6000fd5b50505050338160000160006101000a81548173ffffffffffffffffffffffffffffffffffffffff021916908373ffffffffffffffffffffffffffffffffffffffff160217905550428160000160146101000a81548165ffffffffffff021916908365ffffffffffff1602179055504281600001601a6101000a81548165ffffffffffff021916908365ffffffffffff16021790555042823373ffffffffffffffffffffffffffffffffffffffff167fc691aa41315aadaa128475ed80fa49569e5bd8ce86b076d71695700d4972014760405160405180910390a48260010192505050610fd7565b505050565b73__$c89922958da0ecd017c5bfa382f5c80a2d$__6371fcf204600060029054906101000a900473ffffffffffffffffffffffffffffffffffffffff166040518263ffffffff1660e01b81526004016112e991906157f6565b60006040518083038186803b15801561130157600080fd5b505af4158015611315573d6000803e3d6000fd5b5050505061132584848484612eb5565b60005b8484905081101561149e576000808484848181106113495761134861559a565b5b905060200201358787858181106113635761136261559a565b5b9050602002013591509150600060096000848152602001908152602001600020905073__$c89922958da0ecd017c5bfa382f5c80a2d$__63e04bed1282600160009054906101000a900473ffffffffffffffffffffffffffffffffffffffff16856040518463ffffffff1660e01b81526004016113e293929190615839565b60006040518083038186803b1580156113fa57600080fd5b505af415801561140e573d6000803e3d6000fd5b50505050611440600160009054906101000a900473ffffffffffffffffffffffffffffffffffffffff16333085612efa565b61144b818484612f4a565b82823373ffffffffffffffffffffffffffffffffffffffff167f1004c640a4c8dbc3c9dd5ff33837d99e4882aaf2b20fb8e7c419fc83c8ca5bd060405160405180910390a4836001019350505050611328565b5050505050565b60006114b387878787612eb5565b8282905085859050146114f2576040517f22cb666100000000000000000000000000000000000000000000000000000000815260040160405180910390fd5b73__$c89922958da0ecd017c5bfa382f5c80a2d$__6371fcf204600060029054906101000a900473ffffffffffffffffffffffffffffffffffffffff166040518263ffffffff1660e01b815260040161154b91906157f6565b60006040518083038186803b15801561156357600080fd5b505af4158015611577573d6000803e3d6000fd5b505050505b8686905081101561192e5760008088888481811061159d5761159c61559a565b5b905060200201358787858181106115b7576115b661559a565b5b9050602002013591509150600060096000848152602001908152602001600020905073__$c89922958da0ecd017c5bfa382f5c80a2d$__633c1c74ab600460009054906101000a900473ffffffffffffffffffffffffffffffffffffffff1685856040518463ffffffff1660e01b815260040161163693929190615891565b60006040518083038186803b15801561164e57600080fd5b505af4158015611662573d6000803e3d6000fd5b50505050600460009054906101000a900473ffffffffffffffffffffffffffffffffffffffff1673ffffffffffffffffffffffffffffffffffffffff166323b872dd3330866040518463ffffffff1660e01b81526004016116c593929190615632565b600060405180830381600087803b1580156116df57600080fd5b505af11580156116f3573d6000803e3d6000fd5b50505050338160000160006101000a81548173ffffffffffffffffffffffffffffffffffffffff021916908373ffffffffffffffffffffffffffffffffffffffff160217905550428160010160086101000a81548167ffffffffffffffff021916908367ffffffffffffffff160217905550818160000160146101000a81548167ffffffffffffffff021916908367ffffffffffffffff160217905550428160010160106101000a81548167ffffffffffffffff021916908367ffffffffffffffff1602179055508585858181106117ce576117cd61559a565b5b90506020020160208101906117e391906158ed565b8160040160006101000a81548160ff0219169083600281111561180957611808614ff0565b5b0217905550600060029054906101000a900473ffffffffffffffffffffffffffffffffffffffff1673ffffffffffffffffffffffffffffffffffffffff16631b688d9f6040518163ffffffff1660e01b8152600401602060405180830381865afa15801561187b573d6000803e3d6000fd5b505050506040513d601f19601f8201168201806040525081019061189f919061556d565b816003018190555081833373ffffffffffffffffffffffffffffffffffffffff167ff0a4b106684863ac7bbc666f47a082e4f6a197f11447743c5347b3344b6b527e428a8a8a8181106118f5576118f461559a565b5b905060200201602081019061190a91906158ed565b604051611918929190615929565b60405180910390a483600101935050505061157c565b50505050505050565b60005b828290508110156119725761196783838381811061195b5761195a61559a565b5b90506020020135612d3a565b80600101905061193a565b505050565b61198384848484612eb5565b60005b84849050811015611b6b5760008383838181106119a6576119a561559a565b5b9050602002013590506000600860008888868181106119c8576119c761559a565b5b905060200201358152602001908152602001600020905073__$c89922958da0ecd017c5bfa382f5c80a2d$__6398390484826040518263ffffffff1660e01b8152600401611a169190615959565b60006040518083038186803b158015611a2e57600080fd5b505af4158015611a42573d6000803e3d6000fd5b50505050600560009054906101000a900473ffffffffffffffffffffffffffffffffffffffff1673ffffffffffffffffffffffffffffffffffffffff1663f242432a33308560016040518563ffffffff1660e01b8152600401611aa894939291906159dc565b600060405180830381600087803b158015611ac257600080fd5b505af1158015611ad6573d6000803e3d6000fd5b505050506001820181600001601c6101000a81548163ffffffff021916908363ffffffff16021790555081878785818110611b1457611b1361559a565b5b905060200201353373ffffffffffffffffffffffffffffffffffffffff167f085b924bab9c71a3a17b45cf23191479522f5088263b5d8e87eb68f16ac1a0a860405160405180910390a48260010192505050611986565b5050505050565b611b7a61488d565b600760008381526020019081526020016000206040518060600160405290816000820160009054906101000a900473ffffffffffffffffffffffffffffffffffffffff1673ffffffffffffffffffffffffffffffffffffffff1673ffffffffffffffffffffffffffffffffffffffff1681526020016000820160149054906101000a900465ffffffffffff1665ffffffffffff1665ffffffffffff16815260200160008201601a9054906101000a900465ffffffffffff1665ffffffffffff1665ffffffffffff16815250509050919050565b611c5984848484612eb5565b60005b84849050811015611e41576000838383818110611c7c57611c7b61559a565b5b905060200201359050600060086000888886818110611c9e57611c9d61559a565b5b905060200201358152602001908152602001600020905073__$c89922958da0ecd017c5bfa382f5c80a2d$__639b0114ec82846040518363ffffffff1660e01b8152600401611cee929190615a34565b60006040518083038186803b158015611d0657600080fd5b505af4158015611d1a573d6000803e3d6000fd5b50505050600560009054906101000a900473ffffffffffffffffffffffffffffffffffffffff1673ffffffffffffffffffffffffffffffffffffffff1663f242432a30338560016040518563ffffffff1660e01b8152600401611d8094939291906159dc565b600060405180830381600087803b158015611d9a57600080fd5b505af1158015611dae573d6000803e3d6000fd5b50505050600081600001601c6101000a81548163ffffffff021916908363ffffffff16021790555081878785818110611dea57611de961559a565b5b905060200201353373ffffffffffffffffffffffffffffffffffffffff167f7db14b2c864954e7ddaa6550066e524715079a7e4e01a90e1011e357bbc10c6960405160405180910390a48260010192505050611c5c565b5050505050565b611e5486868686612eb5565b818190508484905014611e93576040517f22cb666100000000000000000000000000000000000000000000000000000000815260040160405180910390fd5b60005b868690508110156122ca57600080888884818110611eb757611eb661559a565b5b90506020020135878785818110611ed157611ed061559a565b5b9050602002013591509150600060086000848152602001908152602001600020905073__$c89922958da0ecd017c5bfa382f5c80a2d$__6319bfe45c600460009054906101000a900473ffffffffffffffffffffffffffffffffffffffff1685858a8a8a818110611f4557611f4461559a565b5b9050602002016020810190611f5a9190615a82565b6040518563ffffffff1660e01b8152600401611f799493929190615abe565b60006040518083038186803b158015611f9157600080fd5b505af4158015611fa5573d6000803e3d6000fd5b50505050600660009054906101000a900473ffffffffffffffffffffffffffffffffffffffff1673ffffffffffffffffffffffffffffffffffffffff1663f242432a33308560016040518563ffffffff1660e01b815260040161200b94939291906159dc565b600060405180830381600087803b15801561202557600080fd5b505af1158015612039573d6000803e3d6000fd5b50505050600460009054906101000a900473ffffffffffffffffffffffffffffffffffffffff1673ffffffffffffffffffffffffffffffffffffffff166323b872dd3330866040518463ffffffff1660e01b815260040161209c93929190615632565b600060405180830381600087803b1580156120b657600080fd5b505af11580156120ca573d6000803e3d6000fd5b50505050338160000160006101000a81548173ffffffffffffffffffffffffffffffffffffffff021916908373ffffffffffffffffffffffffffffffffffffffff160217905550428160000160146101000a81548163ffffffff021916908363ffffffff160217905550818160000160186101000a81548163ffffffff021916908363ffffffff16021790555085858581811061216a5761216961559a565b5b905060200201602081019061217f9190615a82565b8160020160006101000a81548160ff021916908360028111156121a5576121a4614ff0565b5b0217905550600260009054906101000a900473ffffffffffffffffffffffffffffffffffffffff1673ffffffffffffffffffffffffffffffffffffffff16638678a7b26040518163ffffffff1660e01b81526004016020604051808303816000875af1158015612219573d6000803e3d6000fd5b505050506040513d601f19601f8201168201806040525081019061223d919061556d565b816001018190555081833373ffffffffffffffffffffffffffffffffffffffff167faf1d047d6158df0c7beade7a6810e77e0817265bf671190ebad2b03dd889a2b28989898181106122925761229161559a565b5b90506020020160208101906122a79190615a82565b6040516122b49190615b12565b60405180910390a4836001019350505050611e96565b50505050505050565b6122db6148d4565b600860008381526020019081526020016000206040518060c00160405290816000820160009054906101000a900473ffffffffffffffffffffffffffffffffffffffff1673ffffffffffffffffffffffffffffffffffffffff1673ffffffffffffffffffffffffffffffffffffffff1681526020016000820160149054906101000a900463ffffffff1663ffffffff1663ffffffff1681526020016000820160189054906101000a900463ffffffff1663ffffffff1663ffffffff16815260200160008201601c9054906101000a900463ffffffff1663ffffffff1663ffffffff168152602001600182015481526020016002820160009054906101000a900460ff1660028111156123f0576123ef614ff0565b5b600281111561240257612401614ff0565b5b815250509050919050565b60005b828290508110156124485761243d8383838181106124315761243061559a565b5b90506020020135613019565b806001019050612410565b505050565b81819050848490501461248c576040517f22cb666100000000000000000000000000000000000000000000000000000000815260040160405180910390fd5b60005b84849050811015612511576124bc8585838181106124b0576124af61559a565b5b90506020020135613348565b6125068585838181106124d2576124d161559a565b5b905060200201358484848181106124ec576124eb61559a565b5b90506020020160208101906125019190615b65565b613704565b80600101905061248f565b5050505050565b60005b8282905081101561295e57600083838381811061253b5761253a61559a565b5b90506020020135905061254d81613019565b6000600860008381526020019081526020016000206040518060c00160405290816000820160009054906101000a900473ffffffffffffffffffffffffffffffffffffffff1673ffffffffffffffffffffffffffffffffffffffff1673ffffffffffffffffffffffffffffffffffffffff1681526020016000820160149054906101000a900463ffffffff1663ffffffff1663ffffffff1681526020016000820160189054906101000a900463ffffffff1663ffffffff1663ffffffff16815260200160008201601c9054906101000a900463ffffffff1663ffffffff1663ffffffff168152602001600182015481526020016002820160009054906101000a900460ff16600281111561266457612663614ff0565b5b600281111561267657612675614ff0565b5b81525050905060086000838152602001908152602001600020600080820160006101000a81549073ffffffffffffffffffffffffffffffffffffffff02191690556000820160146101000a81549063ffffffff02191690556000820160186101000a81549063ffffffff021916905560008201601c6101000a81549063ffffffff021916905560018201600090556002820160006101000a81549060ff021916905550506000816060015163ffffffff16146127d157600560009054906101000a900473ffffffffffffffffffffffffffffffffffffffff1673ffffffffffffffffffffffffffffffffffffffff1663f242432a30336001856060015161277d9190615b92565b60016040518563ffffffff1660e01b815260040161279e9493929190615bfb565b600060405180830381600087803b1580156127b857600080fd5b505af11580156127cc573d6000803e3d6000fd5b505050505b6000816040015163ffffffff161461287c57600660009054906101000a900473ffffffffffffffffffffffffffffffffffffffff1673ffffffffffffffffffffffffffffffffffffffff1663f242432a3033846040015160016040518563ffffffff1660e01b81526004016128499493929190615bfb565b600060405180830381600087803b15801561286357600080fd5b505af1158015612877573d6000803e3d6000fd5b505050505b600460009054906101000a900473ffffffffffffffffffffffffffffffffffffffff1673ffffffffffffffffffffffffffffffffffffffff166323b872dd3033856040518463ffffffff1660e01b81526004016128db93929190615632565b600060405180830381600087803b1580156128f557600080fd5b505af1158015612909573d6000803e3d6000fd5b50505050813373ffffffffffffffffffffffffffffffffffffffff167f829b142282bbe71c01b98e565ed26a8cc7cdc9446201b49bf41b184efa57ed5960405160405180910390a3826001019250505061251b565b505050565b61296b614944565b60096000838152602001908152602001600020604051806101000160405290816000820160009054906101000a900473ffffffffffffffffffffffffffffffffffffffff1673ffffffffffffffffffffffffffffffffffffffff1673ffffffffffffffffffffffffffffffffffffffff1681526020016000820160149054906101000a900467ffffffffffffffff1667ffffffffffffffff1667ffffffffffffffff1681526020016001820160009054906101000a900467ffffffffffffffff1667ffffffffffffffff1667ffffffffffffffff1681526020016001820160089054906101000a900467ffffffffffffffff1667ffffffffffffffff1667ffffffffffffffff1681526020016001820160109054906101000a900467ffffffffffffffff1667ffffffffffffffff1667ffffffffffffffff16815260200160028201548152602001600382015481526020016004820160009054906101000a900460ff166002811115612ae157612ae0614ff0565b5b6002811115612af357612af2614ff0565b5b815250509050919050565b818190508484905014612b3d576040517f22cb666100000000000000000000000000000000000000000000000000000000815260040160405180910390fd5b60005b84849050811015612ba057612b95858583818110612b6157612b6061559a565b5b90506020020135848484818110612b7b57612b7a61559a565b5b9050602002016020810190612b909190615b65565b613be2565b806001019050612b40565b5050505050565b60005b82829050811015612be257612bd7838383818110612bcb57612bca61559a565b5b90506020020135613f50565b806001019050612baa565b505050565b600080600760008481526020019081526020016000206040518060600160405290816000820160009054906101000a900473ffffffffffffffffffffffffffffffffffffffff1673ffffffffffffffffffffffffffffffffffffffff1673ffffffffffffffffffffffffffffffffffffffff1681526020016000820160149054906101000a900465ffffffffffff1665ffffffffffff1665ffffffffffff16815260200160008201601a9054906101000a900465ffffffffffff1665ffffffffffff1665ffffffffffff168152505090506000816040015165ffffffffffff1603612cd6576000915050612d1f565b670de0b6b3a7640000600a62015180836040015165ffffffffffff1642612cfd9190615c53565b612d079190615cb6565b612d119190615ce7565b612d1b9190615ce7565b9150505b919050565b600063f23a6e6160e01b90509695505050505050565b6000612d4582612be7565b905060008103612d81576040517f9b4bb81b00000000000000000000000000000000000000000000000000000000815260040160405180910390fd5b4260076000848152602001908152602001600020600001601a6101000a81548165ffffffffffff021916908365ffffffffffff160217905550600160009054906101000a900473ffffffffffffffffffffffffffffffffffffffff1673ffffffffffffffffffffffffffffffffffffffff166340c10f1933836040518363ffffffff1660e01b8152600401612e17929190615d29565b600060405180830381600087803b158015612e3157600080fd5b505af1158015612e45573d6000803e3d6000fd5b5050505080823373ffffffffffffffffffffffffffffffffffffffff167f97c662bac04c9fd14924d37fb5267cb2203e308f338f2c92418adecab0681b2a60405160405180910390a45050565b6000808273ffffffffffffffffffffffffffffffffffffffff163b119050919050565b818190508484905014612ef4576040517f22cb666100000000000000000000000000000000000000000000000000000000815260040160405180910390fd5b50505050565b6040516323b872dd600052836020528260405281606052602060006064601c6000895af13d156001600051141716612f3a57637939f4246000526004601cfd5b6000606052806040525050505050565b80836002016000828254019250508190555082600101600081819054906101000a900467ffffffffffffffff1660010191906101000a81548167ffffffffffffffff021916908367ffffffffffffffff16021790555080600b600084815260200190815260200160002060004281526020019081526020016000208190555042600a600084815260200190815260200160002060008560010160009054906101000a900467ffffffffffffffff1667ffffffffffffffff16815260200190815260200160002081905550505050565b60006008600083815260200190815260200160002090508060000160009054906101000a900473ffffffffffffffffffffffffffffffffffffffff1673ffffffffffffffffffffffffffffffffffffffff163373ffffffffffffffffffffffffffffffffffffffff16146130b9576040517f091fe61c00000000000000000000000000000000000000000000000000000000815260040160405180910390fd5b6203f4808160000160149054906101000a900463ffffffff166130dc9190615d52565b63ffffffff1642101561311b576040517f5488a9fc00000000000000000000000000000000000000000000000000000000815260040160405180910390fd5b600061323f83836040518060c00160405290816000820160009054906101000a900473ffffffffffffffffffffffffffffffffffffffff1673ffffffffffffffffffffffffffffffffffffffff1673ffffffffffffffffffffffffffffffffffffffff1681526020016000820160149054906101000a900463ffffffff1663ffffffff1663ffffffff1681526020016000820160189054906101000a900463ffffffff1663ffffffff1663ffffffff16815260200160008201601c9054906101000a900463ffffffff1663ffffffff1663ffffffff168152602001600182015481526020016002820160009054906101000a900460ff16600281111561322457613223614ff0565b5b600281111561323657613235614ff0565b5b815250506141aa565b9050600081146132dc57600360009054906101000a900473ffffffffffffffffffffffffffffffffffffffff1673ffffffffffffffffffffffffffffffffffffffff1663156e29f6338360016040518463ffffffff1660e01b81526004016132a993929190615d8a565b600060405180830381600087803b1580156132c357600080fd5b505af11580156132d7573d6000803e3d6000fd5b505050505b428260000160146101000a81548163ffffffff021916908363ffffffff160217905550823373ffffffffffffffffffffffffffffffffffffffff167f5a0db36dd607437cb4689c3ac30ccb5940e032dab1c80eefe397f5f43202b34e60405160405180910390a3505050565b600060096000838152602001908152602001600020604051806101000160405290816000820160009054906101000a900473ffffffffffffffffffffffffffffffffffffffff1673ffffffffffffffffffffffffffffffffffffffff1673ffffffffffffffffffffffffffffffffffffffff1681526020016000820160149054906101000a900467ffffffffffffffff1667ffffffffffffffff1667ffffffffffffffff1681526020016001820160009054906101000a900467ffffffffffffffff1667ffffffffffffffff1667ffffffffffffffff1681526020016001820160089054906101000a900467ffffffffffffffff1667ffffffffffffffff1667ffffffffffffffff1681526020016001820160109054906101000a900467ffffffffffffffff1667ffffffffffffffff1667ffffffffffffffff16815260200160028201548152602001600382015481526020016004820160009054906101000a900460ff1660028111156134c0576134bf614ff0565b5b60028111156134d2576134d1614ff0565b5b8152505090506000806134e484610443565b8360e00151915091506000600281111561350157613500614ff0565b5b81600281111561351457613513614ff0565b5b036135ad57600460009054906101000a900473ffffffffffffffffffffffffffffffffffffffff1673ffffffffffffffffffffffffffffffffffffffff1663743f4e9485846040518363ffffffff1660e01b8152600401613576929190615dc1565b600060405180830381600087803b15801561359057600080fd5b505af11580156135a4573d6000803e3d6000fd5b505050506136fe565b600160028111156135c1576135c0614ff0565b5b8160028111156135d4576135d3614ff0565b5b0361366d57600460009054906101000a900473ffffffffffffffffffffffffffffffffffffffff1673ffffffffffffffffffffffffffffffffffffffff1663067ea39285846040518363ffffffff1660e01b8152600401613636929190615dc1565b600060405180830381600087803b15801561365057600080fd5b505af1158015613664573d6000803e3d6000fd5b505050506136fd565b600460009054906101000a900473ffffffffffffffffffffffffffffffffffffffff1673ffffffffffffffffffffffffffffffffffffffff1663e0c5057785846040518363ffffffff1660e01b81526004016136ca929190615dc1565b600060405180830381600087803b1580156136e457600080fd5b505af11580156136f8573d6000803e3d6000fd5b505050505b5b50505050565b600060096000848152602001908152602001600020604051806101000160405290816000820160009054906101000a900473ffffffffffffffffffffffffffffffffffffffff1673ffffffffffffffffffffffffffffffffffffffff1673ffffffffffffffffffffffffffffffffffffffff1681526020016000820160149054906101000a900467ffffffffffffffff1667ffffffffffffffff1667ffffffffffffffff1681526020016001820160009054906101000a900467ffffffffffffffff1667ffffffffffffffff1667ffffffffffffffff1681526020016001820160089054906101000a900467ffffffffffffffff1667ffffffffffffffff1667ffffffffffffffff1681526020016001820160109054906101000a900467ffffffffffffffff1667ffffffffffffffff1667ffffffffffffffff16815260200160028201548152602001600382015481526020016004820160009054906101000a900460ff16600281111561387c5761387b614ff0565b5b600281111561388e5761388d614ff0565b5b81525050905060008160a00151036138d2576040517f9b4bb81b00000000000000000000000000000000000000000000000000000000815260040160405180910390fd5b600080600190506000805b846040015167ffffffffffffffff168311613a9957600080600a60008a8152602001908152602001600020600086815260200190815260200160002054600a60008b81526020019081526020016000206000600188018152602001908152602001600020549150915062278d00820142108015613958575087155b15613964575050613a8e565b62278d008201421080156139755750875b6139a857600b60008a815260200190815260200160002060008381526020019081526020016000205484019350836139e4565b6002600b60008b8152602001908152602001600020600084815260200190815260200160002054816139dd576139dc615c87565b5b0484019350835b5087806139ff57506001876040015167ffffffffffffffff16145b613a305780600a60008b81526020019081526020016000206000878152602001908152602001600020819055613a5a565b6000600a60008b815260200190815260200160002060008781526020019081526020016000208190555b506000600b60008b815260200190815260200160002060008481526020019081526020016000208190555082600101925050505b8260010192506138dd565b806009600089815260200190815260200160002060010160008282829054906101000a900467ffffffffffffffff160392506101000a81548167ffffffffffffffff021916908367ffffffffffffffff160217905550816009600089815260200190815260200160002060020160008282540392505081905550818560a0015103935060008414158015613b2a5750855b15613b5e57613b5d600160009054906101000a900473ffffffffffffffffffffffffffffffffffffffff1660018661441b565b5b60008214613b9457613b93600160009054906101000a900473ffffffffffffffffffffffffffffffffffffffff16338661441b565b5b81873373ffffffffffffffffffffffffffffffffffffffff167fa720e44767e2cddb37cfa697023b1f3875d107b58722b1cb628083a465290af860405160405180910390a450505050505050565b600060096000848152602001908152602001600020604051806101000160405290816000820160009054906101000a900473ffffffffffffffffffffffffffffffffffffffff1673ffffffffffffffffffffffffffffffffffffffff1673ffffffffffffffffffffffffffffffffffffffff1681526020016000820160149054906101000a900467ffffffffffffffff1667ffffffffffffffff1667ffffffffffffffff1681526020016001820160009054906101000a900467ffffffffffffffff1667ffffffffffffffff1667ffffffffffffffff1681526020016001820160089054906101000a900467ffffffffffffffff1667ffffffffffffffff1667ffffffffffffffff1681526020016001820160109054906101000a900467ffffffffffffffff1667ffffffffffffffff1667ffffffffffffffff16815260200160028201548152602001600382015481526020016004820160009054906101000a900460ff166002811115613d5a57613d59614ff0565b5b6002811115613d6c57613d6b614ff0565b5b8152505090503373ffffffffffffffffffffffffffffffffffffffff16816000015173ffffffffffffffffffffffffffffffffffffffff1614613ddb576040517f091fe61c00000000000000000000000000000000000000000000000000000000815260040160405180910390fd5b6000613de684610d8f565b905060008103613e22576040517f9b4bb81b00000000000000000000000000000000000000000000000000000000815260040160405180910390fd5b426009600086815260200190815260200160002060010160106101000a81548167ffffffffffffffff021916908367ffffffffffffffff16021790555082613ef857600160009054906101000a900473ffffffffffffffffffffffffffffffffffffffff1673ffffffffffffffffffffffffffffffffffffffff166340c10f1933836040518363ffffffff1660e01b8152600401613ec1929190615d29565b600060405180830381600087803b158015613edb57600080fd5b505af1158015613eef573d6000803e3d6000fd5b50505050613f03565b613f028482614464565b5b821515843373ffffffffffffffffffffffffffffffffffffffff167f10fffc2725e2f04d2e9a7aa7762d3db31dd4051420267e5be076a5b13e8bb07760405160405180910390a450505050565b600060096000838152602001908152602001600020905073__$c89922958da0ecd017c5bfa382f5c80a2d$__639d79d148826040518263ffffffff1660e01b8152600401613f9e9190615dea565b60006040518083038186803b158015613fb657600080fd5b505af4158015613fca573d6000803e3d6000fd5b505050506000613fd983610d8f565b1115613feb57613fea826000613be2565b5b60008160020154111561400457614003826001613704565b5b60096000838152602001908152602001600020600080820160006101000a81549073ffffffffffffffffffffffffffffffffffffffff02191690556000820160146101000a81549067ffffffffffffffff02191690556001820160006101000a81549067ffffffffffffffff02191690556001820160086101000a81549067ffffffffffffffff02191690556001820160106101000a81549067ffffffffffffffff0219169055600282016000905560038201600090556004820160006101000a81549060ff02191690555050600460009054906101000a900473ffffffffffffffffffffffffffffffffffffffff1673ffffffffffffffffffffffffffffffffffffffff166323b872dd3033856040518463ffffffff1660e01b815260040161413093929190615632565b600060405180830381600087803b15801561414a57600080fd5b505af115801561415e573d6000803e3d6000fd5b50505050813373ffffffffffffffffffffffffffffffffffffffff167f26727522aa20721ee01410aea547e7fc187973e8abf49394168d3c9cb4c90cf260405160405180910390a35050565b6000806065600260009054906101000a900473ffffffffffffffffffffffffffffffffffffffff1673ffffffffffffffffffffffffffffffffffffffff16634ad30a7585608001516040518263ffffffff1660e01b815260040161420e9190614a55565b602060405180830381865afa15801561422b573d6000803e3d6000fd5b505050506040513d601f19601f8201168201806040525081019061424f919061556d565b6142599190615e05565b90506000836060015163ffffffff169050600080600061427c8760a00151614655565b91509150600080600086036142c457603d87101561429c578394506142c3565b603c871180156142ac5750605187105b156142b9578294506142c2565b60039150600290505b5b5b600186036143055760428710156142dd57839450614304565b6042871180156142ed5750605687105b156142fa57829450614303565b60109150600590505b5b5b6002860361434657604287101561431e57839450614345565b60418711801561432e5750606087105b1561433b57829450614344565b600b9150600690505b5b5b6003860361438757604787101561435f57839450614386565b60468711801561436f5750606087105b1561437c57829450614385565b60069150600190505b5b5b60008214158015614399575060008114155b156143ba576143b98a8a6040015163ffffffff1684848d60800151614707565b5b600486036143d557604787106143d057826143d2565b835b94505b600586036143f057604287106143eb57826143ed565b835b94505b6006860361440b57603d87106144065782614408565b835b94505b8497505050505050505092915050565b81601a5280603a5269a9059cbb00000000000060005260206000604460166000875af13d15600160005114171661445a576390b8ec186000526004601cfd5b6000603a52505050565b6000683635c9adc5dea000008261447b9190615e05565b90508181036144b6576040517f1d823d0700000000000000000000000000000000000000000000000000000000815260040160405180910390fd5b6000811461454e57600160009054906101000a900473ffffffffffffffffffffffffffffffffffffffff1673ffffffffffffffffffffffffffffffffffffffff166340c10f1933836040518363ffffffff1660e01b815260040161451b929190615d29565b600060405180830381600087803b15801561453557600080fd5b505af1158015614549573d6000803e3d6000fd5b505050505b6000818361455c9190615c53565b905061457b600960008681526020019081526020016000208583612f4a565b600160009054906101000a900473ffffffffffffffffffffffffffffffffffffffff1673ffffffffffffffffffffffffffffffffffffffff166340c10f1930836040518363ffffffff1660e01b81526004016145d8929190615d29565b600060405180830381600087803b1580156145f257600080fd5b505af1158015614606573d6000803e3d6000fd5b5050505083813373ffffffffffffffffffffffffffffffffffffffff167f1004c640a4c8dbc3c9dd5ff33837d99e4882aaf2b20fb8e7c419fc83c8ca5bd060405160405180910390a450505050565b6000806000600281111561466c5761466b614ff0565b5b83600281111561467f5761467e614ff0565b5b03614691576001600480925081935050505b600160028111156146a5576146a4614ff0565b5b8360028111156146b8576146b7614ff0565b5b036146ca576002600580925081935050505b6002808111156146dd576146dc614ff0565b5b8360028111156146f0576146ef614ff0565b5b03614702576003600680925081935050505b915091565b600083600260009054906101000a900473ffffffffffffffffffffffffffffffffffffffff1673ffffffffffffffffffffffffffffffffffffffff16634ad30a75846040518263ffffffff1660e01b81526004016147659190614a55565b602060405180830381865afa158015614782573d6000803e3d6000fd5b505050506040513d601f19601f820116820180604052508101906147a6919061556d565b6147b09190615e05565b90508281101561488557600660009054906101000a900473ffffffffffffffffffffffffffffffffffffffff1673ffffffffffffffffffffffffffffffffffffffff1663f242432a30338860016040518563ffffffff1660e01b815260040161481c94939291906159dc565b600060405180830381600087803b15801561483657600080fd5b505af115801561484a573d6000803e3d6000fd5b5050505060006008600088815260200190815260200160002060000160186101000a81548163ffffffff021916908363ffffffff1602179055505b505050505050565b6040518060600160405280600073ffffffffffffffffffffffffffffffffffffffff168152602001600065ffffffffffff168152602001600065ffffffffffff1681525090565b6040518060c00160405280600073ffffffffffffffffffffffffffffffffffffffff168152602001600063ffffffff168152602001600063ffffffff168152602001600063ffffffff168152602001600081526020016000600281111561493e5761493d614ff0565b5b81525090565b604051806101000160405280600073ffffffffffffffffffffffffffffffffffffffff168152602001600067ffffffffffffffff168152602001600067ffffffffffffffff168152602001600067ffffffffffffffff168152602001600067ffffffffffffffff1681526020016000815260200160008152602001600060028111156149d3576149d2614ff0565b5b81525090565b600080fd5b600080fd5b6000819050919050565b6149f6816149e3565b8114614a0157600080fd5b50565b600081359050614a13816149ed565b92915050565b600060208284031215614a2f57614a2e6149d9565b5b6000614a3d84828501614a04565b91505092915050565b614a4f816149e3565b82525050565b6000602082019050614a6a6000830184614a46565b92915050565b600080fd5b600080fd5b600080fd5b60008083601f840112614a9557614a94614a70565b5b8235905067ffffffffffffffff811115614ab257614ab1614a75565b5b602083019150836020820283011115614ace57614acd614a7a565b5b9250929050565b60008060208385031215614aec57614aeb6149d9565b5b600083013567ffffffffffffffff811115614b0a57614b096149de565b5b614b1685828601614a7f565b92509250509250929050565b600073ffffffffffffffffffffffffffffffffffffffff82169050919050565b6000614b4d82614b22565b9050919050565b614b5d81614b42565b8114614b6857600080fd5b50565b600081359050614b7a81614b54565b92915050565b600080600080600080600060e0888a031215614b9f57614b9e6149d9565b5b6000614bad8a828b01614b6b565b9750506020614bbe8a828b01614b6b565b9650506040614bcf8a828b01614b6b565b9550506060614be08a828b01614b6b565b9450506080614bf18a828b01614b6b565b93505060a0614c028a828b01614b6b565b92505060c0614c138a828b01614b6b565b91505092959891949750929550565b614c2b81614b42565b82525050565b600060e082019050614c46600083018a614c22565b614c536020830189614c22565b614c606040830188614c22565b614c6d6060830187614c22565b614c7a6080830186614c22565b614c8760a0830185614c22565b614c9460c0830184614c22565b98975050505050505050565b60008060008060408587031215614cba57614cb96149d9565b5b600085013567ffffffffffffffff811115614cd857614cd76149de565b5b614ce487828801614a7f565b9450945050602085013567ffffffffffffffff811115614d0757614d066149de565b5b614d1387828801614a7f565b925092505092959194509250565b60008083601f840112614d3757614d36614a70565b5b8235905067ffffffffffffffff811115614d5457614d53614a75565b5b602083019150836020820283011115614d7057614d6f614a7a565b5b9250929050565b60008060008060008060608789031215614d9457614d936149d9565b5b600087013567ffffffffffffffff811115614db257614db16149de565b5b614dbe89828a01614a7f565b9650965050602087013567ffffffffffffffff811115614de157614de06149de565b5b614ded89828a01614a7f565b9450945050604087013567ffffffffffffffff811115614e1057614e0f6149de565b5b614e1c89828a01614d21565b92509250509295509295509295565b614e3481614b42565b82525050565b600065ffffffffffff82169050919050565b614e5581614e3a565b82525050565b606082016000820151614e716000850182614e2b565b506020820151614e846020850182614e4c565b506040820151614e976040850182614e4c565b50505050565b6000606082019050614eb26000830184614e5b565b92915050565b60008083601f840112614ece57614ecd614a70565b5b8235905067ffffffffffffffff811115614eeb57614eea614a75565b5b602083019150836020820283011115614f0757614f06614a7a565b5b9250929050565b60008060008060008060608789031215614f2b57614f2a6149d9565b5b600087013567ffffffffffffffff811115614f4957614f486149de565b5b614f5589828a01614a7f565b9650965050602087013567ffffffffffffffff811115614f7857614f776149de565b5b614f8489828a01614a7f565b9450945050604087013567ffffffffffffffff811115614fa757614fa66149de565b5b614fb389828a01614eb8565b92509250509295509295509295565b600063ffffffff82169050919050565b614fdb81614fc2565b82525050565b614fea816149e3565b82525050565b7f4e487b7100000000000000000000000000000000000000000000000000000000600052602160045260246000fd5b600381106150305761502f614ff0565b5b50565b60008190506150418261501f565b919050565b600061505182615033565b9050919050565b61506181615046565b82525050565b60c08201600082015161507d6000850182614e2b565b5060208201516150906020850182614fd2565b5060408201516150a36040850182614fd2565b5060608201516150b66060850182614fd2565b5060808201516150c96080850182614fe1565b5060a08201516150dc60a0850182615058565b50505050565b600060c0820190506150f76000830184615067565b92915050565b60008083601f84011261511357615112614a70565b5b8235905067ffffffffffffffff8111156151305761512f614a75565b5b60208301915083602082028301111561514c5761514b614a7a565b5b9250929050565b6000806000806040858703121561516d5761516c6149d9565b5b600085013567ffffffffffffffff81111561518b5761518a6149de565b5b61519787828801614a7f565b9450945050602085013567ffffffffffffffff8111156151ba576151b96149de565b5b6151c6878288016150fd565b925092505092959194509250565b600067ffffffffffffffff82169050919050565b6151f1816151d4565b82525050565b6003811061520857615207614ff0565b5b50565b6000819050615219826151f7565b919050565b60006152298261520b565b9050919050565b6152398161521e565b82525050565b610100820160008201516152566000850182614e2b565b50602082015161526960208501826151e8565b50604082015161527c60408501826151e8565b50606082015161528f60608501826151e8565b5060808201516152a260808501826151e8565b5060a08201516152b560a0850182614fe1565b5060c08201516152c860c0850182614fe1565b5060e08201516152db60e0850182615230565b50505050565b6000610100820190506152f7600083018461523f565b92915050565b60008083601f84011261531357615312614a70565b5b8235905067ffffffffffffffff8111156153305761532f614a75565b5b60208301915083600182028301111561534c5761534b614a7a565b5b9250929050565b60008060008060008060a087890312156153705761536f6149d9565b5b600061537e89828a01614b6b565b965050602061538f89828a01614b6b565b95505060406153a089828a01614a04565b94505060606153b189828a01614a04565b935050608087013567ffffffffffffffff8111156153d2576153d16149de565b5b6153de89828a016152fd565b92509250509295509295509295565b60007fffffffff0000000000000000000000000000000000000000000000000000000082169050919050565b615422816153ed565b82525050565b600060208201905061543d6000830184615419565b92915050565b61544c816149e3565b82525050565b6000819050919050565b600061547761547261546d846151d4565b615452565b6149e3565b9050919050565b6154878161545c565b82525050565b60006154a86154a361549e84614b22565b615452565b614b22565b9050919050565b60006154ba8261548d565b9050919050565b60006154cc826154af565b9050919050565b6154dc816154c1565b82525050565b8082525050565b600060e0820190506154fe600083018a615443565b61550b602083018961547e565b6155186040830188615443565b6155256060830187615443565b61553260808301866154d3565b61553f60a08301856154e2565b61554c60c08301846154e2565b98975050505050505050565b600081519050615567816149ed565b92915050565b600060208284031215615583576155826149d9565b5b600061559184828501615558565b91505092915050565b7f4e487b7100000000000000000000000000000000000000000000000000000000600052603260045260246000fd5b7f4e487b7100000000000000000000000000000000000000000000000000000000600052601160045260246000fd5b600061560382614e3a565b915061560e83614e3a565b9250828201905065ffffffffffff81111561562c5761562b6155c9565b5b92915050565b60006060820190506156476000830186614c22565b6156546020830185614c22565b6156616040830184614a46565b949350505050565b600082825260208201905092915050565b7f496e697469616c697a61626c653a20636f6e747261637420697320616c72656160008201527f647920696e697469616c697a6564000000000000000000000000000000000000602082015250565b60006156d6602e83615669565b91506156e18261567a565b604082019050919050565b60006020820190508181036000830152615705816156c9565b9050919050565b6000819050919050565b600060ff82169050919050565b600061573e6157396157348461570c565b615452565b615716565b9050919050565b61574e81615723565b82525050565b60006020820190506157696000830184615745565b92915050565b60006080820190506157846000830187615443565b615791602083018661547e565b61579e604083018561547e565b6157ab60608301846154d3565b95945050505050565b6000815190506157c381614b54565b92915050565b6000602082840312156157df576157de6149d9565b5b60006157ed848285016157b4565b91505092915050565b600060208201905061580b60008301846154d3565b92915050565b8082525050565b6000615823826154af565b9050919050565b61583381615818565b82525050565b600060608201905061584e6000830186615811565b61585b602083018561582a565b6158686040830184615443565b949350505050565b600061587b826154af565b9050919050565b61588b81615870565b82525050565b60006060820190506158a66000830186615882565b6158b36020830185615443565b6158c06040830184615443565b949350505050565b600381106158d557600080fd5b50565b6000813590506158e7816158c8565b92915050565b600060208284031215615903576159026149d9565b5b6000615911848285016158d8565b91505092915050565b6159238161521e565b82525050565b600060408201905061593e6000830185614a46565b61594b602083018461591a565b9392505050565b8082525050565b600060208201905061596e6000830184615952565b92915050565b600061598f61598a6159858461570c565b615452565b6149e3565b9050919050565b61599f81615974565b82525050565b600082825260208201905092915050565b50565b60006159c66000836159a5565b91506159d1826159b6565b600082019050919050565b600060a0820190506159f16000830187614c22565b6159fe6020830186614c22565b615a0b6040830185614a46565b615a186060830184615996565b8181036080830152615a29816159b9565b905095945050505050565b6000604082019050615a496000830185615952565b615a566020830184615443565b9392505050565b60038110615a6a57600080fd5b50565b600081359050615a7c81615a5d565b92915050565b600060208284031215615a9857615a976149d9565b5b6000615aa684828501615a6d565b91505092915050565b615ab881615046565b82525050565b6000608082019050615ad36000830187615882565b615ae06020830186615443565b615aed6040830185615443565b615afa6060830184615aaf565b95945050505050565b615b0c81615046565b82525050565b6000602082019050615b276000830184615b03565b92915050565b60008115159050919050565b615b4281615b2d565b8114615b4d57600080fd5b50565b600081359050615b5f81615b39565b92915050565b600060208284031215615b7b57615b7a6149d9565b5b6000615b8984828501615b50565b91505092915050565b6000615b9d82614fc2565b9150615ba883614fc2565b9250828203905063ffffffff811115615bc457615bc36155c9565b5b92915050565b6000615be5615be0615bdb84614fc2565b615452565b6149e3565b9050919050565b615bf581615bca565b82525050565b600060a082019050615c106000830187614c22565b615c1d6020830186614c22565b615c2a6040830185615bec565b615c376060830184615996565b8181036080830152615c48816159b9565b905095945050505050565b6000615c5e826149e3565b9150615c69836149e3565b9250828203905081811115615c8157615c806155c9565b5b92915050565b7f4e487b7100000000000000000000000000000000000000000000000000000000600052601260045260246000fd5b6000615cc1826149e3565b9150615ccc836149e3565b925082615cdc57615cdb615c87565b5b828204905092915050565b6000615cf2826149e3565b9150615cfd836149e3565b9250828202615d0b816149e3565b91508282048414831517615d2257615d216155c9565b5b5092915050565b6000604082019050615d3e6000830185614c22565b615d4b6020830184614a46565b9392505050565b6000615d5d82614fc2565b9150615d6883614fc2565b9250828201905063ffffffff811115615d8457615d836155c9565b5b92915050565b6000606082019050615d9f6000830186614c22565b615dac6020830185614a46565b615db96040830184615996565b949350505050565b6000604082019050615dd66000830185614a46565b615de36020830184614a46565b9392505050565b6000602082019050615dff6000830184615811565b92915050565b6000615e10826149e3565b9150615e1b836149e3565b925082615e2b57615e2a615c87565b5b82820690509291505056fea26469706673582212203a1574272710ef0e4047e9ed195f64aef2098827d6c7a82f7a89cb4f652b663464736f6c63430008110033",
  "linkReferences": {
    "contracts/library/Lib.sol": {
      "Lib": [
        {
          "length": 20,
          "start": 1527
        },
        {
          "length": 20,
          "start": 3907
        },
        {
          "length": 20,
          "start": 4787
        },
        {
          "length": 20,
          "start": 5032
        },
        {
          "length": 20,
          "start": 5397
        },
        {
          "length": 20,
          "start": 5628
        },
        {
          "length": 20,
          "start": 6658
        },
        {
          "length": 20,
          "start": 7384
        },
        {
          "length": 20,
          "start": 7958
        },
        {
          "length": 20,
          "start": 16266
        }
      ]
    }
  },
  "deployedLinkReferences": {
    "contracts/library/Lib.sol": {
      "Lib": [
        {
          "length": 20,
          "start": 1494
        },
        {
          "length": 20,
          "start": 3874
        },
        {
          "length": 20,
          "start": 4754
        },
        {
          "length": 20,
          "start": 4999
        },
        {
          "length": 20,
          "start": 5364
        },
        {
          "length": 20,
          "start": 5595
        },
        {
          "length": 20,
          "start": 6625
        },
        {
          "length": 20,
          "start": 7351
        },
        {
          "length": 20,
          "start": 7925
        },
        {
          "length": 20,
          "start": 16233
        }
      ]
    }
  }
}