{
  "_format": "hh-sol-artifact-1",
  "contractName": "mERC721",
  "sourceName": "contracts/mocks/mERC721.sol",
  "abi": [
    {
      "inputs": [],
      "name": "NewOwnerIsZeroAddress",
      "type": "error"
    },
    {
      "inputs": [],
      "name": "NoHandoverRequest",
      "type": "error"
    },
    {
      "inputs": [],
      "name": "NotAContract",
      "type": "error"
    },
    {
      "inputs": [],
      "name": "NotAuthorized",
      "type": "error"
    },
    {
      "inputs": [],
      "name": "Unauthorized",
      "type": "error"
    },
    {
      "anonymous": false,
      "inputs": [
        {
          "indexed": true,
          "internalType": "address",
          "name": "owner",
          "type": "address"
        },
        {
          "indexed": true,
          "internalType": "address",
          "name": "approved",
          "type": "address"
        },
        {
          "indexed": true,
          "internalType": "uint256",
          "name": "tokenId",
          "type": "uint256"
        }
      ],
      "name": "Approval",
      "type": "event"
    },
    {
      "anonymous": false,
      "inputs": [
        {
          "indexed": true,
          "internalType": "address",
          "name": "owner",
          "type": "address"
        },
        {
          "indexed": true,
          "internalType": "address",
          "name": "operator",
          "type": "address"
        },
        {
          "indexed": false,
          "internalType": "bool",
          "name": "approved",
          "type": "bool"
        }
      ],
      "name": "ApprovalForAll",
      "type": "event"
    },
    {
      "anonymous": false,
      "inputs": [
        {
          "indexed": false,
          "internalType": "uint8",
          "name": "version",
          "type": "uint8"
        }
      ],
      "name": "Initialized",
      "type": "event"
    },
    {
      "anonymous": false,
      "inputs": [
        {
          "indexed": true,
          "internalType": "address",
          "name": "pendingOwner",
          "type": "address"
        }
      ],
      "name": "OwnershipHandoverCanceled",
      "type": "event"
    },
    {
      "anonymous": false,
      "inputs": [
        {
          "indexed": true,
          "internalType": "address",
          "name": "pendingOwner",
          "type": "address"
        }
      ],
      "name": "OwnershipHandoverRequested",
      "type": "event"
    },
    {
      "anonymous": false,
      "inputs": [
        {
          "indexed": true,
          "internalType": "address",
          "name": "oldOwner",
          "type": "address"
        },
        {
          "indexed": true,
          "internalType": "address",
          "name": "newOwner",
          "type": "address"
        }
      ],
      "name": "OwnershipTransferred",
      "type": "event"
    },
    {
      "anonymous": false,
      "inputs": [
        {
          "indexed": true,
          "internalType": "address",
          "name": "from",
          "type": "address"
        },
        {
          "indexed": true,
          "internalType": "address",
          "name": "to",
          "type": "address"
        },
        {
          "indexed": true,
          "internalType": "uint256",
          "name": "tokenId",
          "type": "uint256"
        }
      ],
      "name": "Transfer",
      "type": "event"
    },
    {
      "inputs": [
        {
          "internalType": "address",
          "name": "",
          "type": "address"
        }
      ],
      "name": "allowedTo",
      "outputs": [
        {
          "internalType": "bool",
          "name": "",
          "type": "bool"
        }
      ],
      "stateMutability": "view",
      "type": "function"
    },
    {
      "inputs": [
        {
          "internalType": "address",
          "name": "to",
          "type": "address"
        },
        {
          "internalType": "uint256",
          "name": "tokenId",
          "type": "uint256"
        }
      ],
      "name": "approve",
      "outputs": [],
      "stateMutability": "nonpayable",
      "type": "function"
    },
    {
      "inputs": [
        {
          "internalType": "address",
          "name": "owner",
          "type": "address"
        }
      ],
      "name": "balanceOf",
      "outputs": [
        {
          "internalType": "uint256",
          "name": "",
          "type": "uint256"
        }
      ],
      "stateMutability": "view",
      "type": "function"
    },
    {
      "inputs": [],
      "name": "cancelOwnershipHandover",
      "outputs": [],
      "stateMutability": "payable",
      "type": "function"
    },
    {
      "inputs": [
        {
          "internalType": "address",
          "name": "pendingOwner",
          "type": "address"
        }
      ],
      "name": "completeOwnershipHandover",
      "outputs": [],
      "stateMutability": "payable",
      "type": "function"
    },
    {
      "inputs": [
        {
          "internalType": "uint256",
          "name": "_tokenId",
          "type": "uint256"
        },
        {
          "internalType": "uint256",
          "name": "_amount",
          "type": "uint256"
        }
      ],
      "name": "developFarmers",
      "outputs": [],
      "stateMutability": "nonpayable",
      "type": "function"
    },
    {
      "inputs": [
        {
          "internalType": "uint256",
          "name": "_tokenId",
          "type": "uint256"
        },
        {
          "internalType": "uint256",
          "name": "_amount",
          "type": "uint256"
        }
      ],
      "name": "developFighter",
      "outputs": [],
      "stateMutability": "nonpayable",
      "type": "function"
    },
    {
      "inputs": [
        {
          "internalType": "uint256",
          "name": "_tokenId",
          "type": "uint256"
        },
        {
          "internalType": "uint256",
          "name": "_amount",
          "type": "uint256"
        }
      ],
      "name": "developMystics",
      "outputs": [],
      "stateMutability": "nonpayable",
      "type": "function"
    },
    {
      "inputs": [
        {
          "internalType": "uint256",
          "name": "tokenId",
          "type": "uint256"
        }
      ],
      "name": "getApproved",
      "outputs": [
        {
          "internalType": "address",
          "name": "",
          "type": "address"
        }
      ],
      "stateMutability": "view",
      "type": "function"
    },
    {
      "inputs": [
        {
          "internalType": "uint256",
          "name": "_tokenId",
          "type": "uint256"
        }
      ],
      "name": "getCommonSense",
      "outputs": [
        {
          "internalType": "uint256",
          "name": "",
          "type": "uint256"
        }
      ],
      "stateMutability": "view",
      "type": "function"
    },
    {
      "inputs": [
        {
          "internalType": "uint256",
          "name": "_tokenId",
          "type": "uint256"
        }
      ],
      "name": "getPrimarySkill",
      "outputs": [
        {
          "components": [
            {
              "internalType": "uint256",
              "name": "mystics",
              "type": "uint256"
            },
            {
              "internalType": "uint256",
              "name": "farmers",
              "type": "uint256"
            },
            {
              "internalType": "uint256",
              "name": "fighters",
              "type": "uint256"
            }
          ],
          "internalType": "struct mERC721.PrimarySkill",
          "name": "",
          "type": "tuple"
        }
      ],
      "stateMutability": "view",
      "type": "function"
    },
    {
      "inputs": [],
      "name": "initialize",
      "outputs": [],
      "stateMutability": "nonpayable",
      "type": "function"
    },
    {
      "inputs": [
        {
          "internalType": "address",
          "name": "owner",
          "type": "address"
        },
        {
          "internalType": "address",
          "name": "operator",
          "type": "address"
        }
      ],
      "name": "isApprovedForAll",
      "outputs": [
        {
          "internalType": "bool",
          "name": "",
          "type": "bool"
        }
      ],
      "stateMutability": "view",
      "type": "function"
    },
    {
      "inputs": [
        {
          "internalType": "uint256",
          "name": "_amount",
          "type": "uint256"
        }
      ],
      "name": "mint",
      "outputs": [],
      "stateMutability": "nonpayable",
      "type": "function"
    },
    {
      "inputs": [],
      "name": "name",
      "outputs": [
        {
          "internalType": "string",
          "name": "",
          "type": "string"
        }
      ],
      "stateMutability": "view",
      "type": "function"
    },
    {
      "inputs": [],
      "name": "owner",
      "outputs": [
        {
          "internalType": "address",
          "name": "result",
          "type": "address"
        }
      ],
      "stateMutability": "view",
      "type": "function"
    },
    {
      "inputs": [
        {
          "internalType": "uint256",
          "name": "tokenId",
          "type": "uint256"
        }
      ],
      "name": "ownerOf",
      "outputs": [
        {
          "internalType": "address",
          "name": "",
          "type": "address"
        }
      ],
      "stateMutability": "view",
      "type": "function"
    },
    {
      "inputs": [
        {
          "internalType": "address",
          "name": "pendingOwner",
          "type": "address"
        }
      ],
      "name": "ownershipHandoverExpiresAt",
      "outputs": [
        {
          "internalType": "uint256",
          "name": "result",
          "type": "uint256"
        }
      ],
      "stateMutability": "view",
      "type": "function"
    },
    {
      "inputs": [],
      "name": "ownershipHandoverValidFor",
      "outputs": [
        {
          "internalType": "uint64",
          "name": "",
          "type": "uint64"
        }
      ],
      "stateMutability": "view",
      "type": "function"
    },
    {
      "inputs": [],
      "name": "renounceOwnership",
      "outputs": [],
      "stateMutability": "payable",
      "type": "function"
    },
    {
      "inputs": [],
      "name": "requestOwnershipHandover",
      "outputs": [],
      "stateMutability": "payable",
      "type": "function"
    },
    {
      "inputs": [
        {
          "internalType": "address",
          "name": "from",
          "type": "address"
        },
        {
          "internalType": "address",
          "name": "to",
          "type": "address"
        },
        {
          "internalType": "uint256",
          "name": "tokenId",
          "type": "uint256"
        }
      ],
      "name": "safeTransferFrom",
      "outputs": [],
      "stateMutability": "nonpayable",
      "type": "function"
    },
    {
      "inputs": [
        {
          "internalType": "address",
          "name": "from",
          "type": "address"
        },
        {
          "internalType": "address",
          "name": "to",
          "type": "address"
        },
        {
          "internalType": "uint256",
          "name": "tokenId",
          "type": "uint256"
        },
        {
          "internalType": "bytes",
          "name": "data",
          "type": "bytes"
        }
      ],
      "name": "safeTransferFrom",
      "outputs": [],
      "stateMutability": "nonpayable",
      "type": "function"
    },
    {
      "inputs": [
        {
          "internalType": "address",
          "name": "operator",
          "type": "address"
        },
        {
          "internalType": "bool",
          "name": "approved",
          "type": "bool"
        }
      ],
      "name": "setApprovalForAll",
      "outputs": [],
      "stateMutability": "nonpayable",
      "type": "function"
    },
    {
      "inputs": [
        {
          "internalType": "address",
          "name": "_addr",
          "type": "address"
        },
        {
          "internalType": "bool",
          "name": "_state",
          "type": "bool"
        }
      ],
      "name": "setAuthorizedAddress",
      "outputs": [],
      "stateMutability": "nonpayable",
      "type": "function"
    },
    {
      "inputs": [
        {
          "internalType": "string",
          "name": "_uri",
          "type": "string"
        }
      ],
      "name": "setURI",
      "outputs": [],
      "stateMutability": "nonpayable",
      "type": "function"
    },
    {
      "inputs": [
        {
          "internalType": "bytes4",
          "name": "interfaceId",
          "type": "bytes4"
        }
      ],
      "name": "supportsInterface",
      "outputs": [
        {
          "internalType": "bool",
          "name": "",
          "type": "bool"
        }
      ],
      "stateMutability": "view",
      "type": "function"
    },
    {
      "inputs": [],
      "name": "symbol",
      "outputs": [
        {
          "internalType": "string",
          "name": "",
          "type": "string"
        }
      ],
      "stateMutability": "view",
      "type": "function"
    },
    {
      "inputs": [],
      "name": "tokenId",
      "outputs": [
        {
          "internalType": "uint256",
          "name": "",
          "type": "uint256"
        }
      ],
      "stateMutability": "view",
      "type": "function"
    },
    {
      "inputs": [
        {
          "internalType": "uint256",
          "name": "_tokenId",
          "type": "uint256"
        }
      ],
      "name": "tokenURI",
      "outputs": [
        {
          "internalType": "string",
          "name": "",
          "type": "string"
        }
      ],
      "stateMutability": "view",
      "type": "function"
    },
    {
      "inputs": [
        {
          "internalType": "address",
          "name": "from",
          "type": "address"
        },
        {
          "internalType": "address",
          "name": "to",
          "type": "address"
        },
        {
          "internalType": "uint256",
          "name": "tokenId",
          "type": "uint256"
        }
      ],
      "name": "transferFrom",
      "outputs": [],
      "stateMutability": "nonpayable",
      "type": "function"
    },
    {
      "inputs": [
        {
          "internalType": "address",
          "name": "newOwner",
          "type": "address"
        }
      ],
      "name": "transferOwnership",
      "outputs": [],
      "stateMutability": "payable",
      "type": "function"
    },
    {
      "inputs": [],
      "name": "uri",
      "outputs": [
        {
          "internalType": "string",
          "name": "",
          "type": "string"
        }
      ],
      "stateMutability": "view",
      "type": "function"
    }
  ],
  "bytecode": "0x608060405234801561001057600080fd5b5061377d806100206000396000f3fe6080604052600436106101ee5760003560e01c8063743f4e941161010d578063c87b56dd116100a0578063eac989f81161006f578063eac989f8146106aa578063f04e283e146106d5578063f2fde38b146106f1578063f822a5b21461070d578063fee81cf41461074a576101ee565b8063c87b56dd146105dc578063d7533f0214610619578063e0c5057714610644578063e985e9c51461066d576101ee565b806395d89b41116100dc57806395d89b4114610536578063a0712d6814610561578063a22cb4651461058a578063b88d4fde146105b3576101ee565b8063743f4e941461048e57806378aa33ba146104b75780638129fc1c146104f45780638da5cb5b1461050b576101ee565b806323b872dd1161018557806354d1f13d1161015457806354d1f13d146104005780636352211e1461040a57806370a0823114610447578063715018a614610484576101ee565b806323b872dd1461036757806325692962146103905780632a1f41461461039a57806342842e0e146103d7576101ee565b8063081812fc116101c1578063081812fc146102ad578063095ea7b3146102ea5780631351cf511461031357806317d70f7c1461033c576101ee565b806301ffc9a7146101f357806302fe530514610230578063067ea3921461025957806306fdde0314610282575b600080fd5b3480156101ff57600080fd5b5061021a600480360381019061021591906123d0565b610787565b6040516102279190612418565b60405180910390f35b34801561023c57600080fd5b5061025760048036038101906102529190612579565b610869565b005b34801561026557600080fd5b50610280600480360381019061027b91906125f8565b610884565b005b34801561028e57600080fd5b506102976108bd565b6040516102a491906126b7565b60405180910390f35b3480156102b957600080fd5b506102d460048036038101906102cf91906126d9565b61094f565b6040516102e19190612747565b60405180910390f35b3480156102f657600080fd5b50610311600480360381019061030c919061278e565b610995565b005b34801561031f57600080fd5b5061033a600480360381019061033591906127fa565b610aac565b005b34801561034857600080fd5b50610351610b60565b60405161035e9190612849565b60405180910390f35b34801561037357600080fd5b5061038e60048036038101906103899190612864565b610b66565b005b610398610bc6565b005b3480156103a657600080fd5b506103c160048036038101906103bc91906126d9565b610c1a565b6040516103ce9190612908565b60405180910390f35b3480156103e357600080fd5b506103fe60048036038101906103f99190612864565b610c65565b005b610408610c85565b005b34801561041657600080fd5b50610431600480360381019061042c91906126d9565b610cc1565b60405161043e9190612747565b60405180910390f35b34801561045357600080fd5b5061046e60048036038101906104699190612923565b610d47565b60405161047b9190612849565b60405180910390f35b61048c610dfe565b005b34801561049a57600080fd5b506104b560048036038101906104b091906125f8565b610e12565b005b3480156104c357600080fd5b506104de60048036038101906104d99190612923565b610e4b565b6040516104eb9190612418565b60405180910390f35b34801561050057600080fd5b50610509610e6b565b005b34801561051757600080fd5b50610520611036565b60405161052d9190612747565b60405180910390f35b34801561054257600080fd5b5061054b611044565b60405161055891906126b7565b60405180910390f35b34801561056d57600080fd5b50610588600480360381019061058391906126d9565b6110d6565b005b34801561059657600080fd5b506105b160048036038101906105ac91906127fa565b611114565b005b3480156105bf57600080fd5b506105da60048036038101906105d591906129f1565b61112a565b005b3480156105e857600080fd5b5061060360048036038101906105fe91906126d9565b61118c565b60405161061091906126b7565b60405180910390f35b34801561062557600080fd5b5061062e6111c0565b60405161063b9190612a97565b60405180910390f35b34801561065057600080fd5b5061066b600480360381019061066691906125f8565b6111cb565b005b34801561067957600080fd5b50610694600480360381019061068f9190612ab2565b611204565b6040516106a19190612418565b60405180910390f35b3480156106b657600080fd5b506106bf611298565b6040516106cc91906126b7565b60405180910390f35b6106ef60048036038101906106ea9190612923565b611326565b005b61070b60048036038101906107069190612923565b611367565b005b34801561071957600080fd5b50610734600480360381019061072f91906126d9565b611391565b6040516107419190612849565b60405180910390f35b34801561075657600080fd5b50610771600480360381019061076c9190612923565b6113ae565b60405161077e9190612849565b60405180910390f35b60007f80ac58cd000000000000000000000000000000000000000000000000000000007bffffffffffffffffffffffffffffffffffffffffffffffffffffffff1916827bffffffffffffffffffffffffffffffffffffffffffffffffffffffff1916148061085257507f5b5e139f000000000000000000000000000000000000000000000000000000007bffffffffffffffffffffffffffffffffffffffffffffffffffffffff1916827bffffffffffffffffffffffffffffffffffffffffffffffffffffffff1916145b806108625750610861826113c9565b5b9050919050565b610871611433565b80609890816108809190612cfe565b5050565b61088c611450565b80609a600084815260200190815260200160002060010160008282546108b29190612dff565b925050819055505050565b6060606580546108cc90612b21565b80601f01602080910402602001604051908101604052809291908181526020018280546108f890612b21565b80156109455780601f1061091a57610100808354040283529160200191610945565b820191906000526020600020905b81548152906001019060200180831161092857829003601f168201915b5050505050905090565b600061095a826114d5565b6069600083815260200190815260200160002060009054906101000a900473ffffffffffffffffffffffffffffffffffffffff169050919050565b60006109a082610cc1565b90508073ffffffffffffffffffffffffffffffffffffffff168373ffffffffffffffffffffffffffffffffffffffff1603610a10576040517f08c379a0000000000000000000000000000000000000000000000000000000008152600401610a0790612ea5565b60405180910390fd5b8073ffffffffffffffffffffffffffffffffffffffff16610a2f611520565b73ffffffffffffffffffffffffffffffffffffffff161480610a5e5750610a5d81610a58611520565b611204565b5b610a9d576040517f08c379a0000000000000000000000000000000000000000000000000000000008152600401610a9490612f37565b60405180910390fd5b610aa78383611528565b505050565b610ab4611433565b60008273ffffffffffffffffffffffffffffffffffffffff163b03610b05576040517f09ee12d500000000000000000000000000000000000000000000000000000000815260040160405180910390fd5b80609960008473ffffffffffffffffffffffffffffffffffffffff1673ffffffffffffffffffffffffffffffffffffffff16815260200190815260200160002060006101000a81548160ff0219169083151502179055505050565b60975481565b610b77610b71611520565b826115e1565b610bb6576040517f08c379a0000000000000000000000000000000000000000000000000000000008152600401610bad90612fc9565b60405180910390fd5b610bc1838383611676565b505050565b6000610bd06111c0565b67ffffffffffffffff164201905063389a75e1600c5233600052806020600c2055337fdbf36a107da19e49527a7176a1babf963b4b0ff8cde35ee35d6cd8f1f9ac7e1d600080a250565b610c22612343565b609a600083815260200190815260200160002060405180606001604052908160008201548152602001600182015481526020016002820154815250509050919050565b610c808383836040518060200160405280600081525061112a565b505050565b63389a75e1600c523360005260006020600c2055337ffa7b8eab7da67f412cc9575ed43464468f9bfbae89d1675917346ca6d8fe3c92600080a2565b600080610ccd8361196f565b9050600073ffffffffffffffffffffffffffffffffffffffff168173ffffffffffffffffffffffffffffffffffffffff1603610d3e576040517f08c379a0000000000000000000000000000000000000000000000000000000008152600401610d3590613035565b60405180910390fd5b80915050919050565b60008073ffffffffffffffffffffffffffffffffffffffff168273ffffffffffffffffffffffffffffffffffffffff1603610db7576040517f08c379a0000000000000000000000000000000000000000000000000000000008152600401610dae906130c7565b60405180910390fd5b606860008373ffffffffffffffffffffffffffffffffffffffff1673ffffffffffffffffffffffffffffffffffffffff168152602001908152602001600020549050919050565b610e06611433565b610e1060006119ac565b565b610e1a611450565b80609a60008481526020019081526020016000206000016000828254610e409190612dff565b925050819055505050565b60996020528060005260406000206000915054906101000a900460ff1681565b60008060019054906101000a900460ff16159050808015610e9c5750600160008054906101000a900460ff1660ff16105b80610ec95750610eab306119ea565b158015610ec85750600160008054906101000a900460ff1660ff16145b5b610f08576040517f08c379a0000000000000000000000000000000000000000000000000000000008152600401610eff90613159565b60405180910390fd5b60016000806101000a81548160ff021916908360ff1602179055508015610f45576001600060016101000a81548160ff0219169083151502179055505b610f4f600f6110d6565b610f5833611a0d565b6065609b600060018152602001908152602001600020819055506062609b600060028152602001908152602001600020819055506064609b600060038152602001908152602001600020819055506064609b6000600a8152602001908152602001600020819055506064609b6000601081526020019081526020016000208190555080156110335760008060016101000a81548160ff0219169083151502179055507f7f26b83ff96e1f2b6a682f133852f6798a09c465da95921460cefb3847402498600160405161102a91906131c1565b60405180910390a15b50565b6000638b78c6d81954905090565b60606066805461105390612b21565b80601f016020809104026020016040519081016040528092919081815260200182805461107f90612b21565b80156110cc5780601f106110a1576101008083540402835291602001916110cc565b820191906000526020600020905b8154815290600101906020018083116110af57829003601f168201915b5050505050905090565b60005b81811015611110576110ff336097600081546110f4906131dc565b919050819055611a49565b80611109906131dc565b90506110d9565b5050565b61112661111f611520565b8383611c66565b5050565b61113b611135611520565b836115e1565b61117a576040517f08c379a000000000000000000000000000000000000000000000000000000000815260040161117190612fc9565b60405180910390fd5b61118684848484611dd2565b50505050565b6060609861119983611e2e565b6040516020016111aa9291906132e3565b6040516020818303038152906040529050919050565b60006202a300905090565b6111d3611450565b80609a600084815260200190815260200160002060020160008282546111f99190612dff565b925050819055505050565b6000606a60008473ffffffffffffffffffffffffffffffffffffffff1673ffffffffffffffffffffffffffffffffffffffff16815260200190815260200160002060008373ffffffffffffffffffffffffffffffffffffffff1673ffffffffffffffffffffffffffffffffffffffff16815260200190815260200160002060009054906101000a900460ff16905092915050565b609880546112a590612b21565b80601f01602080910402602001604051908101604052809291908181526020018280546112d190612b21565b801561131e5780601f106112f35761010080835404028352916020019161131e565b820191906000526020600020905b81548152906001019060200180831161130157829003601f168201915b505050505081565b61132e611433565b63389a75e1600c52806000526020600c20805442111561135657636f5e88186000526004601cfd5b6000815550611364816119ac565b50565b61136f611433565b8060601b61138557637448fbae6000526004601cfd5b61138e816119ac565b50565b6000609b6000838152602001908152602001600020549050919050565b600063389a75e1600c52816000526020600c20549050919050565b60007f01ffc9a7000000000000000000000000000000000000000000000000000000007bffffffffffffffffffffffffffffffffffffffffffffffffffffffff1916827bffffffffffffffffffffffffffffffffffffffffffffffffffffffff1916149050919050565b638b78c6d81954331461144e576382b429006000526004601cfd5b565b609960003373ffffffffffffffffffffffffffffffffffffffff1673ffffffffffffffffffffffffffffffffffffffff16815260200190815260200160002060009054906101000a900460ff166114d3576040517fea8e4eb500000000000000000000000000000000000000000000000000000000815260040160405180910390fd5b565b6114de81611efc565b61151d576040517f08c379a000000000000000000000000000000000000000000000000000000000815260040161151490613035565b60405180910390fd5b50565b600033905090565b816069600083815260200190815260200160002060006101000a81548173ffffffffffffffffffffffffffffffffffffffff021916908373ffffffffffffffffffffffffffffffffffffffff160217905550808273ffffffffffffffffffffffffffffffffffffffff1661159b83610cc1565b73ffffffffffffffffffffffffffffffffffffffff167f8c5be1e5ebec7d5bd14f71427d1e84f3dd0314c0f7b2291e5b200ac8c7c3b92560405160405180910390a45050565b6000806115ed83610cc1565b90508073ffffffffffffffffffffffffffffffffffffffff168473ffffffffffffffffffffffffffffffffffffffff16148061162f575061162e8185611204565b5b8061166d57508373ffffffffffffffffffffffffffffffffffffffff166116558461094f565b73ffffffffffffffffffffffffffffffffffffffff16145b91505092915050565b8273ffffffffffffffffffffffffffffffffffffffff1661169682610cc1565b73ffffffffffffffffffffffffffffffffffffffff16146116ec576040517f08c379a00000000000000000000000000000000000000000000000000000000081526004016116e390613379565b60405180910390fd5b600073ffffffffffffffffffffffffffffffffffffffff168273ffffffffffffffffffffffffffffffffffffffff160361175b576040517f08c379a00000000000000000000000000000000000000000000000000000000081526004016117529061340b565b60405180910390fd5b6117688383836001611f3d565b8273ffffffffffffffffffffffffffffffffffffffff1661178882610cc1565b73ffffffffffffffffffffffffffffffffffffffff16146117de576040517f08c379a00000000000000000000000000000000000000000000000000000000081526004016117d590613379565b60405180910390fd5b6069600082815260200190815260200160002060006101000a81549073ffffffffffffffffffffffffffffffffffffffff02191690556001606860008573ffffffffffffffffffffffffffffffffffffffff1673ffffffffffffffffffffffffffffffffffffffff168152602001908152602001600020600082825403925050819055506001606860008473ffffffffffffffffffffffffffffffffffffffff1673ffffffffffffffffffffffffffffffffffffffff16815260200190815260200160002060008282540192505081905550816067600083815260200190815260200160002060006101000a81548173ffffffffffffffffffffffffffffffffffffffff021916908373ffffffffffffffffffffffffffffffffffffffff160217905550808273ffffffffffffffffffffffffffffffffffffffff168473ffffffffffffffffffffffffffffffffffffffff167fddf252ad1be2c89b69c2b068fc378daa952ba7f163c4a11628f55a4df523b3ef60405160405180910390a461196a8383836001612063565b505050565b60006067600083815260200190815260200160002060009054906101000a900473ffffffffffffffffffffffffffffffffffffffff169050919050565b638b78c6d8198160601b60601c91508181547f8be0079c531659141344cd1fd0a4f28419497f9722a3daafe3b4186f6b6457e0600080a38181555050565b6000808273ffffffffffffffffffffffffffffffffffffffff163b119050919050565b8060601b60601c905080638b78c6d819558060007f8be0079c531659141344cd1fd0a4f28419497f9722a3daafe3b4186f6b6457e0600080a350565b600073ffffffffffffffffffffffffffffffffffffffff168273ffffffffffffffffffffffffffffffffffffffff1603611ab8576040517f08c379a0000000000000000000000000000000000000000000000000000000008152600401611aaf90613477565b60405180910390fd5b611ac181611efc565b15611b01576040517f08c379a0000000000000000000000000000000000000000000000000000000008152600401611af8906134e3565b60405180910390fd5b611b0f600083836001611f3d565b611b1881611efc565b15611b58576040517f08c379a0000000000000000000000000000000000000000000000000000000008152600401611b4f906134e3565b60405180910390fd5b6001606860008473ffffffffffffffffffffffffffffffffffffffff1673ffffffffffffffffffffffffffffffffffffffff16815260200190815260200160002060008282540192505081905550816067600083815260200190815260200160002060006101000a81548173ffffffffffffffffffffffffffffffffffffffff021916908373ffffffffffffffffffffffffffffffffffffffff160217905550808273ffffffffffffffffffffffffffffffffffffffff16600073ffffffffffffffffffffffffffffffffffffffff167fddf252ad1be2c89b69c2b068fc378daa952ba7f163c4a11628f55a4df523b3ef60405160405180910390a4611c62600083836001612063565b5050565b8173ffffffffffffffffffffffffffffffffffffffff168373ffffffffffffffffffffffffffffffffffffffff1603611cd4576040517f08c379a0000000000000000000000000000000000000000000000000000000008152600401611ccb9061354f565b60405180910390fd5b80606a60008573ffffffffffffffffffffffffffffffffffffffff1673ffffffffffffffffffffffffffffffffffffffff16815260200190815260200160002060008473ffffffffffffffffffffffffffffffffffffffff1673ffffffffffffffffffffffffffffffffffffffff16815260200190815260200160002060006101000a81548160ff0219169083151502179055508173ffffffffffffffffffffffffffffffffffffffff168373ffffffffffffffffffffffffffffffffffffffff167f17307eab39ab6107e8899845ad3d59bd9653f200f220920489ca2b5937696c3183604051611dc59190612418565b60405180910390a3505050565b611ddd848484611676565b611de984848484612069565b611e28576040517f08c379a0000000000000000000000000000000000000000000000000000000008152600401611e1f906135e1565b60405180910390fd5b50505050565b606060006001611e3d846121f0565b01905060008167ffffffffffffffff811115611e5c57611e5b61244e565b5b6040519080825280601f01601f191660200182016040528015611e8e5781602001600182028036833780820191505090505b509050600082602001820190505b600115611ef1578080600190039150507f3031323334353637383961626364656600000000000000000000000000000000600a86061a8153600a8581611ee557611ee4613601565b5b04945060008503611e9c575b819350505050919050565b60008073ffffffffffffffffffffffffffffffffffffffff16611f1e8361196f565b73ffffffffffffffffffffffffffffffffffffffff1614159050919050565b600181111561205d57600073ffffffffffffffffffffffffffffffffffffffff168473ffffffffffffffffffffffffffffffffffffffff1614611fd15780606860008673ffffffffffffffffffffffffffffffffffffffff1673ffffffffffffffffffffffffffffffffffffffff1681526020019081526020016000206000828254611fc99190613630565b925050819055505b600073ffffffffffffffffffffffffffffffffffffffff168373ffffffffffffffffffffffffffffffffffffffff161461205c5780606860008573ffffffffffffffffffffffffffffffffffffffff1673ffffffffffffffffffffffffffffffffffffffff16815260200190815260200160002060008282546120549190612dff565b925050819055505b5b50505050565b50505050565b600061208a8473ffffffffffffffffffffffffffffffffffffffff166119ea565b156121e3578373ffffffffffffffffffffffffffffffffffffffff1663150b7a026120b3611520565b8786866040518563ffffffff1660e01b81526004016120d594939291906136b9565b6020604051808303816000875af192505050801561211157506040513d601f19601f8201168201806040525081019061210e919061371a565b60015b612193573d8060008114612141576040519150601f19603f3d011682016040523d82523d6000602084013e612146565b606091505b50600081510361218b576040517f08c379a0000000000000000000000000000000000000000000000000000000008152600401612182906135e1565b60405180910390fd5b805181602001fd5b63150b7a0260e01b7bffffffffffffffffffffffffffffffffffffffffffffffffffffffff1916817bffffffffffffffffffffffffffffffffffffffffffffffffffffffff1916149150506121e8565b600190505b949350505050565b600080600090507a184f03e93ff9f4daa797ed6e38ed64bf6a1f010000000000000000831061224e577a184f03e93ff9f4daa797ed6e38ed64bf6a1f010000000000000000838161224457612243613601565b5b0492506040810190505b6d04ee2d6d415b85acef8100000000831061228b576d04ee2d6d415b85acef8100000000838161228157612280613601565b5b0492506020810190505b662386f26fc1000083106122ba57662386f26fc1000083816122b0576122af613601565b5b0492506010810190505b6305f5e10083106122e3576305f5e10083816122d9576122d8613601565b5b0492506008810190505b61271083106123085761271083816122fe576122fd613601565b5b0492506004810190505b6064831061232b576064838161232157612320613601565b5b0492506002810190505b600a831061233a576001810190505b80915050919050565b60405180606001604052806000815260200160008152602001600081525090565b6000604051905090565b600080fd5b600080fd5b60007fffffffff0000000000000000000000000000000000000000000000000000000082169050919050565b6123ad81612378565b81146123b857600080fd5b50565b6000813590506123ca816123a4565b92915050565b6000602082840312156123e6576123e561236e565b5b60006123f4848285016123bb565b91505092915050565b60008115159050919050565b612412816123fd565b82525050565b600060208201905061242d6000830184612409565b92915050565b600080fd5b600080fd5b6000601f19601f8301169050919050565b7f4e487b7100000000000000000000000000000000000000000000000000000000600052604160045260246000fd5b6124868261243d565b810181811067ffffffffffffffff821117156124a5576124a461244e565b5b80604052505050565b60006124b8612364565b90506124c4828261247d565b919050565b600067ffffffffffffffff8211156124e4576124e361244e565b5b6124ed8261243d565b9050602081019050919050565b82818337600083830152505050565b600061251c612517846124c9565b6124ae565b90508281526020810184848401111561253857612537612438565b5b6125438482856124fa565b509392505050565b600082601f8301126125605761255f612433565b5b8135612570848260208601612509565b91505092915050565b60006020828403121561258f5761258e61236e565b5b600082013567ffffffffffffffff8111156125ad576125ac612373565b5b6125b98482850161254b565b91505092915050565b6000819050919050565b6125d5816125c2565b81146125e057600080fd5b50565b6000813590506125f2816125cc565b92915050565b6000806040838503121561260f5761260e61236e565b5b600061261d858286016125e3565b925050602061262e858286016125e3565b9150509250929050565b600081519050919050565b600082825260208201905092915050565b60005b83811015612672578082015181840152602081019050612657565b60008484015250505050565b600061268982612638565b6126938185612643565b93506126a3818560208601612654565b6126ac8161243d565b840191505092915050565b600060208201905081810360008301526126d1818461267e565b905092915050565b6000602082840312156126ef576126ee61236e565b5b60006126fd848285016125e3565b91505092915050565b600073ffffffffffffffffffffffffffffffffffffffff82169050919050565b600061273182612706565b9050919050565b61274181612726565b82525050565b600060208201905061275c6000830184612738565b92915050565b61276b81612726565b811461277657600080fd5b50565b60008135905061278881612762565b92915050565b600080604083850312156127a5576127a461236e565b5b60006127b385828601612779565b92505060206127c4858286016125e3565b9150509250929050565b6127d7816123fd565b81146127e257600080fd5b50565b6000813590506127f4816127ce565b92915050565b600080604083850312156128115761281061236e565b5b600061281f85828601612779565b9250506020612830858286016127e5565b9150509250929050565b612843816125c2565b82525050565b600060208201905061285e600083018461283a565b92915050565b60008060006060848603121561287d5761287c61236e565b5b600061288b86828701612779565b935050602061289c86828701612779565b92505060406128ad868287016125e3565b9150509250925092565b6128c0816125c2565b82525050565b6060820160008201516128dc60008501826128b7565b5060208201516128ef60208501826128b7565b50604082015161290260408501826128b7565b50505050565b600060608201905061291d60008301846128c6565b92915050565b6000602082840312156129395761293861236e565b5b600061294784828501612779565b91505092915050565b600067ffffffffffffffff82111561296b5761296a61244e565b5b6129748261243d565b9050602081019050919050565b600061299461298f84612950565b6124ae565b9050828152602081018484840111156129b0576129af612438565b5b6129bb8482856124fa565b509392505050565b600082601f8301126129d8576129d7612433565b5b81356129e8848260208601612981565b91505092915050565b60008060008060808587031215612a0b57612a0a61236e565b5b6000612a1987828801612779565b9450506020612a2a87828801612779565b9350506040612a3b878288016125e3565b925050606085013567ffffffffffffffff811115612a5c57612a5b612373565b5b612a68878288016129c3565b91505092959194509250565b600067ffffffffffffffff82169050919050565b612a9181612a74565b82525050565b6000602082019050612aac6000830184612a88565b92915050565b60008060408385031215612ac957612ac861236e565b5b6000612ad785828601612779565b9250506020612ae885828601612779565b9150509250929050565b7f4e487b7100000000000000000000000000000000000000000000000000000000600052602260045260246000fd5b60006002820490506001821680612b3957607f821691505b602082108103612b4c57612b4b612af2565b5b50919050565b60008190508160005260206000209050919050565b60006020601f8301049050919050565b600082821b905092915050565b600060088302612bb47fffffffffffffffffffffffffffffffffffffffffffffffffffffffffffffffff82612b77565b612bbe8683612b77565b95508019841693508086168417925050509392505050565b6000819050919050565b6000612bfb612bf6612bf1846125c2565b612bd6565b6125c2565b9050919050565b6000819050919050565b612c1583612be0565b612c29612c2182612c02565b848454612b84565b825550505050565b600090565b612c3e612c31565b612c49818484612c0c565b505050565b5b81811015612c6d57612c62600082612c36565b600181019050612c4f565b5050565b601f821115612cb257612c8381612b52565b612c8c84612b67565b81016020851015612c9b578190505b612caf612ca785612b67565b830182612c4e565b50505b505050565b600082821c905092915050565b6000612cd560001984600802612cb7565b1980831691505092915050565b6000612cee8383612cc4565b9150826002028217905092915050565b612d0782612638565b67ffffffffffffffff811115612d2057612d1f61244e565b5b612d2a8254612b21565b612d35828285612c71565b600060209050601f831160018114612d685760008415612d56578287015190505b612d608582612ce2565b865550612dc8565b601f198416612d7686612b52565b60005b82811015612d9e57848901518255600182019150602085019450602081019050612d79565b86831015612dbb5784890151612db7601f891682612cc4565b8355505b6001600288020188555050505b505050505050565b7f4e487b7100000000000000000000000000000000000000000000000000000000600052601160045260246000fd5b6000612e0a826125c2565b9150612e15836125c2565b9250828201905080821115612e2d57612e2c612dd0565b5b92915050565b7f4552433732313a20617070726f76616c20746f2063757272656e74206f776e6560008201527f7200000000000000000000000000000000000000000000000000000000000000602082015250565b6000612e8f602183612643565b9150612e9a82612e33565b604082019050919050565b60006020820190508181036000830152612ebe81612e82565b9050919050565b7f4552433732313a20617070726f76652063616c6c6572206973206e6f7420746f60008201527f6b656e206f776e6572206f7220617070726f76656420666f7220616c6c000000602082015250565b6000612f21603d83612643565b9150612f2c82612ec5565b604082019050919050565b60006020820190508181036000830152612f5081612f14565b9050919050565b7f4552433732313a2063616c6c6572206973206e6f7420746f6b656e206f776e6560008201527f72206f7220617070726f76656400000000000000000000000000000000000000602082015250565b6000612fb3602d83612643565b9150612fbe82612f57565b604082019050919050565b60006020820190508181036000830152612fe281612fa6565b9050919050565b7f4552433732313a20696e76616c696420746f6b656e2049440000000000000000600082015250565b600061301f601883612643565b915061302a82612fe9565b602082019050919050565b6000602082019050818103600083015261304e81613012565b9050919050565b7f4552433732313a2061646472657373207a65726f206973206e6f74206120766160008201527f6c6964206f776e65720000000000000000000000000000000000000000000000602082015250565b60006130b1602983612643565b91506130bc82613055565b604082019050919050565b600060208201905081810360008301526130e0816130a4565b9050919050565b7f496e697469616c697a61626c653a20636f6e747261637420697320616c72656160008201527f647920696e697469616c697a6564000000000000000000000000000000000000602082015250565b6000613143602e83612643565b915061314e826130e7565b604082019050919050565b6000602082019050818103600083015261317281613136565b9050919050565b6000819050919050565b600060ff82169050919050565b60006131ab6131a66131a184613179565b612bd6565b613183565b9050919050565b6131bb81613190565b82525050565b60006020820190506131d660008301846131b2565b92915050565b60006131e7826125c2565b91507fffffffffffffffffffffffffffffffffffffffffffffffffffffffffffffffff820361321957613218612dd0565b5b600182019050919050565b600081905092915050565b6000815461323c81612b21565b6132468186613224565b945060018216600081146132615760018114613276576132a9565b60ff19831686528115158202860193506132a9565b61327f85612b52565b60005b838110156132a157815481890152600182019150602081019050613282565b838801955050505b50505092915050565b60006132bd82612638565b6132c78185613224565b93506132d7818560208601612654565b80840191505092915050565b60006132ef828561322f565b91506132fb82846132b2565b91508190509392505050565b7f4552433732313a207472616e736665722066726f6d20696e636f72726563742060008201527f6f776e6572000000000000000000000000000000000000000000000000000000602082015250565b6000613363602583612643565b915061336e82613307565b604082019050919050565b6000602082019050818103600083015261339281613356565b9050919050565b7f4552433732313a207472616e7366657220746f20746865207a65726f2061646460008201527f7265737300000000000000000000000000000000000000000000000000000000602082015250565b60006133f5602483612643565b915061340082613399565b604082019050919050565b60006020820190508181036000830152613424816133e8565b9050919050565b7f4552433732313a206d696e7420746f20746865207a65726f2061646472657373600082015250565b6000613461602083612643565b915061346c8261342b565b602082019050919050565b6000602082019050818103600083015261349081613454565b9050919050565b7f4552433732313a20746f6b656e20616c7265616479206d696e74656400000000600082015250565b60006134cd601c83612643565b91506134d882613497565b602082019050919050565b600060208201905081810360008301526134fc816134c0565b9050919050565b7f4552433732313a20617070726f766520746f2063616c6c657200000000000000600082015250565b6000613539601983612643565b915061354482613503565b602082019050919050565b600060208201905081810360008301526135688161352c565b9050919050565b7f4552433732313a207472616e7366657220746f206e6f6e20455243373231526560008201527f63656976657220696d706c656d656e7465720000000000000000000000000000602082015250565b60006135cb603283612643565b91506135d68261356f565b604082019050919050565b600060208201905081810360008301526135fa816135be565b9050919050565b7f4e487b7100000000000000000000000000000000000000000000000000000000600052601260045260246000fd5b600061363b826125c2565b9150613646836125c2565b925082820390508181111561365e5761365d612dd0565b5b92915050565b600081519050919050565b600082825260208201905092915050565b600061368b82613664565b613695818561366f565b93506136a5818560208601612654565b6136ae8161243d565b840191505092915050565b60006080820190506136ce6000830187612738565b6136db6020830186612738565b6136e8604083018561283a565b81810360608301526136fa8184613680565b905095945050505050565b600081519050613714816123a4565b92915050565b6000602082840312156137305761372f61236e565b5b600061373e84828501613705565b9150509291505056fea264697066735822122057569c1eb14637b674c8fa40bbbbb690e980df9e3922de2488f3a2aa3e091bee64736f6c63430008110033",
  "linkReferences": {},
  "deployedLinkReferences": {}
}