{
  "address": "0x3Aa5ebB10DC797CAC828524e59A333d0A371443c",
  "abi": [
    {
      "inputs": [],
      "name": "DevelopmentGroundIsLocked",
      "type": "error"
    },
    {
      "inputs": [
        {
          "internalType": "uint256",
          "name": "_currentLockPeriod",
          "type": "uint256"
        },
        {
          "internalType": "uint256",
          "name": "_lockPeriod",
          "type": "uint256"
        },
        {
          "internalType": "uint256",
          "name": "_lastRewardTime",
          "type": "uint256"
        },
        {
          "internalType": "contract IPits",
          "name": "_pits",
          "type": "IPits"
        }
      ],
      "name": "getDevelopmentGroundBonesReward",
      "outputs": [
        {
          "internalType": "uint256",
          "name": "",
          "type": "uint256"
        }
      ],
      "stateMutability": "view",
      "type": "function"
    },
    {
      "inputs": [
        {
          "internalType": "contract IPits",
          "name": "_pits",
          "type": "IPits"
        }
      ],
      "name": "pitsValidation",
      "outputs": [],
      "stateMutability": "view",
      "type": "function"
    }
  ],
  "transactionHash": "0x472673072fd2e2c6d1a78cebb104060877f059d0300549584d37f5f5b7e42bb2",
  "args": [],
  "numDeployments": 1,
  "solcInputHash": "6c54f78e8fd698c2bc6af947264d9e2b",
  "bytecode": "0x6109ad610053600b82828239805160001a607314610046577f4e487b7100000000000000000000000000000000000000000000000000000000600052600060045260246000fd5b30600052607381538281f3fe73000000000000000000000000000000000000000030146080604052600436106100405760003560e01c806371fcf20414610045578063f674f6b714610061575b600080fd5b61005f600480360381019061005a9190610679565b610091565b005b61007b600480360381019061007691906106dc565b610139565b6040516100889190610752565b60405180910390f35b8073ffffffffffffffffffffffffffffffffffffffff1663ae4b37e46040518163ffffffff1660e01b8152600401602060405180830381865afa1580156100dc573d6000803e3d6000fd5b505050506040513d601f19601f8201168201806040525081019061010091906107a5565b610136576040517f288de97200000000000000000000000000000000000000000000000000000000815260040160405180910390fd5b50565b600080840361014b57600090506101ae565b6000610156856101b6565b9050600062015180854261016a9190610801565b6101749190610864565b9050670de0b6b3a764000061018988866101ea565b82846101959190610895565b61019f9190610801565b6101a99190610895565b925050505b949350505050565b60006241eb0082036101c757600a90505b6283d60082036101d657603290505b62c5c10082036101e557606490505b919050565b6000808273ffffffffffffffffffffffffffffffffffffffff16631b688d9f6040518163ffffffff1660e01b8152600401602060405180830381865afa158015610238573d6000803e3d6000fd5b505050506040513d601f19601f8201168201806040525081019061025c91906108ec565b84146103f0576000620151808473ffffffffffffffffffffffffffffffffffffffff16631b688d9f6040518163ffffffff1660e01b8152600401602060405180830381865afa1580156102b3573d6000803e3d6000fd5b505050506040513d601f19601f820116820180604052508101906102d791906108ec565b426102e29190610801565b6102ec9190610864565b9050808473ffffffffffffffffffffffffffffffffffffffff1663d09f53c0876040518263ffffffff1660e01b81526004016103289190610928565b602060405180830381865afa158015610345573d6000803e3d6000fd5b505050506040513d601f19601f8201168201806040525081019061036991906108ec565b8573ffffffffffffffffffffffffffffffffffffffff16637bd90cc26040518163ffffffff1660e01b8152600401602060405180830381865afa1580156103b4573d6000803e3d6000fd5b505050506040513d601f19601f820116820180604052508101906103d891906108ec565b6103e29190610801565b6103ec9190610943565b9150505b600084036105ee576000808473ffffffffffffffffffffffffffffffffffffffff16631b688d9f6040518163ffffffff1660e01b8152600401602060405180830381865afa158015610446573d6000803e3d6000fd5b505050506040513d601f19601f8201168201806040525081019061046a91906108ec565b03610476576000610502565b620151808473ffffffffffffffffffffffffffffffffffffffff16631b688d9f6040518163ffffffff1660e01b8152600401602060405180830381865afa1580156104c5573d6000803e3d6000fd5b505050506040513d601f19601f820116820180604052508101906104e991906108ec565b426104f49190610801565b6104fe9190610864565b9050805b508373ffffffffffffffffffffffffffffffffffffffff1663ae4b37e46040518163ffffffff1660e01b8152600401602060405180830381865afa15801561054e573d6000803e3d6000fd5b505050506040513d601f19601f8201168201806040525081019061057291906107a5565b156105e9578373ffffffffffffffffffffffffffffffffffffffff16637bd90cc26040518163ffffffff1660e01b8152600401602060405180830381865afa1580156105c2573d6000803e3d6000fd5b505050506040513d601f19601f820116820180604052508101906105e691906108ec565b90505b809150505b600a816105fb9190610895565b91505092915050565b600080fd5b600073ffffffffffffffffffffffffffffffffffffffff82169050919050565b600061063482610609565b9050919050565b600061064682610629565b9050919050565b6106568161063b565b811461066157600080fd5b50565b6000813590506106738161064d565b92915050565b60006020828403121561068f5761068e610604565b5b600061069d84828501610664565b91505092915050565b6000819050919050565b6106b9816106a6565b81146106c457600080fd5b50565b6000813590506106d6816106b0565b92915050565b600080600080608085870312156106f6576106f5610604565b5b6000610704878288016106c7565b9450506020610715878288016106c7565b9350506040610726878288016106c7565b925050606061073787828801610664565b91505092959194509250565b61074c816106a6565b82525050565b60006020820190506107676000830184610743565b92915050565b60008115159050919050565b6107828161076d565b811461078d57600080fd5b50565b60008151905061079f81610779565b92915050565b6000602082840312156107bb576107ba610604565b5b60006107c984828501610790565b91505092915050565b7f4e487b7100000000000000000000000000000000000000000000000000000000600052601160045260246000fd5b600061080c826106a6565b9150610817836106a6565b925082820390508181111561082f5761082e6107d2565b5b92915050565b7f4e487b7100000000000000000000000000000000000000000000000000000000600052601260045260246000fd5b600061086f826106a6565b915061087a836106a6565b92508261088a57610889610835565b5b828204905092915050565b60006108a0826106a6565b91506108ab836106a6565b92508282026108b9816106a6565b915082820484148315176108d0576108cf6107d2565b5b5092915050565b6000815190506108e6816106b0565b92915050565b60006020828403121561090257610901610604565b5b6000610910848285016108d7565b91505092915050565b610922816106a6565b82525050565b600060208201905061093d6000830184610919565b92915050565b600061094e826106a6565b9150610959836106a6565b9250828201905080821115610971576109706107d2565b5b9291505056fea2646970667358221220165a301a9609646e40e0cf0dfe183711564a63214ade21e1e0b146581ae679ee64736f6c63430008110033",
  "devdoc": {
    "kind": "dev",
    "methods": {},
    "version": 1
  },
  "userdoc": {
    "kind": "user",
    "methods": {},
    "version": 1
  },
  "storageLayout": {
    "storage": [],
    "types": null
  }
}