{
  "address": "0x8A791620dd6260079BF849Dc5567aDC3F2FdC318",
  "abi": [
    {
      "anonymous": false,
      "inputs": [
        {
          "indexed": true,
          "internalType": "address",
          "name": "account",
          "type": "address"
        },
        {
          "indexed": true,
          "internalType": "address",
          "name": "operator",
          "type": "address"
        },
        {
          "indexed": false,
          "internalType": "bool",
          "name": "approved",
          "type": "bool"
        }
      ],
      "name": "ApprovalForAll",
      "type": "event"
    },
    {
      "anonymous": false,
      "inputs": [
        {
          "indexed": false,
          "internalType": "uint8",
          "name": "version",
          "type": "uint8"
        }
      ],
      "name": "Initialized",
      "type": "event"
    },
    {
      "anonymous": false,
      "inputs": [
        {
          "indexed": true,
          "internalType": "address",
          "name": "operator",
          "type": "address"
        },
        {
          "indexed": true,
          "internalType": "address",
          "name": "from",
          "type": "address"
        },
        {
          "indexed": true,
          "internalType": "address",
          "name": "to",
          "type": "address"
        },
        {
          "indexed": false,
          "internalType": "uint256[]",
          "name": "ids",
          "type": "uint256[]"
        },
        {
          "indexed": false,
          "internalType": "uint256[]",
          "name": "values",
          "type": "uint256[]"
        }
      ],
      "name": "TransferBatch",
      "type": "event"
    },
    {
      "anonymous": false,
      "inputs": [
        {
          "indexed": true,
          "internalType": "address",
          "name": "operator",
          "type": "address"
        },
        {
          "indexed": true,
          "internalType": "address",
          "name": "from",
          "type": "address"
        },
        {
          "indexed": true,
          "internalType": "address",
          "name": "to",
          "type": "address"
        },
        {
          "indexed": false,
          "internalType": "uint256",
          "name": "id",
          "type": "uint256"
        },
        {
          "indexed": false,
          "internalType": "uint256",
          "name": "value",
          "type": "uint256"
        }
      ],
      "name": "TransferSingle",
      "type": "event"
    },
    {
      "anonymous": false,
      "inputs": [
        {
          "indexed": false,
          "internalType": "string",
          "name": "value",
          "type": "string"
        },
        {
          "indexed": true,
          "internalType": "uint256",
          "name": "id",
          "type": "uint256"
        }
      ],
      "name": "URI",
      "type": "event"
    },
    {
      "inputs": [
        {
          "internalType": "address",
          "name": "account",
          "type": "address"
        },
        {
          "internalType": "uint256",
          "name": "id",
          "type": "uint256"
        }
      ],
      "name": "balanceOf",
      "outputs": [
        {
          "internalType": "uint256",
          "name": "",
          "type": "uint256"
        }
      ],
      "stateMutability": "view",
      "type": "function"
    },
    {
      "inputs": [
        {
          "internalType": "address[]",
          "name": "accounts",
          "type": "address[]"
        },
        {
          "internalType": "uint256[]",
          "name": "ids",
          "type": "uint256[]"
        }
      ],
      "name": "balanceOfBatch",
      "outputs": [
        {
          "internalType": "uint256[]",
          "name": "",
          "type": "uint256[]"
        }
      ],
      "stateMutability": "view",
      "type": "function"
    },
    {
      "inputs": [
        {
          "internalType": "address",
          "name": "account",
          "type": "address"
        },
        {
          "internalType": "uint256",
          "name": "id",
          "type": "uint256"
        },
        {
          "internalType": "uint256",
          "name": "value",
          "type": "uint256"
        }
      ],
      "name": "burn",
      "outputs": [],
      "stateMutability": "nonpayable",
      "type": "function"
    },
    {
      "inputs": [
        {
          "internalType": "address",
          "name": "account",
          "type": "address"
        },
        {
          "internalType": "uint256[]",
          "name": "ids",
          "type": "uint256[]"
        },
        {
          "internalType": "uint256[]",
          "name": "values",
          "type": "uint256[]"
        }
      ],
      "name": "burnBatch",
      "outputs": [],
      "stateMutability": "nonpayable",
      "type": "function"
    },
    {
      "inputs": [],
      "name": "initialize",
      "outputs": [],
      "stateMutability": "nonpayable",
      "type": "function"
    },
    {
      "inputs": [
        {
          "internalType": "address",
          "name": "account",
          "type": "address"
        },
        {
          "internalType": "address",
          "name": "operator",
          "type": "address"
        }
      ],
      "name": "isApprovedForAll",
      "outputs": [
        {
          "internalType": "bool",
          "name": "",
          "type": "bool"
        }
      ],
      "stateMutability": "view",
      "type": "function"
    },
    {
      "inputs": [
        {
          "internalType": "address",
          "name": "from",
          "type": "address"
        },
        {
          "internalType": "address",
          "name": "to",
          "type": "address"
        },
        {
          "internalType": "uint256[]",
          "name": "ids",
          "type": "uint256[]"
        },
        {
          "internalType": "uint256[]",
          "name": "amounts",
          "type": "uint256[]"
        },
        {
          "internalType": "bytes",
          "name": "data",
          "type": "bytes"
        }
      ],
      "name": "safeBatchTransferFrom",
      "outputs": [],
      "stateMutability": "nonpayable",
      "type": "function"
    },
    {
      "inputs": [
        {
          "internalType": "address",
          "name": "from",
          "type": "address"
        },
        {
          "internalType": "address",
          "name": "to",
          "type": "address"
        },
        {
          "internalType": "uint256",
          "name": "id",
          "type": "uint256"
        },
        {
          "internalType": "uint256",
          "name": "amount",
          "type": "uint256"
        },
        {
          "internalType": "bytes",
          "name": "data",
          "type": "bytes"
        }
      ],
      "name": "safeTransferFrom",
      "outputs": [],
      "stateMutability": "nonpayable",
      "type": "function"
    },
    {
      "inputs": [
        {
          "internalType": "address",
          "name": "operator",
          "type": "address"
        },
        {
          "internalType": "bool",
          "name": "approved",
          "type": "bool"
        }
      ],
      "name": "setApprovalForAll",
      "outputs": [],
      "stateMutability": "nonpayable",
      "type": "function"
    },
    {
      "inputs": [
        {
          "internalType": "bytes4",
          "name": "interfaceId",
          "type": "bytes4"
        }
      ],
      "name": "supportsInterface",
      "outputs": [
        {
          "internalType": "bool",
          "name": "",
          "type": "bool"
        }
      ],
      "stateMutability": "view",
      "type": "function"
    },
    {
      "inputs": [
        {
          "internalType": "uint256",
          "name": "",
          "type": "uint256"
        }
      ],
      "name": "uri",
      "outputs": [
        {
          "internalType": "string",
          "name": "",
          "type": "string"
        }
      ],
      "stateMutability": "view",
      "type": "function"
    }
  ],
  "transactionHash": "0x5810091e20bb3816082b1b543578335625b7046ab26c0f7711bedfcb74f5d092",
  "args": [],
  "numDeployments": 1,
  "solcInputHash": "6c54f78e8fd698c2bc6af947264d9e2b",
  "bytecode": "0x608060405234801561001057600080fd5b5061325a806100206000396000f3fe608060405234801561001057600080fd5b50600436106100a85760003560e01c80636b20c454116100715780636b20c454146101895780638129fc1c146101a5578063a22cb465146101af578063e985e9c5146101cb578063f242432a146101fb578063f5298aca14610217576100a8565b8062fdd58e146100ad57806301ffc9a7146100dd5780630e89341c1461010d5780632eb2c2d61461013d5780634e1273f414610159575b600080fd5b6100c760048036038101906100c29190611d80565b610233565b6040516100d49190611dcf565b60405180910390f35b6100f760048036038101906100f29190611e42565b6102fc565b6040516101049190611e8a565b60405180910390f35b61012760048036038101906101229190611ea5565b6103de565b6040516101349190611f62565b60405180910390f35b61015760048036038101906101529190612181565b610472565b005b610173600480360381019061016e9190612313565b610513565b6040516101809190612449565b60405180910390f35b6101a3600480360381019061019e919061246b565b61062c565b005b6101ad6106c9565b005b6101c960048036038101906101c49190612522565b61081c565b005b6101e560048036038101906101e09190612562565b610832565b6040516101f29190611e8a565b60405180910390f35b610215600480360381019061021091906125a2565b6108c6565b005b610231600480360381019061022c9190612639565b610967565b005b60008073ffffffffffffffffffffffffffffffffffffffff168373ffffffffffffffffffffffffffffffffffffffff16036102a3576040517f08c379a000000000000000000000000000000000000000000000000000000000815260040161029a906126fe565b60405180910390fd5b6065600083815260200190815260200160002060008473ffffffffffffffffffffffffffffffffffffffff1673ffffffffffffffffffffffffffffffffffffffff16815260200190815260200160002054905092915050565b60007fd9b67a26000000000000000000000000000000000000000000000000000000007bffffffffffffffffffffffffffffffffffffffffffffffffffffffff1916827bffffffffffffffffffffffffffffffffffffffffffffffffffffffff191614806103c757507f0e89341c000000000000000000000000000000000000000000000000000000007bffffffffffffffffffffffffffffffffffffffffffffffffffffffff1916827bffffffffffffffffffffffffffffffffffffffffffffffffffffffff1916145b806103d757506103d682610977565b5b9050919050565b6060606780546103ed9061274d565b80601f01602080910402602001604051908101604052809291908181526020018280546104199061274d565b80156104665780601f1061043b57610100808354040283529160200191610466565b820191906000526020600020905b81548152906001019060200180831161044957829003601f168201915b50505050509050919050565b61047a6109e1565b73ffffffffffffffffffffffffffffffffffffffff168573ffffffffffffffffffffffffffffffffffffffff1614806104c057506104bf856104ba6109e1565b610832565b5b6104ff576040517f08c379a00000000000000000000000000000000000000000000000000000000081526004016104f6906127f0565b60405180910390fd5b61050c85858585856109e9565b5050505050565b60608151835114610559576040517f08c379a000000000000000000000000000000000000000000000000000000000815260040161055090612882565b60405180910390fd5b6000835167ffffffffffffffff81111561057657610575611f89565b5b6040519080825280602002602001820160405280156105a45781602001602082028036833780820191505090505b50905060005b8451811015610621576105f18582815181106105c9576105c86128a2565b5b60200260200101518583815181106105e4576105e36128a2565b5b6020026020010151610233565b828281518110610604576106036128a2565b5b6020026020010181815250508061061a90612900565b90506105aa565b508091505092915050565b6106346109e1565b73ffffffffffffffffffffffffffffffffffffffff168373ffffffffffffffffffffffffffffffffffffffff16148061067a5750610679836106746109e1565b610832565b5b6106b9576040517f08c379a00000000000000000000000000000000000000000000000000000000081526004016106b0906127f0565b60405180910390fd5b6106c4838383610d0d565b505050565b60008060019054906101000a900460ff161590508080156106fa5750600160008054906101000a900460ff1660ff16105b80610727575061070930610fdd565b1580156107265750600160008054906101000a900460ff1660ff16145b5b610766576040517f08c379a000000000000000000000000000000000000000000000000000000000815260040161075d906129ba565b60405180910390fd5b60016000806101000a81548160ff021916908360ff16021790555080156107a3576001600060016101000a81548160ff0219169083151502179055505b6107c0336001603260405180602001604052806000815250611000565b80156108195760008060016101000a81548160ff0219169083151502179055507f7f26b83ff96e1f2b6a682f133852f6798a09c465da95921460cefb384740249860016040516108109190612a2c565b60405180910390a15b50565b61082e6108276109e1565b83836111b1565b5050565b6000606660008473ffffffffffffffffffffffffffffffffffffffff1673ffffffffffffffffffffffffffffffffffffffff16815260200190815260200160002060008373ffffffffffffffffffffffffffffffffffffffff1673ffffffffffffffffffffffffffffffffffffffff16815260200190815260200160002060009054906101000a900460ff16905092915050565b6108ce6109e1565b73ffffffffffffffffffffffffffffffffffffffff168573ffffffffffffffffffffffffffffffffffffffff16148061091457506109138561090e6109e1565b610832565b5b610953576040517f08c379a000000000000000000000000000000000000000000000000000000000815260040161094a906127f0565b60405180910390fd5b610960858585858561131d565b5050505050565b6109728383836115bb565b505050565b60007f01ffc9a7000000000000000000000000000000000000000000000000000000007bffffffffffffffffffffffffffffffffffffffffffffffffffffffff1916827bffffffffffffffffffffffffffffffffffffffffffffffffffffffff1916149050919050565b600033905090565b8151835114610a2d576040517f08c379a0000000000000000000000000000000000000000000000000000000008152600401610a2490612ab9565b60405180910390fd5b600073ffffffffffffffffffffffffffffffffffffffff168473ffffffffffffffffffffffffffffffffffffffff1603610a9c576040517f08c379a0000000000000000000000000000000000000000000000000000000008152600401610a9390612b4b565b60405180910390fd5b6000610aa66109e1565b9050610ab6818787878787611658565b60005b8451811015610c6a576000858281518110610ad757610ad66128a2565b5b602002602001015190506000858381518110610af657610af56128a2565b5b6020026020010151905060006065600084815260200190815260200160002060008b73ffffffffffffffffffffffffffffffffffffffff1673ffffffffffffffffffffffffffffffffffffffff16815260200190815260200160002054905081811015610b98576040517f08c379a0000000000000000000000000000000000000000000000000000000008152600401610b8f90612bdd565b60405180910390fd5b8181036065600085815260200190815260200160002060008c73ffffffffffffffffffffffffffffffffffffffff1673ffffffffffffffffffffffffffffffffffffffff16815260200190815260200160002081905550816065600085815260200190815260200160002060008b73ffffffffffffffffffffffffffffffffffffffff1673ffffffffffffffffffffffffffffffffffffffff1681526020019081526020016000206000828254610c4f9190612bfd565b9250508190555050505080610c6390612900565b9050610ab9565b508473ffffffffffffffffffffffffffffffffffffffff168673ffffffffffffffffffffffffffffffffffffffff168273ffffffffffffffffffffffffffffffffffffffff167f4a39dc06d4c0dbc64b70af90fd698a233a518aa5d07e595d983b8c0526c8f7fb8787604051610ce1929190612c31565b60405180910390a4610cf7818787878787611660565b610d05818787878787611668565b505050505050565b600073ffffffffffffffffffffffffffffffffffffffff168373ffffffffffffffffffffffffffffffffffffffff1603610d7c576040517f08c379a0000000000000000000000000000000000000000000000000000000008152600401610d7390612cda565b60405180910390fd5b8051825114610dc0576040517f08c379a0000000000000000000000000000000000000000000000000000000008152600401610db790612ab9565b60405180910390fd5b6000610dca6109e1565b9050610dea81856000868660405180602001604052806000815250611658565b60005b8351811015610f39576000848281518110610e0b57610e0a6128a2565b5b602002602001015190506000848381518110610e2a57610e296128a2565b5b6020026020010151905060006065600084815260200190815260200160002060008973ffffffffffffffffffffffffffffffffffffffff1673ffffffffffffffffffffffffffffffffffffffff16815260200190815260200160002054905081811015610ecc576040517f08c379a0000000000000000000000000000000000000000000000000000000008152600401610ec390612d6c565b60405180910390fd5b8181036065600085815260200190815260200160002060008a73ffffffffffffffffffffffffffffffffffffffff1673ffffffffffffffffffffffffffffffffffffffff168152602001908152602001600020819055505050508080610f3190612900565b915050610ded565b50600073ffffffffffffffffffffffffffffffffffffffff168473ffffffffffffffffffffffffffffffffffffffff168273ffffffffffffffffffffffffffffffffffffffff167f4a39dc06d4c0dbc64b70af90fd698a233a518aa5d07e595d983b8c0526c8f7fb8686604051610fb1929190612c31565b60405180910390a4610fd781856000868660405180602001604052806000815250611660565b50505050565b6000808273ffffffffffffffffffffffffffffffffffffffff163b119050919050565b600073ffffffffffffffffffffffffffffffffffffffff168473ffffffffffffffffffffffffffffffffffffffff160361106f576040517f08c379a000000000000000000000000000000000000000000000000000000000815260040161106690612dfe565b60405180910390fd5b60006110796109e1565b905060006110868561183f565b905060006110938561183f565b90506110a483600089858589611658565b846065600088815260200190815260200160002060008973ffffffffffffffffffffffffffffffffffffffff1673ffffffffffffffffffffffffffffffffffffffff16815260200190815260200160002060008282546111049190612bfd565b925050819055508673ffffffffffffffffffffffffffffffffffffffff16600073ffffffffffffffffffffffffffffffffffffffff168473ffffffffffffffffffffffffffffffffffffffff167fc3d58168c5ae7397731d063d5bbf3d657854427343f4c083240f7aacaa2d0f628989604051611182929190612e1e565b60405180910390a461119983600089858589611660565b6111a8836000898989896118b9565b50505050505050565b8173ffffffffffffffffffffffffffffffffffffffff168373ffffffffffffffffffffffffffffffffffffffff160361121f576040517f08c379a000000000000000000000000000000000000000000000000000000000815260040161121690612eb9565b60405180910390fd5b80606660008573ffffffffffffffffffffffffffffffffffffffff1673ffffffffffffffffffffffffffffffffffffffff16815260200190815260200160002060008473ffffffffffffffffffffffffffffffffffffffff1673ffffffffffffffffffffffffffffffffffffffff16815260200190815260200160002060006101000a81548160ff0219169083151502179055508173ffffffffffffffffffffffffffffffffffffffff168373ffffffffffffffffffffffffffffffffffffffff167f17307eab39ab6107e8899845ad3d59bd9653f200f220920489ca2b5937696c31836040516113109190611e8a565b60405180910390a3505050565b600073ffffffffffffffffffffffffffffffffffffffff168473ffffffffffffffffffffffffffffffffffffffff160361138c576040517f08c379a000000000000000000000000000000000000000000000000000000000815260040161138390612b4b565b60405180910390fd5b60006113966109e1565b905060006113a38561183f565b905060006113b08561183f565b90506113c0838989858589611658565b60006065600088815260200190815260200160002060008a73ffffffffffffffffffffffffffffffffffffffff1673ffffffffffffffffffffffffffffffffffffffff16815260200190815260200160002054905085811015611458576040517f08c379a000000000000000000000000000000000000000000000000000000000815260040161144f90612bdd565b60405180910390fd5b8581036065600089815260200190815260200160002060008b73ffffffffffffffffffffffffffffffffffffffff1673ffffffffffffffffffffffffffffffffffffffff16815260200190815260200160002081905550856065600089815260200190815260200160002060008a73ffffffffffffffffffffffffffffffffffffffff1673ffffffffffffffffffffffffffffffffffffffff168152602001908152602001600020600082825461150f9190612bfd565b925050819055508773ffffffffffffffffffffffffffffffffffffffff168973ffffffffffffffffffffffffffffffffffffffff168573ffffffffffffffffffffffffffffffffffffffff167fc3d58168c5ae7397731d063d5bbf3d657854427343f4c083240f7aacaa2d0f628a8a60405161158c929190612e1e565b60405180910390a46115a2848a8a86868a611660565b6115b0848a8a8a8a8a6118b9565b505050505050505050565b6115c36109e1565b73ffffffffffffffffffffffffffffffffffffffff168373ffffffffffffffffffffffffffffffffffffffff1614806116095750611608836116036109e1565b610832565b5b611648576040517f08c379a000000000000000000000000000000000000000000000000000000000815260040161163f906127f0565b60405180910390fd5b611653838383611a90565b505050565b505050505050565b505050505050565b6116878473ffffffffffffffffffffffffffffffffffffffff16610fdd565b15611837578373ffffffffffffffffffffffffffffffffffffffff1663bc197c8187878686866040518663ffffffff1660e01b81526004016116cd959493929190612f3d565b6020604051808303816000875af192505050801561170957506040513d601f19601f820116820180604052508101906117069190612fba565b60015b6117ae57611715612ff4565b806308c379a0036117715750611729613016565b806117345750611773565b806040517f08c379a00000000000000000000000000000000000000000000000000000000081526004016117689190611f62565b60405180910390fd5b505b6040517f08c379a00000000000000000000000000000000000000000000000000000000081526004016117a590613118565b60405180910390fd5b63bc197c8160e01b7bffffffffffffffffffffffffffffffffffffffffffffffffffffffff1916817bffffffffffffffffffffffffffffffffffffffffffffffffffffffff191614611835576040517f08c379a000000000000000000000000000000000000000000000000000000000815260040161182c906131aa565b60405180910390fd5b505b505050505050565b60606000600167ffffffffffffffff81111561185e5761185d611f89565b5b60405190808252806020026020018201604052801561188c5781602001602082028036833780820191505090505b50905082816000815181106118a4576118a36128a2565b5b60200260200101818152505080915050919050565b6118d88473ffffffffffffffffffffffffffffffffffffffff16610fdd565b15611a88578373ffffffffffffffffffffffffffffffffffffffff1663f23a6e6187878686866040518663ffffffff1660e01b815260040161191e9594939291906131ca565b6020604051808303816000875af192505050801561195a57506040513d601f19601f820116820180604052508101906119579190612fba565b60015b6119ff57611966612ff4565b806308c379a0036119c2575061197a613016565b8061198557506119c4565b806040517f08c379a00000000000000000000000000000000000000000000000000000000081526004016119b99190611f62565b60405180910390fd5b505b6040517f08c379a00000000000000000000000000000000000000000000000000000000081526004016119f690613118565b60405180910390fd5b63f23a6e6160e01b7bffffffffffffffffffffffffffffffffffffffffffffffffffffffff1916817bffffffffffffffffffffffffffffffffffffffffffffffffffffffff191614611a86576040517f08c379a0000000000000000000000000000000000000000000000000000000008152600401611a7d906131aa565b60405180910390fd5b505b505050505050565b600073ffffffffffffffffffffffffffffffffffffffff168373ffffffffffffffffffffffffffffffffffffffff1603611aff576040517f08c379a0000000000000000000000000000000000000000000000000000000008152600401611af690612cda565b60405180910390fd5b6000611b096109e1565b90506000611b168461183f565b90506000611b238461183f565b9050611b4383876000858560405180602001604052806000815250611658565b60006065600087815260200190815260200160002060008873ffffffffffffffffffffffffffffffffffffffff1673ffffffffffffffffffffffffffffffffffffffff16815260200190815260200160002054905084811015611bdb576040517f08c379a0000000000000000000000000000000000000000000000000000000008152600401611bd290612d6c565b60405180910390fd5b8481036065600088815260200190815260200160002060008973ffffffffffffffffffffffffffffffffffffffff1673ffffffffffffffffffffffffffffffffffffffff16815260200190815260200160002081905550600073ffffffffffffffffffffffffffffffffffffffff168773ffffffffffffffffffffffffffffffffffffffff168573ffffffffffffffffffffffffffffffffffffffff167fc3d58168c5ae7397731d063d5bbf3d657854427343f4c083240f7aacaa2d0f628989604051611ca9929190612e1e565b60405180910390a4611ccf84886000868660405180602001604052806000815250611660565b50505050505050565b6000604051905090565b600080fd5b600080fd5b600073ffffffffffffffffffffffffffffffffffffffff82169050919050565b6000611d1782611cec565b9050919050565b611d2781611d0c565b8114611d3257600080fd5b50565b600081359050611d4481611d1e565b92915050565b6000819050919050565b611d5d81611d4a565b8114611d6857600080fd5b50565b600081359050611d7a81611d54565b92915050565b60008060408385031215611d9757611d96611ce2565b5b6000611da585828601611d35565b9250506020611db685828601611d6b565b9150509250929050565b611dc981611d4a565b82525050565b6000602082019050611de46000830184611dc0565b92915050565b60007fffffffff0000000000000000000000000000000000000000000000000000000082169050919050565b611e1f81611dea565b8114611e2a57600080fd5b50565b600081359050611e3c81611e16565b92915050565b600060208284031215611e5857611e57611ce2565b5b6000611e6684828501611e2d565b91505092915050565b60008115159050919050565b611e8481611e6f565b82525050565b6000602082019050611e9f6000830184611e7b565b92915050565b600060208284031215611ebb57611eba611ce2565b5b6000611ec984828501611d6b565b91505092915050565b600081519050919050565b600082825260208201905092915050565b60005b83811015611f0c578082015181840152602081019050611ef1565b60008484015250505050565b6000601f19601f8301169050919050565b6000611f3482611ed2565b611f3e8185611edd565b9350611f4e818560208601611eee565b611f5781611f18565b840191505092915050565b60006020820190508181036000830152611f7c8184611f29565b905092915050565b600080fd5b7f4e487b7100000000000000000000000000000000000000000000000000000000600052604160045260246000fd5b611fc182611f18565b810181811067ffffffffffffffff82111715611fe057611fdf611f89565b5b80604052505050565b6000611ff3611cd8565b9050611fff8282611fb8565b919050565b600067ffffffffffffffff82111561201f5761201e611f89565b5b602082029050602081019050919050565b600080fd5b600061204861204384612004565b611fe9565b9050808382526020820190506020840283018581111561206b5761206a612030565b5b835b8181101561209457806120808882611d6b565b84526020840193505060208101905061206d565b5050509392505050565b600082601f8301126120b3576120b2611f84565b5b81356120c3848260208601612035565b91505092915050565b600080fd5b600067ffffffffffffffff8211156120ec576120eb611f89565b5b6120f582611f18565b9050602081019050919050565b82818337600083830152505050565b600061212461211f846120d1565b611fe9565b9050828152602081018484840111156121405761213f6120cc565b5b61214b848285612102565b509392505050565b600082601f83011261216857612167611f84565b5b8135612178848260208601612111565b91505092915050565b600080600080600060a0868803121561219d5761219c611ce2565b5b60006121ab88828901611d35565b95505060206121bc88828901611d35565b945050604086013567ffffffffffffffff8111156121dd576121dc611ce7565b5b6121e98882890161209e565b935050606086013567ffffffffffffffff81111561220a57612209611ce7565b5b6122168882890161209e565b925050608086013567ffffffffffffffff81111561223757612236611ce7565b5b61224388828901612153565b9150509295509295909350565b600067ffffffffffffffff82111561226b5761226a611f89565b5b602082029050602081019050919050565b600061228f61228a84612250565b611fe9565b905080838252602082019050602084028301858111156122b2576122b1612030565b5b835b818110156122db57806122c78882611d35565b8452602084019350506020810190506122b4565b5050509392505050565b600082601f8301126122fa576122f9611f84565b5b813561230a84826020860161227c565b91505092915050565b6000806040838503121561232a57612329611ce2565b5b600083013567ffffffffffffffff81111561234857612347611ce7565b5b612354858286016122e5565b925050602083013567ffffffffffffffff81111561237557612374611ce7565b5b6123818582860161209e565b9150509250929050565b600081519050919050565b600082825260208201905092915050565b6000819050602082019050919050565b6123c081611d4a565b82525050565b60006123d283836123b7565b60208301905092915050565b6000602082019050919050565b60006123f68261238b565b6124008185612396565b935061240b836123a7565b8060005b8381101561243c57815161242388826123c6565b975061242e836123de565b92505060018101905061240f565b5085935050505092915050565b6000602082019050818103600083015261246381846123eb565b905092915050565b60008060006060848603121561248457612483611ce2565b5b600061249286828701611d35565b935050602084013567ffffffffffffffff8111156124b3576124b2611ce7565b5b6124bf8682870161209e565b925050604084013567ffffffffffffffff8111156124e0576124df611ce7565b5b6124ec8682870161209e565b9150509250925092565b6124ff81611e6f565b811461250a57600080fd5b50565b60008135905061251c816124f6565b92915050565b6000806040838503121561253957612538611ce2565b5b600061254785828601611d35565b92505060206125588582860161250d565b9150509250929050565b6000806040838503121561257957612578611ce2565b5b600061258785828601611d35565b925050602061259885828601611d35565b9150509250929050565b600080600080600060a086880312156125be576125bd611ce2565b5b60006125cc88828901611d35565b95505060206125dd88828901611d35565b94505060406125ee88828901611d6b565b93505060606125ff88828901611d6b565b925050608086013567ffffffffffffffff8111156126205761261f611ce7565b5b61262c88828901612153565b9150509295509295909350565b60008060006060848603121561265257612651611ce2565b5b600061266086828701611d35565b935050602061267186828701611d6b565b925050604061268286828701611d6b565b9150509250925092565b7f455243313135353a2061646472657373207a65726f206973206e6f742061207660008201527f616c6964206f776e657200000000000000000000000000000000000000000000602082015250565b60006126e8602a83611edd565b91506126f38261268c565b604082019050919050565b60006020820190508181036000830152612717816126db565b9050919050565b7f4e487b7100000000000000000000000000000000000000000000000000000000600052602260045260246000fd5b6000600282049050600182168061276557607f821691505b6020821081036127785761277761271e565b5b50919050565b7f455243313135353a2063616c6c6572206973206e6f7420746f6b656e206f776e60008201527f6572206f7220617070726f766564000000000000000000000000000000000000602082015250565b60006127da602e83611edd565b91506127e58261277e565b604082019050919050565b60006020820190508181036000830152612809816127cd565b9050919050565b7f455243313135353a206163636f756e747320616e6420696473206c656e67746860008201527f206d69736d617463680000000000000000000000000000000000000000000000602082015250565b600061286c602983611edd565b915061287782612810565b604082019050919050565b6000602082019050818103600083015261289b8161285f565b9050919050565b7f4e487b7100000000000000000000000000000000000000000000000000000000600052603260045260246000fd5b7f4e487b7100000000000000000000000000000000000000000000000000000000600052601160045260246000fd5b600061290b82611d4a565b91507fffffffffffffffffffffffffffffffffffffffffffffffffffffffffffffffff820361293d5761293c6128d1565b5b600182019050919050565b7f496e697469616c697a61626c653a20636f6e747261637420697320616c72656160008201527f647920696e697469616c697a6564000000000000000000000000000000000000602082015250565b60006129a4602e83611edd565b91506129af82612948565b604082019050919050565b600060208201905081810360008301526129d381612997565b9050919050565b6000819050919050565b600060ff82169050919050565b6000819050919050565b6000612a16612a11612a0c846129da565b6129f1565b6129e4565b9050919050565b612a26816129fb565b82525050565b6000602082019050612a416000830184612a1d565b92915050565b7f455243313135353a2069647320616e6420616d6f756e7473206c656e6774682060008201527f6d69736d61746368000000000000000000000000000000000000000000000000602082015250565b6000612aa3602883611edd565b9150612aae82612a47565b604082019050919050565b60006020820190508181036000830152612ad281612a96565b9050919050565b7f455243313135353a207472616e7366657220746f20746865207a65726f20616460008201527f6472657373000000000000000000000000000000000000000000000000000000602082015250565b6000612b35602583611edd565b9150612b4082612ad9565b604082019050919050565b60006020820190508181036000830152612b6481612b28565b9050919050565b7f455243313135353a20696e73756666696369656e742062616c616e636520666f60008201527f72207472616e7366657200000000000000000000000000000000000000000000602082015250565b6000612bc7602a83611edd565b9150612bd282612b6b565b604082019050919050565b60006020820190508181036000830152612bf681612bba565b9050919050565b6000612c0882611d4a565b9150612c1383611d4a565b9250828201905080821115612c2b57612c2a6128d1565b5b92915050565b60006040820190508181036000830152612c4b81856123eb565b90508181036020830152612c5f81846123eb565b90509392505050565b7f455243313135353a206275726e2066726f6d20746865207a65726f206164647260008201527f6573730000000000000000000000000000000000000000000000000000000000602082015250565b6000612cc4602383611edd565b9150612ccf82612c68565b604082019050919050565b60006020820190508181036000830152612cf381612cb7565b9050919050565b7f455243313135353a206275726e20616d6f756e7420657863656564732062616c60008201527f616e636500000000000000000000000000000000000000000000000000000000602082015250565b6000612d56602483611edd565b9150612d6182612cfa565b604082019050919050565b60006020820190508181036000830152612d8581612d49565b9050919050565b7f455243313135353a206d696e7420746f20746865207a65726f2061646472657360008201527f7300000000000000000000000000000000000000000000000000000000000000602082015250565b6000612de8602183611edd565b9150612df382612d8c565b604082019050919050565b60006020820190508181036000830152612e1781612ddb565b9050919050565b6000604082019050612e336000830185611dc0565b612e406020830184611dc0565b9392505050565b7f455243313135353a2073657474696e6720617070726f76616c2073746174757360008201527f20666f722073656c660000000000000000000000000000000000000000000000602082015250565b6000612ea3602983611edd565b9150612eae82612e47565b604082019050919050565b60006020820190508181036000830152612ed281612e96565b9050919050565b612ee281611d0c565b82525050565b600081519050919050565b600082825260208201905092915050565b6000612f0f82612ee8565b612f198185612ef3565b9350612f29818560208601611eee565b612f3281611f18565b840191505092915050565b600060a082019050612f526000830188612ed9565b612f5f6020830187612ed9565b8181036040830152612f7181866123eb565b90508181036060830152612f8581856123eb565b90508181036080830152612f998184612f04565b90509695505050505050565b600081519050612fb481611e16565b92915050565b600060208284031215612fd057612fcf611ce2565b5b6000612fde84828501612fa5565b91505092915050565b60008160e01c9050919050565b600060033d11156130135760046000803e613010600051612fe7565b90505b90565b600060443d106130a357613028611cd8565b60043d036004823e80513d602482011167ffffffffffffffff821117156130505750506130a3565b808201805167ffffffffffffffff81111561306e57505050506130a3565b80602083010160043d03850181111561308b5750505050506130a3565b61309a82602001850186611fb8565b82955050505050505b90565b7f455243313135353a207472616e7366657220746f206e6f6e2d4552433131353560008201527f526563656976657220696d706c656d656e746572000000000000000000000000602082015250565b6000613102603483611edd565b915061310d826130a6565b604082019050919050565b60006020820190508181036000830152613131816130f5565b9050919050565b7f455243313135353a204552433131353552656365697665722072656a6563746560008201527f6420746f6b656e73000000000000000000000000000000000000000000000000602082015250565b6000613194602883611edd565b915061319f82613138565b604082019050919050565b600060208201905081810360008301526131c381613187565b9050919050565b600060a0820190506131df6000830188612ed9565b6131ec6020830187612ed9565b6131f96040830186611dc0565b6132066060830185611dc0565b81810360808301526132188184612f04565b9050969550505050505056fea26469706673582212204f6c7731f1c5e17edbd7ad2174eb4dbc3c05739d7d01e56ee9b7e47d479a0db264736f6c63430008110033",
  "devdoc": {
    "kind": "dev",
    "methods": {
      "balanceOf(address,uint256)": {
        "details": "See {IERC1155-balanceOf}. Requirements: - `account` cannot be the zero address."
      },
      "balanceOfBatch(address[],uint256[])": {
        "details": "See {IERC1155-balanceOfBatch}. Requirements: - `accounts` and `ids` must have the same length."
      },
      "isApprovedForAll(address,address)": {
        "details": "See {IERC1155-isApprovedForAll}."
      },
      "safeBatchTransferFrom(address,address,uint256[],uint256[],bytes)": {
        "details": "See {IERC1155-safeBatchTransferFrom}."
      },
      "safeTransferFrom(address,address,uint256,uint256,bytes)": {
        "details": "See {IERC1155-safeTransferFrom}."
      },
      "setApprovalForAll(address,bool)": {
        "details": "See {IERC1155-setApprovalForAll}."
      },
      "supportsInterface(bytes4)": {
        "details": "See {IERC165-supportsInterface}."
      },
      "uri(uint256)": {
        "details": "See {IERC1155MetadataURI-uri}. This implementation returns the same URI for *all* token types. It relies on the token type ID substitution mechanism https://eips.ethereum.org/EIPS/eip-1155#metadata[defined in the EIP]. Clients calling this function must replace the `\\{id\\}` substring with the actual token type ID."
      }
    },
    "version": 1
  },
  "userdoc": {
    "kind": "user",
    "methods": {},
    "version": 1
  },
  "storageLayout": {
    "storage": [
      {
        "astId": 6,
        "contract": "contracts/mocks/mERC1155.sol:mERC1155",
        "label": "_initialized",
        "offset": 0,
        "slot": "0",
        "type": "t_uint8"
      },
      {
        "astId": 9,
        "contract": "contracts/mocks/mERC1155.sol:mERC1155",
        "label": "_initializing",
        "offset": 1,
        "slot": "0",
        "type": "t_bool"
      },
      {
        "astId": 3851,
        "contract": "contracts/mocks/mERC1155.sol:mERC1155",
        "label": "__gap",
        "offset": 0,
        "slot": "1",
        "type": "t_array(t_uint256)50_storage"
      },
      {
        "astId": 4070,
        "contract": "contracts/mocks/mERC1155.sol:mERC1155",
        "label": "__gap",
        "offset": 0,
        "slot": "51",
        "type": "t_array(t_uint256)50_storage"
      },
      {
        "astId": 197,
        "contract": "contracts/mocks/mERC1155.sol:mERC1155",
        "label": "_balances",
        "offset": 0,
        "slot": "101",
        "type": "t_mapping(t_uint256,t_mapping(t_address,t_uint256))"
      },
      {
        "astId": 203,
        "contract": "contracts/mocks/mERC1155.sol:mERC1155",
        "label": "_operatorApprovals",
        "offset": 0,
        "slot": "102",
        "type": "t_mapping(t_address,t_mapping(t_address,t_bool))"
      },
      {
        "astId": 205,
        "contract": "contracts/mocks/mERC1155.sol:mERC1155",
        "label": "_uri",
        "offset": 0,
        "slot": "103",
        "type": "t_string_storage"
      },
      {
        "astId": 1412,
        "contract": "contracts/mocks/mERC1155.sol:mERC1155",
        "label": "__gap",
        "offset": 0,
        "slot": "104",
        "type": "t_array(t_uint256)47_storage"
      },
      {
        "astId": 1664,
        "contract": "contracts/mocks/mERC1155.sol:mERC1155",
        "label": "__gap",
        "offset": 0,
        "slot": "151",
        "type": "t_array(t_uint256)50_storage"
      }
    ],
    "types": {
      "t_address": {
        "encoding": "inplace",
        "label": "address",
        "numberOfBytes": "20"
      },
      "t_array(t_uint256)47_storage": {
        "base": "t_uint256",
        "encoding": "inplace",
        "label": "uint256[47]",
        "numberOfBytes": "1504"
      },
      "t_array(t_uint256)50_storage": {
        "base": "t_uint256",
        "encoding": "inplace",
        "label": "uint256[50]",
        "numberOfBytes": "1600"
      },
      "t_bool": {
        "encoding": "inplace",
        "label": "bool",
        "numberOfBytes": "1"
      },
      "t_mapping(t_address,t_bool)": {
        "encoding": "mapping",
        "key": "t_address",
        "label": "mapping(address => bool)",
        "numberOfBytes": "32",
        "value": "t_bool"
      },
      "t_mapping(t_address,t_mapping(t_address,t_bool))": {
        "encoding": "mapping",
        "key": "t_address",
        "label": "mapping(address => mapping(address => bool))",
        "numberOfBytes": "32",
        "value": "t_mapping(t_address,t_bool)"
      },
      "t_mapping(t_address,t_uint256)": {
        "encoding": "mapping",
        "key": "t_address",
        "label": "mapping(address => uint256)",
        "numberOfBytes": "32",
        "value": "t_uint256"
      },
      "t_mapping(t_uint256,t_mapping(t_address,t_uint256))": {
        "encoding": "mapping",
        "key": "t_uint256",
        "label": "mapping(uint256 => mapping(address => uint256))",
        "numberOfBytes": "32",
        "value": "t_mapping(t_address,t_uint256)"
      },
      "t_string_storage": {
        "encoding": "bytes",
        "label": "string",
        "numberOfBytes": "32"
      },
      "t_uint256": {
        "encoding": "inplace",
        "label": "uint256",
        "numberOfBytes": "32"
      },
      "t_uint8": {
        "encoding": "inplace",
        "label": "uint8",
        "numberOfBytes": "1"
      }
    }
  }
}