{
  "address": "0x9A9f2CCfdE556A7E9Ff0848998Aa4a0CFD8863AE",
  "abi": [
    {
      "inputs": [],
      "name": "BalanceIsInsufficient",
      "type": "error"
    },
    {
      "anonymous": false,
      "inputs": [
        {
          "indexed": false,
          "internalType": "uint8",
          "name": "version",
          "type": "uint8"
        }
      ],
      "name": "Initialized",
      "type": "event"
    },
    {
      "anonymous": false,
      "inputs": [
        {
          "indexed": true,
          "internalType": "address",
          "name": "owner",
          "type": "address"
        },
        {
          "indexed": true,
          "internalType": "uint256",
          "name": "amount",
          "type": "uint256"
        }
      ],
      "name": "RemoveBonesFromYard",
      "type": "event"
    },
    {
      "anonymous": false,
      "inputs": [
        {
          "indexed": true,
          "internalType": "address",
          "name": "owner",
          "type": "address"
        },
        {
          "indexed": true,
          "internalType": "uint256",
          "name": "amount",
          "type": "uint256"
        }
      ],
      "name": "StakeBonesInYard",
      "type": "event"
    },
    {
      "inputs": [],
      "name": "bones",
      "outputs": [
        {
          "internalType": "contract IERC20",
          "name": "",
          "type": "address"
        }
      ],
      "stateMutability": "view",
      "type": "function"
    },
    {
      "inputs": [],
      "name": "bonesStaked",
      "outputs": [
        {
          "internalType": "uint256",
          "name": "",
          "type": "uint256"
        }
      ],
      "stateMutability": "view",
      "type": "function"
    },
    {
      "inputs": [
        {
          "internalType": "address",
          "name": "_addr",
          "type": "address"
        }
      ],
      "name": "getBonesStaked",
      "outputs": [
        {
          "internalType": "uint256",
          "name": "",
          "type": "uint256"
        }
      ],
      "stateMutability": "view",
      "type": "function"
    },
    {
      "inputs": [
        {
          "internalType": "uint256",
          "name": "_timestamp",
          "type": "uint256"
        }
      ],
      "name": "getDaysOff",
      "outputs": [
        {
          "internalType": "uint256",
          "name": "",
          "type": "uint256"
        }
      ],
      "stateMutability": "view",
      "type": "function"
    },
    {
      "inputs": [],
      "name": "getTimeOut",
      "outputs": [
        {
          "internalType": "uint256",
          "name": "",
          "type": "uint256"
        }
      ],
      "stateMutability": "view",
      "type": "function"
    },
    {
      "inputs": [],
      "name": "getTotalBonesStaked",
      "outputs": [
        {
          "internalType": "uint256",
          "name": "",
          "type": "uint256"
        }
      ],
      "stateMutability": "view",
      "type": "function"
    },
    {
      "inputs": [],
      "name": "getTotalDaysOff",
      "outputs": [
        {
          "internalType": "uint256",
          "name": "",
          "type": "uint256"
        }
      ],
      "stateMutability": "view",
      "type": "function"
    },
    {
      "inputs": [
        {
          "internalType": "address",
          "name": "_bones",
          "type": "address"
        }
      ],
      "name": "initialize",
      "outputs": [],
      "stateMutability": "nonpayable",
      "type": "function"
    },
    {
      "inputs": [
        {
          "internalType": "uint256",
          "name": "_amount",
          "type": "uint256"
        }
      ],
      "name": "removeBonesFromYard",
      "outputs": [],
      "stateMutability": "nonpayable",
      "type": "function"
    },
    {
      "inputs": [
        {
          "internalType": "uint256",
          "name": "_amount",
          "type": "uint256"
        }
      ],
      "name": "stakeBonesInYard",
      "outputs": [],
      "stateMutability": "nonpayable",
      "type": "function"
    },
    {
      "inputs": [],
      "name": "timeOut",
      "outputs": [
        {
          "internalType": "uint256",
          "name": "",
          "type": "uint256"
        }
      ],
      "stateMutability": "view",
      "type": "function"
    },
    {
      "inputs": [],
      "name": "totalDaysOff",
      "outputs": [
        {
          "internalType": "uint256",
          "name": "",
          "type": "uint256"
        }
      ],
      "stateMutability": "view",
      "type": "function"
    },
    {
      "inputs": [],
      "name": "validation",
      "outputs": [
        {
          "internalType": "bool",
          "name": "",
          "type": "bool"
        }
      ],
      "stateMutability": "view",
      "type": "function"
    }
  ],
  "transactionHash": "0xc09dc538de44fd6dfc705310bb36bae4c0a5472ec8210bd5432030eeef0ea0d0",
  "args": [],
  "numDeployments": 1,
  "solcInputHash": "6c54f78e8fd698c2bc6af947264d9e2b",
  "bytecode": "0x608060405234801561001057600080fd5b50610f53806100206000396000f3fe608060405234801561001057600080fd5b50600436106100cf5760003560e01c806389626bbb1161008c578063c4d66de811610066578063c4d66de8146101de578063d09f53c0146101fa578063d88ad8871461022a578063e30aadc014610248576100cf565b806389626bbb146101865780638d32b0b0146101a4578063ae4b37e4146101c0576100cf565b806311f77b6c146100d45780631b688d9f146100f2578063229f45701461011057806360dc175d1461012c578063614d85e11461014a5780637bd90cc214610168575b600080fd5b6100dc610278565b6040516100e99190610abe565b60405180910390f35b6100fa61027e565b6040516101079190610abe565b60405180910390f35b61012a60048036038101906101259190610b0a565b610288565b005b6101346104d3565b6040516101419190610abe565b60405180910390f35b6101526104dd565b60405161015f9190610abe565b60405180910390f35b6101706104e3565b60405161017d9190610abe565b60405180910390f35b61018e6104ed565b60405161019b9190610abe565b60405180910390f35b6101be60048036038101906101b99190610b0a565b6104f3565b005b6101c8610680565b6040516101d59190610b52565b60405180910390f35b6101f860048036038101906101f39190610bcb565b610735565b005b610214600480360381019061020f9190610b0a565b6108ad565b6040516102219190610abe565b60405180910390f35b6102326108ca565b60405161023f9190610c57565b60405180910390f35b610262600480360381019061025d9190610bcb565b6108f0565b60405161026f9190610abe565b60405180910390f35b60015481565b6000600254905090565b80600060029054906101000a900473ffffffffffffffffffffffffffffffffffffffff1673ffffffffffffffffffffffffffffffffffffffff166370a08231336040518263ffffffff1660e01b81526004016102e49190610c81565b602060405180830381865afa158015610301573d6000803e3d6000fd5b505050506040513d601f19601f820116820180604052508101906103259190610cb1565b101561035d576040517f7276110900000000000000000000000000000000000000000000000000000000815260040160405180910390fd5b60006001549050610392600060029054906101000a900473ffffffffffffffffffffffffffffffffffffffff16333085610939565b81600460003373ffffffffffffffffffffffffffffffffffffffff1673ffffffffffffffffffffffffffffffffffffffff16815260200190815260200160002060008282546103e19190610d0d565b9250508190555081600160008282546103fa9190610d0d565b92505081905550610409610989565b8110801561041b575061041a610680565b5b1561048b576000806002541461044f57620151806002544261043d9190610d41565b6104479190610da4565b905080610455565b60009050805b50806005600060025481526020019081526020016000208190555080600360008282546104829190610d0d565b92505081905550505b813373ffffffffffffffffffffffffffffffffffffffff167feee583b3a9abd3fc0b4ec61ae41e4945daef0730d6e2ff18701a2eccf5a14fc360405160405180910390a35050565b6000600154905090565b60025481565b6000600354905090565b60035481565b600460003373ffffffffffffffffffffffffffffffffffffffff1673ffffffffffffffffffffffffffffffffffffffff1681526020019081526020016000205481111561056c576040517f7276110900000000000000000000000000000000000000000000000000000000815260040160405180910390fd5b6000600154905081600460003373ffffffffffffffffffffffffffffffffffffffff1673ffffffffffffffffffffffffffffffffffffffff16815260200190815260200160002060008282546105c29190610d41565b9250508190555081600160008282546105db9190610d41565b925050819055506105ea610989565b81101580156105fe57506105fc610680565b155b1561060b57426002819055505b610638600060029054906101000a900473ffffffffffffffffffffffffffffffffffffffff163384610a39565b813373ffffffffffffffffffffffffffffffffffffffff167f890a9eede17bad064866e98bf8a4b0039775595030c55e9c2a142bbe4913a85b60405160405180910390a35050565b6000600a6003600060029054906101000a900473ffffffffffffffffffffffffffffffffffffffff1673ffffffffffffffffffffffffffffffffffffffff166318160ddd6040518163ffffffff1660e01b8152600401602060405180830381865afa1580156106f3573d6000803e3d6000fd5b505050506040513d601f19601f820116820180604052508101906107179190610cb1565b6107219190610dd5565b61072b9190610da4565b6001541015905090565b60008060019054906101000a900460ff161590508080156107665750600160008054906101000a900460ff1660ff16105b80610793575061077530610a82565b1580156107925750600160008054906101000a900460ff1660ff16145b5b6107d2576040517f08c379a00000000000000000000000000000000000000000000000000000000081526004016107c990610e9a565b60405180910390fd5b60016000806101000a81548160ff021916908360ff160217905550801561080f576001600060016101000a81548160ff0219169083151502179055505b81600060026101000a81548173ffffffffffffffffffffffffffffffffffffffff021916908373ffffffffffffffffffffffffffffffffffffffff16021790555080156108a95760008060016101000a81548160ff0219169083151502179055507f7f26b83ff96e1f2b6a682f133852f6798a09c465da95921460cefb384740249860016040516108a09190610f02565b60405180910390a15b5050565b600060056000838152602001908152602001600020549050919050565b600060029054906101000a900473ffffffffffffffffffffffffffffffffffffffff1681565b6000600460008373ffffffffffffffffffffffffffffffffffffffff1673ffffffffffffffffffffffffffffffffffffffff168152602001908152602001600020549050919050565b6040516323b872dd600052836020528260405281606052602060006064601c6000895af13d15600160005114171661097957637939f4246000526004601cfd5b6000606052806040525050505050565b6000600a6003600060029054906101000a900473ffffffffffffffffffffffffffffffffffffffff1673ffffffffffffffffffffffffffffffffffffffff166318160ddd6040518163ffffffff1660e01b8152600401602060405180830381865afa1580156109fc573d6000803e3d6000fd5b505050506040513d601f19601f82011682018060405250810190610a209190610cb1565b610a2a9190610dd5565b610a349190610da4565b905090565b81601a5280603a5269a9059cbb00000000000060005260206000604460166000875af13d156001600051141716610a78576390b8ec186000526004601cfd5b6000603a52505050565b6000808273ffffffffffffffffffffffffffffffffffffffff163b119050919050565b6000819050919050565b610ab881610aa5565b82525050565b6000602082019050610ad36000830184610aaf565b92915050565b600080fd5b610ae781610aa5565b8114610af257600080fd5b50565b600081359050610b0481610ade565b92915050565b600060208284031215610b2057610b1f610ad9565b5b6000610b2e84828501610af5565b91505092915050565b60008115159050919050565b610b4c81610b37565b82525050565b6000602082019050610b676000830184610b43565b92915050565b600073ffffffffffffffffffffffffffffffffffffffff82169050919050565b6000610b9882610b6d565b9050919050565b610ba881610b8d565b8114610bb357600080fd5b50565b600081359050610bc581610b9f565b92915050565b600060208284031215610be157610be0610ad9565b5b6000610bef84828501610bb6565b91505092915050565b6000819050919050565b6000610c1d610c18610c1384610b6d565b610bf8565b610b6d565b9050919050565b6000610c2f82610c02565b9050919050565b6000610c4182610c24565b9050919050565b610c5181610c36565b82525050565b6000602082019050610c6c6000830184610c48565b92915050565b610c7b81610b8d565b82525050565b6000602082019050610c966000830184610c72565b92915050565b600081519050610cab81610ade565b92915050565b600060208284031215610cc757610cc6610ad9565b5b6000610cd584828501610c9c565b91505092915050565b7f4e487b7100000000000000000000000000000000000000000000000000000000600052601160045260246000fd5b6000610d1882610aa5565b9150610d2383610aa5565b9250828201905080821115610d3b57610d3a610cde565b5b92915050565b6000610d4c82610aa5565b9150610d5783610aa5565b9250828203905081811115610d6f57610d6e610cde565b5b92915050565b7f4e487b7100000000000000000000000000000000000000000000000000000000600052601260045260246000fd5b6000610daf82610aa5565b9150610dba83610aa5565b925082610dca57610dc9610d75565b5b828204905092915050565b6000610de082610aa5565b9150610deb83610aa5565b9250828202610df981610aa5565b91508282048414831517610e1057610e0f610cde565b5b5092915050565b600082825260208201905092915050565b7f496e697469616c697a61626c653a20636f6e747261637420697320616c72656160008201527f647920696e697469616c697a6564000000000000000000000000000000000000602082015250565b6000610e84602e83610e17565b9150610e8f82610e28565b604082019050919050565b60006020820190508181036000830152610eb381610e77565b9050919050565b6000819050919050565b600060ff82169050919050565b6000610eec610ee7610ee284610eba565b610bf8565b610ec4565b9050919050565b610efc81610ed1565b82525050565b6000602082019050610f176000830184610ef3565b9291505056fea26469706673582212209e8effdc07ac6f4ee000b1d3c11db25c299eae9fd540fb0724d316bbe20c741664736f6c63430008110033",
  "devdoc": {
    "kind": "dev",
    "methods": {},
    "version": 1
  },
  "userdoc": {
    "kind": "user",
    "methods": {},
    "version": 1
  },
  "storageLayout": {
    "storage": [
      {
        "astId": 6,
        "contract": "contracts/Pits.sol:Pits",
        "label": "_initialized",
        "offset": 0,
        "slot": "0",
        "type": "t_uint8"
      },
      {
        "astId": 9,
        "contract": "contracts/Pits.sol:Pits",
        "label": "_initializing",
        "offset": 1,
        "slot": "0",
        "type": "t_bool"
      },
      {
        "astId": 9186,
        "contract": "contracts/Pits.sol:Pits",
        "label": "bones",
        "offset": 2,
        "slot": "0",
        "type": "t_contract(IERC20)5139"
      },
      {
        "astId": 9188,
        "contract": "contracts/Pits.sol:Pits",
        "label": "bonesStaked",
        "offset": 0,
        "slot": "1",
        "type": "t_uint256"
      },
      {
        "astId": 9190,
        "contract": "contracts/Pits.sol:Pits",
        "label": "timeOut",
        "offset": 0,
        "slot": "2",
        "type": "t_uint256"
      },
      {
        "astId": 9192,
        "contract": "contracts/Pits.sol:Pits",
        "label": "totalDaysOff",
        "offset": 0,
        "slot": "3",
        "type": "t_uint256"
      },
      {
        "astId": 9196,
        "contract": "contracts/Pits.sol:Pits",
        "label": "balance",
        "offset": 0,
        "slot": "4",
        "type": "t_mapping(t_address,t_uint256)"
      },
      {
        "astId": 9200,
        "contract": "contracts/Pits.sol:Pits",
        "label": "trackDaysOff",
        "offset": 0,
        "slot": "5",
        "type": "t_mapping(t_uint256,t_uint256)"
      }
    ],
    "types": {
      "t_address": {
        "encoding": "inplace",
        "label": "address",
        "numberOfBytes": "20"
      },
      "t_bool": {
        "encoding": "inplace",
        "label": "bool",
        "numberOfBytes": "1"
      },
      "t_contract(IERC20)5139": {
        "encoding": "inplace",
        "label": "contract IERC20",
        "numberOfBytes": "20"
      },
      "t_mapping(t_address,t_uint256)": {
        "encoding": "mapping",
        "key": "t_address",
        "label": "mapping(address => uint256)",
        "numberOfBytes": "32",
        "value": "t_uint256"
      },
      "t_mapping(t_uint256,t_uint256)": {
        "encoding": "mapping",
        "key": "t_uint256",
        "label": "mapping(uint256 => uint256)",
        "numberOfBytes": "32",
        "value": "t_uint256"
      },
      "t_uint256": {
        "encoding": "inplace",
        "label": "uint256",
        "numberOfBytes": "32"
      },
      "t_uint8": {
        "encoding": "inplace",
        "label": "uint8",
        "numberOfBytes": "1"
      }
    }
  }
}