{
  "address": "0xB7f8BC63BbcaD18155201308C8f3540b07f84F5e",
  "abi": [
    {
      "inputs": [],
      "name": "n",
      "outputs": [
        {
          "internalType": "uint256",
          "name": "",
          "type": "uint256"
        }
      ],
      "stateMutability": "view",
      "type": "function"
    },
    {
      "inputs": [],
      "name": "requestRandomNumber",
      "outputs": [
        {
          "internalType": "uint256",
          "name": "",
          "type": "uint256"
        }
      ],
      "stateMutability": "nonpayable",
      "type": "function"
    },
    {
      "inputs": [
        {
          "internalType": "uint256",
          "name": "_requestId",
          "type": "uint256"
        }
      ],
      "name": "revealRandomNumber",
      "outputs": [
        {
          "internalType": "uint256",
          "name": "",
          "type": "uint256"
        }
      ],
      "stateMutability": "view",
      "type": "function"
    }
  ],
  "transactionHash": "0x2911637c823a275b14fdaa748836d03b80af665122f20ecccdcf3d8a87102e4a",
  "args": [],
  "numDeployments": 1,
  "solcInputHash": "6c54f78e8fd698c2bc6af947264d9e2b",
  "bytecode": "0x608060405234801561001057600080fd5b5061021b806100206000396000f3fe608060405234801561001057600080fd5b50600436106100415760003560e01c80632e52d606146100465780634ad30a75146100645780638678a7b214610094575b600080fd5b61004e6100b2565b60405161005b91906100f5565b60405180910390f35b61007e60048036038101906100799190610141565b6100b8565b60405161008b91906100f5565b60405180910390f35b61009c6100bf565b6040516100a991906100f5565b60405180910390f35b60005481565b6000919050565b60008060008154809291906100d39061019d565b91905055905090565b6000819050919050565b6100ef816100dc565b82525050565b600060208201905061010a60008301846100e6565b92915050565b600080fd5b61011e816100dc565b811461012957600080fd5b50565b60008135905061013b81610115565b92915050565b60006020828403121561015757610156610110565b5b60006101658482850161012c565b91505092915050565b7f4e487b7100000000000000000000000000000000000000000000000000000000600052601160045260246000fd5b60006101a8826100dc565b91507fffffffffffffffffffffffffffffffffffffffffffffffffffffffffffffffff82036101da576101d961016e565b5b60018201905091905056fea2646970667358221220855f63dece0d5e3c7d052112158c655c7560f4e8032eec40eb1bffeac9125efc64736f6c63430008110033",
  "devdoc": {
    "kind": "dev",
    "methods": {},
    "version": 1
  },
  "userdoc": {
    "kind": "user",
    "methods": {},
    "version": 1
  },
  "storageLayout": {
    "storage": [
      {
        "astId": 10341,
        "contract": "contracts/mocks/Randomizer.sol:Randomizer",
        "label": "n",
        "offset": 0,
        "slot": "0",
        "type": "t_uint256"
      }
    ],
    "types": {
      "t_uint256": {
        "encoding": "inplace",
        "label": "uint256",
        "numberOfBytes": "32"
      }
    }
  }
}