{
  "_format": "hh-sol-artifact-1",
  "contractName": "Lib",
  "sourceName": "contracts/library/Lib.sol",
  "abi": [
    {
      "inputs": [],
      "name": "BalanceIsInsufficient",
      "type": "error"
    },
    {
      "inputs": [],
      "name": "CannotClaimNow",
      "type": "error"
    },
    {
      "inputs": [],
      "name": "CsIsBellowHundred",
      "type": "error"
    },
    {
      "inputs": [],
      "name": "CsToHigh",
      "type": "error"
    },
    {
      "inputs": [],
      "name": "DevelopmentGroundIsLocked",
      "type": "error"
    },
    {
      "inputs": [],
      "name": "InvalidLockTime",
      "type": "error"
    },
    {
      "inputs": [],
      "name": "InvalidTokenForThisJob",
      "type": "error"
    },
    {
      "inputs": [],
      "name": "InvalidTokenId",
      "type": "error"
    },
    {
      "inputs": [],
      "name": "LengthsNotEqual",
      "type": "error"
    },
    {
      "inputs": [],
      "name": "NeandersmolIsNotInDevelopmentGround",
      "type": "error"
    },
    {
      "inputs": [],
      "name": "NeandersmolsIsLocked",
      "type": "error"
    },
    {
      "inputs": [],
      "name": "NoMoreAnimalsAllowed",
      "type": "error"
    },
    {
      "inputs": [],
      "name": "NotAContract",
      "type": "error"
    },
    {
      "inputs": [],
      "name": "NotAuthorized",
      "type": "error"
    },
    {
      "inputs": [],
      "name": "NotYourToken",
      "type": "error"
    },
    {
      "inputs": [],
      "name": "TransferFailed",
      "type": "error"
    },
    {
      "inputs": [],
      "name": "WrongMultiple",
      "type": "error"
    },
    {
      "inputs": [],
      "name": "ZeroBalanceError",
      "type": "error"
    },
    {
      "inputs": [
        {
          "internalType": "contract INeandersmol",
          "name": "_neandersmol",
          "type": "INeandersmol"
        },
        {
          "internalType": "uint256",
          "name": "_tokenId",
          "type": "uint256"
        },
        {
          "internalType": "uint256",
          "name": "_lockTime",
          "type": "uint256"
        }
      ],
      "name": "enterDevelopmentGround",
      "outputs": [],
      "stateMutability": "view",
      "type": "function"
    },
    {
      "inputs": [
        {
          "internalType": "contract INeandersmol",
          "name": "_neandersmol",
          "type": "INeandersmol"
        },
        {
          "internalType": "uint256",
          "name": "_tokenId",
          "type": "uint256"
        },
        {
          "internalType": "uint256",
          "name": "_supplyId",
          "type": "uint256"
        },
        {
          "internalType": "enum Lib.Jobs",
          "name": "_job",
          "type": "Lib.Jobs"
        }
      ],
      "name": "enterLaborGround",
      "outputs": [],
      "stateMutability": "view",
      "type": "function"
    },
    {
      "inputs": [
        {
          "internalType": "uint256",
          "name": "_currentLockPeriod",
          "type": "uint256"
        },
        {
          "internalType": "uint256",
          "name": "_lockPeriod",
          "type": "uint256"
        },
        {
          "internalType": "uint256",
          "name": "_lastRewardTime",
          "type": "uint256"
        },
        {
          "internalType": "contract IPits",
          "name": "_pits",
          "type": "IPits"
        }
      ],
      "name": "getDevelopmentGroundBonesReward",
      "outputs": [
        {
          "internalType": "uint256",
          "name": "",
          "type": "uint256"
        }
      ],
      "stateMutability": "view",
      "type": "function"
    },
    {
      "inputs": [
        {
          "internalType": "contract IPits",
          "name": "_pits",
          "type": "IPits"
        }
      ],
      "name": "pitsValidation",
      "outputs": [],
      "stateMutability": "view",
      "type": "function"
    }
  ],
  "bytecode": "0x611aaf610053600b82828239805160001a607314610046577f4e487b7100000000000000000000000000000000000000000000000000000000600052600060045260246000fd5b30600052607381538281f3fe730000000000000000000000000000000000000000301460806040526004361061009d5760003560e01c8063983904841161007057806398390484146101265780639b0114ec146101425780639d79d1481461015e578063e04bed121461017a578063f674f6b7146101965761009d565b806319bfe45c146100a25780633c1c74ab146100be57806366ea43f0146100da57806371fcf2041461010a575b600080fd5b6100bc60048036038101906100b79190611317565b6101c6565b005b6100d860048036038101906100d3919061137e565b61039e565b005b6100f460048036038101906100ef9190611445565b610574565b60405161010191906114f6565b60405180910390f35b610124600480360381019061011f9190611511565b61068d565b005b610140600480360381019061013b9190611574565b610735565b005b61015c600480360381019061015791906115a1565b610815565b005b61017860048036038101906101739190611617565b6108d6565b005b610194600480360381019061018f9190611682565b610b18565b005b6101b060048036038101906101ab91906116d5565b610ca7565b6040516101bd91906114f6565b60405180910390f35b3373ffffffffffffffffffffffffffffffffffffffff168473ffffffffffffffffffffffffffffffffffffffff16636352211e856040518263ffffffff1660e01b8152600401610216919061174b565b602060405180830381865afa158015610233573d6000803e3d6000fd5b505050506040513d601f19601f820116820180604052508101906102579190611792565b73ffffffffffffffffffffffffffffffffffffffff16146102a4576040517f091fe61c00000000000000000000000000000000000000000000000000000000815260040160405180910390fd5b60638473ffffffffffffffffffffffffffffffffffffffff1663f822a5b2856040518263ffffffff1660e01b81526004016102df919061174b565b602060405180830381865afa1580156102fc573d6000803e3d6000fd5b505050506040513d601f19601f8201168201806040525081019061032091906117d4565b1115610358576040517fc0b81fcd00000000000000000000000000000000000000000000000000000000815260040160405180910390fd5b6103628282610d24565b610398576040517f3189b2eb00000000000000000000000000000000000000000000000000000000815260040160405180910390fd5b50505050565b60648373ffffffffffffffffffffffffffffffffffffffff1663f822a5b2846040518263ffffffff1660e01b81526004016103d9919061174b565b602060405180830381865afa1580156103f6573d6000803e3d6000fd5b505050506040513d601f19601f8201168201806040525081019061041a91906117d4565b1015610452576040517f7f36105d00000000000000000000000000000000000000000000000000000000815260040160405180910390fd5b3373ffffffffffffffffffffffffffffffffffffffff168373ffffffffffffffffffffffffffffffffffffffff16636352211e846040518263ffffffff1660e01b81526004016104a2919061174b565b602060405180830381865afa1580156104bf573d6000803e3d6000fd5b505050506040513d601f19601f820116820180604052508101906104e39190611792565b73ffffffffffffffffffffffffffffffffffffffff1614610530576040517f091fe61c00000000000000000000000000000000000000000000000000000000815260040160405180910390fd5b61053981610dd0565b61056f576040517fabf20e8f00000000000000000000000000000000000000000000000000000000815260040160405180910390fd5b505050565b60008088036105865760009050610682565b600080600190505b888111610647576000620151808660008a8152602001908152602001600020600084815260200190815260200160002054426105ca9190611830565b6105d49190611893565b905060008560008a815260200190815260200160002060008860008c81526020019081526020016000206000868152602001908152602001600020548152602001908152602001600020549050808261062d91906118c4565b846106389190611906565b9350826001019250505061058e565b5061271068056bc75e2d6310000061065f8988610df9565b61066991906118c4565b826106749190611830565b61067e9190611893565b9150505b979650505050505050565b8073ffffffffffffffffffffffffffffffffffffffff1663ae4b37e46040518163ffffffff1660e01b8152600401602060405180830381865afa1580156106d8573d6000803e3d6000fd5b505050506040513d601f19601f820116820180604052508101906106fc9190611972565b610732576040517f288de97200000000000000000000000000000000000000000000000000000000815260040160405180910390fd5b50565b3373ffffffffffffffffffffffffffffffffffffffff168160000160009054906101000a900473ffffffffffffffffffffffffffffffffffffffff1673ffffffffffffffffffffffffffffffffffffffff16146107be576040517f091fe61c00000000000000000000000000000000000000000000000000000000815260040160405180910390fd5b600081600001601c9054906101000a900463ffffffff1663ffffffff1614610812576040517f8dca9f6400000000000000000000000000000000000000000000000000000000815260040160405180910390fd5b50565b3373ffffffffffffffffffffffffffffffffffffffff168260000160009054906101000a900473ffffffffffffffffffffffffffffffffffffffff1673ffffffffffffffffffffffffffffffffffffffff161415801561089b575060018161087d9190611906565b82600001601c9054906101000a900463ffffffff1663ffffffff1614155b156108d2576040517f091fe61c00000000000000000000000000000000000000000000000000000000815260040160405180910390fd5b5050565b600081604051806101000160405290816000820160009054906101000a900473ffffffffffffffffffffffffffffffffffffffff1673ffffffffffffffffffffffffffffffffffffffff1673ffffffffffffffffffffffffffffffffffffffff1681526020016000820160149054906101000a900467ffffffffffffffff1667ffffffffffffffff1667ffffffffffffffff1681526020016001820160009054906101000a900467ffffffffffffffff1667ffffffffffffffff1667ffffffffffffffff1681526020016001820160089054906101000a900467ffffffffffffffff1667ffffffffffffffff1667ffffffffffffffff1681526020016001820160109054906101000a900467ffffffffffffffff1667ffffffffffffffff1667ffffffffffffffff16815260200160028201548152602001600382015481526020016004820160009054906101000a900460ff166002811115610a3c57610a3b61199f565b5b6002811115610a4e57610a4d61199f565b5b8152505090503373ffffffffffffffffffffffffffffffffffffffff16816000015173ffffffffffffffffffffffffffffffffffffffff1614610abd576040517f091fe61c00000000000000000000000000000000000000000000000000000000815260040160405180910390fd5b80602001518160600151610ad191906119e2565b67ffffffffffffffff16421015610b14576040517ff5dcc1e300000000000000000000000000000000000000000000000000000000815260040160405180910390fd5b5050565b808273ffffffffffffffffffffffffffffffffffffffff166370a08231336040518263ffffffff1660e01b8152600401610b529190611a2d565b602060405180830381865afa158015610b6f573d6000803e3d6000fd5b505050506040513d601f19601f82011682018060405250810190610b9391906117d4565b1015610bcb576040517f7276110900000000000000000000000000000000000000000000000000000000815260040160405180910390fd5b3373ffffffffffffffffffffffffffffffffffffffff168360000160009054906101000a900473ffffffffffffffffffffffffffffffffffffffff1673ffffffffffffffffffffffffffffffffffffffff1614610c54576040517fb47f2b3300000000000000000000000000000000000000000000000000000000815260040160405180910390fd5b6000683635c9adc5dea0000082610c6b9190611a48565b14610ca2576040517f1d823d0700000000000000000000000000000000000000000000000000000000815260040160405180910390fd5b505050565b6000808403610cb95760009050610d1c565b6000610cc485611213565b90506000620151808542610cd89190611830565b610ce29190611893565b9050670de0b6b3a7640000610cf78886610df9565b8284610d0391906118c4565b610d0d9190611830565b610d1791906118c4565b925050505b949350505050565b6000806002811115610d3957610d3861199f565b5b826002811115610d4c57610d4b61199f565b5b03610d5c57600183149050610dca565b60016002811115610d7057610d6f61199f565b5b826002811115610d8357610d8261199f565b5b03610d9357600283149050610dca565b600280811115610da657610da561199f565b5b826002811115610db957610db861199f565b5b03610dc957600383149050610dca565b5b92915050565b60006241eb00821480610de557506283d60082145b80610df2575062c5c10082145b9050919050565b6000808273ffffffffffffffffffffffffffffffffffffffff16631b688d9f6040518163ffffffff1660e01b8152600401602060405180830381865afa158015610e47573d6000803e3d6000fd5b505050506040513d601f19601f82011682018060405250810190610e6b91906117d4565b8414610fff576000620151808473ffffffffffffffffffffffffffffffffffffffff16631b688d9f6040518163ffffffff1660e01b8152600401602060405180830381865afa158015610ec2573d6000803e3d6000fd5b505050506040513d601f19601f82011682018060405250810190610ee691906117d4565b42610ef19190611830565b610efb9190611893565b9050808473ffffffffffffffffffffffffffffffffffffffff1663d09f53c0876040518263ffffffff1660e01b8152600401610f37919061174b565b602060405180830381865afa158015610f54573d6000803e3d6000fd5b505050506040513d601f19601f82011682018060405250810190610f7891906117d4565b8573ffffffffffffffffffffffffffffffffffffffff16637bd90cc26040518163ffffffff1660e01b8152600401602060405180830381865afa158015610fc3573d6000803e3d6000fd5b505050506040513d601f19601f82011682018060405250810190610fe791906117d4565b610ff19190611830565b610ffb9190611906565b9150505b600084036111fd576000808473ffffffffffffffffffffffffffffffffffffffff16631b688d9f6040518163ffffffff1660e01b8152600401602060405180830381865afa158015611055573d6000803e3d6000fd5b505050506040513d601f19601f8201168201806040525081019061107991906117d4565b03611085576000611111565b620151808473ffffffffffffffffffffffffffffffffffffffff16631b688d9f6040518163ffffffff1660e01b8152600401602060405180830381865afa1580156110d4573d6000803e3d6000fd5b505050506040513d601f19601f820116820180604052508101906110f891906117d4565b426111039190611830565b61110d9190611893565b9050805b508373ffffffffffffffffffffffffffffffffffffffff1663ae4b37e46040518163ffffffff1660e01b8152600401602060405180830381865afa15801561115d573d6000803e3d6000fd5b505050506040513d601f19601f820116820180604052508101906111819190611972565b156111f8578373ffffffffffffffffffffffffffffffffffffffff16637bd90cc26040518163ffffffff1660e01b8152600401602060405180830381865afa1580156111d1573d6000803e3d6000fd5b505050506040513d601f19601f820116820180604052508101906111f591906117d4565b90505b809150505b600a8161120a91906118c4565b91505092915050565b60006241eb00820361122457600a90505b6283d600820361123357603290505b62c5c100820361124257606490505b919050565b600080fd5b600073ffffffffffffffffffffffffffffffffffffffff82169050919050565b60006112778261124c565b9050919050565b60006112898261126c565b9050919050565b6112998161127e565b81146112a457600080fd5b50565b6000813590506112b681611290565b92915050565b6000819050919050565b6112cf816112bc565b81146112da57600080fd5b50565b6000813590506112ec816112c6565b92915050565b600381106112ff57600080fd5b50565b600081359050611311816112f2565b92915050565b6000806000806080858703121561133157611330611247565b5b600061133f878288016112a7565b9450506020611350878288016112dd565b9350506040611361878288016112dd565b925050606061137287828801611302565b91505092959194509250565b60008060006060848603121561139757611396611247565b5b60006113a5868287016112a7565b93505060206113b6868287016112dd565b92505060406113c7868287016112dd565b9150509250925092565b60006113dc8261126c565b9050919050565b6113ec816113d1565b81146113f757600080fd5b50565b600081359050611409816113e3565b92915050565b6000819050919050565b6114228161140f565b811461142d57600080fd5b50565b60008135905061143f81611419565b92915050565b600080600080600080600060e0888a03121561146457611463611247565b5b60006114728a828b016112dd565b97505060206114838a828b016112dd565b96505060406114948a828b016112dd565b95505060606114a58a828b016112dd565b94505060806114b68a828b016113fa565b93505060a06114c78a828b01611430565b92505060c06114d88a828b01611430565b91505092959891949750929550565b6114f0816112bc565b82525050565b600060208201905061150b60008301846114e7565b92915050565b60006020828403121561152757611526611247565b5b6000611535848285016113fa565b91505092915050565b6000819050919050565b6115518161153e565b811461155c57600080fd5b50565b60008135905061156e81611548565b92915050565b60006020828403121561158a57611589611247565b5b60006115988482850161155f565b91505092915050565b600080604083850312156115b8576115b7611247565b5b60006115c68582860161155f565b92505060206115d7858286016112dd565b9150509250929050565b6000819050919050565b6115f4816115e1565b81146115ff57600080fd5b50565b600081359050611611816115eb565b92915050565b60006020828403121561162d5761162c611247565b5b600061163b84828501611602565b91505092915050565b600061164f8261126c565b9050919050565b61165f81611644565b811461166a57600080fd5b50565b60008135905061167c81611656565b92915050565b60008060006060848603121561169b5761169a611247565b5b60006116a986828701611602565b93505060206116ba8682870161166d565b92505060406116cb868287016112dd565b9150509250925092565b600080600080608085870312156116ef576116ee611247565b5b60006116fd878288016112dd565b945050602061170e878288016112dd565b935050604061171f878288016112dd565b9250506060611730878288016113fa565b91505092959194509250565b611745816112bc565b82525050565b6000602082019050611760600083018461173c565b92915050565b61176f8161126c565b811461177a57600080fd5b50565b60008151905061178c81611766565b92915050565b6000602082840312156117a8576117a7611247565b5b60006117b68482850161177d565b91505092915050565b6000815190506117ce816112c6565b92915050565b6000602082840312156117ea576117e9611247565b5b60006117f8848285016117bf565b91505092915050565b7f4e487b7100000000000000000000000000000000000000000000000000000000600052601160045260246000fd5b600061183b826112bc565b9150611846836112bc565b925082820390508181111561185e5761185d611801565b5b92915050565b7f4e487b7100000000000000000000000000000000000000000000000000000000600052601260045260246000fd5b600061189e826112bc565b91506118a9836112bc565b9250826118b9576118b8611864565b5b828204905092915050565b60006118cf826112bc565b91506118da836112bc565b92508282026118e8816112bc565b915082820484148315176118ff576118fe611801565b5b5092915050565b6000611911826112bc565b915061191c836112bc565b925082820190508082111561193457611933611801565b5b92915050565b60008115159050919050565b61194f8161193a565b811461195a57600080fd5b50565b60008151905061196c81611946565b92915050565b60006020828403121561198857611987611247565b5b60006119968482850161195d565b91505092915050565b7f4e487b7100000000000000000000000000000000000000000000000000000000600052602160045260246000fd5b600067ffffffffffffffff82169050919050565b60006119ed826119ce565b91506119f8836119ce565b9250828201905067ffffffffffffffff811115611a1857611a17611801565b5b92915050565b611a278161126c565b82525050565b6000602082019050611a426000830184611a1e565b92915050565b6000611a53826112bc565b9150611a5e836112bc565b925082611a6e57611a6d611864565b5b82820690509291505056fea2646970667358221220917c2dccbd69e08fec724f3ebb7dbab1c2e5cb697e85acd7c0c6042a6a27d41b64736f6c63430008110033",
  "linkReferences": {},
  "deployedLinkReferences": {}
}