{
  "_format": "hh-sol-artifact-1",
  "contractName": "Randomizer",
  "sourceName": "contracts/mocks/Randomizer.sol",
  "abi": [
    {
      "inputs": [],
      "name": "n",
      "outputs": [
        {
          "internalType": "uint256",
          "name": "",
          "type": "uint256"
        }
      ],
      "stateMutability": "view",
      "type": "function"
    },
    {
      "inputs": [],
      "name": "requestRandomNumber",
      "outputs": [
        {
          "internalType": "uint256",
          "name": "",
          "type": "uint256"
        }
      ],
      "stateMutability": "nonpayable",
      "type": "function"
    },
    {
      "inputs": [
        {
          "internalType": "uint256",
          "name": "_requestId",
          "type": "uint256"
        }
      ],
      "name": "revealRandomNumber",
      "outputs": [
        {
          "internalType": "uint256",
          "name": "",
          "type": "uint256"
        }
      ],
      "stateMutability": "view",
      "type": "function"
    }
  ],
  "bytecode": "0x608060405234801561001057600080fd5b5061021b806100206000396000f3fe608060405234801561001057600080fd5b50600436106100415760003560e01c80632e52d606146100465780634ad30a75146100645780638678a7b214610094575b600080fd5b61004e6100b2565b60405161005b91906100f5565b60405180910390f35b61007e60048036038101906100799190610141565b6100b8565b60405161008b91906100f5565b60405180910390f35b61009c6100bf565b6040516100a991906100f5565b60405180910390f35b60005481565b6000919050565b60008060008154809291906100d39061019d565b91905055905090565b6000819050919050565b6100ef816100dc565b82525050565b600060208201905061010a60008301846100e6565b92915050565b600080fd5b61011e816100dc565b811461012957600080fd5b50565b60008135905061013b81610115565b92915050565b60006020828403121561015757610156610110565b5b60006101658482850161012c565b91505092915050565b7f4e487b7100000000000000000000000000000000000000000000000000000000600052601160045260246000fd5b60006101a8826100dc565b91507fffffffffffffffffffffffffffffffffffffffffffffffffffffffffffffffff82036101da576101d961016e565b5b60018201905091905056fea26469706673582212201b2e3444fbb1988b0fdf3a3982ef917df81b3ab64ec517e8d0b0f43284dcab7364736f6c63430008110033",
  "linkReferences": {},
  "deployedLinkReferences": {}
}