{
  "_format": "hh-sol-artifact-1",
  "contractName": "Token",
  "sourceName": "contracts/mocks/Token.sol",
  "abi": [
    {
      "anonymous": false,
      "inputs": [
        {
          "indexed": true,
          "internalType": "address",
          "name": "owner",
          "type": "address"
        },
        {
          "indexed": true,
          "internalType": "address",
          "name": "spender",
          "type": "address"
        },
        {
          "indexed": false,
          "internalType": "uint256",
          "name": "value",
          "type": "uint256"
        }
      ],
      "name": "Approval",
      "type": "event"
    },
    {
      "anonymous": false,
      "inputs": [
        {
          "indexed": false,
          "internalType": "uint8",
          "name": "version",
          "type": "uint8"
        }
      ],
      "name": "Initialized",
      "type": "event"
    },
    {
      "anonymous": false,
      "inputs": [
        {
          "indexed": true,
          "internalType": "address",
          "name": "from",
          "type": "address"
        },
        {
          "indexed": true,
          "internalType": "address",
          "name": "to",
          "type": "address"
        },
        {
          "indexed": false,
          "internalType": "uint256",
          "name": "value",
          "type": "uint256"
        }
      ],
      "name": "Transfer",
      "type": "event"
    },
    {
      "inputs": [
        {
          "internalType": "address",
          "name": "owner",
          "type": "address"
        },
        {
          "internalType": "address",
          "name": "spender",
          "type": "address"
        }
      ],
      "name": "allowance",
      "outputs": [
        {
          "internalType": "uint256",
          "name": "",
          "type": "uint256"
        }
      ],
      "stateMutability": "view",
      "type": "function"
    },
    {
      "inputs": [
        {
          "internalType": "address",
          "name": "spender",
          "type": "address"
        },
        {
          "internalType": "uint256",
          "name": "amount",
          "type": "uint256"
        }
      ],
      "name": "approve",
      "outputs": [
        {
          "internalType": "bool",
          "name": "",
          "type": "bool"
        }
      ],
      "stateMutability": "nonpayable",
      "type": "function"
    },
    {
      "inputs": [
        {
          "internalType": "address",
          "name": "account",
          "type": "address"
        }
      ],
      "name": "balanceOf",
      "outputs": [
        {
          "internalType": "uint256",
          "name": "",
          "type": "uint256"
        }
      ],
      "stateMutability": "view",
      "type": "function"
    },
    {
      "inputs": [
        {
          "internalType": "address",
          "name": "_from",
          "type": "address"
        },
        {
          "internalType": "uint256",
          "name": "_amount",
          "type": "uint256"
        }
      ],
      "name": "burn",
      "outputs": [],
      "stateMutability": "nonpayable",
      "type": "function"
    },
    {
      "inputs": [],
      "name": "decimals",
      "outputs": [
        {
          "internalType": "uint8",
          "name": "",
          "type": "uint8"
        }
      ],
      "stateMutability": "view",
      "type": "function"
    },
    {
      "inputs": [
        {
          "internalType": "address",
          "name": "spender",
          "type": "address"
        },
        {
          "internalType": "uint256",
          "name": "subtractedValue",
          "type": "uint256"
        }
      ],
      "name": "decreaseAllowance",
      "outputs": [
        {
          "internalType": "bool",
          "name": "",
          "type": "bool"
        }
      ],
      "stateMutability": "nonpayable",
      "type": "function"
    },
    {
      "inputs": [
        {
          "internalType": "address",
          "name": "spender",
          "type": "address"
        },
        {
          "internalType": "uint256",
          "name": "addedValue",
          "type": "uint256"
        }
      ],
      "name": "increaseAllowance",
      "outputs": [
        {
          "internalType": "bool",
          "name": "",
          "type": "bool"
        }
      ],
      "stateMutability": "nonpayable",
      "type": "function"
    },
    {
      "inputs": [],
      "name": "initialize",
      "outputs": [],
      "stateMutability": "nonpayable",
      "type": "function"
    },
    {
      "inputs": [
        {
          "internalType": "address",
          "name": "_to",
          "type": "address"
        },
        {
          "internalType": "uint256",
          "name": "_amount",
          "type": "uint256"
        }
      ],
      "name": "mint",
      "outputs": [],
      "stateMutability": "nonpayable",
      "type": "function"
    },
    {
      "inputs": [],
      "name": "name",
      "outputs": [
        {
          "internalType": "string",
          "name": "",
          "type": "string"
        }
      ],
      "stateMutability": "view",
      "type": "function"
    },
    {
      "inputs": [],
      "name": "symbol",
      "outputs": [
        {
          "internalType": "string",
          "name": "",
          "type": "string"
        }
      ],
      "stateMutability": "view",
      "type": "function"
    },
    {
      "inputs": [],
      "name": "totalSupply",
      "outputs": [
        {
          "internalType": "uint256",
          "name": "",
          "type": "uint256"
        }
      ],
      "stateMutability": "view",
      "type": "function"
    },
    {
      "inputs": [
        {
          "internalType": "address",
          "name": "to",
          "type": "address"
        },
        {
          "internalType": "uint256",
          "name": "amount",
          "type": "uint256"
        }
      ],
      "name": "transfer",
      "outputs": [
        {
          "internalType": "bool",
          "name": "",
          "type": "bool"
        }
      ],
      "stateMutability": "nonpayable",
      "type": "function"
    },
    {
      "inputs": [
        {
          "internalType": "address",
          "name": "from",
          "type": "address"
        },
        {
          "internalType": "address",
          "name": "to",
          "type": "address"
        },
        {
          "internalType": "uint256",
          "name": "amount",
          "type": "uint256"
        }
      ],
      "name": "transferFrom",
      "outputs": [
        {
          "internalType": "bool",
          "name": "",
          "type": "bool"
        }
      ],
      "stateMutability": "nonpayable",
      "type": "function"
    }
  ],
  "bytecode": "0x608060405234801561001057600080fd5b506119e8806100206000396000f3fe608060405234801561001057600080fd5b50600436106100ea5760003560e01c806370a082311161008c5780639dc29fac116100665780639dc29fac1461024d578063a457c2d714610269578063a9059cbb14610299578063dd62ed3e146102c9576100ea565b806370a08231146101f55780638129fc1c1461022557806395d89b411461022f576100ea565b806323b872dd116100c857806323b872dd1461015b578063313ce5671461018b57806339509351146101a957806340c10f19146101d9576100ea565b806306fdde03146100ef578063095ea7b31461010d57806318160ddd1461013d575b600080fd5b6100f76102f9565b6040516101049190611043565b60405180910390f35b610127600480360381019061012291906110fe565b61038b565b6040516101349190611159565b60405180910390f35b6101456103ae565b6040516101529190611183565b60405180910390f35b6101756004803603810190610170919061119e565b6103b8565b6040516101829190611159565b60405180910390f35b6101936103e7565b6040516101a0919061120d565b60405180910390f35b6101c360048036038101906101be91906110fe565b6103f0565b6040516101d09190611159565b60405180910390f35b6101f360048036038101906101ee91906110fe565b610427565b005b61020f600480360381019061020a9190611228565b610435565b60405161021c9190611183565b60405180910390f35b61022d61047e565b005b6102376105c9565b6040516102449190611043565b60405180910390f35b610267600480360381019061026291906110fe565b61065b565b005b610283600480360381019061027e91906110fe565b610669565b6040516102909190611159565b60405180910390f35b6102b360048036038101906102ae91906110fe565b6106e0565b6040516102c09190611159565b60405180910390f35b6102e360048036038101906102de9190611255565b610703565b6040516102f09190611183565b60405180910390f35b606060368054610308906112c4565b80601f0160208091040260200160405190810160405280929190818152602001828054610334906112c4565b80156103815780601f1061035657610100808354040283529160200191610381565b820191906000526020600020905b81548152906001019060200180831161036457829003601f168201915b5050505050905090565b60008061039661078a565b90506103a3818585610792565b600191505092915050565b6000603554905090565b6000806103c361078a565b90506103d085828561095b565b6103db8585856109e7565b60019150509392505050565b60006012905090565b6000806103fb61078a565b905061041c81858561040d8589610703565b6104179190611324565b610792565b600191505092915050565b6104318282610c60565b5050565b6000603360008373ffffffffffffffffffffffffffffffffffffffff1673ffffffffffffffffffffffffffffffffffffffff168152602001908152602001600020549050919050565b60008060019054906101000a900460ff161590508080156104af5750600160008054906101000a900460ff1660ff16105b806104dc57506104be30610db7565b1580156104db5750600160008054906101000a900460ff1660ff16145b5b61051b576040517f08c379a0000000000000000000000000000000000000000000000000000000008152600401610512906113ca565b60405180910390fd5b60016000806101000a81548160ff021916908360ff1602179055508015610558576001600060016101000a81548160ff0219169083151502179055505b61056d336a084595161401484a000000610c60565b80156105c65760008060016101000a81548160ff0219169083151502179055507f7f26b83ff96e1f2b6a682f133852f6798a09c465da95921460cefb384740249860016040516105bd919061142f565b60405180910390a15b50565b6060603780546105d8906112c4565b80601f0160208091040260200160405190810160405280929190818152602001828054610604906112c4565b80156106515780601f1061062657610100808354040283529160200191610651565b820191906000526020600020905b81548152906001019060200180831161063457829003601f168201915b5050505050905090565b6106658282610dda565b5050565b60008061067461078a565b905060006106828286610703565b9050838110156106c7576040517f08c379a00000000000000000000000000000000000000000000000000000000081526004016106be906114bc565b60405180910390fd5b6106d48286868403610792565b60019250505092915050565b6000806106eb61078a565b90506106f88185856109e7565b600191505092915050565b6000603460008473ffffffffffffffffffffffffffffffffffffffff1673ffffffffffffffffffffffffffffffffffffffff16815260200190815260200160002060008373ffffffffffffffffffffffffffffffffffffffff1673ffffffffffffffffffffffffffffffffffffffff16815260200190815260200160002054905092915050565b600033905090565b600073ffffffffffffffffffffffffffffffffffffffff168373ffffffffffffffffffffffffffffffffffffffff1603610801576040517f08c379a00000000000000000000000000000000000000000000000000000000081526004016107f89061154e565b60405180910390fd5b600073ffffffffffffffffffffffffffffffffffffffff168273ffffffffffffffffffffffffffffffffffffffff1603610870576040517f08c379a0000000000000000000000000000000000000000000000000000000008152600401610867906115e0565b60405180910390fd5b80603460008573ffffffffffffffffffffffffffffffffffffffff1673ffffffffffffffffffffffffffffffffffffffff16815260200190815260200160002060008473ffffffffffffffffffffffffffffffffffffffff1673ffffffffffffffffffffffffffffffffffffffff168152602001908152602001600020819055508173ffffffffffffffffffffffffffffffffffffffff168373ffffffffffffffffffffffffffffffffffffffff167f8c5be1e5ebec7d5bd14f71427d1e84f3dd0314c0f7b2291e5b200ac8c7c3b9258360405161094e9190611183565b60405180910390a3505050565b60006109678484610703565b90507fffffffffffffffffffffffffffffffffffffffffffffffffffffffffffffffff81146109e157818110156109d3576040517f08c379a00000000000000000000000000000000000000000000000000000000081526004016109ca9061164c565b60405180910390fd5b6109e08484848403610792565b5b50505050565b600073ffffffffffffffffffffffffffffffffffffffff168373ffffffffffffffffffffffffffffffffffffffff1603610a56576040517f08c379a0000000000000000000000000000000000000000000000000000000008152600401610a4d906116de565b60405180910390fd5b600073ffffffffffffffffffffffffffffffffffffffff168273ffffffffffffffffffffffffffffffffffffffff1603610ac5576040517f08c379a0000000000000000000000000000000000000000000000000000000008152600401610abc90611770565b60405180910390fd5b610ad0838383610fa9565b6000603360008573ffffffffffffffffffffffffffffffffffffffff1673ffffffffffffffffffffffffffffffffffffffff16815260200190815260200160002054905081811015610b57576040517f08c379a0000000000000000000000000000000000000000000000000000000008152600401610b4e90611802565b60405180910390fd5b818103603360008673ffffffffffffffffffffffffffffffffffffffff1673ffffffffffffffffffffffffffffffffffffffff1681526020019081526020016000208190555081603360008573ffffffffffffffffffffffffffffffffffffffff1673ffffffffffffffffffffffffffffffffffffffff168152602001908152602001600020600082825401925050819055508273ffffffffffffffffffffffffffffffffffffffff168473ffffffffffffffffffffffffffffffffffffffff167fddf252ad1be2c89b69c2b068fc378daa952ba7f163c4a11628f55a4df523b3ef84604051610c479190611183565b60405180910390a3610c5a848484610fae565b50505050565b600073ffffffffffffffffffffffffffffffffffffffff168273ffffffffffffffffffffffffffffffffffffffff1603610ccf576040517f08c379a0000000000000000000000000000000000000000000000000000000008152600401610cc69061186e565b60405180910390fd5b610cdb60008383610fa9565b8060356000828254610ced9190611324565b9250508190555080603360008473ffffffffffffffffffffffffffffffffffffffff1673ffffffffffffffffffffffffffffffffffffffff168152602001908152602001600020600082825401925050819055508173ffffffffffffffffffffffffffffffffffffffff16600073ffffffffffffffffffffffffffffffffffffffff167fddf252ad1be2c89b69c2b068fc378daa952ba7f163c4a11628f55a4df523b3ef83604051610d9f9190611183565b60405180910390a3610db360008383610fae565b5050565b6000808273ffffffffffffffffffffffffffffffffffffffff163b119050919050565b600073ffffffffffffffffffffffffffffffffffffffff168273ffffffffffffffffffffffffffffffffffffffff1603610e49576040517f08c379a0000000000000000000000000000000000000000000000000000000008152600401610e4090611900565b60405180910390fd5b610e5582600083610fa9565b6000603360008473ffffffffffffffffffffffffffffffffffffffff1673ffffffffffffffffffffffffffffffffffffffff16815260200190815260200160002054905081811015610edc576040517f08c379a0000000000000000000000000000000000000000000000000000000008152600401610ed390611992565b60405180910390fd5b818103603360008573ffffffffffffffffffffffffffffffffffffffff1673ffffffffffffffffffffffffffffffffffffffff1681526020019081526020016000208190555081603560008282540392505081905550600073ffffffffffffffffffffffffffffffffffffffff168373ffffffffffffffffffffffffffffffffffffffff167fddf252ad1be2c89b69c2b068fc378daa952ba7f163c4a11628f55a4df523b3ef84604051610f909190611183565b60405180910390a3610fa483600084610fae565b505050565b505050565b505050565b600081519050919050565b600082825260208201905092915050565b60005b83811015610fed578082015181840152602081019050610fd2565b60008484015250505050565b6000601f19601f8301169050919050565b600061101582610fb3565b61101f8185610fbe565b935061102f818560208601610fcf565b61103881610ff9565b840191505092915050565b6000602082019050818103600083015261105d818461100a565b905092915050565b600080fd5b600073ffffffffffffffffffffffffffffffffffffffff82169050919050565b60006110958261106a565b9050919050565b6110a58161108a565b81146110b057600080fd5b50565b6000813590506110c28161109c565b92915050565b6000819050919050565b6110db816110c8565b81146110e657600080fd5b50565b6000813590506110f8816110d2565b92915050565b6000806040838503121561111557611114611065565b5b6000611123858286016110b3565b9250506020611134858286016110e9565b9150509250929050565b60008115159050919050565b6111538161113e565b82525050565b600060208201905061116e600083018461114a565b92915050565b61117d816110c8565b82525050565b60006020820190506111986000830184611174565b92915050565b6000806000606084860312156111b7576111b6611065565b5b60006111c5868287016110b3565b93505060206111d6868287016110b3565b92505060406111e7868287016110e9565b9150509250925092565b600060ff82169050919050565b611207816111f1565b82525050565b600060208201905061122260008301846111fe565b92915050565b60006020828403121561123e5761123d611065565b5b600061124c848285016110b3565b91505092915050565b6000806040838503121561126c5761126b611065565b5b600061127a858286016110b3565b925050602061128b858286016110b3565b9150509250929050565b7f4e487b7100000000000000000000000000000000000000000000000000000000600052602260045260246000fd5b600060028204905060018216806112dc57607f821691505b6020821081036112ef576112ee611295565b5b50919050565b7f4e487b7100000000000000000000000000000000000000000000000000000000600052601160045260246000fd5b600061132f826110c8565b915061133a836110c8565b9250828201905080821115611352576113516112f5565b5b92915050565b7f496e697469616c697a61626c653a20636f6e747261637420697320616c72656160008201527f647920696e697469616c697a6564000000000000000000000000000000000000602082015250565b60006113b4602e83610fbe565b91506113bf82611358565b604082019050919050565b600060208201905081810360008301526113e3816113a7565b9050919050565b6000819050919050565b6000819050919050565b600061141961141461140f846113ea565b6113f4565b6111f1565b9050919050565b611429816113fe565b82525050565b60006020820190506114446000830184611420565b92915050565b7f45524332303a2064656372656173656420616c6c6f77616e63652062656c6f7760008201527f207a65726f000000000000000000000000000000000000000000000000000000602082015250565b60006114a6602583610fbe565b91506114b18261144a565b604082019050919050565b600060208201905081810360008301526114d581611499565b9050919050565b7f45524332303a20617070726f76652066726f6d20746865207a65726f2061646460008201527f7265737300000000000000000000000000000000000000000000000000000000602082015250565b6000611538602483610fbe565b9150611543826114dc565b604082019050919050565b600060208201905081810360008301526115678161152b565b9050919050565b7f45524332303a20617070726f766520746f20746865207a65726f20616464726560008201527f7373000000000000000000000000000000000000000000000000000000000000602082015250565b60006115ca602283610fbe565b91506115d58261156e565b604082019050919050565b600060208201905081810360008301526115f9816115bd565b9050919050565b7f45524332303a20696e73756666696369656e7420616c6c6f77616e6365000000600082015250565b6000611636601d83610fbe565b915061164182611600565b602082019050919050565b6000602082019050818103600083015261166581611629565b9050919050565b7f45524332303a207472616e736665722066726f6d20746865207a65726f20616460008201527f6472657373000000000000000000000000000000000000000000000000000000602082015250565b60006116c8602583610fbe565b91506116d38261166c565b604082019050919050565b600060208201905081810360008301526116f7816116bb565b9050919050565b7f45524332303a207472616e7366657220746f20746865207a65726f206164647260008201527f6573730000000000000000000000000000000000000000000000000000000000602082015250565b600061175a602383610fbe565b9150611765826116fe565b604082019050919050565b600060208201905081810360008301526117898161174d565b9050919050565b7f45524332303a207472616e7366657220616d6f756e742065786365656473206260008201527f616c616e63650000000000000000000000000000000000000000000000000000602082015250565b60006117ec602683610fbe565b91506117f782611790565b604082019050919050565b6000602082019050818103600083015261181b816117df565b9050919050565b7f45524332303a206d696e7420746f20746865207a65726f206164647265737300600082015250565b6000611858601f83610fbe565b915061186382611822565b602082019050919050565b600060208201905081810360008301526118878161184b565b9050919050565b7f45524332303a206275726e2066726f6d20746865207a65726f2061646472657360008201527f7300000000000000000000000000000000000000000000000000000000000000602082015250565b60006118ea602183610fbe565b91506118f58261188e565b604082019050919050565b60006020820190508181036000830152611919816118dd565b9050919050565b7f45524332303a206275726e20616d6f756e7420657863656564732062616c616e60008201527f6365000000000000000000000000000000000000000000000000000000000000602082015250565b600061197c602283610fbe565b915061198782611920565b604082019050919050565b600060208201905081810360008301526119ab8161196f565b905091905056fea26469706673582212204fc587f1d6f1f9b11e803c75a1dd6343a83382d64a1f22e58ed2db3ce35aeee364736f6c63430008110033",
  "linkReferences": {},
  "deployedLinkReferences": {}
}