{
  "address": "0x409D8139Bf35528235EE020A80760969a66724Dd",
  "abi": [
    {
      "inputs": [],
      "name": "DevelopmentGroundIsLocked",
      "type": "error"
    },
    {
      "inputs": [],
      "name": "NeandersmolsIsLocked",
      "type": "error"
    },
    {
      "inputs": [],
      "name": "NewOwnerIsZeroAddress",
      "type": "error"
    },
    {
      "inputs": [],
      "name": "NoHandoverRequest",
      "type": "error"
    },
    {
      "inputs": [],
      "name": "NotYourToken",
      "type": "error"
    },
    {
      "inputs": [],
      "name": "TokenIsStaked",
      "type": "error"
    },
    {
      "inputs": [],
      "name": "Unauthorized",
      "type": "error"
    },
    {
      "inputs": [],
      "name": "ZeroBalanceError",
      "type": "error"
    },
    {
      "anonymous": false,
      "inputs": [
        {
          "indexed": true,
          "internalType": "address",
          "name": "owner",
          "type": "address"
        },
        {
          "indexed": true,
          "internalType": "uint256",
          "name": "tokenId",
          "type": "uint256"
        },
        {
          "indexed": true,
          "internalType": "uint256",
          "name": "amount",
          "type": "uint256"
        }
      ],
      "name": "ClaimCaveReward",
      "type": "event"
    },
    {
      "anonymous": false,
      "inputs": [
        {
          "indexed": true,
          "internalType": "address",
          "name": "owner",
          "type": "address"
        },
        {
          "indexed": true,
          "internalType": "uint256",
          "name": "tokenId",
          "type": "uint256"
        },
        {
          "indexed": true,
          "internalType": "uint256",
          "name": "stakeTime",
          "type": "uint256"
        }
      ],
      "name": "EnterCaves",
      "type": "event"
    },
    {
      "anonymous": false,
      "inputs": [
        {
          "indexed": false,
          "internalType": "uint8",
          "name": "version",
          "type": "uint8"
        }
      ],
      "name": "Initialized",
      "type": "event"
    },
    {
      "anonymous": false,
      "inputs": [
        {
          "indexed": true,
          "internalType": "address",
          "name": "owner",
          "type": "address"
        },
        {
          "indexed": true,
          "internalType": "uint256",
          "name": "tokenId",
          "type": "uint256"
        }
      ],
      "name": "LeaveCave",
      "type": "event"
    },
    {
      "anonymous": false,
      "inputs": [
        {
          "indexed": true,
          "internalType": "address",
          "name": "pendingOwner",
          "type": "address"
        }
      ],
      "name": "OwnershipHandoverCanceled",
      "type": "event"
    },
    {
      "anonymous": false,
      "inputs": [
        {
          "indexed": true,
          "internalType": "address",
          "name": "pendingOwner",
          "type": "address"
        }
      ],
      "name": "OwnershipHandoverRequested",
      "type": "event"
    },
    {
      "anonymous": false,
      "inputs": [
        {
          "indexed": true,
          "internalType": "address",
          "name": "oldOwner",
          "type": "address"
        },
        {
          "indexed": true,
          "internalType": "address",
          "name": "newOwner",
          "type": "address"
        }
      ],
      "name": "OwnershipTransferred",
      "type": "event"
    },
    {
      "inputs": [],
      "name": "bones",
      "outputs": [
        {
          "internalType": "contract IBones",
          "name": "",
          "type": "address"
        }
      ],
      "stateMutability": "view",
      "type": "function"
    },
    {
      "inputs": [],
      "name": "cancelOwnershipHandover",
      "outputs": [],
      "stateMutability": "payable",
      "type": "function"
    },
    {
      "inputs": [
        {
          "internalType": "uint256[]",
          "name": "_tokenId",
          "type": "uint256[]"
        }
      ],
      "name": "claimCaveReward",
      "outputs": [],
      "stateMutability": "nonpayable",
      "type": "function"
    },
    {
      "inputs": [
        {
          "internalType": "address",
          "name": "pendingOwner",
          "type": "address"
        }
      ],
      "name": "completeOwnershipHandover",
      "outputs": [],
      "stateMutability": "payable",
      "type": "function"
    },
    {
      "inputs": [
        {
          "internalType": "uint256[]",
          "name": "_tokenId",
          "type": "uint256[]"
        }
      ],
      "name": "enterCaves",
      "outputs": [],
      "stateMutability": "nonpayable",
      "type": "function"
    },
    {
      "inputs": [
        {
          "internalType": "address",
          "name": "_user",
          "type": "address"
        }
      ],
      "name": "getCavesFeInfo",
      "outputs": [
        {
          "components": [
            {
              "internalType": "uint256",
              "name": "reward",
              "type": "uint256"
            },
            {
              "internalType": "uint128",
              "name": "stakedSmols",
              "type": "uint128"
            },
            {
              "internalType": "uint128",
              "name": "timeLeft",
              "type": "uint128"
            }
          ],
          "internalType": "struct CavesFeInfo[]",
          "name": "",
          "type": "tuple[]"
        }
      ],
      "stateMutability": "view",
      "type": "function"
    },
    {
      "inputs": [
        {
          "internalType": "uint256",
          "name": "_tokenId",
          "type": "uint256"
        }
      ],
      "name": "getCavesInfo",
      "outputs": [
        {
          "components": [
            {
              "internalType": "address",
              "name": "owner",
              "type": "address"
            },
            {
              "internalType": "uint48",
              "name": "stakingTime",
              "type": "uint48"
            },
            {
              "internalType": "uint48",
              "name": "lastRewardTimestamp",
              "type": "uint48"
            }
          ],
          "internalType": "struct Cave",
          "name": "",
          "type": "tuple"
        }
      ],
      "stateMutability": "view",
      "type": "function"
    },
    {
      "inputs": [
        {
          "internalType": "uint256",
          "name": "_tokenId",
          "type": "uint256"
        }
      ],
      "name": "getCavesReward",
      "outputs": [
        {
          "internalType": "uint256",
          "name": "",
          "type": "uint256"
        }
      ],
      "stateMutability": "view",
      "type": "function"
    },
    {
      "inputs": [
        {
          "internalType": "address",
          "name": "_owner",
          "type": "address"
        }
      ],
      "name": "getStakedTokens",
      "outputs": [
        {
          "internalType": "uint256[]",
          "name": "",
          "type": "uint256[]"
        }
      ],
      "stateMutability": "view",
      "type": "function"
    },
    {
      "inputs": [
        {
          "internalType": "address",
          "name": "_pits",
          "type": "address"
        },
        {
          "internalType": "address",
          "name": "_bones",
          "type": "address"
        },
        {
          "internalType": "address",
          "name": "_neandersmol",
          "type": "address"
        }
      ],
      "name": "initialize",
      "outputs": [],
      "stateMutability": "nonpayable",
      "type": "function"
    },
    {
      "inputs": [
        {
          "internalType": "uint256[]",
          "name": "_tokenId",
          "type": "uint256[]"
        }
      ],
      "name": "leaveCave",
      "outputs": [],
      "stateMutability": "nonpayable",
      "type": "function"
    },
    {
      "inputs": [],
      "name": "neandersmol",
      "outputs": [
        {
          "internalType": "contract INeandersmol",
          "name": "",
          "type": "address"
        }
      ],
      "stateMutability": "view",
      "type": "function"
    },
    {
      "inputs": [],
      "name": "owner",
      "outputs": [
        {
          "internalType": "address",
          "name": "result",
          "type": "address"
        }
      ],
      "stateMutability": "view",
      "type": "function"
    },
    {
      "inputs": [
        {
          "internalType": "address",
          "name": "pendingOwner",
          "type": "address"
        }
      ],
      "name": "ownershipHandoverExpiresAt",
      "outputs": [
        {
          "internalType": "uint256",
          "name": "result",
          "type": "uint256"
        }
      ],
      "stateMutability": "view",
      "type": "function"
    },
    {
      "inputs": [],
      "name": "ownershipHandoverValidFor",
      "outputs": [
        {
          "internalType": "uint64",
          "name": "",
          "type": "uint64"
        }
      ],
      "stateMutability": "view",
      "type": "function"
    },
    {
      "inputs": [],
      "name": "pits",
      "outputs": [
        {
          "internalType": "contract IPits",
          "name": "",
          "type": "address"
        }
      ],
      "stateMutability": "view",
      "type": "function"
    },
    {
      "inputs": [],
      "name": "renounceOwnership",
      "outputs": [],
      "stateMutability": "payable",
      "type": "function"
    },
    {
      "inputs": [],
      "name": "requestOwnershipHandover",
      "outputs": [],
      "stateMutability": "payable",
      "type": "function"
    },
    {
      "inputs": [
        {
          "internalType": "address",
          "name": "_pits",
          "type": "address"
        },
        {
          "internalType": "address",
          "name": "_bones",
          "type": "address"
        },
        {
          "internalType": "address",
          "name": "_neandersmol",
          "type": "address"
        }
      ],
      "name": "setAddress",
      "outputs": [],
      "stateMutability": "nonpayable",
      "type": "function"
    },
    {
      "inputs": [
        {
          "internalType": "address",
          "name": "newOwner",
          "type": "address"
        }
      ],
      "name": "transferOwnership",
      "outputs": [],
      "stateMutability": "payable",
      "type": "function"
    }
  ],
  "transactionHash": "0xbf218114035256b7110041294815a10ff593162493f69778de4610fbac5b6605",
  "args": [],
  "numDeployments": 1,
  "solcInputHash": "426aaee5d4f913f1abaf7e844a75cacb",
  "bytecode": "0x608060405234801561001057600080fd5b506122ee806100206000396000f3fe60806040526004361061011f5760003560e01c80638da5cb5b116100a0578063d88ad88711610064578063d88ad88714610372578063eee0eaa01461039d578063f04e283e146103da578063f2fde38b146103f6578063fee81cf4146104125761011f565b80638da5cb5b1461028b5780638de38dda146102b6578063b00bec65146102f3578063c0c53b8b1461031e578063d7533f02146103475761011f565b80635ac384be116100e75780635ac384be146101b35780635e6b06fb146101dc57806363c28db114610219578063715018a6146102565780637fd4bfd5146102605761011f565b806325692962146101245780633336ddde1461012e5780633be08dab1461015757806342f390d41461018057806354d1f13d146101a9575b600080fd5b61012c61044f565b005b34801561013a57600080fd5b50610155600480360381019061015091906118d9565b6104a3565b005b34801561016357600080fd5b5061017e60048036038101906101799190611984565b610819565b005b34801561018c57600080fd5b506101a760048036038101906101a291906118d9565b6108e9565b005b6101b1610d0e565b005b3480156101bf57600080fd5b506101da60048036038101906101d591906118d9565b610d4a565b005b3480156101e857600080fd5b5061020360048036038101906101fe91906119d7565b610d90565b6040516102109190611b39565b60405180910390f35b34801561022557600080fd5b50610240600480360381019061023b91906119d7565b610f51565b60405161024d9190611c0a565b60405180910390f35b61025e610fe8565b005b34801561026c57600080fd5b50610275610ffc565b6040516102829190611c8b565b60405180910390f35b34801561029757600080fd5b506102a0611022565b6040516102ad9190611cb5565b60405180910390f35b3480156102c257600080fd5b506102dd60048036038101906102d89190611cfc565b611030565b6040516102ea9190611d9b565b60405180910390f35b3480156102ff57600080fd5b5061030861110b565b6040516103159190611dd7565b60405180910390f35b34801561032a57600080fd5b5061034560048036038101906103409190611984565b611131565b005b34801561035357600080fd5b5061035c61127e565b6040516103699190611e15565b60405180910390f35b34801561037e57600080fd5b50610387611289565b6040516103949190611e51565b60405180910390f35b3480156103a957600080fd5b506103c460048036038101906103bf9190611cfc565b6112af565b6040516103d19190611e7b565b60405180910390f35b6103f460048036038101906103ef91906119d7565b6113e0565b005b610410600480360381019061040b91906119d7565b611421565b005b34801561041e57600080fd5b50610439600480360381019061043491906119d7565b61144b565b6040516104469190611e7b565b60405180910390f35b600061045961127e565b67ffffffffffffffff164201905063389a75e1600c5233600052806020600c2055337fdbf36a107da19e49527a7176a1babf963b4b0ff8cde35ee35d6cd8f1f9ac7e1d600080a250565b60005b828290508110156108145760008383838181106104c6576104c5611e96565b5b9050602002013590506000600360008381526020019081526020016000206040518060600160405290816000820160009054906101000a900473ffffffffffffffffffffffffffffffffffffffff1673ffffffffffffffffffffffffffffffffffffffff1673ffffffffffffffffffffffffffffffffffffffff1681526020016000820160149054906101000a900465ffffffffffff1665ffffffffffff1665ffffffffffff16815260200160008201601a9054906101000a900465ffffffffffff1665ffffffffffff1665ffffffffffff168152505090503373ffffffffffffffffffffffffffffffffffffffff16816000015173ffffffffffffffffffffffffffffffffffffffff1614610608576040517f091fe61c00000000000000000000000000000000000000000000000000000000815260040160405180910390fd5b4281602001516283d60061061c9190611ef4565b65ffffffffffff16111561065c576040517ff5dcc1e300000000000000000000000000000000000000000000000000000000815260040160405180910390fd5b6000610667836112af565b146106765761067582611466565b5b6106be600460003373ffffffffffffffffffffffffffffffffffffffff1673ffffffffffffffffffffffffffffffffffffffff168152602001908152602001600020836115be565b60036000838152602001908152602001600020600080820160006101000a81549073ffffffffffffffffffffffffffffffffffffffff02191690556000820160146101000a81549065ffffffffffff021916905560008201601a6101000a81549065ffffffffffff02191690555050600260009054906101000a900473ffffffffffffffffffffffffffffffffffffffff1673ffffffffffffffffffffffffffffffffffffffff166337bf06a68360006040518363ffffffff1660e01b815260040161078b929190611f49565b600060405180830381600087803b1580156107a557600080fd5b505af11580156107b9573d6000803e3d6000fd5b50505050813373ffffffffffffffffffffffffffffffffffffffff167fbbfb105669b1ae5c41fb02f67b40def517f625498c28079e8afc15538710ef5d60405160405180910390a350508061080d90611f72565b90506104a6565b505050565b61082161167c565b81600160006101000a81548173ffffffffffffffffffffffffffffffffffffffff021916908373ffffffffffffffffffffffffffffffffffffffff16021790555082600060026101000a81548173ffffffffffffffffffffffffffffffffffffffff021916908373ffffffffffffffffffffffffffffffffffffffff16021790555080600260006101000a81548173ffffffffffffffffffffffffffffffffffffffff021916908373ffffffffffffffffffffffffffffffffffffffff160217905550505050565b610914600060029054906101000a900473ffffffffffffffffffffffffffffffffffffffff16611699565b60005b82829050811015610d0957600083838381811061093757610936611e96565b5b90506020020135905060006003600083815260200190815260200160002090503373ffffffffffffffffffffffffffffffffffffffff16600260009054906101000a900473ffffffffffffffffffffffffffffffffffffffff1673ffffffffffffffffffffffffffffffffffffffff16636352211e846040518263ffffffff1660e01b81526004016109c99190611e7b565b602060405180830381865afa1580156109e6573d6000803e3d6000fd5b505050506040513d601f19601f82011682018060405250810190610a0a9190611fcf565b73ffffffffffffffffffffffffffffffffffffffff1614610a57576040517f091fe61c00000000000000000000000000000000000000000000000000000000815260040160405180910390fd5b600260009054906101000a900473ffffffffffffffffffffffffffffffffffffffff1673ffffffffffffffffffffffffffffffffffffffff16635e1bef32836040518263ffffffff1660e01b8152600401610ab29190611e7b565b602060405180830381865afa158015610acf573d6000803e3d6000fd5b505050506040513d601f19601f82011682018060405250810190610af39190612028565b15610b2a576040517f3899ae3600000000000000000000000000000000000000000000000000000000815260040160405180910390fd5b600260009054906101000a900473ffffffffffffffffffffffffffffffffffffffff1673ffffffffffffffffffffffffffffffffffffffff166337bf06a68360016040518363ffffffff1660e01b8152600401610b88929190611f49565b600060405180830381600087803b158015610ba257600080fd5b505af1158015610bb6573d6000803e3d6000fd5b50505050338160000160006101000a81548173ffffffffffffffffffffffffffffffffffffffff021916908373ffffffffffffffffffffffffffffffffffffffff160217905550428160000160146101000a81548165ffffffffffff021916908365ffffffffffff1602179055504281600001601a6101000a81548165ffffffffffff021916908365ffffffffffff160217905550600460003373ffffffffffffffffffffffffffffffffffffffff1673ffffffffffffffffffffffffffffffffffffffff16815260200190815260200160002082908060018154018082558091505060019003906000526020600020016000909190919091505542823373ffffffffffffffffffffffffffffffffffffffff167fc691aa41315aadaa128475ed80fa49569e5bd8ce86b076d71695700d4972014760405160405180910390a4505080610d0290611f72565b9050610917565b505050565b63389a75e1600c523360005260006020600c2055337ffa7b8eab7da67f412cc9575ed43464468f9bfbae89d1675917346ca6d8fe3c92600080a2565b60005b82829050811015610d8b57610d7a838383818110610d6e57610d6d611e96565b5b90506020020135611466565b80610d8490611f72565b9050610d4d565b505050565b60606000610d9d83610f51565b90506000815167ffffffffffffffff811115610dbc57610dbb612055565b5b604051908082528060200260200182016040528015610df557816020015b610de26117de565b815260200190600190039081610dda5790505b50905060005b8251811015610f4657600042610e2a858481518110610e1d57610e1c611e96565b5b6020026020010151611030565b602001516283d600610e3c9190611ef4565b65ffffffffffff1611610e50576000610e99565b610e73848381518110610e6657610e65611e96565b5b6020026020010151611030565b6020015165ffffffffffff1642610e8a9190612084565b6283d600610e989190612084565b5b90506040518060600160405280610ec9868581518110610ebc57610ebb611e96565b5b60200260200101516112af565b8152602001858481518110610ee157610ee0611e96565b5b60200260200101516fffffffffffffffffffffffffffffffff168152602001826fffffffffffffffffffffffffffffffff16815250838381518110610f2957610f28611e96565b5b60200260200101819052505080610f3f90611f72565b9050610dfb565b508092505050919050565b6060600460008373ffffffffffffffffffffffffffffffffffffffff1673ffffffffffffffffffffffffffffffffffffffff168152602001908152602001600020805480602002602001604051908101604052809291908181526020018280548015610fdc57602002820191906000526020600020905b815481526020019060010190808311610fc8575b50505050509050919050565b610ff061167c565b610ffa6000611741565b565b600060029054906101000a900473ffffffffffffffffffffffffffffffffffffffff1681565b6000638b78c6d81954905090565b611038611823565b600360008381526020019081526020016000206040518060600160405290816000820160009054906101000a900473ffffffffffffffffffffffffffffffffffffffff1673ffffffffffffffffffffffffffffffffffffffff1673ffffffffffffffffffffffffffffffffffffffff1681526020016000820160149054906101000a900465ffffffffffff1665ffffffffffff1665ffffffffffff16815260200160008201601a9054906101000a900465ffffffffffff1665ffffffffffff1665ffffffffffff16815250509050919050565b600260009054906101000a900473ffffffffffffffffffffffffffffffffffffffff1681565b60008060019054906101000a900460ff161590508080156111625750600160008054906101000a900460ff1660ff16105b8061118f57506111713061177f565b15801561118e5750600160008054906101000a900460ff1660ff16145b5b6111ce576040517f08c379a00000000000000000000000000000000000000000000000000000000081526004016111c59061213b565b60405180910390fd5b60016000806101000a81548160ff021916908360ff160217905550801561120b576001600060016101000a81548160ff0219169083151502179055505b611214336117a2565b61121f848484610819565b80156112785760008060016101000a81548160ff0219169083151502179055507f7f26b83ff96e1f2b6a682f133852f6798a09c465da95921460cefb3847402498600160405161126f91906121a3565b60405180910390a15b50505050565b60006202a300905090565b600160009054906101000a900473ffffffffffffffffffffffffffffffffffffffff1681565b600080600360008481526020019081526020016000206040518060600160405290816000820160009054906101000a900473ffffffffffffffffffffffffffffffffffffffff1673ffffffffffffffffffffffffffffffffffffffff1673ffffffffffffffffffffffffffffffffffffffff1681526020016000820160149054906101000a900465ffffffffffff1665ffffffffffff1665ffffffffffff16815260200160008201601a9054906101000a900465ffffffffffff1665ffffffffffff1665ffffffffffff168152505090506000816040015165ffffffffffff160361139e5760009150506113db565b678ac7230489e8000062015180826040015165ffffffffffff16426113c39190612084565b6113cd91906121ed565b6113d7919061221e565b9150505b919050565b6113e861167c565b63389a75e1600c52806000526020600c20805442111561141057636f5e88186000526004601cfd5b600081555061141e81611741565b50565b61142961167c565b8060601b61143f57637448fbae6000526004601cfd5b61144881611741565b50565b600063389a75e1600c52816000526020600c20549050919050565b6000611471826112af565b9050600081036114ad576040517f9b4bb81b00000000000000000000000000000000000000000000000000000000815260040160405180910390fd5b4260036000848152602001908152602001600020600001601a6101000a81548165ffffffffffff021916908365ffffffffffff160217905550600160009054906101000a900473ffffffffffffffffffffffffffffffffffffffff1673ffffffffffffffffffffffffffffffffffffffff166340c10f1933836040518363ffffffff1660e01b8152600401611543929190612260565b600060405180830381600087803b15801561155d57600080fd5b505af1158015611571573d6000803e3d6000fd5b5050505080823373ffffffffffffffffffffffffffffffffffffffff167f97c662bac04c9fd14924d37fb5267cb2203e308f338f2c92418adecab0681b2a60405160405180910390a45050565b60005b828054905081101561167757818382815481106115e1576115e0611e96565b5b90600052602060002001540361166c5782600184805490506116039190612084565b8154811061161457611613611e96565b5b906000526020600020015483828154811061163257611631611e96565b5b90600052602060002001819055508280548061165157611650612289565b5b60019003818190600052602060002001600090559055611677565b8060010190506115c1565b505050565b638b78c6d819543314611697576382b429006000526004601cfd5b565b8073ffffffffffffffffffffffffffffffffffffffff1663ae4b37e46040518163ffffffff1660e01b8152600401602060405180830381865afa1580156116e4573d6000803e3d6000fd5b505050506040513d601f19601f820116820180604052508101906117089190612028565b61173e576040517f288de97200000000000000000000000000000000000000000000000000000000815260040160405180910390fd5b50565b638b78c6d8198160601b60601c91508181547f8be0079c531659141344cd1fd0a4f28419497f9722a3daafe3b4186f6b6457e0600080a38181555050565b6000808273ffffffffffffffffffffffffffffffffffffffff163b119050919050565b8060601b60601c905080638b78c6d819558060007f8be0079c531659141344cd1fd0a4f28419497f9722a3daafe3b4186f6b6457e0600080a350565b60405180606001604052806000815260200160006fffffffffffffffffffffffffffffffff16815260200160006fffffffffffffffffffffffffffffffff1681525090565b6040518060600160405280600073ffffffffffffffffffffffffffffffffffffffff168152602001600065ffffffffffff168152602001600065ffffffffffff1681525090565b600080fd5b600080fd5b600080fd5b600080fd5b600080fd5b60008083601f84011261189957611898611874565b5b8235905067ffffffffffffffff8111156118b6576118b5611879565b5b6020830191508360208202830111156118d2576118d161187e565b5b9250929050565b600080602083850312156118f0576118ef61186a565b5b600083013567ffffffffffffffff81111561190e5761190d61186f565b5b61191a85828601611883565b92509250509250929050565b600073ffffffffffffffffffffffffffffffffffffffff82169050919050565b600061195182611926565b9050919050565b61196181611946565b811461196c57600080fd5b50565b60008135905061197e81611958565b92915050565b60008060006060848603121561199d5761199c61186a565b5b60006119ab8682870161196f565b93505060206119bc8682870161196f565b92505060406119cd8682870161196f565b9150509250925092565b6000602082840312156119ed576119ec61186a565b5b60006119fb8482850161196f565b91505092915050565b600081519050919050565b600082825260208201905092915050565b6000819050602082019050919050565b6000819050919050565b611a4381611a30565b82525050565b60006fffffffffffffffffffffffffffffffff82169050919050565b611a6e81611a49565b82525050565b606082016000820151611a8a6000850182611a3a565b506020820151611a9d6020850182611a65565b506040820151611ab06040850182611a65565b50505050565b6000611ac28383611a74565b60608301905092915050565b6000602082019050919050565b6000611ae682611a04565b611af08185611a0f565b9350611afb83611a20565b8060005b83811015611b2c578151611b138882611ab6565b9750611b1e83611ace565b925050600181019050611aff565b5085935050505092915050565b60006020820190508181036000830152611b538184611adb565b905092915050565b600081519050919050565b600082825260208201905092915050565b6000819050602082019050919050565b6000611b938383611a3a565b60208301905092915050565b6000602082019050919050565b6000611bb782611b5b565b611bc18185611b66565b9350611bcc83611b77565b8060005b83811015611bfd578151611be48882611b87565b9750611bef83611b9f565b925050600181019050611bd0565b5085935050505092915050565b60006020820190508181036000830152611c248184611bac565b905092915050565b6000819050919050565b6000611c51611c4c611c4784611926565b611c2c565b611926565b9050919050565b6000611c6382611c36565b9050919050565b6000611c7582611c58565b9050919050565b611c8581611c6a565b82525050565b6000602082019050611ca06000830184611c7c565b92915050565b611caf81611946565b82525050565b6000602082019050611cca6000830184611ca6565b92915050565b611cd981611a30565b8114611ce457600080fd5b50565b600081359050611cf681611cd0565b92915050565b600060208284031215611d1257611d1161186a565b5b6000611d2084828501611ce7565b91505092915050565b611d3281611946565b82525050565b600065ffffffffffff82169050919050565b611d5381611d38565b82525050565b606082016000820151611d6f6000850182611d29565b506020820151611d826020850182611d4a565b506040820151611d956040850182611d4a565b50505050565b6000606082019050611db06000830184611d59565b92915050565b6000611dc182611c58565b9050919050565b611dd181611db6565b82525050565b6000602082019050611dec6000830184611dc8565b92915050565b600067ffffffffffffffff82169050919050565b611e0f81611df2565b82525050565b6000602082019050611e2a6000830184611e06565b92915050565b6000611e3b82611c58565b9050919050565b611e4b81611e30565b82525050565b6000602082019050611e666000830184611e42565b92915050565b611e7581611a30565b82525050565b6000602082019050611e906000830184611e6c565b92915050565b7f4e487b7100000000000000000000000000000000000000000000000000000000600052603260045260246000fd5b7f4e487b7100000000000000000000000000000000000000000000000000000000600052601160045260246000fd5b6000611eff82611d38565b9150611f0a83611d38565b9250828201905065ffffffffffff811115611f2857611f27611ec5565b5b92915050565b60008115159050919050565b611f4381611f2e565b82525050565b6000604082019050611f5e6000830185611e6c565b611f6b6020830184611f3a565b9392505050565b6000611f7d82611a30565b91507fffffffffffffffffffffffffffffffffffffffffffffffffffffffffffffffff8203611faf57611fae611ec5565b5b600182019050919050565b600081519050611fc981611958565b92915050565b600060208284031215611fe557611fe461186a565b5b6000611ff384828501611fba565b91505092915050565b61200581611f2e565b811461201057600080fd5b50565b60008151905061202281611ffc565b92915050565b60006020828403121561203e5761203d61186a565b5b600061204c84828501612013565b91505092915050565b7f4e487b7100000000000000000000000000000000000000000000000000000000600052604160045260246000fd5b600061208f82611a30565b915061209a83611a30565b92508282039050818111156120b2576120b1611ec5565b5b92915050565b600082825260208201905092915050565b7f496e697469616c697a61626c653a20636f6e747261637420697320616c72656160008201527f647920696e697469616c697a6564000000000000000000000000000000000000602082015250565b6000612125602e836120b8565b9150612130826120c9565b604082019050919050565b6000602082019050818103600083015261215481612118565b9050919050565b6000819050919050565b600060ff82169050919050565b600061218d6121886121838461215b565b611c2c565b612165565b9050919050565b61219d81612172565b82525050565b60006020820190506121b86000830184612194565b92915050565b7f4e487b7100000000000000000000000000000000000000000000000000000000600052601260045260246000fd5b60006121f882611a30565b915061220383611a30565b925082612213576122126121be565b5b828204905092915050565b600061222982611a30565b915061223483611a30565b925082820261224281611a30565b9150828204841483151761225957612258611ec5565b5b5092915050565b60006040820190506122756000830185611ca6565b6122826020830184611e6c565b9392505050565b7f4e487b7100000000000000000000000000000000000000000000000000000000600052603160045260246000fdfea264697066735822122039d5e00c43d479445c010abe71cfe10ab61a9228ef508bf4306878c5458b52b064736f6c63430008120033",
  "devdoc": {
    "errors": {
      "NewOwnerIsZeroAddress()": [
        {
          "details": "The `newOwner` cannot be the zero address."
        }
      ],
      "NoHandoverRequest()": [
        {
          "details": "The `pendingOwner` does not have a valid handover request."
        }
      ],
      "Unauthorized()": [
        {
          "details": "The caller is not authorized to call the function."
        }
      ]
    },
    "events": {
      "Initialized(uint8)": {
        "details": "Triggered when the contract has been initialized or reinitialized."
      },
      "OwnershipHandoverCanceled(address)": {
        "details": "The ownership handover to `pendingOwner` has been canceled."
      },
      "OwnershipHandoverRequested(address)": {
        "details": "An ownership handover to `pendingOwner` has been requested."
      },
      "OwnershipTransferred(address,address)": {
        "details": "The ownership is transferred from `oldOwner` to `newOwner`. This event is intentionally kept the same as OpenZeppelin's Ownable to be compatible with indexers and [EIP-173](https://eips.ethereum.org/EIPS/eip-173), despite it not being as lightweight as a single argument event."
      }
    },
    "kind": "dev",
    "methods": {
      "cancelOwnershipHandover()": {
        "details": "Cancels the two-step ownership handover to the caller, if any."
      },
      "claimCaveReward(uint256[])": {
        "details": "Function to allow the caller to claim rewards for multiple Cave tokens.",
        "params": {
          "_tokenId": "An array of Cave token IDs to claim rewards for."
        }
      },
      "completeOwnershipHandover(address)": {
        "details": "Allows the owner to complete the two-step ownership handover to `pendingOwner`. Reverts if there is no existing ownership handover requested by `pendingOwner`."
      },
      "enterCaves(uint256[])": {
        "details": "Allows the owner to enter the caves. This will transfer the token to the contract and set the owner, staking time, and last reward timestamp for the caves.",
        "params": {
          "_tokenId": "The token ID of the caves to enter."
        }
      },
      "getCavesFeInfo(address)": {
        "details": "Retrieves information about a user's staked tokens in the Caves farm.",
        "params": {
          "_user": "The address of the user whose information is being retrieved."
        },
        "returns": {
          "_0": "An array of CavesFeInfo structs containing information about the user's staked tokens, including the amount of rewards earned, the token ID, and the time left for the staking period."
        }
      },
      "getCavesInfo(uint256)": {
        "details": "This function returns a Caves struct containing information about a Cave token, specified by its ID, _tokenId.",
        "params": {
          "_tokenId": "ID of the Cave token to retrieve information for"
        },
        "returns": {
          "_0": "The Caves struct containing information about the specified Cave token."
        }
      },
      "getCavesReward(uint256)": {
        "details": "Function to retrieve the rewards for a Cave token.",
        "params": {
          "_tokenId": "The ID of the Cave token to retrieve rewards for."
        },
        "returns": {
          "_0": "The rewards for the specified Cave token."
        }
      },
      "getStakedTokens(address)": {
        "details": "Returns an array of token IDs that are currently staked by the given owner.",
        "params": {
          "_owner": "The address of the owner."
        },
        "returns": {
          "_0": "An array of staked token IDs."
        }
      },
      "leaveCave(uint256[])": {
        "details": "Function to allow the owner of a Cave token to leave the cave and claim any rewards.",
        "params": {
          "_tokenId": "An array of Cave token IDs to be claimed and left."
        }
      },
      "owner()": {
        "details": "Returns the owner of the contract."
      },
      "ownershipHandoverExpiresAt(address)": {
        "details": "Returns the expiry timestamp for the two-step ownership handover to `pendingOwner`."
      },
      "ownershipHandoverValidFor()": {
        "details": "Returns how long a two-step ownership handover is valid for in seconds."
      },
      "renounceOwnership()": {
        "details": "Allows the owner to renounce their ownership."
      },
      "requestOwnershipHandover()": {
        "details": "Request a two-step ownership handover to the caller. The request will be automatically expire in 48 hours (172800 seconds) by default."
      },
      "transferOwnership(address)": {
        "details": "Allows the owner to transfer the ownership to `newOwner`."
      }
    },
    "version": 1
  },
  "userdoc": {
    "kind": "user",
    "methods": {
      "getCavesInfo(uint256)": {
        "notice": "Retrieve information about a Cave token."
      }
    },
    "version": 1
  },
  "storageLayout": {
    "storage": [
      {
        "astId": 415,
        "contract": "contracts/Caves.sol:Caves",
        "label": "_initialized",
        "offset": 0,
        "slot": "0",
        "type": "t_uint8"
      },
      {
        "astId": 418,
        "contract": "contracts/Caves.sol:Caves",
        "label": "_initializing",
        "offset": 1,
        "slot": "0",
        "type": "t_bool"
      },
      {
        "astId": 6518,
        "contract": "contracts/Caves.sol:Caves",
        "label": "pits",
        "offset": 2,
        "slot": "0",
        "type": "t_contract(IPits)11035"
      },
      {
        "astId": 6521,
        "contract": "contracts/Caves.sol:Caves",
        "label": "bones",
        "offset": 0,
        "slot": "1",
        "type": "t_contract(IBones)10940"
      },
      {
        "astId": 6524,
        "contract": "contracts/Caves.sol:Caves",
        "label": "neandersmol",
        "offset": 0,
        "slot": "2",
        "type": "t_contract(INeandersmol)11005"
      },
      {
        "astId": 6529,
        "contract": "contracts/Caves.sol:Caves",
        "label": "caves",
        "offset": 0,
        "slot": "3",
        "type": "t_mapping(t_uint256,t_struct(Cave)11496_storage)"
      },
      {
        "astId": 6534,
        "contract": "contracts/Caves.sol:Caves",
        "label": "ownerToTokens",
        "offset": 0,
        "slot": "4",
        "type": "t_mapping(t_address,t_array(t_uint256)dyn_storage)"
      }
    ],
    "types": {
      "t_address": {
        "encoding": "inplace",
        "label": "address",
        "numberOfBytes": "20"
      },
      "t_array(t_uint256)dyn_storage": {
        "base": "t_uint256",
        "encoding": "dynamic_array",
        "label": "uint256[]",
        "numberOfBytes": "32"
      },
      "t_bool": {
        "encoding": "inplace",
        "label": "bool",
        "numberOfBytes": "1"
      },
      "t_contract(IBones)10940": {
        "encoding": "inplace",
        "label": "contract IBones",
        "numberOfBytes": "20"
      },
      "t_contract(INeandersmol)11005": {
        "encoding": "inplace",
        "label": "contract INeandersmol",
        "numberOfBytes": "20"
      },
      "t_contract(IPits)11035": {
        "encoding": "inplace",
        "label": "contract IPits",
        "numberOfBytes": "20"
      },
      "t_mapping(t_address,t_array(t_uint256)dyn_storage)": {
        "encoding": "mapping",
        "key": "t_address",
        "label": "mapping(address => uint256[])",
        "numberOfBytes": "32",
        "value": "t_array(t_uint256)dyn_storage"
      },
      "t_mapping(t_uint256,t_struct(Cave)11496_storage)": {
        "encoding": "mapping",
        "key": "t_uint256",
        "label": "mapping(uint256 => struct Cave)",
        "numberOfBytes": "32",
        "value": "t_struct(Cave)11496_storage"
      },
      "t_struct(Cave)11496_storage": {
        "encoding": "inplace",
        "label": "struct Cave",
        "members": [
          {
            "astId": 11491,
            "contract": "contracts/Caves.sol:Caves",
            "label": "owner",
            "offset": 0,
            "slot": "0",
            "type": "t_address"
          },
          {
            "astId": 11493,
            "contract": "contracts/Caves.sol:Caves",
            "label": "stakingTime",
            "offset": 20,
            "slot": "0",
            "type": "t_uint48"
          },
          {
            "astId": 11495,
            "contract": "contracts/Caves.sol:Caves",
            "label": "lastRewardTimestamp",
            "offset": 26,
            "slot": "0",
            "type": "t_uint48"
          }
        ],
        "numberOfBytes": "32"
      },
      "t_uint256": {
        "encoding": "inplace",
        "label": "uint256",
        "numberOfBytes": "32"
      },
      "t_uint48": {
        "encoding": "inplace",
        "label": "uint48",
        "numberOfBytes": "6"
      },
      "t_uint8": {
        "encoding": "inplace",
        "label": "uint8",
        "numberOfBytes": "1"
      }
    }
  }
}