{
  "address": "0x6F88deFFd71De6ec9d7611520959789eAD8195b7",
  "abi": [
    {
      "inputs": [],
      "name": "NewOwnerIsZeroAddress",
      "type": "error"
    },
    {
      "inputs": [],
      "name": "NoHandoverRequest",
      "type": "error"
    },
    {
      "inputs": [],
      "name": "NotAuthorized",
      "type": "error"
    },
    {
      "inputs": [],
      "name": "Unauthorized",
      "type": "error"
    },
    {
      "anonymous": false,
      "inputs": [
        {
          "indexed": true,
          "internalType": "address",
          "name": "account",
          "type": "address"
        },
        {
          "indexed": true,
          "internalType": "address",
          "name": "operator",
          "type": "address"
        },
        {
          "indexed": false,
          "internalType": "bool",
          "name": "approved",
          "type": "bool"
        }
      ],
      "name": "ApprovalForAll",
      "type": "event"
    },
    {
      "anonymous": false,
      "inputs": [
        {
          "indexed": false,
          "internalType": "uint8",
          "name": "version",
          "type": "uint8"
        }
      ],
      "name": "Initialized",
      "type": "event"
    },
    {
      "anonymous": false,
      "inputs": [
        {
          "indexed": true,
          "internalType": "address",
          "name": "pendingOwner",
          "type": "address"
        }
      ],
      "name": "OwnershipHandoverCanceled",
      "type": "event"
    },
    {
      "anonymous": false,
      "inputs": [
        {
          "indexed": true,
          "internalType": "address",
          "name": "pendingOwner",
          "type": "address"
        }
      ],
      "name": "OwnershipHandoverRequested",
      "type": "event"
    },
    {
      "anonymous": false,
      "inputs": [
        {
          "indexed": true,
          "internalType": "address",
          "name": "oldOwner",
          "type": "address"
        },
        {
          "indexed": true,
          "internalType": "address",
          "name": "newOwner",
          "type": "address"
        }
      ],
      "name": "OwnershipTransferred",
      "type": "event"
    },
    {
      "anonymous": false,
      "inputs": [
        {
          "indexed": true,
          "internalType": "address",
          "name": "operator",
          "type": "address"
        },
        {
          "indexed": true,
          "internalType": "address",
          "name": "from",
          "type": "address"
        },
        {
          "indexed": true,
          "internalType": "address",
          "name": "to",
          "type": "address"
        },
        {
          "indexed": false,
          "internalType": "uint256[]",
          "name": "ids",
          "type": "uint256[]"
        },
        {
          "indexed": false,
          "internalType": "uint256[]",
          "name": "values",
          "type": "uint256[]"
        }
      ],
      "name": "TransferBatch",
      "type": "event"
    },
    {
      "anonymous": false,
      "inputs": [
        {
          "indexed": true,
          "internalType": "address",
          "name": "operator",
          "type": "address"
        },
        {
          "indexed": true,
          "internalType": "address",
          "name": "from",
          "type": "address"
        },
        {
          "indexed": true,
          "internalType": "address",
          "name": "to",
          "type": "address"
        },
        {
          "indexed": false,
          "internalType": "uint256",
          "name": "id",
          "type": "uint256"
        },
        {
          "indexed": false,
          "internalType": "uint256",
          "name": "value",
          "type": "uint256"
        }
      ],
      "name": "TransferSingle",
      "type": "event"
    },
    {
      "anonymous": false,
      "inputs": [
        {
          "indexed": false,
          "internalType": "string",
          "name": "value",
          "type": "string"
        },
        {
          "indexed": true,
          "internalType": "uint256",
          "name": "id",
          "type": "uint256"
        }
      ],
      "name": "URI",
      "type": "event"
    },
    {
      "inputs": [
        {
          "internalType": "address",
          "name": "",
          "type": "address"
        }
      ],
      "name": "allowedTo",
      "outputs": [
        {
          "internalType": "bool",
          "name": "",
          "type": "bool"
        }
      ],
      "stateMutability": "view",
      "type": "function"
    },
    {
      "inputs": [
        {
          "internalType": "address",
          "name": "account",
          "type": "address"
        },
        {
          "internalType": "uint256",
          "name": "id",
          "type": "uint256"
        }
      ],
      "name": "balanceOf",
      "outputs": [
        {
          "internalType": "uint256",
          "name": "",
          "type": "uint256"
        }
      ],
      "stateMutability": "view",
      "type": "function"
    },
    {
      "inputs": [
        {
          "internalType": "address[]",
          "name": "accounts",
          "type": "address[]"
        },
        {
          "internalType": "uint256[]",
          "name": "ids",
          "type": "uint256[]"
        }
      ],
      "name": "balanceOfBatch",
      "outputs": [
        {
          "internalType": "uint256[]",
          "name": "",
          "type": "uint256[]"
        }
      ],
      "stateMutability": "view",
      "type": "function"
    },
    {
      "inputs": [],
      "name": "baseUri",
      "outputs": [
        {
          "internalType": "string",
          "name": "",
          "type": "string"
        }
      ],
      "stateMutability": "view",
      "type": "function"
    },
    {
      "inputs": [],
      "name": "cancelOwnershipHandover",
      "outputs": [],
      "stateMutability": "payable",
      "type": "function"
    },
    {
      "inputs": [
        {
          "internalType": "address",
          "name": "pendingOwner",
          "type": "address"
        }
      ],
      "name": "completeOwnershipHandover",
      "outputs": [],
      "stateMutability": "payable",
      "type": "function"
    },
    {
      "inputs": [
        {
          "internalType": "string",
          "name": "_baseUri",
          "type": "string"
        }
      ],
      "name": "initialize",
      "outputs": [],
      "stateMutability": "nonpayable",
      "type": "function"
    },
    {
      "inputs": [
        {
          "internalType": "address",
          "name": "account",
          "type": "address"
        },
        {
          "internalType": "address",
          "name": "operator",
          "type": "address"
        }
      ],
      "name": "isApprovedForAll",
      "outputs": [
        {
          "internalType": "bool",
          "name": "",
          "type": "bool"
        }
      ],
      "stateMutability": "view",
      "type": "function"
    },
    {
      "inputs": [
        {
          "internalType": "address",
          "name": "_to",
          "type": "address"
        },
        {
          "internalType": "uint256",
          "name": "_tokenId",
          "type": "uint256"
        },
        {
          "internalType": "uint256",
          "name": "_amount",
          "type": "uint256"
        }
      ],
      "name": "mint",
      "outputs": [],
      "stateMutability": "nonpayable",
      "type": "function"
    },
    {
      "inputs": [],
      "name": "name",
      "outputs": [
        {
          "internalType": "string",
          "name": "",
          "type": "string"
        }
      ],
      "stateMutability": "pure",
      "type": "function"
    },
    {
      "inputs": [],
      "name": "owner",
      "outputs": [
        {
          "internalType": "address",
          "name": "result",
          "type": "address"
        }
      ],
      "stateMutability": "view",
      "type": "function"
    },
    {
      "inputs": [
        {
          "internalType": "address",
          "name": "pendingOwner",
          "type": "address"
        }
      ],
      "name": "ownershipHandoverExpiresAt",
      "outputs": [
        {
          "internalType": "uint256",
          "name": "result",
          "type": "uint256"
        }
      ],
      "stateMutability": "view",
      "type": "function"
    },
    {
      "inputs": [],
      "name": "ownershipHandoverValidFor",
      "outputs": [
        {
          "internalType": "uint64",
          "name": "",
          "type": "uint64"
        }
      ],
      "stateMutability": "view",
      "type": "function"
    },
    {
      "inputs": [],
      "name": "renounceOwnership",
      "outputs": [],
      "stateMutability": "payable",
      "type": "function"
    },
    {
      "inputs": [],
      "name": "requestOwnershipHandover",
      "outputs": [],
      "stateMutability": "payable",
      "type": "function"
    },
    {
      "inputs": [
        {
          "internalType": "address",
          "name": "from",
          "type": "address"
        },
        {
          "internalType": "address",
          "name": "to",
          "type": "address"
        },
        {
          "internalType": "uint256[]",
          "name": "ids",
          "type": "uint256[]"
        },
        {
          "internalType": "uint256[]",
          "name": "amounts",
          "type": "uint256[]"
        },
        {
          "internalType": "bytes",
          "name": "data",
          "type": "bytes"
        }
      ],
      "name": "safeBatchTransferFrom",
      "outputs": [],
      "stateMutability": "nonpayable",
      "type": "function"
    },
    {
      "inputs": [
        {
          "internalType": "address",
          "name": "from",
          "type": "address"
        },
        {
          "internalType": "address",
          "name": "to",
          "type": "address"
        },
        {
          "internalType": "uint256",
          "name": "id",
          "type": "uint256"
        },
        {
          "internalType": "uint256",
          "name": "amount",
          "type": "uint256"
        },
        {
          "internalType": "bytes",
          "name": "data",
          "type": "bytes"
        }
      ],
      "name": "safeTransferFrom",
      "outputs": [],
      "stateMutability": "nonpayable",
      "type": "function"
    },
    {
      "inputs": [
        {
          "internalType": "address",
          "name": "_addr",
          "type": "address"
        },
        {
          "internalType": "bool",
          "name": "_state",
          "type": "bool"
        }
      ],
      "name": "setAllowedAddress",
      "outputs": [],
      "stateMutability": "nonpayable",
      "type": "function"
    },
    {
      "inputs": [
        {
          "internalType": "address",
          "name": "operator",
          "type": "address"
        },
        {
          "internalType": "bool",
          "name": "approved",
          "type": "bool"
        }
      ],
      "name": "setApprovalForAll",
      "outputs": [],
      "stateMutability": "nonpayable",
      "type": "function"
    },
    {
      "inputs": [
        {
          "internalType": "string",
          "name": "_baseUri",
          "type": "string"
        }
      ],
      "name": "setBaseUri",
      "outputs": [],
      "stateMutability": "nonpayable",
      "type": "function"
    },
    {
      "inputs": [
        {
          "internalType": "bytes4",
          "name": "interfaceId",
          "type": "bytes4"
        }
      ],
      "name": "supportsInterface",
      "outputs": [
        {
          "internalType": "bool",
          "name": "",
          "type": "bool"
        }
      ],
      "stateMutability": "view",
      "type": "function"
    },
    {
      "inputs": [],
      "name": "symbol",
      "outputs": [
        {
          "internalType": "string",
          "name": "",
          "type": "string"
        }
      ],
      "stateMutability": "pure",
      "type": "function"
    },
    {
      "inputs": [
        {
          "internalType": "address",
          "name": "newOwner",
          "type": "address"
        }
      ],
      "name": "transferOwnership",
      "outputs": [],
      "stateMutability": "payable",
      "type": "function"
    },
    {
      "inputs": [
        {
          "internalType": "uint256",
          "name": "_tokenId",
          "type": "uint256"
        }
      ],
      "name": "uri",
      "outputs": [
        {
          "internalType": "string",
          "name": "",
          "type": "string"
        }
      ],
      "stateMutability": "view",
      "type": "function"
    }
  ],
  "transactionHash": "0xcf7ebf7d58ad2304b894932172eb2fcf1ea4d9cdee5569e9a66dea56b4eced4f",
  "args": [],
  "numDeployments": 2,
  "solcInputHash": "feeb19a837d75e4fc3ea36d84e1d9d60",
  "bytecode": "0x608060405234801561001057600080fd5b50613833806100206000396000f3fe60806040526004361061014a5760003560e01c806395d89b41116100b6578063f04e283e1161006f578063f04e283e14610456578063f242432a14610472578063f2fde38b1461049b578063f62d1888146104b7578063fae36986146104e0578063fee81cf4146105095761014a565b806395d89b41146103465780639abc832014610371578063a0bcfc7f1461039c578063a22cb465146103c5578063d7533f02146103ee578063e985e9c5146104195761014a565b80632eb2c2d6116101085780632eb2c2d6146102645780634e1273f41461028d57806354d1f13d146102ca578063715018a6146102d457806378aa33ba146102de5780638da5cb5b1461031b5761014a565b8062fdd58e1461014f57806301ffc9a71461018c57806306fdde03146101c95780630e89341c146101f4578063156e29f614610231578063256929621461025a575b600080fd5b34801561015b57600080fd5b5061017660048036038101906101719190612012565b610546565b6040516101839190612061565b60405180910390f35b34801561019857600080fd5b506101b360048036038101906101ae91906120d4565b61060f565b6040516101c0919061211c565b60405180910390f35b3480156101d557600080fd5b506101de6106f1565b6040516101eb91906121c7565b60405180910390f35b34801561020057600080fd5b5061021b600480360381019061021691906121e9565b61072e565b60405161022891906121c7565b60405180910390f35b34801561023d57600080fd5b5061025860048036038101906102539190612216565b610762565b005b610262610805565b005b34801561027057600080fd5b5061028b60048036038101906102869190612466565b610859565b005b34801561029957600080fd5b506102b460048036038101906102af91906125f8565b6108fa565b6040516102c1919061272e565b60405180910390f35b6102d2610a13565b005b6102dc610a4f565b005b3480156102ea57600080fd5b5061030560048036038101906103009190612750565b610a63565b604051610312919061211c565b60405180910390f35b34801561032757600080fd5b50610330610a83565b60405161033d919061278c565b60405180910390f35b34801561035257600080fd5b5061035b610a91565b60405161036891906121c7565b60405180910390f35b34801561037d57600080fd5b50610386610ace565b60405161039391906121c7565b60405180910390f35b3480156103a857600080fd5b506103c360048036038101906103be9190612848565b610b5c565b005b3480156103d157600080fd5b506103ec60048036038101906103e791906128bd565b610b77565b005b3480156103fa57600080fd5b50610403610b8d565b6040516104109190612920565b60405180910390f35b34801561042557600080fd5b50610440600480360381019061043b919061293b565b610b98565b60405161044d919061211c565b60405180910390f35b610470600480360381019061046b9190612750565b610c2c565b005b34801561047e57600080fd5b506104996004803603810190610494919061297b565b610c6d565b005b6104b560048036038101906104b09190612750565b610d0e565b005b3480156104c357600080fd5b506104de60048036038101906104d99190612848565b610d38565b005b3480156104ec57600080fd5b50610507600480360381019061050291906128bd565b610e88565b005b34801561051557600080fd5b50610530600480360381019061052b9190612750565b610eeb565b60405161053d9190612061565b60405180910390f35b60008073ffffffffffffffffffffffffffffffffffffffff168373ffffffffffffffffffffffffffffffffffffffff16036105b6576040517f08c379a00000000000000000000000000000000000000000000000000000000081526004016105ad90612a84565b60405180910390fd5b6065600083815260200190815260200160002060008473ffffffffffffffffffffffffffffffffffffffff1673ffffffffffffffffffffffffffffffffffffffff16815260200190815260200160002054905092915050565b60007fd9b67a26000000000000000000000000000000000000000000000000000000007bffffffffffffffffffffffffffffffffffffffffffffffffffffffff1916827bffffffffffffffffffffffffffffffffffffffffffffffffffffffff191614806106da57507f0e89341c000000000000000000000000000000000000000000000000000000007bffffffffffffffffffffffffffffffffffffffffffffffffffffffff1916827bffffffffffffffffffffffffffffffffffffffffffffffffffffffff1916145b806106ea57506106e982610f06565b5b9050919050565b60606040518060400160405280600b81526020017f436f6e73756d61626c6573000000000000000000000000000000000000000000815250905090565b6060609761073b83610f70565b60405160200161074c929190612bd8565b6040516020818303038152906040529050919050565b609860003373ffffffffffffffffffffffffffffffffffffffff1673ffffffffffffffffffffffffffffffffffffffff16815260200190815260200160002060009054906101000a900460ff166107e5576040517fea8e4eb500000000000000000000000000000000000000000000000000000000815260040160405180910390fd5b6108008383836040518060200160405280600081525061103e565b505050565b600061080f610b8d565b67ffffffffffffffff164201905063389a75e1600c5233600052806020600c2055337fdbf36a107da19e49527a7176a1babf963b4b0ff8cde35ee35d6cd8f1f9ac7e1d600080a250565b6108616111ef565b73ffffffffffffffffffffffffffffffffffffffff168573ffffffffffffffffffffffffffffffffffffffff1614806108a757506108a6856108a16111ef565b610b98565b5b6108e6576040517f08c379a00000000000000000000000000000000000000000000000000000000081526004016108dd90612c6e565b60405180910390fd5b6108f385858585856111f7565b5050505050565b60608151835114610940576040517f08c379a000000000000000000000000000000000000000000000000000000000815260040161093790612d00565b60405180910390fd5b6000835167ffffffffffffffff81111561095d5761095c61226e565b5b60405190808252806020026020018201604052801561098b5781602001602082028036833780820191505090505b50905060005b8451811015610a08576109d88582815181106109b0576109af612d20565b5b60200260200101518583815181106109cb576109ca612d20565b5b6020026020010151610546565b8282815181106109eb576109ea612d20565b5b60200260200101818152505080610a0190612d7e565b9050610991565b508091505092915050565b63389a75e1600c523360005260006020600c2055337ffa7b8eab7da67f412cc9575ed43464468f9bfbae89d1675917346ca6d8fe3c92600080a2565b610a5761151b565b610a616000611538565b565b60986020528060005260406000206000915054906101000a900460ff1681565b6000638b78c6d81954905090565b60606040518060400160405280600b81526020017f636f6e73756d61626c6573000000000000000000000000000000000000000000815250905090565b60978054610adb90612ad3565b80601f0160208091040260200160405190810160405280929190818152602001828054610b0790612ad3565b8015610b545780601f10610b2957610100808354040283529160200191610b54565b820191906000526020600020905b815481529060010190602001808311610b3757829003601f168201915b505050505081565b610b6461151b565b8060979081610b739190612f5d565b5050565b610b89610b826111ef565b8383611576565b5050565b60006202a300905090565b6000606660008473ffffffffffffffffffffffffffffffffffffffff1673ffffffffffffffffffffffffffffffffffffffff16815260200190815260200160002060008373ffffffffffffffffffffffffffffffffffffffff1673ffffffffffffffffffffffffffffffffffffffff16815260200190815260200160002060009054906101000a900460ff16905092915050565b610c3461151b565b63389a75e1600c52806000526020600c208054421115610c5c57636f5e88186000526004601cfd5b6000815550610c6a81611538565b50565b610c756111ef565b73ffffffffffffffffffffffffffffffffffffffff168573ffffffffffffffffffffffffffffffffffffffff161480610cbb5750610cba85610cb56111ef565b610b98565b5b610cfa576040517f08c379a0000000000000000000000000000000000000000000000000000000008152600401610cf190612c6e565b60405180910390fd5b610d0785858585856116e2565b5050505050565b610d1661151b565b8060601b610d2c57637448fbae6000526004601cfd5b610d3581611538565b50565b60008060019054906101000a900460ff16159050808015610d695750600160008054906101000a900460ff1660ff16105b80610d965750610d7830611980565b158015610d955750600160008054906101000a900460ff1660ff16145b5b610dd5576040517f08c379a0000000000000000000000000000000000000000000000000000000008152600401610dcc906130a1565b60405180910390fd5b60016000806101000a81548160ff021916908360ff1602179055508015610e12576001600060016101000a81548160ff0219169083151502179055505b610e1b336119a3565b8160979081610e2a9190612f5d565b508015610e845760008060016101000a81548160ff0219169083151502179055507f7f26b83ff96e1f2b6a682f133852f6798a09c465da95921460cefb38474024986001604051610e7b9190613109565b60405180910390a15b5050565b610e9061151b565b80609860008473ffffffffffffffffffffffffffffffffffffffff1673ffffffffffffffffffffffffffffffffffffffff16815260200190815260200160002060006101000a81548160ff0219169083151502179055505050565b600063389a75e1600c52816000526020600c20549050919050565b60007f01ffc9a7000000000000000000000000000000000000000000000000000000007bffffffffffffffffffffffffffffffffffffffffffffffffffffffff1916827bffffffffffffffffffffffffffffffffffffffffffffffffffffffff1916149050919050565b606060006001610f7f846119df565b01905060008167ffffffffffffffff811115610f9e57610f9d61226e565b5b6040519080825280601f01601f191660200182016040528015610fd05781602001600182028036833780820191505090505b509050600082602001820190505b600115611033578080600190039150507f3031323334353637383961626364656600000000000000000000000000000000600a86061a8153600a858161102757611026613124565b5b04945060008503610fde575b819350505050919050565b600073ffffffffffffffffffffffffffffffffffffffff168473ffffffffffffffffffffffffffffffffffffffff16036110ad576040517f08c379a00000000000000000000000000000000000000000000000000000000081526004016110a4906131c5565b60405180910390fd5b60006110b76111ef565b905060006110c485611b32565b905060006110d185611b32565b90506110e283600089858589611bac565b846065600088815260200190815260200160002060008973ffffffffffffffffffffffffffffffffffffffff1673ffffffffffffffffffffffffffffffffffffffff168152602001908152602001600020600082825461114291906131e5565b925050819055508673ffffffffffffffffffffffffffffffffffffffff16600073ffffffffffffffffffffffffffffffffffffffff168473ffffffffffffffffffffffffffffffffffffffff167fc3d58168c5ae7397731d063d5bbf3d657854427343f4c083240f7aacaa2d0f6289896040516111c0929190613219565b60405180910390a46111d783600089858589611bb4565b6111e683600089898989611bbc565b50505050505050565b600033905090565b815183511461123b576040517f08c379a0000000000000000000000000000000000000000000000000000000008152600401611232906132b4565b60405180910390fd5b600073ffffffffffffffffffffffffffffffffffffffff168473ffffffffffffffffffffffffffffffffffffffff16036112aa576040517f08c379a00000000000000000000000000000000000000000000000000000000081526004016112a190613346565b60405180910390fd5b60006112b46111ef565b90506112c4818787878787611bac565b60005b84518110156114785760008582815181106112e5576112e4612d20565b5b60200260200101519050600085838151811061130457611303612d20565b5b6020026020010151905060006065600084815260200190815260200160002060008b73ffffffffffffffffffffffffffffffffffffffff1673ffffffffffffffffffffffffffffffffffffffff168152602001908152602001600020549050818110156113a6576040517f08c379a000000000000000000000000000000000000000000000000000000000815260040161139d906133d8565b60405180910390fd5b8181036065600085815260200190815260200160002060008c73ffffffffffffffffffffffffffffffffffffffff1673ffffffffffffffffffffffffffffffffffffffff16815260200190815260200160002081905550816065600085815260200190815260200160002060008b73ffffffffffffffffffffffffffffffffffffffff1673ffffffffffffffffffffffffffffffffffffffff168152602001908152602001600020600082825461145d91906131e5565b925050819055505050508061147190612d7e565b90506112c7565b508473ffffffffffffffffffffffffffffffffffffffff168673ffffffffffffffffffffffffffffffffffffffff168273ffffffffffffffffffffffffffffffffffffffff167f4a39dc06d4c0dbc64b70af90fd698a233a518aa5d07e595d983b8c0526c8f7fb87876040516114ef9291906133f8565b60405180910390a4611505818787878787611bb4565b611513818787878787611d93565b505050505050565b638b78c6d819543314611536576382b429006000526004601cfd5b565b638b78c6d8198160601b60601c91508181547f8be0079c531659141344cd1fd0a4f28419497f9722a3daafe3b4186f6b6457e0600080a38181555050565b8173ffffffffffffffffffffffffffffffffffffffff168373ffffffffffffffffffffffffffffffffffffffff16036115e4576040517f08c379a00000000000000000000000000000000000000000000000000000000081526004016115db906134a1565b60405180910390fd5b80606660008573ffffffffffffffffffffffffffffffffffffffff1673ffffffffffffffffffffffffffffffffffffffff16815260200190815260200160002060008473ffffffffffffffffffffffffffffffffffffffff1673ffffffffffffffffffffffffffffffffffffffff16815260200190815260200160002060006101000a81548160ff0219169083151502179055508173ffffffffffffffffffffffffffffffffffffffff168373ffffffffffffffffffffffffffffffffffffffff167f17307eab39ab6107e8899845ad3d59bd9653f200f220920489ca2b5937696c31836040516116d5919061211c565b60405180910390a3505050565b600073ffffffffffffffffffffffffffffffffffffffff168473ffffffffffffffffffffffffffffffffffffffff1603611751576040517f08c379a000000000000000000000000000000000000000000000000000000000815260040161174890613346565b60405180910390fd5b600061175b6111ef565b9050600061176885611b32565b9050600061177585611b32565b9050611785838989858589611bac565b60006065600088815260200190815260200160002060008a73ffffffffffffffffffffffffffffffffffffffff1673ffffffffffffffffffffffffffffffffffffffff1681526020019081526020016000205490508581101561181d576040517f08c379a0000000000000000000000000000000000000000000000000000000008152600401611814906133d8565b60405180910390fd5b8581036065600089815260200190815260200160002060008b73ffffffffffffffffffffffffffffffffffffffff1673ffffffffffffffffffffffffffffffffffffffff16815260200190815260200160002081905550856065600089815260200190815260200160002060008a73ffffffffffffffffffffffffffffffffffffffff1673ffffffffffffffffffffffffffffffffffffffff16815260200190815260200160002060008282546118d491906131e5565b925050819055508773ffffffffffffffffffffffffffffffffffffffff168973ffffffffffffffffffffffffffffffffffffffff168573ffffffffffffffffffffffffffffffffffffffff167fc3d58168c5ae7397731d063d5bbf3d657854427343f4c083240f7aacaa2d0f628a8a604051611951929190613219565b60405180910390a4611967848a8a86868a611bb4565b611975848a8a8a8a8a611bbc565b505050505050505050565b6000808273ffffffffffffffffffffffffffffffffffffffff163b119050919050565b8060601b60601c905080638b78c6d819558060007f8be0079c531659141344cd1fd0a4f28419497f9722a3daafe3b4186f6b6457e0600080a350565b600080600090507a184f03e93ff9f4daa797ed6e38ed64bf6a1f0100000000000000008310611a3d577a184f03e93ff9f4daa797ed6e38ed64bf6a1f0100000000000000008381611a3357611a32613124565b5b0492506040810190505b6d04ee2d6d415b85acef81000000008310611a7a576d04ee2d6d415b85acef81000000008381611a7057611a6f613124565b5b0492506020810190505b662386f26fc100008310611aa957662386f26fc100008381611a9f57611a9e613124565b5b0492506010810190505b6305f5e1008310611ad2576305f5e1008381611ac857611ac7613124565b5b0492506008810190505b6127108310611af7576127108381611aed57611aec613124565b5b0492506004810190505b60648310611b1a5760648381611b1057611b0f613124565b5b0492506002810190505b600a8310611b29576001810190505b80915050919050565b60606000600167ffffffffffffffff811115611b5157611b5061226e565b5b604051908082528060200260200182016040528015611b7f5781602001602082028036833780820191505090505b5090508281600081518110611b9757611b96612d20565b5b60200260200101818152505080915050919050565b505050505050565b505050505050565b611bdb8473ffffffffffffffffffffffffffffffffffffffff16611980565b15611d8b578373ffffffffffffffffffffffffffffffffffffffff1663f23a6e6187878686866040518663ffffffff1660e01b8152600401611c21959493929190613516565b6020604051808303816000875af1925050508015611c5d57506040513d601f19601f82011682018060405250810190611c5a9190613585565b60015b611d0257611c696135bf565b806308c379a003611cc55750611c7d6135e1565b80611c885750611cc7565b806040517f08c379a0000000000000000000000000000000000000000000000000000000008152600401611cbc91906121c7565b60405180910390fd5b505b6040517f08c379a0000000000000000000000000000000000000000000000000000000008152600401611cf9906136e3565b60405180910390fd5b63f23a6e6160e01b7bffffffffffffffffffffffffffffffffffffffffffffffffffffffff1916817bffffffffffffffffffffffffffffffffffffffffffffffffffffffff191614611d89576040517f08c379a0000000000000000000000000000000000000000000000000000000008152600401611d8090613775565b60405180910390fd5b505b505050505050565b611db28473ffffffffffffffffffffffffffffffffffffffff16611980565b15611f62578373ffffffffffffffffffffffffffffffffffffffff1663bc197c8187878686866040518663ffffffff1660e01b8152600401611df8959493929190613795565b6020604051808303816000875af1925050508015611e3457506040513d601f19601f82011682018060405250810190611e319190613585565b60015b611ed957611e406135bf565b806308c379a003611e9c5750611e546135e1565b80611e5f5750611e9e565b806040517f08c379a0000000000000000000000000000000000000000000000000000000008152600401611e9391906121c7565b60405180910390fd5b505b6040517f08c379a0000000000000000000000000000000000000000000000000000000008152600401611ed0906136e3565b60405180910390fd5b63bc197c8160e01b7bffffffffffffffffffffffffffffffffffffffffffffffffffffffff1916817bffffffffffffffffffffffffffffffffffffffffffffffffffffffff191614611f60576040517f08c379a0000000000000000000000000000000000000000000000000000000008152600401611f5790613775565b60405180910390fd5b505b505050505050565b6000604051905090565b600080fd5b600080fd5b600073ffffffffffffffffffffffffffffffffffffffff82169050919050565b6000611fa982611f7e565b9050919050565b611fb981611f9e565b8114611fc457600080fd5b50565b600081359050611fd681611fb0565b92915050565b6000819050919050565b611fef81611fdc565b8114611ffa57600080fd5b50565b60008135905061200c81611fe6565b92915050565b6000806040838503121561202957612028611f74565b5b600061203785828601611fc7565b925050602061204885828601611ffd565b9150509250929050565b61205b81611fdc565b82525050565b60006020820190506120766000830184612052565b92915050565b60007fffffffff0000000000000000000000000000000000000000000000000000000082169050919050565b6120b18161207c565b81146120bc57600080fd5b50565b6000813590506120ce816120a8565b92915050565b6000602082840312156120ea576120e9611f74565b5b60006120f8848285016120bf565b91505092915050565b60008115159050919050565b61211681612101565b82525050565b6000602082019050612131600083018461210d565b92915050565b600081519050919050565b600082825260208201905092915050565b60005b83811015612171578082015181840152602081019050612156565b60008484015250505050565b6000601f19601f8301169050919050565b600061219982612137565b6121a38185612142565b93506121b3818560208601612153565b6121bc8161217d565b840191505092915050565b600060208201905081810360008301526121e1818461218e565b905092915050565b6000602082840312156121ff576121fe611f74565b5b600061220d84828501611ffd565b91505092915050565b60008060006060848603121561222f5761222e611f74565b5b600061223d86828701611fc7565b935050602061224e86828701611ffd565b925050604061225f86828701611ffd565b9150509250925092565b600080fd5b7f4e487b7100000000000000000000000000000000000000000000000000000000600052604160045260246000fd5b6122a68261217d565b810181811067ffffffffffffffff821117156122c5576122c461226e565b5b80604052505050565b60006122d8611f6a565b90506122e4828261229d565b919050565b600067ffffffffffffffff8211156123045761230361226e565b5b602082029050602081019050919050565b600080fd5b600061232d612328846122e9565b6122ce565b905080838252602082019050602084028301858111156123505761234f612315565b5b835b8181101561237957806123658882611ffd565b845260208401935050602081019050612352565b5050509392505050565b600082601f83011261239857612397612269565b5b81356123a884826020860161231a565b91505092915050565b600080fd5b600067ffffffffffffffff8211156123d1576123d061226e565b5b6123da8261217d565b9050602081019050919050565b82818337600083830152505050565b6000612409612404846123b6565b6122ce565b905082815260208101848484011115612425576124246123b1565b5b6124308482856123e7565b509392505050565b600082601f83011261244d5761244c612269565b5b813561245d8482602086016123f6565b91505092915050565b600080600080600060a0868803121561248257612481611f74565b5b600061249088828901611fc7565b95505060206124a188828901611fc7565b945050604086013567ffffffffffffffff8111156124c2576124c1611f79565b5b6124ce88828901612383565b935050606086013567ffffffffffffffff8111156124ef576124ee611f79565b5b6124fb88828901612383565b925050608086013567ffffffffffffffff81111561251c5761251b611f79565b5b61252888828901612438565b9150509295509295909350565b600067ffffffffffffffff8211156125505761254f61226e565b5b602082029050602081019050919050565b600061257461256f84612535565b6122ce565b9050808382526020820190506020840283018581111561259757612596612315565b5b835b818110156125c057806125ac8882611fc7565b845260208401935050602081019050612599565b5050509392505050565b600082601f8301126125df576125de612269565b5b81356125ef848260208601612561565b91505092915050565b6000806040838503121561260f5761260e611f74565b5b600083013567ffffffffffffffff81111561262d5761262c611f79565b5b612639858286016125ca565b925050602083013567ffffffffffffffff81111561265a57612659611f79565b5b61266685828601612383565b9150509250929050565b600081519050919050565b600082825260208201905092915050565b6000819050602082019050919050565b6126a581611fdc565b82525050565b60006126b7838361269c565b60208301905092915050565b6000602082019050919050565b60006126db82612670565b6126e5818561267b565b93506126f08361268c565b8060005b8381101561272157815161270888826126ab565b9750612713836126c3565b9250506001810190506126f4565b5085935050505092915050565b6000602082019050818103600083015261274881846126d0565b905092915050565b60006020828403121561276657612765611f74565b5b600061277484828501611fc7565b91505092915050565b61278681611f9e565b82525050565b60006020820190506127a1600083018461277d565b92915050565b600067ffffffffffffffff8211156127c2576127c161226e565b5b6127cb8261217d565b9050602081019050919050565b60006127eb6127e6846127a7565b6122ce565b905082815260208101848484011115612807576128066123b1565b5b6128128482856123e7565b509392505050565b600082601f83011261282f5761282e612269565b5b813561283f8482602086016127d8565b91505092915050565b60006020828403121561285e5761285d611f74565b5b600082013567ffffffffffffffff81111561287c5761287b611f79565b5b6128888482850161281a565b91505092915050565b61289a81612101565b81146128a557600080fd5b50565b6000813590506128b781612891565b92915050565b600080604083850312156128d4576128d3611f74565b5b60006128e285828601611fc7565b92505060206128f3858286016128a8565b9150509250929050565b600067ffffffffffffffff82169050919050565b61291a816128fd565b82525050565b60006020820190506129356000830184612911565b92915050565b6000806040838503121561295257612951611f74565b5b600061296085828601611fc7565b925050602061297185828601611fc7565b9150509250929050565b600080600080600060a0868803121561299757612996611f74565b5b60006129a588828901611fc7565b95505060206129b688828901611fc7565b94505060406129c788828901611ffd565b93505060606129d888828901611ffd565b925050608086013567ffffffffffffffff8111156129f9576129f8611f79565b5b612a0588828901612438565b9150509295509295909350565b7f455243313135353a2061646472657373207a65726f206973206e6f742061207660008201527f616c6964206f776e657200000000000000000000000000000000000000000000602082015250565b6000612a6e602a83612142565b9150612a7982612a12565b604082019050919050565b60006020820190508181036000830152612a9d81612a61565b9050919050565b7f4e487b7100000000000000000000000000000000000000000000000000000000600052602260045260246000fd5b60006002820490506001821680612aeb57607f821691505b602082108103612afe57612afd612aa4565b5b50919050565b600081905092915050565b60008190508160005260206000209050919050565b60008154612b3181612ad3565b612b3b8186612b04565b94506001821660008114612b565760018114612b6b57612b9e565b60ff1983168652811515820286019350612b9e565b612b7485612b0f565b60005b83811015612b9657815481890152600182019150602081019050612b77565b838801955050505b50505092915050565b6000612bb282612137565b612bbc8185612b04565b9350612bcc818560208601612153565b80840191505092915050565b6000612be48285612b24565b9150612bf08284612ba7565b91508190509392505050565b7f455243313135353a2063616c6c6572206973206e6f7420746f6b656e206f776e60008201527f6572206f7220617070726f766564000000000000000000000000000000000000602082015250565b6000612c58602e83612142565b9150612c6382612bfc565b604082019050919050565b60006020820190508181036000830152612c8781612c4b565b9050919050565b7f455243313135353a206163636f756e747320616e6420696473206c656e67746860008201527f206d69736d617463680000000000000000000000000000000000000000000000602082015250565b6000612cea602983612142565b9150612cf582612c8e565b604082019050919050565b60006020820190508181036000830152612d1981612cdd565b9050919050565b7f4e487b7100000000000000000000000000000000000000000000000000000000600052603260045260246000fd5b7f4e487b7100000000000000000000000000000000000000000000000000000000600052601160045260246000fd5b6000612d8982611fdc565b91507fffffffffffffffffffffffffffffffffffffffffffffffffffffffffffffffff8203612dbb57612dba612d4f565b5b600182019050919050565b60006020601f8301049050919050565b600082821b905092915050565b600060088302612e137fffffffffffffffffffffffffffffffffffffffffffffffffffffffffffffffff82612dd6565b612e1d8683612dd6565b95508019841693508086168417925050509392505050565b6000819050919050565b6000612e5a612e55612e5084611fdc565b612e35565b611fdc565b9050919050565b6000819050919050565b612e7483612e3f565b612e88612e8082612e61565b848454612de3565b825550505050565b600090565b612e9d612e90565b612ea8818484612e6b565b505050565b5b81811015612ecc57612ec1600082612e95565b600181019050612eae565b5050565b601f821115612f1157612ee281612b0f565b612eeb84612dc6565b81016020851015612efa578190505b612f0e612f0685612dc6565b830182612ead565b50505b505050565b600082821c905092915050565b6000612f3460001984600802612f16565b1980831691505092915050565b6000612f4d8383612f23565b9150826002028217905092915050565b612f6682612137565b67ffffffffffffffff811115612f7f57612f7e61226e565b5b612f898254612ad3565b612f94828285612ed0565b600060209050601f831160018114612fc75760008415612fb5578287015190505b612fbf8582612f41565b865550613027565b601f198416612fd586612b0f565b60005b82811015612ffd57848901518255600182019150602085019450602081019050612fd8565b8683101561301a5784890151613016601f891682612f23565b8355505b6001600288020188555050505b505050505050565b7f496e697469616c697a61626c653a20636f6e747261637420697320616c72656160008201527f647920696e697469616c697a6564000000000000000000000000000000000000602082015250565b600061308b602e83612142565b91506130968261302f565b604082019050919050565b600060208201905081810360008301526130ba8161307e565b9050919050565b6000819050919050565b600060ff82169050919050565b60006130f36130ee6130e9846130c1565b612e35565b6130cb565b9050919050565b613103816130d8565b82525050565b600060208201905061311e60008301846130fa565b92915050565b7f4e487b7100000000000000000000000000000000000000000000000000000000600052601260045260246000fd5b7f455243313135353a206d696e7420746f20746865207a65726f2061646472657360008201527f7300000000000000000000000000000000000000000000000000000000000000602082015250565b60006131af602183612142565b91506131ba82613153565b604082019050919050565b600060208201905081810360008301526131de816131a2565b9050919050565b60006131f082611fdc565b91506131fb83611fdc565b925082820190508082111561321357613212612d4f565b5b92915050565b600060408201905061322e6000830185612052565b61323b6020830184612052565b9392505050565b7f455243313135353a2069647320616e6420616d6f756e7473206c656e6774682060008201527f6d69736d61746368000000000000000000000000000000000000000000000000602082015250565b600061329e602883612142565b91506132a982613242565b604082019050919050565b600060208201905081810360008301526132cd81613291565b9050919050565b7f455243313135353a207472616e7366657220746f20746865207a65726f20616460008201527f6472657373000000000000000000000000000000000000000000000000000000602082015250565b6000613330602583612142565b915061333b826132d4565b604082019050919050565b6000602082019050818103600083015261335f81613323565b9050919050565b7f455243313135353a20696e73756666696369656e742062616c616e636520666f60008201527f72207472616e7366657200000000000000000000000000000000000000000000602082015250565b60006133c2602a83612142565b91506133cd82613366565b604082019050919050565b600060208201905081810360008301526133f1816133b5565b9050919050565b6000604082019050818103600083015261341281856126d0565b9050818103602083015261342681846126d0565b90509392505050565b7f455243313135353a2073657474696e6720617070726f76616c2073746174757360008201527f20666f722073656c660000000000000000000000000000000000000000000000602082015250565b600061348b602983612142565b91506134968261342f565b604082019050919050565b600060208201905081810360008301526134ba8161347e565b9050919050565b600081519050919050565b600082825260208201905092915050565b60006134e8826134c1565b6134f281856134cc565b9350613502818560208601612153565b61350b8161217d565b840191505092915050565b600060a08201905061352b600083018861277d565b613538602083018761277d565b6135456040830186612052565b6135526060830185612052565b818103608083015261356481846134dd565b90509695505050505050565b60008151905061357f816120a8565b92915050565b60006020828403121561359b5761359a611f74565b5b60006135a984828501613570565b91505092915050565b60008160e01c9050919050565b600060033d11156135de5760046000803e6135db6000516135b2565b90505b90565b600060443d1061366e576135f3611f6a565b60043d036004823e80513d602482011167ffffffffffffffff8211171561361b57505061366e565b808201805167ffffffffffffffff811115613639575050505061366e565b80602083010160043d03850181111561365657505050505061366e565b6136658260200185018661229d565b82955050505050505b90565b7f455243313135353a207472616e7366657220746f206e6f6e2d4552433131353560008201527f526563656976657220696d706c656d656e746572000000000000000000000000602082015250565b60006136cd603483612142565b91506136d882613671565b604082019050919050565b600060208201905081810360008301526136fc816136c0565b9050919050565b7f455243313135353a204552433131353552656365697665722072656a6563746560008201527f6420746f6b656e73000000000000000000000000000000000000000000000000602082015250565b600061375f602883612142565b915061376a82613703565b604082019050919050565b6000602082019050818103600083015261378e81613752565b9050919050565b600060a0820190506137aa600083018861277d565b6137b7602083018761277d565b81810360408301526137c981866126d0565b905081810360608301526137dd81856126d0565b905081810360808301526137f181846134dd565b9050969550505050505056fea264697066735822122003611bd84c21751784c90b5c07ddc71bcb6e9f819c117ae69b2105ecdf8101f164736f6c63430008120033",
  "devdoc": {
    "errors": {
      "NewOwnerIsZeroAddress()": [
        {
          "details": "The `newOwner` cannot be the zero address."
        }
      ],
      "NoHandoverRequest()": [
        {
          "details": "The `pendingOwner` does not have a valid handover request."
        }
      ],
      "Unauthorized()": [
        {
          "details": "The caller is not authorized to call the function."
        }
      ]
    },
    "events": {
      "ApprovalForAll(address,address,bool)": {
        "details": "Emitted when `account` grants or revokes permission to `operator` to transfer their tokens, according to `approved`."
      },
      "Initialized(uint8)": {
        "details": "Triggered when the contract has been initialized or reinitialized."
      },
      "OwnershipHandoverCanceled(address)": {
        "details": "The ownership handover to `pendingOwner` has been canceled."
      },
      "OwnershipHandoverRequested(address)": {
        "details": "An ownership handover to `pendingOwner` has been requested."
      },
      "OwnershipTransferred(address,address)": {
        "details": "The ownership is transferred from `oldOwner` to `newOwner`. This event is intentionally kept the same as OpenZeppelin's Ownable to be compatible with indexers and [EIP-173](https://eips.ethereum.org/EIPS/eip-173), despite it not being as lightweight as a single argument event."
      },
      "TransferBatch(address,address,address,uint256[],uint256[])": {
        "details": "Equivalent to multiple {TransferSingle} events, where `operator`, `from` and `to` are the same for all transfers."
      },
      "TransferSingle(address,address,address,uint256,uint256)": {
        "details": "Emitted when `value` tokens of token type `id` are transferred from `from` to `to` by `operator`."
      },
      "URI(string,uint256)": {
        "details": "Emitted when the URI for token type `id` changes to `value`, if it is a non-programmatic URI. If an {URI} event was emitted for `id`, the standard https://eips.ethereum.org/EIPS/eip-1155#metadata-extensions[guarantees] that `value` will equal the value returned by {IERC1155MetadataURI-uri}."
      }
    },
    "kind": "dev",
    "methods": {
      "balanceOf(address,uint256)": {
        "details": "See {IERC1155-balanceOf}. Requirements: - `account` cannot be the zero address."
      },
      "balanceOfBatch(address[],uint256[])": {
        "details": "See {IERC1155-balanceOfBatch}. Requirements: - `accounts` and `ids` must have the same length."
      },
      "cancelOwnershipHandover()": {
        "details": "Cancels the two-step ownership handover to the caller, if any."
      },
      "completeOwnershipHandover(address)": {
        "details": "Allows the owner to complete the two-step ownership handover to `pendingOwner`. Reverts if there is no existing ownership handover requested by `pendingOwner`."
      },
      "isApprovedForAll(address,address)": {
        "details": "See {IERC1155-isApprovedForAll}."
      },
      "owner()": {
        "details": "Returns the owner of the contract."
      },
      "ownershipHandoverExpiresAt(address)": {
        "details": "Returns the expiry timestamp for the two-step ownership handover to `pendingOwner`."
      },
      "ownershipHandoverValidFor()": {
        "details": "Returns how long a two-step ownership handover is valid for in seconds."
      },
      "renounceOwnership()": {
        "details": "Allows the owner to renounce their ownership."
      },
      "requestOwnershipHandover()": {
        "details": "Request a two-step ownership handover to the caller. The request will be automatically expire in 48 hours (172800 seconds) by default."
      },
      "safeBatchTransferFrom(address,address,uint256[],uint256[],bytes)": {
        "details": "See {IERC1155-safeBatchTransferFrom}."
      },
      "safeTransferFrom(address,address,uint256,uint256,bytes)": {
        "details": "See {IERC1155-safeTransferFrom}."
      },
      "setApprovalForAll(address,bool)": {
        "details": "See {IERC1155-setApprovalForAll}."
      },
      "supportsInterface(bytes4)": {
        "details": "See {IERC165-supportsInterface}."
      },
      "transferOwnership(address)": {
        "details": "Allows the owner to transfer the ownership to `newOwner`."
      }
    },
    "version": 1
  },
  "userdoc": {
    "kind": "user",
    "methods": {},
    "version": 1
  },
  "storageLayout": {
    "storage": [
      {
        "astId": 415,
        "contract": "contracts/Consumables.sol:Consumables",
        "label": "_initialized",
        "offset": 0,
        "slot": "0",
        "type": "t_uint8"
      },
      {
        "astId": 418,
        "contract": "contracts/Consumables.sol:Consumables",
        "label": "_initializing",
        "offset": 1,
        "slot": "0",
        "type": "t_bool"
      },
      {
        "astId": 4738,
        "contract": "contracts/Consumables.sol:Consumables",
        "label": "__gap",
        "offset": 0,
        "slot": "1",
        "type": "t_array(t_uint256)50_storage"
      },
      {
        "astId": 5533,
        "contract": "contracts/Consumables.sol:Consumables",
        "label": "__gap",
        "offset": 0,
        "slot": "51",
        "type": "t_array(t_uint256)50_storage"
      },
      {
        "astId": 679,
        "contract": "contracts/Consumables.sol:Consumables",
        "label": "_balances",
        "offset": 0,
        "slot": "101",
        "type": "t_mapping(t_uint256,t_mapping(t_address,t_uint256))"
      },
      {
        "astId": 685,
        "contract": "contracts/Consumables.sol:Consumables",
        "label": "_operatorApprovals",
        "offset": 0,
        "slot": "102",
        "type": "t_mapping(t_address,t_mapping(t_address,t_bool))"
      },
      {
        "astId": 687,
        "contract": "contracts/Consumables.sol:Consumables",
        "label": "_uri",
        "offset": 0,
        "slot": "103",
        "type": "t_string_storage"
      },
      {
        "astId": 1894,
        "contract": "contracts/Consumables.sol:Consumables",
        "label": "__gap",
        "offset": 0,
        "slot": "104",
        "type": "t_array(t_uint256)47_storage"
      },
      {
        "astId": 7063,
        "contract": "contracts/Consumables.sol:Consumables",
        "label": "baseUri",
        "offset": 0,
        "slot": "151",
        "type": "t_string_storage"
      },
      {
        "astId": 7067,
        "contract": "contracts/Consumables.sol:Consumables",
        "label": "allowedTo",
        "offset": 0,
        "slot": "152",
        "type": "t_mapping(t_address,t_bool)"
      }
    ],
    "types": {
      "t_address": {
        "encoding": "inplace",
        "label": "address",
        "numberOfBytes": "20"
      },
      "t_array(t_uint256)47_storage": {
        "base": "t_uint256",
        "encoding": "inplace",
        "label": "uint256[47]",
        "numberOfBytes": "1504"
      },
      "t_array(t_uint256)50_storage": {
        "base": "t_uint256",
        "encoding": "inplace",
        "label": "uint256[50]",
        "numberOfBytes": "1600"
      },
      "t_bool": {
        "encoding": "inplace",
        "label": "bool",
        "numberOfBytes": "1"
      },
      "t_mapping(t_address,t_bool)": {
        "encoding": "mapping",
        "key": "t_address",
        "label": "mapping(address => bool)",
        "numberOfBytes": "32",
        "value": "t_bool"
      },
      "t_mapping(t_address,t_mapping(t_address,t_bool))": {
        "encoding": "mapping",
        "key": "t_address",
        "label": "mapping(address => mapping(address => bool))",
        "numberOfBytes": "32",
        "value": "t_mapping(t_address,t_bool)"
      },
      "t_mapping(t_address,t_uint256)": {
        "encoding": "mapping",
        "key": "t_address",
        "label": "mapping(address => uint256)",
        "numberOfBytes": "32",
        "value": "t_uint256"
      },
      "t_mapping(t_uint256,t_mapping(t_address,t_uint256))": {
        "encoding": "mapping",
        "key": "t_uint256",
        "label": "mapping(uint256 => mapping(address => uint256))",
        "numberOfBytes": "32",
        "value": "t_mapping(t_address,t_uint256)"
      },
      "t_string_storage": {
        "encoding": "bytes",
        "label": "string",
        "numberOfBytes": "32"
      },
      "t_uint256": {
        "encoding": "inplace",
        "label": "uint256",
        "numberOfBytes": "32"
      },
      "t_uint8": {
        "encoding": "inplace",
        "label": "uint8",
        "numberOfBytes": "1"
      }
    }
  }
}