{
  "address": "0xE95384459d2814764f9897f9665514c3C7fb3612",
  "abi": [
    {
      "inputs": [],
      "name": "NewOwnerIsZeroAddress",
      "type": "error"
    },
    {
      "inputs": [],
      "name": "NoHandoverRequest",
      "type": "error"
    },
    {
      "inputs": [],
      "name": "NotAuthorized",
      "type": "error"
    },
    {
      "inputs": [],
      "name": "Unauthorized",
      "type": "error"
    },
    {
      "anonymous": false,
      "inputs": [
        {
          "indexed": true,
          "internalType": "address",
          "name": "account",
          "type": "address"
        },
        {
          "indexed": true,
          "internalType": "address",
          "name": "operator",
          "type": "address"
        },
        {
          "indexed": false,
          "internalType": "bool",
          "name": "approved",
          "type": "bool"
        }
      ],
      "name": "ApprovalForAll",
      "type": "event"
    },
    {
      "anonymous": false,
      "inputs": [
        {
          "indexed": false,
          "internalType": "uint8",
          "name": "version",
          "type": "uint8"
        }
      ],
      "name": "Initialized",
      "type": "event"
    },
    {
      "anonymous": false,
      "inputs": [
        {
          "indexed": true,
          "internalType": "address",
          "name": "pendingOwner",
          "type": "address"
        }
      ],
      "name": "OwnershipHandoverCanceled",
      "type": "event"
    },
    {
      "anonymous": false,
      "inputs": [
        {
          "indexed": true,
          "internalType": "address",
          "name": "pendingOwner",
          "type": "address"
        }
      ],
      "name": "OwnershipHandoverRequested",
      "type": "event"
    },
    {
      "anonymous": false,
      "inputs": [
        {
          "indexed": true,
          "internalType": "address",
          "name": "oldOwner",
          "type": "address"
        },
        {
          "indexed": true,
          "internalType": "address",
          "name": "newOwner",
          "type": "address"
        }
      ],
      "name": "OwnershipTransferred",
      "type": "event"
    },
    {
      "anonymous": false,
      "inputs": [
        {
          "indexed": true,
          "internalType": "address",
          "name": "operator",
          "type": "address"
        },
        {
          "indexed": true,
          "internalType": "address",
          "name": "from",
          "type": "address"
        },
        {
          "indexed": true,
          "internalType": "address",
          "name": "to",
          "type": "address"
        },
        {
          "indexed": false,
          "internalType": "uint256[]",
          "name": "ids",
          "type": "uint256[]"
        },
        {
          "indexed": false,
          "internalType": "uint256[]",
          "name": "values",
          "type": "uint256[]"
        }
      ],
      "name": "TransferBatch",
      "type": "event"
    },
    {
      "anonymous": false,
      "inputs": [
        {
          "indexed": true,
          "internalType": "address",
          "name": "operator",
          "type": "address"
        },
        {
          "indexed": true,
          "internalType": "address",
          "name": "from",
          "type": "address"
        },
        {
          "indexed": true,
          "internalType": "address",
          "name": "to",
          "type": "address"
        },
        {
          "indexed": false,
          "internalType": "uint256",
          "name": "id",
          "type": "uint256"
        },
        {
          "indexed": false,
          "internalType": "uint256",
          "name": "value",
          "type": "uint256"
        }
      ],
      "name": "TransferSingle",
      "type": "event"
    },
    {
      "anonymous": false,
      "inputs": [
        {
          "indexed": false,
          "internalType": "string",
          "name": "value",
          "type": "string"
        },
        {
          "indexed": true,
          "internalType": "uint256",
          "name": "id",
          "type": "uint256"
        }
      ],
      "name": "URI",
      "type": "event"
    },
    {
      "inputs": [
        {
          "internalType": "address",
          "name": "",
          "type": "address"
        }
      ],
      "name": "allowedTo",
      "outputs": [
        {
          "internalType": "bool",
          "name": "",
          "type": "bool"
        }
      ],
      "stateMutability": "view",
      "type": "function"
    },
    {
      "inputs": [
        {
          "internalType": "address",
          "name": "account",
          "type": "address"
        },
        {
          "internalType": "uint256",
          "name": "id",
          "type": "uint256"
        }
      ],
      "name": "balanceOf",
      "outputs": [
        {
          "internalType": "uint256",
          "name": "",
          "type": "uint256"
        }
      ],
      "stateMutability": "view",
      "type": "function"
    },
    {
      "inputs": [
        {
          "internalType": "address[]",
          "name": "accounts",
          "type": "address[]"
        },
        {
          "internalType": "uint256[]",
          "name": "ids",
          "type": "uint256[]"
        }
      ],
      "name": "balanceOfBatch",
      "outputs": [
        {
          "internalType": "uint256[]",
          "name": "",
          "type": "uint256[]"
        }
      ],
      "stateMutability": "view",
      "type": "function"
    },
    {
      "inputs": [],
      "name": "baseUri",
      "outputs": [
        {
          "internalType": "string",
          "name": "",
          "type": "string"
        }
      ],
      "stateMutability": "view",
      "type": "function"
    },
    {
      "inputs": [],
      "name": "cancelOwnershipHandover",
      "outputs": [],
      "stateMutability": "payable",
      "type": "function"
    },
    {
      "inputs": [
        {
          "internalType": "address",
          "name": "pendingOwner",
          "type": "address"
        }
      ],
      "name": "completeOwnershipHandover",
      "outputs": [],
      "stateMutability": "payable",
      "type": "function"
    },
    {
      "inputs": [
        {
          "internalType": "string",
          "name": "_baseUri",
          "type": "string"
        }
      ],
      "name": "initialize",
      "outputs": [],
      "stateMutability": "nonpayable",
      "type": "function"
    },
    {
      "inputs": [
        {
          "internalType": "address",
          "name": "account",
          "type": "address"
        },
        {
          "internalType": "address",
          "name": "operator",
          "type": "address"
        }
      ],
      "name": "isApprovedForAll",
      "outputs": [
        {
          "internalType": "bool",
          "name": "",
          "type": "bool"
        }
      ],
      "stateMutability": "view",
      "type": "function"
    },
    {
      "inputs": [
        {
          "internalType": "address",
          "name": "_to",
          "type": "address"
        },
        {
          "internalType": "uint256",
          "name": "_tokenId",
          "type": "uint256"
        },
        {
          "internalType": "uint256",
          "name": "_amount",
          "type": "uint256"
        }
      ],
      "name": "mint",
      "outputs": [],
      "stateMutability": "nonpayable",
      "type": "function"
    },
    {
      "inputs": [],
      "name": "name",
      "outputs": [
        {
          "internalType": "string",
          "name": "",
          "type": "string"
        }
      ],
      "stateMutability": "pure",
      "type": "function"
    },
    {
      "inputs": [],
      "name": "owner",
      "outputs": [
        {
          "internalType": "address",
          "name": "result",
          "type": "address"
        }
      ],
      "stateMutability": "view",
      "type": "function"
    },
    {
      "inputs": [
        {
          "internalType": "address",
          "name": "pendingOwner",
          "type": "address"
        }
      ],
      "name": "ownershipHandoverExpiresAt",
      "outputs": [
        {
          "internalType": "uint256",
          "name": "result",
          "type": "uint256"
        }
      ],
      "stateMutability": "view",
      "type": "function"
    },
    {
      "inputs": [],
      "name": "ownershipHandoverValidFor",
      "outputs": [
        {
          "internalType": "uint64",
          "name": "",
          "type": "uint64"
        }
      ],
      "stateMutability": "view",
      "type": "function"
    },
    {
      "inputs": [],
      "name": "renounceOwnership",
      "outputs": [],
      "stateMutability": "payable",
      "type": "function"
    },
    {
      "inputs": [],
      "name": "requestOwnershipHandover",
      "outputs": [],
      "stateMutability": "payable",
      "type": "function"
    },
    {
      "inputs": [
        {
          "internalType": "address",
          "name": "from",
          "type": "address"
        },
        {
          "internalType": "address",
          "name": "to",
          "type": "address"
        },
        {
          "internalType": "uint256[]",
          "name": "ids",
          "type": "uint256[]"
        },
        {
          "internalType": "uint256[]",
          "name": "amounts",
          "type": "uint256[]"
        },
        {
          "internalType": "bytes",
          "name": "data",
          "type": "bytes"
        }
      ],
      "name": "safeBatchTransferFrom",
      "outputs": [],
      "stateMutability": "nonpayable",
      "type": "function"
    },
    {
      "inputs": [
        {
          "internalType": "address",
          "name": "from",
          "type": "address"
        },
        {
          "internalType": "address",
          "name": "to",
          "type": "address"
        },
        {
          "internalType": "uint256",
          "name": "id",
          "type": "uint256"
        },
        {
          "internalType": "uint256",
          "name": "amount",
          "type": "uint256"
        },
        {
          "internalType": "bytes",
          "name": "data",
          "type": "bytes"
        }
      ],
      "name": "safeTransferFrom",
      "outputs": [],
      "stateMutability": "nonpayable",
      "type": "function"
    },
    {
      "inputs": [
        {
          "internalType": "address",
          "name": "_addr",
          "type": "address"
        },
        {
          "internalType": "bool",
          "name": "_state",
          "type": "bool"
        }
      ],
      "name": "setAllowedAddress",
      "outputs": [],
      "stateMutability": "nonpayable",
      "type": "function"
    },
    {
      "inputs": [
        {
          "internalType": "address",
          "name": "operator",
          "type": "address"
        },
        {
          "internalType": "bool",
          "name": "approved",
          "type": "bool"
        }
      ],
      "name": "setApprovalForAll",
      "outputs": [],
      "stateMutability": "nonpayable",
      "type": "function"
    },
    {
      "inputs": [
        {
          "internalType": "bytes4",
          "name": "interfaceId",
          "type": "bytes4"
        }
      ],
      "name": "supportsInterface",
      "outputs": [
        {
          "internalType": "bool",
          "name": "",
          "type": "bool"
        }
      ],
      "stateMutability": "view",
      "type": "function"
    },
    {
      "inputs": [],
      "name": "symbol",
      "outputs": [
        {
          "internalType": "string",
          "name": "",
          "type": "string"
        }
      ],
      "stateMutability": "pure",
      "type": "function"
    },
    {
      "inputs": [
        {
          "internalType": "address",
          "name": "newOwner",
          "type": "address"
        }
      ],
      "name": "transferOwnership",
      "outputs": [],
      "stateMutability": "payable",
      "type": "function"
    },
    {
      "inputs": [
        {
          "internalType": "uint256",
          "name": "_tokenId",
          "type": "uint256"
        }
      ],
      "name": "uri",
      "outputs": [
        {
          "internalType": "string",
          "name": "",
          "type": "string"
        }
      ],
      "stateMutability": "view",
      "type": "function"
    }
  ],
  "transactionHash": "0x5776e174b3134d77eb0c0c6d0b8145e6b26b5e098d422b937077a3238d5166c5",
  "args": [],
  "numDeployments": 1,
  "solcInputHash": "478423c85a6e9b2cb2f2675d47beffcf",
  "bytecode": "0x608060405234801561001057600080fd5b506137e4806100206000396000f3fe60806040526004361061013f5760003560e01c80638da5cb5b116100b6578063f04e283e1161006f578063f04e283e14610422578063f242432a1461043e578063f2fde38b14610467578063f62d188814610483578063fae36986146104ac578063fee81cf4146104d55761013f565b80638da5cb5b1461031057806395d89b411461033b5780639abc832014610366578063a22cb46514610391578063d7533f02146103ba578063e985e9c5146103e55761013f565b80632569296211610108578063256929621461024f5780632eb2c2d6146102595780634e1273f41461028257806354d1f13d146102bf578063715018a6146102c957806378aa33ba146102d35761013f565b8062fdd58e1461014457806301ffc9a71461018157806306fdde03146101be5780630e89341c146101e9578063156e29f614610226575b600080fd5b34801561015057600080fd5b5061016b60048036038101906101669190611fc3565b610512565b6040516101789190612012565b60405180910390f35b34801561018d57600080fd5b506101a860048036038101906101a39190612085565b6105db565b6040516101b591906120cd565b60405180910390f35b3480156101ca57600080fd5b506101d36106bd565b6040516101e09190612178565b60405180910390f35b3480156101f557600080fd5b50610210600480360381019061020b919061219a565b6106fa565b60405161021d9190612178565b60405180910390f35b34801561023257600080fd5b5061024d600480360381019061024891906121c7565b61072e565b005b6102576107d1565b005b34801561026557600080fd5b50610280600480360381019061027b9190612417565b610825565b005b34801561028e57600080fd5b506102a960048036038101906102a491906125a9565b6108c6565b6040516102b691906126df565b60405180910390f35b6102c76109df565b005b6102d1610a1b565b005b3480156102df57600080fd5b506102fa60048036038101906102f59190612701565b610a2f565b60405161030791906120cd565b60405180910390f35b34801561031c57600080fd5b50610325610a4f565b604051610332919061273d565b60405180910390f35b34801561034757600080fd5b50610350610a5d565b60405161035d9190612178565b60405180910390f35b34801561037257600080fd5b5061037b610a9a565b6040516103889190612178565b60405180910390f35b34801561039d57600080fd5b506103b860048036038101906103b39190612784565b610b28565b005b3480156103c657600080fd5b506103cf610b3e565b6040516103dc91906127e7565b60405180910390f35b3480156103f157600080fd5b5061040c60048036038101906104079190612802565b610b49565b60405161041991906120cd565b60405180910390f35b61043c60048036038101906104379190612701565b610bdd565b005b34801561044a57600080fd5b5061046560048036038101906104609190612842565b610c1e565b005b610481600480360381019061047c9190612701565b610cbf565b005b34801561048f57600080fd5b506104aa60048036038101906104a5919061297a565b610ce9565b005b3480156104b857600080fd5b506104d360048036038101906104ce9190612784565b610e39565b005b3480156104e157600080fd5b506104fc60048036038101906104f79190612701565b610e9c565b6040516105099190612012565b60405180910390f35b60008073ffffffffffffffffffffffffffffffffffffffff168373ffffffffffffffffffffffffffffffffffffffff1603610582576040517f08c379a000000000000000000000000000000000000000000000000000000000815260040161057990612a35565b60405180910390fd5b6065600083815260200190815260200160002060008473ffffffffffffffffffffffffffffffffffffffff1673ffffffffffffffffffffffffffffffffffffffff16815260200190815260200160002054905092915050565b60007fd9b67a26000000000000000000000000000000000000000000000000000000007bffffffffffffffffffffffffffffffffffffffffffffffffffffffff1916827bffffffffffffffffffffffffffffffffffffffffffffffffffffffff191614806106a657507f0e89341c000000000000000000000000000000000000000000000000000000007bffffffffffffffffffffffffffffffffffffffffffffffffffffffff1916827bffffffffffffffffffffffffffffffffffffffffffffffffffffffff1916145b806106b657506106b582610eb7565b5b9050919050565b60606040518060400160405280600b81526020017f436f6e73756d61626c6573000000000000000000000000000000000000000000815250905090565b6060609761070783610f21565b604051602001610718929190612b89565b6040516020818303038152906040529050919050565b609860003373ffffffffffffffffffffffffffffffffffffffff1673ffffffffffffffffffffffffffffffffffffffff16815260200190815260200160002060009054906101000a900460ff166107b1576040517fea8e4eb500000000000000000000000000000000000000000000000000000000815260040160405180910390fd5b6107cc83838360405180602001604052806000815250610fef565b505050565b60006107db610b3e565b67ffffffffffffffff164201905063389a75e1600c5233600052806020600c2055337fdbf36a107da19e49527a7176a1babf963b4b0ff8cde35ee35d6cd8f1f9ac7e1d600080a250565b61082d6111a0565b73ffffffffffffffffffffffffffffffffffffffff168573ffffffffffffffffffffffffffffffffffffffff16148061087357506108728561086d6111a0565b610b49565b5b6108b2576040517f08c379a00000000000000000000000000000000000000000000000000000000081526004016108a990612c1f565b60405180910390fd5b6108bf85858585856111a8565b5050505050565b6060815183511461090c576040517f08c379a000000000000000000000000000000000000000000000000000000000815260040161090390612cb1565b60405180910390fd5b6000835167ffffffffffffffff8111156109295761092861221f565b5b6040519080825280602002602001820160405280156109575781602001602082028036833780820191505090505b50905060005b84518110156109d4576109a485828151811061097c5761097b612cd1565b5b602002602001015185838151811061099757610996612cd1565b5b6020026020010151610512565b8282815181106109b7576109b6612cd1565b5b602002602001018181525050806109cd90612d2f565b905061095d565b508091505092915050565b63389a75e1600c523360005260006020600c2055337ffa7b8eab7da67f412cc9575ed43464468f9bfbae89d1675917346ca6d8fe3c92600080a2565b610a236114cc565b610a2d60006114e9565b565b60986020528060005260406000206000915054906101000a900460ff1681565b6000638b78c6d81954905090565b60606040518060400160405280600b81526020017f636f6e73756d61626c6573000000000000000000000000000000000000000000815250905090565b60978054610aa790612a84565b80601f0160208091040260200160405190810160405280929190818152602001828054610ad390612a84565b8015610b205780601f10610af557610100808354040283529160200191610b20565b820191906000526020600020905b815481529060010190602001808311610b0357829003601f168201915b505050505081565b610b3a610b336111a0565b8383611527565b5050565b60006202a300905090565b6000606660008473ffffffffffffffffffffffffffffffffffffffff1673ffffffffffffffffffffffffffffffffffffffff16815260200190815260200160002060008373ffffffffffffffffffffffffffffffffffffffff1673ffffffffffffffffffffffffffffffffffffffff16815260200190815260200160002060009054906101000a900460ff16905092915050565b610be56114cc565b63389a75e1600c52806000526020600c208054421115610c0d57636f5e88186000526004601cfd5b6000815550610c1b816114e9565b50565b610c266111a0565b73ffffffffffffffffffffffffffffffffffffffff168573ffffffffffffffffffffffffffffffffffffffff161480610c6c5750610c6b85610c666111a0565b610b49565b5b610cab576040517f08c379a0000000000000000000000000000000000000000000000000000000008152600401610ca290612c1f565b60405180910390fd5b610cb88585858585611693565b5050505050565b610cc76114cc565b8060601b610cdd57637448fbae6000526004601cfd5b610ce6816114e9565b50565b60008060019054906101000a900460ff16159050808015610d1a5750600160008054906101000a900460ff1660ff16105b80610d475750610d2930611931565b158015610d465750600160008054906101000a900460ff1660ff16145b5b610d86576040517f08c379a0000000000000000000000000000000000000000000000000000000008152600401610d7d90612de9565b60405180910390fd5b60016000806101000a81548160ff021916908360ff1602179055508015610dc3576001600060016101000a81548160ff0219169083151502179055505b610dcc33611954565b8160979081610ddb9190612fa0565b508015610e355760008060016101000a81548160ff0219169083151502179055507f7f26b83ff96e1f2b6a682f133852f6798a09c465da95921460cefb38474024986001604051610e2c91906130ba565b60405180910390a15b5050565b610e416114cc565b80609860008473ffffffffffffffffffffffffffffffffffffffff1673ffffffffffffffffffffffffffffffffffffffff16815260200190815260200160002060006101000a81548160ff0219169083151502179055505050565b600063389a75e1600c52816000526020600c20549050919050565b60007f01ffc9a7000000000000000000000000000000000000000000000000000000007bffffffffffffffffffffffffffffffffffffffffffffffffffffffff1916827bffffffffffffffffffffffffffffffffffffffffffffffffffffffff1916149050919050565b606060006001610f3084611990565b01905060008167ffffffffffffffff811115610f4f57610f4e61221f565b5b6040519080825280601f01601f191660200182016040528015610f815781602001600182028036833780820191505090505b509050600082602001820190505b600115610fe4578080600190039150507f3031323334353637383961626364656600000000000000000000000000000000600a86061a8153600a8581610fd857610fd76130d5565b5b04945060008503610f8f575b819350505050919050565b600073ffffffffffffffffffffffffffffffffffffffff168473ffffffffffffffffffffffffffffffffffffffff160361105e576040517f08c379a000000000000000000000000000000000000000000000000000000000815260040161105590613176565b60405180910390fd5b60006110686111a0565b9050600061107585611ae3565b9050600061108285611ae3565b905061109383600089858589611b5d565b846065600088815260200190815260200160002060008973ffffffffffffffffffffffffffffffffffffffff1673ffffffffffffffffffffffffffffffffffffffff16815260200190815260200160002060008282546110f39190613196565b925050819055508673ffffffffffffffffffffffffffffffffffffffff16600073ffffffffffffffffffffffffffffffffffffffff168473ffffffffffffffffffffffffffffffffffffffff167fc3d58168c5ae7397731d063d5bbf3d657854427343f4c083240f7aacaa2d0f6289896040516111719291906131ca565b60405180910390a461118883600089858589611b65565b61119783600089898989611b6d565b50505050505050565b600033905090565b81518351146111ec576040517f08c379a00000000000000000000000000000000000000000000000000000000081526004016111e390613265565b60405180910390fd5b600073ffffffffffffffffffffffffffffffffffffffff168473ffffffffffffffffffffffffffffffffffffffff160361125b576040517f08c379a0000000000000000000000000000000000000000000000000000000008152600401611252906132f7565b60405180910390fd5b60006112656111a0565b9050611275818787878787611b5d565b60005b845181101561142957600085828151811061129657611295612cd1565b5b6020026020010151905060008583815181106112b5576112b4612cd1565b5b6020026020010151905060006065600084815260200190815260200160002060008b73ffffffffffffffffffffffffffffffffffffffff1673ffffffffffffffffffffffffffffffffffffffff16815260200190815260200160002054905081811015611357576040517f08c379a000000000000000000000000000000000000000000000000000000000815260040161134e90613389565b60405180910390fd5b8181036065600085815260200190815260200160002060008c73ffffffffffffffffffffffffffffffffffffffff1673ffffffffffffffffffffffffffffffffffffffff16815260200190815260200160002081905550816065600085815260200190815260200160002060008b73ffffffffffffffffffffffffffffffffffffffff1673ffffffffffffffffffffffffffffffffffffffff168152602001908152602001600020600082825461140e9190613196565b925050819055505050508061142290612d2f565b9050611278565b508473ffffffffffffffffffffffffffffffffffffffff168673ffffffffffffffffffffffffffffffffffffffff168273ffffffffffffffffffffffffffffffffffffffff167f4a39dc06d4c0dbc64b70af90fd698a233a518aa5d07e595d983b8c0526c8f7fb87876040516114a09291906133a9565b60405180910390a46114b6818787878787611b65565b6114c4818787878787611d44565b505050505050565b638b78c6d8195433146114e7576382b429006000526004601cfd5b565b638b78c6d8198160601b60601c91508181547f8be0079c531659141344cd1fd0a4f28419497f9722a3daafe3b4186f6b6457e0600080a38181555050565b8173ffffffffffffffffffffffffffffffffffffffff168373ffffffffffffffffffffffffffffffffffffffff1603611595576040517f08c379a000000000000000000000000000000000000000000000000000000000815260040161158c90613452565b60405180910390fd5b80606660008573ffffffffffffffffffffffffffffffffffffffff1673ffffffffffffffffffffffffffffffffffffffff16815260200190815260200160002060008473ffffffffffffffffffffffffffffffffffffffff1673ffffffffffffffffffffffffffffffffffffffff16815260200190815260200160002060006101000a81548160ff0219169083151502179055508173ffffffffffffffffffffffffffffffffffffffff168373ffffffffffffffffffffffffffffffffffffffff167f17307eab39ab6107e8899845ad3d59bd9653f200f220920489ca2b5937696c318360405161168691906120cd565b60405180910390a3505050565b600073ffffffffffffffffffffffffffffffffffffffff168473ffffffffffffffffffffffffffffffffffffffff1603611702576040517f08c379a00000000000000000000000000000000000000000000000000000000081526004016116f9906132f7565b60405180910390fd5b600061170c6111a0565b9050600061171985611ae3565b9050600061172685611ae3565b9050611736838989858589611b5d565b60006065600088815260200190815260200160002060008a73ffffffffffffffffffffffffffffffffffffffff1673ffffffffffffffffffffffffffffffffffffffff168152602001908152602001600020549050858110156117ce576040517f08c379a00000000000000000000000000000000000000000000000000000000081526004016117c590613389565b60405180910390fd5b8581036065600089815260200190815260200160002060008b73ffffffffffffffffffffffffffffffffffffffff1673ffffffffffffffffffffffffffffffffffffffff16815260200190815260200160002081905550856065600089815260200190815260200160002060008a73ffffffffffffffffffffffffffffffffffffffff1673ffffffffffffffffffffffffffffffffffffffff16815260200190815260200160002060008282546118859190613196565b925050819055508773ffffffffffffffffffffffffffffffffffffffff168973ffffffffffffffffffffffffffffffffffffffff168573ffffffffffffffffffffffffffffffffffffffff167fc3d58168c5ae7397731d063d5bbf3d657854427343f4c083240f7aacaa2d0f628a8a6040516119029291906131ca565b60405180910390a4611918848a8a86868a611b65565b611926848a8a8a8a8a611b6d565b505050505050505050565b6000808273ffffffffffffffffffffffffffffffffffffffff163b119050919050565b8060601b60601c905080638b78c6d819558060007f8be0079c531659141344cd1fd0a4f28419497f9722a3daafe3b4186f6b6457e0600080a350565b600080600090507a184f03e93ff9f4daa797ed6e38ed64bf6a1f01000000000000000083106119ee577a184f03e93ff9f4daa797ed6e38ed64bf6a1f01000000000000000083816119e4576119e36130d5565b5b0492506040810190505b6d04ee2d6d415b85acef81000000008310611a2b576d04ee2d6d415b85acef81000000008381611a2157611a206130d5565b5b0492506020810190505b662386f26fc100008310611a5a57662386f26fc100008381611a5057611a4f6130d5565b5b0492506010810190505b6305f5e1008310611a83576305f5e1008381611a7957611a786130d5565b5b0492506008810190505b6127108310611aa8576127108381611a9e57611a9d6130d5565b5b0492506004810190505b60648310611acb5760648381611ac157611ac06130d5565b5b0492506002810190505b600a8310611ada576001810190505b80915050919050565b60606000600167ffffffffffffffff811115611b0257611b0161221f565b5b604051908082528060200260200182016040528015611b305781602001602082028036833780820191505090505b5090508281600081518110611b4857611b47612cd1565b5b60200260200101818152505080915050919050565b505050505050565b505050505050565b611b8c8473ffffffffffffffffffffffffffffffffffffffff16611931565b15611d3c578373ffffffffffffffffffffffffffffffffffffffff1663f23a6e6187878686866040518663ffffffff1660e01b8152600401611bd29594939291906134c7565b6020604051808303816000875af1925050508015611c0e57506040513d601f19601f82011682018060405250810190611c0b9190613536565b60015b611cb357611c1a613570565b806308c379a003611c765750611c2e613592565b80611c395750611c78565b806040517f08c379a0000000000000000000000000000000000000000000000000000000008152600401611c6d9190612178565b60405180910390fd5b505b6040517f08c379a0000000000000000000000000000000000000000000000000000000008152600401611caa90613694565b60405180910390fd5b63f23a6e6160e01b7bffffffffffffffffffffffffffffffffffffffffffffffffffffffff1916817bffffffffffffffffffffffffffffffffffffffffffffffffffffffff191614611d3a576040517f08c379a0000000000000000000000000000000000000000000000000000000008152600401611d3190613726565b60405180910390fd5b505b505050505050565b611d638473ffffffffffffffffffffffffffffffffffffffff16611931565b15611f13578373ffffffffffffffffffffffffffffffffffffffff1663bc197c8187878686866040518663ffffffff1660e01b8152600401611da9959493929190613746565b6020604051808303816000875af1925050508015611de557506040513d601f19601f82011682018060405250810190611de29190613536565b60015b611e8a57611df1613570565b806308c379a003611e4d5750611e05613592565b80611e105750611e4f565b806040517f08c379a0000000000000000000000000000000000000000000000000000000008152600401611e449190612178565b60405180910390fd5b505b6040517f08c379a0000000000000000000000000000000000000000000000000000000008152600401611e8190613694565b60405180910390fd5b63bc197c8160e01b7bffffffffffffffffffffffffffffffffffffffffffffffffffffffff1916817bffffffffffffffffffffffffffffffffffffffffffffffffffffffff191614611f11576040517f08c379a0000000000000000000000000000000000000000000000000000000008152600401611f0890613726565b60405180910390fd5b505b505050505050565b6000604051905090565b600080fd5b600080fd5b600073ffffffffffffffffffffffffffffffffffffffff82169050919050565b6000611f5a82611f2f565b9050919050565b611f6a81611f4f565b8114611f7557600080fd5b50565b600081359050611f8781611f61565b92915050565b6000819050919050565b611fa081611f8d565b8114611fab57600080fd5b50565b600081359050611fbd81611f97565b92915050565b60008060408385031215611fda57611fd9611f25565b5b6000611fe885828601611f78565b9250506020611ff985828601611fae565b9150509250929050565b61200c81611f8d565b82525050565b60006020820190506120276000830184612003565b92915050565b60007fffffffff0000000000000000000000000000000000000000000000000000000082169050919050565b6120628161202d565b811461206d57600080fd5b50565b60008135905061207f81612059565b92915050565b60006020828403121561209b5761209a611f25565b5b60006120a984828501612070565b91505092915050565b60008115159050919050565b6120c7816120b2565b82525050565b60006020820190506120e260008301846120be565b92915050565b600081519050919050565b600082825260208201905092915050565b60005b83811015612122578082015181840152602081019050612107565b60008484015250505050565b6000601f19601f8301169050919050565b600061214a826120e8565b61215481856120f3565b9350612164818560208601612104565b61216d8161212e565b840191505092915050565b60006020820190508181036000830152612192818461213f565b905092915050565b6000602082840312156121b0576121af611f25565b5b60006121be84828501611fae565b91505092915050565b6000806000606084860312156121e0576121df611f25565b5b60006121ee86828701611f78565b93505060206121ff86828701611fae565b925050604061221086828701611fae565b9150509250925092565b600080fd5b7f4e487b7100000000000000000000000000000000000000000000000000000000600052604160045260246000fd5b6122578261212e565b810181811067ffffffffffffffff821117156122765761227561221f565b5b80604052505050565b6000612289611f1b565b9050612295828261224e565b919050565b600067ffffffffffffffff8211156122b5576122b461221f565b5b602082029050602081019050919050565b600080fd5b60006122de6122d98461229a565b61227f565b90508083825260208201905060208402830185811115612301576123006122c6565b5b835b8181101561232a57806123168882611fae565b845260208401935050602081019050612303565b5050509392505050565b600082601f8301126123495761234861221a565b5b81356123598482602086016122cb565b91505092915050565b600080fd5b600067ffffffffffffffff8211156123825761238161221f565b5b61238b8261212e565b9050602081019050919050565b82818337600083830152505050565b60006123ba6123b584612367565b61227f565b9050828152602081018484840111156123d6576123d5612362565b5b6123e1848285612398565b509392505050565b600082601f8301126123fe576123fd61221a565b5b813561240e8482602086016123a7565b91505092915050565b600080600080600060a0868803121561243357612432611f25565b5b600061244188828901611f78565b955050602061245288828901611f78565b945050604086013567ffffffffffffffff81111561247357612472611f2a565b5b61247f88828901612334565b935050606086013567ffffffffffffffff8111156124a05761249f611f2a565b5b6124ac88828901612334565b925050608086013567ffffffffffffffff8111156124cd576124cc611f2a565b5b6124d9888289016123e9565b9150509295509295909350565b600067ffffffffffffffff8211156125015761250061221f565b5b602082029050602081019050919050565b6000612525612520846124e6565b61227f565b90508083825260208201905060208402830185811115612548576125476122c6565b5b835b81811015612571578061255d8882611f78565b84526020840193505060208101905061254a565b5050509392505050565b600082601f8301126125905761258f61221a565b5b81356125a0848260208601612512565b91505092915050565b600080604083850312156125c0576125bf611f25565b5b600083013567ffffffffffffffff8111156125de576125dd611f2a565b5b6125ea8582860161257b565b925050602083013567ffffffffffffffff81111561260b5761260a611f2a565b5b61261785828601612334565b9150509250929050565b600081519050919050565b600082825260208201905092915050565b6000819050602082019050919050565b61265681611f8d565b82525050565b6000612668838361264d565b60208301905092915050565b6000602082019050919050565b600061268c82612621565b612696818561262c565b93506126a18361263d565b8060005b838110156126d25781516126b9888261265c565b97506126c483612674565b9250506001810190506126a5565b5085935050505092915050565b600060208201905081810360008301526126f98184612681565b905092915050565b60006020828403121561271757612716611f25565b5b600061272584828501611f78565b91505092915050565b61273781611f4f565b82525050565b6000602082019050612752600083018461272e565b92915050565b612761816120b2565b811461276c57600080fd5b50565b60008135905061277e81612758565b92915050565b6000806040838503121561279b5761279a611f25565b5b60006127a985828601611f78565b92505060206127ba8582860161276f565b9150509250929050565b600067ffffffffffffffff82169050919050565b6127e1816127c4565b82525050565b60006020820190506127fc60008301846127d8565b92915050565b6000806040838503121561281957612818611f25565b5b600061282785828601611f78565b925050602061283885828601611f78565b9150509250929050565b600080600080600060a0868803121561285e5761285d611f25565b5b600061286c88828901611f78565b955050602061287d88828901611f78565b945050604061288e88828901611fae565b935050606061289f88828901611fae565b925050608086013567ffffffffffffffff8111156128c0576128bf611f2a565b5b6128cc888289016123e9565b9150509295509295909350565b600067ffffffffffffffff8211156128f4576128f361221f565b5b6128fd8261212e565b9050602081019050919050565b600061291d612918846128d9565b61227f565b90508281526020810184848401111561293957612938612362565b5b612944848285612398565b509392505050565b600082601f8301126129615761296061221a565b5b813561297184826020860161290a565b91505092915050565b6000602082840312156129905761298f611f25565b5b600082013567ffffffffffffffff8111156129ae576129ad611f2a565b5b6129ba8482850161294c565b91505092915050565b7f455243313135353a2061646472657373207a65726f206973206e6f742061207660008201527f616c6964206f776e657200000000000000000000000000000000000000000000602082015250565b6000612a1f602a836120f3565b9150612a2a826129c3565b604082019050919050565b60006020820190508181036000830152612a4e81612a12565b9050919050565b7f4e487b7100000000000000000000000000000000000000000000000000000000600052602260045260246000fd5b60006002820490506001821680612a9c57607f821691505b602082108103612aaf57612aae612a55565b5b50919050565b600081905092915050565b60008190508160005260206000209050919050565b60008154612ae281612a84565b612aec8186612ab5565b94506001821660008114612b075760018114612b1c57612b4f565b60ff1983168652811515820286019350612b4f565b612b2585612ac0565b60005b83811015612b4757815481890152600182019150602081019050612b28565b838801955050505b50505092915050565b6000612b63826120e8565b612b6d8185612ab5565b9350612b7d818560208601612104565b80840191505092915050565b6000612b958285612ad5565b9150612ba18284612b58565b91508190509392505050565b7f455243313135353a2063616c6c6572206973206e6f7420746f6b656e206f776e60008201527f6572206f7220617070726f766564000000000000000000000000000000000000602082015250565b6000612c09602e836120f3565b9150612c1482612bad565b604082019050919050565b60006020820190508181036000830152612c3881612bfc565b9050919050565b7f455243313135353a206163636f756e747320616e6420696473206c656e67746860008201527f206d69736d617463680000000000000000000000000000000000000000000000602082015250565b6000612c9b6029836120f3565b9150612ca682612c3f565b604082019050919050565b60006020820190508181036000830152612cca81612c8e565b9050919050565b7f4e487b7100000000000000000000000000000000000000000000000000000000600052603260045260246000fd5b7f4e487b7100000000000000000000000000000000000000000000000000000000600052601160045260246000fd5b6000612d3a82611f8d565b91507fffffffffffffffffffffffffffffffffffffffffffffffffffffffffffffffff8203612d6c57612d6b612d00565b5b600182019050919050565b7f496e697469616c697a61626c653a20636f6e747261637420697320616c72656160008201527f647920696e697469616c697a6564000000000000000000000000000000000000602082015250565b6000612dd3602e836120f3565b9150612dde82612d77565b604082019050919050565b60006020820190508181036000830152612e0281612dc6565b9050919050565b60006020601f8301049050919050565b600082821b905092915050565b600060088302612e567fffffffffffffffffffffffffffffffffffffffffffffffffffffffffffffffff82612e19565b612e608683612e19565b95508019841693508086168417925050509392505050565b6000819050919050565b6000612e9d612e98612e9384611f8d565b612e78565b611f8d565b9050919050565b6000819050919050565b612eb783612e82565b612ecb612ec382612ea4565b848454612e26565b825550505050565b600090565b612ee0612ed3565b612eeb818484612eae565b505050565b5b81811015612f0f57612f04600082612ed8565b600181019050612ef1565b5050565b601f821115612f5457612f2581612ac0565b612f2e84612e09565b81016020851015612f3d578190505b612f51612f4985612e09565b830182612ef0565b50505b505050565b600082821c905092915050565b6000612f7760001984600802612f59565b1980831691505092915050565b6000612f908383612f66565b9150826002028217905092915050565b612fa9826120e8565b67ffffffffffffffff811115612fc257612fc161221f565b5b612fcc8254612a84565b612fd7828285612f13565b600060209050601f83116001811461300a5760008415612ff8578287015190505b6130028582612f84565b86555061306a565b601f19841661301886612ac0565b60005b828110156130405784890151825560018201915060208501945060208101905061301b565b8683101561305d5784890151613059601f891682612f66565b8355505b6001600288020188555050505b505050505050565b6000819050919050565b600060ff82169050919050565b60006130a461309f61309a84613072565b612e78565b61307c565b9050919050565b6130b481613089565b82525050565b60006020820190506130cf60008301846130ab565b92915050565b7f4e487b7100000000000000000000000000000000000000000000000000000000600052601260045260246000fd5b7f455243313135353a206d696e7420746f20746865207a65726f2061646472657360008201527f7300000000000000000000000000000000000000000000000000000000000000602082015250565b60006131606021836120f3565b915061316b82613104565b604082019050919050565b6000602082019050818103600083015261318f81613153565b9050919050565b60006131a182611f8d565b91506131ac83611f8d565b92508282019050808211156131c4576131c3612d00565b5b92915050565b60006040820190506131df6000830185612003565b6131ec6020830184612003565b9392505050565b7f455243313135353a2069647320616e6420616d6f756e7473206c656e6774682060008201527f6d69736d61746368000000000000000000000000000000000000000000000000602082015250565b600061324f6028836120f3565b915061325a826131f3565b604082019050919050565b6000602082019050818103600083015261327e81613242565b9050919050565b7f455243313135353a207472616e7366657220746f20746865207a65726f20616460008201527f6472657373000000000000000000000000000000000000000000000000000000602082015250565b60006132e16025836120f3565b91506132ec82613285565b604082019050919050565b60006020820190508181036000830152613310816132d4565b9050919050565b7f455243313135353a20696e73756666696369656e742062616c616e636520666f60008201527f72207472616e7366657200000000000000000000000000000000000000000000602082015250565b6000613373602a836120f3565b915061337e82613317565b604082019050919050565b600060208201905081810360008301526133a281613366565b9050919050565b600060408201905081810360008301526133c38185612681565b905081810360208301526133d78184612681565b90509392505050565b7f455243313135353a2073657474696e6720617070726f76616c2073746174757360008201527f20666f722073656c660000000000000000000000000000000000000000000000602082015250565b600061343c6029836120f3565b9150613447826133e0565b604082019050919050565b6000602082019050818103600083015261346b8161342f565b9050919050565b600081519050919050565b600082825260208201905092915050565b600061349982613472565b6134a3818561347d565b93506134b3818560208601612104565b6134bc8161212e565b840191505092915050565b600060a0820190506134dc600083018861272e565b6134e9602083018761272e565b6134f66040830186612003565b6135036060830185612003565b8181036080830152613515818461348e565b90509695505050505050565b60008151905061353081612059565b92915050565b60006020828403121561354c5761354b611f25565b5b600061355a84828501613521565b91505092915050565b60008160e01c9050919050565b600060033d111561358f5760046000803e61358c600051613563565b90505b90565b600060443d1061361f576135a4611f1b565b60043d036004823e80513d602482011167ffffffffffffffff821117156135cc57505061361f565b808201805167ffffffffffffffff8111156135ea575050505061361f565b80602083010160043d03850181111561360757505050505061361f565b6136168260200185018661224e565b82955050505050505b90565b7f455243313135353a207472616e7366657220746f206e6f6e2d4552433131353560008201527f526563656976657220696d706c656d656e746572000000000000000000000000602082015250565b600061367e6034836120f3565b915061368982613622565b604082019050919050565b600060208201905081810360008301526136ad81613671565b9050919050565b7f455243313135353a204552433131353552656365697665722072656a6563746560008201527f6420746f6b656e73000000000000000000000000000000000000000000000000602082015250565b60006137106028836120f3565b915061371b826136b4565b604082019050919050565b6000602082019050818103600083015261373f81613703565b9050919050565b600060a08201905061375b600083018861272e565b613768602083018761272e565b818103604083015261377a8186612681565b9050818103606083015261378e8185612681565b905081810360808301526137a2818461348e565b9050969550505050505056fea264697066735822122055f9e5cafc8f31f173acafdf8347bebea664fa4ba424e690d7afaf04038ea2b564736f6c63430008120033",
  "devdoc": {
    "errors": {
      "NewOwnerIsZeroAddress()": [
        {
          "details": "The `newOwner` cannot be the zero address."
        }
      ],
      "NoHandoverRequest()": [
        {
          "details": "The `pendingOwner` does not have a valid handover request."
        }
      ],
      "Unauthorized()": [
        {
          "details": "The caller is not authorized to call the function."
        }
      ]
    },
    "events": {
      "ApprovalForAll(address,address,bool)": {
        "details": "Emitted when `account` grants or revokes permission to `operator` to transfer their tokens, according to `approved`."
      },
      "Initialized(uint8)": {
        "details": "Triggered when the contract has been initialized or reinitialized."
      },
      "OwnershipHandoverCanceled(address)": {
        "details": "The ownership handover to `pendingOwner` has been canceled."
      },
      "OwnershipHandoverRequested(address)": {
        "details": "An ownership handover to `pendingOwner` has been requested."
      },
      "OwnershipTransferred(address,address)": {
        "details": "The ownership is transferred from `oldOwner` to `newOwner`. This event is intentionally kept the same as OpenZeppelin's Ownable to be compatible with indexers and [EIP-173](https://eips.ethereum.org/EIPS/eip-173), despite it not being as lightweight as a single argument event."
      },
      "TransferBatch(address,address,address,uint256[],uint256[])": {
        "details": "Equivalent to multiple {TransferSingle} events, where `operator`, `from` and `to` are the same for all transfers."
      },
      "TransferSingle(address,address,address,uint256,uint256)": {
        "details": "Emitted when `value` tokens of token type `id` are transferred from `from` to `to` by `operator`."
      },
      "URI(string,uint256)": {
        "details": "Emitted when the URI for token type `id` changes to `value`, if it is a non-programmatic URI. If an {URI} event was emitted for `id`, the standard https://eips.ethereum.org/EIPS/eip-1155#metadata-extensions[guarantees] that `value` will equal the value returned by {IERC1155MetadataURI-uri}."
      }
    },
    "kind": "dev",
    "methods": {
      "balanceOf(address,uint256)": {
        "details": "See {IERC1155-balanceOf}. Requirements: - `account` cannot be the zero address."
      },
      "balanceOfBatch(address[],uint256[])": {
        "details": "See {IERC1155-balanceOfBatch}. Requirements: - `accounts` and `ids` must have the same length."
      },
      "cancelOwnershipHandover()": {
        "details": "Cancels the two-step ownership handover to the caller, if any."
      },
      "completeOwnershipHandover(address)": {
        "details": "Allows the owner to complete the two-step ownership handover to `pendingOwner`. Reverts if there is no existing ownership handover requested by `pendingOwner`."
      },
      "isApprovedForAll(address,address)": {
        "details": "See {IERC1155-isApprovedForAll}."
      },
      "owner()": {
        "details": "Returns the owner of the contract."
      },
      "ownershipHandoverExpiresAt(address)": {
        "details": "Returns the expiry timestamp for the two-step ownership handover to `pendingOwner`."
      },
      "ownershipHandoverValidFor()": {
        "details": "Returns how long a two-step ownership handover is valid for in seconds."
      },
      "renounceOwnership()": {
        "details": "Allows the owner to renounce their ownership."
      },
      "requestOwnershipHandover()": {
        "details": "Request a two-step ownership handover to the caller. The request will be automatically expire in 48 hours (172800 seconds) by default."
      },
      "safeBatchTransferFrom(address,address,uint256[],uint256[],bytes)": {
        "details": "See {IERC1155-safeBatchTransferFrom}."
      },
      "safeTransferFrom(address,address,uint256,uint256,bytes)": {
        "details": "See {IERC1155-safeTransferFrom}."
      },
      "setApprovalForAll(address,bool)": {
        "details": "See {IERC1155-setApprovalForAll}."
      },
      "supportsInterface(bytes4)": {
        "details": "See {IERC165-supportsInterface}."
      },
      "transferOwnership(address)": {
        "details": "Allows the owner to transfer the ownership to `newOwner`."
      }
    },
    "version": 1
  },
  "userdoc": {
    "kind": "user",
    "methods": {},
    "version": 1
  },
  "storageLayout": {
    "storage": [
      {
        "astId": 6,
        "contract": "contracts/Consumables.sol:Consumables",
        "label": "_initialized",
        "offset": 0,
        "slot": "0",
        "type": "t_uint8"
      },
      {
        "astId": 9,
        "contract": "contracts/Consumables.sol:Consumables",
        "label": "_initializing",
        "offset": 1,
        "slot": "0",
        "type": "t_bool"
      },
      {
        "astId": 1994,
        "contract": "contracts/Consumables.sol:Consumables",
        "label": "__gap",
        "offset": 0,
        "slot": "1",
        "type": "t_array(t_uint256)50_storage"
      },
      {
        "astId": 2213,
        "contract": "contracts/Consumables.sol:Consumables",
        "label": "__gap",
        "offset": 0,
        "slot": "51",
        "type": "t_array(t_uint256)50_storage"
      },
      {
        "astId": 197,
        "contract": "contracts/Consumables.sol:Consumables",
        "label": "_balances",
        "offset": 0,
        "slot": "101",
        "type": "t_mapping(t_uint256,t_mapping(t_address,t_uint256))"
      },
      {
        "astId": 203,
        "contract": "contracts/Consumables.sol:Consumables",
        "label": "_operatorApprovals",
        "offset": 0,
        "slot": "102",
        "type": "t_mapping(t_address,t_mapping(t_address,t_bool))"
      },
      {
        "astId": 205,
        "contract": "contracts/Consumables.sol:Consumables",
        "label": "_uri",
        "offset": 0,
        "slot": "103",
        "type": "t_string_storage"
      },
      {
        "astId": 1412,
        "contract": "contracts/Consumables.sol:Consumables",
        "label": "__gap",
        "offset": 0,
        "slot": "104",
        "type": "t_array(t_uint256)47_storage"
      },
      {
        "astId": 3112,
        "contract": "contracts/Consumables.sol:Consumables",
        "label": "baseUri",
        "offset": 0,
        "slot": "151",
        "type": "t_string_storage"
      },
      {
        "astId": 3116,
        "contract": "contracts/Consumables.sol:Consumables",
        "label": "allowedTo",
        "offset": 0,
        "slot": "152",
        "type": "t_mapping(t_address,t_bool)"
      }
    ],
    "types": {
      "t_address": {
        "encoding": "inplace",
        "label": "address",
        "numberOfBytes": "20"
      },
      "t_array(t_uint256)47_storage": {
        "base": "t_uint256",
        "encoding": "inplace",
        "label": "uint256[47]",
        "numberOfBytes": "1504"
      },
      "t_array(t_uint256)50_storage": {
        "base": "t_uint256",
        "encoding": "inplace",
        "label": "uint256[50]",
        "numberOfBytes": "1600"
      },
      "t_bool": {
        "encoding": "inplace",
        "label": "bool",
        "numberOfBytes": "1"
      },
      "t_mapping(t_address,t_bool)": {
        "encoding": "mapping",
        "key": "t_address",
        "label": "mapping(address => bool)",
        "numberOfBytes": "32",
        "value": "t_bool"
      },
      "t_mapping(t_address,t_mapping(t_address,t_bool))": {
        "encoding": "mapping",
        "key": "t_address",
        "label": "mapping(address => mapping(address => bool))",
        "numberOfBytes": "32",
        "value": "t_mapping(t_address,t_bool)"
      },
      "t_mapping(t_address,t_uint256)": {
        "encoding": "mapping",
        "key": "t_address",
        "label": "mapping(address => uint256)",
        "numberOfBytes": "32",
        "value": "t_uint256"
      },
      "t_mapping(t_uint256,t_mapping(t_address,t_uint256))": {
        "encoding": "mapping",
        "key": "t_uint256",
        "label": "mapping(uint256 => mapping(address => uint256))",
        "numberOfBytes": "32",
        "value": "t_mapping(t_address,t_uint256)"
      },
      "t_string_storage": {
        "encoding": "bytes",
        "label": "string",
        "numberOfBytes": "32"
      },
      "t_uint256": {
        "encoding": "inplace",
        "label": "uint256",
        "numberOfBytes": "32"
      },
      "t_uint8": {
        "encoding": "inplace",
        "label": "uint8",
        "numberOfBytes": "1"
      }
    }
  }
}