{
  "address": "0x0fb4027f54072e983a41ffb5A6fA196c8F6BC06E",
  "abi": [
    {
      "inputs": [],
      "name": "CannotClaimNow",
      "type": "error"
    },
    {
      "inputs": [],
      "name": "CsToHigh",
      "type": "error"
    },
    {
      "inputs": [],
      "name": "DevelopmentGroundIsLocked",
      "type": "error"
    },
    {
      "inputs": [],
      "name": "InvalidTokenForThisJob",
      "type": "error"
    },
    {
      "inputs": [],
      "name": "LengthsNotEqual",
      "type": "error"
    },
    {
      "inputs": [],
      "name": "NewOwnerIsZeroAddress",
      "type": "error"
    },
    {
      "inputs": [],
      "name": "NoHandoverRequest",
      "type": "error"
    },
    {
      "inputs": [],
      "name": "NoMoreAnimalsAllowed",
      "type": "error"
    },
    {
      "inputs": [],
      "name": "NotYourToken",
      "type": "error"
    },
    {
      "inputs": [],
      "name": "TokenIsStaked",
      "type": "error"
    },
    {
      "inputs": [],
      "name": "Unauthorized",
      "type": "error"
    },
    {
      "anonymous": false,
      "inputs": [
        {
          "indexed": true,
          "internalType": "address",
          "name": "owner",
          "type": "address"
        },
        {
          "indexed": true,
          "internalType": "uint256",
          "name": "tokenId",
          "type": "uint256"
        },
        {
          "indexed": true,
          "internalType": "uint256",
          "name": "animalsId",
          "type": "uint256"
        }
      ],
      "name": "BringInAnimalsToLaborGround",
      "type": "event"
    },
    {
      "anonymous": false,
      "inputs": [
        {
          "indexed": true,
          "internalType": "address",
          "name": "owner",
          "type": "address"
        },
        {
          "indexed": true,
          "internalType": "uint256",
          "name": "tokenId",
          "type": "uint256"
        }
      ],
      "name": "ClaimCollectable",
      "type": "event"
    },
    {
      "anonymous": false,
      "inputs": [
        {
          "indexed": true,
          "internalType": "address",
          "name": "owner",
          "type": "address"
        },
        {
          "indexed": true,
          "internalType": "uint256",
          "name": "tokenId",
          "type": "uint256"
        },
        {
          "indexed": true,
          "internalType": "uint256",
          "name": "supplyId",
          "type": "uint256"
        },
        {
          "indexed": false,
          "internalType": "enum Jobs",
          "name": "job",
          "type": "uint8"
        }
      ],
      "name": "EnterLaborGround",
      "type": "event"
    },
    {
      "anonymous": false,
      "inputs": [
        {
          "indexed": false,
          "internalType": "uint8",
          "name": "version",
          "type": "uint8"
        }
      ],
      "name": "Initialized",
      "type": "event"
    },
    {
      "anonymous": false,
      "inputs": [
        {
          "indexed": true,
          "internalType": "address",
          "name": "owner",
          "type": "address"
        },
        {
          "indexed": true,
          "internalType": "uint256",
          "name": "tokenId",
          "type": "uint256"
        }
      ],
      "name": "LeaveLaborGround",
      "type": "event"
    },
    {
      "anonymous": false,
      "inputs": [
        {
          "indexed": true,
          "internalType": "address",
          "name": "pendingOwner",
          "type": "address"
        }
      ],
      "name": "OwnershipHandoverCanceled",
      "type": "event"
    },
    {
      "anonymous": false,
      "inputs": [
        {
          "indexed": true,
          "internalType": "address",
          "name": "pendingOwner",
          "type": "address"
        }
      ],
      "name": "OwnershipHandoverRequested",
      "type": "event"
    },
    {
      "anonymous": false,
      "inputs": [
        {
          "indexed": true,
          "internalType": "address",
          "name": "oldOwner",
          "type": "address"
        },
        {
          "indexed": true,
          "internalType": "address",
          "name": "newOwner",
          "type": "address"
        }
      ],
      "name": "OwnershipTransferred",
      "type": "event"
    },
    {
      "anonymous": false,
      "inputs": [
        {
          "indexed": true,
          "internalType": "address",
          "name": "owner",
          "type": "address"
        },
        {
          "indexed": true,
          "internalType": "uint256",
          "name": "tokenId",
          "type": "uint256"
        },
        {
          "indexed": true,
          "internalType": "uint256",
          "name": "animalsId",
          "type": "uint256"
        }
      ],
      "name": "RemoveAnimalsFromLaborGround",
      "type": "event"
    },
    {
      "inputs": [],
      "name": "animals",
      "outputs": [
        {
          "internalType": "contract IERC1155Upgradeable",
          "name": "",
          "type": "address"
        }
      ],
      "stateMutability": "view",
      "type": "function"
    },
    {
      "inputs": [
        {
          "internalType": "uint256[]",
          "name": "_tokenId",
          "type": "uint256[]"
        },
        {
          "internalType": "uint256[]",
          "name": "_animalsId",
          "type": "uint256[]"
        }
      ],
      "name": "bringInAnimalsToLaborGround",
      "outputs": [],
      "stateMutability": "nonpayable",
      "type": "function"
    },
    {
      "inputs": [],
      "name": "cancelOwnershipHandover",
      "outputs": [],
      "stateMutability": "payable",
      "type": "function"
    },
    {
      "inputs": [
        {
          "internalType": "uint256[]",
          "name": "_tokenId",
          "type": "uint256[]"
        }
      ],
      "name": "claimCollectables",
      "outputs": [],
      "stateMutability": "nonpayable",
      "type": "function"
    },
    {
      "inputs": [
        {
          "internalType": "address",
          "name": "pendingOwner",
          "type": "address"
        }
      ],
      "name": "completeOwnershipHandover",
      "outputs": [],
      "stateMutability": "payable",
      "type": "function"
    },
    {
      "inputs": [],
      "name": "consumables",
      "outputs": [
        {
          "internalType": "contract IConsumables",
          "name": "",
          "type": "address"
        }
      ],
      "stateMutability": "view",
      "type": "function"
    },
    {
      "inputs": [
        {
          "internalType": "uint256[]",
          "name": "_tokenId",
          "type": "uint256[]"
        },
        {
          "internalType": "uint256[]",
          "name": "_supplyId",
          "type": "uint256[]"
        },
        {
          "internalType": "enum Jobs[]",
          "name": "_job",
          "type": "uint8[]"
        }
      ],
      "name": "enterLaborGround",
      "outputs": [],
      "stateMutability": "nonpayable",
      "type": "function"
    },
    {
      "inputs": [
        {
          "internalType": "address",
          "name": "_owner",
          "type": "address"
        }
      ],
      "name": "getLaborGroundFeInfo",
      "outputs": [
        {
          "components": [
            {
              "internalType": "uint64",
              "name": "timeLeft",
              "type": "uint64"
            },
            {
              "internalType": "uint64",
              "name": "tokenId",
              "type": "uint64"
            },
            {
              "internalType": "uint64",
              "name": "animalId",
              "type": "uint64"
            },
            {
              "internalType": "uint64",
              "name": "supplyId",
              "type": "uint64"
            }
          ],
          "internalType": "struct LaborGroundFeInfo[]",
          "name": "",
          "type": "tuple[]"
        }
      ],
      "stateMutability": "view",
      "type": "function"
    },
    {
      "inputs": [
        {
          "internalType": "uint256",
          "name": "_tokenId",
          "type": "uint256"
        }
      ],
      "name": "getLaborGroundInfo",
      "outputs": [
        {
          "components": [
            {
              "internalType": "address",
              "name": "owner",
              "type": "address"
            },
            {
              "internalType": "uint32",
              "name": "lockTime",
              "type": "uint32"
            },
            {
              "internalType": "uint32",
              "name": "supplyId",
              "type": "uint32"
            },
            {
              "internalType": "uint32",
              "name": "animalId",
              "type": "uint32"
            },
            {
              "internalType": "uint256",
              "name": "requestId",
              "type": "uint256"
            },
            {
              "internalType": "enum Jobs",
              "name": "job",
              "type": "uint8"
            }
          ],
          "internalType": "struct LaborGround",
          "name": "lg",
          "type": "tuple"
        }
      ],
      "stateMutability": "view",
      "type": "function"
    },
    {
      "inputs": [
        {
          "internalType": "address",
          "name": "_owner",
          "type": "address"
        }
      ],
      "name": "getStakedTokens",
      "outputs": [
        {
          "internalType": "uint256[]",
          "name": "",
          "type": "uint256[]"
        }
      ],
      "stateMutability": "view",
      "type": "function"
    },
    {
      "inputs": [
        {
          "internalType": "address",
          "name": "_pits",
          "type": "address"
        },
        {
          "internalType": "address",
          "name": "_animals",
          "type": "address"
        },
        {
          "internalType": "address",
          "name": "_supplies",
          "type": "address"
        },
        {
          "internalType": "address",
          "name": "_consumables",
          "type": "address"
        },
        {
          "internalType": "address",
          "name": "_neandersmol",
          "type": "address"
        },
        {
          "internalType": "address",
          "name": "_randomizer",
          "type": "address"
        }
      ],
      "name": "initialize",
      "outputs": [],
      "stateMutability": "nonpayable",
      "type": "function"
    },
    {
      "inputs": [
        {
          "internalType": "uint256[]",
          "name": "_tokenId",
          "type": "uint256[]"
        }
      ],
      "name": "leaveLaborGround",
      "outputs": [],
      "stateMutability": "nonpayable",
      "type": "function"
    },
    {
      "inputs": [],
      "name": "neandersmol",
      "outputs": [
        {
          "internalType": "contract INeandersmol",
          "name": "",
          "type": "address"
        }
      ],
      "stateMutability": "view",
      "type": "function"
    },
    {
      "inputs": [
        {
          "internalType": "address",
          "name": "",
          "type": "address"
        },
        {
          "internalType": "address",
          "name": "",
          "type": "address"
        },
        {
          "internalType": "uint256",
          "name": "",
          "type": "uint256"
        },
        {
          "internalType": "uint256",
          "name": "",
          "type": "uint256"
        },
        {
          "internalType": "bytes",
          "name": "",
          "type": "bytes"
        }
      ],
      "name": "onERC1155Received",
      "outputs": [
        {
          "internalType": "bytes4",
          "name": "",
          "type": "bytes4"
        }
      ],
      "stateMutability": "pure",
      "type": "function"
    },
    {
      "inputs": [],
      "name": "owner",
      "outputs": [
        {
          "internalType": "address",
          "name": "result",
          "type": "address"
        }
      ],
      "stateMutability": "view",
      "type": "function"
    },
    {
      "inputs": [
        {
          "internalType": "address",
          "name": "pendingOwner",
          "type": "address"
        }
      ],
      "name": "ownershipHandoverExpiresAt",
      "outputs": [
        {
          "internalType": "uint256",
          "name": "result",
          "type": "uint256"
        }
      ],
      "stateMutability": "view",
      "type": "function"
    },
    {
      "inputs": [],
      "name": "ownershipHandoverValidFor",
      "outputs": [
        {
          "internalType": "uint64",
          "name": "",
          "type": "uint64"
        }
      ],
      "stateMutability": "view",
      "type": "function"
    },
    {
      "inputs": [],
      "name": "pits",
      "outputs": [
        {
          "internalType": "contract IPits",
          "name": "",
          "type": "address"
        }
      ],
      "stateMutability": "view",
      "type": "function"
    },
    {
      "inputs": [
        {
          "internalType": "uint256[]",
          "name": "_tokenId",
          "type": "uint256[]"
        }
      ],
      "name": "removeAnimalsFromLaborGround",
      "outputs": [],
      "stateMutability": "nonpayable",
      "type": "function"
    },
    {
      "inputs": [],
      "name": "renounceOwnership",
      "outputs": [],
      "stateMutability": "payable",
      "type": "function"
    },
    {
      "inputs": [],
      "name": "requestOwnershipHandover",
      "outputs": [],
      "stateMutability": "payable",
      "type": "function"
    },
    {
      "inputs": [
        {
          "internalType": "address",
          "name": "_pits",
          "type": "address"
        },
        {
          "internalType": "address",
          "name": "_animals",
          "type": "address"
        },
        {
          "internalType": "address",
          "name": "_supplies",
          "type": "address"
        },
        {
          "internalType": "address",
          "name": "_consumables",
          "type": "address"
        },
        {
          "internalType": "address",
          "name": "_neandersmol",
          "type": "address"
        },
        {
          "internalType": "address",
          "name": "_randomizer",
          "type": "address"
        }
      ],
      "name": "setAddress",
      "outputs": [],
      "stateMutability": "nonpayable",
      "type": "function"
    },
    {
      "inputs": [],
      "name": "supplies",
      "outputs": [
        {
          "internalType": "contract IERC1155Upgradeable",
          "name": "",
          "type": "address"
        }
      ],
      "stateMutability": "view",
      "type": "function"
    },
    {
      "inputs": [
        {
          "internalType": "address",
          "name": "newOwner",
          "type": "address"
        }
      ],
      "name": "transferOwnership",
      "outputs": [],
      "stateMutability": "payable",
      "type": "function"
    }
  ],
  "transactionHash": "0x4df5b8f491ba7e6b5c96c85337d65543e18096c934e07d53a2a7fdb2f0eaa693",
  "args": [],
  "numDeployments": 3,
  "solcInputHash": "1bf3a2ea9c4874b44cf17aa1ddce101d",
  "bytecode": "0x608060405234801561001057600080fd5b50613ecd806100206000396000f3fe60806040526004361061014b5760003560e01c8063b3259e14116100b6578063e95252441161006f578063e95252441461041d578063f04e283e14610448578063f23a6e6114610464578063f2fde38b146104a1578063fda72552146104bd578063fee81cf4146104e65761014b565b8063b3259e1414610311578063bd69b1571461034e578063c7db6e4314610377578063cc2a9a5b146103a0578063d4053d5b146103c9578063d7533f02146103f25761014b565b80637fd4bfd5116101085780637fd4bfd5146102115780638da5cb5b1461023c5780638efa88741461026757806390528e11146102925780639c1a2678146102bd578063b00bec65146102e65761014b565b8063256929621461015057806354d1f13d1461015a57806363c28db1146101645780636addfe57146101a157806370914034146101de578063715018a614610207575b600080fd5b610158610523565b005b610162610577565b005b34801561017057600080fd5b5061018b60048036038101906101869190612ef4565b6105b3565b6040516101989190612fe9565b60405180910390f35b3480156101ad57600080fd5b506101c860048036038101906101c39190612ef4565b61064a565b6040516101d59190613132565b60405180910390f35b3480156101ea57600080fd5b50610205600480360381019061020091906131b9565b610870565b005b61020f610bfc565b005b34801561021d57600080fd5b50610226610c10565b6040516102339190613299565b60405180910390f35b34801561024857600080fd5b50610251610c36565b60405161025e91906132c3565b60405180910390f35b34801561027357600080fd5b5061027c610c44565b60405161028991906132ff565b60405180910390f35b34801561029e57600080fd5b506102a7610c6a565b6040516102b4919061333b565b60405180910390f35b3480156102c957600080fd5b506102e460048036038101906102df91906133ac565b610c90565b005b3480156102f257600080fd5b506102fb6114a8565b6040516103089190613481565b60405180910390f35b34801561031d57600080fd5b50610338600480360381019061033391906134c8565b6114ce565b6040516103459190613615565b60405180910390f35b34801561035a57600080fd5b5061037560048036038101906103709190613630565b611608565b005b34801561038357600080fd5b5061039e60048036038101906103999190613630565b61164f565b005b3480156103ac57600080fd5b506103c760048036038101906103c2919061367d565b61198b565b005b3480156103d557600080fd5b506103f060048036038101906103eb9190613630565b611ade565b005b3480156103fe57600080fd5b50610407611b38565b6040516104149190613719565b60405180910390f35b34801561042957600080fd5b50610432611b43565b60405161043f91906132ff565b60405180910390f35b610462600480360381019061045d9190612ef4565b611b69565b005b34801561047057600080fd5b5061048b6004803603810190610486919061378a565b611baa565b604051610498919061385f565b60405180910390f35b6104bb60048036038101906104b69190612ef4565b611bc0565b005b3480156104c957600080fd5b506104e460048036038101906104df919061367d565b611bea565b005b3480156104f257600080fd5b5061050d60048036038101906105089190612ef4565b611d80565b60405161051a9190613889565b60405180910390f35b600061052d611b38565b67ffffffffffffffff164201905063389a75e1600c5233600052806020600c2055337fdbf36a107da19e49527a7176a1babf963b4b0ff8cde35ee35d6cd8f1f9ac7e1d600080a250565b63389a75e1600c523360005260006020600c2055337ffa7b8eab7da67f412cc9575ed43464468f9bfbae89d1675917346ca6d8fe3c92600080a2565b6060600760008373ffffffffffffffffffffffffffffffffffffffff1673ffffffffffffffffffffffffffffffffffffffff16815260200190815260200160002080548060200260200160405190810160405280929190818152602001828054801561063e57602002820191906000526020600020905b81548152602001906001019080831161062a575b50505050509050919050565b60606000600760008473ffffffffffffffffffffffffffffffffffffffff1673ffffffffffffffffffffffffffffffffffffffff1681526020019081526020016000208054806020026020016040519081016040528092919081815260200182805480156106d757602002820191906000526020600020905b8154815260200190600101908083116106c3575b505050505090506000815167ffffffffffffffff8111156106fb576106fa6138a4565b5b60405190808252806020026020018201604052801561073457816020015b610721612dcc565b8152602001906001900390816107195790505b50905060005b8251811015610865576000838281518110610758576107576138d3565b5b60200260200101519050600061076d826114ce565b6060015163ffffffff1690506000610784836114ce565b602001516203f4806107969190613931565b63ffffffff1642106107a95760006107d6565b6107b2836114ce565b6020015163ffffffff16426107c79190613969565b6203f4806107d59190613969565b5b905060405180608001604052808267ffffffffffffffff1681526020018467ffffffffffffffff1681526020018367ffffffffffffffff16815260200161081c856114ce565b6040015163ffffffff1667ffffffffffffffff16815250858581518110610846576108456138d3565b5b60200260200101819052505050508061085e9061399d565b905061073a565b819350505050919050565b61087c84848484611d9b565b60005b84849050811015610bf557600083838381811061089f5761089e6138d3565b5b9050602002013590506000600660008888868181106108c1576108c06138d3565b5b9050602002013581526020019081526020016000206040518060c00160405290816000820160009054906101000a900473ffffffffffffffffffffffffffffffffffffffff1673ffffffffffffffffffffffffffffffffffffffff1673ffffffffffffffffffffffffffffffffffffffff1681526020016000820160149054906101000a900463ffffffff1663ffffffff1663ffffffff1681526020016000820160189054906101000a900463ffffffff1663ffffffff1663ffffffff16815260200160008201601c9054906101000a900463ffffffff1663ffffffff1663ffffffff168152602001600182015481526020016002820160009054906101000a900460ff1660028111156109d8576109d7613523565b5b60028111156109ea576109e9613523565b5b8152505090503373ffffffffffffffffffffffffffffffffffffffff16816000015173ffffffffffffffffffffffffffffffffffffffff1614610a59576040517f091fe61c00000000000000000000000000000000000000000000000000000000815260040160405180910390fd5b63ffffffff8016816060015163ffffffff1614610aa2576040517f8dca9f6400000000000000000000000000000000000000000000000000000000815260040160405180910390fd5b600460009054906101000a900473ffffffffffffffffffffffffffffffffffffffff1673ffffffffffffffffffffffffffffffffffffffff1663f242432a33308560016040518563ffffffff1660e01b8152600401610b049493929190613a57565b600060405180830381600087803b158015610b1e57600080fd5b505af1158015610b32573d6000803e3d6000fd5b505050508160066000898987818110610b4e57610b4d6138d3565b5b905060200201358152602001908152602001600020600001601c6101000a81548163ffffffff021916908363ffffffff16021790555081878785818110610b9857610b976138d3565b5b905060200201353373ffffffffffffffffffffffffffffffffffffffff167f085b924bab9c71a3a17b45cf23191479522f5088263b5d8e87eb68f16ac1a0a860405160405180910390a4505080610bee9061399d565b905061087f565b5050505050565b610c04611de0565b610c0e6000611dfd565b565b600060029054906101000a900473ffffffffffffffffffffffffffffffffffffffff1681565b6000638b78c6d81954905090565b600560009054906101000a900473ffffffffffffffffffffffffffffffffffffffff1681565b600260009054906101000a900473ffffffffffffffffffffffffffffffffffffffff1681565b610cbb600060029054906101000a900473ffffffffffffffffffffffffffffffffffffffff16611e3b565b610cc786868686611d9b565b818190508484905014610d06576040517f22cb666100000000000000000000000000000000000000000000000000000000815260040160405180910390fd5b60005b8686905081101561149f57600080888884818110610d2a57610d296138d3565b5b90506020020135878785818110610d4457610d436138d3565b5b9050602002013591509150600360009054906101000a900473ffffffffffffffffffffffffffffffffffffffff1673ffffffffffffffffffffffffffffffffffffffff16635e1bef32836040518263ffffffff1660e01b8152600401610daa9190613889565b602060405180830381865afa158015610dc7573d6000803e3d6000fd5b505050506040513d601f19601f82011682018060405250810190610deb9190613ae7565b15610e22576040517f3899ae3600000000000000000000000000000000000000000000000000000000815260040160405180910390fd5b3373ffffffffffffffffffffffffffffffffffffffff16600360009054906101000a900473ffffffffffffffffffffffffffffffffffffffff1673ffffffffffffffffffffffffffffffffffffffff16636352211e846040518263ffffffff1660e01b8152600401610e949190613889565b602060405180830381865afa158015610eb1573d6000803e3d6000fd5b505050506040513d601f19601f82011682018060405250810190610ed59190613b29565b73ffffffffffffffffffffffffffffffffffffffff1614610f22576040517f091fe61c00000000000000000000000000000000000000000000000000000000815260040160405180910390fd5b6063600360009054906101000a900473ffffffffffffffffffffffffffffffffffffffff1673ffffffffffffffffffffffffffffffffffffffff1663f822a5b2846040518263ffffffff1660e01b8152600401610f7f9190613889565b602060405180830381865afa158015610f9c573d6000803e3d6000fd5b505050506040513d601f19601f82011682018060405250810190610fc09190613b6b565b1115610ff8576040517fc0b81fcd00000000000000000000000000000000000000000000000000000000815260040160405180910390fd5b6110298186868681811061100f5761100e6138d3565b5b90506020020160208101906110249190613bbd565b611ee3565b61105f576040517f3189b2eb00000000000000000000000000000000000000000000000000000000815260040160405180910390fd5b600560009054906101000a900473ffffffffffffffffffffffffffffffffffffffff1673ffffffffffffffffffffffffffffffffffffffff1663f242432a33308460016040518563ffffffff1660e01b81526004016110c19493929190613a57565b600060405180830381600087803b1580156110db57600080fd5b505af11580156110ef573d6000803e3d6000fd5b505050506040518060c001604052803373ffffffffffffffffffffffffffffffffffffffff1681526020014263ffffffff1681526020018263ffffffff16815260200163ffffffff80168152602001600160009054906101000a900473ffffffffffffffffffffffffffffffffffffffff1673ffffffffffffffffffffffffffffffffffffffff16638678a7b26040518163ffffffff1660e01b81526004016020604051808303816000875af11580156111ad573d6000803e3d6000fd5b505050506040513d601f19601f820116820180604052508101906111d19190613b6b565b81526020018686868181106111e9576111e86138d3565b5b90506020020160208101906111fe9190613bbd565b60028111156112105761120f613523565b5b8152506006600084815260200190815260200160002060008201518160000160006101000a81548173ffffffffffffffffffffffffffffffffffffffff021916908373ffffffffffffffffffffffffffffffffffffffff16021790555060208201518160000160146101000a81548163ffffffff021916908363ffffffff16021790555060408201518160000160186101000a81548163ffffffff021916908363ffffffff160217905550606082015181600001601c6101000a81548163ffffffff021916908363ffffffff1602179055506080820151816001015560a08201518160020160006101000a81548160ff0219169083600281111561131757611316613523565b5b0217905550905050600360009054906101000a900473ffffffffffffffffffffffffffffffffffffffff1673ffffffffffffffffffffffffffffffffffffffff166337bf06a68360016040518363ffffffff1660e01b815260040161137d929190613bf9565b600060405180830381600087803b15801561139757600080fd5b505af11580156113ab573d6000803e3d6000fd5b50505050600760003373ffffffffffffffffffffffffffffffffffffffff1673ffffffffffffffffffffffffffffffffffffffff16815260200190815260200160002082908060018154018082558091505060019003906000526020600020016000909190919091505580823373ffffffffffffffffffffffffffffffffffffffff167faf1d047d6158df0c7beade7a6810e77e0817265bf671190ebad2b03dd889a2b2888888818110611462576114616138d3565b5b90506020020160208101906114779190613bbd565b6040516114849190613c31565b60405180910390a45050806114989061399d565b9050610d09565b50505050505050565b600360009054906101000a900473ffffffffffffffffffffffffffffffffffffffff1681565b6114d6612e1c565b600660008381526020019081526020016000206040518060c00160405290816000820160009054906101000a900473ffffffffffffffffffffffffffffffffffffffff1673ffffffffffffffffffffffffffffffffffffffff1673ffffffffffffffffffffffffffffffffffffffff1681526020016000820160149054906101000a900463ffffffff1663ffffffff1663ffffffff1681526020016000820160189054906101000a900463ffffffff1663ffffffff1663ffffffff16815260200160008201601c9054906101000a900463ffffffff1663ffffffff1663ffffffff168152602001600182015481526020016002820160009054906101000a900460ff1660028111156115eb576115ea613523565b5b60028111156115fd576115fc613523565b5b815250509050919050565b60005b8282905081101561164a5761163883838381811061162c5761162b6138d3565b5b90506020020135611f8f565b50806116439061399d565b905061160b565b505050565b60005b8282905081101561198657600060066000858585818110611676576116756138d3565b5b9050602002013581526020019081526020016000206040518060c00160405290816000820160009054906101000a900473ffffffffffffffffffffffffffffffffffffffff1673ffffffffffffffffffffffffffffffffffffffff1673ffffffffffffffffffffffffffffffffffffffff1681526020016000820160149054906101000a900463ffffffff1663ffffffff1663ffffffff1681526020016000820160189054906101000a900463ffffffff1663ffffffff1663ffffffff16815260200160008201601c9054906101000a900463ffffffff1663ffffffff1663ffffffff168152602001600182015481526020016002820160009054906101000a900460ff16600281111561178d5761178c613523565b5b600281111561179f5761179e613523565b5b8152505090506000816060015163ffffffff1690503373ffffffffffffffffffffffffffffffffffffffff16826000015173ffffffffffffffffffffffffffffffffffffffff161415806117f8575063ffffffff801681145b1561182f576040517f091fe61c00000000000000000000000000000000000000000000000000000000815260040160405180910390fd5b63ffffffff6006600087878781811061184b5761184a6138d3565b5b905060200201358152602001908152602001600020600001601c6101000a81548163ffffffff021916908363ffffffff160217905550600460009054906101000a900473ffffffffffffffffffffffffffffffffffffffff1673ffffffffffffffffffffffffffffffffffffffff1663f242432a30338460016040518563ffffffff1660e01b81526004016118e39493929190613a57565b600060405180830381600087803b1580156118fd57600080fd5b505af1158015611911573d6000803e3d6000fd5b5050505080858585818110611929576119286138d3565b5b905060200201353373ffffffffffffffffffffffffffffffffffffffff167f7db14b2c864954e7ddaa6550066e524715079a7e4e01a90e1011e357bbc10c6960405160405180910390a450508061197f9061399d565b9050611652565b505050565b60008060019054906101000a900460ff161590508080156119bc5750600160008054906101000a900460ff1660ff16105b806119e957506119cb306122aa565b1580156119e85750600160008054906101000a900460ff1660ff16145b5b611a28576040517f08c379a0000000000000000000000000000000000000000000000000000000008152600401611a1f90613ccf565b60405180910390fd5b60016000806101000a81548160ff021916908360ff1602179055508015611a65576001600060016101000a81548160ff0219169083151502179055505b611a6e336122cd565b611a7c878787878787611bea565b8015611ad55760008060016101000a81548160ff0219169083151502179055507f7f26b83ff96e1f2b6a682f133852f6798a09c465da95921460cefb38474024986001604051611acc9190613d2d565b60405180910390a15b50505050505050565b60005b82829050811015611b33576000838383818110611b0157611b006138d3565b5b905060200201359050611b1381611f8f565b611b2157611b2081612309565b5b5080611b2c9061399d565b9050611ae1565b505050565b60006202a300905090565b600460009054906101000a900473ffffffffffffffffffffffffffffffffffffffff1681565b611b71611de0565b63389a75e1600c52806000526020600c208054421115611b9957636f5e88186000526004601cfd5b6000815550611ba781611dfd565b50565b600063f23a6e6160e01b90509695505050505050565b611bc8611de0565b8060601b611bde57637448fbae6000526004601cfd5b611be781611dfd565b50565b611bf2611de0565b84600460006101000a81548173ffffffffffffffffffffffffffffffffffffffff021916908373ffffffffffffffffffffffffffffffffffffffff16021790555085600060026101000a81548173ffffffffffffffffffffffffffffffffffffffff021916908373ffffffffffffffffffffffffffffffffffffffff16021790555083600560006101000a81548173ffffffffffffffffffffffffffffffffffffffff021916908373ffffffffffffffffffffffffffffffffffffffff16021790555080600160006101000a81548173ffffffffffffffffffffffffffffffffffffffff021916908373ffffffffffffffffffffffffffffffffffffffff16021790555082600260006101000a81548173ffffffffffffffffffffffffffffffffffffffff021916908373ffffffffffffffffffffffffffffffffffffffff16021790555081600360006101000a81548173ffffffffffffffffffffffffffffffffffffffff021916908373ffffffffffffffffffffffffffffffffffffffff160217905550505050505050565b600063389a75e1600c52816000526020600c20549050919050565b818190508484905014611dda576040517f22cb666100000000000000000000000000000000000000000000000000000000815260040160405180910390fd5b50505050565b638b78c6d819543314611dfb576382b429006000526004601cfd5b565b638b78c6d8198160601b60601c91508181547f8be0079c531659141344cd1fd0a4f28419497f9722a3daafe3b4186f6b6457e0600080a38181555050565b8073ffffffffffffffffffffffffffffffffffffffff1663ae4b37e46040518163ffffffff1660e01b8152600401602060405180830381865afa158015611e86573d6000803e3d6000fd5b505050506040513d601f19601f82011682018060405250810190611eaa9190613ae7565b611ee0576040517f288de97200000000000000000000000000000000000000000000000000000000815260040160405180910390fd5b50565b6000806002811115611ef857611ef7613523565b5b826002811115611f0b57611f0a613523565b5b03611f1b57600183149050611f89565b60016002811115611f2f57611f2e613523565b5b826002811115611f4257611f41613523565b5b03611f5257600283149050611f89565b600280811115611f6557611f64613523565b5b826002811115611f7857611f77613523565b5b03611f8857600383149050611f89565b5b92915050565b600080600660008481526020019081526020016000206040518060c00160405290816000820160009054906101000a900473ffffffffffffffffffffffffffffffffffffffff1673ffffffffffffffffffffffffffffffffffffffff1673ffffffffffffffffffffffffffffffffffffffff1681526020016000820160149054906101000a900463ffffffff1663ffffffff1663ffffffff1681526020016000820160189054906101000a900463ffffffff1663ffffffff1663ffffffff16815260200160008201601c9054906101000a900463ffffffff1663ffffffff1663ffffffff168152602001600182015481526020016002820160009054906101000a900460ff1660028111156120a7576120a6613523565b5b60028111156120b9576120b8613523565b5b815250509050806000015173ffffffffffffffffffffffffffffffffffffffff163373ffffffffffffffffffffffffffffffffffffffff1614612128576040517f091fe61c00000000000000000000000000000000000000000000000000000000815260040160405180910390fd5b6203f480816020015161213b9190613931565b63ffffffff1642101561217a576040517f5488a9fc00000000000000000000000000000000000000000000000000000000815260040160405180910390fd5b600080612187858461285c565b915091506000821461222657600260009054906101000a900473ffffffffffffffffffffffffffffffffffffffff1673ffffffffffffffffffffffffffffffffffffffff1663156e29f6338460016040518463ffffffff1660e01b81526004016121f393929190613d48565b600060405180830381600087803b15801561220d57600080fd5b505af1158015612221573d6000803e3d6000fd5b505050505b426006600087815260200190815260200160002060000160146101000a81548163ffffffff021916908363ffffffff160217905550843373ffffffffffffffffffffffffffffffffffffffff167f5a0db36dd607437cb4689c3ac30ccb5940e032dab1c80eefe397f5f43202b34e60405160405180910390a3809350505050919050565b6000808273ffffffffffffffffffffffffffffffffffffffff163b119050919050565b8060601b60601c905080638b78c6d819558060007f8be0079c531659141344cd1fd0a4f28419497f9722a3daafe3b4186f6b6457e0600080a350565b6000600660008381526020019081526020016000206040518060c00160405290816000820160009054906101000a900473ffffffffffffffffffffffffffffffffffffffff1673ffffffffffffffffffffffffffffffffffffffff1673ffffffffffffffffffffffffffffffffffffffff1681526020016000820160149054906101000a900463ffffffff1663ffffffff1663ffffffff1681526020016000820160189054906101000a900463ffffffff1663ffffffff1663ffffffff16815260200160008201601c9054906101000a900463ffffffff1663ffffffff1663ffffffff168152602001600182015481526020016002820160009054906101000a900460ff1660028111156124205761241f613523565b5b600281111561243257612431613523565b5b8152505090503373ffffffffffffffffffffffffffffffffffffffff16816000015173ffffffffffffffffffffffffffffffffffffffff16146124a1576040517f091fe61c00000000000000000000000000000000000000000000000000000000815260040160405180910390fd5b60066000838152602001908152602001600020600080820160006101000a81549073ffffffffffffffffffffffffffffffffffffffff02191690556000820160146101000a81549063ffffffff02191690556000820160186101000a81549063ffffffff021916905560008201601c6101000a81549063ffffffff021916905560018201600090556002820160006101000a81549060ff02191690555050612587600760003373ffffffffffffffffffffffffffffffffffffffff1673ffffffffffffffffffffffffffffffffffffffff16815260200190815260200160002083612b6d565b63ffffffff8016816060015163ffffffff161461263757600460009054906101000a900473ffffffffffffffffffffffffffffffffffffffff1673ffffffffffffffffffffffffffffffffffffffff1663f242432a3033846060015160016040518563ffffffff1660e01b81526004016126049493929190613db0565b600060405180830381600087803b15801561261e57600080fd5b505af1158015612632573d6000803e3d6000fd5b505050505b6000816040015163ffffffff16146126e257600560009054906101000a900473ffffffffffffffffffffffffffffffffffffffff1673ffffffffffffffffffffffffffffffffffffffff1663f242432a3033846040015160016040518563ffffffff1660e01b81526004016126af9493929190613db0565b600060405180830381600087803b1580156126c957600080fd5b505af11580156126dd573d6000803e3d6000fd5b505050505b600360009054906101000a900473ffffffffffffffffffffffffffffffffffffffff1673ffffffffffffffffffffffffffffffffffffffff16635e1bef32836040518263ffffffff1660e01b815260040161273d9190613889565b602060405180830381865afa15801561275a573d6000803e3d6000fd5b505050506040513d601f19601f8201168201806040525081019061277e9190613ae7565b1561281457600360009054906101000a900473ffffffffffffffffffffffffffffffffffffffff1673ffffffffffffffffffffffffffffffffffffffff166337bf06a68360006040518363ffffffff1660e01b81526004016127e1929190613bf9565b600060405180830381600087803b1580156127fb57600080fd5b505af115801561280f573d6000803e3d6000fd5b505050505b813373ffffffffffffffffffffffffffffffffffffffff167f829b142282bbe71c01b98e565ed26a8cc7cdc9446201b49bf41b184efa57ed5960405160405180910390a35050565b60008060006065600160009054906101000a900473ffffffffffffffffffffffffffffffffffffffff1673ffffffffffffffffffffffffffffffffffffffff16634ad30a7586608001516040518263ffffffff1660e01b81526004016128c29190613889565b602060405180830381865afa1580156128df573d6000803e3d6000fd5b505050506040513d601f19601f820116820180604052508101906129039190613b6b565b61290d9190613e37565b90506000846060015163ffffffff16905060008060006129308860a00151612c2b565b91509150600063ffffffff8016850361297857603d86101561295457829350612977565b603c861180156129645750605186105b1561297157819350612976565b600190505b5b5b600085036129b5576042861015612991578293506129b4565b6042861180156129a15750605686105b156129ae578193506129b3565b600190505b5b5b600185036129f25760428610156129ce578293506129f1565b6041861180156129de5750606086105b156129eb578193506129f0565b600190505b5b5b60028503612a3c576047861015612a0b57829350612a3b565b604686118015612a1b5750606086105b15612a2857819350612a3a565b60008097509750505050505050612b66565b5b5b60008115612b0757612b048b8b6040015163ffffffff166002600160009054906101000a900473ffffffffffffffffffffffffffffffffffffffff1673ffffffffffffffffffffffffffffffffffffffff16634ad30a758f608001516040518263ffffffff1660e01b8152600401612ab49190613889565b602060405180830381865afa158015612ad1573d6000803e3d6000fd5b505050506040513d601f19601f82011682018060405250810190612af59190613b6b565b612aff9190613e37565b612cdd565b90505b60038603612b225760478710612b1d5782612b1f565b835b94505b60048603612b3d5760428710612b385782612b3a565b835b94505b60058603612b5857603d8710612b535782612b55565b835b94505b848198509850505050505050505b9250929050565b60005b8280549050811015612c265781838281548110612b9057612b8f6138d3565b5b906000526020600020015403612c1b578260018480549050612bb29190613969565b81548110612bc357612bc26138d3565b5b9060005260206000200154838281548110612be157612be06138d3565b5b906000526020600020018190555082805480612c0057612bff613e68565b5b60019003818190600052602060002001600090559055612c26565b806001019050612b70565b505050565b60008060006002811115612c4257612c41613523565b5b836002811115612c5557612c54613523565b5b03612c67576001600480925081935050505b60016002811115612c7b57612c7a613523565b5b836002811115612c8e57612c8d613523565b5b03612ca0576002600580925081935050505b600280811115612cb357612cb2613523565b5b836002811115612cc657612cc5613523565b5b03612cd8576003600680925081935050505b915091565b6000808203612dc05760006006600086815260200190815260200160002060000160186101000a81548163ffffffff021916908363ffffffff160217905550600560009054906101000a900473ffffffffffffffffffffffffffffffffffffffff1673ffffffffffffffffffffffffffffffffffffffff1663f5298aca308560016040518463ffffffff1660e01b8152600401612d7c93929190613d48565b600060405180830381600087803b158015612d9657600080fd5b505af1158015612daa573d6000803e3d6000fd5b50505050612db784612309565b60019050612dc5565b600090505b9392505050565b6040518060800160405280600067ffffffffffffffff168152602001600067ffffffffffffffff168152602001600067ffffffffffffffff168152602001600067ffffffffffffffff1681525090565b6040518060c00160405280600073ffffffffffffffffffffffffffffffffffffffff168152602001600063ffffffff168152602001600063ffffffff168152602001600063ffffffff1681526020016000815260200160006002811115612e8657612e85613523565b5b81525090565b600080fd5b600080fd5b600073ffffffffffffffffffffffffffffffffffffffff82169050919050565b6000612ec182612e96565b9050919050565b612ed181612eb6565b8114612edc57600080fd5b50565b600081359050612eee81612ec8565b92915050565b600060208284031215612f0a57612f09612e8c565b5b6000612f1884828501612edf565b91505092915050565b600081519050919050565b600082825260208201905092915050565b6000819050602082019050919050565b6000819050919050565b612f6081612f4d565b82525050565b6000612f728383612f57565b60208301905092915050565b6000602082019050919050565b6000612f9682612f21565b612fa08185612f2c565b9350612fab83612f3d565b8060005b83811015612fdc578151612fc38882612f66565b9750612fce83612f7e565b925050600181019050612faf565b5085935050505092915050565b600060208201905081810360008301526130038184612f8b565b905092915050565b600081519050919050565b600082825260208201905092915050565b6000819050602082019050919050565b600067ffffffffffffffff82169050919050565b61305481613037565b82525050565b608082016000820151613070600085018261304b565b506020820151613083602085018261304b565b506040820151613096604085018261304b565b5060608201516130a9606085018261304b565b50505050565b60006130bb838361305a565b60808301905092915050565b6000602082019050919050565b60006130df8261300b565b6130e98185613016565b93506130f483613027565b8060005b8381101561312557815161310c88826130af565b9750613117836130c7565b9250506001810190506130f8565b5085935050505092915050565b6000602082019050818103600083015261314c81846130d4565b905092915050565b600080fd5b600080fd5b600080fd5b60008083601f84011261317957613178613154565b5b8235905067ffffffffffffffff81111561319657613195613159565b5b6020830191508360208202830111156131b2576131b161315e565b5b9250929050565b600080600080604085870312156131d3576131d2612e8c565b5b600085013567ffffffffffffffff8111156131f1576131f0612e91565b5b6131fd87828801613163565b9450945050602085013567ffffffffffffffff8111156132205761321f612e91565b5b61322c87828801613163565b925092505092959194509250565b6000819050919050565b600061325f61325a61325584612e96565b61323a565b612e96565b9050919050565b600061327182613244565b9050919050565b600061328382613266565b9050919050565b61329381613278565b82525050565b60006020820190506132ae600083018461328a565b92915050565b6132bd81612eb6565b82525050565b60006020820190506132d860008301846132b4565b92915050565b60006132e982613266565b9050919050565b6132f9816132de565b82525050565b600060208201905061331460008301846132f0565b92915050565b600061332582613266565b9050919050565b6133358161331a565b82525050565b6000602082019050613350600083018461332c565b92915050565b60008083601f84011261336c5761336b613154565b5b8235905067ffffffffffffffff81111561338957613388613159565b5b6020830191508360208202830111156133a5576133a461315e565b5b9250929050565b600080600080600080606087890312156133c9576133c8612e8c565b5b600087013567ffffffffffffffff8111156133e7576133e6612e91565b5b6133f389828a01613163565b9650965050602087013567ffffffffffffffff81111561341657613415612e91565b5b61342289828a01613163565b9450945050604087013567ffffffffffffffff81111561344557613444612e91565b5b61345189828a01613356565b92509250509295509295509295565b600061346b82613266565b9050919050565b61347b81613460565b82525050565b60006020820190506134966000830184613472565b92915050565b6134a581612f4d565b81146134b057600080fd5b50565b6000813590506134c28161349c565b92915050565b6000602082840312156134de576134dd612e8c565b5b60006134ec848285016134b3565b91505092915050565b6134fe81612eb6565b82525050565b600063ffffffff82169050919050565b61351d81613504565b82525050565b7f4e487b7100000000000000000000000000000000000000000000000000000000600052602160045260246000fd5b6003811061356357613562613523565b5b50565b600081905061357482613552565b919050565b600061358482613566565b9050919050565b61359481613579565b82525050565b60c0820160008201516135b060008501826134f5565b5060208201516135c36020850182613514565b5060408201516135d66040850182613514565b5060608201516135e96060850182613514565b5060808201516135fc6080850182612f57565b5060a082015161360f60a085018261358b565b50505050565b600060c08201905061362a600083018461359a565b92915050565b6000806020838503121561364757613646612e8c565b5b600083013567ffffffffffffffff81111561366557613664612e91565b5b61367185828601613163565b92509250509250929050565b60008060008060008060c0878903121561369a57613699612e8c565b5b60006136a889828a01612edf565b96505060206136b989828a01612edf565b95505060406136ca89828a01612edf565b94505060606136db89828a01612edf565b93505060806136ec89828a01612edf565b92505060a06136fd89828a01612edf565b9150509295509295509295565b61371381613037565b82525050565b600060208201905061372e600083018461370a565b92915050565b60008083601f84011261374a57613749613154565b5b8235905067ffffffffffffffff81111561376757613766613159565b5b6020830191508360018202830111156137835761378261315e565b5b9250929050565b60008060008060008060a087890312156137a7576137a6612e8c565b5b60006137b589828a01612edf565b96505060206137c689828a01612edf565b95505060406137d789828a016134b3565b94505060606137e889828a016134b3565b935050608087013567ffffffffffffffff81111561380957613808612e91565b5b61381589828a01613734565b92509250509295509295509295565b60007fffffffff0000000000000000000000000000000000000000000000000000000082169050919050565b61385981613824565b82525050565b60006020820190506138746000830184613850565b92915050565b61388381612f4d565b82525050565b600060208201905061389e600083018461387a565b92915050565b7f4e487b7100000000000000000000000000000000000000000000000000000000600052604160045260246000fd5b7f4e487b7100000000000000000000000000000000000000000000000000000000600052603260045260246000fd5b7f4e487b7100000000000000000000000000000000000000000000000000000000600052601160045260246000fd5b600061393c82613504565b915061394783613504565b9250828201905063ffffffff81111561396357613962613902565b5b92915050565b600061397482612f4d565b915061397f83612f4d565b925082820390508181111561399757613996613902565b5b92915050565b60006139a882612f4d565b91507fffffffffffffffffffffffffffffffffffffffffffffffffffffffffffffffff82036139da576139d9613902565b5b600182019050919050565b6000819050919050565b6000613a0a613a05613a00846139e5565b61323a565b612f4d565b9050919050565b613a1a816139ef565b82525050565b600082825260208201905092915050565b50565b6000613a41600083613a20565b9150613a4c82613a31565b600082019050919050565b600060a082019050613a6c60008301876132b4565b613a7960208301866132b4565b613a86604083018561387a565b613a936060830184613a11565b8181036080830152613aa481613a34565b905095945050505050565b60008115159050919050565b613ac481613aaf565b8114613acf57600080fd5b50565b600081519050613ae181613abb565b92915050565b600060208284031215613afd57613afc612e8c565b5b6000613b0b84828501613ad2565b91505092915050565b600081519050613b2381612ec8565b92915050565b600060208284031215613b3f57613b3e612e8c565b5b6000613b4d84828501613b14565b91505092915050565b600081519050613b658161349c565b92915050565b600060208284031215613b8157613b80612e8c565b5b6000613b8f84828501613b56565b91505092915050565b60038110613ba557600080fd5b50565b600081359050613bb781613b98565b92915050565b600060208284031215613bd357613bd2612e8c565b5b6000613be184828501613ba8565b91505092915050565b613bf381613aaf565b82525050565b6000604082019050613c0e600083018561387a565b613c1b6020830184613bea565b9392505050565b613c2b81613579565b82525050565b6000602082019050613c466000830184613c22565b92915050565b600082825260208201905092915050565b7f496e697469616c697a61626c653a20636f6e747261637420697320616c72656160008201527f647920696e697469616c697a6564000000000000000000000000000000000000602082015250565b6000613cb9602e83613c4c565b9150613cc482613c5d565b604082019050919050565b60006020820190508181036000830152613ce881613cac565b9050919050565b600060ff82169050919050565b6000613d17613d12613d0d846139e5565b61323a565b613cef565b9050919050565b613d2781613cfc565b82525050565b6000602082019050613d426000830184613d1e565b92915050565b6000606082019050613d5d60008301866132b4565b613d6a602083018561387a565b613d776040830184613a11565b949350505050565b6000613d9a613d95613d9084613504565b61323a565b612f4d565b9050919050565b613daa81613d7f565b82525050565b600060a082019050613dc560008301876132b4565b613dd260208301866132b4565b613ddf6040830185613da1565b613dec6060830184613a11565b8181036080830152613dfd81613a34565b905095945050505050565b7f4e487b7100000000000000000000000000000000000000000000000000000000600052601260045260246000fd5b6000613e4282612f4d565b9150613e4d83612f4d565b925082613e5d57613e5c613e08565b5b828206905092915050565b7f4e487b7100000000000000000000000000000000000000000000000000000000600052603160045260246000fdfea2646970667358221220421253e450ac56cf619673625ea0f2f4d2cc9587feb1cd79234081f05eb25e5164736f6c63430008120033",
  "devdoc": {
    "errors": {
      "NewOwnerIsZeroAddress()": [
        {
          "details": "The `newOwner` cannot be the zero address."
        }
      ],
      "NoHandoverRequest()": [
        {
          "details": "The `pendingOwner` does not have a valid handover request."
        }
      ],
      "Unauthorized()": [
        {
          "details": "The caller is not authorized to call the function."
        }
      ]
    },
    "events": {
      "Initialized(uint8)": {
        "details": "Triggered when the contract has been initialized or reinitialized."
      },
      "OwnershipHandoverCanceled(address)": {
        "details": "The ownership handover to `pendingOwner` has been canceled."
      },
      "OwnershipHandoverRequested(address)": {
        "details": "An ownership handover to `pendingOwner` has been requested."
      },
      "OwnershipTransferred(address,address)": {
        "details": "The ownership is transferred from `oldOwner` to `newOwner`. This event is intentionally kept the same as OpenZeppelin's Ownable to be compatible with indexers and [EIP-173](https://eips.ethereum.org/EIPS/eip-173), despite it not being as lightweight as a single argument event."
      }
    },
    "kind": "dev",
    "methods": {
      "bringInAnimalsToLaborGround(uint256[],uint256[])": {
        "params": {
          "_animalsId": "An array of token IDs representing the animals.",
          "_tokenId": "An array of token IDs representing the labor grounds."
        }
      },
      "cancelOwnershipHandover()": {
        "details": "Cancels the two-step ownership handover to the caller, if any."
      },
      "claimCollectables(uint256[])": {
        "details": "This function allows a user to claim multiple collectables at once by providing an array of token IDs.",
        "params": {
          "_tokenId": "An array of token IDs that the user wants to claim."
        }
      },
      "completeOwnershipHandover(address)": {
        "details": "Allows the owner to complete the two-step ownership handover to `pendingOwner`. Reverts if there is no existing ownership handover requested by `pendingOwner`."
      },
      "enterLaborGround(uint256[],uint256[],uint8[])": {
        "params": {
          "_job": "Array of jobs assigned to the labor grounds.",
          "_supplyId": "Array of supply IDs associated with the labor grounds.",
          "_tokenId": "Array of token IDs of the labor grounds."
        }
      },
      "getLaborGroundInfo(uint256)": {
        "details": "This function returns a LaborGround struct containing information about a Labor Ground token, specified by its ID, _tokenId.",
        "params": {
          "_tokenId": "ID of the Labor Ground token to retrieve information for"
        },
        "returns": {
          "lg": "The LaborGround struct containing information about the specified Labor Ground token."
        }
      },
      "getStakedTokens(address)": {
        "details": "Returns an array of token IDs that are currently staked by the given owner.",
        "params": {
          "_owner": "The address of the owner."
        },
        "returns": {
          "_0": "An array of staked token IDs."
        }
      },
      "leaveLaborGround(uint256[])": {
        "details": "This function allows a user to leave the LaborGround and receive their animal, supply, and collectable.",
        "params": {
          "_tokenId": "An array of token IDs that the user wants to leave."
        }
      },
      "onERC1155Received(address,address,uint256,uint256,bytes)": {
        "details": "This function is the onERC1155Received fallback function for the contract, which is triggered when the contract receives an ERC1155 token transfer.",
        "returns": {
          "_0": "The selector for this function, \"0x20f90a7e\"."
        }
      },
      "owner()": {
        "details": "Returns the owner of the contract."
      },
      "ownershipHandoverExpiresAt(address)": {
        "details": "Returns the expiry timestamp for the two-step ownership handover to `pendingOwner`."
      },
      "ownershipHandoverValidFor()": {
        "details": "Returns how long a two-step ownership handover is valid for in seconds."
      },
      "removeAnimalsFromLaborGround(uint256[])": {
        "params": {
          "_tokenId": "Array of token IDs of the labor grounds."
        }
      },
      "renounceOwnership()": {
        "details": "Allows the owner to renounce their ownership."
      },
      "requestOwnershipHandover()": {
        "details": "Request a two-step ownership handover to the caller. The request will be automatically expire in 48 hours (172800 seconds) by default."
      },
      "transferOwnership(address)": {
        "details": "Allows the owner to transfer the ownership to `newOwner`."
      }
    },
    "version": 1
  },
  "userdoc": {
    "kind": "user",
    "methods": {
      "bringInAnimalsToLaborGround(uint256[],uint256[])": {
        "notice": "Brings in animals to the labor ground by calling the bringInAnimalsToLaborGround function in the Lib library and transferring the ownership of the animal token from the sender to the contract."
      },
      "enterLaborGround(uint256[],uint256[],uint8[])": {
        "notice": "Enters the labor ground with specified token ID and supply ID, and assigns the job to it. Transfers the token and supply ownership to the contract. Emits the \"EnterLaborGround\" event."
      },
      "getLaborGroundInfo(uint256)": {
        "notice": "Retrieve information about a Labor Ground token."
      },
      "onERC1155Received(address,address,uint256,uint256,bytes)": {
        "notice": "Handle incoming ERC1155 token transfers."
      },
      "removeAnimalsFromLaborGround(uint256[])": {
        "notice": "Removes the animals from the specified labor ground. Transfers the ownership of the animals back to the sender."
      }
    },
    "version": 1
  },
  "storageLayout": {
    "storage": [
      {
        "astId": 6,
        "contract": "contracts/LaborGrounds.sol:LaborGrounds",
        "label": "_initialized",
        "offset": 0,
        "slot": "0",
        "type": "t_uint8"
      },
      {
        "astId": 9,
        "contract": "contracts/LaborGrounds.sol:LaborGrounds",
        "label": "_initializing",
        "offset": 1,
        "slot": "0",
        "type": "t_bool"
      },
      {
        "astId": 743,
        "contract": "contracts/LaborGrounds.sol:LaborGrounds",
        "label": "pits",
        "offset": 2,
        "slot": "0",
        "type": "t_contract(IPits)2116"
      },
      {
        "astId": 746,
        "contract": "contracts/LaborGrounds.sol:LaborGrounds",
        "label": "randomizer",
        "offset": 0,
        "slot": "1",
        "type": "t_contract(IRandomizer)2138"
      },
      {
        "astId": 749,
        "contract": "contracts/LaborGrounds.sol:LaborGrounds",
        "label": "consumables",
        "offset": 0,
        "slot": "2",
        "type": "t_contract(IConsumables)2037"
      },
      {
        "astId": 752,
        "contract": "contracts/LaborGrounds.sol:LaborGrounds",
        "label": "neandersmol",
        "offset": 0,
        "slot": "3",
        "type": "t_contract(INeandersmol)2086"
      },
      {
        "astId": 755,
        "contract": "contracts/LaborGrounds.sol:LaborGrounds",
        "label": "animals",
        "offset": 0,
        "slot": "4",
        "type": "t_contract(IERC1155Upgradeable)290"
      },
      {
        "astId": 758,
        "contract": "contracts/LaborGrounds.sol:LaborGrounds",
        "label": "supplies",
        "offset": 0,
        "slot": "5",
        "type": "t_contract(IERC1155Upgradeable)290"
      },
      {
        "astId": 770,
        "contract": "contracts/LaborGrounds.sol:LaborGrounds",
        "label": "laborGround",
        "offset": 0,
        "slot": "6",
        "type": "t_mapping(t_uint256,t_struct(LaborGround)2509_storage)"
      },
      {
        "astId": 775,
        "contract": "contracts/LaborGrounds.sol:LaborGrounds",
        "label": "ownerToTokens",
        "offset": 0,
        "slot": "7",
        "type": "t_mapping(t_address,t_array(t_uint256)dyn_storage)"
      }
    ],
    "types": {
      "t_address": {
        "encoding": "inplace",
        "label": "address",
        "numberOfBytes": "20"
      },
      "t_array(t_uint256)dyn_storage": {
        "base": "t_uint256",
        "encoding": "dynamic_array",
        "label": "uint256[]",
        "numberOfBytes": "32"
      },
      "t_bool": {
        "encoding": "inplace",
        "label": "bool",
        "numberOfBytes": "1"
      },
      "t_contract(IConsumables)2037": {
        "encoding": "inplace",
        "label": "contract IConsumables",
        "numberOfBytes": "20"
      },
      "t_contract(IERC1155Upgradeable)290": {
        "encoding": "inplace",
        "label": "contract IERC1155Upgradeable",
        "numberOfBytes": "20"
      },
      "t_contract(INeandersmol)2086": {
        "encoding": "inplace",
        "label": "contract INeandersmol",
        "numberOfBytes": "20"
      },
      "t_contract(IPits)2116": {
        "encoding": "inplace",
        "label": "contract IPits",
        "numberOfBytes": "20"
      },
      "t_contract(IRandomizer)2138": {
        "encoding": "inplace",
        "label": "contract IRandomizer",
        "numberOfBytes": "20"
      },
      "t_enum(Jobs)2557": {
        "encoding": "inplace",
        "label": "enum Jobs",
        "numberOfBytes": "1"
      },
      "t_mapping(t_address,t_array(t_uint256)dyn_storage)": {
        "encoding": "mapping",
        "key": "t_address",
        "label": "mapping(address => uint256[])",
        "numberOfBytes": "32",
        "value": "t_array(t_uint256)dyn_storage"
      },
      "t_mapping(t_uint256,t_struct(LaborGround)2509_storage)": {
        "encoding": "mapping",
        "key": "t_uint256",
        "label": "mapping(uint256 => struct LaborGround)",
        "numberOfBytes": "32",
        "value": "t_struct(LaborGround)2509_storage"
      },
      "t_struct(LaborGround)2509_storage": {
        "encoding": "inplace",
        "label": "struct LaborGround",
        "members": [
          {
            "astId": 2497,
            "contract": "contracts/LaborGrounds.sol:LaborGrounds",
            "label": "owner",
            "offset": 0,
            "slot": "0",
            "type": "t_address"
          },
          {
            "astId": 2499,
            "contract": "contracts/LaborGrounds.sol:LaborGrounds",
            "label": "lockTime",
            "offset": 20,
            "slot": "0",
            "type": "t_uint32"
          },
          {
            "astId": 2501,
            "contract": "contracts/LaborGrounds.sol:LaborGrounds",
            "label": "supplyId",
            "offset": 24,
            "slot": "0",
            "type": "t_uint32"
          },
          {
            "astId": 2503,
            "contract": "contracts/LaborGrounds.sol:LaborGrounds",
            "label": "animalId",
            "offset": 28,
            "slot": "0",
            "type": "t_uint32"
          },
          {
            "astId": 2505,
            "contract": "contracts/LaborGrounds.sol:LaborGrounds",
            "label": "requestId",
            "offset": 0,
            "slot": "1",
            "type": "t_uint256"
          },
          {
            "astId": 2508,
            "contract": "contracts/LaborGrounds.sol:LaborGrounds",
            "label": "job",
            "offset": 0,
            "slot": "2",
            "type": "t_enum(Jobs)2557"
          }
        ],
        "numberOfBytes": "96"
      },
      "t_uint256": {
        "encoding": "inplace",
        "label": "uint256",
        "numberOfBytes": "32"
      },
      "t_uint32": {
        "encoding": "inplace",
        "label": "uint32",
        "numberOfBytes": "4"
      },
      "t_uint8": {
        "encoding": "inplace",
        "label": "uint8",
        "numberOfBytes": "1"
      }
    }
  }
}