{
  "address": "0x17f75a8cF862d3CbC44725B3DdAb05aD2723922D",
  "abi": [
    {
      "inputs": [],
      "name": "BalanceIsInsufficient",
      "type": "error"
    },
    {
      "inputs": [],
      "name": "NewOwnerIsZeroAddress",
      "type": "error"
    },
    {
      "inputs": [],
      "name": "NoHandoverRequest",
      "type": "error"
    },
    {
      "inputs": [],
      "name": "Unauthorized",
      "type": "error"
    },
    {
      "anonymous": false,
      "inputs": [
        {
          "indexed": false,
          "internalType": "uint8",
          "name": "version",
          "type": "uint8"
        }
      ],
      "name": "Initialized",
      "type": "event"
    },
    {
      "anonymous": false,
      "inputs": [
        {
          "indexed": true,
          "internalType": "address",
          "name": "pendingOwner",
          "type": "address"
        }
      ],
      "name": "OwnershipHandoverCanceled",
      "type": "event"
    },
    {
      "anonymous": false,
      "inputs": [
        {
          "indexed": true,
          "internalType": "address",
          "name": "pendingOwner",
          "type": "address"
        }
      ],
      "name": "OwnershipHandoverRequested",
      "type": "event"
    },
    {
      "anonymous": false,
      "inputs": [
        {
          "indexed": true,
          "internalType": "address",
          "name": "oldOwner",
          "type": "address"
        },
        {
          "indexed": true,
          "internalType": "address",
          "name": "newOwner",
          "type": "address"
        }
      ],
      "name": "OwnershipTransferred",
      "type": "event"
    },
    {
      "anonymous": false,
      "inputs": [
        {
          "indexed": true,
          "internalType": "address",
          "name": "owner",
          "type": "address"
        },
        {
          "indexed": true,
          "internalType": "uint256",
          "name": "amount",
          "type": "uint256"
        }
      ],
      "name": "RemoveBonesFromYard",
      "type": "event"
    },
    {
      "anonymous": false,
      "inputs": [
        {
          "indexed": true,
          "internalType": "address",
          "name": "owner",
          "type": "address"
        },
        {
          "indexed": true,
          "internalType": "uint256",
          "name": "amount",
          "type": "uint256"
        }
      ],
      "name": "StakeBonesInYard",
      "type": "event"
    },
    {
      "inputs": [],
      "name": "bones",
      "outputs": [
        {
          "internalType": "contract IERC20",
          "name": "",
          "type": "address"
        }
      ],
      "stateMutability": "view",
      "type": "function"
    },
    {
      "inputs": [],
      "name": "bonesStaked",
      "outputs": [
        {
          "internalType": "uint256",
          "name": "",
          "type": "uint256"
        }
      ],
      "stateMutability": "view",
      "type": "function"
    },
    {
      "inputs": [],
      "name": "cancelOwnershipHandover",
      "outputs": [],
      "stateMutability": "payable",
      "type": "function"
    },
    {
      "inputs": [
        {
          "internalType": "address",
          "name": "pendingOwner",
          "type": "address"
        }
      ],
      "name": "completeOwnershipHandover",
      "outputs": [],
      "stateMutability": "payable",
      "type": "function"
    },
    {
      "inputs": [
        {
          "internalType": "address",
          "name": "_addr",
          "type": "address"
        }
      ],
      "name": "getBonesStaked",
      "outputs": [
        {
          "internalType": "uint256",
          "name": "",
          "type": "uint256"
        }
      ],
      "stateMutability": "view",
      "type": "function"
    },
    {
      "inputs": [
        {
          "internalType": "uint256",
          "name": "_timestamp",
          "type": "uint256"
        }
      ],
      "name": "getDaysOff",
      "outputs": [
        {
          "internalType": "uint256",
          "name": "",
          "type": "uint256"
        }
      ],
      "stateMutability": "view",
      "type": "function"
    },
    {
      "inputs": [],
      "name": "getTimeOut",
      "outputs": [
        {
          "internalType": "uint256",
          "name": "",
          "type": "uint256"
        }
      ],
      "stateMutability": "view",
      "type": "function"
    },
    {
      "inputs": [],
      "name": "getTotalBonesStaked",
      "outputs": [
        {
          "internalType": "uint256",
          "name": "",
          "type": "uint256"
        }
      ],
      "stateMutability": "view",
      "type": "function"
    },
    {
      "inputs": [],
      "name": "getTotalDaysOff",
      "outputs": [
        {
          "internalType": "uint256",
          "name": "",
          "type": "uint256"
        }
      ],
      "stateMutability": "view",
      "type": "function"
    },
    {
      "inputs": [
        {
          "internalType": "address",
          "name": "_bones",
          "type": "address"
        }
      ],
      "name": "initialize",
      "outputs": [],
      "stateMutability": "nonpayable",
      "type": "function"
    },
    {
      "inputs": [],
      "name": "minimumPercent",
      "outputs": [
        {
          "internalType": "uint256",
          "name": "",
          "type": "uint256"
        }
      ],
      "stateMutability": "view",
      "type": "function"
    },
    {
      "inputs": [],
      "name": "owner",
      "outputs": [
        {
          "internalType": "address",
          "name": "result",
          "type": "address"
        }
      ],
      "stateMutability": "view",
      "type": "function"
    },
    {
      "inputs": [
        {
          "internalType": "address",
          "name": "pendingOwner",
          "type": "address"
        }
      ],
      "name": "ownershipHandoverExpiresAt",
      "outputs": [
        {
          "internalType": "uint256",
          "name": "result",
          "type": "uint256"
        }
      ],
      "stateMutability": "view",
      "type": "function"
    },
    {
      "inputs": [],
      "name": "ownershipHandoverValidFor",
      "outputs": [
        {
          "internalType": "uint64",
          "name": "",
          "type": "uint64"
        }
      ],
      "stateMutability": "view",
      "type": "function"
    },
    {
      "inputs": [
        {
          "internalType": "uint256",
          "name": "_amount",
          "type": "uint256"
        }
      ],
      "name": "removeBonesFromYard",
      "outputs": [],
      "stateMutability": "nonpayable",
      "type": "function"
    },
    {
      "inputs": [],
      "name": "renounceOwnership",
      "outputs": [],
      "stateMutability": "payable",
      "type": "function"
    },
    {
      "inputs": [],
      "name": "requestOwnershipHandover",
      "outputs": [],
      "stateMutability": "payable",
      "type": "function"
    },
    {
      "inputs": [
        {
          "internalType": "uint256",
          "name": "_minimumPercent",
          "type": "uint256"
        }
      ],
      "name": "setMinimumPercent",
      "outputs": [],
      "stateMutability": "nonpayable",
      "type": "function"
    },
    {
      "inputs": [
        {
          "internalType": "uint256",
          "name": "_amount",
          "type": "uint256"
        }
      ],
      "name": "stakeBonesInYard",
      "outputs": [],
      "stateMutability": "nonpayable",
      "type": "function"
    },
    {
      "inputs": [],
      "name": "timeOut",
      "outputs": [
        {
          "internalType": "uint256",
          "name": "",
          "type": "uint256"
        }
      ],
      "stateMutability": "view",
      "type": "function"
    },
    {
      "inputs": [],
      "name": "totalDaysOff",
      "outputs": [
        {
          "internalType": "uint256",
          "name": "",
          "type": "uint256"
        }
      ],
      "stateMutability": "view",
      "type": "function"
    },
    {
      "inputs": [
        {
          "internalType": "address",
          "name": "newOwner",
          "type": "address"
        }
      ],
      "name": "transferOwnership",
      "outputs": [],
      "stateMutability": "payable",
      "type": "function"
    },
    {
      "inputs": [],
      "name": "validation",
      "outputs": [
        {
          "internalType": "bool",
          "name": "",
          "type": "bool"
        }
      ],
      "stateMutability": "view",
      "type": "function"
    }
  ],
  "transactionHash": "0xad85c57fb81c431317f2ba14f72ed6a4ba75c64af0abc141a6ca669f45785c4c",
  "args": [],
  "numDeployments": 1,
  "solcInputHash": "426aaee5d4f913f1abaf7e844a75cacb",
  "bytecode": "0x608060405234801561001057600080fd5b5061157a806100206000396000f3fe6080604052600436106101405760003560e01c80638da5cb5b116100b6578063d7533f021161006f578063d7533f02146103c7578063d88ad887146103f2578063e30aadc01461041d578063f04e283e1461045a578063f2fde38b14610476578063fee81cf41461049257610140565b80638da5cb5b146102b75780639a5ccd67146102e2578063ae4b37e41461030b578063c4b8e63d14610336578063c4d66de814610361578063d09f53c01461038a57610140565b806360dc175d1161010857806360dc175d146101d8578063614d85e114610203578063715018a61461022e5780637bd90cc21461023857806389626bbb146102635780638d32b0b01461028e57610140565b806311f77b6c146101455780631b688d9f14610170578063229f45701461019b57806325692962146101c457806354d1f13d146101ce575b600080fd5b34801561015157600080fd5b5061015a6104cf565b6040516101679190610fa9565b60405180910390f35b34801561017c57600080fd5b506101856104d5565b6040516101929190610fa9565b60405180910390f35b3480156101a757600080fd5b506101c260048036038101906101bd9190610ff5565b6104df565b005b6101cc61073a565b005b6101d661078e565b005b3480156101e457600080fd5b506101ed6107ca565b6040516101fa9190610fa9565b60405180910390f35b34801561020f57600080fd5b506102186107d4565b6040516102259190610fa9565b60405180910390f35b6102366107da565b005b34801561024457600080fd5b5061024d6107ee565b60405161025a9190610fa9565b60405180910390f35b34801561026f57600080fd5b506102786107f8565b6040516102859190610fa9565b60405180910390f35b34801561029a57600080fd5b506102b560048036038101906102b09190610ff5565b6107fe565b005b3480156102c357600080fd5b506102cc61099b565b6040516102d99190611063565b60405180910390f35b3480156102ee57600080fd5b5061030960048036038101906103049190610ff5565b6109a9565b005b34801561031757600080fd5b506103206109bb565b60405161032d9190611099565b60405180910390f35b34801561034257600080fd5b5061034b6109cf565b6040516103589190610fa9565b60405180910390f35b34801561036d57600080fd5b50610388600480360381019061038391906110e0565b6109d5565b005b34801561039657600080fd5b506103b160048036038101906103ac9190610ff5565b610b66565b6040516103be9190610fa9565b60405180910390f35b3480156103d357600080fd5b506103dc610b83565b6040516103e99190611130565b60405180910390f35b3480156103fe57600080fd5b50610407610b8e565b60405161041491906111aa565b60405180910390f35b34801561042957600080fd5b50610444600480360381019061043f91906110e0565b610bb4565b6040516104519190610fa9565b60405180910390f35b610474600480360381019061046f91906110e0565b610bfd565b005b610490600480360381019061048b91906110e0565b610c3e565b005b34801561049e57600080fd5b506104b960048036038101906104b491906110e0565b610c68565b6040516104c69190610fa9565b60405180910390f35b60345481565b6000603554905090565b6104e7610c83565b80603360009054906101000a900473ffffffffffffffffffffffffffffffffffffffff1673ffffffffffffffffffffffffffffffffffffffff166370a08231336040518263ffffffff1660e01b81526004016105439190611063565b602060405180830381865afa158015610560573d6000803e3d6000fd5b505050506040513d601f19601f8201168201806040525081019061058491906111da565b10156105bc576040517f7276110900000000000000000000000000000000000000000000000000000000815260040160405180910390fd5b600060345490506105f1603360009054906101000a900473ffffffffffffffffffffffffffffffffffffffff16333085610cd2565b81603860003373ffffffffffffffffffffffffffffffffffffffff1673ffffffffffffffffffffffffffffffffffffffff16815260200190815260200160002060008282546106409190611236565b9250508190555081603460008282546106599190611236565b92505081905550610668610d22565b8110801561067a57506106796109bb565b5b156106ea57600080603554146106ae57620151806035544261069c919061126a565b6106a691906112cd565b9050806106b4565b60009050805b50806039600060355481526020019081526020016000208190555080603660008282546106e19190611236565b92505081905550505b813373ffffffffffffffffffffffffffffffffffffffff167feee583b3a9abd3fc0b4ec61ae41e4945daef0730d6e2ff18701a2eccf5a14fc360405160405180910390a350610737610dd3565b50565b6000610744610b83565b67ffffffffffffffff164201905063389a75e1600c5233600052806020600c2055337fdbf36a107da19e49527a7176a1babf963b4b0ff8cde35ee35d6cd8f1f9ac7e1d600080a250565b63389a75e1600c523360005260006020600c2055337ffa7b8eab7da67f412cc9575ed43464468f9bfbae89d1675917346ca6d8fe3c92600080a2565b6000603454905090565b60355481565b6107e2610ddc565b6107ec6000610df9565b565b6000603654905090565b60365481565b610806610c83565b603860003373ffffffffffffffffffffffffffffffffffffffff1673ffffffffffffffffffffffffffffffffffffffff1681526020019081526020016000205481111561087f576040517f7276110900000000000000000000000000000000000000000000000000000000815260040160405180910390fd5b6000603454905081603860003373ffffffffffffffffffffffffffffffffffffffff1673ffffffffffffffffffffffffffffffffffffffff16815260200190815260200160002060008282546108d5919061126a565b9250508190555081603460008282546108ee919061126a565b925050819055506108fd610d22565b8110158015610911575061090f6109bb565b155b1561091e57426035819055505b61094b603360009054906101000a900473ffffffffffffffffffffffffffffffffffffffff163384610e37565b813373ffffffffffffffffffffffffffffffffffffffff167f890a9eede17bad064866e98bf8a4b0039775595030c55e9c2a142bbe4913a85b60405160405180910390a350610998610dd3565b50565b6000638b78c6d81954905090565b6109b1610ddc565b8060378190555050565b60006109c5610d22565b6034541015905090565b60375481565b60008060019054906101000a900460ff16159050808015610a065750600160008054906101000a900460ff1660ff16105b80610a335750610a1530610e80565b158015610a325750600160008054906101000a900460ff1660ff16145b5b610a72576040517f08c379a0000000000000000000000000000000000000000000000000000000008152600401610a6990611381565b60405180910390fd5b60016000806101000a81548160ff021916908360ff1602179055508015610aaf576001600060016101000a81548160ff0219169083151502179055505b610ab833610ea3565b81603360006101000a81548173ffffffffffffffffffffffffffffffffffffffff021916908373ffffffffffffffffffffffffffffffffffffffff1602179055506003603781905550610b09610edf565b8015610b625760008060016101000a81548160ff0219169083151502179055507f7f26b83ff96e1f2b6a682f133852f6798a09c465da95921460cefb38474024986001604051610b5991906113e9565b60405180910390a15b5050565b600060396000838152602001908152602001600020549050919050565b60006202a300905090565b603360009054906101000a900473ffffffffffffffffffffffffffffffffffffffff1681565b6000603860008373ffffffffffffffffffffffffffffffffffffffff1673ffffffffffffffffffffffffffffffffffffffff168152602001908152602001600020549050919050565b610c05610ddc565b63389a75e1600c52806000526020600c208054421115610c2d57636f5e88186000526004601cfd5b6000815550610c3b81610df9565b50565b610c46610ddc565b8060601b610c5c57637448fbae6000526004601cfd5b610c6581610df9565b50565b600063389a75e1600c52816000526020600c20549050919050565b600260015403610cc8576040517f08c379a0000000000000000000000000000000000000000000000000000000008152600401610cbf90611450565b60405180910390fd5b6002600181905550565b6040516323b872dd600052836020528260405281606052602060006064601c6000895af13d156001600051141716610d1257637939f4246000526004601cfd5b6000606052806040525050505050565b6000600a603754603360009054906101000a900473ffffffffffffffffffffffffffffffffffffffff1673ffffffffffffffffffffffffffffffffffffffff166318160ddd6040518163ffffffff1660e01b8152600401602060405180830381865afa158015610d96573d6000803e3d6000fd5b505050506040513d601f19601f82011682018060405250810190610dba91906111da565b610dc49190611470565b610dce91906112cd565b905090565b60018081905550565b638b78c6d819543314610df7576382b429006000526004601cfd5b565b638b78c6d8198160601b60601c91508181547f8be0079c531659141344cd1fd0a4f28419497f9722a3daafe3b4186f6b6457e0600080a38181555050565b81601a5280603a5269a9059cbb00000000000060005260206000604460166000875af13d156001600051141716610e76576390b8ec186000526004601cfd5b6000603a52505050565b6000808273ffffffffffffffffffffffffffffffffffffffff163b119050919050565b8060601b60601c905080638b78c6d819558060007f8be0079c531659141344cd1fd0a4f28419497f9722a3daafe3b4186f6b6457e0600080a350565b600060019054906101000a900460ff16610f2e576040517f08c379a0000000000000000000000000000000000000000000000000000000008152600401610f2590611524565b60405180910390fd5b610f36610f38565b565b600060019054906101000a900460ff16610f87576040517f08c379a0000000000000000000000000000000000000000000000000000000008152600401610f7e90611524565b60405180910390fd5b60018081905550565b6000819050919050565b610fa381610f90565b82525050565b6000602082019050610fbe6000830184610f9a565b92915050565b600080fd5b610fd281610f90565b8114610fdd57600080fd5b50565b600081359050610fef81610fc9565b92915050565b60006020828403121561100b5761100a610fc4565b5b600061101984828501610fe0565b91505092915050565b600073ffffffffffffffffffffffffffffffffffffffff82169050919050565b600061104d82611022565b9050919050565b61105d81611042565b82525050565b60006020820190506110786000830184611054565b92915050565b60008115159050919050565b6110938161107e565b82525050565b60006020820190506110ae600083018461108a565b92915050565b6110bd81611042565b81146110c857600080fd5b50565b6000813590506110da816110b4565b92915050565b6000602082840312156110f6576110f5610fc4565b5b6000611104848285016110cb565b91505092915050565b600067ffffffffffffffff82169050919050565b61112a8161110d565b82525050565b60006020820190506111456000830184611121565b92915050565b6000819050919050565b600061117061116b61116684611022565b61114b565b611022565b9050919050565b600061118282611155565b9050919050565b600061119482611177565b9050919050565b6111a481611189565b82525050565b60006020820190506111bf600083018461119b565b92915050565b6000815190506111d481610fc9565b92915050565b6000602082840312156111f0576111ef610fc4565b5b60006111fe848285016111c5565b91505092915050565b7f4e487b7100000000000000000000000000000000000000000000000000000000600052601160045260246000fd5b600061124182610f90565b915061124c83610f90565b925082820190508082111561126457611263611207565b5b92915050565b600061127582610f90565b915061128083610f90565b925082820390508181111561129857611297611207565b5b92915050565b7f4e487b7100000000000000000000000000000000000000000000000000000000600052601260045260246000fd5b60006112d882610f90565b91506112e383610f90565b9250826112f3576112f261129e565b5b828204905092915050565b600082825260208201905092915050565b7f496e697469616c697a61626c653a20636f6e747261637420697320616c72656160008201527f647920696e697469616c697a6564000000000000000000000000000000000000602082015250565b600061136b602e836112fe565b91506113768261130f565b604082019050919050565b6000602082019050818103600083015261139a8161135e565b9050919050565b6000819050919050565b600060ff82169050919050565b60006113d36113ce6113c9846113a1565b61114b565b6113ab565b9050919050565b6113e3816113b8565b82525050565b60006020820190506113fe60008301846113da565b92915050565b7f5265656e7472616e637947756172643a207265656e7472616e742063616c6c00600082015250565b600061143a601f836112fe565b915061144582611404565b602082019050919050565b600060208201905081810360008301526114698161142d565b9050919050565b600061147b82610f90565b915061148683610f90565b925082820261149481610f90565b915082820484148315176114ab576114aa611207565b5b5092915050565b7f496e697469616c697a61626c653a20636f6e7472616374206973206e6f74206960008201527f6e697469616c697a696e67000000000000000000000000000000000000000000602082015250565b600061150e602b836112fe565b9150611519826114b2565b604082019050919050565b6000602082019050818103600083015261153d81611501565b905091905056fea2646970667358221220a0964d81ee92a3d7a63f6b6bc573d4940fd81ed4dedf0d34b65a64f887ba202c64736f6c63430008120033",
  "devdoc": {
    "errors": {
      "NewOwnerIsZeroAddress()": [
        {
          "details": "The `newOwner` cannot be the zero address."
        }
      ],
      "NoHandoverRequest()": [
        {
          "details": "The `pendingOwner` does not have a valid handover request."
        }
      ],
      "Unauthorized()": [
        {
          "details": "The caller is not authorized to call the function."
        }
      ]
    },
    "events": {
      "Initialized(uint8)": {
        "details": "Triggered when the contract has been initialized or reinitialized."
      },
      "OwnershipHandoverCanceled(address)": {
        "details": "The ownership handover to `pendingOwner` has been canceled."
      },
      "OwnershipHandoverRequested(address)": {
        "details": "An ownership handover to `pendingOwner` has been requested."
      },
      "OwnershipTransferred(address,address)": {
        "details": "The ownership is transferred from `oldOwner` to `newOwner`. This event is intentionally kept the same as OpenZeppelin's Ownable to be compatible with indexers and [EIP-173](https://eips.ethereum.org/EIPS/eip-173), despite it not being as lightweight as a single argument event."
      }
    },
    "kind": "dev",
    "methods": {
      "cancelOwnershipHandover()": {
        "details": "Cancels the two-step ownership handover to the caller, if any."
      },
      "completeOwnershipHandover(address)": {
        "details": "Allows the owner to complete the two-step ownership handover to `pendingOwner`. Reverts if there is no existing ownership handover requested by `pendingOwner`."
      },
      "owner()": {
        "details": "Returns the owner of the contract."
      },
      "ownershipHandoverExpiresAt(address)": {
        "details": "Returns the expiry timestamp for the two-step ownership handover to `pendingOwner`."
      },
      "ownershipHandoverValidFor()": {
        "details": "Returns how long a two-step ownership handover is valid for in seconds."
      },
      "renounceOwnership()": {
        "details": "Allows the owner to renounce their ownership."
      },
      "requestOwnershipHandover()": {
        "details": "Request a two-step ownership handover to the caller. The request will be automatically expire in 48 hours (172800 seconds) by default."
      },
      "transferOwnership(address)": {
        "details": "Allows the owner to transfer the ownership to `newOwner`."
      }
    },
    "version": 1
  },
  "userdoc": {
    "kind": "user",
    "methods": {},
    "version": 1
  },
  "storageLayout": {
    "storage": [
      {
        "astId": 415,
        "contract": "contracts/Pits.sol:Pits",
        "label": "_initialized",
        "offset": 0,
        "slot": "0",
        "type": "t_uint8"
      },
      {
        "astId": 418,
        "contract": "contracts/Pits.sol:Pits",
        "label": "_initializing",
        "offset": 1,
        "slot": "0",
        "type": "t_bool"
      },
      {
        "astId": 591,
        "contract": "contracts/Pits.sol:Pits",
        "label": "_status",
        "offset": 0,
        "slot": "1",
        "type": "t_uint256"
      },
      {
        "astId": 649,
        "contract": "contracts/Pits.sol:Pits",
        "label": "__gap",
        "offset": 0,
        "slot": "2",
        "type": "t_array(t_uint256)49_storage"
      },
      {
        "astId": 10307,
        "contract": "contracts/Pits.sol:Pits",
        "label": "bones",
        "offset": 0,
        "slot": "51",
        "type": "t_contract(IERC20)6489"
      },
      {
        "astId": 10309,
        "contract": "contracts/Pits.sol:Pits",
        "label": "bonesStaked",
        "offset": 0,
        "slot": "52",
        "type": "t_uint256"
      },
      {
        "astId": 10311,
        "contract": "contracts/Pits.sol:Pits",
        "label": "timeOut",
        "offset": 0,
        "slot": "53",
        "type": "t_uint256"
      },
      {
        "astId": 10313,
        "contract": "contracts/Pits.sol:Pits",
        "label": "totalDaysOff",
        "offset": 0,
        "slot": "54",
        "type": "t_uint256"
      },
      {
        "astId": 10315,
        "contract": "contracts/Pits.sol:Pits",
        "label": "minimumPercent",
        "offset": 0,
        "slot": "55",
        "type": "t_uint256"
      },
      {
        "astId": 10319,
        "contract": "contracts/Pits.sol:Pits",
        "label": "balance",
        "offset": 0,
        "slot": "56",
        "type": "t_mapping(t_address,t_uint256)"
      },
      {
        "astId": 10323,
        "contract": "contracts/Pits.sol:Pits",
        "label": "trackDaysOff",
        "offset": 0,
        "slot": "57",
        "type": "t_mapping(t_uint256,t_uint256)"
      }
    ],
    "types": {
      "t_address": {
        "encoding": "inplace",
        "label": "address",
        "numberOfBytes": "20"
      },
      "t_array(t_uint256)49_storage": {
        "base": "t_uint256",
        "encoding": "inplace",
        "label": "uint256[49]",
        "numberOfBytes": "1568"
      },
      "t_bool": {
        "encoding": "inplace",
        "label": "bool",
        "numberOfBytes": "1"
      },
      "t_contract(IERC20)6489": {
        "encoding": "inplace",
        "label": "contract IERC20",
        "numberOfBytes": "20"
      },
      "t_mapping(t_address,t_uint256)": {
        "encoding": "mapping",
        "key": "t_address",
        "label": "mapping(address => uint256)",
        "numberOfBytes": "32",
        "value": "t_uint256"
      },
      "t_mapping(t_uint256,t_uint256)": {
        "encoding": "mapping",
        "key": "t_uint256",
        "label": "mapping(uint256 => uint256)",
        "numberOfBytes": "32",
        "value": "t_uint256"
      },
      "t_uint256": {
        "encoding": "inplace",
        "label": "uint256",
        "numberOfBytes": "32"
      },
      "t_uint8": {
        "encoding": "inplace",
        "label": "uint8",
        "numberOfBytes": "1"
      }
    }
  }
}