{
  "address": "0x8574A4863a6FC19DF93d1161f97CAf649c825D26",
  "abi": [
    {
      "inputs": [],
      "name": "InvalidTokenId",
      "type": "error"
    },
    {
      "inputs": [],
      "name": "LengthsNotEqual",
      "type": "error"
    },
    {
      "inputs": [],
      "name": "NewOwnerIsZeroAddress",
      "type": "error"
    },
    {
      "inputs": [],
      "name": "NoHandoverRequest",
      "type": "error"
    },
    {
      "inputs": [],
      "name": "NotAuthorized",
      "type": "error"
    },
    {
      "inputs": [],
      "name": "Unauthorized",
      "type": "error"
    },
    {
      "anonymous": false,
      "inputs": [
        {
          "indexed": true,
          "internalType": "address",
          "name": "account",
          "type": "address"
        },
        {
          "indexed": true,
          "internalType": "address",
          "name": "operator",
          "type": "address"
        },
        {
          "indexed": false,
          "internalType": "bool",
          "name": "approved",
          "type": "bool"
        }
      ],
      "name": "ApprovalForAll",
      "type": "event"
    },
    {
      "anonymous": false,
      "inputs": [
        {
          "indexed": false,
          "internalType": "uint8",
          "name": "version",
          "type": "uint8"
        }
      ],
      "name": "Initialized",
      "type": "event"
    },
    {
      "anonymous": false,
      "inputs": [
        {
          "indexed": true,
          "internalType": "address",
          "name": "pendingOwner",
          "type": "address"
        }
      ],
      "name": "OwnershipHandoverCanceled",
      "type": "event"
    },
    {
      "anonymous": false,
      "inputs": [
        {
          "indexed": true,
          "internalType": "address",
          "name": "pendingOwner",
          "type": "address"
        }
      ],
      "name": "OwnershipHandoverRequested",
      "type": "event"
    },
    {
      "anonymous": false,
      "inputs": [
        {
          "indexed": true,
          "internalType": "address",
          "name": "oldOwner",
          "type": "address"
        },
        {
          "indexed": true,
          "internalType": "address",
          "name": "newOwner",
          "type": "address"
        }
      ],
      "name": "OwnershipTransferred",
      "type": "event"
    },
    {
      "anonymous": false,
      "inputs": [
        {
          "indexed": true,
          "internalType": "address",
          "name": "operator",
          "type": "address"
        },
        {
          "indexed": true,
          "internalType": "address",
          "name": "from",
          "type": "address"
        },
        {
          "indexed": true,
          "internalType": "address",
          "name": "to",
          "type": "address"
        },
        {
          "indexed": false,
          "internalType": "uint256[]",
          "name": "ids",
          "type": "uint256[]"
        },
        {
          "indexed": false,
          "internalType": "uint256[]",
          "name": "values",
          "type": "uint256[]"
        }
      ],
      "name": "TransferBatch",
      "type": "event"
    },
    {
      "anonymous": false,
      "inputs": [
        {
          "indexed": true,
          "internalType": "address",
          "name": "operator",
          "type": "address"
        },
        {
          "indexed": true,
          "internalType": "address",
          "name": "from",
          "type": "address"
        },
        {
          "indexed": true,
          "internalType": "address",
          "name": "to",
          "type": "address"
        },
        {
          "indexed": false,
          "internalType": "uint256",
          "name": "id",
          "type": "uint256"
        },
        {
          "indexed": false,
          "internalType": "uint256",
          "name": "value",
          "type": "uint256"
        }
      ],
      "name": "TransferSingle",
      "type": "event"
    },
    {
      "anonymous": false,
      "inputs": [
        {
          "indexed": false,
          "internalType": "string",
          "name": "value",
          "type": "string"
        },
        {
          "indexed": true,
          "internalType": "uint256",
          "name": "id",
          "type": "uint256"
        }
      ],
      "name": "URI",
      "type": "event"
    },
    {
      "inputs": [],
      "name": "BONES_PRICE",
      "outputs": [
        {
          "internalType": "uint256",
          "name": "",
          "type": "uint256"
        }
      ],
      "stateMutability": "view",
      "type": "function"
    },
    {
      "inputs": [],
      "name": "MAGIC_PRICE",
      "outputs": [
        {
          "internalType": "uint256",
          "name": "",
          "type": "uint256"
        }
      ],
      "stateMutability": "view",
      "type": "function"
    },
    {
      "inputs": [],
      "name": "TREASURE_MOONROCK_VALUE",
      "outputs": [
        {
          "internalType": "uint256",
          "name": "",
          "type": "uint256"
        }
      ],
      "stateMutability": "view",
      "type": "function"
    },
    {
      "inputs": [
        {
          "internalType": "address",
          "name": "account",
          "type": "address"
        },
        {
          "internalType": "uint256",
          "name": "id",
          "type": "uint256"
        }
      ],
      "name": "balanceOf",
      "outputs": [
        {
          "internalType": "uint256",
          "name": "",
          "type": "uint256"
        }
      ],
      "stateMutability": "view",
      "type": "function"
    },
    {
      "inputs": [
        {
          "internalType": "address[]",
          "name": "accounts",
          "type": "address[]"
        },
        {
          "internalType": "uint256[]",
          "name": "ids",
          "type": "uint256[]"
        }
      ],
      "name": "balanceOfBatch",
      "outputs": [
        {
          "internalType": "uint256[]",
          "name": "",
          "type": "uint256[]"
        }
      ],
      "stateMutability": "view",
      "type": "function"
    },
    {
      "inputs": [],
      "name": "bones",
      "outputs": [
        {
          "internalType": "address",
          "name": "",
          "type": "address"
        }
      ],
      "stateMutability": "view",
      "type": "function"
    },
    {
      "inputs": [],
      "name": "cancelOwnershipHandover",
      "outputs": [],
      "stateMutability": "payable",
      "type": "function"
    },
    {
      "inputs": [
        {
          "internalType": "address",
          "name": "pendingOwner",
          "type": "address"
        }
      ],
      "name": "completeOwnershipHandover",
      "outputs": [],
      "stateMutability": "payable",
      "type": "function"
    },
    {
      "inputs": [
        {
          "internalType": "address",
          "name": "_bones",
          "type": "address"
        },
        {
          "internalType": "address",
          "name": "_magic",
          "type": "address"
        },
        {
          "internalType": "address",
          "name": "_treasure",
          "type": "address"
        },
        {
          "internalType": "string",
          "name": "_baseUri",
          "type": "string"
        }
      ],
      "name": "initialize",
      "outputs": [],
      "stateMutability": "nonpayable",
      "type": "function"
    },
    {
      "inputs": [
        {
          "internalType": "address",
          "name": "account",
          "type": "address"
        },
        {
          "internalType": "address",
          "name": "operator",
          "type": "address"
        }
      ],
      "name": "isApprovedForAll",
      "outputs": [
        {
          "internalType": "bool",
          "name": "",
          "type": "bool"
        }
      ],
      "stateMutability": "view",
      "type": "function"
    },
    {
      "inputs": [],
      "name": "laborGround",
      "outputs": [
        {
          "internalType": "address",
          "name": "",
          "type": "address"
        }
      ],
      "stateMutability": "view",
      "type": "function"
    },
    {
      "inputs": [],
      "name": "magic",
      "outputs": [
        {
          "internalType": "address",
          "name": "",
          "type": "address"
        }
      ],
      "stateMutability": "view",
      "type": "function"
    },
    {
      "inputs": [
        {
          "internalType": "uint256[]",
          "name": "_tokenId",
          "type": "uint256[]"
        },
        {
          "internalType": "uint256[]",
          "name": "_amount",
          "type": "uint256[]"
        },
        {
          "internalType": "enum Supplies.Curr[]",
          "name": "_curr",
          "type": "uint8[]"
        }
      ],
      "name": "mint",
      "outputs": [],
      "stateMutability": "nonpayable",
      "type": "function"
    },
    {
      "inputs": [],
      "name": "name",
      "outputs": [
        {
          "internalType": "string",
          "name": "",
          "type": "string"
        }
      ],
      "stateMutability": "pure",
      "type": "function"
    },
    {
      "inputs": [],
      "name": "owner",
      "outputs": [
        {
          "internalType": "address",
          "name": "result",
          "type": "address"
        }
      ],
      "stateMutability": "view",
      "type": "function"
    },
    {
      "inputs": [
        {
          "internalType": "address",
          "name": "pendingOwner",
          "type": "address"
        }
      ],
      "name": "ownershipHandoverExpiresAt",
      "outputs": [
        {
          "internalType": "uint256",
          "name": "result",
          "type": "uint256"
        }
      ],
      "stateMutability": "view",
      "type": "function"
    },
    {
      "inputs": [],
      "name": "ownershipHandoverValidFor",
      "outputs": [
        {
          "internalType": "uint64",
          "name": "",
          "type": "uint64"
        }
      ],
      "stateMutability": "view",
      "type": "function"
    },
    {
      "inputs": [],
      "name": "renounceOwnership",
      "outputs": [],
      "stateMutability": "payable",
      "type": "function"
    },
    {
      "inputs": [],
      "name": "requestOwnershipHandover",
      "outputs": [],
      "stateMutability": "payable",
      "type": "function"
    },
    {
      "inputs": [
        {
          "internalType": "address",
          "name": "from",
          "type": "address"
        },
        {
          "internalType": "address",
          "name": "to",
          "type": "address"
        },
        {
          "internalType": "uint256[]",
          "name": "ids",
          "type": "uint256[]"
        },
        {
          "internalType": "uint256[]",
          "name": "amounts",
          "type": "uint256[]"
        },
        {
          "internalType": "bytes",
          "name": "data",
          "type": "bytes"
        }
      ],
      "name": "safeBatchTransferFrom",
      "outputs": [],
      "stateMutability": "nonpayable",
      "type": "function"
    },
    {
      "inputs": [
        {
          "internalType": "address",
          "name": "from",
          "type": "address"
        },
        {
          "internalType": "address",
          "name": "to",
          "type": "address"
        },
        {
          "internalType": "uint256",
          "name": "id",
          "type": "uint256"
        },
        {
          "internalType": "uint256",
          "name": "amount",
          "type": "uint256"
        },
        {
          "internalType": "bytes",
          "name": "data",
          "type": "bytes"
        }
      ],
      "name": "safeTransferFrom",
      "outputs": [],
      "stateMutability": "nonpayable",
      "type": "function"
    },
    {
      "inputs": [
        {
          "internalType": "address",
          "name": "operator",
          "type": "address"
        },
        {
          "internalType": "bool",
          "name": "approved",
          "type": "bool"
        }
      ],
      "name": "setApprovalForAll",
      "outputs": [],
      "stateMutability": "nonpayable",
      "type": "function"
    },
    {
      "inputs": [
        {
          "internalType": "address",
          "name": "_laborGround",
          "type": "address"
        }
      ],
      "name": "setLaborGroundAddresss",
      "outputs": [],
      "stateMutability": "nonpayable",
      "type": "function"
    },
    {
      "inputs": [
        {
          "internalType": "bytes4",
          "name": "interfaceId",
          "type": "bytes4"
        }
      ],
      "name": "supportsInterface",
      "outputs": [
        {
          "internalType": "bool",
          "name": "",
          "type": "bool"
        }
      ],
      "stateMutability": "view",
      "type": "function"
    },
    {
      "inputs": [],
      "name": "symbol",
      "outputs": [
        {
          "internalType": "string",
          "name": "",
          "type": "string"
        }
      ],
      "stateMutability": "pure",
      "type": "function"
    },
    {
      "inputs": [
        {
          "internalType": "address",
          "name": "newOwner",
          "type": "address"
        }
      ],
      "name": "transferOwnership",
      "outputs": [],
      "stateMutability": "payable",
      "type": "function"
    },
    {
      "inputs": [],
      "name": "treasure",
      "outputs": [
        {
          "internalType": "address",
          "name": "",
          "type": "address"
        }
      ],
      "stateMutability": "view",
      "type": "function"
    },
    {
      "inputs": [
        {
          "internalType": "uint256",
          "name": "_tokenId",
          "type": "uint256"
        }
      ],
      "name": "uri",
      "outputs": [
        {
          "internalType": "string",
          "name": "",
          "type": "string"
        }
      ],
      "stateMutability": "view",
      "type": "function"
    },
    {
      "inputs": [],
      "name": "withdraw",
      "outputs": [],
      "stateMutability": "nonpayable",
      "type": "function"
    }
  ],
  "transactionHash": "0x12cf65891b511e7e3a8be8b610959fa2145796a69acb352935a30774b9880957",
  "args": [],
  "numDeployments": 1,
  "solcInputHash": "478423c85a6e9b2cb2f2675d47beffcf",
  "bytecode": "0x608060405234801561001057600080fd5b50614122806100206000396000f3fe6080604052600436106101c15760003560e01c80636c8e4e4a116100f7578063d7533f0211610095578063f04e283e11610064578063f04e283e146105d2578063f242432a146105ee578063f2fde38b14610617578063fee81cf414610633576101c1565b8063d7533f0214610514578063d88ad8871461053f578063e520fc7e1461056a578063e985e9c514610595576101c1565b80638da5cb5b116100d15780638da5cb5b1461046a57806395d89b4114610495578063a22cb465146104c0578063aad9b207146104e9576101c1565b80636c8e4e4a1461040a578063715018a61461043557806372355af81461043f576101c1565b80632eb2c2d6116101645780634e1273f41161013e5780634e1273f41461036f57806354d1f13d146103ac57806365e8e4f4146103b6578063674e68ad146103df576101c1565b80632eb2c2d6146103065780633ccfd60b1461032f5780634b98d53b14610346576101c1565b80630d854646116101a05780630d8546461461026b5780630e89341c146102965780631963070e146102d357806325692962146102fc576101c1565b8062fdd58e146101c657806301ffc9a71461020357806306fdde0314610240575b600080fd5b3480156101d257600080fd5b506101ed60048036038101906101e89190612661565b610670565b6040516101fa91906126b0565b60405180910390f35b34801561020f57600080fd5b5061022a60048036038101906102259190612723565b610739565b604051610237919061276b565b60405180910390f35b34801561024c57600080fd5b5061025561081b565b6040516102629190612816565b60405180910390f35b34801561027757600080fd5b50610280610858565b60405161028d9190612847565b60405180910390f35b3480156102a257600080fd5b506102bd60048036038101906102b89190612862565b61087e565b6040516102ca9190612816565b60405180910390f35b3480156102df57600080fd5b506102fa60048036038101906102f5919061288f565b6108b2565b005b6103046108fe565b005b34801561031257600080fd5b5061032d60048036038101906103289190612ab9565b610952565b005b34801561033b57600080fd5b506103446109f3565b005b34801561035257600080fd5b5061036d60048036038101906103689190612c39565b610a2a565b005b34801561037b57600080fd5b5061039660048036038101906103919190612db0565b610bb3565b6040516103a39190612ee6565b60405180910390f35b6103b4610ccc565b005b3480156103c257600080fd5b506103dd60048036038101906103d89190612fa9565b610d08565b005b3480156103eb57600080fd5b506103f4610f1e565b60405161040191906126b0565b60405180910390f35b34801561041657600080fd5b5061041f610f2b565b60405161042c91906126b0565b60405180910390f35b61043d610f37565b005b34801561044b57600080fd5b50610454610f4b565b6040516104619190612847565b60405180910390f35b34801561047657600080fd5b5061047f610f71565b60405161048c9190612847565b60405180910390f35b3480156104a157600080fd5b506104aa610f7f565b6040516104b79190612816565b60405180910390f35b3480156104cc57600080fd5b506104e760048036038101906104e29190613058565b610fbc565b005b3480156104f557600080fd5b506104fe611051565b60405161050b91906126b0565b60405180910390f35b34801561052057600080fd5b50610529611056565b60405161053691906130bb565b60405180910390f35b34801561054b57600080fd5b50610554611061565b6040516105619190612847565b60405180910390f35b34801561057657600080fd5b5061057f611087565b60405161058c9190612847565b60405180910390f35b3480156105a157600080fd5b506105bc60048036038101906105b791906130d6565b6110ad565b6040516105c9919061276b565b60405180910390f35b6105ec60048036038101906105e7919061288f565b611141565b005b3480156105fa57600080fd5b5061061560048036038101906106109190613116565b611182565b005b610631600480360381019061062c919061288f565b611223565b005b34801561063f57600080fd5b5061065a6004803603810190610655919061288f565b61124d565b60405161066791906126b0565b60405180910390f35b60008073ffffffffffffffffffffffffffffffffffffffff168373ffffffffffffffffffffffffffffffffffffffff16036106e0576040517f08c379a00000000000000000000000000000000000000000000000000000000081526004016106d79061321f565b60405180910390fd5b6065600083815260200190815260200160002060008473ffffffffffffffffffffffffffffffffffffffff1673ffffffffffffffffffffffffffffffffffffffff16815260200190815260200160002054905092915050565b60007fd9b67a26000000000000000000000000000000000000000000000000000000007bffffffffffffffffffffffffffffffffffffffffffffffffffffffff1916827bffffffffffffffffffffffffffffffffffffffffffffffffffffffff1916148061080457507f0e89341c000000000000000000000000000000000000000000000000000000007bffffffffffffffffffffffffffffffffffffffffffffffffffffffff1916827bffffffffffffffffffffffffffffffffffffffffffffffffffffffff1916145b80610814575061081382611268565b5b9050919050565b60606040518060400160405280600881526020017f537570706c696573000000000000000000000000000000000000000000000000815250905090565b609a60009054906101000a900473ffffffffffffffffffffffffffffffffffffffff1681565b6060609b61088b836112d2565b60405160200161089c929190613373565b6040516020818303038152906040529050919050565b6108ba6113a0565b80609760006101000a81548173ffffffffffffffffffffffffffffffffffffffff021916908373ffffffffffffffffffffffffffffffffffffffff16021790555050565b6000610908611056565b67ffffffffffffffff164201905063389a75e1600c5233600052806020600c2055337fdbf36a107da19e49527a7176a1babf963b4b0ff8cde35ee35d6cd8f1f9ac7e1d600080a250565b61095a6113bd565b73ffffffffffffffffffffffffffffffffffffffff168573ffffffffffffffffffffffffffffffffffffffff1614806109a0575061099f8561099a6113bd565b6110ad565b5b6109df576040517f08c379a00000000000000000000000000000000000000000000000000000000081526004016109d690613409565b60405180910390fd5b6109ec85858585856113c5565b5050505050565b6109fb6113a0565b610a27609a60009054906101000a900473ffffffffffffffffffffffffffffffffffffffff16336116e9565b50565b60008484905087879050141580610a475750828290508585905014155b15610a7e576040517f22cb666100000000000000000000000000000000000000000000000000000000815260040160405180910390fd5b5b86869050811015610baa576003878783818110610a9f57610a9e613429565b5b905060200201351180610acb57506001878783818110610ac257610ac1613429565b5b90506020020135105b15610b02576040517f3f6cc76800000000000000000000000000000000000000000000000000000000815260040160405180910390fd5b610b4c838383818110610b1857610b17613429565b5b9050602002016020810190610b2d919061347d565b868684818110610b4057610b3f613429565b5b90506020020135611764565b610b9933888884818110610b6357610b62613429565b5b90506020020135878785818110610b7d57610b7c613429565b5b9050602002013560405180602001604052806000815250611970565b80610ba3906134d9565b9050610a7f565b50505050505050565b60608151835114610bf9576040517f08c379a0000000000000000000000000000000000000000000000000000000008152600401610bf090613593565b60405180910390fd5b6000835167ffffffffffffffff811115610c1657610c156128c1565b5b604051908082528060200260200182016040528015610c445781602001602082028036833780820191505090505b50905060005b8451811015610cc157610c91858281518110610c6957610c68613429565b5b6020026020010151858381518110610c8457610c83613429565b5b6020026020010151610670565b828281518110610ca457610ca3613429565b5b60200260200101818152505080610cba906134d9565b9050610c4a565b508091505092915050565b63389a75e1600c523360005260006020600c2055337ffa7b8eab7da67f412cc9575ed43464468f9bfbae89d1675917346ca6d8fe3c92600080a2565b60008060019054906101000a900460ff16159050808015610d395750600160008054906101000a900460ff1660ff16105b80610d665750610d4830611b21565b158015610d655750600160008054906101000a900460ff1660ff16145b5b610da5576040517f08c379a0000000000000000000000000000000000000000000000000000000008152600401610d9c90613625565b60405180910390fd5b60016000806101000a81548160ff021916908360ff1602179055508015610de2576001600060016101000a81548160ff0219169083151502179055505b610deb33611b44565b84609960006101000a81548173ffffffffffffffffffffffffffffffffffffffff021916908373ffffffffffffffffffffffffffffffffffffffff16021790555083609a60006101000a81548173ffffffffffffffffffffffffffffffffffffffff021916908373ffffffffffffffffffffffffffffffffffffffff16021790555082609860006101000a81548173ffffffffffffffffffffffffffffffffffffffff021916908373ffffffffffffffffffffffffffffffffffffffff16021790555081609b9081610ebd91906137dc565b508015610f175760008060016101000a81548160ff0219169083151502179055507f7f26b83ff96e1f2b6a682f133852f6798a09c465da95921460cefb38474024986001604051610f0e91906138f6565b60405180910390a15b5050505050565b683635c9adc5dea0000081565b678ac7230489e8000081565b610f3f6113a0565b610f496000611b80565b565b609760009054906101000a900473ffffffffffffffffffffffffffffffffffffffff1681565b6000638b78c6d81954905090565b60606040518060400160405280600881526020017f737570706c696573000000000000000000000000000000000000000000000000815250905090565b609760009054906101000a900473ffffffffffffffffffffffffffffffffffffffff1673ffffffffffffffffffffffffffffffffffffffff168273ffffffffffffffffffffffffffffffffffffffff1614611043576040517fea8e4eb500000000000000000000000000000000000000000000000000000000815260040160405180910390fd5b61104d8282611bbe565b5050565b600581565b60006202a300905090565b609960009054906101000a900473ffffffffffffffffffffffffffffffffffffffff1681565b609860009054906101000a900473ffffffffffffffffffffffffffffffffffffffff1681565b6000606660008473ffffffffffffffffffffffffffffffffffffffff1673ffffffffffffffffffffffffffffffffffffffff16815260200190815260200160002060008373ffffffffffffffffffffffffffffffffffffffff1673ffffffffffffffffffffffffffffffffffffffff16815260200190815260200160002060009054906101000a900460ff16905092915050565b6111496113a0565b63389a75e1600c52806000526020600c20805442111561117157636f5e88186000526004601cfd5b600081555061117f81611b80565b50565b61118a6113bd565b73ffffffffffffffffffffffffffffffffffffffff168573ffffffffffffffffffffffffffffffffffffffff1614806111d057506111cf856111ca6113bd565b6110ad565b5b61120f576040517f08c379a000000000000000000000000000000000000000000000000000000000815260040161120690613409565b60405180910390fd5b61121c8585858585611bd4565b5050505050565b61122b6113a0565b8060601b61124157637448fbae6000526004601cfd5b61124a81611b80565b50565b600063389a75e1600c52816000526020600c20549050919050565b60007f01ffc9a7000000000000000000000000000000000000000000000000000000007bffffffffffffffffffffffffffffffffffffffffffffffffffffffff1916827bffffffffffffffffffffffffffffffffffffffffffffffffffffffff1916149050919050565b6060600060016112e184611e72565b01905060008167ffffffffffffffff811115611300576112ff6128c1565b5b6040519080825280601f01601f1916602001820160405280156113325781602001600182028036833780820191505090505b509050600082602001820190505b600115611395578080600190039150507f3031323334353637383961626364656600000000000000000000000000000000600a86061a8153600a858161138957611388613911565b5b04945060008503611340575b819350505050919050565b638b78c6d8195433146113bb576382b429006000526004601cfd5b565b600033905090565b8151835114611409576040517f08c379a0000000000000000000000000000000000000000000000000000000008152600401611400906139b2565b60405180910390fd5b600073ffffffffffffffffffffffffffffffffffffffff168473ffffffffffffffffffffffffffffffffffffffff1603611478576040517f08c379a000000000000000000000000000000000000000000000000000000000815260040161146f90613a44565b60405180910390fd5b60006114826113bd565b9050611492818787878787611fc5565b60005b84518110156116465760008582815181106114b3576114b2613429565b5b6020026020010151905060008583815181106114d2576114d1613429565b5b6020026020010151905060006065600084815260200190815260200160002060008b73ffffffffffffffffffffffffffffffffffffffff1673ffffffffffffffffffffffffffffffffffffffff16815260200190815260200160002054905081811015611574576040517f08c379a000000000000000000000000000000000000000000000000000000000815260040161156b90613ad6565b60405180910390fd5b8181036065600085815260200190815260200160002060008c73ffffffffffffffffffffffffffffffffffffffff1673ffffffffffffffffffffffffffffffffffffffff16815260200190815260200160002081905550816065600085815260200190815260200160002060008b73ffffffffffffffffffffffffffffffffffffffff1673ffffffffffffffffffffffffffffffffffffffff168152602001908152602001600020600082825461162b9190613af6565b925050819055505050508061163f906134d9565b9050611495565b508473ffffffffffffffffffffffffffffffffffffffff168673ffffffffffffffffffffffffffffffffffffffff168273ffffffffffffffffffffffffffffffffffffffff167f4a39dc06d4c0dbc64b70af90fd698a233a518aa5d07e595d983b8c0526c8f7fb87876040516116bd929190613b2a565b60405180910390a46116d3818787878787611fcd565b6116e1818787878787611fd5565b505050505050565b60006370a08231600052306020526020603a6024601c865afa601f3d1116611719576390b8ec186000526004601cfd5b81601a52603a51905069a9059cbb00000000000060005260206000604460166000875af13d156001600051141716611759576390b8ec186000526004601cfd5b6000603a5292915050565b6000600281111561177857611777613b61565b5b82600281111561178b5761178a613b61565b5b036117d2576117d1609a60009054906101000a900473ffffffffffffffffffffffffffffffffffffffff16333084678ac7230489e800006117cc9190613b90565b6121ac565b5b600160028111156117e6576117e5613b61565b5b8260028111156117f9576117f8613b61565b5b036118a257609960009054906101000a900473ffffffffffffffffffffffffffffffffffffffff1673ffffffffffffffffffffffffffffffffffffffff16639dc29fac3383683635c9adc5dea000006118529190613b90565b6040518363ffffffff1660e01b815260040161186f929190613bd2565b600060405180830381600087803b15801561188957600080fd5b505af115801561189d573d6000803e3d6000fd5b505050505b6002808111156118b5576118b4613b61565b5b8260028111156118c8576118c7613b61565b5b0361196c57609860009054906101000a900473ffffffffffffffffffffffffffffffffffffffff1673ffffffffffffffffffffffffffffffffffffffff1663f5298aca33600184600561191b9190613b90565b6040518463ffffffff1660e01b815260040161193993929190613c2c565b600060405180830381600087803b15801561195357600080fd5b505af1158015611967573d6000803e3d6000fd5b505050505b5050565b600073ffffffffffffffffffffffffffffffffffffffff168473ffffffffffffffffffffffffffffffffffffffff16036119df576040517f08c379a00000000000000000000000000000000000000000000000000000000081526004016119d690613cd5565b60405180910390fd5b60006119e96113bd565b905060006119f6856121fc565b90506000611a03856121fc565b9050611a1483600089858589611fc5565b846065600088815260200190815260200160002060008973ffffffffffffffffffffffffffffffffffffffff1673ffffffffffffffffffffffffffffffffffffffff1681526020019081526020016000206000828254611a749190613af6565b925050819055508673ffffffffffffffffffffffffffffffffffffffff16600073ffffffffffffffffffffffffffffffffffffffff168473ffffffffffffffffffffffffffffffffffffffff167fc3d58168c5ae7397731d063d5bbf3d657854427343f4c083240f7aacaa2d0f628989604051611af2929190613cf5565b60405180910390a4611b0983600089858589611fcd565b611b1883600089898989612276565b50505050505050565b6000808273ffffffffffffffffffffffffffffffffffffffff163b119050919050565b8060601b60601c905080638b78c6d819558060007f8be0079c531659141344cd1fd0a4f28419497f9722a3daafe3b4186f6b6457e0600080a350565b638b78c6d8198160601b60601c91508181547f8be0079c531659141344cd1fd0a4f28419497f9722a3daafe3b4186f6b6457e0600080a38181555050565b611bd0611bc96113bd565b838361244d565b5050565b600073ffffffffffffffffffffffffffffffffffffffff168473ffffffffffffffffffffffffffffffffffffffff1603611c43576040517f08c379a0000000000000000000000000000000000000000000000000000000008152600401611c3a90613a44565b60405180910390fd5b6000611c4d6113bd565b90506000611c5a856121fc565b90506000611c67856121fc565b9050611c77838989858589611fc5565b60006065600088815260200190815260200160002060008a73ffffffffffffffffffffffffffffffffffffffff1673ffffffffffffffffffffffffffffffffffffffff16815260200190815260200160002054905085811015611d0f576040517f08c379a0000000000000000000000000000000000000000000000000000000008152600401611d0690613ad6565b60405180910390fd5b8581036065600089815260200190815260200160002060008b73ffffffffffffffffffffffffffffffffffffffff1673ffffffffffffffffffffffffffffffffffffffff16815260200190815260200160002081905550856065600089815260200190815260200160002060008a73ffffffffffffffffffffffffffffffffffffffff1673ffffffffffffffffffffffffffffffffffffffff1681526020019081526020016000206000828254611dc69190613af6565b925050819055508773ffffffffffffffffffffffffffffffffffffffff168973ffffffffffffffffffffffffffffffffffffffff168573ffffffffffffffffffffffffffffffffffffffff167fc3d58168c5ae7397731d063d5bbf3d657854427343f4c083240f7aacaa2d0f628a8a604051611e43929190613cf5565b60405180910390a4611e59848a8a86868a611fcd565b611e67848a8a8a8a8a612276565b505050505050505050565b600080600090507a184f03e93ff9f4daa797ed6e38ed64bf6a1f0100000000000000008310611ed0577a184f03e93ff9f4daa797ed6e38ed64bf6a1f0100000000000000008381611ec657611ec5613911565b5b0492506040810190505b6d04ee2d6d415b85acef81000000008310611f0d576d04ee2d6d415b85acef81000000008381611f0357611f02613911565b5b0492506020810190505b662386f26fc100008310611f3c57662386f26fc100008381611f3257611f31613911565b5b0492506010810190505b6305f5e1008310611f65576305f5e1008381611f5b57611f5a613911565b5b0492506008810190505b6127108310611f8a576127108381611f8057611f7f613911565b5b0492506004810190505b60648310611fad5760648381611fa357611fa2613911565b5b0492506002810190505b600a8310611fbc576001810190505b80915050919050565b505050505050565b505050505050565b611ff48473ffffffffffffffffffffffffffffffffffffffff16611b21565b156121a4578373ffffffffffffffffffffffffffffffffffffffff1663bc197c8187878686866040518663ffffffff1660e01b815260040161203a959493929190613d73565b6020604051808303816000875af192505050801561207657506040513d601f19601f820116820180604052508101906120739190613df0565b60015b61211b57612082613e2a565b806308c379a0036120de5750612096613e4c565b806120a157506120e0565b806040517f08c379a00000000000000000000000000000000000000000000000000000000081526004016120d59190612816565b60405180910390fd5b505b6040517f08c379a000000000000000000000000000000000000000000000000000000000815260040161211290613f4e565b60405180910390fd5b63bc197c8160e01b7bffffffffffffffffffffffffffffffffffffffffffffffffffffffff1916817bffffffffffffffffffffffffffffffffffffffffffffffffffffffff1916146121a2576040517f08c379a000000000000000000000000000000000000000000000000000000000815260040161219990613fe0565b60405180910390fd5b505b505050505050565b6040516323b872dd600052836020528260405281606052602060006064601c6000895af13d1560016000511417166121ec57637939f4246000526004601cfd5b6000606052806040525050505050565b60606000600167ffffffffffffffff81111561221b5761221a6128c1565b5b6040519080825280602002602001820160405280156122495781602001602082028036833780820191505090505b509050828160008151811061226157612260613429565b5b60200260200101818152505080915050919050565b6122958473ffffffffffffffffffffffffffffffffffffffff16611b21565b15612445578373ffffffffffffffffffffffffffffffffffffffff1663f23a6e6187878686866040518663ffffffff1660e01b81526004016122db959493929190614000565b6020604051808303816000875af192505050801561231757506040513d601f19601f820116820180604052508101906123149190613df0565b60015b6123bc57612323613e2a565b806308c379a00361237f5750612337613e4c565b806123425750612381565b806040517f08c379a00000000000000000000000000000000000000000000000000000000081526004016123769190612816565b60405180910390fd5b505b6040517f08c379a00000000000000000000000000000000000000000000000000000000081526004016123b390613f4e565b60405180910390fd5b63f23a6e6160e01b7bffffffffffffffffffffffffffffffffffffffffffffffffffffffff1916817bffffffffffffffffffffffffffffffffffffffffffffffffffffffff191614612443576040517f08c379a000000000000000000000000000000000000000000000000000000000815260040161243a90613fe0565b60405180910390fd5b505b505050505050565b8173ffffffffffffffffffffffffffffffffffffffff168373ffffffffffffffffffffffffffffffffffffffff16036124bb576040517f08c379a00000000000000000000000000000000000000000000000000000000081526004016124b2906140cc565b60405180910390fd5b80606660008573ffffffffffffffffffffffffffffffffffffffff1673ffffffffffffffffffffffffffffffffffffffff16815260200190815260200160002060008473ffffffffffffffffffffffffffffffffffffffff1673ffffffffffffffffffffffffffffffffffffffff16815260200190815260200160002060006101000a81548160ff0219169083151502179055508173ffffffffffffffffffffffffffffffffffffffff168373ffffffffffffffffffffffffffffffffffffffff167f17307eab39ab6107e8899845ad3d59bd9653f200f220920489ca2b5937696c31836040516125ac919061276b565b60405180910390a3505050565b6000604051905090565b600080fd5b600080fd5b600073ffffffffffffffffffffffffffffffffffffffff82169050919050565b60006125f8826125cd565b9050919050565b612608816125ed565b811461261357600080fd5b50565b600081359050612625816125ff565b92915050565b6000819050919050565b61263e8161262b565b811461264957600080fd5b50565b60008135905061265b81612635565b92915050565b60008060408385031215612678576126776125c3565b5b600061268685828601612616565b92505060206126978582860161264c565b9150509250929050565b6126aa8161262b565b82525050565b60006020820190506126c560008301846126a1565b92915050565b60007fffffffff0000000000000000000000000000000000000000000000000000000082169050919050565b612700816126cb565b811461270b57600080fd5b50565b60008135905061271d816126f7565b92915050565b600060208284031215612739576127386125c3565b5b60006127478482850161270e565b91505092915050565b60008115159050919050565b61276581612750565b82525050565b6000602082019050612780600083018461275c565b92915050565b600081519050919050565b600082825260208201905092915050565b60005b838110156127c05780820151818401526020810190506127a5565b60008484015250505050565b6000601f19601f8301169050919050565b60006127e882612786565b6127f28185612791565b93506128028185602086016127a2565b61280b816127cc565b840191505092915050565b6000602082019050818103600083015261283081846127dd565b905092915050565b612841816125ed565b82525050565b600060208201905061285c6000830184612838565b92915050565b600060208284031215612878576128776125c3565b5b60006128868482850161264c565b91505092915050565b6000602082840312156128a5576128a46125c3565b5b60006128b384828501612616565b91505092915050565b600080fd5b7f4e487b7100000000000000000000000000000000000000000000000000000000600052604160045260246000fd5b6128f9826127cc565b810181811067ffffffffffffffff82111715612918576129176128c1565b5b80604052505050565b600061292b6125b9565b905061293782826128f0565b919050565b600067ffffffffffffffff821115612957576129566128c1565b5b602082029050602081019050919050565b600080fd5b600061298061297b8461293c565b612921565b905080838252602082019050602084028301858111156129a3576129a2612968565b5b835b818110156129cc57806129b8888261264c565b8452602084019350506020810190506129a5565b5050509392505050565b600082601f8301126129eb576129ea6128bc565b5b81356129fb84826020860161296d565b91505092915050565b600080fd5b600067ffffffffffffffff821115612a2457612a236128c1565b5b612a2d826127cc565b9050602081019050919050565b82818337600083830152505050565b6000612a5c612a5784612a09565b612921565b905082815260208101848484011115612a7857612a77612a04565b5b612a83848285612a3a565b509392505050565b600082601f830112612aa057612a9f6128bc565b5b8135612ab0848260208601612a49565b91505092915050565b600080600080600060a08688031215612ad557612ad46125c3565b5b6000612ae388828901612616565b9550506020612af488828901612616565b945050604086013567ffffffffffffffff811115612b1557612b146125c8565b5b612b21888289016129d6565b935050606086013567ffffffffffffffff811115612b4257612b416125c8565b5b612b4e888289016129d6565b925050608086013567ffffffffffffffff811115612b6f57612b6e6125c8565b5b612b7b88828901612a8b565b9150509295509295909350565b600080fd5b60008083601f840112612ba357612ba26128bc565b5b8235905067ffffffffffffffff811115612bc057612bbf612b88565b5b602083019150836020820283011115612bdc57612bdb612968565b5b9250929050565b60008083601f840112612bf957612bf86128bc565b5b8235905067ffffffffffffffff811115612c1657612c15612b88565b5b602083019150836020820283011115612c3257612c31612968565b5b9250929050565b60008060008060008060608789031215612c5657612c556125c3565b5b600087013567ffffffffffffffff811115612c7457612c736125c8565b5b612c8089828a01612b8d565b9650965050602087013567ffffffffffffffff811115612ca357612ca26125c8565b5b612caf89828a01612b8d565b9450945050604087013567ffffffffffffffff811115612cd257612cd16125c8565b5b612cde89828a01612be3565b92509250509295509295509295565b600067ffffffffffffffff821115612d0857612d076128c1565b5b602082029050602081019050919050565b6000612d2c612d2784612ced565b612921565b90508083825260208201905060208402830185811115612d4f57612d4e612968565b5b835b81811015612d785780612d648882612616565b845260208401935050602081019050612d51565b5050509392505050565b600082601f830112612d9757612d966128bc565b5b8135612da7848260208601612d19565b91505092915050565b60008060408385031215612dc757612dc66125c3565b5b600083013567ffffffffffffffff811115612de557612de46125c8565b5b612df185828601612d82565b925050602083013567ffffffffffffffff811115612e1257612e116125c8565b5b612e1e858286016129d6565b9150509250929050565b600081519050919050565b600082825260208201905092915050565b6000819050602082019050919050565b612e5d8161262b565b82525050565b6000612e6f8383612e54565b60208301905092915050565b6000602082019050919050565b6000612e9382612e28565b612e9d8185612e33565b9350612ea883612e44565b8060005b83811015612ed9578151612ec08882612e63565b9750612ecb83612e7b565b925050600181019050612eac565b5085935050505092915050565b60006020820190508181036000830152612f008184612e88565b905092915050565b600067ffffffffffffffff821115612f2357612f226128c1565b5b612f2c826127cc565b9050602081019050919050565b6000612f4c612f4784612f08565b612921565b905082815260208101848484011115612f6857612f67612a04565b5b612f73848285612a3a565b509392505050565b600082601f830112612f9057612f8f6128bc565b5b8135612fa0848260208601612f39565b91505092915050565b60008060008060808587031215612fc357612fc26125c3565b5b6000612fd187828801612616565b9450506020612fe287828801612616565b9350506040612ff387828801612616565b925050606085013567ffffffffffffffff811115613014576130136125c8565b5b61302087828801612f7b565b91505092959194509250565b61303581612750565b811461304057600080fd5b50565b6000813590506130528161302c565b92915050565b6000806040838503121561306f5761306e6125c3565b5b600061307d85828601612616565b925050602061308e85828601613043565b9150509250929050565b600067ffffffffffffffff82169050919050565b6130b581613098565b82525050565b60006020820190506130d060008301846130ac565b92915050565b600080604083850312156130ed576130ec6125c3565b5b60006130fb85828601612616565b925050602061310c85828601612616565b9150509250929050565b600080600080600060a08688031215613132576131316125c3565b5b600061314088828901612616565b955050602061315188828901612616565b94505060406131628882890161264c565b93505060606131738882890161264c565b925050608086013567ffffffffffffffff811115613194576131936125c8565b5b6131a088828901612a8b565b9150509295509295909350565b7f455243313135353a2061646472657373207a65726f206973206e6f742061207660008201527f616c6964206f776e657200000000000000000000000000000000000000000000602082015250565b6000613209602a83612791565b9150613214826131ad565b604082019050919050565b60006020820190508181036000830152613238816131fc565b9050919050565b7f4e487b7100000000000000000000000000000000000000000000000000000000600052602260045260246000fd5b6000600282049050600182168061328657607f821691505b6020821081036132995761329861323f565b5b50919050565b600081905092915050565b60008190508160005260206000209050919050565b600081546132cc8161326e565b6132d6818661329f565b945060018216600081146132f1576001811461330657613339565b60ff1983168652811515820286019350613339565b61330f856132aa565b60005b8381101561333157815481890152600182019150602081019050613312565b838801955050505b50505092915050565b600061334d82612786565b613357818561329f565b93506133678185602086016127a2565b80840191505092915050565b600061337f82856132bf565b915061338b8284613342565b91508190509392505050565b7f455243313135353a2063616c6c6572206973206e6f7420746f6b656e206f776e60008201527f6572206f7220617070726f766564000000000000000000000000000000000000602082015250565b60006133f3602e83612791565b91506133fe82613397565b604082019050919050565b60006020820190508181036000830152613422816133e6565b9050919050565b7f4e487b7100000000000000000000000000000000000000000000000000000000600052603260045260246000fd5b6003811061346557600080fd5b50565b60008135905061347781613458565b92915050565b600060208284031215613493576134926125c3565b5b60006134a184828501613468565b91505092915050565b7f4e487b7100000000000000000000000000000000000000000000000000000000600052601160045260246000fd5b60006134e48261262b565b91507fffffffffffffffffffffffffffffffffffffffffffffffffffffffffffffffff8203613516576135156134aa565b5b600182019050919050565b7f455243313135353a206163636f756e747320616e6420696473206c656e67746860008201527f206d69736d617463680000000000000000000000000000000000000000000000602082015250565b600061357d602983612791565b915061358882613521565b604082019050919050565b600060208201905081810360008301526135ac81613570565b9050919050565b7f496e697469616c697a61626c653a20636f6e747261637420697320616c72656160008201527f647920696e697469616c697a6564000000000000000000000000000000000000602082015250565b600061360f602e83612791565b915061361a826135b3565b604082019050919050565b6000602082019050818103600083015261363e81613602565b9050919050565b60006020601f8301049050919050565b600082821b905092915050565b6000600883026136927fffffffffffffffffffffffffffffffffffffffffffffffffffffffffffffffff82613655565b61369c8683613655565b95508019841693508086168417925050509392505050565b6000819050919050565b60006136d96136d46136cf8461262b565b6136b4565b61262b565b9050919050565b6000819050919050565b6136f3836136be565b6137076136ff826136e0565b848454613662565b825550505050565b600090565b61371c61370f565b6137278184846136ea565b505050565b5b8181101561374b57613740600082613714565b60018101905061372d565b5050565b601f82111561379057613761816132aa565b61376a84613645565b81016020851015613779578190505b61378d61378585613645565b83018261372c565b50505b505050565b600082821c905092915050565b60006137b360001984600802613795565b1980831691505092915050565b60006137cc83836137a2565b9150826002028217905092915050565b6137e582612786565b67ffffffffffffffff8111156137fe576137fd6128c1565b5b613808825461326e565b61381382828561374f565b600060209050601f8311600181146138465760008415613834578287015190505b61383e85826137c0565b8655506138a6565b601f198416613854866132aa565b60005b8281101561387c57848901518255600182019150602085019450602081019050613857565b868310156138995784890151613895601f8916826137a2565b8355505b6001600288020188555050505b505050505050565b6000819050919050565b600060ff82169050919050565b60006138e06138db6138d6846138ae565b6136b4565b6138b8565b9050919050565b6138f0816138c5565b82525050565b600060208201905061390b60008301846138e7565b92915050565b7f4e487b7100000000000000000000000000000000000000000000000000000000600052601260045260246000fd5b7f455243313135353a2069647320616e6420616d6f756e7473206c656e6774682060008201527f6d69736d61746368000000000000000000000000000000000000000000000000602082015250565b600061399c602883612791565b91506139a782613940565b604082019050919050565b600060208201905081810360008301526139cb8161398f565b9050919050565b7f455243313135353a207472616e7366657220746f20746865207a65726f20616460008201527f6472657373000000000000000000000000000000000000000000000000000000602082015250565b6000613a2e602583612791565b9150613a39826139d2565b604082019050919050565b60006020820190508181036000830152613a5d81613a21565b9050919050565b7f455243313135353a20696e73756666696369656e742062616c616e636520666f60008201527f72207472616e7366657200000000000000000000000000000000000000000000602082015250565b6000613ac0602a83612791565b9150613acb82613a64565b604082019050919050565b60006020820190508181036000830152613aef81613ab3565b9050919050565b6000613b018261262b565b9150613b0c8361262b565b9250828201905080821115613b2457613b236134aa565b5b92915050565b60006040820190508181036000830152613b448185612e88565b90508181036020830152613b588184612e88565b90509392505050565b7f4e487b7100000000000000000000000000000000000000000000000000000000600052602160045260246000fd5b6000613b9b8261262b565b9150613ba68361262b565b9250828202613bb48161262b565b91508282048414831517613bcb57613bca6134aa565b5b5092915050565b6000604082019050613be76000830185612838565b613bf460208301846126a1565b9392505050565b6000613c16613c11613c0c846138ae565b6136b4565b61262b565b9050919050565b613c2681613bfb565b82525050565b6000606082019050613c416000830186612838565b613c4e6020830185613c1d565b613c5b60408301846126a1565b949350505050565b7f455243313135353a206d696e7420746f20746865207a65726f2061646472657360008201527f7300000000000000000000000000000000000000000000000000000000000000602082015250565b6000613cbf602183612791565b9150613cca82613c63565b604082019050919050565b60006020820190508181036000830152613cee81613cb2565b9050919050565b6000604082019050613d0a60008301856126a1565b613d1760208301846126a1565b9392505050565b600081519050919050565b600082825260208201905092915050565b6000613d4582613d1e565b613d4f8185613d29565b9350613d5f8185602086016127a2565b613d68816127cc565b840191505092915050565b600060a082019050613d886000830188612838565b613d956020830187612838565b8181036040830152613da78186612e88565b90508181036060830152613dbb8185612e88565b90508181036080830152613dcf8184613d3a565b90509695505050505050565b600081519050613dea816126f7565b92915050565b600060208284031215613e0657613e056125c3565b5b6000613e1484828501613ddb565b91505092915050565b60008160e01c9050919050565b600060033d1115613e495760046000803e613e46600051613e1d565b90505b90565b600060443d10613ed957613e5e6125b9565b60043d036004823e80513d602482011167ffffffffffffffff82111715613e86575050613ed9565b808201805167ffffffffffffffff811115613ea45750505050613ed9565b80602083010160043d038501811115613ec1575050505050613ed9565b613ed0826020018501866128f0565b82955050505050505b90565b7f455243313135353a207472616e7366657220746f206e6f6e2d4552433131353560008201527f526563656976657220696d706c656d656e746572000000000000000000000000602082015250565b6000613f38603483612791565b9150613f4382613edc565b604082019050919050565b60006020820190508181036000830152613f6781613f2b565b9050919050565b7f455243313135353a204552433131353552656365697665722072656a6563746560008201527f6420746f6b656e73000000000000000000000000000000000000000000000000602082015250565b6000613fca602883612791565b9150613fd582613f6e565b604082019050919050565b60006020820190508181036000830152613ff981613fbd565b9050919050565b600060a0820190506140156000830188612838565b6140226020830187612838565b61402f60408301866126a1565b61403c60608301856126a1565b818103608083015261404e8184613d3a565b90509695505050505050565b7f455243313135353a2073657474696e6720617070726f76616c2073746174757360008201527f20666f722073656c660000000000000000000000000000000000000000000000602082015250565b60006140b6602983612791565b91506140c18261405a565b604082019050919050565b600060208201905081810360008301526140e5816140a9565b905091905056fea26469706673582212202f87bcd19a294a719f3fe044f88bc4459712b9911a16f070dc5269062a7a797164736f6c63430008120033",
  "devdoc": {
    "errors": {
      "NewOwnerIsZeroAddress()": [
        {
          "details": "The `newOwner` cannot be the zero address."
        }
      ],
      "NoHandoverRequest()": [
        {
          "details": "The `pendingOwner` does not have a valid handover request."
        }
      ],
      "Unauthorized()": [
        {
          "details": "The caller is not authorized to call the function."
        }
      ]
    },
    "events": {
      "ApprovalForAll(address,address,bool)": {
        "details": "Emitted when `account` grants or revokes permission to `operator` to transfer their tokens, according to `approved`."
      },
      "Initialized(uint8)": {
        "details": "Triggered when the contract has been initialized or reinitialized."
      },
      "OwnershipHandoverCanceled(address)": {
        "details": "The ownership handover to `pendingOwner` has been canceled."
      },
      "OwnershipHandoverRequested(address)": {
        "details": "An ownership handover to `pendingOwner` has been requested."
      },
      "OwnershipTransferred(address,address)": {
        "details": "The ownership is transferred from `oldOwner` to `newOwner`. This event is intentionally kept the same as OpenZeppelin's Ownable to be compatible with indexers and [EIP-173](https://eips.ethereum.org/EIPS/eip-173), despite it not being as lightweight as a single argument event."
      },
      "TransferBatch(address,address,address,uint256[],uint256[])": {
        "details": "Equivalent to multiple {TransferSingle} events, where `operator`, `from` and `to` are the same for all transfers."
      },
      "TransferSingle(address,address,address,uint256,uint256)": {
        "details": "Emitted when `value` tokens of token type `id` are transferred from `from` to `to` by `operator`."
      },
      "URI(string,uint256)": {
        "details": "Emitted when the URI for token type `id` changes to `value`, if it is a non-programmatic URI. If an {URI} event was emitted for `id`, the standard https://eips.ethereum.org/EIPS/eip-1155#metadata-extensions[guarantees] that `value` will equal the value returned by {IERC1155MetadataURI-uri}."
      }
    },
    "kind": "dev",
    "methods": {
      "balanceOf(address,uint256)": {
        "details": "See {IERC1155-balanceOf}. Requirements: - `account` cannot be the zero address."
      },
      "balanceOfBatch(address[],uint256[])": {
        "details": "See {IERC1155-balanceOfBatch}. Requirements: - `accounts` and `ids` must have the same length."
      },
      "cancelOwnershipHandover()": {
        "details": "Cancels the two-step ownership handover to the caller, if any."
      },
      "completeOwnershipHandover(address)": {
        "details": "Allows the owner to complete the two-step ownership handover to `pendingOwner`. Reverts if there is no existing ownership handover requested by `pendingOwner`."
      },
      "isApprovedForAll(address,address)": {
        "details": "See {IERC1155-isApprovedForAll}."
      },
      "owner()": {
        "details": "Returns the owner of the contract."
      },
      "ownershipHandoverExpiresAt(address)": {
        "details": "Returns the expiry timestamp for the two-step ownership handover to `pendingOwner`."
      },
      "ownershipHandoverValidFor()": {
        "details": "Returns how long a two-step ownership handover is valid for in seconds."
      },
      "renounceOwnership()": {
        "details": "Allows the owner to renounce their ownership."
      },
      "requestOwnershipHandover()": {
        "details": "Request a two-step ownership handover to the caller. The request will be automatically expire in 48 hours (172800 seconds) by default."
      },
      "safeBatchTransferFrom(address,address,uint256[],uint256[],bytes)": {
        "details": "See {IERC1155-safeBatchTransferFrom}."
      },
      "safeTransferFrom(address,address,uint256,uint256,bytes)": {
        "details": "See {IERC1155-safeTransferFrom}."
      },
      "setApprovalForAll(address,bool)": {
        "details": "See {IERC1155-setApprovalForAll}."
      },
      "supportsInterface(bytes4)": {
        "details": "See {IERC165-supportsInterface}."
      },
      "transferOwnership(address)": {
        "details": "Allows the owner to transfer the ownership to `newOwner`."
      }
    },
    "version": 1
  },
  "userdoc": {
    "kind": "user",
    "methods": {
      "mint(uint256[],uint256[],uint8[])": {
        "notice": "this token can no be sold on the secondary market only mint it and used for job"
      }
    },
    "version": 1
  },
  "storageLayout": {
    "storage": [
      {
        "astId": 6,
        "contract": "contracts/Supplies.sol:Supplies",
        "label": "_initialized",
        "offset": 0,
        "slot": "0",
        "type": "t_uint8"
      },
      {
        "astId": 9,
        "contract": "contracts/Supplies.sol:Supplies",
        "label": "_initializing",
        "offset": 1,
        "slot": "0",
        "type": "t_bool"
      },
      {
        "astId": 1994,
        "contract": "contracts/Supplies.sol:Supplies",
        "label": "__gap",
        "offset": 0,
        "slot": "1",
        "type": "t_array(t_uint256)50_storage"
      },
      {
        "astId": 2213,
        "contract": "contracts/Supplies.sol:Supplies",
        "label": "__gap",
        "offset": 0,
        "slot": "51",
        "type": "t_array(t_uint256)50_storage"
      },
      {
        "astId": 197,
        "contract": "contracts/Supplies.sol:Supplies",
        "label": "_balances",
        "offset": 0,
        "slot": "101",
        "type": "t_mapping(t_uint256,t_mapping(t_address,t_uint256))"
      },
      {
        "astId": 203,
        "contract": "contracts/Supplies.sol:Supplies",
        "label": "_operatorApprovals",
        "offset": 0,
        "slot": "102",
        "type": "t_mapping(t_address,t_mapping(t_address,t_bool))"
      },
      {
        "astId": 205,
        "contract": "contracts/Supplies.sol:Supplies",
        "label": "_uri",
        "offset": 0,
        "slot": "103",
        "type": "t_string_storage"
      },
      {
        "astId": 1412,
        "contract": "contracts/Supplies.sol:Supplies",
        "label": "__gap",
        "offset": 0,
        "slot": "104",
        "type": "t_array(t_uint256)47_storage"
      },
      {
        "astId": 3241,
        "contract": "contracts/Supplies.sol:Supplies",
        "label": "laborGround",
        "offset": 0,
        "slot": "151",
        "type": "t_address"
      },
      {
        "astId": 3243,
        "contract": "contracts/Supplies.sol:Supplies",
        "label": "treasure",
        "offset": 0,
        "slot": "152",
        "type": "t_address"
      },
      {
        "astId": 3245,
        "contract": "contracts/Supplies.sol:Supplies",
        "label": "bones",
        "offset": 0,
        "slot": "153",
        "type": "t_address"
      },
      {
        "astId": 3247,
        "contract": "contracts/Supplies.sol:Supplies",
        "label": "magic",
        "offset": 0,
        "slot": "154",
        "type": "t_address"
      },
      {
        "astId": 3258,
        "contract": "contracts/Supplies.sol:Supplies",
        "label": "baseUri",
        "offset": 0,
        "slot": "155",
        "type": "t_string_storage"
      }
    ],
    "types": {
      "t_address": {
        "encoding": "inplace",
        "label": "address",
        "numberOfBytes": "20"
      },
      "t_array(t_uint256)47_storage": {
        "base": "t_uint256",
        "encoding": "inplace",
        "label": "uint256[47]",
        "numberOfBytes": "1504"
      },
      "t_array(t_uint256)50_storage": {
        "base": "t_uint256",
        "encoding": "inplace",
        "label": "uint256[50]",
        "numberOfBytes": "1600"
      },
      "t_bool": {
        "encoding": "inplace",
        "label": "bool",
        "numberOfBytes": "1"
      },
      "t_mapping(t_address,t_bool)": {
        "encoding": "mapping",
        "key": "t_address",
        "label": "mapping(address => bool)",
        "numberOfBytes": "32",
        "value": "t_bool"
      },
      "t_mapping(t_address,t_mapping(t_address,t_bool))": {
        "encoding": "mapping",
        "key": "t_address",
        "label": "mapping(address => mapping(address => bool))",
        "numberOfBytes": "32",
        "value": "t_mapping(t_address,t_bool)"
      },
      "t_mapping(t_address,t_uint256)": {
        "encoding": "mapping",
        "key": "t_address",
        "label": "mapping(address => uint256)",
        "numberOfBytes": "32",
        "value": "t_uint256"
      },
      "t_mapping(t_uint256,t_mapping(t_address,t_uint256))": {
        "encoding": "mapping",
        "key": "t_uint256",
        "label": "mapping(uint256 => mapping(address => uint256))",
        "numberOfBytes": "32",
        "value": "t_mapping(t_address,t_uint256)"
      },
      "t_string_storage": {
        "encoding": "bytes",
        "label": "string",
        "numberOfBytes": "32"
      },
      "t_uint256": {
        "encoding": "inplace",
        "label": "uint256",
        "numberOfBytes": "32"
      },
      "t_uint8": {
        "encoding": "inplace",
        "label": "uint8",
        "numberOfBytes": "1"
      }
    }
  }
}