{
  "address": "0xd77b9c9fd45c6bF933c7d5d34B05A2515CEd706c",
  "abi": [
    {
      "inputs": [],
      "name": "InvalidTokenId",
      "type": "error"
    },
    {
      "inputs": [],
      "name": "LengthsNotEqual",
      "type": "error"
    },
    {
      "inputs": [],
      "name": "NewOwnerIsZeroAddress",
      "type": "error"
    },
    {
      "inputs": [],
      "name": "NoHandoverRequest",
      "type": "error"
    },
    {
      "inputs": [],
      "name": "NotAuthorized",
      "type": "error"
    },
    {
      "inputs": [],
      "name": "Unauthorized",
      "type": "error"
    },
    {
      "anonymous": false,
      "inputs": [
        {
          "indexed": true,
          "internalType": "address",
          "name": "account",
          "type": "address"
        },
        {
          "indexed": true,
          "internalType": "address",
          "name": "operator",
          "type": "address"
        },
        {
          "indexed": false,
          "internalType": "bool",
          "name": "approved",
          "type": "bool"
        }
      ],
      "name": "ApprovalForAll",
      "type": "event"
    },
    {
      "anonymous": false,
      "inputs": [
        {
          "indexed": false,
          "internalType": "uint8",
          "name": "version",
          "type": "uint8"
        }
      ],
      "name": "Initialized",
      "type": "event"
    },
    {
      "anonymous": false,
      "inputs": [
        {
          "indexed": true,
          "internalType": "address",
          "name": "pendingOwner",
          "type": "address"
        }
      ],
      "name": "OwnershipHandoverCanceled",
      "type": "event"
    },
    {
      "anonymous": false,
      "inputs": [
        {
          "indexed": true,
          "internalType": "address",
          "name": "pendingOwner",
          "type": "address"
        }
      ],
      "name": "OwnershipHandoverRequested",
      "type": "event"
    },
    {
      "anonymous": false,
      "inputs": [
        {
          "indexed": true,
          "internalType": "address",
          "name": "oldOwner",
          "type": "address"
        },
        {
          "indexed": true,
          "internalType": "address",
          "name": "newOwner",
          "type": "address"
        }
      ],
      "name": "OwnershipTransferred",
      "type": "event"
    },
    {
      "anonymous": false,
      "inputs": [
        {
          "indexed": true,
          "internalType": "address",
          "name": "operator",
          "type": "address"
        },
        {
          "indexed": true,
          "internalType": "address",
          "name": "from",
          "type": "address"
        },
        {
          "indexed": true,
          "internalType": "address",
          "name": "to",
          "type": "address"
        },
        {
          "indexed": false,
          "internalType": "uint256[]",
          "name": "ids",
          "type": "uint256[]"
        },
        {
          "indexed": false,
          "internalType": "uint256[]",
          "name": "values",
          "type": "uint256[]"
        }
      ],
      "name": "TransferBatch",
      "type": "event"
    },
    {
      "anonymous": false,
      "inputs": [
        {
          "indexed": true,
          "internalType": "address",
          "name": "operator",
          "type": "address"
        },
        {
          "indexed": true,
          "internalType": "address",
          "name": "from",
          "type": "address"
        },
        {
          "indexed": true,
          "internalType": "address",
          "name": "to",
          "type": "address"
        },
        {
          "indexed": false,
          "internalType": "uint256",
          "name": "id",
          "type": "uint256"
        },
        {
          "indexed": false,
          "internalType": "uint256",
          "name": "value",
          "type": "uint256"
        }
      ],
      "name": "TransferSingle",
      "type": "event"
    },
    {
      "anonymous": false,
      "inputs": [
        {
          "indexed": false,
          "internalType": "string",
          "name": "value",
          "type": "string"
        },
        {
          "indexed": true,
          "internalType": "uint256",
          "name": "id",
          "type": "uint256"
        }
      ],
      "name": "URI",
      "type": "event"
    },
    {
      "inputs": [],
      "name": "BONES_PRICE",
      "outputs": [
        {
          "internalType": "uint256",
          "name": "",
          "type": "uint256"
        }
      ],
      "stateMutability": "view",
      "type": "function"
    },
    {
      "inputs": [],
      "name": "MAGIC_PRICE",
      "outputs": [
        {
          "internalType": "uint256",
          "name": "",
          "type": "uint256"
        }
      ],
      "stateMutability": "view",
      "type": "function"
    },
    {
      "inputs": [],
      "name": "TREASURE_MOONROCK_VALUE",
      "outputs": [
        {
          "internalType": "uint256",
          "name": "",
          "type": "uint256"
        }
      ],
      "stateMutability": "view",
      "type": "function"
    },
    {
      "inputs": [
        {
          "internalType": "address",
          "name": "account",
          "type": "address"
        },
        {
          "internalType": "uint256",
          "name": "id",
          "type": "uint256"
        }
      ],
      "name": "balanceOf",
      "outputs": [
        {
          "internalType": "uint256",
          "name": "",
          "type": "uint256"
        }
      ],
      "stateMutability": "view",
      "type": "function"
    },
    {
      "inputs": [
        {
          "internalType": "address[]",
          "name": "accounts",
          "type": "address[]"
        },
        {
          "internalType": "uint256[]",
          "name": "ids",
          "type": "uint256[]"
        }
      ],
      "name": "balanceOfBatch",
      "outputs": [
        {
          "internalType": "uint256[]",
          "name": "",
          "type": "uint256[]"
        }
      ],
      "stateMutability": "view",
      "type": "function"
    },
    {
      "inputs": [],
      "name": "bones",
      "outputs": [
        {
          "internalType": "address",
          "name": "",
          "type": "address"
        }
      ],
      "stateMutability": "view",
      "type": "function"
    },
    {
      "inputs": [
        {
          "internalType": "address",
          "name": "_from",
          "type": "address"
        },
        {
          "internalType": "uint256",
          "name": "_id",
          "type": "uint256"
        },
        {
          "internalType": "uint256",
          "name": "_amount",
          "type": "uint256"
        }
      ],
      "name": "burn",
      "outputs": [],
      "stateMutability": "nonpayable",
      "type": "function"
    },
    {
      "inputs": [],
      "name": "cancelOwnershipHandover",
      "outputs": [],
      "stateMutability": "payable",
      "type": "function"
    },
    {
      "inputs": [
        {
          "internalType": "address",
          "name": "pendingOwner",
          "type": "address"
        }
      ],
      "name": "completeOwnershipHandover",
      "outputs": [],
      "stateMutability": "payable",
      "type": "function"
    },
    {
      "inputs": [
        {
          "internalType": "address",
          "name": "_bones",
          "type": "address"
        },
        {
          "internalType": "address",
          "name": "_magic",
          "type": "address"
        },
        {
          "internalType": "address",
          "name": "_treasure",
          "type": "address"
        },
        {
          "internalType": "string",
          "name": "_baseUri",
          "type": "string"
        }
      ],
      "name": "initialize",
      "outputs": [],
      "stateMutability": "nonpayable",
      "type": "function"
    },
    {
      "inputs": [
        {
          "internalType": "address",
          "name": "account",
          "type": "address"
        },
        {
          "internalType": "address",
          "name": "operator",
          "type": "address"
        }
      ],
      "name": "isApprovedForAll",
      "outputs": [
        {
          "internalType": "bool",
          "name": "",
          "type": "bool"
        }
      ],
      "stateMutability": "view",
      "type": "function"
    },
    {
      "inputs": [],
      "name": "laborGround",
      "outputs": [
        {
          "internalType": "address",
          "name": "",
          "type": "address"
        }
      ],
      "stateMutability": "view",
      "type": "function"
    },
    {
      "inputs": [],
      "name": "magic",
      "outputs": [
        {
          "internalType": "address",
          "name": "",
          "type": "address"
        }
      ],
      "stateMutability": "view",
      "type": "function"
    },
    {
      "inputs": [
        {
          "internalType": "uint256[]",
          "name": "_tokenId",
          "type": "uint256[]"
        },
        {
          "internalType": "uint256[]",
          "name": "_amount",
          "type": "uint256[]"
        },
        {
          "internalType": "enum Supplies.Curr[]",
          "name": "_curr",
          "type": "uint8[]"
        }
      ],
      "name": "mint",
      "outputs": [],
      "stateMutability": "nonpayable",
      "type": "function"
    },
    {
      "inputs": [],
      "name": "name",
      "outputs": [
        {
          "internalType": "string",
          "name": "",
          "type": "string"
        }
      ],
      "stateMutability": "pure",
      "type": "function"
    },
    {
      "inputs": [],
      "name": "owner",
      "outputs": [
        {
          "internalType": "address",
          "name": "result",
          "type": "address"
        }
      ],
      "stateMutability": "view",
      "type": "function"
    },
    {
      "inputs": [
        {
          "internalType": "address",
          "name": "pendingOwner",
          "type": "address"
        }
      ],
      "name": "ownershipHandoverExpiresAt",
      "outputs": [
        {
          "internalType": "uint256",
          "name": "result",
          "type": "uint256"
        }
      ],
      "stateMutability": "view",
      "type": "function"
    },
    {
      "inputs": [],
      "name": "ownershipHandoverValidFor",
      "outputs": [
        {
          "internalType": "uint64",
          "name": "",
          "type": "uint64"
        }
      ],
      "stateMutability": "view",
      "type": "function"
    },
    {
      "inputs": [],
      "name": "renounceOwnership",
      "outputs": [],
      "stateMutability": "payable",
      "type": "function"
    },
    {
      "inputs": [],
      "name": "requestOwnershipHandover",
      "outputs": [],
      "stateMutability": "payable",
      "type": "function"
    },
    {
      "inputs": [
        {
          "internalType": "address",
          "name": "from",
          "type": "address"
        },
        {
          "internalType": "address",
          "name": "to",
          "type": "address"
        },
        {
          "internalType": "uint256[]",
          "name": "ids",
          "type": "uint256[]"
        },
        {
          "internalType": "uint256[]",
          "name": "amounts",
          "type": "uint256[]"
        },
        {
          "internalType": "bytes",
          "name": "data",
          "type": "bytes"
        }
      ],
      "name": "safeBatchTransferFrom",
      "outputs": [],
      "stateMutability": "nonpayable",
      "type": "function"
    },
    {
      "inputs": [
        {
          "internalType": "address",
          "name": "from",
          "type": "address"
        },
        {
          "internalType": "address",
          "name": "to",
          "type": "address"
        },
        {
          "internalType": "uint256",
          "name": "id",
          "type": "uint256"
        },
        {
          "internalType": "uint256",
          "name": "amount",
          "type": "uint256"
        },
        {
          "internalType": "bytes",
          "name": "data",
          "type": "bytes"
        }
      ],
      "name": "safeTransferFrom",
      "outputs": [],
      "stateMutability": "nonpayable",
      "type": "function"
    },
    {
      "inputs": [
        {
          "internalType": "address",
          "name": "operator",
          "type": "address"
        },
        {
          "internalType": "bool",
          "name": "approved",
          "type": "bool"
        }
      ],
      "name": "setApprovalForAll",
      "outputs": [],
      "stateMutability": "nonpayable",
      "type": "function"
    },
    {
      "inputs": [
        {
          "internalType": "string",
          "name": "_baseUri",
          "type": "string"
        }
      ],
      "name": "setBaseUri",
      "outputs": [],
      "stateMutability": "nonpayable",
      "type": "function"
    },
    {
      "inputs": [
        {
          "internalType": "address",
          "name": "_laborGround",
          "type": "address"
        }
      ],
      "name": "setLaborGroundAddresss",
      "outputs": [],
      "stateMutability": "nonpayable",
      "type": "function"
    },
    {
      "inputs": [
        {
          "internalType": "bytes4",
          "name": "interfaceId",
          "type": "bytes4"
        }
      ],
      "name": "supportsInterface",
      "outputs": [
        {
          "internalType": "bool",
          "name": "",
          "type": "bool"
        }
      ],
      "stateMutability": "view",
      "type": "function"
    },
    {
      "inputs": [],
      "name": "symbol",
      "outputs": [
        {
          "internalType": "string",
          "name": "",
          "type": "string"
        }
      ],
      "stateMutability": "pure",
      "type": "function"
    },
    {
      "inputs": [
        {
          "internalType": "address",
          "name": "newOwner",
          "type": "address"
        }
      ],
      "name": "transferOwnership",
      "outputs": [],
      "stateMutability": "payable",
      "type": "function"
    },
    {
      "inputs": [],
      "name": "treasure",
      "outputs": [
        {
          "internalType": "address",
          "name": "",
          "type": "address"
        }
      ],
      "stateMutability": "view",
      "type": "function"
    },
    {
      "inputs": [
        {
          "internalType": "uint256",
          "name": "_tokenId",
          "type": "uint256"
        }
      ],
      "name": "uri",
      "outputs": [
        {
          "internalType": "string",
          "name": "",
          "type": "string"
        }
      ],
      "stateMutability": "view",
      "type": "function"
    },
    {
      "inputs": [],
      "name": "withdraw",
      "outputs": [],
      "stateMutability": "nonpayable",
      "type": "function"
    }
  ],
  "transactionHash": "0x6e1e1e9cd5979042e769778970fb3bd49848aa096cc5418902b9784b65d2cca8",
  "args": [],
  "numDeployments": 2,
  "solcInputHash": "33b8f465bc3b39d2b8d4103f0a053ebb",
  "bytecode": "0x608060405234801561001057600080fd5b50614644806100206000396000f3fe6080604052600436106101d75760003560e01c8063715018a611610102578063d88ad88711610095578063f242432a11610064578063f242432a1461062d578063f2fde38b14610656578063f5298aca14610672578063fee81cf41461069b576101d7565b8063d88ad8871461057e578063e520fc7e146105a9578063e985e9c5146105d4578063f04e283e14610611576101d7565b8063a0bcfc7f116100d1578063a0bcfc7f146104d6578063a22cb465146104ff578063aad9b20714610528578063d7533f0214610553576101d7565b8063715018a61461044b57806372355af8146104555780638da5cb5b1461048057806395d89b41146104ab576101d7565b80632eb2c2d61161017a57806354d1f13d1161014957806354d1f13d146103c257806365e8e4f4146103cc578063674e68ad146103f55780636c8e4e4a14610420576101d7565b80632eb2c2d61461031c5780633ccfd60b146103455780634b98d53b1461035c5780634e1273f414610385576101d7565b80630d854646116101b65780630d854646146102815780630e89341c146102ac5780631963070e146102e95780632569296214610312576101d7565b8062fdd58e146101dc57806301ffc9a71461021957806306fdde0314610256575b600080fd5b3480156101e857600080fd5b5061020360048036038101906101fe91906129c3565b6106d8565b6040516102109190612a12565b60405180910390f35b34801561022557600080fd5b50610240600480360381019061023b9190612a85565b6107a1565b60405161024d9190612acd565b60405180910390f35b34801561026257600080fd5b5061026b610883565b6040516102789190612b78565b60405180910390f35b34801561028d57600080fd5b506102966108c0565b6040516102a39190612ba9565b60405180910390f35b3480156102b857600080fd5b506102d360048036038101906102ce9190612bc4565b6108e6565b6040516102e09190612b78565b60405180910390f35b3480156102f557600080fd5b50610310600480360381019061030b9190612bf1565b61091a565b005b61031a610966565b005b34801561032857600080fd5b50610343600480360381019061033e9190612e1b565b6109ba565b005b34801561035157600080fd5b5061035a610a5b565b005b34801561036857600080fd5b50610383600480360381019061037e9190612f9b565b610a92565b005b34801561039157600080fd5b506103ac60048036038101906103a79190613112565b610c1b565b6040516103b99190613248565b60405180910390f35b6103ca610d34565b005b3480156103d857600080fd5b506103f360048036038101906103ee919061330b565b610d70565b005b34801561040157600080fd5b5061040a610f86565b6040516104179190612a12565b60405180910390f35b34801561042c57600080fd5b50610435610f93565b6040516104429190612a12565b60405180910390f35b610453610f9f565b005b34801561046157600080fd5b5061046a610fb3565b6040516104779190612ba9565b60405180910390f35b34801561048c57600080fd5b50610495610fd9565b6040516104a29190612ba9565b60405180910390f35b3480156104b757600080fd5b506104c0610fe7565b6040516104cd9190612b78565b60405180910390f35b3480156104e257600080fd5b506104fd60048036038101906104f8919061338e565b611024565b005b34801561050b57600080fd5b5061052660048036038101906105219190613403565b61103f565b005b34801561053457600080fd5b5061053d6110d4565b60405161054a9190612a12565b60405180910390f35b34801561055f57600080fd5b506105686110d9565b6040516105759190613466565b60405180910390f35b34801561058a57600080fd5b506105936110e4565b6040516105a09190612ba9565b60405180910390f35b3480156105b557600080fd5b506105be61110a565b6040516105cb9190612ba9565b60405180910390f35b3480156105e057600080fd5b506105fb60048036038101906105f69190613481565b611130565b6040516106089190612acd565b60405180910390f35b61062b60048036038101906106269190612bf1565b6111c4565b005b34801561063957600080fd5b50610654600480360381019061064f91906134c1565b611205565b005b610670600480360381019061066b9190612bf1565b6112a6565b005b34801561067e57600080fd5b5061069960048036038101906106949190613558565b6112d0565b005b3480156106a757600080fd5b506106c260048036038101906106bd9190612bf1565b611367565b6040516106cf9190612a12565b60405180910390f35b60008073ffffffffffffffffffffffffffffffffffffffff168373ffffffffffffffffffffffffffffffffffffffff1603610748576040517f08c379a000000000000000000000000000000000000000000000000000000000815260040161073f9061361d565b60405180910390fd5b6065600083815260200190815260200160002060008473ffffffffffffffffffffffffffffffffffffffff1673ffffffffffffffffffffffffffffffffffffffff16815260200190815260200160002054905092915050565b60007fd9b67a26000000000000000000000000000000000000000000000000000000007bffffffffffffffffffffffffffffffffffffffffffffffffffffffff1916827bffffffffffffffffffffffffffffffffffffffffffffffffffffffff1916148061086c57507f0e89341c000000000000000000000000000000000000000000000000000000007bffffffffffffffffffffffffffffffffffffffffffffffffffffffff1916827bffffffffffffffffffffffffffffffffffffffffffffffffffffffff1916145b8061087c575061087b82611382565b5b9050919050565b60606040518060400160405280600881526020017f537570706c696573000000000000000000000000000000000000000000000000815250905090565b609a60009054906101000a900473ffffffffffffffffffffffffffffffffffffffff1681565b6060609b6108f3836113ec565b604051602001610904929190613771565b6040516020818303038152906040529050919050565b6109226114ba565b80609760006101000a81548173ffffffffffffffffffffffffffffffffffffffff021916908373ffffffffffffffffffffffffffffffffffffffff16021790555050565b60006109706110d9565b67ffffffffffffffff164201905063389a75e1600c5233600052806020600c2055337fdbf36a107da19e49527a7176a1babf963b4b0ff8cde35ee35d6cd8f1f9ac7e1d600080a250565b6109c26114d7565b73ffffffffffffffffffffffffffffffffffffffff168573ffffffffffffffffffffffffffffffffffffffff161480610a085750610a0785610a026114d7565b611130565b5b610a47576040517f08c379a0000000000000000000000000000000000000000000000000000000008152600401610a3e90613807565b60405180910390fd5b610a5485858585856114df565b5050505050565b610a636114ba565b610a8f609a60009054906101000a900473ffffffffffffffffffffffffffffffffffffffff1633611803565b50565b60008484905087879050141580610aaf5750828290508585905014155b15610ae6576040517f22cb666100000000000000000000000000000000000000000000000000000000815260040160405180910390fd5b5b86869050811015610c12576003878783818110610b0757610b06613827565b5b905060200201351180610b3357506001878783818110610b2a57610b29613827565b5b90506020020135105b15610b6a576040517f3f6cc76800000000000000000000000000000000000000000000000000000000815260040160405180910390fd5b610bb4838383818110610b8057610b7f613827565b5b9050602002016020810190610b95919061387b565b868684818110610ba857610ba7613827565b5b9050602002013561187e565b610c0133888884818110610bcb57610bca613827565b5b90506020020135878785818110610be557610be4613827565b5b9050602002013560405180602001604052806000815250611a8a565b80610c0b906138d7565b9050610ae7565b50505050505050565b60608151835114610c61576040517f08c379a0000000000000000000000000000000000000000000000000000000008152600401610c5890613991565b60405180910390fd5b6000835167ffffffffffffffff811115610c7e57610c7d612c23565b5b604051908082528060200260200182016040528015610cac5781602001602082028036833780820191505090505b50905060005b8451811015610d2957610cf9858281518110610cd157610cd0613827565b5b6020026020010151858381518110610cec57610ceb613827565b5b60200260200101516106d8565b828281518110610d0c57610d0b613827565b5b60200260200101818152505080610d22906138d7565b9050610cb2565b508091505092915050565b63389a75e1600c523360005260006020600c2055337ffa7b8eab7da67f412cc9575ed43464468f9bfbae89d1675917346ca6d8fe3c92600080a2565b60008060019054906101000a900460ff16159050808015610da15750600160008054906101000a900460ff1660ff16105b80610dce5750610db030611c3b565b158015610dcd5750600160008054906101000a900460ff1660ff16145b5b610e0d576040517f08c379a0000000000000000000000000000000000000000000000000000000008152600401610e0490613a23565b60405180910390fd5b60016000806101000a81548160ff021916908360ff1602179055508015610e4a576001600060016101000a81548160ff0219169083151502179055505b610e5333611c5e565b84609960006101000a81548173ffffffffffffffffffffffffffffffffffffffff021916908373ffffffffffffffffffffffffffffffffffffffff16021790555083609a60006101000a81548173ffffffffffffffffffffffffffffffffffffffff021916908373ffffffffffffffffffffffffffffffffffffffff16021790555082609860006101000a81548173ffffffffffffffffffffffffffffffffffffffff021916908373ffffffffffffffffffffffffffffffffffffffff16021790555081609b9081610f259190613bda565b508015610f7f5760008060016101000a81548160ff0219169083151502179055507f7f26b83ff96e1f2b6a682f133852f6798a09c465da95921460cefb38474024986001604051610f769190613cf4565b60405180910390a15b5050505050565b683635c9adc5dea0000081565b678ac7230489e8000081565b610fa76114ba565b610fb16000611c9a565b565b609760009054906101000a900473ffffffffffffffffffffffffffffffffffffffff1681565b6000638b78c6d81954905090565b60606040518060400160405280600881526020017f737570706c696573000000000000000000000000000000000000000000000000815250905090565b61102c6114ba565b80609b908161103b9190613bda565b5050565b609760009054906101000a900473ffffffffffffffffffffffffffffffffffffffff1673ffffffffffffffffffffffffffffffffffffffff168273ffffffffffffffffffffffffffffffffffffffff16146110c6576040517fea8e4eb500000000000000000000000000000000000000000000000000000000815260040160405180910390fd5b6110d08282611cd8565b5050565b600581565b60006202a300905090565b609960009054906101000a900473ffffffffffffffffffffffffffffffffffffffff1681565b609860009054906101000a900473ffffffffffffffffffffffffffffffffffffffff1681565b6000606660008473ffffffffffffffffffffffffffffffffffffffff1673ffffffffffffffffffffffffffffffffffffffff16815260200190815260200160002060008373ffffffffffffffffffffffffffffffffffffffff1673ffffffffffffffffffffffffffffffffffffffff16815260200190815260200160002060009054906101000a900460ff16905092915050565b6111cc6114ba565b63389a75e1600c52806000526020600c2080544211156111f457636f5e88186000526004601cfd5b600081555061120281611c9a565b50565b61120d6114d7565b73ffffffffffffffffffffffffffffffffffffffff168573ffffffffffffffffffffffffffffffffffffffff16148061125357506112528561124d6114d7565b611130565b5b611292576040517f08c379a000000000000000000000000000000000000000000000000000000000815260040161128990613807565b60405180910390fd5b61129f8585858585611cee565b5050505050565b6112ae6114ba565b8060601b6112c457637448fbae6000526004601cfd5b6112cd81611c9a565b50565b609760009054906101000a900473ffffffffffffffffffffffffffffffffffffffff1673ffffffffffffffffffffffffffffffffffffffff163373ffffffffffffffffffffffffffffffffffffffff1614611357576040517fea8e4eb500000000000000000000000000000000000000000000000000000000815260040160405180910390fd5b611362838383611f8c565b505050565b600063389a75e1600c52816000526020600c20549050919050565b60007f01ffc9a7000000000000000000000000000000000000000000000000000000007bffffffffffffffffffffffffffffffffffffffffffffffffffffffff1916827bffffffffffffffffffffffffffffffffffffffffffffffffffffffff1916149050919050565b6060600060016113fb846121d4565b01905060008167ffffffffffffffff81111561141a57611419612c23565b5b6040519080825280601f01601f19166020018201604052801561144c5781602001600182028036833780820191505090505b509050600082602001820190505b6001156114af578080600190039150507f3031323334353637383961626364656600000000000000000000000000000000600a86061a8153600a85816114a3576114a2613d0f565b5b0494506000850361145a575b819350505050919050565b638b78c6d8195433146114d5576382b429006000526004601cfd5b565b600033905090565b8151835114611523576040517f08c379a000000000000000000000000000000000000000000000000000000000815260040161151a90613db0565b60405180910390fd5b600073ffffffffffffffffffffffffffffffffffffffff168473ffffffffffffffffffffffffffffffffffffffff1603611592576040517f08c379a000000000000000000000000000000000000000000000000000000000815260040161158990613e42565b60405180910390fd5b600061159c6114d7565b90506115ac818787878787612327565b60005b84518110156117605760008582815181106115cd576115cc613827565b5b6020026020010151905060008583815181106115ec576115eb613827565b5b6020026020010151905060006065600084815260200190815260200160002060008b73ffffffffffffffffffffffffffffffffffffffff1673ffffffffffffffffffffffffffffffffffffffff1681526020019081526020016000205490508181101561168e576040517f08c379a000000000000000000000000000000000000000000000000000000000815260040161168590613ed4565b60405180910390fd5b8181036065600085815260200190815260200160002060008c73ffffffffffffffffffffffffffffffffffffffff1673ffffffffffffffffffffffffffffffffffffffff16815260200190815260200160002081905550816065600085815260200190815260200160002060008b73ffffffffffffffffffffffffffffffffffffffff1673ffffffffffffffffffffffffffffffffffffffff16815260200190815260200160002060008282546117459190613ef4565b9250508190555050505080611759906138d7565b90506115af565b508473ffffffffffffffffffffffffffffffffffffffff168673ffffffffffffffffffffffffffffffffffffffff168273ffffffffffffffffffffffffffffffffffffffff167f4a39dc06d4c0dbc64b70af90fd698a233a518aa5d07e595d983b8c0526c8f7fb87876040516117d7929190613f28565b60405180910390a46117ed81878787878761232f565b6117fb818787878787612337565b505050505050565b60006370a08231600052306020526020603a6024601c865afa601f3d1116611833576390b8ec186000526004601cfd5b81601a52603a51905069a9059cbb00000000000060005260206000604460166000875af13d156001600051141716611873576390b8ec186000526004601cfd5b6000603a5292915050565b6000600281111561189257611891613f5f565b5b8260028111156118a5576118a4613f5f565b5b036118ec576118eb609a60009054906101000a900473ffffffffffffffffffffffffffffffffffffffff16333084678ac7230489e800006118e69190613f8e565b61250e565b5b60016002811115611900576118ff613f5f565b5b82600281111561191357611912613f5f565b5b036119bc57609960009054906101000a900473ffffffffffffffffffffffffffffffffffffffff1673ffffffffffffffffffffffffffffffffffffffff16639dc29fac3383683635c9adc5dea0000061196c9190613f8e565b6040518363ffffffff1660e01b8152600401611989929190613fd0565b600060405180830381600087803b1580156119a357600080fd5b505af11580156119b7573d6000803e3d6000fd5b505050505b6002808111156119cf576119ce613f5f565b5b8260028111156119e2576119e1613f5f565b5b03611a8657609860009054906101000a900473ffffffffffffffffffffffffffffffffffffffff1673ffffffffffffffffffffffffffffffffffffffff1663f5298aca336001846005611a359190613f8e565b6040518463ffffffff1660e01b8152600401611a539392919061402a565b600060405180830381600087803b158015611a6d57600080fd5b505af1158015611a81573d6000803e3d6000fd5b505050505b5050565b600073ffffffffffffffffffffffffffffffffffffffff168473ffffffffffffffffffffffffffffffffffffffff1603611af9576040517f08c379a0000000000000000000000000000000000000000000000000000000008152600401611af0906140d3565b60405180910390fd5b6000611b036114d7565b90506000611b108561255e565b90506000611b1d8561255e565b9050611b2e83600089858589612327565b846065600088815260200190815260200160002060008973ffffffffffffffffffffffffffffffffffffffff1673ffffffffffffffffffffffffffffffffffffffff1681526020019081526020016000206000828254611b8e9190613ef4565b925050819055508673ffffffffffffffffffffffffffffffffffffffff16600073ffffffffffffffffffffffffffffffffffffffff168473ffffffffffffffffffffffffffffffffffffffff167fc3d58168c5ae7397731d063d5bbf3d657854427343f4c083240f7aacaa2d0f628989604051611c0c9291906140f3565b60405180910390a4611c238360008985858961232f565b611c32836000898989896125d8565b50505050505050565b6000808273ffffffffffffffffffffffffffffffffffffffff163b119050919050565b8060601b60601c905080638b78c6d819558060007f8be0079c531659141344cd1fd0a4f28419497f9722a3daafe3b4186f6b6457e0600080a350565b638b78c6d8198160601b60601c91508181547f8be0079c531659141344cd1fd0a4f28419497f9722a3daafe3b4186f6b6457e0600080a38181555050565b611cea611ce36114d7565b83836127af565b5050565b600073ffffffffffffffffffffffffffffffffffffffff168473ffffffffffffffffffffffffffffffffffffffff1603611d5d576040517f08c379a0000000000000000000000000000000000000000000000000000000008152600401611d5490613e42565b60405180910390fd5b6000611d676114d7565b90506000611d748561255e565b90506000611d818561255e565b9050611d91838989858589612327565b60006065600088815260200190815260200160002060008a73ffffffffffffffffffffffffffffffffffffffff1673ffffffffffffffffffffffffffffffffffffffff16815260200190815260200160002054905085811015611e29576040517f08c379a0000000000000000000000000000000000000000000000000000000008152600401611e2090613ed4565b60405180910390fd5b8581036065600089815260200190815260200160002060008b73ffffffffffffffffffffffffffffffffffffffff1673ffffffffffffffffffffffffffffffffffffffff16815260200190815260200160002081905550856065600089815260200190815260200160002060008a73ffffffffffffffffffffffffffffffffffffffff1673ffffffffffffffffffffffffffffffffffffffff1681526020019081526020016000206000828254611ee09190613ef4565b925050819055508773ffffffffffffffffffffffffffffffffffffffff168973ffffffffffffffffffffffffffffffffffffffff168573ffffffffffffffffffffffffffffffffffffffff167fc3d58168c5ae7397731d063d5bbf3d657854427343f4c083240f7aacaa2d0f628a8a604051611f5d9291906140f3565b60405180910390a4611f73848a8a86868a61232f565b611f81848a8a8a8a8a6125d8565b505050505050505050565b600073ffffffffffffffffffffffffffffffffffffffff168373ffffffffffffffffffffffffffffffffffffffff1603611ffb576040517f08c379a0000000000000000000000000000000000000000000000000000000008152600401611ff29061418e565b60405180910390fd5b60006120056114d7565b905060006120128461255e565b9050600061201f8461255e565b905061203f83876000858560405180602001604052806000815250612327565b60006065600087815260200190815260200160002060008873ffffffffffffffffffffffffffffffffffffffff1673ffffffffffffffffffffffffffffffffffffffff168152602001908152602001600020549050848110156120d7576040517f08c379a00000000000000000000000000000000000000000000000000000000081526004016120ce90614220565b60405180910390fd5b8481036065600088815260200190815260200160002060008973ffffffffffffffffffffffffffffffffffffffff1673ffffffffffffffffffffffffffffffffffffffff16815260200190815260200160002081905550600073ffffffffffffffffffffffffffffffffffffffff168773ffffffffffffffffffffffffffffffffffffffff168573ffffffffffffffffffffffffffffffffffffffff167fc3d58168c5ae7397731d063d5bbf3d657854427343f4c083240f7aacaa2d0f6289896040516121a59291906140f3565b60405180910390a46121cb8488600086866040518060200160405280600081525061232f565b50505050505050565b600080600090507a184f03e93ff9f4daa797ed6e38ed64bf6a1f0100000000000000008310612232577a184f03e93ff9f4daa797ed6e38ed64bf6a1f010000000000000000838161222857612227613d0f565b5b0492506040810190505b6d04ee2d6d415b85acef8100000000831061226f576d04ee2d6d415b85acef8100000000838161226557612264613d0f565b5b0492506020810190505b662386f26fc10000831061229e57662386f26fc10000838161229457612293613d0f565b5b0492506010810190505b6305f5e10083106122c7576305f5e10083816122bd576122bc613d0f565b5b0492506008810190505b61271083106122ec5761271083816122e2576122e1613d0f565b5b0492506004810190505b6064831061230f576064838161230557612304613d0f565b5b0492506002810190505b600a831061231e576001810190505b80915050919050565b505050505050565b505050505050565b6123568473ffffffffffffffffffffffffffffffffffffffff16611c3b565b15612506578373ffffffffffffffffffffffffffffffffffffffff1663bc197c8187878686866040518663ffffffff1660e01b815260040161239c959493929190614295565b6020604051808303816000875af19250505080156123d857506040513d601f19601f820116820180604052508101906123d59190614312565b60015b61247d576123e461434c565b806308c379a00361244057506123f861436e565b806124035750612442565b806040517f08c379a00000000000000000000000000000000000000000000000000000000081526004016124379190612b78565b60405180910390fd5b505b6040517f08c379a000000000000000000000000000000000000000000000000000000000815260040161247490614470565b60405180910390fd5b63bc197c8160e01b7bffffffffffffffffffffffffffffffffffffffffffffffffffffffff1916817bffffffffffffffffffffffffffffffffffffffffffffffffffffffff191614612504576040517f08c379a00000000000000000000000000000000000000000000000000000000081526004016124fb90614502565b60405180910390fd5b505b505050505050565b6040516323b872dd600052836020528260405281606052602060006064601c6000895af13d15600160005114171661254e57637939f4246000526004601cfd5b6000606052806040525050505050565b60606000600167ffffffffffffffff81111561257d5761257c612c23565b5b6040519080825280602002602001820160405280156125ab5781602001602082028036833780820191505090505b50905082816000815181106125c3576125c2613827565b5b60200260200101818152505080915050919050565b6125f78473ffffffffffffffffffffffffffffffffffffffff16611c3b565b156127a7578373ffffffffffffffffffffffffffffffffffffffff1663f23a6e6187878686866040518663ffffffff1660e01b815260040161263d959493929190614522565b6020604051808303816000875af192505050801561267957506040513d601f19601f820116820180604052508101906126769190614312565b60015b61271e5761268561434c565b806308c379a0036126e1575061269961436e565b806126a457506126e3565b806040517f08c379a00000000000000000000000000000000000000000000000000000000081526004016126d89190612b78565b60405180910390fd5b505b6040517f08c379a000000000000000000000000000000000000000000000000000000000815260040161271590614470565b60405180910390fd5b63f23a6e6160e01b7bffffffffffffffffffffffffffffffffffffffffffffffffffffffff1916817bffffffffffffffffffffffffffffffffffffffffffffffffffffffff1916146127a5576040517f08c379a000000000000000000000000000000000000000000000000000000000815260040161279c90614502565b60405180910390fd5b505b505050505050565b8173ffffffffffffffffffffffffffffffffffffffff168373ffffffffffffffffffffffffffffffffffffffff160361281d576040517f08c379a0000000000000000000000000000000000000000000000000000000008152600401612814906145ee565b60405180910390fd5b80606660008573ffffffffffffffffffffffffffffffffffffffff1673ffffffffffffffffffffffffffffffffffffffff16815260200190815260200160002060008473ffffffffffffffffffffffffffffffffffffffff1673ffffffffffffffffffffffffffffffffffffffff16815260200190815260200160002060006101000a81548160ff0219169083151502179055508173ffffffffffffffffffffffffffffffffffffffff168373ffffffffffffffffffffffffffffffffffffffff167f17307eab39ab6107e8899845ad3d59bd9653f200f220920489ca2b5937696c318360405161290e9190612acd565b60405180910390a3505050565b6000604051905090565b600080fd5b600080fd5b600073ffffffffffffffffffffffffffffffffffffffff82169050919050565b600061295a8261292f565b9050919050565b61296a8161294f565b811461297557600080fd5b50565b60008135905061298781612961565b92915050565b6000819050919050565b6129a08161298d565b81146129ab57600080fd5b50565b6000813590506129bd81612997565b92915050565b600080604083850312156129da576129d9612925565b5b60006129e885828601612978565b92505060206129f9858286016129ae565b9150509250929050565b612a0c8161298d565b82525050565b6000602082019050612a276000830184612a03565b92915050565b60007fffffffff0000000000000000000000000000000000000000000000000000000082169050919050565b612a6281612a2d565b8114612a6d57600080fd5b50565b600081359050612a7f81612a59565b92915050565b600060208284031215612a9b57612a9a612925565b5b6000612aa984828501612a70565b91505092915050565b60008115159050919050565b612ac781612ab2565b82525050565b6000602082019050612ae26000830184612abe565b92915050565b600081519050919050565b600082825260208201905092915050565b60005b83811015612b22578082015181840152602081019050612b07565b60008484015250505050565b6000601f19601f8301169050919050565b6000612b4a82612ae8565b612b548185612af3565b9350612b64818560208601612b04565b612b6d81612b2e565b840191505092915050565b60006020820190508181036000830152612b928184612b3f565b905092915050565b612ba38161294f565b82525050565b6000602082019050612bbe6000830184612b9a565b92915050565b600060208284031215612bda57612bd9612925565b5b6000612be8848285016129ae565b91505092915050565b600060208284031215612c0757612c06612925565b5b6000612c1584828501612978565b91505092915050565b600080fd5b7f4e487b7100000000000000000000000000000000000000000000000000000000600052604160045260246000fd5b612c5b82612b2e565b810181811067ffffffffffffffff82111715612c7a57612c79612c23565b5b80604052505050565b6000612c8d61291b565b9050612c998282612c52565b919050565b600067ffffffffffffffff821115612cb957612cb8612c23565b5b602082029050602081019050919050565b600080fd5b6000612ce2612cdd84612c9e565b612c83565b90508083825260208201905060208402830185811115612d0557612d04612cca565b5b835b81811015612d2e5780612d1a88826129ae565b845260208401935050602081019050612d07565b5050509392505050565b600082601f830112612d4d57612d4c612c1e565b5b8135612d5d848260208601612ccf565b91505092915050565b600080fd5b600067ffffffffffffffff821115612d8657612d85612c23565b5b612d8f82612b2e565b9050602081019050919050565b82818337600083830152505050565b6000612dbe612db984612d6b565b612c83565b905082815260208101848484011115612dda57612dd9612d66565b5b612de5848285612d9c565b509392505050565b600082601f830112612e0257612e01612c1e565b5b8135612e12848260208601612dab565b91505092915050565b600080600080600060a08688031215612e3757612e36612925565b5b6000612e4588828901612978565b9550506020612e5688828901612978565b945050604086013567ffffffffffffffff811115612e7757612e7661292a565b5b612e8388828901612d38565b935050606086013567ffffffffffffffff811115612ea457612ea361292a565b5b612eb088828901612d38565b925050608086013567ffffffffffffffff811115612ed157612ed061292a565b5b612edd88828901612ded565b9150509295509295909350565b600080fd5b60008083601f840112612f0557612f04612c1e565b5b8235905067ffffffffffffffff811115612f2257612f21612eea565b5b602083019150836020820283011115612f3e57612f3d612cca565b5b9250929050565b60008083601f840112612f5b57612f5a612c1e565b5b8235905067ffffffffffffffff811115612f7857612f77612eea565b5b602083019150836020820283011115612f9457612f93612cca565b5b9250929050565b60008060008060008060608789031215612fb857612fb7612925565b5b600087013567ffffffffffffffff811115612fd657612fd561292a565b5b612fe289828a01612eef565b9650965050602087013567ffffffffffffffff8111156130055761300461292a565b5b61301189828a01612eef565b9450945050604087013567ffffffffffffffff8111156130345761303361292a565b5b61304089828a01612f45565b92509250509295509295509295565b600067ffffffffffffffff82111561306a57613069612c23565b5b602082029050602081019050919050565b600061308e6130898461304f565b612c83565b905080838252602082019050602084028301858111156130b1576130b0612cca565b5b835b818110156130da57806130c68882612978565b8452602084019350506020810190506130b3565b5050509392505050565b600082601f8301126130f9576130f8612c1e565b5b813561310984826020860161307b565b91505092915050565b6000806040838503121561312957613128612925565b5b600083013567ffffffffffffffff8111156131475761314661292a565b5b613153858286016130e4565b925050602083013567ffffffffffffffff8111156131745761317361292a565b5b61318085828601612d38565b9150509250929050565b600081519050919050565b600082825260208201905092915050565b6000819050602082019050919050565b6131bf8161298d565b82525050565b60006131d183836131b6565b60208301905092915050565b6000602082019050919050565b60006131f58261318a565b6131ff8185613195565b935061320a836131a6565b8060005b8381101561323b57815161322288826131c5565b975061322d836131dd565b92505060018101905061320e565b5085935050505092915050565b6000602082019050818103600083015261326281846131ea565b905092915050565b600067ffffffffffffffff82111561328557613284612c23565b5b61328e82612b2e565b9050602081019050919050565b60006132ae6132a98461326a565b612c83565b9050828152602081018484840111156132ca576132c9612d66565b5b6132d5848285612d9c565b509392505050565b600082601f8301126132f2576132f1612c1e565b5b813561330284826020860161329b565b91505092915050565b6000806000806080858703121561332557613324612925565b5b600061333387828801612978565b945050602061334487828801612978565b935050604061335587828801612978565b925050606085013567ffffffffffffffff8111156133765761337561292a565b5b613382878288016132dd565b91505092959194509250565b6000602082840312156133a4576133a3612925565b5b600082013567ffffffffffffffff8111156133c2576133c161292a565b5b6133ce848285016132dd565b91505092915050565b6133e081612ab2565b81146133eb57600080fd5b50565b6000813590506133fd816133d7565b92915050565b6000806040838503121561341a57613419612925565b5b600061342885828601612978565b9250506020613439858286016133ee565b9150509250929050565b600067ffffffffffffffff82169050919050565b61346081613443565b82525050565b600060208201905061347b6000830184613457565b92915050565b6000806040838503121561349857613497612925565b5b60006134a685828601612978565b92505060206134b785828601612978565b9150509250929050565b600080600080600060a086880312156134dd576134dc612925565b5b60006134eb88828901612978565b95505060206134fc88828901612978565b945050604061350d888289016129ae565b935050606061351e888289016129ae565b925050608086013567ffffffffffffffff81111561353f5761353e61292a565b5b61354b88828901612ded565b9150509295509295909350565b60008060006060848603121561357157613570612925565b5b600061357f86828701612978565b9350506020613590868287016129ae565b92505060406135a1868287016129ae565b9150509250925092565b7f455243313135353a2061646472657373207a65726f206973206e6f742061207660008201527f616c6964206f776e657200000000000000000000000000000000000000000000602082015250565b6000613607602a83612af3565b9150613612826135ab565b604082019050919050565b60006020820190508181036000830152613636816135fa565b9050919050565b7f4e487b7100000000000000000000000000000000000000000000000000000000600052602260045260246000fd5b6000600282049050600182168061368457607f821691505b6020821081036136975761369661363d565b5b50919050565b600081905092915050565b60008190508160005260206000209050919050565b600081546136ca8161366c565b6136d4818661369d565b945060018216600081146136ef576001811461370457613737565b60ff1983168652811515820286019350613737565b61370d856136a8565b60005b8381101561372f57815481890152600182019150602081019050613710565b838801955050505b50505092915050565b600061374b82612ae8565b613755818561369d565b9350613765818560208601612b04565b80840191505092915050565b600061377d82856136bd565b91506137898284613740565b91508190509392505050565b7f455243313135353a2063616c6c6572206973206e6f7420746f6b656e206f776e60008201527f6572206f7220617070726f766564000000000000000000000000000000000000602082015250565b60006137f1602e83612af3565b91506137fc82613795565b604082019050919050565b60006020820190508181036000830152613820816137e4565b9050919050565b7f4e487b7100000000000000000000000000000000000000000000000000000000600052603260045260246000fd5b6003811061386357600080fd5b50565b60008135905061387581613856565b92915050565b60006020828403121561389157613890612925565b5b600061389f84828501613866565b91505092915050565b7f4e487b7100000000000000000000000000000000000000000000000000000000600052601160045260246000fd5b60006138e28261298d565b91507fffffffffffffffffffffffffffffffffffffffffffffffffffffffffffffffff8203613914576139136138a8565b5b600182019050919050565b7f455243313135353a206163636f756e747320616e6420696473206c656e67746860008201527f206d69736d617463680000000000000000000000000000000000000000000000602082015250565b600061397b602983612af3565b91506139868261391f565b604082019050919050565b600060208201905081810360008301526139aa8161396e565b9050919050565b7f496e697469616c697a61626c653a20636f6e747261637420697320616c72656160008201527f647920696e697469616c697a6564000000000000000000000000000000000000602082015250565b6000613a0d602e83612af3565b9150613a18826139b1565b604082019050919050565b60006020820190508181036000830152613a3c81613a00565b9050919050565b60006020601f8301049050919050565b600082821b905092915050565b600060088302613a907fffffffffffffffffffffffffffffffffffffffffffffffffffffffffffffffff82613a53565b613a9a8683613a53565b95508019841693508086168417925050509392505050565b6000819050919050565b6000613ad7613ad2613acd8461298d565b613ab2565b61298d565b9050919050565b6000819050919050565b613af183613abc565b613b05613afd82613ade565b848454613a60565b825550505050565b600090565b613b1a613b0d565b613b25818484613ae8565b505050565b5b81811015613b4957613b3e600082613b12565b600181019050613b2b565b5050565b601f821115613b8e57613b5f816136a8565b613b6884613a43565b81016020851015613b77578190505b613b8b613b8385613a43565b830182613b2a565b50505b505050565b600082821c905092915050565b6000613bb160001984600802613b93565b1980831691505092915050565b6000613bca8383613ba0565b9150826002028217905092915050565b613be382612ae8565b67ffffffffffffffff811115613bfc57613bfb612c23565b5b613c06825461366c565b613c11828285613b4d565b600060209050601f831160018114613c445760008415613c32578287015190505b613c3c8582613bbe565b865550613ca4565b601f198416613c52866136a8565b60005b82811015613c7a57848901518255600182019150602085019450602081019050613c55565b86831015613c975784890151613c93601f891682613ba0565b8355505b6001600288020188555050505b505050505050565b6000819050919050565b600060ff82169050919050565b6000613cde613cd9613cd484613cac565b613ab2565b613cb6565b9050919050565b613cee81613cc3565b82525050565b6000602082019050613d096000830184613ce5565b92915050565b7f4e487b7100000000000000000000000000000000000000000000000000000000600052601260045260246000fd5b7f455243313135353a2069647320616e6420616d6f756e7473206c656e6774682060008201527f6d69736d61746368000000000000000000000000000000000000000000000000602082015250565b6000613d9a602883612af3565b9150613da582613d3e565b604082019050919050565b60006020820190508181036000830152613dc981613d8d565b9050919050565b7f455243313135353a207472616e7366657220746f20746865207a65726f20616460008201527f6472657373000000000000000000000000000000000000000000000000000000602082015250565b6000613e2c602583612af3565b9150613e3782613dd0565b604082019050919050565b60006020820190508181036000830152613e5b81613e1f565b9050919050565b7f455243313135353a20696e73756666696369656e742062616c616e636520666f60008201527f72207472616e7366657200000000000000000000000000000000000000000000602082015250565b6000613ebe602a83612af3565b9150613ec982613e62565b604082019050919050565b60006020820190508181036000830152613eed81613eb1565b9050919050565b6000613eff8261298d565b9150613f0a8361298d565b9250828201905080821115613f2257613f216138a8565b5b92915050565b60006040820190508181036000830152613f4281856131ea565b90508181036020830152613f5681846131ea565b90509392505050565b7f4e487b7100000000000000000000000000000000000000000000000000000000600052602160045260246000fd5b6000613f998261298d565b9150613fa48361298d565b9250828202613fb28161298d565b91508282048414831517613fc957613fc86138a8565b5b5092915050565b6000604082019050613fe56000830185612b9a565b613ff26020830184612a03565b9392505050565b600061401461400f61400a84613cac565b613ab2565b61298d565b9050919050565b61402481613ff9565b82525050565b600060608201905061403f6000830186612b9a565b61404c602083018561401b565b6140596040830184612a03565b949350505050565b7f455243313135353a206d696e7420746f20746865207a65726f2061646472657360008201527f7300000000000000000000000000000000000000000000000000000000000000602082015250565b60006140bd602183612af3565b91506140c882614061565b604082019050919050565b600060208201905081810360008301526140ec816140b0565b9050919050565b60006040820190506141086000830185612a03565b6141156020830184612a03565b9392505050565b7f455243313135353a206275726e2066726f6d20746865207a65726f206164647260008201527f6573730000000000000000000000000000000000000000000000000000000000602082015250565b6000614178602383612af3565b91506141838261411c565b604082019050919050565b600060208201905081810360008301526141a78161416b565b9050919050565b7f455243313135353a206275726e20616d6f756e7420657863656564732062616c60008201527f616e636500000000000000000000000000000000000000000000000000000000602082015250565b600061420a602483612af3565b9150614215826141ae565b604082019050919050565b60006020820190508181036000830152614239816141fd565b9050919050565b600081519050919050565b600082825260208201905092915050565b600061426782614240565b614271818561424b565b9350614281818560208601612b04565b61428a81612b2e565b840191505092915050565b600060a0820190506142aa6000830188612b9a565b6142b76020830187612b9a565b81810360408301526142c981866131ea565b905081810360608301526142dd81856131ea565b905081810360808301526142f1818461425c565b90509695505050505050565b60008151905061430c81612a59565b92915050565b60006020828403121561432857614327612925565b5b6000614336848285016142fd565b91505092915050565b60008160e01c9050919050565b600060033d111561436b5760046000803e61436860005161433f565b90505b90565b600060443d106143fb5761438061291b565b60043d036004823e80513d602482011167ffffffffffffffff821117156143a85750506143fb565b808201805167ffffffffffffffff8111156143c657505050506143fb565b80602083010160043d0385018111156143e35750505050506143fb565b6143f282602001850186612c52565b82955050505050505b90565b7f455243313135353a207472616e7366657220746f206e6f6e2d4552433131353560008201527f526563656976657220696d706c656d656e746572000000000000000000000000602082015250565b600061445a603483612af3565b9150614465826143fe565b604082019050919050565b600060208201905081810360008301526144898161444d565b9050919050565b7f455243313135353a204552433131353552656365697665722072656a6563746560008201527f6420746f6b656e73000000000000000000000000000000000000000000000000602082015250565b60006144ec602883612af3565b91506144f782614490565b604082019050919050565b6000602082019050818103600083015261451b816144df565b9050919050565b600060a0820190506145376000830188612b9a565b6145446020830187612b9a565b6145516040830186612a03565b61455e6060830185612a03565b8181036080830152614570818461425c565b90509695505050505050565b7f455243313135353a2073657474696e6720617070726f76616c2073746174757360008201527f20666f722073656c660000000000000000000000000000000000000000000000602082015250565b60006145d8602983612af3565b91506145e38261457c565b604082019050919050565b60006020820190508181036000830152614607816145cb565b905091905056fea2646970667358221220524c9fb6b4b69e35dc69ab8693cc375f2771916164b172e92188bc369b3584ab64736f6c63430008120033",
  "devdoc": {
    "errors": {
      "NewOwnerIsZeroAddress()": [
        {
          "details": "The `newOwner` cannot be the zero address."
        }
      ],
      "NoHandoverRequest()": [
        {
          "details": "The `pendingOwner` does not have a valid handover request."
        }
      ],
      "Unauthorized()": [
        {
          "details": "The caller is not authorized to call the function."
        }
      ]
    },
    "events": {
      "ApprovalForAll(address,address,bool)": {
        "details": "Emitted when `account` grants or revokes permission to `operator` to transfer their tokens, according to `approved`."
      },
      "Initialized(uint8)": {
        "details": "Triggered when the contract has been initialized or reinitialized."
      },
      "OwnershipHandoverCanceled(address)": {
        "details": "The ownership handover to `pendingOwner` has been canceled."
      },
      "OwnershipHandoverRequested(address)": {
        "details": "An ownership handover to `pendingOwner` has been requested."
      },
      "OwnershipTransferred(address,address)": {
        "details": "The ownership is transferred from `oldOwner` to `newOwner`. This event is intentionally kept the same as OpenZeppelin's Ownable to be compatible with indexers and [EIP-173](https://eips.ethereum.org/EIPS/eip-173), despite it not being as lightweight as a single argument event."
      },
      "TransferBatch(address,address,address,uint256[],uint256[])": {
        "details": "Equivalent to multiple {TransferSingle} events, where `operator`, `from` and `to` are the same for all transfers."
      },
      "TransferSingle(address,address,address,uint256,uint256)": {
        "details": "Emitted when `value` tokens of token type `id` are transferred from `from` to `to` by `operator`."
      },
      "URI(string,uint256)": {
        "details": "Emitted when the URI for token type `id` changes to `value`, if it is a non-programmatic URI. If an {URI} event was emitted for `id`, the standard https://eips.ethereum.org/EIPS/eip-1155#metadata-extensions[guarantees] that `value` will equal the value returned by {IERC1155MetadataURI-uri}."
      }
    },
    "kind": "dev",
    "methods": {
      "balanceOf(address,uint256)": {
        "details": "See {IERC1155-balanceOf}. Requirements: - `account` cannot be the zero address."
      },
      "balanceOfBatch(address[],uint256[])": {
        "details": "See {IERC1155-balanceOfBatch}. Requirements: - `accounts` and `ids` must have the same length."
      },
      "cancelOwnershipHandover()": {
        "details": "Cancels the two-step ownership handover to the caller, if any."
      },
      "completeOwnershipHandover(address)": {
        "details": "Allows the owner to complete the two-step ownership handover to `pendingOwner`. Reverts if there is no existing ownership handover requested by `pendingOwner`."
      },
      "isApprovedForAll(address,address)": {
        "details": "See {IERC1155-isApprovedForAll}."
      },
      "owner()": {
        "details": "Returns the owner of the contract."
      },
      "ownershipHandoverExpiresAt(address)": {
        "details": "Returns the expiry timestamp for the two-step ownership handover to `pendingOwner`."
      },
      "ownershipHandoverValidFor()": {
        "details": "Returns how long a two-step ownership handover is valid for in seconds."
      },
      "renounceOwnership()": {
        "details": "Allows the owner to renounce their ownership."
      },
      "requestOwnershipHandover()": {
        "details": "Request a two-step ownership handover to the caller. The request will be automatically expire in 48 hours (172800 seconds) by default."
      },
      "safeBatchTransferFrom(address,address,uint256[],uint256[],bytes)": {
        "details": "See {IERC1155-safeBatchTransferFrom}."
      },
      "safeTransferFrom(address,address,uint256,uint256,bytes)": {
        "details": "See {IERC1155-safeTransferFrom}."
      },
      "setApprovalForAll(address,bool)": {
        "details": "See {IERC1155-setApprovalForAll}."
      },
      "supportsInterface(bytes4)": {
        "details": "See {IERC165-supportsInterface}."
      },
      "transferOwnership(address)": {
        "details": "Allows the owner to transfer the ownership to `newOwner`."
      }
    },
    "version": 1
  },
  "userdoc": {
    "kind": "user",
    "methods": {
      "mint(uint256[],uint256[],uint8[])": {
        "notice": "this token can no be sold on the secondary market only mint it and used for job"
      }
    },
    "version": 1
  },
  "storageLayout": {
    "storage": [
      {
        "astId": 6,
        "contract": "contracts/Supplies.sol:Supplies",
        "label": "_initialized",
        "offset": 0,
        "slot": "0",
        "type": "t_uint8"
      },
      {
        "astId": 9,
        "contract": "contracts/Supplies.sol:Supplies",
        "label": "_initializing",
        "offset": 1,
        "slot": "0",
        "type": "t_bool"
      },
      {
        "astId": 1994,
        "contract": "contracts/Supplies.sol:Supplies",
        "label": "__gap",
        "offset": 0,
        "slot": "1",
        "type": "t_array(t_uint256)50_storage"
      },
      {
        "astId": 2213,
        "contract": "contracts/Supplies.sol:Supplies",
        "label": "__gap",
        "offset": 0,
        "slot": "51",
        "type": "t_array(t_uint256)50_storage"
      },
      {
        "astId": 197,
        "contract": "contracts/Supplies.sol:Supplies",
        "label": "_balances",
        "offset": 0,
        "slot": "101",
        "type": "t_mapping(t_uint256,t_mapping(t_address,t_uint256))"
      },
      {
        "astId": 203,
        "contract": "contracts/Supplies.sol:Supplies",
        "label": "_operatorApprovals",
        "offset": 0,
        "slot": "102",
        "type": "t_mapping(t_address,t_mapping(t_address,t_bool))"
      },
      {
        "astId": 205,
        "contract": "contracts/Supplies.sol:Supplies",
        "label": "_uri",
        "offset": 0,
        "slot": "103",
        "type": "t_string_storage"
      },
      {
        "astId": 1412,
        "contract": "contracts/Supplies.sol:Supplies",
        "label": "__gap",
        "offset": 0,
        "slot": "104",
        "type": "t_array(t_uint256)47_storage"
      },
      {
        "astId": 3120,
        "contract": "contracts/Supplies.sol:Supplies",
        "label": "laborGround",
        "offset": 0,
        "slot": "151",
        "type": "t_address"
      },
      {
        "astId": 3122,
        "contract": "contracts/Supplies.sol:Supplies",
        "label": "treasure",
        "offset": 0,
        "slot": "152",
        "type": "t_address"
      },
      {
        "astId": 3124,
        "contract": "contracts/Supplies.sol:Supplies",
        "label": "bones",
        "offset": 0,
        "slot": "153",
        "type": "t_address"
      },
      {
        "astId": 3126,
        "contract": "contracts/Supplies.sol:Supplies",
        "label": "magic",
        "offset": 0,
        "slot": "154",
        "type": "t_address"
      },
      {
        "astId": 3137,
        "contract": "contracts/Supplies.sol:Supplies",
        "label": "baseUri",
        "offset": 0,
        "slot": "155",
        "type": "t_string_storage"
      }
    ],
    "types": {
      "t_address": {
        "encoding": "inplace",
        "label": "address",
        "numberOfBytes": "20"
      },
      "t_array(t_uint256)47_storage": {
        "base": "t_uint256",
        "encoding": "inplace",
        "label": "uint256[47]",
        "numberOfBytes": "1504"
      },
      "t_array(t_uint256)50_storage": {
        "base": "t_uint256",
        "encoding": "inplace",
        "label": "uint256[50]",
        "numberOfBytes": "1600"
      },
      "t_bool": {
        "encoding": "inplace",
        "label": "bool",
        "numberOfBytes": "1"
      },
      "t_mapping(t_address,t_bool)": {
        "encoding": "mapping",
        "key": "t_address",
        "label": "mapping(address => bool)",
        "numberOfBytes": "32",
        "value": "t_bool"
      },
      "t_mapping(t_address,t_mapping(t_address,t_bool))": {
        "encoding": "mapping",
        "key": "t_address",
        "label": "mapping(address => mapping(address => bool))",
        "numberOfBytes": "32",
        "value": "t_mapping(t_address,t_bool)"
      },
      "t_mapping(t_address,t_uint256)": {
        "encoding": "mapping",
        "key": "t_address",
        "label": "mapping(address => uint256)",
        "numberOfBytes": "32",
        "value": "t_uint256"
      },
      "t_mapping(t_uint256,t_mapping(t_address,t_uint256))": {
        "encoding": "mapping",
        "key": "t_uint256",
        "label": "mapping(uint256 => mapping(address => uint256))",
        "numberOfBytes": "32",
        "value": "t_mapping(t_address,t_uint256)"
      },
      "t_string_storage": {
        "encoding": "bytes",
        "label": "string",
        "numberOfBytes": "32"
      },
      "t_uint256": {
        "encoding": "inplace",
        "label": "uint256",
        "numberOfBytes": "32"
      },
      "t_uint8": {
        "encoding": "inplace",
        "label": "uint8",
        "numberOfBytes": "1"
      }
    }
  }
}