{
  "address": "0x6b2A3833aA66Ecf69e5E7f086B84a19e1FeB071A",
  "abi": [
    {
      "inputs": [],
      "name": "DevelopmentGroundIsLocked",
      "type": "error"
    },
    {
      "inputs": [],
      "name": "NeandersmolsIsLocked",
      "type": "error"
    },
    {
      "inputs": [],
      "name": "NotYourToken",
      "type": "error"
    },
    {
      "inputs": [],
      "name": "ZeroBalanceError",
      "type": "error"
    },
    {
      "anonymous": false,
      "inputs": [
        {
          "indexed": true,
          "internalType": "address",
          "name": "owner",
          "type": "address"
        },
        {
          "indexed": true,
          "internalType": "uint256",
          "name": "tokenId",
          "type": "uint256"
        },
        {
          "indexed": true,
          "internalType": "uint256",
          "name": "amount",
          "type": "uint256"
        }
      ],
      "name": "ClaimCaveReward",
      "type": "event"
    },
    {
      "anonymous": false,
      "inputs": [
        {
          "indexed": true,
          "internalType": "address",
          "name": "owner",
          "type": "address"
        },
        {
          "indexed": true,
          "internalType": "uint256",
          "name": "tokenId",
          "type": "uint256"
        },
        {
          "indexed": true,
          "internalType": "uint256",
          "name": "stakeTime",
          "type": "uint256"
        }
      ],
      "name": "EnterCaves",
      "type": "event"
    },
    {
      "anonymous": false,
      "inputs": [
        {
          "indexed": false,
          "internalType": "uint8",
          "name": "version",
          "type": "uint8"
        }
      ],
      "name": "Initialized",
      "type": "event"
    },
    {
      "anonymous": false,
      "inputs": [
        {
          "indexed": true,
          "internalType": "address",
          "name": "owner",
          "type": "address"
        },
        {
          "indexed": true,
          "internalType": "uint256",
          "name": "tokenId",
          "type": "uint256"
        }
      ],
      "name": "LeaveCave",
      "type": "event"
    },
    {
      "inputs": [],
      "name": "bones",
      "outputs": [
        {
          "internalType": "contract IBones",
          "name": "",
          "type": "address"
        }
      ],
      "stateMutability": "view",
      "type": "function"
    },
    {
      "inputs": [
        {
          "internalType": "uint256[]",
          "name": "_tokenId",
          "type": "uint256[]"
        }
      ],
      "name": "claimCaveReward",
      "outputs": [],
      "stateMutability": "nonpayable",
      "type": "function"
    },
    {
      "inputs": [
        {
          "internalType": "uint256[]",
          "name": "_tokenId",
          "type": "uint256[]"
        }
      ],
      "name": "enterCaves",
      "outputs": [],
      "stateMutability": "nonpayable",
      "type": "function"
    },
    {
      "inputs": [
        {
          "internalType": "address",
          "name": "_user",
          "type": "address"
        }
      ],
      "name": "getCavesFeInfo",
      "outputs": [
        {
          "components": [
            {
              "internalType": "uint256",
              "name": "reward",
              "type": "uint256"
            },
            {
              "internalType": "uint128",
              "name": "stakedSmols",
              "type": "uint128"
            },
            {
              "internalType": "uint128",
              "name": "timeLeft",
              "type": "uint128"
            }
          ],
          "internalType": "struct CavesFeInfo[]",
          "name": "",
          "type": "tuple[]"
        }
      ],
      "stateMutability": "view",
      "type": "function"
    },
    {
      "inputs": [
        {
          "internalType": "uint256",
          "name": "_tokenId",
          "type": "uint256"
        }
      ],
      "name": "getCavesInfo",
      "outputs": [
        {
          "components": [
            {
              "internalType": "address",
              "name": "owner",
              "type": "address"
            },
            {
              "internalType": "uint48",
              "name": "stakingTime",
              "type": "uint48"
            },
            {
              "internalType": "uint48",
              "name": "lastRewardTimestamp",
              "type": "uint48"
            }
          ],
          "internalType": "struct Cave",
          "name": "",
          "type": "tuple"
        }
      ],
      "stateMutability": "view",
      "type": "function"
    },
    {
      "inputs": [
        {
          "internalType": "uint256",
          "name": "_tokenId",
          "type": "uint256"
        }
      ],
      "name": "getCavesReward",
      "outputs": [
        {
          "internalType": "uint256",
          "name": "",
          "type": "uint256"
        }
      ],
      "stateMutability": "view",
      "type": "function"
    },
    {
      "inputs": [
        {
          "internalType": "address",
          "name": "_owner",
          "type": "address"
        }
      ],
      "name": "getStakedTokens",
      "outputs": [
        {
          "internalType": "uint256[]",
          "name": "res",
          "type": "uint256[]"
        }
      ],
      "stateMutability": "view",
      "type": "function"
    },
    {
      "inputs": [
        {
          "internalType": "address",
          "name": "_pits",
          "type": "address"
        },
        {
          "internalType": "address",
          "name": "_bones",
          "type": "address"
        },
        {
          "internalType": "address",
          "name": "_neandersmol",
          "type": "address"
        }
      ],
      "name": "initialize",
      "outputs": [],
      "stateMutability": "nonpayable",
      "type": "function"
    },
    {
      "inputs": [
        {
          "internalType": "uint256[]",
          "name": "_tokenId",
          "type": "uint256[]"
        }
      ],
      "name": "leaveCave",
      "outputs": [],
      "stateMutability": "nonpayable",
      "type": "function"
    },
    {
      "inputs": [],
      "name": "neandersmol",
      "outputs": [
        {
          "internalType": "contract INeandersmol",
          "name": "",
          "type": "address"
        }
      ],
      "stateMutability": "view",
      "type": "function"
    },
    {
      "inputs": [],
      "name": "pits",
      "outputs": [
        {
          "internalType": "contract IPits",
          "name": "",
          "type": "address"
        }
      ],
      "stateMutability": "view",
      "type": "function"
    }
  ],
  "transactionHash": "0x79d3ac4891d88288232ee96baac3b2213233da69fbc5a4fdabfb8bd734ac9657",
  "args": [],
  "numDeployments": 3,
  "solcInputHash": "d35bc24d7ed9175e011ebae11b6815e5",
  "bytecode": "0x608060405234801561001057600080fd5b50611dbd806100206000396000f3fe608060405234801561001057600080fd5b50600436106100a95760003560e01c80637fd4bfd5116100715780637fd4bfd5146101625780638de38dda14610180578063b00bec65146101b0578063c0c53b8b146101ce578063d88ad887146101ea578063eee0eaa014610208576100a9565b80633336ddde146100ae57806342f390d4146100ca5780635ac384be146100e65780635e6b06fb1461010257806363c28db114610132575b600080fd5b6100c860048036038101906100c39190611402565b610238565b005b6100e460048036038101906100df9190611402565b6105af565b005b61010060048036038101906100fb9190611402565b610902565b005b61011c600480360381019061011791906114ad565b610948565b604051610129919061160f565b60405180910390f35b61014c600480360381019061014791906114ad565b610b09565b60405161015991906116e0565b60405180910390f35b61016a610ba0565b6040516101779190611761565b60405180910390f35b61019a600480360381019061019591906117a8565b610bc6565b6040516101a79190611847565b60405180910390f35b6101b8610ca1565b6040516101c59190611883565b60405180910390f35b6101e860048036038101906101e3919061189e565b610cc7565b005b6101f2610ec3565b6040516101ff9190611912565b60405180910390f35b610222600480360381019061021d91906117a8565b610ee9565b60405161022f919061193c565b60405180910390f35b60005b828290508110156105aa57600083838381811061025b5761025a611957565b5b9050602002013590506000600360008381526020019081526020016000206040518060600160405290816000820160009054906101000a900473ffffffffffffffffffffffffffffffffffffffff1673ffffffffffffffffffffffffffffffffffffffff1673ffffffffffffffffffffffffffffffffffffffff1681526020016000820160149054906101000a900465ffffffffffff1665ffffffffffff1665ffffffffffff16815260200160008201601a9054906101000a900465ffffffffffff1665ffffffffffff1665ffffffffffff168152505090503373ffffffffffffffffffffffffffffffffffffffff16816000015173ffffffffffffffffffffffffffffffffffffffff161461039d576040517f091fe61c00000000000000000000000000000000000000000000000000000000815260040160405180910390fd5b4281602001516283d6006103b191906119b5565b65ffffffffffff1611156103f1576040517ff5dcc1e300000000000000000000000000000000000000000000000000000000815260040160405180910390fd5b60006103fc83610ee9565b1461040b5761040a82611026565b5b610453600460003373ffffffffffffffffffffffffffffffffffffffff1673ffffffffffffffffffffffffffffffffffffffff1681526020019081526020016000208361117e565b60036000838152602001908152602001600020600080820160006101000a81549073ffffffffffffffffffffffffffffffffffffffff02191690556000820160146101000a81549065ffffffffffff021916905560008201601a6101000a81549065ffffffffffff02191690555050600260009054906101000a900473ffffffffffffffffffffffffffffffffffffffff1673ffffffffffffffffffffffffffffffffffffffff166323b872dd3033856040518463ffffffff1660e01b8152600401610521939291906119fe565b600060405180830381600087803b15801561053b57600080fd5b505af115801561054f573d6000803e3d6000fd5b50505050813373ffffffffffffffffffffffffffffffffffffffff167fbbfb105669b1ae5c41fb02f67b40def517f625498c28079e8afc15538710ef5d60405160405180910390a35050806105a390611a35565b905061023b565b505050565b6105da600060029054906101000a900473ffffffffffffffffffffffffffffffffffffffff1661123c565b60005b828290508110156108fd5760008383838181106105fd576105fc611957565b5b90506020020135905060006003600083815260200190815260200160002090503373ffffffffffffffffffffffffffffffffffffffff16600260009054906101000a900473ffffffffffffffffffffffffffffffffffffffff1673ffffffffffffffffffffffffffffffffffffffff16636352211e846040518263ffffffff1660e01b815260040161068f919061193c565b602060405180830381865afa1580156106ac573d6000803e3d6000fd5b505050506040513d601f19601f820116820180604052508101906106d09190611a92565b73ffffffffffffffffffffffffffffffffffffffff161461071d576040517f091fe61c00000000000000000000000000000000000000000000000000000000815260040160405180910390fd5b600260009054906101000a900473ffffffffffffffffffffffffffffffffffffffff1673ffffffffffffffffffffffffffffffffffffffff166323b872dd3330856040518463ffffffff1660e01b815260040161077c939291906119fe565b600060405180830381600087803b15801561079657600080fd5b505af11580156107aa573d6000803e3d6000fd5b50505050338160000160006101000a81548173ffffffffffffffffffffffffffffffffffffffff021916908373ffffffffffffffffffffffffffffffffffffffff160217905550428160000160146101000a81548165ffffffffffff021916908365ffffffffffff1602179055504281600001601a6101000a81548165ffffffffffff021916908365ffffffffffff160217905550600460003373ffffffffffffffffffffffffffffffffffffffff1673ffffffffffffffffffffffffffffffffffffffff16815260200190815260200160002082908060018154018082558091505060019003906000526020600020016000909190919091505542823373ffffffffffffffffffffffffffffffffffffffff167fc691aa41315aadaa128475ed80fa49569e5bd8ce86b076d71695700d4972014760405160405180910390a45050806108f690611a35565b90506105dd565b505050565b60005b828290508110156109435761093283838381811061092657610925611957565b5b90506020020135611026565b8061093c90611a35565b9050610905565b505050565b6060600061095583610b09565b90506000815167ffffffffffffffff81111561097457610973611abf565b5b6040519080825280602002602001820160405280156109ad57816020015b61099a611307565b8152602001906001900390816109925790505b50905060005b8251811015610afe576000426109e28584815181106109d5576109d4611957565b5b6020026020010151610bc6565b602001516283d6006109f491906119b5565b65ffffffffffff1611610a08576000610a51565b42610a2c858481518110610a1f57610a1e611957565b5b6020026020010151610bc6565b602001516283d600610a3e91906119b5565b65ffffffffffff16610a509190611aee565b5b90506040518060600160405280610a81868581518110610a7457610a73611957565b5b6020026020010151610ee9565b8152602001858481518110610a9957610a98611957565b5b60200260200101516fffffffffffffffffffffffffffffffff168152602001826fffffffffffffffffffffffffffffffff16815250838381518110610ae157610ae0611957565b5b60200260200101819052505080610af790611a35565b90506109b3565b508092505050919050565b6060600460008373ffffffffffffffffffffffffffffffffffffffff1673ffffffffffffffffffffffffffffffffffffffff168152602001908152602001600020805480602002602001604051908101604052809291908181526020018280548015610b9457602002820191906000526020600020905b815481526020019060010190808311610b80575b50505050509050919050565b600060029054906101000a900473ffffffffffffffffffffffffffffffffffffffff1681565b610bce61134c565b600360008381526020019081526020016000206040518060600160405290816000820160009054906101000a900473ffffffffffffffffffffffffffffffffffffffff1673ffffffffffffffffffffffffffffffffffffffff1673ffffffffffffffffffffffffffffffffffffffff1681526020016000820160149054906101000a900465ffffffffffff1665ffffffffffff1665ffffffffffff16815260200160008201601a9054906101000a900465ffffffffffff1665ffffffffffff1665ffffffffffff16815250509050919050565b600260009054906101000a900473ffffffffffffffffffffffffffffffffffffffff1681565b60008060019054906101000a900460ff16159050808015610cf85750600160008054906101000a900460ff1660ff16105b80610d255750610d07306112e4565b158015610d245750600160008054906101000a900460ff1660ff16145b5b610d64576040517f08c379a0000000000000000000000000000000000000000000000000000000008152600401610d5b90611ba5565b60405180910390fd5b60016000806101000a81548160ff021916908360ff1602179055508015610da1576001600060016101000a81548160ff0219169083151502179055505b82600160006101000a81548173ffffffffffffffffffffffffffffffffffffffff021916908373ffffffffffffffffffffffffffffffffffffffff16021790555083600060026101000a81548173ffffffffffffffffffffffffffffffffffffffff021916908373ffffffffffffffffffffffffffffffffffffffff16021790555081600260006101000a81548173ffffffffffffffffffffffffffffffffffffffff021916908373ffffffffffffffffffffffffffffffffffffffff1602179055508015610ebd5760008060016101000a81548160ff0219169083151502179055507f7f26b83ff96e1f2b6a682f133852f6798a09c465da95921460cefb38474024986001604051610eb49190611c0d565b60405180910390a15b50505050565b600160009054906101000a900473ffffffffffffffffffffffffffffffffffffffff1681565b600080600360008481526020019081526020016000206040518060600160405290816000820160009054906101000a900473ffffffffffffffffffffffffffffffffffffffff1673ffffffffffffffffffffffffffffffffffffffff1673ffffffffffffffffffffffffffffffffffffffff1681526020016000820160149054906101000a900465ffffffffffff1665ffffffffffff1665ffffffffffff16815260200160008201601a9054906101000a900465ffffffffffff1665ffffffffffff1665ffffffffffff168152505090506000816040015165ffffffffffff1603610fd8576000915050611021565b670de0b6b3a7640000600a62015180836040015165ffffffffffff1642610fff9190611aee565b6110099190611c57565b6110139190611c88565b61101d9190611c88565b9150505b919050565b600061103182610ee9565b90506000810361106d576040517f9b4bb81b00000000000000000000000000000000000000000000000000000000815260040160405180910390fd5b4260036000848152602001908152602001600020600001601a6101000a81548165ffffffffffff021916908365ffffffffffff160217905550600160009054906101000a900473ffffffffffffffffffffffffffffffffffffffff1673ffffffffffffffffffffffffffffffffffffffff166340c10f1933836040518363ffffffff1660e01b8152600401611103929190611cca565b600060405180830381600087803b15801561111d57600080fd5b505af1158015611131573d6000803e3d6000fd5b5050505080823373ffffffffffffffffffffffffffffffffffffffff167f97c662bac04c9fd14924d37fb5267cb2203e308f338f2c92418adecab0681b2a60405160405180910390a45050565b60005b828054905081101561123757818382815481106111a1576111a0611957565b5b90600052602060002001540361122c5782600184805490506111c39190611aee565b815481106111d4576111d3611957565b5b90600052602060002001548382815481106111f2576111f1611957565b5b90600052602060002001819055508280548061121157611210611cf3565b5b60019003818190600052602060002001600090559055611237565b806001019050611181565b505050565b8073ffffffffffffffffffffffffffffffffffffffff1663ae4b37e46040518163ffffffff1660e01b8152600401602060405180830381865afa158015611287573d6000803e3d6000fd5b505050506040513d601f19601f820116820180604052508101906112ab9190611d5a565b6112e1576040517f288de97200000000000000000000000000000000000000000000000000000000815260040160405180910390fd5b50565b6000808273ffffffffffffffffffffffffffffffffffffffff163b119050919050565b60405180606001604052806000815260200160006fffffffffffffffffffffffffffffffff16815260200160006fffffffffffffffffffffffffffffffff1681525090565b6040518060600160405280600073ffffffffffffffffffffffffffffffffffffffff168152602001600065ffffffffffff168152602001600065ffffffffffff1681525090565b600080fd5b600080fd5b600080fd5b600080fd5b600080fd5b60008083601f8401126113c2576113c161139d565b5b8235905067ffffffffffffffff8111156113df576113de6113a2565b5b6020830191508360208202830111156113fb576113fa6113a7565b5b9250929050565b6000806020838503121561141957611418611393565b5b600083013567ffffffffffffffff81111561143757611436611398565b5b611443858286016113ac565b92509250509250929050565b600073ffffffffffffffffffffffffffffffffffffffff82169050919050565b600061147a8261144f565b9050919050565b61148a8161146f565b811461149557600080fd5b50565b6000813590506114a781611481565b92915050565b6000602082840312156114c3576114c2611393565b5b60006114d184828501611498565b91505092915050565b600081519050919050565b600082825260208201905092915050565b6000819050602082019050919050565b6000819050919050565b61151981611506565b82525050565b60006fffffffffffffffffffffffffffffffff82169050919050565b6115448161151f565b82525050565b6060820160008201516115606000850182611510565b506020820151611573602085018261153b565b506040820151611586604085018261153b565b50505050565b6000611598838361154a565b60608301905092915050565b6000602082019050919050565b60006115bc826114da565b6115c681856114e5565b93506115d1836114f6565b8060005b838110156116025781516115e9888261158c565b97506115f4836115a4565b9250506001810190506115d5565b5085935050505092915050565b6000602082019050818103600083015261162981846115b1565b905092915050565b600081519050919050565b600082825260208201905092915050565b6000819050602082019050919050565b60006116698383611510565b60208301905092915050565b6000602082019050919050565b600061168d82611631565b611697818561163c565b93506116a28361164d565b8060005b838110156116d35781516116ba888261165d565b97506116c583611675565b9250506001810190506116a6565b5085935050505092915050565b600060208201905081810360008301526116fa8184611682565b905092915050565b6000819050919050565b600061172761172261171d8461144f565b611702565b61144f565b9050919050565b60006117398261170c565b9050919050565b600061174b8261172e565b9050919050565b61175b81611740565b82525050565b60006020820190506117766000830184611752565b92915050565b61178581611506565b811461179057600080fd5b50565b6000813590506117a28161177c565b92915050565b6000602082840312156117be576117bd611393565b5b60006117cc84828501611793565b91505092915050565b6117de8161146f565b82525050565b600065ffffffffffff82169050919050565b6117ff816117e4565b82525050565b60608201600082015161181b60008501826117d5565b50602082015161182e60208501826117f6565b50604082015161184160408501826117f6565b50505050565b600060608201905061185c6000830184611805565b92915050565b600061186d8261172e565b9050919050565b61187d81611862565b82525050565b60006020820190506118986000830184611874565b92915050565b6000806000606084860312156118b7576118b6611393565b5b60006118c586828701611498565b93505060206118d686828701611498565b92505060406118e786828701611498565b9150509250925092565b60006118fc8261172e565b9050919050565b61190c816118f1565b82525050565b60006020820190506119276000830184611903565b92915050565b61193681611506565b82525050565b6000602082019050611951600083018461192d565b92915050565b7f4e487b7100000000000000000000000000000000000000000000000000000000600052603260045260246000fd5b7f4e487b7100000000000000000000000000000000000000000000000000000000600052601160045260246000fd5b60006119c0826117e4565b91506119cb836117e4565b9250828201905065ffffffffffff8111156119e9576119e8611986565b5b92915050565b6119f88161146f565b82525050565b6000606082019050611a1360008301866119ef565b611a2060208301856119ef565b611a2d604083018461192d565b949350505050565b6000611a4082611506565b91507fffffffffffffffffffffffffffffffffffffffffffffffffffffffffffffffff8203611a7257611a71611986565b5b600182019050919050565b600081519050611a8c81611481565b92915050565b600060208284031215611aa857611aa7611393565b5b6000611ab684828501611a7d565b91505092915050565b7f4e487b7100000000000000000000000000000000000000000000000000000000600052604160045260246000fd5b6000611af982611506565b9150611b0483611506565b9250828203905081811115611b1c57611b1b611986565b5b92915050565b600082825260208201905092915050565b7f496e697469616c697a61626c653a20636f6e747261637420697320616c72656160008201527f647920696e697469616c697a6564000000000000000000000000000000000000602082015250565b6000611b8f602e83611b22565b9150611b9a82611b33565b604082019050919050565b60006020820190508181036000830152611bbe81611b82565b9050919050565b6000819050919050565b600060ff82169050919050565b6000611bf7611bf2611bed84611bc5565b611702565b611bcf565b9050919050565b611c0781611bdc565b82525050565b6000602082019050611c226000830184611bfe565b92915050565b7f4e487b7100000000000000000000000000000000000000000000000000000000600052601260045260246000fd5b6000611c6282611506565b9150611c6d83611506565b925082611c7d57611c7c611c28565b5b828204905092915050565b6000611c9382611506565b9150611c9e83611506565b9250828202611cac81611506565b91508282048414831517611cc357611cc2611986565b5b5092915050565b6000604082019050611cdf60008301856119ef565b611cec602083018461192d565b9392505050565b7f4e487b7100000000000000000000000000000000000000000000000000000000600052603160045260246000fd5b60008115159050919050565b611d3781611d22565b8114611d4257600080fd5b50565b600081519050611d5481611d2e565b92915050565b600060208284031215611d7057611d6f611393565b5b6000611d7e84828501611d45565b9150509291505056fea2646970667358221220a408039524af5b3719535436de2587e66163d5ee95127ef67e4193fb911dc1c364736f6c63430008110033",
  "devdoc": {
    "kind": "dev",
    "methods": {
      "claimCaveReward(uint256[])": {
        "details": "Function to allow the caller to claim rewards for multiple Cave tokens.",
        "params": {
          "_tokenId": "An array of Cave token IDs to claim rewards for."
        }
      },
      "enterCaves(uint256[])": {
        "details": "Allows the owner to enter the caves. This will transfer the token to the contract and set the owner, staking time, and last reward timestamp for the caves.",
        "params": {
          "_tokenId": "The token ID of the caves to enter."
        }
      },
      "getCavesInfo(uint256)": {
        "details": "This function returns a Caves struct containing information about a Cave token, specified by its ID, _tokenId.",
        "params": {
          "_tokenId": "ID of the Cave token to retrieve information for"
        },
        "returns": {
          "_0": "The Caves struct containing information about the specified Cave token."
        }
      },
      "getCavesReward(uint256)": {
        "details": "Function to retrieve the rewards for a Cave token.",
        "params": {
          "_tokenId": "The ID of the Cave token to retrieve rewards for."
        },
        "returns": {
          "_0": "The rewards for the specified Cave token."
        }
      },
      "leaveCave(uint256[])": {
        "details": "Function to allow the owner of a Cave token to leave the cave and claim any rewards.",
        "params": {
          "_tokenId": "An array of Cave token IDs to be claimed and left."
        }
      }
    },
    "version": 1
  },
  "userdoc": {
    "events": {
      "EnterCaves(address,uint256,uint256)": {
        "notice": "start---------------current-time----------opener timeLeft opener - currentTime"
      }
    },
    "kind": "user",
    "methods": {
      "getCavesInfo(uint256)": {
        "notice": "Retrieve information about a Cave token."
      }
    },
    "version": 1
  },
  "storageLayout": {
    "storage": [
      {
        "astId": 6,
        "contract": "contracts/Caves.sol:Caves",
        "label": "_initialized",
        "offset": 0,
        "slot": "0",
        "type": "t_uint8"
      },
      {
        "astId": 9,
        "contract": "contracts/Caves.sol:Caves",
        "label": "_initializing",
        "offset": 1,
        "slot": "0",
        "type": "t_bool"
      },
      {
        "astId": 682,
        "contract": "contracts/Caves.sol:Caves",
        "label": "pits",
        "offset": 2,
        "slot": "0",
        "type": "t_contract(IPits)1271"
      },
      {
        "astId": 685,
        "contract": "contracts/Caves.sol:Caves",
        "label": "bones",
        "offset": 0,
        "slot": "1",
        "type": "t_contract(IBones)1206"
      },
      {
        "astId": 688,
        "contract": "contracts/Caves.sol:Caves",
        "label": "neandersmol",
        "offset": 0,
        "slot": "2",
        "type": "t_contract(INeandersmol)1241"
      },
      {
        "astId": 693,
        "contract": "contracts/Caves.sol:Caves",
        "label": "caves",
        "offset": 0,
        "slot": "3",
        "type": "t_mapping(t_uint256,t_struct(Cave)1694_storage)"
      },
      {
        "astId": 698,
        "contract": "contracts/Caves.sol:Caves",
        "label": "ownerToTokens",
        "offset": 0,
        "slot": "4",
        "type": "t_mapping(t_address,t_array(t_uint256)dyn_storage)"
      }
    ],
    "types": {
      "t_address": {
        "encoding": "inplace",
        "label": "address",
        "numberOfBytes": "20"
      },
      "t_array(t_uint256)dyn_storage": {
        "base": "t_uint256",
        "encoding": "dynamic_array",
        "label": "uint256[]",
        "numberOfBytes": "32"
      },
      "t_bool": {
        "encoding": "inplace",
        "label": "bool",
        "numberOfBytes": "1"
      },
      "t_contract(IBones)1206": {
        "encoding": "inplace",
        "label": "contract IBones",
        "numberOfBytes": "20"
      },
      "t_contract(INeandersmol)1241": {
        "encoding": "inplace",
        "label": "contract INeandersmol",
        "numberOfBytes": "20"
      },
      "t_contract(IPits)1271": {
        "encoding": "inplace",
        "label": "contract IPits",
        "numberOfBytes": "20"
      },
      "t_mapping(t_address,t_array(t_uint256)dyn_storage)": {
        "encoding": "mapping",
        "key": "t_address",
        "label": "mapping(address => uint256[])",
        "numberOfBytes": "32",
        "value": "t_array(t_uint256)dyn_storage"
      },
      "t_mapping(t_uint256,t_struct(Cave)1694_storage)": {
        "encoding": "mapping",
        "key": "t_uint256",
        "label": "mapping(uint256 => struct Cave)",
        "numberOfBytes": "32",
        "value": "t_struct(Cave)1694_storage"
      },
      "t_struct(Cave)1694_storage": {
        "encoding": "inplace",
        "label": "struct Cave",
        "members": [
          {
            "astId": 1689,
            "contract": "contracts/Caves.sol:Caves",
            "label": "owner",
            "offset": 0,
            "slot": "0",
            "type": "t_address"
          },
          {
            "astId": 1691,
            "contract": "contracts/Caves.sol:Caves",
            "label": "stakingTime",
            "offset": 20,
            "slot": "0",
            "type": "t_uint48"
          },
          {
            "astId": 1693,
            "contract": "contracts/Caves.sol:Caves",
            "label": "lastRewardTimestamp",
            "offset": 26,
            "slot": "0",
            "type": "t_uint48"
          }
        ],
        "numberOfBytes": "32"
      },
      "t_uint256": {
        "encoding": "inplace",
        "label": "uint256",
        "numberOfBytes": "32"
      },
      "t_uint48": {
        "encoding": "inplace",
        "label": "uint48",
        "numberOfBytes": "6"
      },
      "t_uint8": {
        "encoding": "inplace",
        "label": "uint8",
        "numberOfBytes": "1"
      }
    }
  }
}