{
  "address": "0x41381a390CE3EeD5Ac44be42d431D1aB392c6d16",
  "abi": [
    {
      "inputs": [],
      "name": "NeandersmolsIsLocked",
      "type": "error"
    },
    {
      "inputs": [],
      "name": "NotYourToken",
      "type": "error"
    },
    {
      "inputs": [],
      "name": "ZeroBalanceError",
      "type": "error"
    },
    {
      "anonymous": false,
      "inputs": [
        {
          "indexed": true,
          "internalType": "address",
          "name": "owner",
          "type": "address"
        },
        {
          "indexed": true,
          "internalType": "uint256",
          "name": "tokenId",
          "type": "uint256"
        },
        {
          "indexed": true,
          "internalType": "uint256",
          "name": "amount",
          "type": "uint256"
        }
      ],
      "name": "ClaimCaveReward",
      "type": "event"
    },
    {
      "anonymous": false,
      "inputs": [
        {
          "indexed": true,
          "internalType": "address",
          "name": "owner",
          "type": "address"
        },
        {
          "indexed": true,
          "internalType": "uint256",
          "name": "tokenId",
          "type": "uint256"
        },
        {
          "indexed": true,
          "internalType": "uint256",
          "name": "stakeTime",
          "type": "uint256"
        }
      ],
      "name": "EnterCaves",
      "type": "event"
    },
    {
      "anonymous": false,
      "inputs": [
        {
          "indexed": false,
          "internalType": "uint8",
          "name": "version",
          "type": "uint8"
        }
      ],
      "name": "Initialized",
      "type": "event"
    },
    {
      "anonymous": false,
      "inputs": [
        {
          "indexed": true,
          "internalType": "address",
          "name": "owner",
          "type": "address"
        },
        {
          "indexed": true,
          "internalType": "uint256",
          "name": "tokenId",
          "type": "uint256"
        }
      ],
      "name": "LeaveCave",
      "type": "event"
    },
    {
      "inputs": [],
      "name": "bones",
      "outputs": [
        {
          "internalType": "contract IBones",
          "name": "",
          "type": "address"
        }
      ],
      "stateMutability": "view",
      "type": "function"
    },
    {
      "inputs": [
        {
          "internalType": "uint256[]",
          "name": "_tokenId",
          "type": "uint256[]"
        }
      ],
      "name": "claimCaveReward",
      "outputs": [],
      "stateMutability": "nonpayable",
      "type": "function"
    },
    {
      "inputs": [
        {
          "internalType": "uint256[]",
          "name": "_tokenId",
          "type": "uint256[]"
        }
      ],
      "name": "enterCaves",
      "outputs": [],
      "stateMutability": "nonpayable",
      "type": "function"
    },
    {
      "inputs": [
        {
          "internalType": "uint256",
          "name": "_tokenId",
          "type": "uint256"
        }
      ],
      "name": "getCavesInfo",
      "outputs": [
        {
          "components": [
            {
              "internalType": "address",
              "name": "owner",
              "type": "address"
            },
            {
              "internalType": "uint48",
              "name": "stakingTime",
              "type": "uint48"
            },
            {
              "internalType": "uint48",
              "name": "lastRewardTimestamp",
              "type": "uint48"
            }
          ],
          "internalType": "struct Cave",
          "name": "",
          "type": "tuple"
        }
      ],
      "stateMutability": "view",
      "type": "function"
    },
    {
      "inputs": [
        {
          "internalType": "uint256",
          "name": "_tokenId",
          "type": "uint256"
        }
      ],
      "name": "getCavesReward",
      "outputs": [
        {
          "internalType": "uint256",
          "name": "",
          "type": "uint256"
        }
      ],
      "stateMutability": "view",
      "type": "function"
    },
    {
      "inputs": [
        {
          "internalType": "address",
          "name": "_owner",
          "type": "address"
        }
      ],
      "name": "getStakedTokens",
      "outputs": [
        {
          "internalType": "uint256[]",
          "name": "res",
          "type": "uint256[]"
        }
      ],
      "stateMutability": "view",
      "type": "function"
    },
    {
      "inputs": [
        {
          "internalType": "address",
          "name": "_pits",
          "type": "address"
        },
        {
          "internalType": "address",
          "name": "_bones",
          "type": "address"
        },
        {
          "internalType": "address",
          "name": "_neandersmol",
          "type": "address"
        }
      ],
      "name": "initialize",
      "outputs": [],
      "stateMutability": "nonpayable",
      "type": "function"
    },
    {
      "inputs": [
        {
          "internalType": "uint256[]",
          "name": "_tokenId",
          "type": "uint256[]"
        }
      ],
      "name": "leaveCave",
      "outputs": [],
      "stateMutability": "nonpayable",
      "type": "function"
    },
    {
      "inputs": [],
      "name": "neandersmol",
      "outputs": [
        {
          "internalType": "contract INeandersmol",
          "name": "",
          "type": "address"
        }
      ],
      "stateMutability": "view",
      "type": "function"
    },
    {
      "inputs": [],
      "name": "pits",
      "outputs": [
        {
          "internalType": "contract IPits",
          "name": "",
          "type": "address"
        }
      ],
      "stateMutability": "view",
      "type": "function"
    }
  ],
  "transactionHash": "0x1a81646c7a6b0cc30ff3213621e717b56e1c105dea4e143efb0bf5a66f50ec15",
  "args": [],
  "numDeployments": 1,
  "solcInputHash": "18f51bcb9845d8819b37cb038c9b098f",
  "bytecode": "0x608060405234801561001057600080fd5b50611930806100206000396000f3fe608060405234801561001057600080fd5b506004361061009e5760003560e01c80638de38dda116100665780638de38dda14610145578063b00bec6514610175578063c0c53b8b14610193578063d88ad887146101af578063eee0eaa0146101cd5761009e565b80633336ddde146100a357806342f390d4146100bf5780635ac384be146100db57806363c28db1146100f75780637fd4bfd514610127575b600080fd5b6100bd60048036038101906100b89190611165565b6101fd565b005b6100d960048036038101906100d49190611165565b61056e565b005b6100f560048036038101906100f09190611165565b610919565b005b610111600480360381019061010c9190611210565b610959565b60405161011e9190611305565b60405180910390f35b61012f6109f0565b60405161013c9190611386565b60405180910390f35b61015f600480360381019061015a91906113cd565b610a16565b60405161016c919061146c565b60405180910390f35b61017d610af1565b60405161018a91906114a8565b60405180910390f35b6101ad60048036038101906101a891906114c3565b610b17565b005b6101b7610d13565b6040516101c49190611537565b60405180910390f35b6101e760048036038101906101e291906113cd565b610d39565b6040516101f49190611561565b60405180910390f35b60005b828290508110156105695760008383838181106102205761021f61157c565b5b9050602002013590506000600360008381526020019081526020016000206040518060600160405290816000820160009054906101000a900473ffffffffffffffffffffffffffffffffffffffff1673ffffffffffffffffffffffffffffffffffffffff1673ffffffffffffffffffffffffffffffffffffffff1681526020016000820160149054906101000a900465ffffffffffff1665ffffffffffff1665ffffffffffff16815260200160008201601a9054906101000a900465ffffffffffff1665ffffffffffff1665ffffffffffff168152505090503373ffffffffffffffffffffffffffffffffffffffff16816000015173ffffffffffffffffffffffffffffffffffffffff1614610362576040517f091fe61c00000000000000000000000000000000000000000000000000000000815260040160405180910390fd5b4281602001516283d60061037691906115da565b65ffffffffffff1611156103b6576040517ff5dcc1e300000000000000000000000000000000000000000000000000000000815260040160405180910390fd5b60006103c183610d39565b146103d0576103cf82610e76565b5b610418600460003373ffffffffffffffffffffffffffffffffffffffff1673ffffffffffffffffffffffffffffffffffffffff16815260200190815260200160002083610fce565b60036000838152602001908152602001600020600080820160006101000a81549073ffffffffffffffffffffffffffffffffffffffff02191690556000820160146101000a81549065ffffffffffff021916905560008201601a6101000a81549065ffffffffffff02191690555050600260009054906101000a900473ffffffffffffffffffffffffffffffffffffffff1673ffffffffffffffffffffffffffffffffffffffff166323b872dd3033856040518463ffffffff1660e01b81526004016104e693929190611623565b600060405180830381600087803b15801561050057600080fd5b505af1158015610514573d6000803e3d6000fd5b50505050813373ffffffffffffffffffffffffffffffffffffffff167fbbfb105669b1ae5c41fb02f67b40def517f625498c28079e8afc15538710ef5d60405160405180910390a38260010192505050610200565b505050565b7357CFeaA556230252D60fab282cb354Cde6c11Fe96371fcf204600060029054906101000a900473ffffffffffffffffffffffffffffffffffffffff166040518263ffffffff1660e01b81526004016105c79190611669565b60006040518083038186803b1580156105df57600080fd5b505af41580156105f3573d6000803e3d6000fd5b5050505060005b8282905081101561091457600083838381811061061a5761061961157c565b5b90506020020135905060006003600083815260200190815260200160002090503373ffffffffffffffffffffffffffffffffffffffff16600260009054906101000a900473ffffffffffffffffffffffffffffffffffffffff1673ffffffffffffffffffffffffffffffffffffffff16636352211e846040518263ffffffff1660e01b81526004016106ac9190611561565b602060405180830381865afa1580156106c9573d6000803e3d6000fd5b505050506040513d601f19601f820116820180604052508101906106ed9190611699565b73ffffffffffffffffffffffffffffffffffffffff161461073a576040517f091fe61c00000000000000000000000000000000000000000000000000000000815260040160405180910390fd5b600260009054906101000a900473ffffffffffffffffffffffffffffffffffffffff1673ffffffffffffffffffffffffffffffffffffffff166323b872dd3330856040518463ffffffff1660e01b815260040161079993929190611623565b600060405180830381600087803b1580156107b357600080fd5b505af11580156107c7573d6000803e3d6000fd5b50505050338160000160006101000a81548173ffffffffffffffffffffffffffffffffffffffff021916908373ffffffffffffffffffffffffffffffffffffffff160217905550428160000160146101000a81548165ffffffffffff021916908365ffffffffffff1602179055504281600001601a6101000a81548165ffffffffffff021916908365ffffffffffff160217905550600460003373ffffffffffffffffffffffffffffffffffffffff1673ffffffffffffffffffffffffffffffffffffffff16815260200190815260200160002082908060018154018082558091505060019003906000526020600020016000909190919091505542823373ffffffffffffffffffffffffffffffffffffffff167fc691aa41315aadaa128475ed80fa49569e5bd8ce86b076d71695700d4972014760405160405180910390a482600101925050506105fa565b505050565b60005b828290508110156109545761094983838381811061093d5761093c61157c565b5b90506020020135610e76565b80600101905061091c565b505050565b6060600460008373ffffffffffffffffffffffffffffffffffffffff1673ffffffffffffffffffffffffffffffffffffffff1681526020019081526020016000208054806020026020016040519081016040528092919081815260200182805480156109e457602002820191906000526020600020905b8154815260200190600101908083116109d0575b50505050509050919050565b600060029054906101000a900473ffffffffffffffffffffffffffffffffffffffff1681565b610a1e6110af565b600360008381526020019081526020016000206040518060600160405290816000820160009054906101000a900473ffffffffffffffffffffffffffffffffffffffff1673ffffffffffffffffffffffffffffffffffffffff1673ffffffffffffffffffffffffffffffffffffffff1681526020016000820160149054906101000a900465ffffffffffff1665ffffffffffff1665ffffffffffff16815260200160008201601a9054906101000a900465ffffffffffff1665ffffffffffff1665ffffffffffff16815250509050919050565b600260009054906101000a900473ffffffffffffffffffffffffffffffffffffffff1681565b60008060019054906101000a900460ff16159050808015610b485750600160008054906101000a900460ff1660ff16105b80610b755750610b573061108c565b158015610b745750600160008054906101000a900460ff1660ff16145b5b610bb4576040517f08c379a0000000000000000000000000000000000000000000000000000000008152600401610bab90611749565b60405180910390fd5b60016000806101000a81548160ff021916908360ff1602179055508015610bf1576001600060016101000a81548160ff0219169083151502179055505b82600160006101000a81548173ffffffffffffffffffffffffffffffffffffffff021916908373ffffffffffffffffffffffffffffffffffffffff16021790555083600060026101000a81548173ffffffffffffffffffffffffffffffffffffffff021916908373ffffffffffffffffffffffffffffffffffffffff16021790555081600260006101000a81548173ffffffffffffffffffffffffffffffffffffffff021916908373ffffffffffffffffffffffffffffffffffffffff1602179055508015610d0d5760008060016101000a81548160ff0219169083151502179055507f7f26b83ff96e1f2b6a682f133852f6798a09c465da95921460cefb38474024986001604051610d0491906117b1565b60405180910390a15b50505050565b600160009054906101000a900473ffffffffffffffffffffffffffffffffffffffff1681565b600080600360008481526020019081526020016000206040518060600160405290816000820160009054906101000a900473ffffffffffffffffffffffffffffffffffffffff1673ffffffffffffffffffffffffffffffffffffffff1673ffffffffffffffffffffffffffffffffffffffff1681526020016000820160149054906101000a900465ffffffffffff1665ffffffffffff1665ffffffffffff16815260200160008201601a9054906101000a900465ffffffffffff1665ffffffffffff1665ffffffffffff168152505090506000816040015165ffffffffffff1603610e28576000915050610e71565b670de0b6b3a7640000600a62015180836040015165ffffffffffff1642610e4f91906117cc565b610e59919061182f565b610e639190611860565b610e6d9190611860565b9150505b919050565b6000610e8182610d39565b905060008103610ebd576040517f9b4bb81b00000000000000000000000000000000000000000000000000000000815260040160405180910390fd5b4260036000848152602001908152602001600020600001601a6101000a81548165ffffffffffff021916908365ffffffffffff160217905550600160009054906101000a900473ffffffffffffffffffffffffffffffffffffffff1673ffffffffffffffffffffffffffffffffffffffff166340c10f1933836040518363ffffffff1660e01b8152600401610f539291906118a2565b600060405180830381600087803b158015610f6d57600080fd5b505af1158015610f81573d6000803e3d6000fd5b5050505080823373ffffffffffffffffffffffffffffffffffffffff167f97c662bac04c9fd14924d37fb5267cb2203e308f338f2c92418adecab0681b2a60405160405180910390a45050565b60005b82805490508110156110875781838281548110610ff157610ff061157c565b5b90600052602060002001540361107c57826001848054905061101391906117cc565b815481106110245761102361157c565b5b90600052602060002001548382815481106110425761104161157c565b5b906000526020600020018190555082805480611061576110606118cb565b5b60019003818190600052602060002001600090559055611087565b806001019050610fd1565b505050565b6000808273ffffffffffffffffffffffffffffffffffffffff163b119050919050565b6040518060600160405280600073ffffffffffffffffffffffffffffffffffffffff168152602001600065ffffffffffff168152602001600065ffffffffffff1681525090565b600080fd5b600080fd5b600080fd5b600080fd5b600080fd5b60008083601f84011261112557611124611100565b5b8235905067ffffffffffffffff81111561114257611141611105565b5b60208301915083602082028301111561115e5761115d61110a565b5b9250929050565b6000806020838503121561117c5761117b6110f6565b5b600083013567ffffffffffffffff81111561119a576111996110fb565b5b6111a68582860161110f565b92509250509250929050565b600073ffffffffffffffffffffffffffffffffffffffff82169050919050565b60006111dd826111b2565b9050919050565b6111ed816111d2565b81146111f857600080fd5b50565b60008135905061120a816111e4565b92915050565b600060208284031215611226576112256110f6565b5b6000611234848285016111fb565b91505092915050565b600081519050919050565b600082825260208201905092915050565b6000819050602082019050919050565b6000819050919050565b61127c81611269565b82525050565b600061128e8383611273565b60208301905092915050565b6000602082019050919050565b60006112b28261123d565b6112bc8185611248565b93506112c783611259565b8060005b838110156112f85781516112df8882611282565b97506112ea8361129a565b9250506001810190506112cb565b5085935050505092915050565b6000602082019050818103600083015261131f81846112a7565b905092915050565b6000819050919050565b600061134c611347611342846111b2565b611327565b6111b2565b9050919050565b600061135e82611331565b9050919050565b600061137082611353565b9050919050565b61138081611365565b82525050565b600060208201905061139b6000830184611377565b92915050565b6113aa81611269565b81146113b557600080fd5b50565b6000813590506113c7816113a1565b92915050565b6000602082840312156113e3576113e26110f6565b5b60006113f1848285016113b8565b91505092915050565b611403816111d2565b82525050565b600065ffffffffffff82169050919050565b61142481611409565b82525050565b60608201600082015161144060008501826113fa565b506020820151611453602085018261141b565b506040820151611466604085018261141b565b50505050565b6000606082019050611481600083018461142a565b92915050565b600061149282611353565b9050919050565b6114a281611487565b82525050565b60006020820190506114bd6000830184611499565b92915050565b6000806000606084860312156114dc576114db6110f6565b5b60006114ea868287016111fb565b93505060206114fb868287016111fb565b925050604061150c868287016111fb565b9150509250925092565b600061152182611353565b9050919050565b61153181611516565b82525050565b600060208201905061154c6000830184611528565b92915050565b61155b81611269565b82525050565b60006020820190506115766000830184611552565b92915050565b7f4e487b7100000000000000000000000000000000000000000000000000000000600052603260045260246000fd5b7f4e487b7100000000000000000000000000000000000000000000000000000000600052601160045260246000fd5b60006115e582611409565b91506115f083611409565b9250828201905065ffffffffffff81111561160e5761160d6115ab565b5b92915050565b61161d816111d2565b82525050565b60006060820190506116386000830186611614565b6116456020830185611614565b6116526040830184611552565b949350505050565b61166381611365565b82525050565b600060208201905061167e600083018461165a565b92915050565b600081519050611693816111e4565b92915050565b6000602082840312156116af576116ae6110f6565b5b60006116bd84828501611684565b91505092915050565b600082825260208201905092915050565b7f496e697469616c697a61626c653a20636f6e747261637420697320616c72656160008201527f647920696e697469616c697a6564000000000000000000000000000000000000602082015250565b6000611733602e836116c6565b915061173e826116d7565b604082019050919050565b6000602082019050818103600083015261176281611726565b9050919050565b6000819050919050565b600060ff82169050919050565b600061179b61179661179184611769565b611327565b611773565b9050919050565b6117ab81611780565b82525050565b60006020820190506117c660008301846117a2565b92915050565b60006117d782611269565b91506117e283611269565b92508282039050818111156117fa576117f96115ab565b5b92915050565b7f4e487b7100000000000000000000000000000000000000000000000000000000600052601260045260246000fd5b600061183a82611269565b915061184583611269565b92508261185557611854611800565b5b828204905092915050565b600061186b82611269565b915061187683611269565b925082820261188481611269565b9150828204841483151761189b5761189a6115ab565b5b5092915050565b60006040820190506118b76000830185611614565b6118c46020830184611552565b9392505050565b7f4e487b7100000000000000000000000000000000000000000000000000000000600052603160045260246000fdfea26469706673582212209d6bb6a731be33b965909abda1191bf195a931e6e5d81cdb77ac435a7d10cc3064736f6c63430008110033",
  "deployedBytecode": "0x608060405234801561001057600080fd5b506004361061009e5760003560e01c80638de38dda116100665780638de38dda14610145578063b00bec6514610175578063c0c53b8b14610193578063d88ad887146101af578063eee0eaa0146101cd5761009e565b80633336ddde146100a357806342f390d4146100bf5780635ac384be146100db57806363c28db1146100f75780637fd4bfd514610127575b600080fd5b6100bd60048036038101906100b89190611165565b6101fd565b005b6100d960048036038101906100d49190611165565b61056e565b005b6100f560048036038101906100f09190611165565b610919565b005b610111600480360381019061010c9190611210565b610959565b60405161011e9190611305565b60405180910390f35b61012f6109f0565b60405161013c9190611386565b60405180910390f35b61015f600480360381019061015a91906113cd565b610a16565b60405161016c919061146c565b60405180910390f35b61017d610af1565b60405161018a91906114a8565b60405180910390f35b6101ad60048036038101906101a891906114c3565b610b17565b005b6101b7610d13565b6040516101c49190611537565b60405180910390f35b6101e760048036038101906101e291906113cd565b610d39565b6040516101f49190611561565b60405180910390f35b60005b828290508110156105695760008383838181106102205761021f61157c565b5b9050602002013590506000600360008381526020019081526020016000206040518060600160405290816000820160009054906101000a900473ffffffffffffffffffffffffffffffffffffffff1673ffffffffffffffffffffffffffffffffffffffff1673ffffffffffffffffffffffffffffffffffffffff1681526020016000820160149054906101000a900465ffffffffffff1665ffffffffffff1665ffffffffffff16815260200160008201601a9054906101000a900465ffffffffffff1665ffffffffffff1665ffffffffffff168152505090503373ffffffffffffffffffffffffffffffffffffffff16816000015173ffffffffffffffffffffffffffffffffffffffff1614610362576040517f091fe61c00000000000000000000000000000000000000000000000000000000815260040160405180910390fd5b4281602001516283d60061037691906115da565b65ffffffffffff1611156103b6576040517ff5dcc1e300000000000000000000000000000000000000000000000000000000815260040160405180910390fd5b60006103c183610d39565b146103d0576103cf82610e76565b5b610418600460003373ffffffffffffffffffffffffffffffffffffffff1673ffffffffffffffffffffffffffffffffffffffff16815260200190815260200160002083610fce565b60036000838152602001908152602001600020600080820160006101000a81549073ffffffffffffffffffffffffffffffffffffffff02191690556000820160146101000a81549065ffffffffffff021916905560008201601a6101000a81549065ffffffffffff02191690555050600260009054906101000a900473ffffffffffffffffffffffffffffffffffffffff1673ffffffffffffffffffffffffffffffffffffffff166323b872dd3033856040518463ffffffff1660e01b81526004016104e693929190611623565b600060405180830381600087803b15801561050057600080fd5b505af1158015610514573d6000803e3d6000fd5b50505050813373ffffffffffffffffffffffffffffffffffffffff167fbbfb105669b1ae5c41fb02f67b40def517f625498c28079e8afc15538710ef5d60405160405180910390a38260010192505050610200565b505050565b73__$c89922958da0ecd017c5bfa382f5c80a2d$__6371fcf204600060029054906101000a900473ffffffffffffffffffffffffffffffffffffffff166040518263ffffffff1660e01b81526004016105c79190611669565b60006040518083038186803b1580156105df57600080fd5b505af41580156105f3573d6000803e3d6000fd5b5050505060005b8282905081101561091457600083838381811061061a5761061961157c565b5b90506020020135905060006003600083815260200190815260200160002090503373ffffffffffffffffffffffffffffffffffffffff16600260009054906101000a900473ffffffffffffffffffffffffffffffffffffffff1673ffffffffffffffffffffffffffffffffffffffff16636352211e846040518263ffffffff1660e01b81526004016106ac9190611561565b602060405180830381865afa1580156106c9573d6000803e3d6000fd5b505050506040513d601f19601f820116820180604052508101906106ed9190611699565b73ffffffffffffffffffffffffffffffffffffffff161461073a576040517f091fe61c00000000000000000000000000000000000000000000000000000000815260040160405180910390fd5b600260009054906101000a900473ffffffffffffffffffffffffffffffffffffffff1673ffffffffffffffffffffffffffffffffffffffff166323b872dd3330856040518463ffffffff1660e01b815260040161079993929190611623565b600060405180830381600087803b1580156107b357600080fd5b505af11580156107c7573d6000803e3d6000fd5b50505050338160000160006101000a81548173ffffffffffffffffffffffffffffffffffffffff021916908373ffffffffffffffffffffffffffffffffffffffff160217905550428160000160146101000a81548165ffffffffffff021916908365ffffffffffff1602179055504281600001601a6101000a81548165ffffffffffff021916908365ffffffffffff160217905550600460003373ffffffffffffffffffffffffffffffffffffffff1673ffffffffffffffffffffffffffffffffffffffff16815260200190815260200160002082908060018154018082558091505060019003906000526020600020016000909190919091505542823373ffffffffffffffffffffffffffffffffffffffff167fc691aa41315aadaa128475ed80fa49569e5bd8ce86b076d71695700d4972014760405160405180910390a482600101925050506105fa565b505050565b60005b828290508110156109545761094983838381811061093d5761093c61157c565b5b90506020020135610e76565b80600101905061091c565b505050565b6060600460008373ffffffffffffffffffffffffffffffffffffffff1673ffffffffffffffffffffffffffffffffffffffff1681526020019081526020016000208054806020026020016040519081016040528092919081815260200182805480156109e457602002820191906000526020600020905b8154815260200190600101908083116109d0575b50505050509050919050565b600060029054906101000a900473ffffffffffffffffffffffffffffffffffffffff1681565b610a1e6110af565b600360008381526020019081526020016000206040518060600160405290816000820160009054906101000a900473ffffffffffffffffffffffffffffffffffffffff1673ffffffffffffffffffffffffffffffffffffffff1673ffffffffffffffffffffffffffffffffffffffff1681526020016000820160149054906101000a900465ffffffffffff1665ffffffffffff1665ffffffffffff16815260200160008201601a9054906101000a900465ffffffffffff1665ffffffffffff1665ffffffffffff16815250509050919050565b600260009054906101000a900473ffffffffffffffffffffffffffffffffffffffff1681565b60008060019054906101000a900460ff16159050808015610b485750600160008054906101000a900460ff1660ff16105b80610b755750610b573061108c565b158015610b745750600160008054906101000a900460ff1660ff16145b5b610bb4576040517f08c379a0000000000000000000000000000000000000000000000000000000008152600401610bab90611749565b60405180910390fd5b60016000806101000a81548160ff021916908360ff1602179055508015610bf1576001600060016101000a81548160ff0219169083151502179055505b82600160006101000a81548173ffffffffffffffffffffffffffffffffffffffff021916908373ffffffffffffffffffffffffffffffffffffffff16021790555083600060026101000a81548173ffffffffffffffffffffffffffffffffffffffff021916908373ffffffffffffffffffffffffffffffffffffffff16021790555081600260006101000a81548173ffffffffffffffffffffffffffffffffffffffff021916908373ffffffffffffffffffffffffffffffffffffffff1602179055508015610d0d5760008060016101000a81548160ff0219169083151502179055507f7f26b83ff96e1f2b6a682f133852f6798a09c465da95921460cefb38474024986001604051610d0491906117b1565b60405180910390a15b50505050565b600160009054906101000a900473ffffffffffffffffffffffffffffffffffffffff1681565b600080600360008481526020019081526020016000206040518060600160405290816000820160009054906101000a900473ffffffffffffffffffffffffffffffffffffffff1673ffffffffffffffffffffffffffffffffffffffff1673ffffffffffffffffffffffffffffffffffffffff1681526020016000820160149054906101000a900465ffffffffffff1665ffffffffffff1665ffffffffffff16815260200160008201601a9054906101000a900465ffffffffffff1665ffffffffffff1665ffffffffffff168152505090506000816040015165ffffffffffff1603610e28576000915050610e71565b670de0b6b3a7640000600a62015180836040015165ffffffffffff1642610e4f91906117cc565b610e59919061182f565b610e639190611860565b610e6d9190611860565b9150505b919050565b6000610e8182610d39565b905060008103610ebd576040517f9b4bb81b00000000000000000000000000000000000000000000000000000000815260040160405180910390fd5b4260036000848152602001908152602001600020600001601a6101000a81548165ffffffffffff021916908365ffffffffffff160217905550600160009054906101000a900473ffffffffffffffffffffffffffffffffffffffff1673ffffffffffffffffffffffffffffffffffffffff166340c10f1933836040518363ffffffff1660e01b8152600401610f539291906118a2565b600060405180830381600087803b158015610f6d57600080fd5b505af1158015610f81573d6000803e3d6000fd5b5050505080823373ffffffffffffffffffffffffffffffffffffffff167f97c662bac04c9fd14924d37fb5267cb2203e308f338f2c92418adecab0681b2a60405160405180910390a45050565b60005b82805490508110156110875781838281548110610ff157610ff061157c565b5b90600052602060002001540361107c57826001848054905061101391906117cc565b815481106110245761102361157c565b5b90600052602060002001548382815481106110425761104161157c565b5b906000526020600020018190555082805480611061576110606118cb565b5b60019003818190600052602060002001600090559055611087565b806001019050610fd1565b505050565b6000808273ffffffffffffffffffffffffffffffffffffffff163b119050919050565b6040518060600160405280600073ffffffffffffffffffffffffffffffffffffffff168152602001600065ffffffffffff168152602001600065ffffffffffff1681525090565b600080fd5b600080fd5b600080fd5b600080fd5b600080fd5b60008083601f84011261112557611124611100565b5b8235905067ffffffffffffffff81111561114257611141611105565b5b60208301915083602082028301111561115e5761115d61110a565b5b9250929050565b6000806020838503121561117c5761117b6110f6565b5b600083013567ffffffffffffffff81111561119a576111996110fb565b5b6111a68582860161110f565b92509250509250929050565b600073ffffffffffffffffffffffffffffffffffffffff82169050919050565b60006111dd826111b2565b9050919050565b6111ed816111d2565b81146111f857600080fd5b50565b60008135905061120a816111e4565b92915050565b600060208284031215611226576112256110f6565b5b6000611234848285016111fb565b91505092915050565b600081519050919050565b600082825260208201905092915050565b6000819050602082019050919050565b6000819050919050565b61127c81611269565b82525050565b600061128e8383611273565b60208301905092915050565b6000602082019050919050565b60006112b28261123d565b6112bc8185611248565b93506112c783611259565b8060005b838110156112f85781516112df8882611282565b97506112ea8361129a565b9250506001810190506112cb565b5085935050505092915050565b6000602082019050818103600083015261131f81846112a7565b905092915050565b6000819050919050565b600061134c611347611342846111b2565b611327565b6111b2565b9050919050565b600061135e82611331565b9050919050565b600061137082611353565b9050919050565b61138081611365565b82525050565b600060208201905061139b6000830184611377565b92915050565b6113aa81611269565b81146113b557600080fd5b50565b6000813590506113c7816113a1565b92915050565b6000602082840312156113e3576113e26110f6565b5b60006113f1848285016113b8565b91505092915050565b611403816111d2565b82525050565b600065ffffffffffff82169050919050565b61142481611409565b82525050565b60608201600082015161144060008501826113fa565b506020820151611453602085018261141b565b506040820151611466604085018261141b565b50505050565b6000606082019050611481600083018461142a565b92915050565b600061149282611353565b9050919050565b6114a281611487565b82525050565b60006020820190506114bd6000830184611499565b92915050565b6000806000606084860312156114dc576114db6110f6565b5b60006114ea868287016111fb565b93505060206114fb868287016111fb565b925050604061150c868287016111fb565b9150509250925092565b600061152182611353565b9050919050565b61153181611516565b82525050565b600060208201905061154c6000830184611528565b92915050565b61155b81611269565b82525050565b60006020820190506115766000830184611552565b92915050565b7f4e487b7100000000000000000000000000000000000000000000000000000000600052603260045260246000fd5b7f4e487b7100000000000000000000000000000000000000000000000000000000600052601160045260246000fd5b60006115e582611409565b91506115f083611409565b9250828201905065ffffffffffff81111561160e5761160d6115ab565b5b92915050565b61161d816111d2565b82525050565b60006060820190506116386000830186611614565b6116456020830185611614565b6116526040830184611552565b949350505050565b61166381611365565b82525050565b600060208201905061167e600083018461165a565b92915050565b600081519050611693816111e4565b92915050565b6000602082840312156116af576116ae6110f6565b5b60006116bd84828501611684565b91505092915050565b600082825260208201905092915050565b7f496e697469616c697a61626c653a20636f6e747261637420697320616c72656160008201527f647920696e697469616c697a6564000000000000000000000000000000000000602082015250565b6000611733602e836116c6565b915061173e826116d7565b604082019050919050565b6000602082019050818103600083015261176281611726565b9050919050565b6000819050919050565b600060ff82169050919050565b600061179b61179661179184611769565b611327565b611773565b9050919050565b6117ab81611780565b82525050565b60006020820190506117c660008301846117a2565b92915050565b60006117d782611269565b91506117e283611269565b92508282039050818111156117fa576117f96115ab565b5b92915050565b7f4e487b7100000000000000000000000000000000000000000000000000000000600052601260045260246000fd5b600061183a82611269565b915061184583611269565b92508261185557611854611800565b5b828204905092915050565b600061186b82611269565b915061187683611269565b925082820261188481611269565b9150828204841483151761189b5761189a6115ab565b5b5092915050565b60006040820190506118b76000830185611614565b6118c46020830184611552565b9392505050565b7f4e487b7100000000000000000000000000000000000000000000000000000000600052603160045260246000fdfea26469706673582212209d6bb6a731be33b965909abda1191bf195a931e6e5d81cdb77ac435a7d10cc3064736f6c63430008110033",
  "libraries": {
    "Lib": "0x57CFeaA556230252D60fab282cb354Cde6c11Fe9"
  },
  "devdoc": {
    "kind": "dev",
    "methods": {
      "claimCaveReward(uint256[])": {
        "details": "Function to allow the caller to claim rewards for multiple Cave tokens.",
        "params": {
          "_tokenId": "An array of Cave token IDs to claim rewards for."
        }
      },
      "enterCaves(uint256[])": {
        "details": "Allows the owner to enter the caves. This will transfer the token to the contract and set the owner, staking time, and last reward timestamp for the caves.",
        "params": {
          "_tokenId": "The token ID of the caves to enter."
        }
      },
      "getCavesInfo(uint256)": {
        "details": "This function returns a Caves struct containing information about a Cave token, specified by its ID, _tokenId.",
        "params": {
          "_tokenId": "ID of the Cave token to retrieve information for"
        },
        "returns": {
          "_0": "The Caves struct containing information about the specified Cave token."
        }
      },
      "getCavesReward(uint256)": {
        "details": "Function to retrieve the rewards for a Cave token.",
        "params": {
          "_tokenId": "The ID of the Cave token to retrieve rewards for."
        },
        "returns": {
          "_0": "The rewards for the specified Cave token."
        }
      },
      "leaveCave(uint256[])": {
        "details": "Function to allow the owner of a Cave token to leave the cave and claim any rewards.",
        "params": {
          "_tokenId": "An array of Cave token IDs to be claimed and left."
        }
      }
    },
    "version": 1
  },
  "userdoc": {
    "kind": "user",
    "methods": {
      "getCavesInfo(uint256)": {
        "notice": "Retrieve information about a Cave token."
      }
    },
    "version": 1
  },
  "storageLayout": {
    "storage": [
      {
        "astId": 6,
        "contract": "contracts/Caves.sol:Caves",
        "label": "_initialized",
        "offset": 0,
        "slot": "0",
        "type": "t_uint8"
      },
      {
        "astId": 9,
        "contract": "contracts/Caves.sol:Caves",
        "label": "_initializing",
        "offset": 1,
        "slot": "0",
        "type": "t_bool"
      },
      {
        "astId": 6224,
        "contract": "contracts/Caves.sol:Caves",
        "label": "pits",
        "offset": 2,
        "slot": "0",
        "type": "t_contract(IPits)9872"
      },
      {
        "astId": 6227,
        "contract": "contracts/Caves.sol:Caves",
        "label": "bones",
        "offset": 0,
        "slot": "1",
        "type": "t_contract(IBones)9791"
      },
      {
        "astId": 6230,
        "contract": "contracts/Caves.sol:Caves",
        "label": "neandersmol",
        "offset": 0,
        "slot": "2",
        "type": "t_contract(INeandersmol)9842"
      },
      {
        "astId": 6235,
        "contract": "contracts/Caves.sol:Caves",
        "label": "caves",
        "offset": 0,
        "slot": "3",
        "type": "t_mapping(t_uint256,t_struct(Cave)10329_storage)"
      },
      {
        "astId": 6240,
        "contract": "contracts/Caves.sol:Caves",
        "label": "ownerToTokens",
        "offset": 0,
        "slot": "4",
        "type": "t_mapping(t_address,t_array(t_uint256)dyn_storage)"
      }
    ],
    "types": {
      "t_address": {
        "encoding": "inplace",
        "label": "address",
        "numberOfBytes": "20"
      },
      "t_array(t_uint256)dyn_storage": {
        "base": "t_uint256",
        "encoding": "dynamic_array",
        "label": "uint256[]",
        "numberOfBytes": "32"
      },
      "t_bool": {
        "encoding": "inplace",
        "label": "bool",
        "numberOfBytes": "1"
      },
      "t_contract(IBones)9791": {
        "encoding": "inplace",
        "label": "contract IBones",
        "numberOfBytes": "20"
      },
      "t_contract(INeandersmol)9842": {
        "encoding": "inplace",
        "label": "contract INeandersmol",
        "numberOfBytes": "20"
      },
      "t_contract(IPits)9872": {
        "encoding": "inplace",
        "label": "contract IPits",
        "numberOfBytes": "20"
      },
      "t_mapping(t_address,t_array(t_uint256)dyn_storage)": {
        "encoding": "mapping",
        "key": "t_address",
        "label": "mapping(address => uint256[])",
        "numberOfBytes": "32",
        "value": "t_array(t_uint256)dyn_storage"
      },
      "t_mapping(t_uint256,t_struct(Cave)10329_storage)": {
        "encoding": "mapping",
        "key": "t_uint256",
        "label": "mapping(uint256 => struct Cave)",
        "numberOfBytes": "32",
        "value": "t_struct(Cave)10329_storage"
      },
      "t_struct(Cave)10329_storage": {
        "encoding": "inplace",
        "label": "struct Cave",
        "members": [
          {
            "astId": 10324,
            "contract": "contracts/Caves.sol:Caves",
            "label": "owner",
            "offset": 0,
            "slot": "0",
            "type": "t_address"
          },
          {
            "astId": 10326,
            "contract": "contracts/Caves.sol:Caves",
            "label": "stakingTime",
            "offset": 20,
            "slot": "0",
            "type": "t_uint48"
          },
          {
            "astId": 10328,
            "contract": "contracts/Caves.sol:Caves",
            "label": "lastRewardTimestamp",
            "offset": 26,
            "slot": "0",
            "type": "t_uint48"
          }
        ],
        "numberOfBytes": "32"
      },
      "t_uint256": {
        "encoding": "inplace",
        "label": "uint256",
        "numberOfBytes": "32"
      },
      "t_uint48": {
        "encoding": "inplace",
        "label": "uint48",
        "numberOfBytes": "6"
      },
      "t_uint8": {
        "encoding": "inplace",
        "label": "uint8",
        "numberOfBytes": "1"
      }
    }
  }
}