{
  "address": "0xCd3eC032edC99AfB86d367ce6BbD98392e9A8723",
  "abi": [
    {
      "inputs": [],
      "name": "DevelopmentGroundIsLocked",
      "type": "error"
    },
    {
      "inputs": [],
      "name": "NeandersmolsIsLocked",
      "type": "error"
    },
    {
      "inputs": [],
      "name": "NewOwnerIsZeroAddress",
      "type": "error"
    },
    {
      "inputs": [],
      "name": "NoHandoverRequest",
      "type": "error"
    },
    {
      "inputs": [],
      "name": "NotYourToken",
      "type": "error"
    },
    {
      "inputs": [],
      "name": "Unauthorized",
      "type": "error"
    },
    {
      "inputs": [],
      "name": "ZeroBalanceError",
      "type": "error"
    },
    {
      "anonymous": false,
      "inputs": [
        {
          "indexed": true,
          "internalType": "address",
          "name": "owner",
          "type": "address"
        },
        {
          "indexed": true,
          "internalType": "uint256",
          "name": "tokenId",
          "type": "uint256"
        },
        {
          "indexed": true,
          "internalType": "uint256",
          "name": "amount",
          "type": "uint256"
        }
      ],
      "name": "ClaimCaveReward",
      "type": "event"
    },
    {
      "anonymous": false,
      "inputs": [
        {
          "indexed": true,
          "internalType": "address",
          "name": "owner",
          "type": "address"
        },
        {
          "indexed": true,
          "internalType": "uint256",
          "name": "tokenId",
          "type": "uint256"
        },
        {
          "indexed": true,
          "internalType": "uint256",
          "name": "stakeTime",
          "type": "uint256"
        }
      ],
      "name": "EnterCaves",
      "type": "event"
    },
    {
      "anonymous": false,
      "inputs": [
        {
          "indexed": false,
          "internalType": "uint8",
          "name": "version",
          "type": "uint8"
        }
      ],
      "name": "Initialized",
      "type": "event"
    },
    {
      "anonymous": false,
      "inputs": [
        {
          "indexed": true,
          "internalType": "address",
          "name": "owner",
          "type": "address"
        },
        {
          "indexed": true,
          "internalType": "uint256",
          "name": "tokenId",
          "type": "uint256"
        }
      ],
      "name": "LeaveCave",
      "type": "event"
    },
    {
      "anonymous": false,
      "inputs": [
        {
          "indexed": true,
          "internalType": "address",
          "name": "pendingOwner",
          "type": "address"
        }
      ],
      "name": "OwnershipHandoverCanceled",
      "type": "event"
    },
    {
      "anonymous": false,
      "inputs": [
        {
          "indexed": true,
          "internalType": "address",
          "name": "pendingOwner",
          "type": "address"
        }
      ],
      "name": "OwnershipHandoverRequested",
      "type": "event"
    },
    {
      "anonymous": false,
      "inputs": [
        {
          "indexed": true,
          "internalType": "address",
          "name": "oldOwner",
          "type": "address"
        },
        {
          "indexed": true,
          "internalType": "address",
          "name": "newOwner",
          "type": "address"
        }
      ],
      "name": "OwnershipTransferred",
      "type": "event"
    },
    {
      "inputs": [],
      "name": "bones",
      "outputs": [
        {
          "internalType": "contract IBones",
          "name": "",
          "type": "address"
        }
      ],
      "stateMutability": "view",
      "type": "function"
    },
    {
      "inputs": [],
      "name": "cancelOwnershipHandover",
      "outputs": [],
      "stateMutability": "payable",
      "type": "function"
    },
    {
      "inputs": [
        {
          "internalType": "uint256[]",
          "name": "_tokenId",
          "type": "uint256[]"
        }
      ],
      "name": "claimCaveReward",
      "outputs": [],
      "stateMutability": "nonpayable",
      "type": "function"
    },
    {
      "inputs": [
        {
          "internalType": "address",
          "name": "pendingOwner",
          "type": "address"
        }
      ],
      "name": "completeOwnershipHandover",
      "outputs": [],
      "stateMutability": "payable",
      "type": "function"
    },
    {
      "inputs": [
        {
          "internalType": "uint256[]",
          "name": "_tokenId",
          "type": "uint256[]"
        }
      ],
      "name": "enterCaves",
      "outputs": [],
      "stateMutability": "nonpayable",
      "type": "function"
    },
    {
      "inputs": [
        {
          "internalType": "address",
          "name": "_user",
          "type": "address"
        }
      ],
      "name": "getCavesFeInfo",
      "outputs": [
        {
          "components": [
            {
              "internalType": "uint256",
              "name": "reward",
              "type": "uint256"
            },
            {
              "internalType": "uint128",
              "name": "stakedSmols",
              "type": "uint128"
            },
            {
              "internalType": "uint128",
              "name": "timeLeft",
              "type": "uint128"
            }
          ],
          "internalType": "struct CavesFeInfo[]",
          "name": "",
          "type": "tuple[]"
        }
      ],
      "stateMutability": "view",
      "type": "function"
    },
    {
      "inputs": [
        {
          "internalType": "uint256",
          "name": "_tokenId",
          "type": "uint256"
        }
      ],
      "name": "getCavesInfo",
      "outputs": [
        {
          "components": [
            {
              "internalType": "address",
              "name": "owner",
              "type": "address"
            },
            {
              "internalType": "uint48",
              "name": "stakingTime",
              "type": "uint48"
            },
            {
              "internalType": "uint48",
              "name": "lastRewardTimestamp",
              "type": "uint48"
            }
          ],
          "internalType": "struct Cave",
          "name": "",
          "type": "tuple"
        }
      ],
      "stateMutability": "view",
      "type": "function"
    },
    {
      "inputs": [
        {
          "internalType": "uint256",
          "name": "_tokenId",
          "type": "uint256"
        }
      ],
      "name": "getCavesReward",
      "outputs": [
        {
          "internalType": "uint256",
          "name": "",
          "type": "uint256"
        }
      ],
      "stateMutability": "view",
      "type": "function"
    },
    {
      "inputs": [
        {
          "internalType": "address",
          "name": "_owner",
          "type": "address"
        }
      ],
      "name": "getStakedTokens",
      "outputs": [
        {
          "internalType": "uint256[]",
          "name": "",
          "type": "uint256[]"
        }
      ],
      "stateMutability": "view",
      "type": "function"
    },
    {
      "inputs": [
        {
          "internalType": "address",
          "name": "_pits",
          "type": "address"
        },
        {
          "internalType": "address",
          "name": "_bones",
          "type": "address"
        },
        {
          "internalType": "address",
          "name": "_neandersmol",
          "type": "address"
        }
      ],
      "name": "initialize",
      "outputs": [],
      "stateMutability": "nonpayable",
      "type": "function"
    },
    {
      "inputs": [
        {
          "internalType": "uint256[]",
          "name": "_tokenId",
          "type": "uint256[]"
        }
      ],
      "name": "leaveCave",
      "outputs": [],
      "stateMutability": "nonpayable",
      "type": "function"
    },
    {
      "inputs": [],
      "name": "neandersmol",
      "outputs": [
        {
          "internalType": "contract INeandersmol",
          "name": "",
          "type": "address"
        }
      ],
      "stateMutability": "view",
      "type": "function"
    },
    {
      "inputs": [],
      "name": "owner",
      "outputs": [
        {
          "internalType": "address",
          "name": "result",
          "type": "address"
        }
      ],
      "stateMutability": "view",
      "type": "function"
    },
    {
      "inputs": [
        {
          "internalType": "address",
          "name": "pendingOwner",
          "type": "address"
        }
      ],
      "name": "ownershipHandoverExpiresAt",
      "outputs": [
        {
          "internalType": "uint256",
          "name": "result",
          "type": "uint256"
        }
      ],
      "stateMutability": "view",
      "type": "function"
    },
    {
      "inputs": [],
      "name": "ownershipHandoverValidFor",
      "outputs": [
        {
          "internalType": "uint64",
          "name": "",
          "type": "uint64"
        }
      ],
      "stateMutability": "view",
      "type": "function"
    },
    {
      "inputs": [],
      "name": "pits",
      "outputs": [
        {
          "internalType": "contract IPits",
          "name": "",
          "type": "address"
        }
      ],
      "stateMutability": "view",
      "type": "function"
    },
    {
      "inputs": [],
      "name": "renounceOwnership",
      "outputs": [],
      "stateMutability": "payable",
      "type": "function"
    },
    {
      "inputs": [],
      "name": "requestOwnershipHandover",
      "outputs": [],
      "stateMutability": "payable",
      "type": "function"
    },
    {
      "inputs": [
        {
          "internalType": "address",
          "name": "_pits",
          "type": "address"
        },
        {
          "internalType": "address",
          "name": "_bones",
          "type": "address"
        },
        {
          "internalType": "address",
          "name": "_neandersmol",
          "type": "address"
        }
      ],
      "name": "setAddress",
      "outputs": [],
      "stateMutability": "nonpayable",
      "type": "function"
    },
    {
      "inputs": [
        {
          "internalType": "address",
          "name": "newOwner",
          "type": "address"
        }
      ],
      "name": "transferOwnership",
      "outputs": [],
      "stateMutability": "payable",
      "type": "function"
    }
  ],
  "transactionHash": "0x933072809c9ea1bd9100d48bbf63bbd173d070d071a788723d17291a3a095bfa",
  "args": [],
  "numDeployments": 1,
  "solcInputHash": "382b64b6cda7259ac2c94037600ab694",
  "bytecode": "0x608060405234801561001057600080fd5b5061225d806100206000396000f3fe60806040526004361061011f5760003560e01c80638da5cb5b116100a0578063d88ad88711610064578063d88ad88714610372578063eee0eaa01461039d578063f04e283e146103da578063f2fde38b146103f6578063fee81cf4146104125761011f565b80638da5cb5b1461028b5780638de38dda146102b6578063b00bec65146102f3578063c0c53b8b1461031e578063d7533f02146103475761011f565b80635ac384be116100e75780635ac384be146101b35780635e6b06fb146101dc57806363c28db114610219578063715018a6146102565780637fd4bfd5146102605761011f565b806325692962146101245780633336ddde1461012e5780633be08dab1461015757806342f390d41461018057806354d1f13d146101a9575b600080fd5b61012c61044f565b005b34801561013a57600080fd5b5061015560048036038101906101509190611814565b6104a3565b005b34801561016357600080fd5b5061017e600480360381019061017991906118bf565b610819565b005b34801561018c57600080fd5b506101a760048036038101906101a29190611814565b6108e9565b005b6101b1610c3b565b005b3480156101bf57600080fd5b506101da60048036038101906101d59190611814565b610c77565b005b3480156101e857600080fd5b5061020360048036038101906101fe9190611912565b610cbd565b6040516102109190611a74565b60405180910390f35b34801561022557600080fd5b50610240600480360381019061023b9190611912565b610e8c565b60405161024d9190611b45565b60405180910390f35b61025e610f23565b005b34801561026c57600080fd5b50610275610f37565b6040516102829190611bc6565b60405180910390f35b34801561029757600080fd5b506102a0610f5d565b6040516102ad9190611bf0565b60405180910390f35b3480156102c257600080fd5b506102dd60048036038101906102d89190611c37565b610f6b565b6040516102ea9190611cd6565b60405180910390f35b3480156102ff57600080fd5b50610308611046565b6040516103159190611d12565b60405180910390f35b34801561032a57600080fd5b50610345600480360381019061034091906118bf565b61106c565b005b34801561035357600080fd5b5061035c6111b9565b6040516103699190611d50565b60405180910390f35b34801561037e57600080fd5b506103876111c4565b6040516103949190611d8c565b60405180910390f35b3480156103a957600080fd5b506103c460048036038101906103bf9190611c37565b6111ea565b6040516103d19190611db6565b60405180910390f35b6103f460048036038101906103ef9190611912565b61131b565b005b610410600480360381019061040b9190611912565b61135c565b005b34801561041e57600080fd5b5061043960048036038101906104349190611912565b611386565b6040516104469190611db6565b60405180910390f35b60006104596111b9565b67ffffffffffffffff164201905063389a75e1600c5233600052806020600c2055337fdbf36a107da19e49527a7176a1babf963b4b0ff8cde35ee35d6cd8f1f9ac7e1d600080a250565b60005b828290508110156108145760008383838181106104c6576104c5611dd1565b5b9050602002013590506000600360008381526020019081526020016000206040518060600160405290816000820160009054906101000a900473ffffffffffffffffffffffffffffffffffffffff1673ffffffffffffffffffffffffffffffffffffffff1673ffffffffffffffffffffffffffffffffffffffff1681526020016000820160149054906101000a900465ffffffffffff1665ffffffffffff1665ffffffffffff16815260200160008201601a9054906101000a900465ffffffffffff1665ffffffffffff1665ffffffffffff168152505090503373ffffffffffffffffffffffffffffffffffffffff16816000015173ffffffffffffffffffffffffffffffffffffffff1614610608576040517f091fe61c00000000000000000000000000000000000000000000000000000000815260040160405180910390fd5b4281602001516283d60061061c9190611e2f565b65ffffffffffff16111561065c576040517ff5dcc1e300000000000000000000000000000000000000000000000000000000815260040160405180910390fd5b6000610667836111ea565b1461067657610675826113a1565b5b6106be600460003373ffffffffffffffffffffffffffffffffffffffff1673ffffffffffffffffffffffffffffffffffffffff168152602001908152602001600020836114f9565b60036000838152602001908152602001600020600080820160006101000a81549073ffffffffffffffffffffffffffffffffffffffff02191690556000820160146101000a81549065ffffffffffff021916905560008201601a6101000a81549065ffffffffffff02191690555050600260009054906101000a900473ffffffffffffffffffffffffffffffffffffffff1673ffffffffffffffffffffffffffffffffffffffff166337bf06a68360006040518363ffffffff1660e01b815260040161078b929190611e84565b600060405180830381600087803b1580156107a557600080fd5b505af11580156107b9573d6000803e3d6000fd5b50505050813373ffffffffffffffffffffffffffffffffffffffff167fbbfb105669b1ae5c41fb02f67b40def517f625498c28079e8afc15538710ef5d60405160405180910390a350508061080d90611ead565b90506104a6565b505050565b6108216115b7565b81600160006101000a81548173ffffffffffffffffffffffffffffffffffffffff021916908373ffffffffffffffffffffffffffffffffffffffff16021790555082600060026101000a81548173ffffffffffffffffffffffffffffffffffffffff021916908373ffffffffffffffffffffffffffffffffffffffff16021790555080600260006101000a81548173ffffffffffffffffffffffffffffffffffffffff021916908373ffffffffffffffffffffffffffffffffffffffff160217905550505050565b610914600060029054906101000a900473ffffffffffffffffffffffffffffffffffffffff166115d4565b60005b82829050811015610c3657600083838381811061093757610936611dd1565b5b90506020020135905060006003600083815260200190815260200160002090503373ffffffffffffffffffffffffffffffffffffffff16600260009054906101000a900473ffffffffffffffffffffffffffffffffffffffff1673ffffffffffffffffffffffffffffffffffffffff16636352211e846040518263ffffffff1660e01b81526004016109c99190611db6565b602060405180830381865afa1580156109e6573d6000803e3d6000fd5b505050506040513d601f19601f82011682018060405250810190610a0a9190611f0a565b73ffffffffffffffffffffffffffffffffffffffff1614610a57576040517f091fe61c00000000000000000000000000000000000000000000000000000000815260040160405180910390fd5b600260009054906101000a900473ffffffffffffffffffffffffffffffffffffffff1673ffffffffffffffffffffffffffffffffffffffff166337bf06a68360016040518363ffffffff1660e01b8152600401610ab5929190611e84565b600060405180830381600087803b158015610acf57600080fd5b505af1158015610ae3573d6000803e3d6000fd5b50505050338160000160006101000a81548173ffffffffffffffffffffffffffffffffffffffff021916908373ffffffffffffffffffffffffffffffffffffffff160217905550428160000160146101000a81548165ffffffffffff021916908365ffffffffffff1602179055504281600001601a6101000a81548165ffffffffffff021916908365ffffffffffff160217905550600460003373ffffffffffffffffffffffffffffffffffffffff1673ffffffffffffffffffffffffffffffffffffffff16815260200190815260200160002082908060018154018082558091505060019003906000526020600020016000909190919091505542823373ffffffffffffffffffffffffffffffffffffffff167fc691aa41315aadaa128475ed80fa49569e5bd8ce86b076d71695700d4972014760405160405180910390a4505080610c2f90611ead565b9050610917565b505050565b63389a75e1600c523360005260006020600c2055337ffa7b8eab7da67f412cc9575ed43464468f9bfbae89d1675917346ca6d8fe3c92600080a2565b60005b82829050811015610cb857610ca7838383818110610c9b57610c9a611dd1565b5b905060200201356113a1565b80610cb190611ead565b9050610c7a565b505050565b60606000610cca83610e8c565b90506000815167ffffffffffffffff811115610ce957610ce8611f37565b5b604051908082528060200260200182016040528015610d2257816020015b610d0f611719565b815260200190600190039081610d075790505b50905060005b8251811015610e8157600042610d57858481518110610d4a57610d49611dd1565b5b6020026020010151610f6b565b602001516283d600610d699190611e2f565b65ffffffffffff1611610d7d576000610dd4565b62015180610da4858481518110610d9757610d96611dd1565b5b6020026020010151610f6b565b6020015165ffffffffffff1642610dbb9190611f66565b610dc59190611fc9565b6283d600610dd39190611ffa565b5b90506040518060600160405280610e04868581518110610df757610df6611dd1565b5b60200260200101516111ea565b8152602001858481518110610e1c57610e1b611dd1565b5b60200260200101516fffffffffffffffffffffffffffffffff168152602001826fffffffffffffffffffffffffffffffff16815250838381518110610e6457610e63611dd1565b5b60200260200101819052505080610e7a90611ead565b9050610d28565b508092505050919050565b6060600460008373ffffffffffffffffffffffffffffffffffffffff1673ffffffffffffffffffffffffffffffffffffffff168152602001908152602001600020805480602002602001604051908101604052809291908181526020018280548015610f1757602002820191906000526020600020905b815481526020019060010190808311610f03575b50505050509050919050565b610f2b6115b7565b610f35600061167c565b565b600060029054906101000a900473ffffffffffffffffffffffffffffffffffffffff1681565b6000638b78c6d81954905090565b610f7361175e565b600360008381526020019081526020016000206040518060600160405290816000820160009054906101000a900473ffffffffffffffffffffffffffffffffffffffff1673ffffffffffffffffffffffffffffffffffffffff1673ffffffffffffffffffffffffffffffffffffffff1681526020016000820160149054906101000a900465ffffffffffff1665ffffffffffff1665ffffffffffff16815260200160008201601a9054906101000a900465ffffffffffff1665ffffffffffff1665ffffffffffff16815250509050919050565b600260009054906101000a900473ffffffffffffffffffffffffffffffffffffffff1681565b60008060019054906101000a900460ff1615905080801561109d5750600160008054906101000a900460ff1660ff16105b806110ca57506110ac306116ba565b1580156110c95750600160008054906101000a900460ff1660ff16145b5b611109576040517f08c379a0000000000000000000000000000000000000000000000000000000008152600401611100906120b1565b60405180910390fd5b60016000806101000a81548160ff021916908360ff1602179055508015611146576001600060016101000a81548160ff0219169083151502179055505b61114f336116dd565b61115a848484610819565b80156111b35760008060016101000a81548160ff0219169083151502179055507f7f26b83ff96e1f2b6a682f133852f6798a09c465da95921460cefb384740249860016040516111aa9190612119565b60405180910390a15b50505050565b60006202a300905090565b600160009054906101000a900473ffffffffffffffffffffffffffffffffffffffff1681565b600080600360008481526020019081526020016000206040518060600160405290816000820160009054906101000a900473ffffffffffffffffffffffffffffffffffffffff1673ffffffffffffffffffffffffffffffffffffffff1673ffffffffffffffffffffffffffffffffffffffff1681526020016000820160149054906101000a900465ffffffffffff1665ffffffffffff1665ffffffffffff16815260200160008201601a9054906101000a900465ffffffffffff1665ffffffffffff1665ffffffffffff168152505090506000816040015165ffffffffffff16036112d9576000915050611316565b678ac7230489e8000062015180826040015165ffffffffffff16426112fe9190611f66565b6113089190611fc9565b6113129190612134565b9150505b919050565b6113236115b7565b63389a75e1600c52806000526020600c20805442111561134b57636f5e88186000526004601cfd5b60008155506113598161167c565b50565b6113646115b7565b8060601b61137a57637448fbae6000526004601cfd5b6113838161167c565b50565b600063389a75e1600c52816000526020600c20549050919050565b60006113ac826111ea565b9050600081036113e8576040517f9b4bb81b00000000000000000000000000000000000000000000000000000000815260040160405180910390fd5b4260036000848152602001908152602001600020600001601a6101000a81548165ffffffffffff021916908365ffffffffffff160217905550600160009054906101000a900473ffffffffffffffffffffffffffffffffffffffff1673ffffffffffffffffffffffffffffffffffffffff166340c10f1933836040518363ffffffff1660e01b815260040161147e929190612176565b600060405180830381600087803b15801561149857600080fd5b505af11580156114ac573d6000803e3d6000fd5b5050505080823373ffffffffffffffffffffffffffffffffffffffff167f97c662bac04c9fd14924d37fb5267cb2203e308f338f2c92418adecab0681b2a60405160405180910390a45050565b60005b82805490508110156115b2578183828154811061151c5761151b611dd1565b5b9060005260206000200154036115a757826001848054905061153e9190611f66565b8154811061154f5761154e611dd1565b5b906000526020600020015483828154811061156d5761156c611dd1565b5b90600052602060002001819055508280548061158c5761158b61219f565b5b600190038181906000526020600020016000905590556115b2565b8060010190506114fc565b505050565b638b78c6d8195433146115d2576382b429006000526004601cfd5b565b8073ffffffffffffffffffffffffffffffffffffffff1663ae4b37e46040518163ffffffff1660e01b8152600401602060405180830381865afa15801561161f573d6000803e3d6000fd5b505050506040513d601f19601f8201168201806040525081019061164391906121fa565b611679576040517f288de97200000000000000000000000000000000000000000000000000000000815260040160405180910390fd5b50565b638b78c6d8198160601b60601c91508181547f8be0079c531659141344cd1fd0a4f28419497f9722a3daafe3b4186f6b6457e0600080a38181555050565b6000808273ffffffffffffffffffffffffffffffffffffffff163b119050919050565b8060601b60601c905080638b78c6d819558060007f8be0079c531659141344cd1fd0a4f28419497f9722a3daafe3b4186f6b6457e0600080a350565b60405180606001604052806000815260200160006fffffffffffffffffffffffffffffffff16815260200160006fffffffffffffffffffffffffffffffff1681525090565b6040518060600160405280600073ffffffffffffffffffffffffffffffffffffffff168152602001600065ffffffffffff168152602001600065ffffffffffff1681525090565b600080fd5b600080fd5b600080fd5b600080fd5b600080fd5b60008083601f8401126117d4576117d36117af565b5b8235905067ffffffffffffffff8111156117f1576117f06117b4565b5b60208301915083602082028301111561180d5761180c6117b9565b5b9250929050565b6000806020838503121561182b5761182a6117a5565b5b600083013567ffffffffffffffff811115611849576118486117aa565b5b611855858286016117be565b92509250509250929050565b600073ffffffffffffffffffffffffffffffffffffffff82169050919050565b600061188c82611861565b9050919050565b61189c81611881565b81146118a757600080fd5b50565b6000813590506118b981611893565b92915050565b6000806000606084860312156118d8576118d76117a5565b5b60006118e6868287016118aa565b93505060206118f7868287016118aa565b9250506040611908868287016118aa565b9150509250925092565b600060208284031215611928576119276117a5565b5b6000611936848285016118aa565b91505092915050565b600081519050919050565b600082825260208201905092915050565b6000819050602082019050919050565b6000819050919050565b61197e8161196b565b82525050565b60006fffffffffffffffffffffffffffffffff82169050919050565b6119a981611984565b82525050565b6060820160008201516119c56000850182611975565b5060208201516119d860208501826119a0565b5060408201516119eb60408501826119a0565b50505050565b60006119fd83836119af565b60608301905092915050565b6000602082019050919050565b6000611a218261193f565b611a2b818561194a565b9350611a368361195b565b8060005b83811015611a67578151611a4e88826119f1565b9750611a5983611a09565b925050600181019050611a3a565b5085935050505092915050565b60006020820190508181036000830152611a8e8184611a16565b905092915050565b600081519050919050565b600082825260208201905092915050565b6000819050602082019050919050565b6000611ace8383611975565b60208301905092915050565b6000602082019050919050565b6000611af282611a96565b611afc8185611aa1565b9350611b0783611ab2565b8060005b83811015611b38578151611b1f8882611ac2565b9750611b2a83611ada565b925050600181019050611b0b565b5085935050505092915050565b60006020820190508181036000830152611b5f8184611ae7565b905092915050565b6000819050919050565b6000611b8c611b87611b8284611861565b611b67565b611861565b9050919050565b6000611b9e82611b71565b9050919050565b6000611bb082611b93565b9050919050565b611bc081611ba5565b82525050565b6000602082019050611bdb6000830184611bb7565b92915050565b611bea81611881565b82525050565b6000602082019050611c056000830184611be1565b92915050565b611c148161196b565b8114611c1f57600080fd5b50565b600081359050611c3181611c0b565b92915050565b600060208284031215611c4d57611c4c6117a5565b5b6000611c5b84828501611c22565b91505092915050565b611c6d81611881565b82525050565b600065ffffffffffff82169050919050565b611c8e81611c73565b82525050565b606082016000820151611caa6000850182611c64565b506020820151611cbd6020850182611c85565b506040820151611cd06040850182611c85565b50505050565b6000606082019050611ceb6000830184611c94565b92915050565b6000611cfc82611b93565b9050919050565b611d0c81611cf1565b82525050565b6000602082019050611d276000830184611d03565b92915050565b600067ffffffffffffffff82169050919050565b611d4a81611d2d565b82525050565b6000602082019050611d656000830184611d41565b92915050565b6000611d7682611b93565b9050919050565b611d8681611d6b565b82525050565b6000602082019050611da16000830184611d7d565b92915050565b611db08161196b565b82525050565b6000602082019050611dcb6000830184611da7565b92915050565b7f4e487b7100000000000000000000000000000000000000000000000000000000600052603260045260246000fd5b7f4e487b7100000000000000000000000000000000000000000000000000000000600052601160045260246000fd5b6000611e3a82611c73565b9150611e4583611c73565b9250828201905065ffffffffffff811115611e6357611e62611e00565b5b92915050565b60008115159050919050565b611e7e81611e69565b82525050565b6000604082019050611e996000830185611da7565b611ea66020830184611e75565b9392505050565b6000611eb88261196b565b91507fffffffffffffffffffffffffffffffffffffffffffffffffffffffffffffffff8203611eea57611ee9611e00565b5b600182019050919050565b600081519050611f0481611893565b92915050565b600060208284031215611f2057611f1f6117a5565b5b6000611f2e84828501611ef5565b91505092915050565b7f4e487b7100000000000000000000000000000000000000000000000000000000600052604160045260246000fd5b6000611f718261196b565b9150611f7c8361196b565b9250828203905081811115611f9457611f93611e00565b5b92915050565b7f4e487b7100000000000000000000000000000000000000000000000000000000600052601260045260246000fd5b6000611fd48261196b565b9150611fdf8361196b565b925082611fef57611fee611f9a565b5b828204905092915050565b60006120058261196b565b91506120108361196b565b925082820190508082111561202857612027611e00565b5b92915050565b600082825260208201905092915050565b7f496e697469616c697a61626c653a20636f6e747261637420697320616c72656160008201527f647920696e697469616c697a6564000000000000000000000000000000000000602082015250565b600061209b602e8361202e565b91506120a68261203f565b604082019050919050565b600060208201905081810360008301526120ca8161208e565b9050919050565b6000819050919050565b600060ff82169050919050565b60006121036120fe6120f9846120d1565b611b67565b6120db565b9050919050565b612113816120e8565b82525050565b600060208201905061212e600083018461210a565b92915050565b600061213f8261196b565b915061214a8361196b565b92508282026121588161196b565b9150828204841483151761216f5761216e611e00565b5b5092915050565b600060408201905061218b6000830185611be1565b6121986020830184611da7565b9392505050565b7f4e487b7100000000000000000000000000000000000000000000000000000000600052603160045260246000fd5b6121d781611e69565b81146121e257600080fd5b50565b6000815190506121f4816121ce565b92915050565b6000602082840312156122105761220f6117a5565b5b600061221e848285016121e5565b9150509291505056fea2646970667358221220351e1d13c50eb935188919d648394689972d6eb5da1b5d65665cab29849e2a1964736f6c63430008120033",
  "devdoc": {
    "errors": {
      "NewOwnerIsZeroAddress()": [
        {
          "details": "The `newOwner` cannot be the zero address."
        }
      ],
      "NoHandoverRequest()": [
        {
          "details": "The `pendingOwner` does not have a valid handover request."
        }
      ],
      "Unauthorized()": [
        {
          "details": "The caller is not authorized to call the function."
        }
      ]
    },
    "events": {
      "Initialized(uint8)": {
        "details": "Triggered when the contract has been initialized or reinitialized."
      },
      "OwnershipHandoverCanceled(address)": {
        "details": "The ownership handover to `pendingOwner` has been canceled."
      },
      "OwnershipHandoverRequested(address)": {
        "details": "An ownership handover to `pendingOwner` has been requested."
      },
      "OwnershipTransferred(address,address)": {
        "details": "The ownership is transferred from `oldOwner` to `newOwner`. This event is intentionally kept the same as OpenZeppelin's Ownable to be compatible with indexers and [EIP-173](https://eips.ethereum.org/EIPS/eip-173), despite it not being as lightweight as a single argument event."
      }
    },
    "kind": "dev",
    "methods": {
      "cancelOwnershipHandover()": {
        "details": "Cancels the two-step ownership handover to the caller, if any."
      },
      "claimCaveReward(uint256[])": {
        "details": "Function to allow the caller to claim rewards for multiple Cave tokens.",
        "params": {
          "_tokenId": "An array of Cave token IDs to claim rewards for."
        }
      },
      "completeOwnershipHandover(address)": {
        "details": "Allows the owner to complete the two-step ownership handover to `pendingOwner`. Reverts if there is no existing ownership handover requested by `pendingOwner`."
      },
      "enterCaves(uint256[])": {
        "details": "Allows the owner to enter the caves. This will transfer the token to the contract and set the owner, staking time, and last reward timestamp for the caves.",
        "params": {
          "_tokenId": "The token ID of the caves to enter."
        }
      },
      "getCavesFeInfo(address)": {
        "details": "Retrieves information about a user's staked tokens in the Caves farm.",
        "params": {
          "_user": "The address of the user whose information is being retrieved."
        },
        "returns": {
          "_0": "An array of CavesFeInfo structs containing information about the user's staked tokens, including the amount of rewards earned, the token ID, and the time left for the staking period."
        }
      },
      "getCavesInfo(uint256)": {
        "details": "This function returns a Caves struct containing information about a Cave token, specified by its ID, _tokenId.",
        "params": {
          "_tokenId": "ID of the Cave token to retrieve information for"
        },
        "returns": {
          "_0": "The Caves struct containing information about the specified Cave token."
        }
      },
      "getCavesReward(uint256)": {
        "details": "Function to retrieve the rewards for a Cave token.",
        "params": {
          "_tokenId": "The ID of the Cave token to retrieve rewards for."
        },
        "returns": {
          "_0": "The rewards for the specified Cave token."
        }
      },
      "getStakedTokens(address)": {
        "details": "Returns an array of token IDs that are currently staked by the given owner.",
        "params": {
          "_owner": "The address of the owner."
        },
        "returns": {
          "_0": "An array of staked token IDs."
        }
      },
      "leaveCave(uint256[])": {
        "details": "Function to allow the owner of a Cave token to leave the cave and claim any rewards.",
        "params": {
          "_tokenId": "An array of Cave token IDs to be claimed and left."
        }
      },
      "owner()": {
        "details": "Returns the owner of the contract."
      },
      "ownershipHandoverExpiresAt(address)": {
        "details": "Returns the expiry timestamp for the two-step ownership handover to `pendingOwner`."
      },
      "ownershipHandoverValidFor()": {
        "details": "Returns how long a two-step ownership handover is valid for in seconds."
      },
      "renounceOwnership()": {
        "details": "Allows the owner to renounce their ownership."
      },
      "requestOwnershipHandover()": {
        "details": "Request a two-step ownership handover to the caller. The request will be automatically expire in 48 hours (172800 seconds) by default."
      },
      "transferOwnership(address)": {
        "details": "Allows the owner to transfer the ownership to `newOwner`."
      }
    },
    "version": 1
  },
  "userdoc": {
    "kind": "user",
    "methods": {
      "getCavesInfo(uint256)": {
        "notice": "Retrieve information about a Cave token."
      }
    },
    "version": 1
  },
  "storageLayout": {
    "storage": [
      {
        "astId": 415,
        "contract": "contracts/Caves.sol:Caves",
        "label": "_initialized",
        "offset": 0,
        "slot": "0",
        "type": "t_uint8"
      },
      {
        "astId": 418,
        "contract": "contracts/Caves.sol:Caves",
        "label": "_initializing",
        "offset": 1,
        "slot": "0",
        "type": "t_bool"
      },
      {
        "astId": 6444,
        "contract": "contracts/Caves.sol:Caves",
        "label": "pits",
        "offset": 2,
        "slot": "0",
        "type": "t_contract(IPits)10963"
      },
      {
        "astId": 6447,
        "contract": "contracts/Caves.sol:Caves",
        "label": "bones",
        "offset": 0,
        "slot": "1",
        "type": "t_contract(IBones)10875"
      },
      {
        "astId": 6450,
        "contract": "contracts/Caves.sol:Caves",
        "label": "neandersmol",
        "offset": 0,
        "slot": "2",
        "type": "t_contract(INeandersmol)10933"
      },
      {
        "astId": 6455,
        "contract": "contracts/Caves.sol:Caves",
        "label": "caves",
        "offset": 0,
        "slot": "3",
        "type": "t_mapping(t_uint256,t_struct(Cave)11424_storage)"
      },
      {
        "astId": 6460,
        "contract": "contracts/Caves.sol:Caves",
        "label": "ownerToTokens",
        "offset": 0,
        "slot": "4",
        "type": "t_mapping(t_address,t_array(t_uint256)dyn_storage)"
      }
    ],
    "types": {
      "t_address": {
        "encoding": "inplace",
        "label": "address",
        "numberOfBytes": "20"
      },
      "t_array(t_uint256)dyn_storage": {
        "base": "t_uint256",
        "encoding": "dynamic_array",
        "label": "uint256[]",
        "numberOfBytes": "32"
      },
      "t_bool": {
        "encoding": "inplace",
        "label": "bool",
        "numberOfBytes": "1"
      },
      "t_contract(IBones)10875": {
        "encoding": "inplace",
        "label": "contract IBones",
        "numberOfBytes": "20"
      },
      "t_contract(INeandersmol)10933": {
        "encoding": "inplace",
        "label": "contract INeandersmol",
        "numberOfBytes": "20"
      },
      "t_contract(IPits)10963": {
        "encoding": "inplace",
        "label": "contract IPits",
        "numberOfBytes": "20"
      },
      "t_mapping(t_address,t_array(t_uint256)dyn_storage)": {
        "encoding": "mapping",
        "key": "t_address",
        "label": "mapping(address => uint256[])",
        "numberOfBytes": "32",
        "value": "t_array(t_uint256)dyn_storage"
      },
      "t_mapping(t_uint256,t_struct(Cave)11424_storage)": {
        "encoding": "mapping",
        "key": "t_uint256",
        "label": "mapping(uint256 => struct Cave)",
        "numberOfBytes": "32",
        "value": "t_struct(Cave)11424_storage"
      },
      "t_struct(Cave)11424_storage": {
        "encoding": "inplace",
        "label": "struct Cave",
        "members": [
          {
            "astId": 11419,
            "contract": "contracts/Caves.sol:Caves",
            "label": "owner",
            "offset": 0,
            "slot": "0",
            "type": "t_address"
          },
          {
            "astId": 11421,
            "contract": "contracts/Caves.sol:Caves",
            "label": "stakingTime",
            "offset": 20,
            "slot": "0",
            "type": "t_uint48"
          },
          {
            "astId": 11423,
            "contract": "contracts/Caves.sol:Caves",
            "label": "lastRewardTimestamp",
            "offset": 26,
            "slot": "0",
            "type": "t_uint48"
          }
        ],
        "numberOfBytes": "32"
      },
      "t_uint256": {
        "encoding": "inplace",
        "label": "uint256",
        "numberOfBytes": "32"
      },
      "t_uint48": {
        "encoding": "inplace",
        "label": "uint48",
        "numberOfBytes": "6"
      },
      "t_uint8": {
        "encoding": "inplace",
        "label": "uint8",
        "numberOfBytes": "1"
      }
    }
  }
}