{
  "address": "0x269dE0A31F62D890B45C757b098c5A203F1a2359",
  "abi": [
    {
      "inputs": [],
      "name": "BalanceIsInsufficient",
      "type": "error"
    },
    {
      "inputs": [],
      "name": "CsIsBellowHundred",
      "type": "error"
    },
    {
      "inputs": [],
      "name": "DevelopmentGroundIsLocked",
      "type": "error"
    },
    {
      "inputs": [],
      "name": "InvalidLockTime",
      "type": "error"
    },
    {
      "inputs": [],
      "name": "LengthsNotEqual",
      "type": "error"
    },
    {
      "inputs": [],
      "name": "NeandersmolIsNotInDevelopmentGround",
      "type": "error"
    },
    {
      "inputs": [],
      "name": "NeandersmolsIsLocked",
      "type": "error"
    },
    {
      "inputs": [],
      "name": "NotYourToken",
      "type": "error"
    },
    {
      "inputs": [],
      "name": "WrongMultiple",
      "type": "error"
    },
    {
      "inputs": [],
      "name": "ZeroBalanceError",
      "type": "error"
    },
    {
      "anonymous": false,
      "inputs": [
        {
          "indexed": true,
          "internalType": "address",
          "name": "owner",
          "type": "address"
        },
        {
          "indexed": true,
          "internalType": "uint256",
          "name": "tokenId",
          "type": "uint256"
        },
        {
          "indexed": true,
          "internalType": "bool",
          "name": "stake",
          "type": "bool"
        }
      ],
      "name": "ClaimDevelopmentGroundBonesReward",
      "type": "event"
    },
    {
      "anonymous": false,
      "inputs": [
        {
          "indexed": true,
          "internalType": "address",
          "name": "owner",
          "type": "address"
        },
        {
          "indexed": true,
          "internalType": "uint256",
          "name": "tokenId",
          "type": "uint256"
        },
        {
          "indexed": true,
          "internalType": "uint256",
          "name": "lockTime",
          "type": "uint256"
        },
        {
          "indexed": false,
          "internalType": "uint256",
          "name": "entryTime",
          "type": "uint256"
        },
        {
          "indexed": false,
          "internalType": "enum Grounds",
          "name": "ground",
          "type": "uint8"
        }
      ],
      "name": "EnterDevelopmentGround",
      "type": "event"
    },
    {
      "anonymous": false,
      "inputs": [
        {
          "indexed": false,
          "internalType": "uint8",
          "name": "version",
          "type": "uint8"
        }
      ],
      "name": "Initialized",
      "type": "event"
    },
    {
      "anonymous": false,
      "inputs": [
        {
          "indexed": true,
          "internalType": "address",
          "name": "owner",
          "type": "address"
        },
        {
          "indexed": true,
          "internalType": "uint256",
          "name": "tokenId",
          "type": "uint256"
        }
      ],
      "name": "LeaveDevelopmentGround",
      "type": "event"
    },
    {
      "anonymous": false,
      "inputs": [
        {
          "indexed": true,
          "internalType": "address",
          "name": "owner",
          "type": "address"
        },
        {
          "indexed": true,
          "internalType": "uint256",
          "name": "tokenId",
          "type": "uint256"
        },
        {
          "indexed": true,
          "internalType": "uint256",
          "name": "amount",
          "type": "uint256"
        }
      ],
      "name": "RemoveBones",
      "type": "event"
    },
    {
      "anonymous": false,
      "inputs": [
        {
          "indexed": true,
          "internalType": "address",
          "name": "owner",
          "type": "address"
        },
        {
          "indexed": true,
          "internalType": "uint256",
          "name": "amount",
          "type": "uint256"
        },
        {
          "indexed": true,
          "internalType": "uint256",
          "name": "tokenId",
          "type": "uint256"
        }
      ],
      "name": "StakeBonesInDevelopmentGround",
      "type": "event"
    },
    {
      "inputs": [],
      "name": "bones",
      "outputs": [
        {
          "internalType": "contract IBones",
          "name": "",
          "type": "address"
        }
      ],
      "stateMutability": "view",
      "type": "function"
    },
    {
      "inputs": [
        {
          "internalType": "uint256[]",
          "name": "_tokenId",
          "type": "uint256[]"
        },
        {
          "internalType": "bool[]",
          "name": "_stake",
          "type": "bool[]"
        }
      ],
      "name": "claimDevelopmentGroundBonesReward",
      "outputs": [],
      "stateMutability": "nonpayable",
      "type": "function"
    },
    {
      "inputs": [
        {
          "internalType": "uint256[]",
          "name": "_tokenId",
          "type": "uint256[]"
        },
        {
          "internalType": "uint256[]",
          "name": "_lockTime",
          "type": "uint256[]"
        },
        {
          "internalType": "enum Grounds[]",
          "name": "_ground",
          "type": "uint8[]"
        }
      ],
      "name": "enterDevelopmentGround",
      "outputs": [],
      "stateMutability": "nonpayable",
      "type": "function"
    },
    {
      "inputs": [
        {
          "internalType": "address",
          "name": "_owner",
          "type": "address"
        }
      ],
      "name": "getDevGroundFeInfo",
      "outputs": [
        {
          "components": [
            {
              "internalType": "uint96",
              "name": "timeLeft",
              "type": "uint96"
            },
            {
              "internalType": "uint96",
              "name": "daysStaked",
              "type": "uint96"
            },
            {
              "internalType": "uint64",
              "name": "stakedSmols",
              "type": "uint64"
            },
            {
              "internalType": "uint256",
              "name": "skillLevel",
              "type": "uint256"
            },
            {
              "internalType": "uint256",
              "name": "bonesOccured",
              "type": "uint256"
            }
          ],
          "internalType": "struct DevGroundFe[]",
          "name": "",
          "type": "tuple[]"
        }
      ],
      "stateMutability": "view",
      "type": "function"
    },
    {
      "inputs": [
        {
          "internalType": "uint256",
          "name": "_tokenId",
          "type": "uint256"
        }
      ],
      "name": "getDevelopmentGroundBonesReward",
      "outputs": [
        {
          "internalType": "uint256",
          "name": "",
          "type": "uint256"
        }
      ],
      "stateMutability": "view",
      "type": "function"
    },
    {
      "inputs": [
        {
          "internalType": "uint256",
          "name": "_tokenId",
          "type": "uint256"
        }
      ],
      "name": "getDevelopmentGroundInfo",
      "outputs": [
        {
          "components": [
            {
              "internalType": "address",
              "name": "owner",
              "type": "address"
            },
            {
              "internalType": "uint64",
              "name": "lockPeriod",
              "type": "uint64"
            },
            {
              "internalType": "uint64",
              "name": "amountPosition",
              "type": "uint64"
            },
            {
              "internalType": "uint64",
              "name": "entryTime",
              "type": "uint64"
            },
            {
              "internalType": "uint64",
              "name": "lastRewardTime",
              "type": "uint64"
            },
            {
              "internalType": "uint256",
              "name": "bonesStaked",
              "type": "uint256"
            },
            {
              "internalType": "uint256",
              "name": "currentPitsLockPeriod",
              "type": "uint256"
            },
            {
              "internalType": "enum Grounds",
              "name": "ground",
              "type": "uint8"
            }
          ],
          "internalType": "struct DevelopmentGround",
          "name": "",
          "type": "tuple"
        }
      ],
      "stateMutability": "view",
      "type": "function"
    },
    {
      "inputs": [
        {
          "internalType": "uint256",
          "name": "_tokenId",
          "type": "uint256"
        }
      ],
      "name": "getPrimarySkill",
      "outputs": [
        {
          "internalType": "uint256",
          "name": "",
          "type": "uint256"
        }
      ],
      "stateMutability": "view",
      "type": "function"
    },
    {
      "inputs": [
        {
          "internalType": "address",
          "name": "_owner",
          "type": "address"
        }
      ],
      "name": "getStakedTokens",
      "outputs": [
        {
          "internalType": "uint256[]",
          "name": "res",
          "type": "uint256[]"
        }
      ],
      "stateMutability": "view",
      "type": "function"
    },
    {
      "inputs": [
        {
          "internalType": "address",
          "name": "_pits",
          "type": "address"
        },
        {
          "internalType": "address",
          "name": "_neandersmol",
          "type": "address"
        },
        {
          "internalType": "address",
          "name": "_bones",
          "type": "address"
        }
      ],
      "name": "initialize",
      "outputs": [],
      "stateMutability": "nonpayable",
      "type": "function"
    },
    {
      "inputs": [
        {
          "internalType": "uint256[]",
          "name": "_tokenId",
          "type": "uint256[]"
        }
      ],
      "name": "leaveDevelopmentGround",
      "outputs": [],
      "stateMutability": "nonpayable",
      "type": "function"
    },
    {
      "inputs": [],
      "name": "neandersmol",
      "outputs": [
        {
          "internalType": "contract INeandersmol",
          "name": "",
          "type": "address"
        }
      ],
      "stateMutability": "view",
      "type": "function"
    },
    {
      "inputs": [],
      "name": "pits",
      "outputs": [
        {
          "internalType": "contract IPits",
          "name": "",
          "type": "address"
        }
      ],
      "stateMutability": "view",
      "type": "function"
    },
    {
      "inputs": [
        {
          "internalType": "uint256[]",
          "name": "_tokenId",
          "type": "uint256[]"
        },
        {
          "internalType": "bool[]",
          "name": "_all",
          "type": "bool[]"
        }
      ],
      "name": "removeBones",
      "outputs": [],
      "stateMutability": "nonpayable",
      "type": "function"
    },
    {
      "inputs": [
        {
          "internalType": "uint256[]",
          "name": "_amount",
          "type": "uint256[]"
        },
        {
          "internalType": "uint256[]",
          "name": "_tokenId",
          "type": "uint256[]"
        }
      ],
      "name": "stakeBonesInDevelopmentGround",
      "outputs": [],
      "stateMutability": "nonpayable",
      "type": "function"
    }
  ],
  "transactionHash": "0xafa72b51c4f39e4562a21490d87cc46319b604cb2f3c2019f1c1fd0f63a08e51",
  "args": [],
  "numDeployments": 3,
  "solcInputHash": "b0a4d635107545a7aac7694574186bd0",
  "bytecode": "0x608060405234801561001057600080fd5b506144d3806100206000396000f3fe608060405234801561001057600080fd5b50600436106100ea5760003560e01c8063b00bec651161008c578063d88ad88711610066578063d88ad8871461025b578063dd4fcc1614610279578063ea32dac5146102a9578063ec42cb77146102c5576100ea565b8063b00bec6514610205578063c0c53b8b14610223578063cb2fe05e1461023f576100ea565b8063547ac071116100c8578063547ac0711461017f5780635970f4531461019b57806363c28db1146101b75780637fd4bfd5146101e7576100ea565b8063074f7eb3146100ef5780632a1f41461461011f5780633e39953a1461014f575b600080fd5b6101096004803603810190610104919061358e565b6102e1565b6040516101169190613735565b60405180910390f35b61013960048036038101906101349190613783565b6104fb565b60405161014691906137bf565b60405180910390f35b61016960048036038101906101649190613783565b6106dd565b60405161017691906137bf565b60405180910390f35b6101996004803603810190610194919061383f565b6108c4565b005b6101b560048036038101906101b09190613916565b610ba0565b005b6101d160048036038101906101cc919061358e565b6111c8565b6040516101de9190613a79565b60405180910390f35b6101ef61125f565b6040516101fc9190613afa565b60405180910390f35b61020d611285565b60405161021a9190613b36565b60405180910390f35b61023d60048036038101906102389190613b51565b6112ab565b005b61025960048036038101906102549190613bfa565b6114a7565b005b610263611578565b6040516102709190613c9c565b60405180910390f35b610293600480360381019061028e9190613783565b61159e565b6040516102a09190613ddf565b60405180910390f35b6102c360048036038101906102be9190613bfa565b611739565b005b6102df60048036038101906102da9190613dfb565b6117e8565b005b60606000600560008473ffffffffffffffffffffffffffffffffffffffff1673ffffffffffffffffffffffffffffffffffffffff16815260200190815260200160002080548060200260200160405190810160405280929190818152602001828054801561036e57602002820191906000526020600020905b81548152602001906001019080831161035a575b505050505090506000815167ffffffffffffffff81111561039257610391613e48565b5b6040519080825280602002602001820160405280156103cb57816020015b6103b861343c565b8152602001906001900390816103b05790505b50905060005b81518110156104f05760008382815181106103ef576103ee613e77565b5b6020026020010151905060006104048261159e565b905060008160600151826020015161041c9190613ed5565b67ffffffffffffffff1690506000814210610438576000610445565b42826104449190613f11565b5b90506040518060a00160405280826bffffffffffffffffffffffff168152602001846060015167ffffffffffffffff16426104809190613f11565b6bffffffffffffffffffffffff1681526020018567ffffffffffffffff1681526020016104ac866104fb565b81526020016104ba866106dd565b8152508686815181106104d0576104cf613e77565b5b602002602001018190525050505050806104e990613f45565b90506103d1565b819350505050919050565b60008060066000848152602001908152602001600020604051806101000160405290816000820160009054906101000a900473ffffffffffffffffffffffffffffffffffffffff1673ffffffffffffffffffffffffffffffffffffffff1673ffffffffffffffffffffffffffffffffffffffff1681526020016000820160149054906101000a900467ffffffffffffffff1667ffffffffffffffff1667ffffffffffffffff1681526020016001820160009054906101000a900467ffffffffffffffff1667ffffffffffffffff1667ffffffffffffffff1681526020016001820160089054906101000a900467ffffffffffffffff1667ffffffffffffffff1667ffffffffffffffff1681526020016001820160109054906101000a900467ffffffffffffffff1667ffffffffffffffff1667ffffffffffffffff16815260200160028201548152602001600382015481526020016004820160009054906101000a900460ff16600281111561067457610673613cc6565b5b600281111561068657610685613cc6565b5b8152505090506106d58160a00151826040015167ffffffffffffffff168360c0015186600160009054906101000a900473ffffffffffffffffffffffffffffffffffffffff166003600461182e565b915050919050565b60008060066000848152602001908152602001600020604051806101000160405290816000820160009054906101000a900473ffffffffffffffffffffffffffffffffffffffff1673ffffffffffffffffffffffffffffffffffffffff1673ffffffffffffffffffffffffffffffffffffffff1681526020016000820160149054906101000a900467ffffffffffffffff1667ffffffffffffffff1667ffffffffffffffff1681526020016001820160009054906101000a900467ffffffffffffffff1667ffffffffffffffff1667ffffffffffffffff1681526020016001820160089054906101000a900467ffffffffffffffff1667ffffffffffffffff1667ffffffffffffffff1681526020016001820160109054906101000a900467ffffffffffffffff1667ffffffffffffffff1667ffffffffffffffff16815260200160028201548152602001600382015481526020016004820160009054906101000a900460ff16600281111561085657610855613cc6565b5b600281111561086857610867613cc6565b5b8152505090506108bc8160c00151826020015167ffffffffffffffff16836080015167ffffffffffffffff16600160009054906101000a900473ffffffffffffffffffffffffffffffffffffffff16611947565b915050919050565b6108ef600160009054906101000a900473ffffffffffffffffffffffffffffffffffffffff166119c4565b6108fb84848484611a6c565b60005b84849050811015610b995760008084848481811061091f5761091e613e77565b5b9050602002013587878581811061093957610938613e77565b5b9050602002013591509150600060066000848152602001908152602001600020905081600060029054906101000a900473ffffffffffffffffffffffffffffffffffffffff1673ffffffffffffffffffffffffffffffffffffffff166370a08231336040518263ffffffff1660e01b81526004016109b79190613f9c565b602060405180830381865afa1580156109d4573d6000803e3d6000fd5b505050506040513d601f19601f820116820180604052508101906109f89190613fcc565b1015610a30576040517f7276110900000000000000000000000000000000000000000000000000000000815260040160405180910390fd5b3373ffffffffffffffffffffffffffffffffffffffff168160000160009054906101000a900473ffffffffffffffffffffffffffffffffffffffff1673ffffffffffffffffffffffffffffffffffffffff1614610ab9576040517fb47f2b3300000000000000000000000000000000000000000000000000000000815260040160405180910390fd5b6000683635c9adc5dea0000083610ad09190614028565b14610b07576040517f1d823d0700000000000000000000000000000000000000000000000000000000815260040160405180910390fd5b610b35600060029054906101000a900473ffffffffffffffffffffffffffffffffffffffff16333085611ab1565b610b40818484611b01565b82823373ffffffffffffffffffffffffffffffffffffffff167f1004c640a4c8dbc3c9dd5ff33837d99e4882aaf2b20fb8e7c419fc83c8ca5bd060405160405180910390a450505080610b9290613f45565b90506108fe565b5050505050565b6000610bae87878787611a6c565b828290508585905014610bed576040517f22cb666100000000000000000000000000000000000000000000000000000000815260040160405180910390fd5b610c18600160009054906101000a900473ffffffffffffffffffffffffffffffffffffffff166119c4565b5b868690508110156111bf57600080888884818110610c3a57610c39613e77565b5b90506020020135878785818110610c5457610c53613e77565b5b905060200201359150915060006006600084815260200190815260200160002090506064600260009054906101000a900473ffffffffffffffffffffffffffffffffffffffff1673ffffffffffffffffffffffffffffffffffffffff1663f822a5b2856040518263ffffffff1660e01b8152600401610cd391906137bf565b602060405180830381865afa158015610cf0573d6000803e3d6000fd5b505050506040513d601f19601f82011682018060405250810190610d149190613fcc565b1015610d4c576040517f7f36105d00000000000000000000000000000000000000000000000000000000815260040160405180910390fd5b3373ffffffffffffffffffffffffffffffffffffffff16600260009054906101000a900473ffffffffffffffffffffffffffffffffffffffff1673ffffffffffffffffffffffffffffffffffffffff16636352211e856040518263ffffffff1660e01b8152600401610dbe91906137bf565b602060405180830381865afa158015610ddb573d6000803e3d6000fd5b505050506040513d601f19601f82011682018060405250810190610dff919061406e565b73ffffffffffffffffffffffffffffffffffffffff1614610e4c576040517f091fe61c00000000000000000000000000000000000000000000000000000000815260040160405180910390fd5b610e5582611bdf565b610e8b576040517fabf20e8f00000000000000000000000000000000000000000000000000000000815260040160405180910390fd5b600260009054906101000a900473ffffffffffffffffffffffffffffffffffffffff1673ffffffffffffffffffffffffffffffffffffffff166323b872dd3330866040518463ffffffff1660e01b8152600401610eea9392919061409b565b600060405180830381600087803b158015610f0457600080fd5b505af1158015610f18573d6000803e3d6000fd5b50505050338160000160006101000a81548173ffffffffffffffffffffffffffffffffffffffff021916908373ffffffffffffffffffffffffffffffffffffffff160217905550428160010160086101000a81548167ffffffffffffffff021916908367ffffffffffffffff160217905550818160000160146101000a81548167ffffffffffffffff021916908367ffffffffffffffff160217905550428160010160106101000a81548167ffffffffffffffff021916908367ffffffffffffffff160217905550858585818110610ff357610ff2613e77565b5b905060200201602081019061100891906140f7565b8160040160006101000a81548160ff0219169083600281111561102e5761102d613cc6565b5b0217905550600160009054906101000a900473ffffffffffffffffffffffffffffffffffffffff1673ffffffffffffffffffffffffffffffffffffffff16631b688d9f6040518163ffffffff1660e01b8152600401602060405180830381865afa1580156110a0573d6000803e3d6000fd5b505050506040513d601f19601f820116820180604052508101906110c49190613fcc565b8160030181905550600560003373ffffffffffffffffffffffffffffffffffffffff1673ffffffffffffffffffffffffffffffffffffffff16815260200190815260200160002083908060018154018082558091505060019003906000526020600020016000909190919091505581833373ffffffffffffffffffffffffffffffffffffffff167ff0a4b106684863ac7bbc666f47a082e4f6a197f11447743c5347b3344b6b527e428a8a8a8181106111805761117f613e77565b5b905060200201602081019061119591906140f7565b6040516111a3929190614133565b60405180910390a4505050806111b890613f45565b9050610c19565b50505050505050565b6060600560008373ffffffffffffffffffffffffffffffffffffffff1673ffffffffffffffffffffffffffffffffffffffff16815260200190815260200160002080548060200260200160405190810160405280929190818152602001828054801561125357602002820191906000526020600020905b81548152602001906001019080831161123f575b50505050509050919050565b600160009054906101000a900473ffffffffffffffffffffffffffffffffffffffff1681565b600260009054906101000a900473ffffffffffffffffffffffffffffffffffffffff1681565b60008060019054906101000a900460ff161590508080156112dc5750600160008054906101000a900460ff1660ff16105b8061130957506112eb30611c08565b1580156113085750600160008054906101000a900460ff1660ff16145b5b611348576040517f08c379a000000000000000000000000000000000000000000000000000000000815260040161133f906141df565b60405180910390fd5b60016000806101000a81548160ff021916908360ff1602179055508015611385576001600060016101000a81548160ff0219169083151502179055505b81600060026101000a81548173ffffffffffffffffffffffffffffffffffffffff021916908373ffffffffffffffffffffffffffffffffffffffff16021790555083600160006101000a81548173ffffffffffffffffffffffffffffffffffffffff021916908373ffffffffffffffffffffffffffffffffffffffff16021790555082600260006101000a81548173ffffffffffffffffffffffffffffffffffffffff021916908373ffffffffffffffffffffffffffffffffffffffff16021790555080156114a15760008060016101000a81548160ff0219169083151502179055507f7f26b83ff96e1f2b6a682f133852f6798a09c465da95921460cefb384740249860016040516114989190614247565b60405180910390a15b50505050565b8181905084849050146114e6576040517f22cb666100000000000000000000000000000000000000000000000000000000815260040160405180910390fd5b60005b848490508110156115715761151685858381811061150a57611509613e77565b5b90506020020135611c2b565b61156085858381811061152c5761152b613e77565b5b9050602002013584848481811061154657611545613e77565b5b905060200201602081019061155b919061429a565b611fe7565b8061156a90613f45565b90506114e9565b5050505050565b600060029054906101000a900473ffffffffffffffffffffffffffffffffffffffff1681565b6115a6613491565b60066000838152602001908152602001600020604051806101000160405290816000820160009054906101000a900473ffffffffffffffffffffffffffffffffffffffff1673ffffffffffffffffffffffffffffffffffffffff1673ffffffffffffffffffffffffffffffffffffffff1681526020016000820160149054906101000a900467ffffffffffffffff1667ffffffffffffffff1667ffffffffffffffff1681526020016001820160009054906101000a900467ffffffffffffffff1667ffffffffffffffff1667ffffffffffffffff1681526020016001820160089054906101000a900467ffffffffffffffff1667ffffffffffffffff1667ffffffffffffffff1681526020016001820160109054906101000a900467ffffffffffffffff1667ffffffffffffffff1667ffffffffffffffff16815260200160028201548152602001600382015481526020016004820160009054906101000a900460ff16600281111561171c5761171b613cc6565b5b600281111561172e5761172d613cc6565b5b815250509050919050565b818190508484905014611778576040517f22cb666100000000000000000000000000000000000000000000000000000000815260040160405180910390fd5b60005b848490508110156117e1576117d085858381811061179c5761179b613e77565b5b905060200201358484848181106117b6576117b5613e77565b5b90506020020160208101906117cb919061429a565b612514565b806117da90613f45565b905061177b565b5050505050565b60005b828290508110156118295761181883838381811061180c5761180b613e77565b5b90506020020135612882565b8061182290613f45565b90506117eb565b505050565b6000808803611840576000905061193c565b600080600190505b888111611901576000620151808660008a8152602001908152602001600020600084815260200190815260200160002054426118849190613f11565b61188e91906142c7565b905060008560008a815260200190815260200160002060008860008c8152602001908152602001600020600086815260200190815260200160002054815260200190815260200160002054905080826118e791906142f8565b846118f2919061433a565b93508260010192505050611848565b5061271068056bc75e2d631000006119198988612cf6565b61192391906142f8565b8261192e9190613f11565b61193891906142c7565b9150505b979650505050505050565b600080840361195957600090506119bc565b600061196485613110565b905060006201518085426119789190613f11565b61198291906142c7565b9050670de0b6b3a76400006119978886612cf6565b82846119a391906142f8565b6119ad9190613f11565b6119b791906142f8565b925050505b949350505050565b8073ffffffffffffffffffffffffffffffffffffffff1663ae4b37e46040518163ffffffff1660e01b8152600401602060405180830381865afa158015611a0f573d6000803e3d6000fd5b505050506040513d601f19601f82011682018060405250810190611a339190614383565b611a69576040517f288de97200000000000000000000000000000000000000000000000000000000815260040160405180910390fd5b50565b818190508484905014611aab576040517f22cb666100000000000000000000000000000000000000000000000000000000815260040160405180910390fd5b50505050565b6040516323b872dd600052836020528260405281606052602060006064601c6000895af13d156001600051141716611af157637939f4246000526004601cfd5b6000606052806040525050505050565b80836002016000828254611b15919061433a565b9250508190555082600101600081819054906101000a900467ffffffffffffffff16611b40906143b0565b91906101000a81548167ffffffffffffffff021916908367ffffffffffffffff1602179055508060046000848152602001908152602001600020600042815260200190815260200160002081905550426003600084815260200190815260200160002060008560010160009054906101000a900467ffffffffffffffff1667ffffffffffffffff16815260200190815260200160002081905550505050565b60006241eb00821480611bf457506283d60082145b80611c01575062c5c10082145b9050919050565b6000808273ffffffffffffffffffffffffffffffffffffffff163b119050919050565b600060066000838152602001908152602001600020604051806101000160405290816000820160009054906101000a900473ffffffffffffffffffffffffffffffffffffffff1673ffffffffffffffffffffffffffffffffffffffff1673ffffffffffffffffffffffffffffffffffffffff1681526020016000820160149054906101000a900467ffffffffffffffff1667ffffffffffffffff1667ffffffffffffffff1681526020016001820160009054906101000a900467ffffffffffffffff1667ffffffffffffffff1667ffffffffffffffff1681526020016001820160089054906101000a900467ffffffffffffffff1667ffffffffffffffff1667ffffffffffffffff1681526020016001820160109054906101000a900467ffffffffffffffff1667ffffffffffffffff1667ffffffffffffffff16815260200160028201548152602001600382015481526020016004820160009054906101000a900460ff166002811115611da357611da2613cc6565b5b6002811115611db557611db4613cc6565b5b815250509050600080611dc7846104fb565b8360e001519150915060006002811115611de457611de3613cc6565b5b816002811115611df757611df6613cc6565b5b03611e9057600260009054906101000a900473ffffffffffffffffffffffffffffffffffffffff1673ffffffffffffffffffffffffffffffffffffffff1663743f4e9485846040518363ffffffff1660e01b8152600401611e599291906143e0565b600060405180830381600087803b158015611e7357600080fd5b505af1158015611e87573d6000803e3d6000fd5b50505050611fe1565b60016002811115611ea457611ea3613cc6565b5b816002811115611eb757611eb6613cc6565b5b03611f5057600260009054906101000a900473ffffffffffffffffffffffffffffffffffffffff1673ffffffffffffffffffffffffffffffffffffffff1663067ea39285846040518363ffffffff1660e01b8152600401611f199291906143e0565b600060405180830381600087803b158015611f3357600080fd5b505af1158015611f47573d6000803e3d6000fd5b50505050611fe0565b600260009054906101000a900473ffffffffffffffffffffffffffffffffffffffff1673ffffffffffffffffffffffffffffffffffffffff1663e0c5057785846040518363ffffffff1660e01b8152600401611fad9291906143e0565b600060405180830381600087803b158015611fc757600080fd5b505af1158015611fdb573d6000803e3d6000fd5b505050505b5b50505050565b600060066000848152602001908152602001600020604051806101000160405290816000820160009054906101000a900473ffffffffffffffffffffffffffffffffffffffff1673ffffffffffffffffffffffffffffffffffffffff1673ffffffffffffffffffffffffffffffffffffffff1681526020016000820160149054906101000a900467ffffffffffffffff1667ffffffffffffffff1667ffffffffffffffff1681526020016001820160009054906101000a900467ffffffffffffffff1667ffffffffffffffff1667ffffffffffffffff1681526020016001820160089054906101000a900467ffffffffffffffff1667ffffffffffffffff1667ffffffffffffffff1681526020016001820160109054906101000a900467ffffffffffffffff1667ffffffffffffffff1667ffffffffffffffff16815260200160028201548152602001600382015481526020016004820160009054906101000a900460ff16600281111561215f5761215e613cc6565b5b600281111561217157612170613cc6565b5b81525050905060008160a00151036121b5576040517f9b4bb81b00000000000000000000000000000000000000000000000000000000815260040160405180910390fd5b600080600190506000805b846040015167ffffffffffffffff1683116123b057600080600360008a8152602001908152602001600020600086815260200190815260200160002054600360008b8152602001908152602001600020600060018861221f919061433a565b8152602001908152602001600020549150915062278d0082612241919061433a565b4210801561224d575087155b1561225957505061239f565b62278d0082612268919061433a565b421080156122735750875b6122af57600460008a8152602001908152602001600020600083815260200190815260200160002054846122a7919061433a565b9350836122ef565b6002600460008b81526020019081526020016000206000848152602001908152602001600020546122e091906142c7565b846122eb919061433a565b9350835b50878061230a57506001876040015167ffffffffffffffff16145b61233b5780600360008b81526020019081526020016000206000878152602001908152602001600020819055612365565b6000600360008b815260200190815260200160002060008781526020019081526020016000208190555b506000600460008b81526020019081526020016000206000848152602001908152602001600020819055508261239a906143b0565b925050505b826123a990613f45565b92506121c0565b806006600089815260200190815260200160002060010160008282829054906101000a900467ffffffffffffffff166123e99190614409565b92506101000a81548167ffffffffffffffff021916908367ffffffffffffffff160217905550816006600089815260200190815260200160002060020160008282546124359190613f11565b92505081905550818560a0015161244c9190613f11565b93506000841415801561245c5750855b156124905761248f600060029054906101000a900473ffffffffffffffffffffffffffffffffffffffff16600186613144565b5b600082146124c6576124c5600060029054906101000a900473ffffffffffffffffffffffffffffffffffffffff163386613144565b5b81873373ffffffffffffffffffffffffffffffffffffffff167fa720e44767e2cddb37cfa697023b1f3875d107b58722b1cb628083a465290af860405160405180910390a450505050505050565b600060066000848152602001908152602001600020604051806101000160405290816000820160009054906101000a900473ffffffffffffffffffffffffffffffffffffffff1673ffffffffffffffffffffffffffffffffffffffff1673ffffffffffffffffffffffffffffffffffffffff1681526020016000820160149054906101000a900467ffffffffffffffff1667ffffffffffffffff1667ffffffffffffffff1681526020016001820160009054906101000a900467ffffffffffffffff1667ffffffffffffffff1667ffffffffffffffff1681526020016001820160089054906101000a900467ffffffffffffffff1667ffffffffffffffff1667ffffffffffffffff1681526020016001820160109054906101000a900467ffffffffffffffff1667ffffffffffffffff1667ffffffffffffffff16815260200160028201548152602001600382015481526020016004820160009054906101000a900460ff16600281111561268c5761268b613cc6565b5b600281111561269e5761269d613cc6565b5b8152505090503373ffffffffffffffffffffffffffffffffffffffff16816000015173ffffffffffffffffffffffffffffffffffffffff161461270d576040517f091fe61c00000000000000000000000000000000000000000000000000000000815260040160405180910390fd5b6000612718846106dd565b905060008103612754576040517f9b4bb81b00000000000000000000000000000000000000000000000000000000815260040160405180910390fd5b426006600086815260200190815260200160002060010160106101000a81548167ffffffffffffffff021916908367ffffffffffffffff1602179055508261282a57600060029054906101000a900473ffffffffffffffffffffffffffffffffffffffff1673ffffffffffffffffffffffffffffffffffffffff166340c10f1933836040518363ffffffff1660e01b81526004016127f3929190614445565b600060405180830381600087803b15801561280d57600080fd5b505af1158015612821573d6000803e3d6000fd5b50505050612835565b612834848261318d565b5b821515843373ffffffffffffffffffffffffffffffffffffffff167f10fffc2725e2f04d2e9a7aa7762d3db31dd4051420267e5be076a5b13e8bb07760405160405180910390a450505050565b600060066000838152602001908152602001600020604051806101000160405290816000820160009054906101000a900473ffffffffffffffffffffffffffffffffffffffff1673ffffffffffffffffffffffffffffffffffffffff1673ffffffffffffffffffffffffffffffffffffffff1681526020016000820160149054906101000a900467ffffffffffffffff1667ffffffffffffffff1667ffffffffffffffff1681526020016001820160009054906101000a900467ffffffffffffffff1667ffffffffffffffff1667ffffffffffffffff1681526020016001820160089054906101000a900467ffffffffffffffff1667ffffffffffffffff1667ffffffffffffffff1681526020016001820160109054906101000a900467ffffffffffffffff1667ffffffffffffffff1667ffffffffffffffff16815260200160028201548152602001600382015481526020016004820160009054906101000a900460ff1660028111156129fa576129f9613cc6565b5b6002811115612a0c57612a0b613cc6565b5b8152505090503373ffffffffffffffffffffffffffffffffffffffff16816000015173ffffffffffffffffffffffffffffffffffffffff1614612a7b576040517f091fe61c00000000000000000000000000000000000000000000000000000000815260040160405180910390fd5b80602001518160600151612a8f9190613ed5565b67ffffffffffffffff16421015612ad2576040517ff5dcc1e300000000000000000000000000000000000000000000000000000000815260040160405180910390fd5b6000612add836106dd565b1115612aef57612aee826000612514565b5b60008160a001511115612b0857612b07826001611fe7565b5b612b50600560003373ffffffffffffffffffffffffffffffffffffffff1673ffffffffffffffffffffffffffffffffffffffff1681526020019081526020016000208361337e565b60066000838152602001908152602001600020600080820160006101000a81549073ffffffffffffffffffffffffffffffffffffffff02191690556000820160146101000a81549067ffffffffffffffff02191690556001820160006101000a81549067ffffffffffffffff02191690556001820160086101000a81549067ffffffffffffffff02191690556001820160106101000a81549067ffffffffffffffff0219169055600282016000905560038201600090556004820160006101000a81549060ff02191690555050600260009054906101000a900473ffffffffffffffffffffffffffffffffffffffff1673ffffffffffffffffffffffffffffffffffffffff166323b872dd3033856040518463ffffffff1660e01b8152600401612c7c9392919061409b565b600060405180830381600087803b158015612c9657600080fd5b505af1158015612caa573d6000803e3d6000fd5b50505050813373ffffffffffffffffffffffffffffffffffffffff167f26727522aa20721ee01410aea547e7fc187973e8abf49394168d3c9cb4c90cf260405160405180910390a35050565b6000808273ffffffffffffffffffffffffffffffffffffffff16631b688d9f6040518163ffffffff1660e01b8152600401602060405180830381865afa158015612d44573d6000803e3d6000fd5b505050506040513d601f19601f82011682018060405250810190612d689190613fcc565b8414612efc576000620151808473ffffffffffffffffffffffffffffffffffffffff16631b688d9f6040518163ffffffff1660e01b8152600401602060405180830381865afa158015612dbf573d6000803e3d6000fd5b505050506040513d601f19601f82011682018060405250810190612de39190613fcc565b42612dee9190613f11565b612df891906142c7565b9050808473ffffffffffffffffffffffffffffffffffffffff1663d09f53c0876040518263ffffffff1660e01b8152600401612e3491906137bf565b602060405180830381865afa158015612e51573d6000803e3d6000fd5b505050506040513d601f19601f82011682018060405250810190612e759190613fcc565b8573ffffffffffffffffffffffffffffffffffffffff16637bd90cc26040518163ffffffff1660e01b8152600401602060405180830381865afa158015612ec0573d6000803e3d6000fd5b505050506040513d601f19601f82011682018060405250810190612ee49190613fcc565b612eee9190613f11565b612ef8919061433a565b9150505b600084036130fa576000808473ffffffffffffffffffffffffffffffffffffffff16631b688d9f6040518163ffffffff1660e01b8152600401602060405180830381865afa158015612f52573d6000803e3d6000fd5b505050506040513d601f19601f82011682018060405250810190612f769190613fcc565b03612f8257600061300e565b620151808473ffffffffffffffffffffffffffffffffffffffff16631b688d9f6040518163ffffffff1660e01b8152600401602060405180830381865afa158015612fd1573d6000803e3d6000fd5b505050506040513d601f19601f82011682018060405250810190612ff59190613fcc565b426130009190613f11565b61300a91906142c7565b9050805b508373ffffffffffffffffffffffffffffffffffffffff1663ae4b37e46040518163ffffffff1660e01b8152600401602060405180830381865afa15801561305a573d6000803e3d6000fd5b505050506040513d601f19601f8201168201806040525081019061307e9190614383565b156130f5578373ffffffffffffffffffffffffffffffffffffffff16637bd90cc26040518163ffffffff1660e01b8152600401602060405180830381865afa1580156130ce573d6000803e3d6000fd5b505050506040513d601f19601f820116820180604052508101906130f29190613fcc565b90505b809150505b600a8161310791906142f8565b91505092915050565b60006241eb00820361312157600a90505b6283d600820361313057603290505b62c5c100820361313f57606490505b919050565b81601a5280603a5269a9059cbb00000000000060005260206000604460166000875af13d156001600051141716613183576390b8ec186000526004601cfd5b6000603a52505050565b6000683635c9adc5dea00000826131a49190614028565b90508181036131df576040517f1d823d0700000000000000000000000000000000000000000000000000000000815260040160405180910390fd5b6000811461327757600060029054906101000a900473ffffffffffffffffffffffffffffffffffffffff1673ffffffffffffffffffffffffffffffffffffffff166340c10f1933836040518363ffffffff1660e01b8152600401613244929190614445565b600060405180830381600087803b15801561325e57600080fd5b505af1158015613272573d6000803e3d6000fd5b505050505b600081836132859190613f11565b90506132a4600660008681526020019081526020016000208583611b01565b600060029054906101000a900473ffffffffffffffffffffffffffffffffffffffff1673ffffffffffffffffffffffffffffffffffffffff166340c10f1930836040518363ffffffff1660e01b8152600401613301929190614445565b600060405180830381600087803b15801561331b57600080fd5b505af115801561332f573d6000803e3d6000fd5b5050505083813373ffffffffffffffffffffffffffffffffffffffff167f1004c640a4c8dbc3c9dd5ff33837d99e4882aaf2b20fb8e7c419fc83c8ca5bd060405160405180910390a450505050565b60005b828054905081101561343757818382815481106133a1576133a0613e77565b5b90600052602060002001540361342c5782600184805490506133c39190613f11565b815481106133d4576133d3613e77565b5b90600052602060002001548382815481106133f2576133f1613e77565b5b9060005260206000200181905550828054806134115761341061446e565b5b60019003818190600052602060002001600090559055613437565b806001019050613381565b505050565b6040518060a0016040528060006bffffffffffffffffffffffff16815260200160006bffffffffffffffffffffffff168152602001600067ffffffffffffffff16815260200160008152602001600081525090565b604051806101000160405280600073ffffffffffffffffffffffffffffffffffffffff168152602001600067ffffffffffffffff168152602001600067ffffffffffffffff168152602001600067ffffffffffffffff168152602001600067ffffffffffffffff1681526020016000815260200160008152602001600060028111156135205761351f613cc6565b5b81525090565b600080fd5b600080fd5b600073ffffffffffffffffffffffffffffffffffffffff82169050919050565b600061355b82613530565b9050919050565b61356b81613550565b811461357657600080fd5b50565b60008135905061358881613562565b92915050565b6000602082840312156135a4576135a3613526565b5b60006135b284828501613579565b91505092915050565b600081519050919050565b600082825260208201905092915050565b6000819050602082019050919050565b60006bffffffffffffffffffffffff82169050919050565b613608816135e7565b82525050565b600067ffffffffffffffff82169050919050565b61362b8161360e565b82525050565b6000819050919050565b61364481613631565b82525050565b60a08201600082015161366060008501826135ff565b50602082015161367360208501826135ff565b5060408201516136866040850182613622565b506060820151613699606085018261363b565b5060808201516136ac608085018261363b565b50505050565b60006136be838361364a565b60a08301905092915050565b6000602082019050919050565b60006136e2826135bb565b6136ec81856135c6565b93506136f7836135d7565b8060005b8381101561372857815161370f88826136b2565b975061371a836136ca565b9250506001810190506136fb565b5085935050505092915050565b6000602082019050818103600083015261374f81846136d7565b905092915050565b61376081613631565b811461376b57600080fd5b50565b60008135905061377d81613757565b92915050565b60006020828403121561379957613798613526565b5b60006137a78482850161376e565b91505092915050565b6137b981613631565b82525050565b60006020820190506137d460008301846137b0565b92915050565b600080fd5b600080fd5b600080fd5b60008083601f8401126137ff576137fe6137da565b5b8235905067ffffffffffffffff81111561381c5761381b6137df565b5b602083019150836020820283011115613838576138376137e4565b5b9250929050565b6000806000806040858703121561385957613858613526565b5b600085013567ffffffffffffffff8111156138775761387661352b565b5b613883878288016137e9565b9450945050602085013567ffffffffffffffff8111156138a6576138a561352b565b5b6138b2878288016137e9565b925092505092959194509250565b60008083601f8401126138d6576138d56137da565b5b8235905067ffffffffffffffff8111156138f3576138f26137df565b5b60208301915083602082028301111561390f5761390e6137e4565b5b9250929050565b6000806000806000806060878903121561393357613932613526565b5b600087013567ffffffffffffffff8111156139515761395061352b565b5b61395d89828a016137e9565b9650965050602087013567ffffffffffffffff8111156139805761397f61352b565b5b61398c89828a016137e9565b9450945050604087013567ffffffffffffffff8111156139af576139ae61352b565b5b6139bb89828a016138c0565b92509250509295509295509295565b600081519050919050565b600082825260208201905092915050565b6000819050602082019050919050565b6000613a02838361363b565b60208301905092915050565b6000602082019050919050565b6000613a26826139ca565b613a3081856139d5565b9350613a3b836139e6565b8060005b83811015613a6c578151613a5388826139f6565b9750613a5e83613a0e565b925050600181019050613a3f565b5085935050505092915050565b60006020820190508181036000830152613a938184613a1b565b905092915050565b6000819050919050565b6000613ac0613abb613ab684613530565b613a9b565b613530565b9050919050565b6000613ad282613aa5565b9050919050565b6000613ae482613ac7565b9050919050565b613af481613ad9565b82525050565b6000602082019050613b0f6000830184613aeb565b92915050565b6000613b2082613ac7565b9050919050565b613b3081613b15565b82525050565b6000602082019050613b4b6000830184613b27565b92915050565b600080600060608486031215613b6a57613b69613526565b5b6000613b7886828701613579565b9350506020613b8986828701613579565b9250506040613b9a86828701613579565b9150509250925092565b60008083601f840112613bba57613bb96137da565b5b8235905067ffffffffffffffff811115613bd757613bd66137df565b5b602083019150836020820283011115613bf357613bf26137e4565b5b9250929050565b60008060008060408587031215613c1457613c13613526565b5b600085013567ffffffffffffffff811115613c3257613c3161352b565b5b613c3e878288016137e9565b9450945050602085013567ffffffffffffffff811115613c6157613c6061352b565b5b613c6d87828801613ba4565b925092505092959194509250565b6000613c8682613ac7565b9050919050565b613c9681613c7b565b82525050565b6000602082019050613cb16000830184613c8d565b92915050565b613cc081613550565b82525050565b7f4e487b7100000000000000000000000000000000000000000000000000000000600052602160045260246000fd5b60038110613d0657613d05613cc6565b5b50565b6000819050613d1782613cf5565b919050565b6000613d2782613d09565b9050919050565b613d3781613d1c565b82525050565b61010082016000820151613d546000850182613cb7565b506020820151613d676020850182613622565b506040820151613d7a6040850182613622565b506060820151613d8d6060850182613622565b506080820151613da06080850182613622565b5060a0820151613db360a085018261363b565b5060c0820151613dc660c085018261363b565b5060e0820151613dd960e0850182613d2e565b50505050565b600061010082019050613df56000830184613d3d565b92915050565b60008060208385031215613e1257613e11613526565b5b600083013567ffffffffffffffff811115613e3057613e2f61352b565b5b613e3c858286016137e9565b92509250509250929050565b7f4e487b7100000000000000000000000000000000000000000000000000000000600052604160045260246000fd5b7f4e487b7100000000000000000000000000000000000000000000000000000000600052603260045260246000fd5b7f4e487b7100000000000000000000000000000000000000000000000000000000600052601160045260246000fd5b6000613ee08261360e565b9150613eeb8361360e565b9250828201905067ffffffffffffffff811115613f0b57613f0a613ea6565b5b92915050565b6000613f1c82613631565b9150613f2783613631565b9250828203905081811115613f3f57613f3e613ea6565b5b92915050565b6000613f5082613631565b91507fffffffffffffffffffffffffffffffffffffffffffffffffffffffffffffffff8203613f8257613f81613ea6565b5b600182019050919050565b613f9681613550565b82525050565b6000602082019050613fb16000830184613f8d565b92915050565b600081519050613fc681613757565b92915050565b600060208284031215613fe257613fe1613526565b5b6000613ff084828501613fb7565b91505092915050565b7f4e487b7100000000000000000000000000000000000000000000000000000000600052601260045260246000fd5b600061403382613631565b915061403e83613631565b92508261404e5761404d613ff9565b5b828206905092915050565b60008151905061406881613562565b92915050565b60006020828403121561408457614083613526565b5b600061409284828501614059565b91505092915050565b60006060820190506140b06000830186613f8d565b6140bd6020830185613f8d565b6140ca60408301846137b0565b949350505050565b600381106140df57600080fd5b50565b6000813590506140f1816140d2565b92915050565b60006020828403121561410d5761410c613526565b5b600061411b848285016140e2565b91505092915050565b61412d81613d1c565b82525050565b600060408201905061414860008301856137b0565b6141556020830184614124565b9392505050565b600082825260208201905092915050565b7f496e697469616c697a61626c653a20636f6e747261637420697320616c72656160008201527f647920696e697469616c697a6564000000000000000000000000000000000000602082015250565b60006141c9602e8361415c565b91506141d48261416d565b604082019050919050565b600060208201905081810360008301526141f8816141bc565b9050919050565b6000819050919050565b600060ff82169050919050565b600061423161422c614227846141ff565b613a9b565b614209565b9050919050565b61424181614216565b82525050565b600060208201905061425c6000830184614238565b92915050565b60008115159050919050565b61427781614262565b811461428257600080fd5b50565b6000813590506142948161426e565b92915050565b6000602082840312156142b0576142af613526565b5b60006142be84828501614285565b91505092915050565b60006142d282613631565b91506142dd83613631565b9250826142ed576142ec613ff9565b5b828204905092915050565b600061430382613631565b915061430e83613631565b925082820261431c81613631565b9150828204841483151761433357614332613ea6565b5b5092915050565b600061434582613631565b915061435083613631565b925082820190508082111561436857614367613ea6565b5b92915050565b60008151905061437d8161426e565b92915050565b60006020828403121561439957614398613526565b5b60006143a78482850161436e565b91505092915050565b60006143bb8261360e565b915067ffffffffffffffff82036143d5576143d4613ea6565b5b600182019050919050565b60006040820190506143f560008301856137b0565b61440260208301846137b0565b9392505050565b60006144148261360e565b915061441f8361360e565b9250828203905067ffffffffffffffff81111561443f5761443e613ea6565b5b92915050565b600060408201905061445a6000830185613f8d565b61446760208301846137b0565b9392505050565b7f4e487b7100000000000000000000000000000000000000000000000000000000600052603160045260246000fdfea2646970667358221220c5ddd1d069174cd5191e770c0b3df2b3d75a29a86df725d5d161a7465de5f5c364736f6c63430008110033",
  "devdoc": {
    "kind": "dev",
    "methods": {
      "claimDevelopmentGroundBonesReward(uint256[],bool[])": {
        "params": {
          "_stake": "Whether to stake the reward bones in the development ground",
          "_tokenId": "ID of the development ground"
        }
      },
      "enterDevelopmentGround(uint256[],uint256[],uint8[])": {
        "details": "Enters the DevelopmentGround by transferring the tokens from the sender to the contract and setting the development ground data such as owner, entry time, lock period, etc.",
        "params": {
          "_ground": "Array of grounds for each corresponding token",
          "_lockTime": "Array of lock times for each corresponding token",
          "_tokenId": "Array of token IDs to be transferred"
        }
      },
      "getDevelopmentGroundBonesReward(uint256)": {
        "details": "Returns the reward for the bones staked in the development ground.",
        "params": {
          "_tokenId": "The token ID for the development ground."
        },
        "returns": {
          "_0": "The reward for the bones staked in the development ground."
        }
      },
      "getDevelopmentGroundInfo(uint256)": {
        "details": "This function returns a DevelopmentGround struct containing information about a Development Ground token, specified by its ID, _tokenId.",
        "params": {
          "_tokenId": "ID of the Development Ground token to retrieve information for"
        },
        "returns": {
          "_0": "The DevelopmentGround struct containing information about the specified Development Ground token."
        }
      },
      "getPrimarySkill(uint256)": {
        "params": {
          "_tokenId": "ID of the development ground"
        },
        "returns": {
          "_0": "The primary skill level"
        }
      },
      "leaveDevelopmentGround(uint256[])": {
        "details": "Allows the owner to leave the development ground. This will transfer the token back to the owner and remove any bones staked in the development ground.",
        "params": {
          "_tokenId": "The token ID of the development ground to leave."
        }
      },
      "removeBones(uint256[],bool[])": {
        "details": "Removes bones from a specific development ground.",
        "params": {
          "_all": "Indicates whether to remove all bones or just a portion of them",
          "_tokenId": "The unique identifier for the development ground"
        }
      },
      "stakeBonesInDevelopmentGround(uint256[],uint256[])": {
        "details": "Stakes the bones in the DevelopmentGround by transferring the bones from the sender to the contract and updating the development ground data.",
        "params": {
          "_amount": "Array of amounts of bones to be transferred",
          "_tokenId": "Array of token IDs for the corresponding amounts of bones"
        }
      }
    },
    "version": 1
  },
  "userdoc": {
    "kind": "user",
    "methods": {
      "claimDevelopmentGroundBonesReward(uint256[],bool[])": {
        "notice": "This function allows the owner of multiple development grounds to claim rewards earned by them."
      },
      "getDevelopmentGroundInfo(uint256)": {
        "notice": "Retrieve information about a Development Ground token."
      },
      "getPrimarySkill(uint256)": {
        "notice": "This function retrieves the primary skill of the `_tokenId` development ground."
      }
    },
    "version": 1
  },
  "storageLayout": {
    "storage": [
      {
        "astId": 6,
        "contract": "contracts/DevelopmentGrounds.sol:DevelopmentGrounds",
        "label": "_initialized",
        "offset": 0,
        "slot": "0",
        "type": "t_uint8"
      },
      {
        "astId": 9,
        "contract": "contracts/DevelopmentGrounds.sol:DevelopmentGrounds",
        "label": "_initializing",
        "offset": 1,
        "slot": "0",
        "type": "t_bool"
      },
      {
        "astId": 1210,
        "contract": "contracts/DevelopmentGrounds.sol:DevelopmentGrounds",
        "label": "bones",
        "offset": 2,
        "slot": "0",
        "type": "t_contract(IBones)2499"
      },
      {
        "astId": 1213,
        "contract": "contracts/DevelopmentGrounds.sol:DevelopmentGrounds",
        "label": "pits",
        "offset": 0,
        "slot": "1",
        "type": "t_contract(IPits)2564"
      },
      {
        "astId": 1216,
        "contract": "contracts/DevelopmentGrounds.sol:DevelopmentGrounds",
        "label": "neandersmol",
        "offset": 0,
        "slot": "2",
        "type": "t_contract(INeandersmol)2534"
      },
      {
        "astId": 1252,
        "contract": "contracts/DevelopmentGrounds.sol:DevelopmentGrounds",
        "label": "trackTime",
        "offset": 0,
        "slot": "3",
        "type": "t_mapping(t_uint256,t_mapping(t_uint256,t_uint256))"
      },
      {
        "astId": 1258,
        "contract": "contracts/DevelopmentGrounds.sol:DevelopmentGrounds",
        "label": "trackToken",
        "offset": 0,
        "slot": "4",
        "type": "t_mapping(t_uint256,t_mapping(t_uint256,t_uint256))"
      },
      {
        "astId": 1263,
        "contract": "contracts/DevelopmentGrounds.sol:DevelopmentGrounds",
        "label": "ownerToTokens",
        "offset": 0,
        "slot": "5",
        "type": "t_mapping(t_address,t_array(t_uint256)dyn_storage)"
      },
      {
        "astId": 1268,
        "contract": "contracts/DevelopmentGrounds.sol:DevelopmentGrounds",
        "label": "developmentGround",
        "offset": 0,
        "slot": "6",
        "type": "t_mapping(t_uint256,t_struct(DevelopmentGround)2988_storage)"
      }
    ],
    "types": {
      "t_address": {
        "encoding": "inplace",
        "label": "address",
        "numberOfBytes": "20"
      },
      "t_array(t_uint256)dyn_storage": {
        "base": "t_uint256",
        "encoding": "dynamic_array",
        "label": "uint256[]",
        "numberOfBytes": "32"
      },
      "t_bool": {
        "encoding": "inplace",
        "label": "bool",
        "numberOfBytes": "1"
      },
      "t_contract(IBones)2499": {
        "encoding": "inplace",
        "label": "contract IBones",
        "numberOfBytes": "20"
      },
      "t_contract(INeandersmol)2534": {
        "encoding": "inplace",
        "label": "contract INeandersmol",
        "numberOfBytes": "20"
      },
      "t_contract(IPits)2564": {
        "encoding": "inplace",
        "label": "contract IPits",
        "numberOfBytes": "20"
      },
      "t_enum(Grounds)3035": {
        "encoding": "inplace",
        "label": "enum Grounds",
        "numberOfBytes": "1"
      },
      "t_mapping(t_address,t_array(t_uint256)dyn_storage)": {
        "encoding": "mapping",
        "key": "t_address",
        "label": "mapping(address => uint256[])",
        "numberOfBytes": "32",
        "value": "t_array(t_uint256)dyn_storage"
      },
      "t_mapping(t_uint256,t_mapping(t_uint256,t_uint256))": {
        "encoding": "mapping",
        "key": "t_uint256",
        "label": "mapping(uint256 => mapping(uint256 => uint256))",
        "numberOfBytes": "32",
        "value": "t_mapping(t_uint256,t_uint256)"
      },
      "t_mapping(t_uint256,t_struct(DevelopmentGround)2988_storage)": {
        "encoding": "mapping",
        "key": "t_uint256",
        "label": "mapping(uint256 => struct DevelopmentGround)",
        "numberOfBytes": "32",
        "value": "t_struct(DevelopmentGround)2988_storage"
      },
      "t_mapping(t_uint256,t_uint256)": {
        "encoding": "mapping",
        "key": "t_uint256",
        "label": "mapping(uint256 => uint256)",
        "numberOfBytes": "32",
        "value": "t_uint256"
      },
      "t_struct(DevelopmentGround)2988_storage": {
        "encoding": "inplace",
        "label": "struct DevelopmentGround",
        "members": [
          {
            "astId": 2972,
            "contract": "contracts/DevelopmentGrounds.sol:DevelopmentGrounds",
            "label": "owner",
            "offset": 0,
            "slot": "0",
            "type": "t_address"
          },
          {
            "astId": 2974,
            "contract": "contracts/DevelopmentGrounds.sol:DevelopmentGrounds",
            "label": "lockPeriod",
            "offset": 20,
            "slot": "0",
            "type": "t_uint64"
          },
          {
            "astId": 2976,
            "contract": "contracts/DevelopmentGrounds.sol:DevelopmentGrounds",
            "label": "amountPosition",
            "offset": 0,
            "slot": "1",
            "type": "t_uint64"
          },
          {
            "astId": 2978,
            "contract": "contracts/DevelopmentGrounds.sol:DevelopmentGrounds",
            "label": "entryTime",
            "offset": 8,
            "slot": "1",
            "type": "t_uint64"
          },
          {
            "astId": 2980,
            "contract": "contracts/DevelopmentGrounds.sol:DevelopmentGrounds",
            "label": "lastRewardTime",
            "offset": 16,
            "slot": "1",
            "type": "t_uint64"
          },
          {
            "astId": 2982,
            "contract": "contracts/DevelopmentGrounds.sol:DevelopmentGrounds",
            "label": "bonesStaked",
            "offset": 0,
            "slot": "2",
            "type": "t_uint256"
          },
          {
            "astId": 2984,
            "contract": "contracts/DevelopmentGrounds.sol:DevelopmentGrounds",
            "label": "currentPitsLockPeriod",
            "offset": 0,
            "slot": "3",
            "type": "t_uint256"
          },
          {
            "astId": 2987,
            "contract": "contracts/DevelopmentGrounds.sol:DevelopmentGrounds",
            "label": "ground",
            "offset": 0,
            "slot": "4",
            "type": "t_enum(Grounds)3035"
          }
        ],
        "numberOfBytes": "160"
      },
      "t_uint256": {
        "encoding": "inplace",
        "label": "uint256",
        "numberOfBytes": "32"
      },
      "t_uint64": {
        "encoding": "inplace",
        "label": "uint64",
        "numberOfBytes": "8"
      },
      "t_uint8": {
        "encoding": "inplace",
        "label": "uint8",
        "numberOfBytes": "1"
      }
    }
  }
}