{
  "address": "0xE396bD9b656f5000EE7e34866b94C71F45B4aBEa",
  "abi": [
    {
      "inputs": [],
      "name": "BalanceIsInsufficient",
      "type": "error"
    },
    {
      "inputs": [],
      "name": "CsIsBellowHundred",
      "type": "error"
    },
    {
      "inputs": [],
      "name": "DevelopmentGroundIsLocked",
      "type": "error"
    },
    {
      "inputs": [],
      "name": "InvalidLockTime",
      "type": "error"
    },
    {
      "inputs": [],
      "name": "InvalidPos",
      "type": "error"
    },
    {
      "inputs": [],
      "name": "LengthsNotEqual",
      "type": "error"
    },
    {
      "inputs": [],
      "name": "NeandersmolIsNotInDevelopmentGround",
      "type": "error"
    },
    {
      "inputs": [],
      "name": "NeandersmolsIsLocked",
      "type": "error"
    },
    {
      "inputs": [],
      "name": "NewOwnerIsZeroAddress",
      "type": "error"
    },
    {
      "inputs": [],
      "name": "NoHandoverRequest",
      "type": "error"
    },
    {
      "inputs": [],
      "name": "NotYourToken",
      "type": "error"
    },
    {
      "inputs": [],
      "name": "TokenIsStaked",
      "type": "error"
    },
    {
      "inputs": [],
      "name": "Unauthorized",
      "type": "error"
    },
    {
      "inputs": [],
      "name": "WrongMultiple",
      "type": "error"
    },
    {
      "inputs": [],
      "name": "ZeroBalanceError",
      "type": "error"
    },
    {
      "anonymous": false,
      "inputs": [
        {
          "indexed": true,
          "internalType": "address",
          "name": "owner",
          "type": "address"
        },
        {
          "indexed": true,
          "internalType": "uint256",
          "name": "tokenId",
          "type": "uint256"
        },
        {
          "indexed": true,
          "internalType": "bool",
          "name": "stake",
          "type": "bool"
        }
      ],
      "name": "ClaimDevelopmentGroundBonesReward",
      "type": "event"
    },
    {
      "anonymous": false,
      "inputs": [
        {
          "indexed": true,
          "internalType": "address",
          "name": "owner",
          "type": "address"
        },
        {
          "indexed": true,
          "internalType": "uint256",
          "name": "tokenId",
          "type": "uint256"
        },
        {
          "indexed": true,
          "internalType": "uint256",
          "name": "lockTime",
          "type": "uint256"
        },
        {
          "indexed": false,
          "internalType": "uint256",
          "name": "entryTime",
          "type": "uint256"
        },
        {
          "indexed": false,
          "internalType": "enum Grounds",
          "name": "ground",
          "type": "uint8"
        }
      ],
      "name": "EnterDevelopmentGround",
      "type": "event"
    },
    {
      "anonymous": false,
      "inputs": [
        {
          "indexed": false,
          "internalType": "uint8",
          "name": "version",
          "type": "uint8"
        }
      ],
      "name": "Initialized",
      "type": "event"
    },
    {
      "anonymous": false,
      "inputs": [
        {
          "indexed": true,
          "internalType": "address",
          "name": "owner",
          "type": "address"
        },
        {
          "indexed": true,
          "internalType": "uint256",
          "name": "tokenId",
          "type": "uint256"
        }
      ],
      "name": "LeaveDevelopmentGround",
      "type": "event"
    },
    {
      "anonymous": false,
      "inputs": [
        {
          "indexed": true,
          "internalType": "address",
          "name": "pendingOwner",
          "type": "address"
        }
      ],
      "name": "OwnershipHandoverCanceled",
      "type": "event"
    },
    {
      "anonymous": false,
      "inputs": [
        {
          "indexed": true,
          "internalType": "address",
          "name": "pendingOwner",
          "type": "address"
        }
      ],
      "name": "OwnershipHandoverRequested",
      "type": "event"
    },
    {
      "anonymous": false,
      "inputs": [
        {
          "indexed": true,
          "internalType": "address",
          "name": "oldOwner",
          "type": "address"
        },
        {
          "indexed": true,
          "internalType": "address",
          "name": "newOwner",
          "type": "address"
        }
      ],
      "name": "OwnershipTransferred",
      "type": "event"
    },
    {
      "anonymous": false,
      "inputs": [
        {
          "indexed": true,
          "internalType": "address",
          "name": "owner",
          "type": "address"
        },
        {
          "indexed": true,
          "internalType": "uint256",
          "name": "tokenId",
          "type": "uint256"
        },
        {
          "indexed": true,
          "internalType": "uint256",
          "name": "amount",
          "type": "uint256"
        }
      ],
      "name": "RemoveBones",
      "type": "event"
    },
    {
      "anonymous": false,
      "inputs": [
        {
          "indexed": true,
          "internalType": "address",
          "name": "owner",
          "type": "address"
        },
        {
          "indexed": true,
          "internalType": "uint256",
          "name": "amount",
          "type": "uint256"
        },
        {
          "indexed": true,
          "internalType": "uint256",
          "name": "tokenId",
          "type": "uint256"
        }
      ],
      "name": "StakeBonesInDevelopmentGround",
      "type": "event"
    },
    {
      "inputs": [],
      "name": "bones",
      "outputs": [
        {
          "internalType": "contract IBones",
          "name": "",
          "type": "address"
        }
      ],
      "stateMutability": "view",
      "type": "function"
    },
    {
      "inputs": [
        {
          "internalType": "uint256",
          "name": "_tokenId",
          "type": "uint256"
        }
      ],
      "name": "bonesToTime",
      "outputs": [
        {
          "components": [
            {
              "internalType": "uint256",
              "name": "balance",
              "type": "uint256"
            },
            {
              "internalType": "uint256",
              "name": "timeStaked",
              "type": "uint256"
            }
          ],
          "internalType": "struct BonesFeInfo[]",
          "name": "",
          "type": "tuple[]"
        }
      ],
      "stateMutability": "view",
      "type": "function"
    },
    {
      "inputs": [
        {
          "internalType": "address",
          "name": "_owner",
          "type": "address"
        }
      ],
      "name": "calculateBones",
      "outputs": [
        {
          "internalType": "uint256",
          "name": "",
          "type": "uint256"
        },
        {
          "internalType": "uint256",
          "name": "",
          "type": "uint256"
        }
      ],
      "stateMutability": "view",
      "type": "function"
    },
    {
      "inputs": [],
      "name": "cancelOwnershipHandover",
      "outputs": [],
      "stateMutability": "payable",
      "type": "function"
    },
    {
      "inputs": [
        {
          "internalType": "uint256[]",
          "name": "_tokenId",
          "type": "uint256[]"
        },
        {
          "internalType": "bool[]",
          "name": "_stake",
          "type": "bool[]"
        }
      ],
      "name": "claimDevelopmentGroundBonesReward",
      "outputs": [],
      "stateMutability": "nonpayable",
      "type": "function"
    },
    {
      "inputs": [
        {
          "internalType": "address",
          "name": "pendingOwner",
          "type": "address"
        }
      ],
      "name": "completeOwnershipHandover",
      "outputs": [],
      "stateMutability": "payable",
      "type": "function"
    },
    {
      "inputs": [
        {
          "internalType": "uint256[]",
          "name": "_tokenId",
          "type": "uint256[]"
        },
        {
          "internalType": "uint256[]",
          "name": "_lockTime",
          "type": "uint256[]"
        },
        {
          "internalType": "enum Grounds[]",
          "name": "_ground",
          "type": "uint8[]"
        }
      ],
      "name": "enterDevelopmentGround",
      "outputs": [],
      "stateMutability": "nonpayable",
      "type": "function"
    },
    {
      "inputs": [
        {
          "internalType": "address",
          "name": "_owner",
          "type": "address"
        }
      ],
      "name": "getDevGroundFeInfo",
      "outputs": [
        {
          "components": [
            {
              "internalType": "uint96",
              "name": "timeLeft",
              "type": "uint96"
            },
            {
              "internalType": "uint96",
              "name": "daysStaked",
              "type": "uint96"
            },
            {
              "internalType": "uint64",
              "name": "stakedSmols",
              "type": "uint64"
            },
            {
              "internalType": "uint256",
              "name": "skillLevel",
              "type": "uint256"
            },
            {
              "internalType": "uint256",
              "name": "bonesAccured",
              "type": "uint256"
            },
            {
              "internalType": "uint256",
              "name": "totalBonesStaked",
              "type": "uint256"
            },
            {
              "internalType": "enum Grounds",
              "name": "ground",
              "type": "uint8"
            }
          ],
          "internalType": "struct DevGroundFeInfo[]",
          "name": "",
          "type": "tuple[]"
        }
      ],
      "stateMutability": "view",
      "type": "function"
    },
    {
      "inputs": [
        {
          "internalType": "uint256",
          "name": "_tokenId",
          "type": "uint256"
        }
      ],
      "name": "getDevelopmentGroundBonesReward",
      "outputs": [
        {
          "internalType": "uint256",
          "name": "",
          "type": "uint256"
        }
      ],
      "stateMutability": "view",
      "type": "function"
    },
    {
      "inputs": [
        {
          "internalType": "uint256",
          "name": "_tokenId",
          "type": "uint256"
        }
      ],
      "name": "getDevelopmentGroundInfo",
      "outputs": [
        {
          "components": [
            {
              "internalType": "address",
              "name": "owner",
              "type": "address"
            },
            {
              "internalType": "uint64",
              "name": "lockPeriod",
              "type": "uint64"
            },
            {
              "internalType": "uint64",
              "name": "amountPosition",
              "type": "uint64"
            },
            {
              "internalType": "uint64",
              "name": "entryTime",
              "type": "uint64"
            },
            {
              "internalType": "uint64",
              "name": "lastRewardTime",
              "type": "uint64"
            },
            {
              "internalType": "uint256",
              "name": "bonesStaked",
              "type": "uint256"
            },
            {
              "internalType": "uint256",
              "name": "currentPitsLockPeriod",
              "type": "uint256"
            },
            {
              "internalType": "enum Grounds",
              "name": "ground",
              "type": "uint8"
            }
          ],
          "internalType": "struct DevelopmentGround",
          "name": "",
          "type": "tuple"
        }
      ],
      "stateMutability": "view",
      "type": "function"
    },
    {
      "inputs": [
        {
          "internalType": "uint256",
          "name": "_tokenId",
          "type": "uint256"
        }
      ],
      "name": "getPrimarySkill",
      "outputs": [
        {
          "internalType": "uint256",
          "name": "",
          "type": "uint256"
        }
      ],
      "stateMutability": "view",
      "type": "function"
    },
    {
      "inputs": [
        {
          "internalType": "address",
          "name": "_owner",
          "type": "address"
        }
      ],
      "name": "getStakedTokens",
      "outputs": [
        {
          "internalType": "uint256[]",
          "name": "",
          "type": "uint256[]"
        }
      ],
      "stateMutability": "view",
      "type": "function"
    },
    {
      "inputs": [
        {
          "internalType": "address",
          "name": "_pits",
          "type": "address"
        },
        {
          "internalType": "address",
          "name": "_neandersmol",
          "type": "address"
        },
        {
          "internalType": "address",
          "name": "_bones",
          "type": "address"
        }
      ],
      "name": "initialize",
      "outputs": [],
      "stateMutability": "nonpayable",
      "type": "function"
    },
    {
      "inputs": [
        {
          "internalType": "uint256[]",
          "name": "_tokenId",
          "type": "uint256[]"
        }
      ],
      "name": "leaveDevelopmentGround",
      "outputs": [],
      "stateMutability": "nonpayable",
      "type": "function"
    },
    {
      "inputs": [],
      "name": "neandersmol",
      "outputs": [
        {
          "internalType": "contract INeandersmol",
          "name": "",
          "type": "address"
        }
      ],
      "stateMutability": "view",
      "type": "function"
    },
    {
      "inputs": [],
      "name": "owner",
      "outputs": [
        {
          "internalType": "address",
          "name": "result",
          "type": "address"
        }
      ],
      "stateMutability": "view",
      "type": "function"
    },
    {
      "inputs": [
        {
          "internalType": "address",
          "name": "pendingOwner",
          "type": "address"
        }
      ],
      "name": "ownershipHandoverExpiresAt",
      "outputs": [
        {
          "internalType": "uint256",
          "name": "result",
          "type": "uint256"
        }
      ],
      "stateMutability": "view",
      "type": "function"
    },
    {
      "inputs": [],
      "name": "ownershipHandoverValidFor",
      "outputs": [
        {
          "internalType": "uint64",
          "name": "",
          "type": "uint64"
        }
      ],
      "stateMutability": "view",
      "type": "function"
    },
    {
      "inputs": [],
      "name": "pits",
      "outputs": [
        {
          "internalType": "contract IPits",
          "name": "",
          "type": "address"
        }
      ],
      "stateMutability": "view",
      "type": "function"
    },
    {
      "inputs": [
        {
          "internalType": "uint256[]",
          "name": "_tokenId",
          "type": "uint256[]"
        },
        {
          "internalType": "bool[]",
          "name": "_all",
          "type": "bool[]"
        }
      ],
      "name": "removeBones",
      "outputs": [],
      "stateMutability": "nonpayable",
      "type": "function"
    },
    {
      "inputs": [
        {
          "internalType": "uint256",
          "name": "_tokenId",
          "type": "uint256"
        },
        {
          "internalType": "uint256",
          "name": "_pos",
          "type": "uint256"
        }
      ],
      "name": "removeSingleBones",
      "outputs": [],
      "stateMutability": "nonpayable",
      "type": "function"
    },
    {
      "inputs": [],
      "name": "renounceOwnership",
      "outputs": [],
      "stateMutability": "payable",
      "type": "function"
    },
    {
      "inputs": [],
      "name": "requestOwnershipHandover",
      "outputs": [],
      "stateMutability": "payable",
      "type": "function"
    },
    {
      "inputs": [
        {
          "internalType": "address",
          "name": "_pits",
          "type": "address"
        },
        {
          "internalType": "address",
          "name": "_neandersmol",
          "type": "address"
        },
        {
          "internalType": "address",
          "name": "_bones",
          "type": "address"
        }
      ],
      "name": "setAddress",
      "outputs": [],
      "stateMutability": "nonpayable",
      "type": "function"
    },
    {
      "inputs": [
        {
          "internalType": "uint256[]",
          "name": "_amount",
          "type": "uint256[]"
        },
        {
          "internalType": "uint256[]",
          "name": "_tokenId",
          "type": "uint256[]"
        }
      ],
      "name": "stakeBonesInDevelopmentGround",
      "outputs": [],
      "stateMutability": "nonpayable",
      "type": "function"
    },
    {
      "inputs": [
        {
          "internalType": "address",
          "name": "newOwner",
          "type": "address"
        }
      ],
      "name": "transferOwnership",
      "outputs": [],
      "stateMutability": "payable",
      "type": "function"
    }
  ],
  "transactionHash": "0x6c4fd967f2ff8881d2deac3af97161f3b69097b28d89375479f47d07e430220a",
  "args": [],
  "numDeployments": 9,
  "solcInputHash": "b587010c4a7f35a23dcfc19702356c9f",
  "bytecode": "0x608060405234801561001057600080fd5b506157cd80620000216000396000f3fe6080604052600436106101815760003560e01c8063b00bec65116100d1578063d88ad8871161008a578063ec42cb7711610064578063ec42cb7714610546578063f04e283e1461056f578063f2fde38b1461058b578063fee81cf4146105a757610181565b8063d88ad887146104b5578063dd4fcc16146104e0578063ea32dac51461051d57610181565b8063b00bec65146103a7578063c0c53b8b146103d2578063c805c9af146103fb578063cb2fe05e14610424578063cf10078f1461044d578063d7533f021461048a57610181565b8063547ac0711161013e57806363c28db11161011857806363c28db11461030a578063715018a6146103475780637fd4bfd5146103515780638da5cb5b1461037c57610181565b8063547ac071146102ae57806354d1f13d146102d75780635970f453146102e157610181565b8063074f7eb3146101865780630a144076146101c357806325692962146102015780632a1f41461461020b5780633be08dab146102485780633e39953a14610271575b600080fd5b34801561019257600080fd5b506101ad60048036038101906101a89190614602565b6105e4565b6040516101ba9190614846565b60405180910390f35b3480156101cf57600080fd5b506101ea60048036038101906101e59190614602565b610832565b6040516101f8929190614877565b60405180910390f35b61020961093e565b005b34801561021757600080fd5b50610232600480360381019061022d91906148cc565b610992565b60405161023f91906148f9565b60405180910390f35b34801561025457600080fd5b5061026f600480360381019061026a9190614914565b610b74565b005b34801561027d57600080fd5b50610298600480360381019061029391906148cc565b610c44565b6040516102a591906148f9565b60405180910390f35b3480156102ba57600080fd5b506102d560048036038101906102d091906149cc565b610e2b565b005b6102df611107565b005b3480156102ed57600080fd5b5061030860048036038101906103039190614aa3565b611143565b005b34801561031657600080fd5b50610331600480360381019061032c9190614602565b61183d565b60405161033e9190614c06565b60405180910390f35b61034f6118d4565b005b34801561035d57600080fd5b506103666118e8565b6040516103739190614c87565b60405180910390f35b34801561038857600080fd5b5061039161190e565b60405161039e9190614cb1565b60405180910390f35b3480156103b357600080fd5b506103bc61191c565b6040516103c99190614ced565b60405180910390f35b3480156103de57600080fd5b506103f960048036038101906103f49190614914565b611942565b005b34801561040757600080fd5b50610422600480360381019061041d9190614d08565b611a8f565b005b34801561043057600080fd5b5061044b60048036038101906104469190614d9e565b61206b565b005b34801561045957600080fd5b50610474600480360381019061046f91906148cc565b612167565b6040516104819190614efd565b60405180910390f35b34801561049657600080fd5b5061049f612427565b6040516104ac9190614f2e565b60405180910390f35b3480156104c157600080fd5b506104ca612432565b6040516104d79190614f6a565b60405180910390f35b3480156104ec57600080fd5b50610507600480360381019061050291906148cc565b612458565b6040516105149190615036565b60405180910390f35b34801561052957600080fd5b50610544600480360381019061053f9190614d9e565b6125f3565b005b34801561055257600080fd5b5061056d60048036038101906105689190615052565b6126a2565b005b61058960048036038101906105849190614602565b6126e8565b005b6105a560048036038101906105a09190614602565b612729565b005b3480156105b357600080fd5b506105ce60048036038101906105c99190614602565b612753565b6040516105db91906148f9565b60405180910390f35b60606000600560008473ffffffffffffffffffffffffffffffffffffffff1673ffffffffffffffffffffffffffffffffffffffff16815260200190815260200160002080548060200260200160405190810160405280929190818152602001828054801561067157602002820191906000526020600020905b81548152602001906001019080831161065d575b505050505090506000815167ffffffffffffffff8111156106955761069461509f565b5b6040519080825280602002602001820160405280156106ce57816020015b6106bb614476565b8152602001906001900390816106b35790505b50905060005b81518110156108275760008382815181106106f2576106f16150ce565b5b60200260200101519050600061070782612458565b905060008160600151826020015161071f919061512c565b67ffffffffffffffff169050600081421061073b576000610756565b62015180428361074b9190615168565b61075591906151cb565b5b90506040518060e00160405280826bffffffffffffffffffffffff168152602001846060015167ffffffffffffffff16426107919190615168565b6bffffffffffffffffffffffff1681526020018567ffffffffffffffff1681526020016107bd86610992565b81526020016107cb86610c44565b81526020018460a0015181526020018460e0015160028111156107f1576107f06146be565b5b815250868681518110610807576108066150ce565b5b60200260200101819052505050505080610820906151fc565b90506106d4565b819350505050919050565b6000806000600560008573ffffffffffffffffffffffffffffffffffffffff1673ffffffffffffffffffffffffffffffffffffffff1681526020019081526020016000208054806020026020016040519081016040528092919081815260200182805480156108c057602002820191906000526020600020905b8154815260200190600101908083116108ac575b5050505050905060008060005b835181101561092f576000806108fc8684815181106108ef576108ee6150ce565b5b602002602001015161276e565b91509150818561090c9190615244565b9450808461091a9190615244565b9350505080610928906151fc565b90506108cd565b50818194509450505050915091565b6000610948612427565b67ffffffffffffffff164201905063389a75e1600c5233600052806020600c2055337fdbf36a107da19e49527a7176a1babf963b4b0ff8cde35ee35d6cd8f1f9ac7e1d600080a250565b60008060066000848152602001908152602001600020604051806101000160405290816000820160009054906101000a900473ffffffffffffffffffffffffffffffffffffffff1673ffffffffffffffffffffffffffffffffffffffff1673ffffffffffffffffffffffffffffffffffffffff1681526020016000820160149054906101000a900467ffffffffffffffff1667ffffffffffffffff1667ffffffffffffffff1681526020016001820160009054906101000a900467ffffffffffffffff1667ffffffffffffffff1667ffffffffffffffff1681526020016001820160089054906101000a900467ffffffffffffffff1667ffffffffffffffff1667ffffffffffffffff1681526020016001820160109054906101000a900467ffffffffffffffff1667ffffffffffffffff1667ffffffffffffffff16815260200160028201548152602001600382015481526020016004820160009054906101000a900460ff166002811115610b0b57610b0a6146be565b5b6002811115610b1d57610b1c6146be565b5b815250509050610b6c8160a00151826040015167ffffffffffffffff168360c0015186600160009054906101000a900473ffffffffffffffffffffffffffffffffffffffff1660036004612a06565b915050919050565b610b7c612b25565b80600060026101000a81548173ffffffffffffffffffffffffffffffffffffffff021916908373ffffffffffffffffffffffffffffffffffffffff16021790555082600160006101000a81548173ffffffffffffffffffffffffffffffffffffffff021916908373ffffffffffffffffffffffffffffffffffffffff16021790555081600260006101000a81548173ffffffffffffffffffffffffffffffffffffffff021916908373ffffffffffffffffffffffffffffffffffffffff160217905550505050565b60008060066000848152602001908152602001600020604051806101000160405290816000820160009054906101000a900473ffffffffffffffffffffffffffffffffffffffff1673ffffffffffffffffffffffffffffffffffffffff1673ffffffffffffffffffffffffffffffffffffffff1681526020016000820160149054906101000a900467ffffffffffffffff1667ffffffffffffffff1667ffffffffffffffff1681526020016001820160009054906101000a900467ffffffffffffffff1667ffffffffffffffff1667ffffffffffffffff1681526020016001820160089054906101000a900467ffffffffffffffff1667ffffffffffffffff1667ffffffffffffffff1681526020016001820160109054906101000a900467ffffffffffffffff1667ffffffffffffffff1667ffffffffffffffff16815260200160028201548152602001600382015481526020016004820160009054906101000a900460ff166002811115610dbd57610dbc6146be565b5b6002811115610dcf57610dce6146be565b5b815250509050610e238160c00151826020015167ffffffffffffffff16836080015167ffffffffffffffff16600160009054906101000a900473ffffffffffffffffffffffffffffffffffffffff16612b42565b915050919050565b610e56600160009054906101000a900473ffffffffffffffffffffffffffffffffffffffff16612be3565b610e6284848484612c8b565b60005b8484905081101561110057600080848484818110610e8657610e856150ce565b5b90506020020135878785818110610ea057610e9f6150ce565b5b9050602002013591509150600060066000848152602001908152602001600020905081600060029054906101000a900473ffffffffffffffffffffffffffffffffffffffff1673ffffffffffffffffffffffffffffffffffffffff166370a08231336040518263ffffffff1660e01b8152600401610f1e9190614cb1565b602060405180830381865afa158015610f3b573d6000803e3d6000fd5b505050506040513d601f19601f82011682018060405250810190610f5f919061528d565b1015610f97576040517f7276110900000000000000000000000000000000000000000000000000000000815260040160405180910390fd5b3373ffffffffffffffffffffffffffffffffffffffff168160000160009054906101000a900473ffffffffffffffffffffffffffffffffffffffff1673ffffffffffffffffffffffffffffffffffffffff1614611020576040517fb47f2b3300000000000000000000000000000000000000000000000000000000815260040160405180910390fd5b6000683635c9adc5dea000008361103791906152ba565b1461106e576040517f1d823d0700000000000000000000000000000000000000000000000000000000815260040160405180910390fd5b61109c600060029054906101000a900473ffffffffffffffffffffffffffffffffffffffff16333085612cd0565b6110a7818484612d20565b82823373ffffffffffffffffffffffffffffffffffffffff167f1004c640a4c8dbc3c9dd5ff33837d99e4882aaf2b20fb8e7c419fc83c8ca5bd060405160405180910390a4505050806110f9906151fc565b9050610e65565b5050505050565b63389a75e1600c523360005260006020600c2055337ffa7b8eab7da67f412cc9575ed43464468f9bfbae89d1675917346ca6d8fe3c92600080a2565b600061115187878787612c8b565b828290508585905014611190576040517f22cb666100000000000000000000000000000000000000000000000000000000815260040160405180910390fd5b6111bb600160009054906101000a900473ffffffffffffffffffffffffffffffffffffffff16612be3565b5b86869050811015611834576000808888848181106111dd576111dc6150ce565b5b905060200201358787858181106111f7576111f66150ce565b5b9050602002013591509150600260009054906101000a900473ffffffffffffffffffffffffffffffffffffffff1673ffffffffffffffffffffffffffffffffffffffff16635e1bef32836040518263ffffffff1660e01b815260040161125d91906148f9565b602060405180830381865afa15801561127a573d6000803e3d6000fd5b505050506040513d601f19601f8201168201806040525081019061129e9190615323565b156112d5576040517f3899ae3600000000000000000000000000000000000000000000000000000000815260040160405180910390fd5b60006006600084815260200190815260200160002090506064600260009054906101000a900473ffffffffffffffffffffffffffffffffffffffff1673ffffffffffffffffffffffffffffffffffffffff1663f822a5b2856040518263ffffffff1660e01b815260040161134991906148f9565b602060405180830381865afa158015611366573d6000803e3d6000fd5b505050506040513d601f19601f8201168201806040525081019061138a919061528d565b10156113c2576040517f7f36105d00000000000000000000000000000000000000000000000000000000815260040160405180910390fd5b3373ffffffffffffffffffffffffffffffffffffffff16600260009054906101000a900473ffffffffffffffffffffffffffffffffffffffff1673ffffffffffffffffffffffffffffffffffffffff16636352211e856040518263ffffffff1660e01b815260040161143491906148f9565b602060405180830381865afa158015611451573d6000803e3d6000fd5b505050506040513d601f19601f820116820180604052508101906114759190615365565b73ffffffffffffffffffffffffffffffffffffffff16146114c2576040517f091fe61c00000000000000000000000000000000000000000000000000000000815260040160405180910390fd5b6114cb82612dfe565b611501576040517fabf20e8f00000000000000000000000000000000000000000000000000000000815260040160405180910390fd5b600260009054906101000a900473ffffffffffffffffffffffffffffffffffffffff1673ffffffffffffffffffffffffffffffffffffffff166337bf06a68460016040518363ffffffff1660e01b815260040161155f9291906153a1565b600060405180830381600087803b15801561157957600080fd5b505af115801561158d573d6000803e3d6000fd5b50505050338160000160006101000a81548173ffffffffffffffffffffffffffffffffffffffff021916908373ffffffffffffffffffffffffffffffffffffffff160217905550428160010160086101000a81548167ffffffffffffffff021916908367ffffffffffffffff160217905550818160000160146101000a81548167ffffffffffffffff021916908367ffffffffffffffff160217905550428160010160106101000a81548167ffffffffffffffff021916908367ffffffffffffffff160217905550858585818110611668576116676150ce565b5b905060200201602081019061167d91906153ef565b8160040160006101000a81548160ff021916908360028111156116a3576116a26146be565b5b0217905550600160009054906101000a900473ffffffffffffffffffffffffffffffffffffffff1673ffffffffffffffffffffffffffffffffffffffff16631b688d9f6040518163ffffffff1660e01b8152600401602060405180830381865afa158015611715573d6000803e3d6000fd5b505050506040513d601f19601f82011682018060405250810190611739919061528d565b8160030181905550600560003373ffffffffffffffffffffffffffffffffffffffff1673ffffffffffffffffffffffffffffffffffffffff16815260200190815260200160002083908060018154018082558091505060019003906000526020600020016000909190919091505581833373ffffffffffffffffffffffffffffffffffffffff167ff0a4b106684863ac7bbc666f47a082e4f6a197f11447743c5347b3344b6b527e428a8a8a8181106117f5576117f46150ce565b5b905060200201602081019061180a91906153ef565b60405161181892919061542b565b60405180910390a45050508061182d906151fc565b90506111bc565b50505050505050565b6060600560008373ffffffffffffffffffffffffffffffffffffffff1673ffffffffffffffffffffffffffffffffffffffff1681526020019081526020016000208054806020026020016040519081016040528092919081815260200182805480156118c857602002820191906000526020600020905b8154815260200190600101908083116118b4575b50505050509050919050565b6118dc612b25565b6118e66000612e27565b565b600160009054906101000a900473ffffffffffffffffffffffffffffffffffffffff1681565b6000638b78c6d81954905090565b600260009054906101000a900473ffffffffffffffffffffffffffffffffffffffff1681565b60008060019054906101000a900460ff161590508080156119735750600160008054906101000a900460ff1660ff16105b806119a0575061198230612e65565b15801561199f5750600160008054906101000a900460ff1660ff16145b5b6119df576040517f08c379a00000000000000000000000000000000000000000000000000000000081526004016119d6906154d7565b60405180910390fd5b60016000806101000a81548160ff021916908360ff1602179055508015611a1c576001600060016101000a81548160ff0219169083151502179055505b611a2533612e88565b611a30848484610b74565b8015611a895760008060016101000a81548160ff0219169083151502179055507f7f26b83ff96e1f2b6a682f133852f6798a09c465da95921460cefb38474024986001604051611a80919061553f565b60405180910390a15b50505050565b600060066000848152602001908152602001600020604051806101000160405290816000820160009054906101000a900473ffffffffffffffffffffffffffffffffffffffff1673ffffffffffffffffffffffffffffffffffffffff1673ffffffffffffffffffffffffffffffffffffffff1681526020016000820160149054906101000a900467ffffffffffffffff1667ffffffffffffffff1667ffffffffffffffff1681526020016001820160009054906101000a900467ffffffffffffffff1667ffffffffffffffff1667ffffffffffffffff1681526020016001820160089054906101000a900467ffffffffffffffff1667ffffffffffffffff1667ffffffffffffffff1681526020016001820160109054906101000a900467ffffffffffffffff1667ffffffffffffffff1667ffffffffffffffff16815260200160028201548152602001600382015481526020016004820160009054906101000a900460ff166002811115611c0757611c066146be565b5b6002811115611c1957611c186146be565b5b8152505090503373ffffffffffffffffffffffffffffffffffffffff16816000015173ffffffffffffffffffffffffffffffffffffffff1614611c88576040517f091fe61c00000000000000000000000000000000000000000000000000000000815260040160405180910390fd5b81816040015167ffffffffffffffff161015611cd0576040517f69229ba700000000000000000000000000000000000000000000000000000000815260040160405180910390fd5b60008160a0015103611d0e576040517f9b4bb81b00000000000000000000000000000000000000000000000000000000815260040160405180910390fd5b611d1783612ec4565b600080600360008681526020019081526020016000206000858152602001908152602001600020549050600060046000878152602001908152602001600020600083815260200190815260200160002054905062278d0082611d799190615244565b42108015611d9a575060006002611d8e613280565b611d9891906152ba565b145b611dd6576004600087815260200190815260200160002060008381526020019081526020016000205483611dce9190615244565b925082611e16565b600260046000888152602001908152602001600020600084815260200190815260200160002054611e0791906151cb565b83611e129190615244565b9250825b506001846040015167ffffffffffffffff1614611e8a57600360008781526020019081526020016000206000600187611e4f9190615244565b815260200190815260200160002054600360008881526020019081526020016000206000878152602001908152602001600020819055611eb4565b60006003600088815260200190815260200160002060008781526020019081526020016000208190555b5060006004600088815260200190815260200160002060008481526020019081526020016000208190555060016006600088815260200190815260200160002060010160008282829054906101000a900467ffffffffffffffff16611f19919061555a565b92506101000a81548167ffffffffffffffff021916908367ffffffffffffffff16021790555060008382611f4d9190615168565b905060008114611fe757600060029054906101000a900473ffffffffffffffffffffffffffffffffffffffff1673ffffffffffffffffffffffffffffffffffffffff16639dc29fac30836040518363ffffffff1660e01b8152600401611fb4929190615596565b600060405180830381600087803b158015611fce57600080fd5b505af1158015611fe2573d6000803e3d6000fd5b505050505b6000841461201d5761201c600060029054906101000a900473ffffffffffffffffffffffffffffffffffffffff16338361334a565b5b83873373ffffffffffffffffffffffffffffffffffffffff167fa720e44767e2cddb37cfa697023b1f3875d107b58722b1cb628083a465290af860405160405180910390a450505050505050565b8181905084849050146120aa576040517f22cb666100000000000000000000000000000000000000000000000000000000815260040160405180910390fd5b60005b848490508110156121605760006120dc8686848181106120d0576120cf6150ce565b5b90506020020135610992565b1115612105576121048585838181106120f8576120f76150ce565b5b90506020020135612ec4565b5b61214f85858381811061211b5761211a6150ce565b5b90506020020135848484818110612135576121346150ce565b5b905060200201602081019061214a91906155d4565b613393565b80612159906151fc565b90506120ad565b5050505050565b6060600060066000848152602001908152602001600020604051806101000160405290816000820160009054906101000a900473ffffffffffffffffffffffffffffffffffffffff1673ffffffffffffffffffffffffffffffffffffffff1673ffffffffffffffffffffffffffffffffffffffff1681526020016000820160149054906101000a900467ffffffffffffffff1667ffffffffffffffff1667ffffffffffffffff1681526020016001820160009054906101000a900467ffffffffffffffff1667ffffffffffffffff1667ffffffffffffffff1681526020016001820160089054906101000a900467ffffffffffffffff1667ffffffffffffffff1667ffffffffffffffff1681526020016001820160109054906101000a900467ffffffffffffffff1667ffffffffffffffff1667ffffffffffffffff16815260200160028201548152602001600382015481526020016004820160009054906101000a900460ff1660028111156122e1576122e06146be565b5b60028111156122f3576122f26146be565b5b8152505090506000816040015167ffffffffffffffff1667ffffffffffffffff8111156123235761232261509f565b5b60405190808252806020026020018201604052801561235c57816020015b6123496144eb565b8152602001906001900390816123415790505b50905060005b826040015167ffffffffffffffff1681101561241c57600060036000878152602001908152602001600020600060018461239c9190615244565b815260200190815260200160002054905060006004600088815260200190815260200160002060008381526020019081526020016000205490506040518060400160405280828152602001838152508484815181106123fe576123fd6150ce565b5b6020026020010181905250505080612415906151fc565b9050612362565b819350505050919050565b60006202a300905090565b600060029054906101000a900473ffffffffffffffffffffffffffffffffffffffff1681565b612460614505565b60066000838152602001908152602001600020604051806101000160405290816000820160009054906101000a900473ffffffffffffffffffffffffffffffffffffffff1673ffffffffffffffffffffffffffffffffffffffff1673ffffffffffffffffffffffffffffffffffffffff1681526020016000820160149054906101000a900467ffffffffffffffff1667ffffffffffffffff1667ffffffffffffffff1681526020016001820160009054906101000a900467ffffffffffffffff1667ffffffffffffffff1667ffffffffffffffff1681526020016001820160089054906101000a900467ffffffffffffffff1667ffffffffffffffff1667ffffffffffffffff1681526020016001820160109054906101000a900467ffffffffffffffff1667ffffffffffffffff1667ffffffffffffffff16815260200160028201548152602001600382015481526020016004820160009054906101000a900460ff1660028111156125d6576125d56146be565b5b60028111156125e8576125e76146be565b5b815250509050919050565b818190508484905014612632576040517f22cb666100000000000000000000000000000000000000000000000000000000815260040160405180910390fd5b60005b8484905081101561269b5761268a858583818110612656576126556150ce565b5b905060200201358484848181106126705761266f6150ce565b5b905060200201602081019061268591906155d4565b6139aa565b80612694906151fc565b9050612635565b5050505050565b60005b828290508110156126e3576126d28383838181106126c6576126c56150ce565b5b90506020020135613d18565b806126dc906151fc565b90506126a5565b505050565b6126f0612b25565b63389a75e1600c52806000526020600c20805442111561271857636f5e88186000526004601cfd5b600081555061272681612e27565b50565b612731612b25565b8060601b61274757637448fbae6000526004601cfd5b61275081612e27565b50565b600063389a75e1600c52816000526020600c20549050919050565b600080600060066000858152602001908152602001600020604051806101000160405290816000820160009054906101000a900473ffffffffffffffffffffffffffffffffffffffff1673ffffffffffffffffffffffffffffffffffffffff1673ffffffffffffffffffffffffffffffffffffffff1681526020016000820160149054906101000a900467ffffffffffffffff1667ffffffffffffffff1667ffffffffffffffff1681526020016001820160009054906101000a900467ffffffffffffffff1667ffffffffffffffff1667ffffffffffffffff1681526020016001820160089054906101000a900467ffffffffffffffff1667ffffffffffffffff1667ffffffffffffffff1681526020016001820160109054906101000a900467ffffffffffffffff1667ffffffffffffffff1667ffffffffffffffff16815260200160028201548152602001600382015481526020016004820160009054906101000a900460ff1660028111156128e9576128e86146be565b5b60028111156128fb576128fa6146be565b5b81525050905060008160a001510361291a576000809250925050612a01565b6000600190506000805b836040015167ffffffffffffffff1683116129f657600060036000898152602001908152602001600020600085815260200190815260200160002054905062278d00816129719190615244565b42106129af5760046000898152602001908152602001600020600082815260200190815260200160002054836129a79190615244565b9250826129e3565b60046000898152602001908152602001600020600082815260200190815260200160002054826129df9190615244565b9150815b5050826129ef906151fc565b9250612924565b808295509550505050505b915091565b6000808803612a185760009050612b1a565b600080600190505b888111612ad9576000620151808660008a815260200190815260200160002060008481526020019081526020016000205442612a5c9190615168565b612a6691906151cb565b905060008560008a815260200190815260200160002060008860008c815260200190815260200160002060008681526020019081526020016000205481526020019081526020016000205490508082612abf9190615601565b84612aca9190615244565b93508260010192505050612a20565b6000612ae5898861418b565b9050612710683635c9adc5dea0000082612aff9190615601565b84612b0a9190615168565b612b1491906151cb565b93505050505b979650505050505050565b638b78c6d819543314612b40576382b429006000526004601cfd5b565b6000808403612b545760009050612bdb565b6000612b5f85614193565b90506000620151808542612b739190615168565b612b7d91906151cb565b905060008103612b9257600092505050612bdb565b6000612b9e888661418b565b9050670de0b6b3a76400008382612bb59190615601565b8385612bc19190615601565b612bcb9190615168565b612bd59190615601565b93505050505b949350505050565b8073ffffffffffffffffffffffffffffffffffffffff1663ae4b37e46040518163ffffffff1660e01b8152600401602060405180830381865afa158015612c2e573d6000803e3d6000fd5b505050506040513d601f19601f82011682018060405250810190612c529190615323565b612c88576040517f288de97200000000000000000000000000000000000000000000000000000000815260040160405180910390fd5b50565b818190508484905014612cca576040517f22cb666100000000000000000000000000000000000000000000000000000000815260040160405180910390fd5b50505050565b6040516323b872dd600052836020528260405281606052602060006064601c6000895af13d156001600051141716612d1057637939f4246000526004601cfd5b6000606052806040525050505050565b80836002016000828254612d349190615244565b9250508190555082600101600081819054906101000a900467ffffffffffffffff16612d5f90615643565b91906101000a81548167ffffffffffffffff021916908367ffffffffffffffff1602179055508060046000848152602001908152602001600020600042815260200190815260200160002081905550426003600084815260200190815260200160002060008560010160009054906101000a900467ffffffffffffffff1667ffffffffffffffff16815260200190815260200160002081905550505050565b60006241eb00821480612e1357506283d60082145b80612e20575062c5c10082145b9050919050565b638b78c6d8198160601b60601c91508181547f8be0079c531659141344cd1fd0a4f28419497f9722a3daafe3b4186f6b6457e0600080a38181555050565b6000808273ffffffffffffffffffffffffffffffffffffffff163b119050919050565b8060601b60601c905080638b78c6d819558060007f8be0079c531659141344cd1fd0a4f28419497f9722a3daafe3b4186f6b6457e0600080a350565b600060066000838152602001908152602001600020604051806101000160405290816000820160009054906101000a900473ffffffffffffffffffffffffffffffffffffffff1673ffffffffffffffffffffffffffffffffffffffff1673ffffffffffffffffffffffffffffffffffffffff1681526020016000820160149054906101000a900467ffffffffffffffff1667ffffffffffffffff1667ffffffffffffffff1681526020016001820160009054906101000a900467ffffffffffffffff1667ffffffffffffffff1667ffffffffffffffff1681526020016001820160089054906101000a900467ffffffffffffffff1667ffffffffffffffff1667ffffffffffffffff1681526020016001820160109054906101000a900467ffffffffffffffff1667ffffffffffffffff1667ffffffffffffffff16815260200160028201548152602001600382015481526020016004820160009054906101000a900460ff16600281111561303c5761303b6146be565b5b600281111561304e5761304d6146be565b5b81525050905060008061306084610992565b8360e00151915091506000600281111561307d5761307c6146be565b5b8160028111156130905761308f6146be565b5b0361312957600260009054906101000a900473ffffffffffffffffffffffffffffffffffffffff1673ffffffffffffffffffffffffffffffffffffffff1663743f4e9485846040518363ffffffff1660e01b81526004016130f2929190614877565b600060405180830381600087803b15801561310c57600080fd5b505af1158015613120573d6000803e3d6000fd5b5050505061327a565b6001600281111561313d5761313c6146be565b5b8160028111156131505761314f6146be565b5b036131e957600260009054906101000a900473ffffffffffffffffffffffffffffffffffffffff1673ffffffffffffffffffffffffffffffffffffffff1663067ea39285846040518363ffffffff1660e01b81526004016131b2929190614877565b600060405180830381600087803b1580156131cc57600080fd5b505af11580156131e0573d6000803e3d6000fd5b50505050613279565b600260009054906101000a900473ffffffffffffffffffffffffffffffffffffffff1673ffffffffffffffffffffffffffffffffffffffff1663e0c5057785846040518363ffffffff1660e01b8152600401613246929190614877565b600060405180830381600087803b15801561326057600080fd5b505af1158015613274573d6000803e3d6000fd5b505050505b5b50505050565b60008043423360405160200161329691906156bb565b6040516020818303038152906040528051906020012060001c6132b991906151cb565b4542416040516020016132cc9190615711565b6040516020818303038152906040528051906020012060001c6132ef91906151cb565b426132fa9190615244565b6133049190615244565b61330e9190615244565b6133189190615244565b604051602001613328919061574d565b6040516020818303038152906040528051906020012060001c90508091505090565b81601a5280603a5269a9059cbb00000000000060005260206000604460166000875af13d156001600051141716613389576390b8ec186000526004601cfd5b6000603a52505050565b600060066000848152602001908152602001600020604051806101000160405290816000820160009054906101000a900473ffffffffffffffffffffffffffffffffffffffff1673ffffffffffffffffffffffffffffffffffffffff1673ffffffffffffffffffffffffffffffffffffffff1681526020016000820160149054906101000a900467ffffffffffffffff1667ffffffffffffffff1667ffffffffffffffff1681526020016001820160009054906101000a900467ffffffffffffffff1667ffffffffffffffff1667ffffffffffffffff1681526020016001820160089054906101000a900467ffffffffffffffff1667ffffffffffffffff1667ffffffffffffffff1681526020016001820160109054906101000a900467ffffffffffffffff1667ffffffffffffffff1667ffffffffffffffff16815260200160028201548152602001600382015481526020016004820160009054906101000a900460ff16600281111561350b5761350a6146be565b5b600281111561351d5761351c6146be565b5b8152505090503373ffffffffffffffffffffffffffffffffffffffff16816000015173ffffffffffffffffffffffffffffffffffffffff161461358c576040517f091fe61c00000000000000000000000000000000000000000000000000000000815260040160405180910390fd5b60008160a00151036135ca576040517f9b4bb81b00000000000000000000000000000000000000000000000000000000815260040160405180910390fd5b6000600190506000805b836040015167ffffffffffffffff1683116137e35760008060036000898152602001908152602001600020600086815260200190815260200160002054600360008a815260200190815260200160002060006001886136339190615244565b8152602001908152602001600020549150915062278d00826136559190615244565b42108015613661575086155b1561366d5750506137d2565b62278d008261367c9190615244565b421080156136875750865b80156136a657506000600261369a613280565b6136a491906152ba565b145b6136e25760046000898152602001908152602001600020600083815260200190815260200160002054846136da9190615244565b935083613722565b6002600460008a815260200190815260200160002060008481526020019081526020016000205461371391906151cb565b8461371e9190615244565b9350835b50868061373d57506001866040015167ffffffffffffffff16145b61376e5780600360008a81526020019081526020016000206000878152602001908152602001600020819055613798565b6000600360008a815260200190815260200160002060008781526020019081526020016000208190555b506000600460008a8152602001908152602001600020600084815260200190815260200160002081905550826137cd90615643565b925050505b826137dc906151fc565b92506135d4565b806006600088815260200190815260200160002060010160008282829054906101000a900467ffffffffffffffff1661381c919061555a565b92506101000a81548167ffffffffffffffff021916908367ffffffffffffffff160217905550816006600088815260200190815260200160002060020160008282546138689190615168565b925050819055506000828560a001516138819190615168565b9050600081141580156138915750855b1561392657600060029054906101000a900473ffffffffffffffffffffffffffffffffffffffff1673ffffffffffffffffffffffffffffffffffffffff16639dc29fac30836040518363ffffffff1660e01b81526004016138f3929190615596565b600060405180830381600087803b15801561390d57600080fd5b505af1158015613921573d6000803e3d6000fd5b505050505b6000831461395c5761395b600060029054906101000a900473ffffffffffffffffffffffffffffffffffffffff16338561334a565b5b82873373ffffffffffffffffffffffffffffffffffffffff167fa720e44767e2cddb37cfa697023b1f3875d107b58722b1cb628083a465290af860405160405180910390a450505050505050565b600060066000848152602001908152602001600020604051806101000160405290816000820160009054906101000a900473ffffffffffffffffffffffffffffffffffffffff1673ffffffffffffffffffffffffffffffffffffffff1673ffffffffffffffffffffffffffffffffffffffff1681526020016000820160149054906101000a900467ffffffffffffffff1667ffffffffffffffff1667ffffffffffffffff1681526020016001820160009054906101000a900467ffffffffffffffff1667ffffffffffffffff1667ffffffffffffffff1681526020016001820160089054906101000a900467ffffffffffffffff1667ffffffffffffffff1667ffffffffffffffff1681526020016001820160109054906101000a900467ffffffffffffffff1667ffffffffffffffff1667ffffffffffffffff16815260200160028201548152602001600382015481526020016004820160009054906101000a900460ff166002811115613b2257613b216146be565b5b6002811115613b3457613b336146be565b5b8152505090503373ffffffffffffffffffffffffffffffffffffffff16816000015173ffffffffffffffffffffffffffffffffffffffff1614613ba3576040517f091fe61c00000000000000000000000000000000000000000000000000000000815260040160405180910390fd5b6000613bae84610c44565b905060008103613bea576040517f9b4bb81b00000000000000000000000000000000000000000000000000000000815260040160405180910390fd5b426006600086815260200190815260200160002060010160106101000a81548167ffffffffffffffff021916908367ffffffffffffffff16021790555082613cc057600060029054906101000a900473ffffffffffffffffffffffffffffffffffffffff1673ffffffffffffffffffffffffffffffffffffffff166340c10f1933836040518363ffffffff1660e01b8152600401613c89929190615596565b600060405180830381600087803b158015613ca357600080fd5b505af1158015613cb7573d6000803e3d6000fd5b50505050613ccb565b613cca84826141c7565b5b821515843373ffffffffffffffffffffffffffffffffffffffff167f10fffc2725e2f04d2e9a7aa7762d3db31dd4051420267e5be076a5b13e8bb07760405160405180910390a450505050565b600060066000838152602001908152602001600020604051806101000160405290816000820160009054906101000a900473ffffffffffffffffffffffffffffffffffffffff1673ffffffffffffffffffffffffffffffffffffffff1673ffffffffffffffffffffffffffffffffffffffff1681526020016000820160149054906101000a900467ffffffffffffffff1667ffffffffffffffff1667ffffffffffffffff1681526020016001820160009054906101000a900467ffffffffffffffff1667ffffffffffffffff1667ffffffffffffffff1681526020016001820160089054906101000a900467ffffffffffffffff1667ffffffffffffffff1667ffffffffffffffff1681526020016001820160109054906101000a900467ffffffffffffffff1667ffffffffffffffff1667ffffffffffffffff16815260200160028201548152602001600382015481526020016004820160009054906101000a900460ff166002811115613e9057613e8f6146be565b5b6002811115613ea257613ea16146be565b5b8152505090503373ffffffffffffffffffffffffffffffffffffffff16816000015173ffffffffffffffffffffffffffffffffffffffff1614613f11576040517f091fe61c00000000000000000000000000000000000000000000000000000000815260040160405180910390fd5b80602001518160600151613f25919061512c565b67ffffffffffffffff16421015613f68576040517ff5dcc1e300000000000000000000000000000000000000000000000000000000815260040160405180910390fd5b6000613f7383610c44565b1115613f8557613f848260006139aa565b5b60008160a001511115613f9e57613f9d826001613393565b5b613fe6600560003373ffffffffffffffffffffffffffffffffffffffff1673ffffffffffffffffffffffffffffffffffffffff168152602001908152602001600020836143b8565b60066000838152602001908152602001600020600080820160006101000a81549073ffffffffffffffffffffffffffffffffffffffff02191690556000820160146101000a81549067ffffffffffffffff02191690556001820160006101000a81549067ffffffffffffffff02191690556001820160086101000a81549067ffffffffffffffff02191690556001820160106101000a81549067ffffffffffffffff0219169055600282016000905560038201600090556004820160006101000a81549060ff02191690555050600260009054906101000a900473ffffffffffffffffffffffffffffffffffffffff1673ffffffffffffffffffffffffffffffffffffffff166337bf06a68360006040518363ffffffff1660e01b81526004016141119291906153a1565b600060405180830381600087803b15801561412b57600080fd5b505af115801561413f573d6000803e3d6000fd5b50505050813373ffffffffffffffffffffffffffffffffffffffff167f26727522aa20721ee01410aea547e7fc187973e8abf49394168d3c9cb4c90cf260405160405180910390a35050565b600092915050565b60006241eb0082036141a457600a90505b6283d60082036141b357603290505b62c5c10082036141c257606490505b919050565b6000683635c9adc5dea00000826141de91906152ba565b9050818103614219576040517f1d823d0700000000000000000000000000000000000000000000000000000000815260040160405180910390fd5b600081146142b157600060029054906101000a900473ffffffffffffffffffffffffffffffffffffffff1673ffffffffffffffffffffffffffffffffffffffff166340c10f1933836040518363ffffffff1660e01b815260040161427e929190615596565b600060405180830381600087803b15801561429857600080fd5b505af11580156142ac573d6000803e3d6000fd5b505050505b600081836142bf9190615168565b90506142de600660008681526020019081526020016000208583612d20565b600060029054906101000a900473ffffffffffffffffffffffffffffffffffffffff1673ffffffffffffffffffffffffffffffffffffffff166340c10f1930836040518363ffffffff1660e01b815260040161433b929190615596565b600060405180830381600087803b15801561435557600080fd5b505af1158015614369573d6000803e3d6000fd5b5050505083813373ffffffffffffffffffffffffffffffffffffffff167f1004c640a4c8dbc3c9dd5ff33837d99e4882aaf2b20fb8e7c419fc83c8ca5bd060405160405180910390a450505050565b60005b828054905081101561447157818382815481106143db576143da6150ce565b5b9060005260206000200154036144665782600184805490506143fd9190615168565b8154811061440e5761440d6150ce565b5b906000526020600020015483828154811061442c5761442b6150ce565b5b90600052602060002001819055508280548061444b5761444a615768565b5b60019003818190600052602060002001600090559055614471565b8060010190506143bb565b505050565b6040518060e0016040528060006bffffffffffffffffffffffff16815260200160006bffffffffffffffffffffffff168152602001600067ffffffffffffffff168152602001600081526020016000815260200160008152602001600060028111156144e5576144e46146be565b5b81525090565b604051806040016040528060008152602001600081525090565b604051806101000160405280600073ffffffffffffffffffffffffffffffffffffffff168152602001600067ffffffffffffffff168152602001600067ffffffffffffffff168152602001600067ffffffffffffffff168152602001600067ffffffffffffffff168152602001600081526020016000815260200160006002811115614594576145936146be565b5b81525090565b600080fd5b600080fd5b600073ffffffffffffffffffffffffffffffffffffffff82169050919050565b60006145cf826145a4565b9050919050565b6145df816145c4565b81146145ea57600080fd5b50565b6000813590506145fc816145d6565b92915050565b6000602082840312156146185761461761459a565b5b6000614626848285016145ed565b91505092915050565b600081519050919050565b600082825260208201905092915050565b6000819050602082019050919050565b60006bffffffffffffffffffffffff82169050919050565b61467c8161465b565b82525050565b600067ffffffffffffffff82169050919050565b61469f81614682565b82525050565b6000819050919050565b6146b8816146a5565b82525050565b7f4e487b7100000000000000000000000000000000000000000000000000000000600052602160045260246000fd5b600381106146fe576146fd6146be565b5b50565b600081905061470f826146ed565b919050565b600061471f82614701565b9050919050565b61472f81614714565b82525050565b60e08201600082015161474b6000850182614673565b50602082015161475e6020850182614673565b5060408201516147716040850182614696565b50606082015161478460608501826146af565b50608082015161479760808501826146af565b5060a08201516147aa60a08501826146af565b5060c08201516147bd60c0850182614726565b50505050565b60006147cf8383614735565b60e08301905092915050565b6000602082019050919050565b60006147f38261462f565b6147fd818561463a565b93506148088361464b565b8060005b8381101561483957815161482088826147c3565b975061482b836147db565b92505060018101905061480c565b5085935050505092915050565b6000602082019050818103600083015261486081846147e8565b905092915050565b614871816146a5565b82525050565b600060408201905061488c6000830185614868565b6148996020830184614868565b9392505050565b6148a9816146a5565b81146148b457600080fd5b50565b6000813590506148c6816148a0565b92915050565b6000602082840312156148e2576148e161459a565b5b60006148f0848285016148b7565b91505092915050565b600060208201905061490e6000830184614868565b92915050565b60008060006060848603121561492d5761492c61459a565b5b600061493b868287016145ed565b935050602061494c868287016145ed565b925050604061495d868287016145ed565b9150509250925092565b600080fd5b600080fd5b600080fd5b60008083601f84011261498c5761498b614967565b5b8235905067ffffffffffffffff8111156149a9576149a861496c565b5b6020830191508360208202830111156149c5576149c4614971565b5b9250929050565b600080600080604085870312156149e6576149e561459a565b5b600085013567ffffffffffffffff811115614a0457614a0361459f565b5b614a1087828801614976565b9450945050602085013567ffffffffffffffff811115614a3357614a3261459f565b5b614a3f87828801614976565b925092505092959194509250565b60008083601f840112614a6357614a62614967565b5b8235905067ffffffffffffffff811115614a8057614a7f61496c565b5b602083019150836020820283011115614a9c57614a9b614971565b5b9250929050565b60008060008060008060608789031215614ac057614abf61459a565b5b600087013567ffffffffffffffff811115614ade57614add61459f565b5b614aea89828a01614976565b9650965050602087013567ffffffffffffffff811115614b0d57614b0c61459f565b5b614b1989828a01614976565b9450945050604087013567ffffffffffffffff811115614b3c57614b3b61459f565b5b614b4889828a01614a4d565b92509250509295509295509295565b600081519050919050565b600082825260208201905092915050565b6000819050602082019050919050565b6000614b8f83836146af565b60208301905092915050565b6000602082019050919050565b6000614bb382614b57565b614bbd8185614b62565b9350614bc883614b73565b8060005b83811015614bf9578151614be08882614b83565b9750614beb83614b9b565b925050600181019050614bcc565b5085935050505092915050565b60006020820190508181036000830152614c208184614ba8565b905092915050565b6000819050919050565b6000614c4d614c48614c43846145a4565b614c28565b6145a4565b9050919050565b6000614c5f82614c32565b9050919050565b6000614c7182614c54565b9050919050565b614c8181614c66565b82525050565b6000602082019050614c9c6000830184614c78565b92915050565b614cab816145c4565b82525050565b6000602082019050614cc66000830184614ca2565b92915050565b6000614cd782614c54565b9050919050565b614ce781614ccc565b82525050565b6000602082019050614d026000830184614cde565b92915050565b60008060408385031215614d1f57614d1e61459a565b5b6000614d2d858286016148b7565b9250506020614d3e858286016148b7565b9150509250929050565b60008083601f840112614d5e57614d5d614967565b5b8235905067ffffffffffffffff811115614d7b57614d7a61496c565b5b602083019150836020820283011115614d9757614d96614971565b5b9250929050565b60008060008060408587031215614db857614db761459a565b5b600085013567ffffffffffffffff811115614dd657614dd561459f565b5b614de287828801614976565b9450945050602085013567ffffffffffffffff811115614e0557614e0461459f565b5b614e1187828801614d48565b925092505092959194509250565b600081519050919050565b600082825260208201905092915050565b6000819050602082019050919050565b604082016000820151614e6160008501826146af565b506020820151614e7460208501826146af565b50505050565b6000614e868383614e4b565b60408301905092915050565b6000602082019050919050565b6000614eaa82614e1f565b614eb48185614e2a565b9350614ebf83614e3b565b8060005b83811015614ef0578151614ed78882614e7a565b9750614ee283614e92565b925050600181019050614ec3565b5085935050505092915050565b60006020820190508181036000830152614f178184614e9f565b905092915050565b614f2881614682565b82525050565b6000602082019050614f436000830184614f1f565b92915050565b6000614f5482614c54565b9050919050565b614f6481614f49565b82525050565b6000602082019050614f7f6000830184614f5b565b92915050565b614f8e816145c4565b82525050565b61010082016000820151614fab6000850182614f85565b506020820151614fbe6020850182614696565b506040820151614fd16040850182614696565b506060820151614fe46060850182614696565b506080820151614ff76080850182614696565b5060a082015161500a60a08501826146af565b5060c082015161501d60c08501826146af565b5060e082015161503060e0850182614726565b50505050565b60006101008201905061504c6000830184614f94565b92915050565b600080602083850312156150695761506861459a565b5b600083013567ffffffffffffffff8111156150875761508661459f565b5b61509385828601614976565b92509250509250929050565b7f4e487b7100000000000000000000000000000000000000000000000000000000600052604160045260246000fd5b7f4e487b7100000000000000000000000000000000000000000000000000000000600052603260045260246000fd5b7f4e487b7100000000000000000000000000000000000000000000000000000000600052601160045260246000fd5b600061513782614682565b915061514283614682565b9250828201905067ffffffffffffffff811115615162576151616150fd565b5b92915050565b6000615173826146a5565b915061517e836146a5565b9250828203905081811115615196576151956150fd565b5b92915050565b7f4e487b7100000000000000000000000000000000000000000000000000000000600052601260045260246000fd5b60006151d6826146a5565b91506151e1836146a5565b9250826151f1576151f061519c565b5b828204905092915050565b6000615207826146a5565b91507fffffffffffffffffffffffffffffffffffffffffffffffffffffffffffffffff8203615239576152386150fd565b5b600182019050919050565b600061524f826146a5565b915061525a836146a5565b9250828201905080821115615272576152716150fd565b5b92915050565b600081519050615287816148a0565b92915050565b6000602082840312156152a3576152a261459a565b5b60006152b184828501615278565b91505092915050565b60006152c5826146a5565b91506152d0836146a5565b9250826152e0576152df61519c565b5b828206905092915050565b60008115159050919050565b615300816152eb565b811461530b57600080fd5b50565b60008151905061531d816152f7565b92915050565b6000602082840312156153395761533861459a565b5b60006153478482850161530e565b91505092915050565b60008151905061535f816145d6565b92915050565b60006020828403121561537b5761537a61459a565b5b600061538984828501615350565b91505092915050565b61539b816152eb565b82525050565b60006040820190506153b66000830185614868565b6153c36020830184615392565b9392505050565b600381106153d757600080fd5b50565b6000813590506153e9816153ca565b92915050565b6000602082840312156154055761540461459a565b5b6000615413848285016153da565b91505092915050565b61542581614714565b82525050565b60006040820190506154406000830185614868565b61544d602083018461541c565b9392505050565b600082825260208201905092915050565b7f496e697469616c697a61626c653a20636f6e747261637420697320616c72656160008201527f647920696e697469616c697a6564000000000000000000000000000000000000602082015250565b60006154c1602e83615454565b91506154cc82615465565b604082019050919050565b600060208201905081810360008301526154f0816154b4565b9050919050565b6000819050919050565b600060ff82169050919050565b600061552961552461551f846154f7565b614c28565b615501565b9050919050565b6155398161550e565b82525050565b60006020820190506155546000830184615530565b92915050565b600061556582614682565b915061557083614682565b9250828203905067ffffffffffffffff8111156155905761558f6150fd565b5b92915050565b60006040820190506155ab6000830185614ca2565b6155b86020830184614868565b9392505050565b6000813590506155ce816152f7565b92915050565b6000602082840312156155ea576155e961459a565b5b60006155f8848285016155bf565b91505092915050565b600061560c826146a5565b9150615617836146a5565b9250828202615625816146a5565b9150828204841483151761563c5761563b6150fd565b5b5092915050565b600061564e82614682565b915067ffffffffffffffff8203615668576156676150fd565b5b600182019050919050565b60008160601b9050919050565b600061568b82615673565b9050919050565b600061569d82615680565b9050919050565b6156b56156b0826145c4565b615692565b82525050565b60006156c782846156a4565b60148201915081905092915050565b60006156e1826145a4565b9050919050565b60006156f382615680565b9050919050565b61570b615706826156d6565b6156e8565b82525050565b600061571d82846156fa565b60148201915081905092915050565b6000819050919050565b615747615742826146a5565b61572c565b82525050565b60006157598284615736565b60208201915081905092915050565b7f4e487b7100000000000000000000000000000000000000000000000000000000600052603160045260246000fdfea2646970667358221220b3db60c260a7584b7eb5f91e7cf625853ee76b00de68ab77cbfc208901158ed564736f6c63430008120033",
  "devdoc": {
    "errors": {
      "NewOwnerIsZeroAddress()": [
        {
          "details": "The `newOwner` cannot be the zero address."
        }
      ],
      "NoHandoverRequest()": [
        {
          "details": "The `pendingOwner` does not have a valid handover request."
        }
      ],
      "Unauthorized()": [
        {
          "details": "The caller is not authorized to call the function."
        }
      ]
    },
    "events": {
      "Initialized(uint8)": {
        "details": "Triggered when the contract has been initialized or reinitialized."
      },
      "OwnershipHandoverCanceled(address)": {
        "details": "The ownership handover to `pendingOwner` has been canceled."
      },
      "OwnershipHandoverRequested(address)": {
        "details": "An ownership handover to `pendingOwner` has been requested."
      },
      "OwnershipTransferred(address,address)": {
        "details": "The ownership is transferred from `oldOwner` to `newOwner`. This event is intentionally kept the same as OpenZeppelin's Ownable to be compatible with indexers and [EIP-173](https://eips.ethereum.org/EIPS/eip-173), despite it not being as lightweight as a single argument event."
      }
    },
    "kind": "dev",
    "methods": {
      "bonesToTime(uint256)": {
        "details": "Returns an array of BonesFeInfo structs containing information about the Bone tokens staked at certain time.",
        "params": {
          "_tokenId": "The ID of the token to retrieve information for."
        },
        "returns": {
          "_0": "An array of BonesFeInfo structs containing Bone token and timestamp information."
        }
      },
      "cancelOwnershipHandover()": {
        "details": "Cancels the two-step ownership handover to the caller, if any."
      },
      "claimDevelopmentGroundBonesReward(uint256[],bool[])": {
        "params": {
          "_stake": "Whether to stake the reward bones in the development ground",
          "_tokenId": "ID of the development ground"
        }
      },
      "completeOwnershipHandover(address)": {
        "details": "Allows the owner to complete the two-step ownership handover to `pendingOwner`. Reverts if there is no existing ownership handover requested by `pendingOwner`."
      },
      "enterDevelopmentGround(uint256[],uint256[],uint8[])": {
        "details": "Enters the DevelopmentGround by transferring the tokens from the sender to the contract and setting the development ground data such as owner, entry time, lock period, etc.",
        "params": {
          "_ground": "Array of grounds for each corresponding token",
          "_lockTime": "Array of lock times for each corresponding token",
          "_tokenId": "Array of token IDs to be transferred"
        }
      },
      "getDevGroundFeInfo(address)": {
        "details": "Returns an array of DevGroundFeInfo structs containing information about the DevelopmentGround tokens staked by the specified owner.",
        "params": {
          "_owner": "The address of the owner."
        },
        "returns": {
          "_0": "An array of DevGroundFeInfo structs containing DevelopmentGround token information."
        }
      },
      "getDevelopmentGroundBonesReward(uint256)": {
        "details": "Returns the reward for the bones staked in the development ground.",
        "params": {
          "_tokenId": "The token ID for the development ground."
        },
        "returns": {
          "_0": "The reward for the bones staked in the development ground."
        }
      },
      "getDevelopmentGroundInfo(uint256)": {
        "details": "This function returns a DevelopmentGround struct containing information about a Development Ground token, specified by its ID, _tokenId.",
        "params": {
          "_tokenId": "ID of the Development Ground token to retrieve information for"
        },
        "returns": {
          "_0": "The DevelopmentGround struct containing information about the specified Development Ground token."
        }
      },
      "getPrimarySkill(uint256)": {
        "params": {
          "_tokenId": "ID of the development ground"
        },
        "returns": {
          "_0": "The primary skill level"
        }
      },
      "getStakedTokens(address)": {
        "details": "Returns an array of token IDs that are currently staked by the given owner.",
        "params": {
          "_owner": "The address of the owner."
        },
        "returns": {
          "_0": "An array of staked token IDs."
        }
      },
      "leaveDevelopmentGround(uint256[])": {
        "details": "Allows the owner to leave the development ground. This will transfer the token back to the owner and remove any bones staked in the development ground.",
        "params": {
          "_tokenId": "The token ID of the development ground to leave."
        }
      },
      "owner()": {
        "details": "Returns the owner of the contract."
      },
      "ownershipHandoverExpiresAt(address)": {
        "details": "Returns the expiry timestamp for the two-step ownership handover to `pendingOwner`."
      },
      "ownershipHandoverValidFor()": {
        "details": "Returns how long a two-step ownership handover is valid for in seconds."
      },
      "removeBones(uint256[],bool[])": {
        "details": "Removes bones from a specific development ground.",
        "params": {
          "_all": "Indicates whether to remove all bones or just a portion of them",
          "_tokenId": "The unique identifier for the development ground"
        }
      },
      "removeSingleBones(uint256,uint256)": {
        "details": "Allows the owner of a DevelopmentGround to remove a single bone from a specific position in the track.",
        "params": {
          "_pos": "The position of the bone to be removed.",
          "_tokenId": "The ID of the DevelopmentGround."
        }
      },
      "renounceOwnership()": {
        "details": "Allows the owner to renounce their ownership."
      },
      "requestOwnershipHandover()": {
        "details": "Request a two-step ownership handover to the caller. The request will be automatically expire in 48 hours (172800 seconds) by default."
      },
      "stakeBonesInDevelopmentGround(uint256[],uint256[])": {
        "details": "Stakes the bones in the DevelopmentGround by transferring the bones from the sender to the contract and updating the development ground data.",
        "params": {
          "_amount": "Array of amounts of bones to be transferred",
          "_tokenId": "Array of token IDs for the corresponding amounts of bones"
        }
      },
      "transferOwnership(address)": {
        "details": "Allows the owner to transfer the ownership to `newOwner`."
      }
    },
    "version": 1
  },
  "userdoc": {
    "kind": "user",
    "methods": {
      "claimDevelopmentGroundBonesReward(uint256[],bool[])": {
        "notice": "This function allows the owner of multiple development grounds to claim rewards earned by them."
      },
      "getDevelopmentGroundInfo(uint256)": {
        "notice": "Retrieve information about a Development Ground token."
      },
      "getPrimarySkill(uint256)": {
        "notice": "This function retrieves the primary skill of the `_tokenId` development ground."
      }
    },
    "version": 1
  },
  "storageLayout": {
    "storage": [
      {
        "astId": 6,
        "contract": "contracts/DevelopmentGrounds.sol:DevelopmentGrounds",
        "label": "_initialized",
        "offset": 0,
        "slot": "0",
        "type": "t_uint8"
      },
      {
        "astId": 9,
        "contract": "contracts/DevelopmentGrounds.sol:DevelopmentGrounds",
        "label": "_initializing",
        "offset": 1,
        "slot": "0",
        "type": "t_bool"
      },
      {
        "astId": 703,
        "contract": "contracts/DevelopmentGrounds.sol:DevelopmentGrounds",
        "label": "bones",
        "offset": 2,
        "slot": "0",
        "type": "t_contract(IBones)2492"
      },
      {
        "astId": 706,
        "contract": "contracts/DevelopmentGrounds.sol:DevelopmentGrounds",
        "label": "pits",
        "offset": 0,
        "slot": "1",
        "type": "t_contract(IPits)2571"
      },
      {
        "astId": 709,
        "contract": "contracts/DevelopmentGrounds.sol:DevelopmentGrounds",
        "label": "neandersmol",
        "offset": 0,
        "slot": "2",
        "type": "t_contract(INeandersmol)2541"
      },
      {
        "astId": 738,
        "contract": "contracts/DevelopmentGrounds.sol:DevelopmentGrounds",
        "label": "trackTime",
        "offset": 0,
        "slot": "3",
        "type": "t_mapping(t_uint256,t_mapping(t_uint256,t_uint256))"
      },
      {
        "astId": 744,
        "contract": "contracts/DevelopmentGrounds.sol:DevelopmentGrounds",
        "label": "trackToken",
        "offset": 0,
        "slot": "4",
        "type": "t_mapping(t_uint256,t_mapping(t_uint256,t_uint256))"
      },
      {
        "astId": 749,
        "contract": "contracts/DevelopmentGrounds.sol:DevelopmentGrounds",
        "label": "ownerToTokens",
        "offset": 0,
        "slot": "5",
        "type": "t_mapping(t_address,t_array(t_uint256)dyn_storage)"
      },
      {
        "astId": 754,
        "contract": "contracts/DevelopmentGrounds.sol:DevelopmentGrounds",
        "label": "developmentGround",
        "offset": 0,
        "slot": "6",
        "type": "t_mapping(t_uint256,t_struct(DevelopmentGround)2938_storage)"
      }
    ],
    "types": {
      "t_address": {
        "encoding": "inplace",
        "label": "address",
        "numberOfBytes": "20"
      },
      "t_array(t_uint256)dyn_storage": {
        "base": "t_uint256",
        "encoding": "dynamic_array",
        "label": "uint256[]",
        "numberOfBytes": "32"
      },
      "t_bool": {
        "encoding": "inplace",
        "label": "bool",
        "numberOfBytes": "1"
      },
      "t_contract(IBones)2492": {
        "encoding": "inplace",
        "label": "contract IBones",
        "numberOfBytes": "20"
      },
      "t_contract(INeandersmol)2541": {
        "encoding": "inplace",
        "label": "contract INeandersmol",
        "numberOfBytes": "20"
      },
      "t_contract(IPits)2571": {
        "encoding": "inplace",
        "label": "contract IPits",
        "numberOfBytes": "20"
      },
      "t_enum(Grounds)3004": {
        "encoding": "inplace",
        "label": "enum Grounds",
        "numberOfBytes": "1"
      },
      "t_mapping(t_address,t_array(t_uint256)dyn_storage)": {
        "encoding": "mapping",
        "key": "t_address",
        "label": "mapping(address => uint256[])",
        "numberOfBytes": "32",
        "value": "t_array(t_uint256)dyn_storage"
      },
      "t_mapping(t_uint256,t_mapping(t_uint256,t_uint256))": {
        "encoding": "mapping",
        "key": "t_uint256",
        "label": "mapping(uint256 => mapping(uint256 => uint256))",
        "numberOfBytes": "32",
        "value": "t_mapping(t_uint256,t_uint256)"
      },
      "t_mapping(t_uint256,t_struct(DevelopmentGround)2938_storage)": {
        "encoding": "mapping",
        "key": "t_uint256",
        "label": "mapping(uint256 => struct DevelopmentGround)",
        "numberOfBytes": "32",
        "value": "t_struct(DevelopmentGround)2938_storage"
      },
      "t_mapping(t_uint256,t_uint256)": {
        "encoding": "mapping",
        "key": "t_uint256",
        "label": "mapping(uint256 => uint256)",
        "numberOfBytes": "32",
        "value": "t_uint256"
      },
      "t_struct(DevelopmentGround)2938_storage": {
        "encoding": "inplace",
        "label": "struct DevelopmentGround",
        "members": [
          {
            "astId": 2922,
            "contract": "contracts/DevelopmentGrounds.sol:DevelopmentGrounds",
            "label": "owner",
            "offset": 0,
            "slot": "0",
            "type": "t_address"
          },
          {
            "astId": 2924,
            "contract": "contracts/DevelopmentGrounds.sol:DevelopmentGrounds",
            "label": "lockPeriod",
            "offset": 20,
            "slot": "0",
            "type": "t_uint64"
          },
          {
            "astId": 2926,
            "contract": "contracts/DevelopmentGrounds.sol:DevelopmentGrounds",
            "label": "amountPosition",
            "offset": 0,
            "slot": "1",
            "type": "t_uint64"
          },
          {
            "astId": 2928,
            "contract": "contracts/DevelopmentGrounds.sol:DevelopmentGrounds",
            "label": "entryTime",
            "offset": 8,
            "slot": "1",
            "type": "t_uint64"
          },
          {
            "astId": 2930,
            "contract": "contracts/DevelopmentGrounds.sol:DevelopmentGrounds",
            "label": "lastRewardTime",
            "offset": 16,
            "slot": "1",
            "type": "t_uint64"
          },
          {
            "astId": 2932,
            "contract": "contracts/DevelopmentGrounds.sol:DevelopmentGrounds",
            "label": "bonesStaked",
            "offset": 0,
            "slot": "2",
            "type": "t_uint256"
          },
          {
            "astId": 2934,
            "contract": "contracts/DevelopmentGrounds.sol:DevelopmentGrounds",
            "label": "currentPitsLockPeriod",
            "offset": 0,
            "slot": "3",
            "type": "t_uint256"
          },
          {
            "astId": 2937,
            "contract": "contracts/DevelopmentGrounds.sol:DevelopmentGrounds",
            "label": "ground",
            "offset": 0,
            "slot": "4",
            "type": "t_enum(Grounds)3004"
          }
        ],
        "numberOfBytes": "160"
      },
      "t_uint256": {
        "encoding": "inplace",
        "label": "uint256",
        "numberOfBytes": "32"
      },
      "t_uint64": {
        "encoding": "inplace",
        "label": "uint64",
        "numberOfBytes": "8"
      },
      "t_uint8": {
        "encoding": "inplace",
        "label": "uint8",
        "numberOfBytes": "1"
      }
    }
  }
}