{
  "address": "0xB2ba90A226ab4d0B78Ca655B27f4d87D9326aBfb",
  "abi": [
    {
      "inputs": [],
      "name": "BalanceIsInsufficient",
      "type": "error"
    },
    {
      "inputs": [],
      "name": "CsIsBellowHundred",
      "type": "error"
    },
    {
      "inputs": [],
      "name": "DevelopmentGroundIsLocked",
      "type": "error"
    },
    {
      "inputs": [],
      "name": "InvalidLockTime",
      "type": "error"
    },
    {
      "inputs": [],
      "name": "LengthsNotEqual",
      "type": "error"
    },
    {
      "inputs": [],
      "name": "NeandersmolIsNotInDevelopmentGround",
      "type": "error"
    },
    {
      "inputs": [],
      "name": "NeandersmolsIsLocked",
      "type": "error"
    },
    {
      "inputs": [],
      "name": "NotYourToken",
      "type": "error"
    },
    {
      "inputs": [],
      "name": "WrongMultiple",
      "type": "error"
    },
    {
      "inputs": [],
      "name": "ZeroBalanceError",
      "type": "error"
    },
    {
      "anonymous": false,
      "inputs": [
        {
          "indexed": true,
          "internalType": "address",
          "name": "owner",
          "type": "address"
        },
        {
          "indexed": true,
          "internalType": "uint256",
          "name": "tokenId",
          "type": "uint256"
        },
        {
          "indexed": true,
          "internalType": "bool",
          "name": "stake",
          "type": "bool"
        }
      ],
      "name": "ClaimDevelopmentGroundBonesReward",
      "type": "event"
    },
    {
      "anonymous": false,
      "inputs": [
        {
          "indexed": true,
          "internalType": "address",
          "name": "owner",
          "type": "address"
        },
        {
          "indexed": true,
          "internalType": "uint256",
          "name": "tokenId",
          "type": "uint256"
        },
        {
          "indexed": true,
          "internalType": "uint256",
          "name": "lockTime",
          "type": "uint256"
        },
        {
          "indexed": false,
          "internalType": "uint256",
          "name": "entryTime",
          "type": "uint256"
        },
        {
          "indexed": false,
          "internalType": "enum Grounds",
          "name": "ground",
          "type": "uint8"
        }
      ],
      "name": "EnterDevelopmentGround",
      "type": "event"
    },
    {
      "anonymous": false,
      "inputs": [
        {
          "indexed": false,
          "internalType": "uint8",
          "name": "version",
          "type": "uint8"
        }
      ],
      "name": "Initialized",
      "type": "event"
    },
    {
      "anonymous": false,
      "inputs": [
        {
          "indexed": true,
          "internalType": "address",
          "name": "owner",
          "type": "address"
        },
        {
          "indexed": true,
          "internalType": "uint256",
          "name": "tokenId",
          "type": "uint256"
        }
      ],
      "name": "LeaveDevelopmentGround",
      "type": "event"
    },
    {
      "anonymous": false,
      "inputs": [
        {
          "indexed": true,
          "internalType": "address",
          "name": "owner",
          "type": "address"
        },
        {
          "indexed": true,
          "internalType": "uint256",
          "name": "tokenId",
          "type": "uint256"
        },
        {
          "indexed": true,
          "internalType": "uint256",
          "name": "amount",
          "type": "uint256"
        }
      ],
      "name": "RemoveBones",
      "type": "event"
    },
    {
      "anonymous": false,
      "inputs": [
        {
          "indexed": true,
          "internalType": "address",
          "name": "owner",
          "type": "address"
        },
        {
          "indexed": true,
          "internalType": "uint256",
          "name": "amount",
          "type": "uint256"
        },
        {
          "indexed": true,
          "internalType": "uint256",
          "name": "tokenId",
          "type": "uint256"
        }
      ],
      "name": "StakeBonesInDevelopmentGround",
      "type": "event"
    },
    {
      "inputs": [],
      "name": "bones",
      "outputs": [
        {
          "internalType": "contract IBones",
          "name": "",
          "type": "address"
        }
      ],
      "stateMutability": "view",
      "type": "function"
    },
    {
      "inputs": [
        {
          "internalType": "uint256[]",
          "name": "_tokenId",
          "type": "uint256[]"
        },
        {
          "internalType": "bool[]",
          "name": "_stake",
          "type": "bool[]"
        }
      ],
      "name": "claimDevelopmentGroundBonesReward",
      "outputs": [],
      "stateMutability": "nonpayable",
      "type": "function"
    },
    {
      "inputs": [
        {
          "internalType": "uint256[]",
          "name": "_tokenId",
          "type": "uint256[]"
        },
        {
          "internalType": "uint256[]",
          "name": "_lockTime",
          "type": "uint256[]"
        },
        {
          "internalType": "enum Grounds[]",
          "name": "_ground",
          "type": "uint8[]"
        }
      ],
      "name": "enterDevelopmentGround",
      "outputs": [],
      "stateMutability": "nonpayable",
      "type": "function"
    },
    {
      "inputs": [
        {
          "internalType": "uint256",
          "name": "_tokenId",
          "type": "uint256"
        }
      ],
      "name": "getDevelopmentGroundBonesReward",
      "outputs": [
        {
          "internalType": "uint256",
          "name": "",
          "type": "uint256"
        }
      ],
      "stateMutability": "view",
      "type": "function"
    },
    {
      "inputs": [
        {
          "internalType": "uint256",
          "name": "_tokenId",
          "type": "uint256"
        }
      ],
      "name": "getDevelopmentGroundInfo",
      "outputs": [
        {
          "components": [
            {
              "internalType": "address",
              "name": "owner",
              "type": "address"
            },
            {
              "internalType": "uint64",
              "name": "lockPeriod",
              "type": "uint64"
            },
            {
              "internalType": "uint64",
              "name": "amountPosition",
              "type": "uint64"
            },
            {
              "internalType": "uint64",
              "name": "entryTime",
              "type": "uint64"
            },
            {
              "internalType": "uint64",
              "name": "lastRewardTime",
              "type": "uint64"
            },
            {
              "internalType": "uint256",
              "name": "bonesStaked",
              "type": "uint256"
            },
            {
              "internalType": "uint256",
              "name": "currentPitsLockPeriod",
              "type": "uint256"
            },
            {
              "internalType": "enum Grounds",
              "name": "ground",
              "type": "uint8"
            }
          ],
          "internalType": "struct DevelopmentGround",
          "name": "",
          "type": "tuple"
        }
      ],
      "stateMutability": "view",
      "type": "function"
    },
    {
      "inputs": [
        {
          "internalType": "uint256",
          "name": "_tokenId",
          "type": "uint256"
        }
      ],
      "name": "getPrimarySkill",
      "outputs": [
        {
          "internalType": "uint256",
          "name": "",
          "type": "uint256"
        }
      ],
      "stateMutability": "view",
      "type": "function"
    },
    {
      "inputs": [
        {
          "internalType": "address",
          "name": "_owner",
          "type": "address"
        }
      ],
      "name": "getStakedTokens",
      "outputs": [
        {
          "internalType": "uint256[]",
          "name": "res",
          "type": "uint256[]"
        }
      ],
      "stateMutability": "view",
      "type": "function"
    },
    {
      "inputs": [
        {
          "internalType": "address",
          "name": "_pits",
          "type": "address"
        },
        {
          "internalType": "address",
          "name": "_neandersmol",
          "type": "address"
        },
        {
          "internalType": "address",
          "name": "_bones",
          "type": "address"
        }
      ],
      "name": "initialize",
      "outputs": [],
      "stateMutability": "nonpayable",
      "type": "function"
    },
    {
      "inputs": [
        {
          "internalType": "uint256[]",
          "name": "_tokenId",
          "type": "uint256[]"
        }
      ],
      "name": "leaveDevelopmentGround",
      "outputs": [],
      "stateMutability": "nonpayable",
      "type": "function"
    },
    {
      "inputs": [],
      "name": "neandersmol",
      "outputs": [
        {
          "internalType": "contract INeandersmol",
          "name": "",
          "type": "address"
        }
      ],
      "stateMutability": "view",
      "type": "function"
    },
    {
      "inputs": [],
      "name": "pits",
      "outputs": [
        {
          "internalType": "contract IPits",
          "name": "",
          "type": "address"
        }
      ],
      "stateMutability": "view",
      "type": "function"
    },
    {
      "inputs": [
        {
          "internalType": "uint256[]",
          "name": "_tokenId",
          "type": "uint256[]"
        },
        {
          "internalType": "bool[]",
          "name": "_all",
          "type": "bool[]"
        }
      ],
      "name": "removeBones",
      "outputs": [],
      "stateMutability": "nonpayable",
      "type": "function"
    },
    {
      "inputs": [
        {
          "internalType": "uint256[]",
          "name": "_amount",
          "type": "uint256[]"
        },
        {
          "internalType": "uint256[]",
          "name": "_tokenId",
          "type": "uint256[]"
        }
      ],
      "name": "stakeBonesInDevelopmentGround",
      "outputs": [],
      "stateMutability": "nonpayable",
      "type": "function"
    }
  ],
  "transactionHash": "0x026211a3cb2df1340ef62473e8b99d317fc4e3800d0dfee1a21511e604a6b77f",
  "args": [],
  "numDeployments": 2,
  "solcInputHash": "3754ff12c22bbcd82280df154a5c110c",
  "bytecode": "0x608060405234801561001057600080fd5b50613f5a806100206000396000f3fe608060405234801561001057600080fd5b50600436106100cf5760003560e01c8063b00bec651161008c578063d88ad88711610066578063d88ad88714610210578063dd4fcc161461022e578063ea32dac51461025e578063ec42cb771461027a576100cf565b8063b00bec65146101ba578063c0c53b8b146101d8578063cb2fe05e146101f4576100cf565b80632a1f4146146100d45780633e39953a14610104578063547ac071146101345780635970f4531461015057806363c28db11461016c5780637fd4bfd51461019c575b600080fd5b6100ee60048036038101906100e99190613230565b610296565b6040516100fb919061326c565b60405180910390f35b61011e60048036038101906101199190613230565b610478565b60405161012b919061326c565b60405180910390f35b61014e600480360381019061014991906132ec565b61065f565b005b61016a600480360381019061016591906133c3565b610935565b005b610186600480360381019061018191906134d5565b610f57565b60405161019391906135c0565b60405180910390f35b6101a4610fee565b6040516101b19190613641565b60405180910390f35b6101c2611014565b6040516101cf919061367d565b60405180910390f35b6101f260048036038101906101ed9190613698565b61103a565b005b61020e60048036038101906102099190613741565b611236565b005b610218611301565b60405161022591906137e3565b60405180910390f35b61024860048036038101906102439190613230565b611327565b6040516102559190613949565b60405180910390f35b61027860048036038101906102739190613741565b6114c2565b005b610294600480360381019061028f9190613965565b61156b565b005b60008060066000848152602001908152602001600020604051806101000160405290816000820160009054906101000a900473ffffffffffffffffffffffffffffffffffffffff1673ffffffffffffffffffffffffffffffffffffffff1673ffffffffffffffffffffffffffffffffffffffff1681526020016000820160149054906101000a900467ffffffffffffffff1667ffffffffffffffff1667ffffffffffffffff1681526020016001820160009054906101000a900467ffffffffffffffff1667ffffffffffffffff1667ffffffffffffffff1681526020016001820160089054906101000a900467ffffffffffffffff1667ffffffffffffffff1667ffffffffffffffff1681526020016001820160109054906101000a900467ffffffffffffffff1667ffffffffffffffff1667ffffffffffffffff16815260200160028201548152602001600382015481526020016004820160009054906101000a900460ff16600281111561040f5761040e613830565b5b600281111561042157610420613830565b5b8152505090506104708160a00151826040015167ffffffffffffffff168360c0015186600160009054906101000a900473ffffffffffffffffffffffffffffffffffffffff16600360046115ab565b915050919050565b60008060066000848152602001908152602001600020604051806101000160405290816000820160009054906101000a900473ffffffffffffffffffffffffffffffffffffffff1673ffffffffffffffffffffffffffffffffffffffff1673ffffffffffffffffffffffffffffffffffffffff1681526020016000820160149054906101000a900467ffffffffffffffff1667ffffffffffffffff1667ffffffffffffffff1681526020016001820160009054906101000a900467ffffffffffffffff1667ffffffffffffffff1667ffffffffffffffff1681526020016001820160089054906101000a900467ffffffffffffffff1667ffffffffffffffff1667ffffffffffffffff1681526020016001820160109054906101000a900467ffffffffffffffff1667ffffffffffffffff1667ffffffffffffffff16815260200160028201548152602001600382015481526020016004820160009054906101000a900460ff1660028111156105f1576105f0613830565b5b600281111561060357610602613830565b5b8152505090506106578160c00151826020015167ffffffffffffffff16836080015167ffffffffffffffff16600160009054906101000a900473ffffffffffffffffffffffffffffffffffffffff166116c4565b915050919050565b61068a600160009054906101000a900473ffffffffffffffffffffffffffffffffffffffff16611741565b610696848484846117e9565b60005b8484905081101561092e576000808484848181106106ba576106b96139b2565b5b905060200201358787858181106106d4576106d36139b2565b5b9050602002013591509150600060066000848152602001908152602001600020905081600060029054906101000a900473ffffffffffffffffffffffffffffffffffffffff1673ffffffffffffffffffffffffffffffffffffffff166370a08231336040518263ffffffff1660e01b815260040161075291906139f0565b602060405180830381865afa15801561076f573d6000803e3d6000fd5b505050506040513d601f19601f820116820180604052508101906107939190613a20565b10156107cb576040517f7276110900000000000000000000000000000000000000000000000000000000815260040160405180910390fd5b3373ffffffffffffffffffffffffffffffffffffffff168160000160009054906101000a900473ffffffffffffffffffffffffffffffffffffffff1673ffffffffffffffffffffffffffffffffffffffff1614610854576040517fb47f2b3300000000000000000000000000000000000000000000000000000000815260040160405180910390fd5b6000683635c9adc5dea000008361086b9190613a7c565b146108a2576040517f1d823d0700000000000000000000000000000000000000000000000000000000815260040160405180910390fd5b6108d0600060029054906101000a900473ffffffffffffffffffffffffffffffffffffffff1633308561182e565b6108db81848461187e565b82823373ffffffffffffffffffffffffffffffffffffffff167f1004c640a4c8dbc3c9dd5ff33837d99e4882aaf2b20fb8e7c419fc83c8ca5bd060405160405180910390a4836001019350505050610699565b5050505050565b6000610943878787876117e9565b828290508585905014610982576040517f22cb666100000000000000000000000000000000000000000000000000000000815260040160405180910390fd5b6109ad600160009054906101000a900473ffffffffffffffffffffffffffffffffffffffff16611741565b5b86869050811015610f4e576000808888848181106109cf576109ce6139b2565b5b905060200201358787858181106109e9576109e86139b2565b5b905060200201359150915060006006600084815260200190815260200160002090506064600260009054906101000a900473ffffffffffffffffffffffffffffffffffffffff1673ffffffffffffffffffffffffffffffffffffffff1663f822a5b2856040518263ffffffff1660e01b8152600401610a68919061326c565b602060405180830381865afa158015610a85573d6000803e3d6000fd5b505050506040513d601f19601f82011682018060405250810190610aa99190613a20565b1015610ae1576040517f7f36105d00000000000000000000000000000000000000000000000000000000815260040160405180910390fd5b3373ffffffffffffffffffffffffffffffffffffffff16600260009054906101000a900473ffffffffffffffffffffffffffffffffffffffff1673ffffffffffffffffffffffffffffffffffffffff16636352211e856040518263ffffffff1660e01b8152600401610b53919061326c565b602060405180830381865afa158015610b70573d6000803e3d6000fd5b505050506040513d601f19601f82011682018060405250810190610b949190613ac2565b73ffffffffffffffffffffffffffffffffffffffff1614610be1576040517f091fe61c00000000000000000000000000000000000000000000000000000000815260040160405180910390fd5b610bea8261194d565b610c20576040517fabf20e8f00000000000000000000000000000000000000000000000000000000815260040160405180910390fd5b600260009054906101000a900473ffffffffffffffffffffffffffffffffffffffff1673ffffffffffffffffffffffffffffffffffffffff166323b872dd3330866040518463ffffffff1660e01b8152600401610c7f93929190613aef565b600060405180830381600087803b158015610c9957600080fd5b505af1158015610cad573d6000803e3d6000fd5b50505050338160000160006101000a81548173ffffffffffffffffffffffffffffffffffffffff021916908373ffffffffffffffffffffffffffffffffffffffff160217905550428160010160086101000a81548167ffffffffffffffff021916908367ffffffffffffffff160217905550818160000160146101000a81548167ffffffffffffffff021916908367ffffffffffffffff160217905550428160010160106101000a81548167ffffffffffffffff021916908367ffffffffffffffff160217905550858585818110610d8857610d876139b2565b5b9050602002016020810190610d9d9190613b4b565b8160040160006101000a81548160ff02191690836002811115610dc357610dc2613830565b5b0217905550600160009054906101000a900473ffffffffffffffffffffffffffffffffffffffff1673ffffffffffffffffffffffffffffffffffffffff16631b688d9f6040518163ffffffff1660e01b8152600401602060405180830381865afa158015610e35573d6000803e3d6000fd5b505050506040513d601f19601f82011682018060405250810190610e599190613a20565b8160030181905550600560003373ffffffffffffffffffffffffffffffffffffffff1673ffffffffffffffffffffffffffffffffffffffff16815260200190815260200160002083908060018154018082558091505060019003906000526020600020016000909190919091505581833373ffffffffffffffffffffffffffffffffffffffff167ff0a4b106684863ac7bbc666f47a082e4f6a197f11447743c5347b3344b6b527e428a8a8a818110610f1557610f146139b2565b5b9050602002016020810190610f2a9190613b4b565b604051610f38929190613b87565b60405180910390a48360010193505050506109ae565b50505050505050565b6060600560008373ffffffffffffffffffffffffffffffffffffffff1673ffffffffffffffffffffffffffffffffffffffff168152602001908152602001600020805480602002602001604051908101604052809291908181526020018280548015610fe257602002820191906000526020600020905b815481526020019060010190808311610fce575b50505050509050919050565b600160009054906101000a900473ffffffffffffffffffffffffffffffffffffffff1681565b600260009054906101000a900473ffffffffffffffffffffffffffffffffffffffff1681565b60008060019054906101000a900460ff1615905080801561106b5750600160008054906101000a900460ff1660ff16105b80611098575061107a30611976565b1580156110975750600160008054906101000a900460ff1660ff16145b5b6110d7576040517f08c379a00000000000000000000000000000000000000000000000000000000081526004016110ce90613c33565b60405180910390fd5b60016000806101000a81548160ff021916908360ff1602179055508015611114576001600060016101000a81548160ff0219169083151502179055505b81600060026101000a81548173ffffffffffffffffffffffffffffffffffffffff021916908373ffffffffffffffffffffffffffffffffffffffff16021790555083600160006101000a81548173ffffffffffffffffffffffffffffffffffffffff021916908373ffffffffffffffffffffffffffffffffffffffff16021790555082600260006101000a81548173ffffffffffffffffffffffffffffffffffffffff021916908373ffffffffffffffffffffffffffffffffffffffff16021790555080156112305760008060016101000a81548160ff0219169083151502179055507f7f26b83ff96e1f2b6a682f133852f6798a09c465da95921460cefb384740249860016040516112279190613c9b565b60405180910390a15b50505050565b818190508484905014611275576040517f22cb666100000000000000000000000000000000000000000000000000000000815260040160405180910390fd5b60005b848490508110156112fa576112a5858583818110611299576112986139b2565b5b90506020020135611999565b6112ef8585838181106112bb576112ba6139b2565b5b905060200201358484848181106112d5576112d46139b2565b5b90506020020160208101906112ea9190613cee565b611d55565b806001019050611278565b5050505050565b600060029054906101000a900473ffffffffffffffffffffffffffffffffffffffff1681565b61132f61315b565b60066000838152602001908152602001600020604051806101000160405290816000820160009054906101000a900473ffffffffffffffffffffffffffffffffffffffff1673ffffffffffffffffffffffffffffffffffffffff1673ffffffffffffffffffffffffffffffffffffffff1681526020016000820160149054906101000a900467ffffffffffffffff1667ffffffffffffffff1667ffffffffffffffff1681526020016001820160009054906101000a900467ffffffffffffffff1667ffffffffffffffff1667ffffffffffffffff1681526020016001820160089054906101000a900467ffffffffffffffff1667ffffffffffffffff1667ffffffffffffffff1681526020016001820160109054906101000a900467ffffffffffffffff1667ffffffffffffffff1667ffffffffffffffff16815260200160028201548152602001600382015481526020016004820160009054906101000a900460ff1660028111156114a5576114a4613830565b5b60028111156114b7576114b6613830565b5b815250509050919050565b818190508484905014611501576040517f22cb666100000000000000000000000000000000000000000000000000000000815260040160405180910390fd5b60005b8484905081101561156457611559858583818110611525576115246139b2565b5b9050602002013584848481811061153f5761153e6139b2565b5b90506020020160208101906115549190613cee565b612233565b806001019050611504565b5050505050565b60005b828290508110156115a65761159b83838381811061158f5761158e6139b2565b5b905060200201356125a1565b80600101905061156e565b505050565b60008088036115bd57600090506116b9565b600080600190505b88811161167e576000620151808660008a8152602001908152602001600020600084815260200190815260200160002054426116019190613d4a565b61160b9190613d7e565b905060008560008a815260200190815260200160002060008860008c8152602001908152602001600020600086815260200190815260200160002054815260200190815260200160002054905080826116649190613daf565b8461166f9190613df1565b935082600101925050506115c5565b5061271068056bc75e2d631000006116968988612a15565b6116a09190613daf565b826116ab9190613d4a565b6116b59190613d7e565b9150505b979650505050505050565b60008084036116d65760009050611739565b60006116e185612e2f565b905060006201518085426116f59190613d4a565b6116ff9190613d7e565b9050670de0b6b3a76400006117148886612a15565b82846117209190613daf565b61172a9190613d4a565b6117349190613daf565b925050505b949350505050565b8073ffffffffffffffffffffffffffffffffffffffff1663ae4b37e46040518163ffffffff1660e01b8152600401602060405180830381865afa15801561178c573d6000803e3d6000fd5b505050506040513d601f19601f820116820180604052508101906117b09190613e3a565b6117e6576040517f288de97200000000000000000000000000000000000000000000000000000000815260040160405180910390fd5b50565b818190508484905014611828576040517f22cb666100000000000000000000000000000000000000000000000000000000815260040160405180910390fd5b50505050565b6040516323b872dd600052836020528260405281606052602060006064601c6000895af13d15600160005114171661186e57637939f4246000526004601cfd5b6000606052806040525050505050565b80836002016000828254019250508190555082600101600081819054906101000a900467ffffffffffffffff1660010191906101000a81548167ffffffffffffffff021916908367ffffffffffffffff1602179055508060046000848152602001908152602001600020600042815260200190815260200160002081905550426003600084815260200190815260200160002060008560010160009054906101000a900467ffffffffffffffff1667ffffffffffffffff16815260200190815260200160002081905550505050565b60006241eb0082148061196257506283d60082145b8061196f575062c5c10082145b9050919050565b6000808273ffffffffffffffffffffffffffffffffffffffff163b119050919050565b600060066000838152602001908152602001600020604051806101000160405290816000820160009054906101000a900473ffffffffffffffffffffffffffffffffffffffff1673ffffffffffffffffffffffffffffffffffffffff1673ffffffffffffffffffffffffffffffffffffffff1681526020016000820160149054906101000a900467ffffffffffffffff1667ffffffffffffffff1667ffffffffffffffff1681526020016001820160009054906101000a900467ffffffffffffffff1667ffffffffffffffff1667ffffffffffffffff1681526020016001820160089054906101000a900467ffffffffffffffff1667ffffffffffffffff1667ffffffffffffffff1681526020016001820160109054906101000a900467ffffffffffffffff1667ffffffffffffffff1667ffffffffffffffff16815260200160028201548152602001600382015481526020016004820160009054906101000a900460ff166002811115611b1157611b10613830565b5b6002811115611b2357611b22613830565b5b815250509050600080611b3584610296565b8360e001519150915060006002811115611b5257611b51613830565b5b816002811115611b6557611b64613830565b5b03611bfe57600260009054906101000a900473ffffffffffffffffffffffffffffffffffffffff1673ffffffffffffffffffffffffffffffffffffffff1663743f4e9485846040518363ffffffff1660e01b8152600401611bc7929190613e67565b600060405180830381600087803b158015611be157600080fd5b505af1158015611bf5573d6000803e3d6000fd5b50505050611d4f565b60016002811115611c1257611c11613830565b5b816002811115611c2557611c24613830565b5b03611cbe57600260009054906101000a900473ffffffffffffffffffffffffffffffffffffffff1673ffffffffffffffffffffffffffffffffffffffff1663067ea39285846040518363ffffffff1660e01b8152600401611c87929190613e67565b600060405180830381600087803b158015611ca157600080fd5b505af1158015611cb5573d6000803e3d6000fd5b50505050611d4e565b600260009054906101000a900473ffffffffffffffffffffffffffffffffffffffff1673ffffffffffffffffffffffffffffffffffffffff1663e0c5057785846040518363ffffffff1660e01b8152600401611d1b929190613e67565b600060405180830381600087803b158015611d3557600080fd5b505af1158015611d49573d6000803e3d6000fd5b505050505b5b50505050565b600060066000848152602001908152602001600020604051806101000160405290816000820160009054906101000a900473ffffffffffffffffffffffffffffffffffffffff1673ffffffffffffffffffffffffffffffffffffffff1673ffffffffffffffffffffffffffffffffffffffff1681526020016000820160149054906101000a900467ffffffffffffffff1667ffffffffffffffff1667ffffffffffffffff1681526020016001820160009054906101000a900467ffffffffffffffff1667ffffffffffffffff1667ffffffffffffffff1681526020016001820160089054906101000a900467ffffffffffffffff1667ffffffffffffffff1667ffffffffffffffff1681526020016001820160109054906101000a900467ffffffffffffffff1667ffffffffffffffff1667ffffffffffffffff16815260200160028201548152602001600382015481526020016004820160009054906101000a900460ff166002811115611ecd57611ecc613830565b5b6002811115611edf57611ede613830565b5b81525050905060008160a0015103611f23576040517f9b4bb81b00000000000000000000000000000000000000000000000000000000815260040160405180910390fd5b600080600190506000805b846040015167ffffffffffffffff1683116120ea57600080600360008a8152602001908152602001600020600086815260200190815260200160002054600360008b81526020019081526020016000206000600188018152602001908152602001600020549150915062278d00820142108015611fa9575087155b15611fb55750506120df565b62278d00820142108015611fc65750875b611ff957600460008a81526020019081526020016000206000838152602001908152602001600020548401935083612035565b6002600460008b81526020019081526020016000206000848152602001908152602001600020548161202e5761202d613a4d565b5b0484019350835b50878061205057506001876040015167ffffffffffffffff16145b6120815780600360008b815260200190815260200160002060008781526020019081526020016000208190556120ab565b6000600360008b815260200190815260200160002060008781526020019081526020016000208190555b506000600460008b815260200190815260200160002060008481526020019081526020016000208190555082600101925050505b826001019250611f2e565b806006600089815260200190815260200160002060010160008282829054906101000a900467ffffffffffffffff160392506101000a81548167ffffffffffffffff021916908367ffffffffffffffff160217905550816006600089815260200190815260200160002060020160008282540392505081905550818560a001510393506000841415801561217b5750855b156121af576121ae600060029054906101000a900473ffffffffffffffffffffffffffffffffffffffff16600186612e63565b5b600082146121e5576121e4600060029054906101000a900473ffffffffffffffffffffffffffffffffffffffff163386612e63565b5b81873373ffffffffffffffffffffffffffffffffffffffff167fa720e44767e2cddb37cfa697023b1f3875d107b58722b1cb628083a465290af860405160405180910390a450505050505050565b600060066000848152602001908152602001600020604051806101000160405290816000820160009054906101000a900473ffffffffffffffffffffffffffffffffffffffff1673ffffffffffffffffffffffffffffffffffffffff1673ffffffffffffffffffffffffffffffffffffffff1681526020016000820160149054906101000a900467ffffffffffffffff1667ffffffffffffffff1667ffffffffffffffff1681526020016001820160009054906101000a900467ffffffffffffffff1667ffffffffffffffff1667ffffffffffffffff1681526020016001820160089054906101000a900467ffffffffffffffff1667ffffffffffffffff1667ffffffffffffffff1681526020016001820160109054906101000a900467ffffffffffffffff1667ffffffffffffffff1667ffffffffffffffff16815260200160028201548152602001600382015481526020016004820160009054906101000a900460ff1660028111156123ab576123aa613830565b5b60028111156123bd576123bc613830565b5b8152505090503373ffffffffffffffffffffffffffffffffffffffff16816000015173ffffffffffffffffffffffffffffffffffffffff161461242c576040517f091fe61c00000000000000000000000000000000000000000000000000000000815260040160405180910390fd5b600061243784610478565b905060008103612473576040517f9b4bb81b00000000000000000000000000000000000000000000000000000000815260040160405180910390fd5b426006600086815260200190815260200160002060010160106101000a81548167ffffffffffffffff021916908367ffffffffffffffff1602179055508261254957600060029054906101000a900473ffffffffffffffffffffffffffffffffffffffff1673ffffffffffffffffffffffffffffffffffffffff166340c10f1933836040518363ffffffff1660e01b8152600401612512929190613e90565b600060405180830381600087803b15801561252c57600080fd5b505af1158015612540573d6000803e3d6000fd5b50505050612554565b6125538482612eac565b5b821515843373ffffffffffffffffffffffffffffffffffffffff167f10fffc2725e2f04d2e9a7aa7762d3db31dd4051420267e5be076a5b13e8bb07760405160405180910390a450505050565b600060066000838152602001908152602001600020604051806101000160405290816000820160009054906101000a900473ffffffffffffffffffffffffffffffffffffffff1673ffffffffffffffffffffffffffffffffffffffff1673ffffffffffffffffffffffffffffffffffffffff1681526020016000820160149054906101000a900467ffffffffffffffff1667ffffffffffffffff1667ffffffffffffffff1681526020016001820160009054906101000a900467ffffffffffffffff1667ffffffffffffffff1667ffffffffffffffff1681526020016001820160089054906101000a900467ffffffffffffffff1667ffffffffffffffff1667ffffffffffffffff1681526020016001820160109054906101000a900467ffffffffffffffff1667ffffffffffffffff1667ffffffffffffffff16815260200160028201548152602001600382015481526020016004820160009054906101000a900460ff16600281111561271957612718613830565b5b600281111561272b5761272a613830565b5b8152505090503373ffffffffffffffffffffffffffffffffffffffff16816000015173ffffffffffffffffffffffffffffffffffffffff161461279a576040517f091fe61c00000000000000000000000000000000000000000000000000000000815260040160405180910390fd5b806020015181606001516127ae9190613eb9565b67ffffffffffffffff164210156127f1576040517ff5dcc1e300000000000000000000000000000000000000000000000000000000815260040160405180910390fd5b60006127fc83610478565b111561280e5761280d826000612233565b5b60008160a00151111561282757612826826001611d55565b5b61286f600560003373ffffffffffffffffffffffffffffffffffffffff1673ffffffffffffffffffffffffffffffffffffffff1681526020019081526020016000208361309d565b60066000838152602001908152602001600020600080820160006101000a81549073ffffffffffffffffffffffffffffffffffffffff02191690556000820160146101000a81549067ffffffffffffffff02191690556001820160006101000a81549067ffffffffffffffff02191690556001820160086101000a81549067ffffffffffffffff02191690556001820160106101000a81549067ffffffffffffffff0219169055600282016000905560038201600090556004820160006101000a81549060ff02191690555050600260009054906101000a900473ffffffffffffffffffffffffffffffffffffffff1673ffffffffffffffffffffffffffffffffffffffff166323b872dd3033856040518463ffffffff1660e01b815260040161299b93929190613aef565b600060405180830381600087803b1580156129b557600080fd5b505af11580156129c9573d6000803e3d6000fd5b50505050813373ffffffffffffffffffffffffffffffffffffffff167f26727522aa20721ee01410aea547e7fc187973e8abf49394168d3c9cb4c90cf260405160405180910390a35050565b6000808273ffffffffffffffffffffffffffffffffffffffff16631b688d9f6040518163ffffffff1660e01b8152600401602060405180830381865afa158015612a63573d6000803e3d6000fd5b505050506040513d601f19601f82011682018060405250810190612a879190613a20565b8414612c1b576000620151808473ffffffffffffffffffffffffffffffffffffffff16631b688d9f6040518163ffffffff1660e01b8152600401602060405180830381865afa158015612ade573d6000803e3d6000fd5b505050506040513d601f19601f82011682018060405250810190612b029190613a20565b42612b0d9190613d4a565b612b179190613d7e565b9050808473ffffffffffffffffffffffffffffffffffffffff1663d09f53c0876040518263ffffffff1660e01b8152600401612b53919061326c565b602060405180830381865afa158015612b70573d6000803e3d6000fd5b505050506040513d601f19601f82011682018060405250810190612b949190613a20565b8573ffffffffffffffffffffffffffffffffffffffff16637bd90cc26040518163ffffffff1660e01b8152600401602060405180830381865afa158015612bdf573d6000803e3d6000fd5b505050506040513d601f19601f82011682018060405250810190612c039190613a20565b612c0d9190613d4a565b612c179190613df1565b9150505b60008403612e19576000808473ffffffffffffffffffffffffffffffffffffffff16631b688d9f6040518163ffffffff1660e01b8152600401602060405180830381865afa158015612c71573d6000803e3d6000fd5b505050506040513d601f19601f82011682018060405250810190612c959190613a20565b03612ca1576000612d2d565b620151808473ffffffffffffffffffffffffffffffffffffffff16631b688d9f6040518163ffffffff1660e01b8152600401602060405180830381865afa158015612cf0573d6000803e3d6000fd5b505050506040513d601f19601f82011682018060405250810190612d149190613a20565b42612d1f9190613d4a565b612d299190613d7e565b9050805b508373ffffffffffffffffffffffffffffffffffffffff1663ae4b37e46040518163ffffffff1660e01b8152600401602060405180830381865afa158015612d79573d6000803e3d6000fd5b505050506040513d601f19601f82011682018060405250810190612d9d9190613e3a565b15612e14578373ffffffffffffffffffffffffffffffffffffffff16637bd90cc26040518163ffffffff1660e01b8152600401602060405180830381865afa158015612ded573d6000803e3d6000fd5b505050506040513d601f19601f82011682018060405250810190612e119190613a20565b90505b809150505b600a81612e269190613daf565b91505092915050565b60006241eb008203612e4057600a90505b6283d6008203612e4f57603290505b62c5c1008203612e5e57606490505b919050565b81601a5280603a5269a9059cbb00000000000060005260206000604460166000875af13d156001600051141716612ea2576390b8ec186000526004601cfd5b6000603a52505050565b6000683635c9adc5dea0000082612ec39190613a7c565b9050818103612efe576040517f1d823d0700000000000000000000000000000000000000000000000000000000815260040160405180910390fd5b60008114612f9657600060029054906101000a900473ffffffffffffffffffffffffffffffffffffffff1673ffffffffffffffffffffffffffffffffffffffff166340c10f1933836040518363ffffffff1660e01b8152600401612f63929190613e90565b600060405180830381600087803b158015612f7d57600080fd5b505af1158015612f91573d6000803e3d6000fd5b505050505b60008183612fa49190613d4a565b9050612fc360066000868152602001908152602001600020858361187e565b600060029054906101000a900473ffffffffffffffffffffffffffffffffffffffff1673ffffffffffffffffffffffffffffffffffffffff166340c10f1930836040518363ffffffff1660e01b8152600401613020929190613e90565b600060405180830381600087803b15801561303a57600080fd5b505af115801561304e573d6000803e3d6000fd5b5050505083813373ffffffffffffffffffffffffffffffffffffffff167f1004c640a4c8dbc3c9dd5ff33837d99e4882aaf2b20fb8e7c419fc83c8ca5bd060405160405180910390a450505050565b60005b828054905081101561315657818382815481106130c0576130bf6139b2565b5b90600052602060002001540361314b5782600184805490506130e29190613d4a565b815481106130f3576130f26139b2565b5b9060005260206000200154838281548110613111576131106139b2565b5b9060005260206000200181905550828054806131305761312f613ef5565b5b60019003818190600052602060002001600090559055613156565b8060010190506130a0565b505050565b604051806101000160405280600073ffffffffffffffffffffffffffffffffffffffff168152602001600067ffffffffffffffff168152602001600067ffffffffffffffff168152602001600067ffffffffffffffff168152602001600067ffffffffffffffff1681526020016000815260200160008152602001600060028111156131ea576131e9613830565b5b81525090565b600080fd5b600080fd5b6000819050919050565b61320d816131fa565b811461321857600080fd5b50565b60008135905061322a81613204565b92915050565b600060208284031215613246576132456131f0565b5b60006132548482850161321b565b91505092915050565b613266816131fa565b82525050565b6000602082019050613281600083018461325d565b92915050565b600080fd5b600080fd5b600080fd5b60008083601f8401126132ac576132ab613287565b5b8235905067ffffffffffffffff8111156132c9576132c861328c565b5b6020830191508360208202830111156132e5576132e4613291565b5b9250929050565b60008060008060408587031215613306576133056131f0565b5b600085013567ffffffffffffffff811115613324576133236131f5565b5b61333087828801613296565b9450945050602085013567ffffffffffffffff811115613353576133526131f5565b5b61335f87828801613296565b925092505092959194509250565b60008083601f84011261338357613382613287565b5b8235905067ffffffffffffffff8111156133a05761339f61328c565b5b6020830191508360208202830111156133bc576133bb613291565b5b9250929050565b600080600080600080606087890312156133e0576133df6131f0565b5b600087013567ffffffffffffffff8111156133fe576133fd6131f5565b5b61340a89828a01613296565b9650965050602087013567ffffffffffffffff81111561342d5761342c6131f5565b5b61343989828a01613296565b9450945050604087013567ffffffffffffffff81111561345c5761345b6131f5565b5b61346889828a0161336d565b92509250509295509295509295565b600073ffffffffffffffffffffffffffffffffffffffff82169050919050565b60006134a282613477565b9050919050565b6134b281613497565b81146134bd57600080fd5b50565b6000813590506134cf816134a9565b92915050565b6000602082840312156134eb576134ea6131f0565b5b60006134f9848285016134c0565b91505092915050565b600081519050919050565b600082825260208201905092915050565b6000819050602082019050919050565b613537816131fa565b82525050565b6000613549838361352e565b60208301905092915050565b6000602082019050919050565b600061356d82613502565b613577818561350d565b93506135828361351e565b8060005b838110156135b357815161359a888261353d565b97506135a583613555565b925050600181019050613586565b5085935050505092915050565b600060208201905081810360008301526135da8184613562565b905092915050565b6000819050919050565b60006136076136026135fd84613477565b6135e2565b613477565b9050919050565b6000613619826135ec565b9050919050565b600061362b8261360e565b9050919050565b61363b81613620565b82525050565b60006020820190506136566000830184613632565b92915050565b60006136678261360e565b9050919050565b6136778161365c565b82525050565b6000602082019050613692600083018461366e565b92915050565b6000806000606084860312156136b1576136b06131f0565b5b60006136bf868287016134c0565b93505060206136d0868287016134c0565b92505060406136e1868287016134c0565b9150509250925092565b60008083601f84011261370157613700613287565b5b8235905067ffffffffffffffff81111561371e5761371d61328c565b5b60208301915083602082028301111561373a57613739613291565b5b9250929050565b6000806000806040858703121561375b5761375a6131f0565b5b600085013567ffffffffffffffff811115613779576137786131f5565b5b61378587828801613296565b9450945050602085013567ffffffffffffffff8111156137a8576137a76131f5565b5b6137b4878288016136eb565b925092505092959194509250565b60006137cd8261360e565b9050919050565b6137dd816137c2565b82525050565b60006020820190506137f860008301846137d4565b92915050565b61380781613497565b82525050565b600067ffffffffffffffff82169050919050565b61382a8161380d565b82525050565b7f4e487b7100000000000000000000000000000000000000000000000000000000600052602160045260246000fd5b600381106138705761386f613830565b5b50565b60008190506138818261385f565b919050565b600061389182613873565b9050919050565b6138a181613886565b82525050565b610100820160008201516138be60008501826137fe565b5060208201516138d16020850182613821565b5060408201516138e46040850182613821565b5060608201516138f76060850182613821565b50608082015161390a6080850182613821565b5060a082015161391d60a085018261352e565b5060c082015161393060c085018261352e565b5060e082015161394360e0850182613898565b50505050565b60006101008201905061395f60008301846138a7565b92915050565b6000806020838503121561397c5761397b6131f0565b5b600083013567ffffffffffffffff81111561399a576139996131f5565b5b6139a685828601613296565b92509250509250929050565b7f4e487b7100000000000000000000000000000000000000000000000000000000600052603260045260246000fd5b6139ea81613497565b82525050565b6000602082019050613a0560008301846139e1565b92915050565b600081519050613a1a81613204565b92915050565b600060208284031215613a3657613a356131f0565b5b6000613a4484828501613a0b565b91505092915050565b7f4e487b7100000000000000000000000000000000000000000000000000000000600052601260045260246000fd5b6000613a87826131fa565b9150613a92836131fa565b925082613aa257613aa1613a4d565b5b828206905092915050565b600081519050613abc816134a9565b92915050565b600060208284031215613ad857613ad76131f0565b5b6000613ae684828501613aad565b91505092915050565b6000606082019050613b0460008301866139e1565b613b1160208301856139e1565b613b1e604083018461325d565b949350505050565b60038110613b3357600080fd5b50565b600081359050613b4581613b26565b92915050565b600060208284031215613b6157613b606131f0565b5b6000613b6f84828501613b36565b91505092915050565b613b8181613886565b82525050565b6000604082019050613b9c600083018561325d565b613ba96020830184613b78565b9392505050565b600082825260208201905092915050565b7f496e697469616c697a61626c653a20636f6e747261637420697320616c72656160008201527f647920696e697469616c697a6564000000000000000000000000000000000000602082015250565b6000613c1d602e83613bb0565b9150613c2882613bc1565b604082019050919050565b60006020820190508181036000830152613c4c81613c10565b9050919050565b6000819050919050565b600060ff82169050919050565b6000613c85613c80613c7b84613c53565b6135e2565b613c5d565b9050919050565b613c9581613c6a565b82525050565b6000602082019050613cb06000830184613c8c565b92915050565b60008115159050919050565b613ccb81613cb6565b8114613cd657600080fd5b50565b600081359050613ce881613cc2565b92915050565b600060208284031215613d0457613d036131f0565b5b6000613d1284828501613cd9565b91505092915050565b7f4e487b7100000000000000000000000000000000000000000000000000000000600052601160045260246000fd5b6000613d55826131fa565b9150613d60836131fa565b9250828203905081811115613d7857613d77613d1b565b5b92915050565b6000613d89826131fa565b9150613d94836131fa565b925082613da457613da3613a4d565b5b828204905092915050565b6000613dba826131fa565b9150613dc5836131fa565b9250828202613dd3816131fa565b91508282048414831517613dea57613de9613d1b565b5b5092915050565b6000613dfc826131fa565b9150613e07836131fa565b9250828201905080821115613e1f57613e1e613d1b565b5b92915050565b600081519050613e3481613cc2565b92915050565b600060208284031215613e5057613e4f6131f0565b5b6000613e5e84828501613e25565b91505092915050565b6000604082019050613e7c600083018561325d565b613e89602083018461325d565b9392505050565b6000604082019050613ea560008301856139e1565b613eb2602083018461325d565b9392505050565b6000613ec48261380d565b9150613ecf8361380d565b9250828201905067ffffffffffffffff811115613eef57613eee613d1b565b5b92915050565b7f4e487b7100000000000000000000000000000000000000000000000000000000600052603160045260246000fdfea26469706673582212204e18a04c1eb73e4599a87adaac3178795ab19f9464e901ad1554e037d727adee64736f6c63430008110033",
  "devdoc": {
    "kind": "dev",
    "methods": {
      "claimDevelopmentGroundBonesReward(uint256[],bool[])": {
        "params": {
          "_stake": "Whether to stake the reward bones in the development ground",
          "_tokenId": "ID of the development ground"
        }
      },
      "enterDevelopmentGround(uint256[],uint256[],uint8[])": {
        "details": "Enters the DevelopmentGround by transferring the tokens from the sender to the contract and setting the development ground data such as owner, entry time, lock period, etc.",
        "params": {
          "_ground": "Array of grounds for each corresponding token",
          "_lockTime": "Array of lock times for each corresponding token",
          "_tokenId": "Array of token IDs to be transferred"
        }
      },
      "getDevelopmentGroundBonesReward(uint256)": {
        "details": "Returns the reward for the bones staked in the development ground.",
        "params": {
          "_tokenId": "The token ID for the development ground."
        },
        "returns": {
          "_0": "The reward for the bones staked in the development ground."
        }
      },
      "getDevelopmentGroundInfo(uint256)": {
        "details": "This function returns a DevelopmentGround struct containing information about a Development Ground token, specified by its ID, _tokenId.",
        "params": {
          "_tokenId": "ID of the Development Ground token to retrieve information for"
        },
        "returns": {
          "_0": "The DevelopmentGround struct containing information about the specified Development Ground token."
        }
      },
      "getPrimarySkill(uint256)": {
        "params": {
          "_tokenId": "ID of the development ground"
        },
        "returns": {
          "_0": "The primary skill level"
        }
      },
      "leaveDevelopmentGround(uint256[])": {
        "details": "Allows the owner to leave the development ground. This will transfer the token back to the owner and remove any bones staked in the development ground.",
        "params": {
          "_tokenId": "The token ID of the development ground to leave."
        }
      },
      "removeBones(uint256[],bool[])": {
        "details": "Removes bones from a specific development ground.",
        "params": {
          "_all": "Indicates whether to remove all bones or just a portion of them",
          "_tokenId": "The unique identifier for the development ground"
        }
      },
      "stakeBonesInDevelopmentGround(uint256[],uint256[])": {
        "details": "Stakes the bones in the DevelopmentGround by transferring the bones from the sender to the contract and updating the development ground data.",
        "params": {
          "_amount": "Array of amounts of bones to be transferred",
          "_tokenId": "Array of token IDs for the corresponding amounts of bones"
        }
      }
    },
    "version": 1
  },
  "userdoc": {
    "kind": "user",
    "methods": {
      "claimDevelopmentGroundBonesReward(uint256[],bool[])": {
        "notice": "This function allows the owner of multiple development grounds to claim rewards earned by them."
      },
      "getDevelopmentGroundInfo(uint256)": {
        "notice": "Retrieve information about a Development Ground token."
      },
      "getPrimarySkill(uint256)": {
        "notice": "This function retrieves the primary skill of the `_tokenId` development ground."
      }
    },
    "version": 1
  },
  "storageLayout": {
    "storage": [
      {
        "astId": 6,
        "contract": "contracts/DevelopmentGrounds.sol:DevelopmentGrounds",
        "label": "_initialized",
        "offset": 0,
        "slot": "0",
        "type": "t_uint8"
      },
      {
        "astId": 9,
        "contract": "contracts/DevelopmentGrounds.sol:DevelopmentGrounds",
        "label": "_initializing",
        "offset": 1,
        "slot": "0",
        "type": "t_bool"
      },
      {
        "astId": 4909,
        "contract": "contracts/DevelopmentGrounds.sol:DevelopmentGrounds",
        "label": "bones",
        "offset": 2,
        "slot": "0",
        "type": "t_contract(IBones)7911"
      },
      {
        "astId": 4912,
        "contract": "contracts/DevelopmentGrounds.sol:DevelopmentGrounds",
        "label": "pits",
        "offset": 0,
        "slot": "1",
        "type": "t_contract(IPits)7992"
      },
      {
        "astId": 4915,
        "contract": "contracts/DevelopmentGrounds.sol:DevelopmentGrounds",
        "label": "neandersmol",
        "offset": 0,
        "slot": "2",
        "type": "t_contract(INeandersmol)7962"
      },
      {
        "astId": 4951,
        "contract": "contracts/DevelopmentGrounds.sol:DevelopmentGrounds",
        "label": "trackTime",
        "offset": 0,
        "slot": "3",
        "type": "t_mapping(t_uint256,t_mapping(t_uint256,t_uint256))"
      },
      {
        "astId": 4957,
        "contract": "contracts/DevelopmentGrounds.sol:DevelopmentGrounds",
        "label": "trackToken",
        "offset": 0,
        "slot": "4",
        "type": "t_mapping(t_uint256,t_mapping(t_uint256,t_uint256))"
      },
      {
        "astId": 4962,
        "contract": "contracts/DevelopmentGrounds.sol:DevelopmentGrounds",
        "label": "ownerToTokens",
        "offset": 0,
        "slot": "5",
        "type": "t_mapping(t_address,t_array(t_uint256)dyn_storage)"
      },
      {
        "astId": 4967,
        "contract": "contracts/DevelopmentGrounds.sol:DevelopmentGrounds",
        "label": "developmentGround",
        "offset": 0,
        "slot": "6",
        "type": "t_mapping(t_uint256,t_struct(DevelopmentGround)8428_storage)"
      }
    ],
    "types": {
      "t_address": {
        "encoding": "inplace",
        "label": "address",
        "numberOfBytes": "20"
      },
      "t_array(t_uint256)dyn_storage": {
        "base": "t_uint256",
        "encoding": "dynamic_array",
        "label": "uint256[]",
        "numberOfBytes": "32"
      },
      "t_bool": {
        "encoding": "inplace",
        "label": "bool",
        "numberOfBytes": "1"
      },
      "t_contract(IBones)7911": {
        "encoding": "inplace",
        "label": "contract IBones",
        "numberOfBytes": "20"
      },
      "t_contract(INeandersmol)7962": {
        "encoding": "inplace",
        "label": "contract INeandersmol",
        "numberOfBytes": "20"
      },
      "t_contract(IPits)7992": {
        "encoding": "inplace",
        "label": "contract IPits",
        "numberOfBytes": "20"
      },
      "t_enum(Grounds)8457": {
        "encoding": "inplace",
        "label": "enum Grounds",
        "numberOfBytes": "1"
      },
      "t_mapping(t_address,t_array(t_uint256)dyn_storage)": {
        "encoding": "mapping",
        "key": "t_address",
        "label": "mapping(address => uint256[])",
        "numberOfBytes": "32",
        "value": "t_array(t_uint256)dyn_storage"
      },
      "t_mapping(t_uint256,t_mapping(t_uint256,t_uint256))": {
        "encoding": "mapping",
        "key": "t_uint256",
        "label": "mapping(uint256 => mapping(uint256 => uint256))",
        "numberOfBytes": "32",
        "value": "t_mapping(t_uint256,t_uint256)"
      },
      "t_mapping(t_uint256,t_struct(DevelopmentGround)8428_storage)": {
        "encoding": "mapping",
        "key": "t_uint256",
        "label": "mapping(uint256 => struct DevelopmentGround)",
        "numberOfBytes": "32",
        "value": "t_struct(DevelopmentGround)8428_storage"
      },
      "t_mapping(t_uint256,t_uint256)": {
        "encoding": "mapping",
        "key": "t_uint256",
        "label": "mapping(uint256 => uint256)",
        "numberOfBytes": "32",
        "value": "t_uint256"
      },
      "t_struct(DevelopmentGround)8428_storage": {
        "encoding": "inplace",
        "label": "struct DevelopmentGround",
        "members": [
          {
            "astId": 8412,
            "contract": "contracts/DevelopmentGrounds.sol:DevelopmentGrounds",
            "label": "owner",
            "offset": 0,
            "slot": "0",
            "type": "t_address"
          },
          {
            "astId": 8414,
            "contract": "contracts/DevelopmentGrounds.sol:DevelopmentGrounds",
            "label": "lockPeriod",
            "offset": 20,
            "slot": "0",
            "type": "t_uint64"
          },
          {
            "astId": 8416,
            "contract": "contracts/DevelopmentGrounds.sol:DevelopmentGrounds",
            "label": "amountPosition",
            "offset": 0,
            "slot": "1",
            "type": "t_uint64"
          },
          {
            "astId": 8418,
            "contract": "contracts/DevelopmentGrounds.sol:DevelopmentGrounds",
            "label": "entryTime",
            "offset": 8,
            "slot": "1",
            "type": "t_uint64"
          },
          {
            "astId": 8420,
            "contract": "contracts/DevelopmentGrounds.sol:DevelopmentGrounds",
            "label": "lastRewardTime",
            "offset": 16,
            "slot": "1",
            "type": "t_uint64"
          },
          {
            "astId": 8422,
            "contract": "contracts/DevelopmentGrounds.sol:DevelopmentGrounds",
            "label": "bonesStaked",
            "offset": 0,
            "slot": "2",
            "type": "t_uint256"
          },
          {
            "astId": 8424,
            "contract": "contracts/DevelopmentGrounds.sol:DevelopmentGrounds",
            "label": "currentPitsLockPeriod",
            "offset": 0,
            "slot": "3",
            "type": "t_uint256"
          },
          {
            "astId": 8427,
            "contract": "contracts/DevelopmentGrounds.sol:DevelopmentGrounds",
            "label": "ground",
            "offset": 0,
            "slot": "4",
            "type": "t_enum(Grounds)8457"
          }
        ],
        "numberOfBytes": "160"
      },
      "t_uint256": {
        "encoding": "inplace",
        "label": "uint256",
        "numberOfBytes": "32"
      },
      "t_uint64": {
        "encoding": "inplace",
        "label": "uint64",
        "numberOfBytes": "8"
      },
      "t_uint8": {
        "encoding": "inplace",
        "label": "uint8",
        "numberOfBytes": "1"
      }
    }
  }
}