{
  "address": "0xd6D86293aC90f40de7ad5ad1E6E69C02459769c8",
  "abi": [
    {
      "inputs": [],
      "name": "BalanceIsInsufficient",
      "type": "error"
    },
    {
      "inputs": [],
      "name": "CsIsBellowHundred",
      "type": "error"
    },
    {
      "inputs": [],
      "name": "DevelopmentGroundIsLocked",
      "type": "error"
    },
    {
      "inputs": [],
      "name": "InvalidLockTime",
      "type": "error"
    },
    {
      "inputs": [],
      "name": "InvalidPos",
      "type": "error"
    },
    {
      "inputs": [],
      "name": "LengthsNotEqual",
      "type": "error"
    },
    {
      "inputs": [],
      "name": "NeandersmolIsNotInDevelopmentGround",
      "type": "error"
    },
    {
      "inputs": [],
      "name": "NeandersmolsIsLocked",
      "type": "error"
    },
    {
      "inputs": [],
      "name": "NewOwnerIsZeroAddress",
      "type": "error"
    },
    {
      "inputs": [],
      "name": "NoHandoverRequest",
      "type": "error"
    },
    {
      "inputs": [],
      "name": "NotYourToken",
      "type": "error"
    },
    {
      "inputs": [],
      "name": "Unauthorized",
      "type": "error"
    },
    {
      "inputs": [],
      "name": "WrongMultiple",
      "type": "error"
    },
    {
      "inputs": [],
      "name": "ZeroBalanceError",
      "type": "error"
    },
    {
      "anonymous": false,
      "inputs": [
        {
          "indexed": true,
          "internalType": "address",
          "name": "owner",
          "type": "address"
        },
        {
          "indexed": true,
          "internalType": "uint256",
          "name": "tokenId",
          "type": "uint256"
        },
        {
          "indexed": true,
          "internalType": "bool",
          "name": "stake",
          "type": "bool"
        }
      ],
      "name": "ClaimDevelopmentGroundBonesReward",
      "type": "event"
    },
    {
      "anonymous": false,
      "inputs": [
        {
          "indexed": true,
          "internalType": "address",
          "name": "owner",
          "type": "address"
        },
        {
          "indexed": true,
          "internalType": "uint256",
          "name": "tokenId",
          "type": "uint256"
        },
        {
          "indexed": true,
          "internalType": "uint256",
          "name": "lockTime",
          "type": "uint256"
        },
        {
          "indexed": false,
          "internalType": "uint256",
          "name": "entryTime",
          "type": "uint256"
        },
        {
          "indexed": false,
          "internalType": "enum Grounds",
          "name": "ground",
          "type": "uint8"
        }
      ],
      "name": "EnterDevelopmentGround",
      "type": "event"
    },
    {
      "anonymous": false,
      "inputs": [
        {
          "indexed": false,
          "internalType": "uint8",
          "name": "version",
          "type": "uint8"
        }
      ],
      "name": "Initialized",
      "type": "event"
    },
    {
      "anonymous": false,
      "inputs": [
        {
          "indexed": true,
          "internalType": "address",
          "name": "owner",
          "type": "address"
        },
        {
          "indexed": true,
          "internalType": "uint256",
          "name": "tokenId",
          "type": "uint256"
        }
      ],
      "name": "LeaveDevelopmentGround",
      "type": "event"
    },
    {
      "anonymous": false,
      "inputs": [
        {
          "indexed": true,
          "internalType": "address",
          "name": "pendingOwner",
          "type": "address"
        }
      ],
      "name": "OwnershipHandoverCanceled",
      "type": "event"
    },
    {
      "anonymous": false,
      "inputs": [
        {
          "indexed": true,
          "internalType": "address",
          "name": "pendingOwner",
          "type": "address"
        }
      ],
      "name": "OwnershipHandoverRequested",
      "type": "event"
    },
    {
      "anonymous": false,
      "inputs": [
        {
          "indexed": true,
          "internalType": "address",
          "name": "oldOwner",
          "type": "address"
        },
        {
          "indexed": true,
          "internalType": "address",
          "name": "newOwner",
          "type": "address"
        }
      ],
      "name": "OwnershipTransferred",
      "type": "event"
    },
    {
      "anonymous": false,
      "inputs": [
        {
          "indexed": true,
          "internalType": "address",
          "name": "owner",
          "type": "address"
        },
        {
          "indexed": true,
          "internalType": "uint256",
          "name": "tokenId",
          "type": "uint256"
        },
        {
          "indexed": true,
          "internalType": "uint256",
          "name": "amount",
          "type": "uint256"
        }
      ],
      "name": "RemoveBones",
      "type": "event"
    },
    {
      "anonymous": false,
      "inputs": [
        {
          "indexed": true,
          "internalType": "address",
          "name": "owner",
          "type": "address"
        },
        {
          "indexed": true,
          "internalType": "uint256",
          "name": "amount",
          "type": "uint256"
        },
        {
          "indexed": true,
          "internalType": "uint256",
          "name": "tokenId",
          "type": "uint256"
        }
      ],
      "name": "StakeBonesInDevelopmentGround",
      "type": "event"
    },
    {
      "inputs": [],
      "name": "bones",
      "outputs": [
        {
          "internalType": "contract IBones",
          "name": "",
          "type": "address"
        }
      ],
      "stateMutability": "view",
      "type": "function"
    },
    {
      "inputs": [
        {
          "internalType": "uint256",
          "name": "_tokenId",
          "type": "uint256"
        }
      ],
      "name": "bonesToTime",
      "outputs": [
        {
          "components": [
            {
              "internalType": "uint256",
              "name": "balance",
              "type": "uint256"
            },
            {
              "internalType": "uint256",
              "name": "timeStaked",
              "type": "uint256"
            }
          ],
          "internalType": "struct BonesFeInfo[]",
          "name": "",
          "type": "tuple[]"
        }
      ],
      "stateMutability": "view",
      "type": "function"
    },
    {
      "inputs": [
        {
          "internalType": "address",
          "name": "_owner",
          "type": "address"
        }
      ],
      "name": "calculateBones",
      "outputs": [
        {
          "internalType": "uint256",
          "name": "",
          "type": "uint256"
        },
        {
          "internalType": "uint256",
          "name": "",
          "type": "uint256"
        }
      ],
      "stateMutability": "view",
      "type": "function"
    },
    {
      "inputs": [],
      "name": "cancelOwnershipHandover",
      "outputs": [],
      "stateMutability": "payable",
      "type": "function"
    },
    {
      "inputs": [
        {
          "internalType": "uint256[]",
          "name": "_tokenId",
          "type": "uint256[]"
        },
        {
          "internalType": "bool[]",
          "name": "_stake",
          "type": "bool[]"
        }
      ],
      "name": "claimDevelopmentGroundBonesReward",
      "outputs": [],
      "stateMutability": "nonpayable",
      "type": "function"
    },
    {
      "inputs": [
        {
          "internalType": "address",
          "name": "pendingOwner",
          "type": "address"
        }
      ],
      "name": "completeOwnershipHandover",
      "outputs": [],
      "stateMutability": "payable",
      "type": "function"
    },
    {
      "inputs": [
        {
          "internalType": "uint256[]",
          "name": "_tokenId",
          "type": "uint256[]"
        },
        {
          "internalType": "uint256[]",
          "name": "_lockTime",
          "type": "uint256[]"
        },
        {
          "internalType": "enum Grounds[]",
          "name": "_ground",
          "type": "uint8[]"
        }
      ],
      "name": "enterDevelopmentGround",
      "outputs": [],
      "stateMutability": "nonpayable",
      "type": "function"
    },
    {
      "inputs": [
        {
          "internalType": "address",
          "name": "_owner",
          "type": "address"
        }
      ],
      "name": "getDevGroundFeInfo",
      "outputs": [
        {
          "components": [
            {
              "internalType": "uint96",
              "name": "timeLeft",
              "type": "uint96"
            },
            {
              "internalType": "uint96",
              "name": "daysStaked",
              "type": "uint96"
            },
            {
              "internalType": "uint64",
              "name": "stakedSmols",
              "type": "uint64"
            },
            {
              "internalType": "uint256",
              "name": "skillLevel",
              "type": "uint256"
            },
            {
              "internalType": "uint256",
              "name": "bonesAccured",
              "type": "uint256"
            },
            {
              "internalType": "enum Grounds",
              "name": "ground",
              "type": "uint8"
            }
          ],
          "internalType": "struct DevGroundFeInfo[]",
          "name": "",
          "type": "tuple[]"
        }
      ],
      "stateMutability": "view",
      "type": "function"
    },
    {
      "inputs": [
        {
          "internalType": "uint256",
          "name": "_tokenId",
          "type": "uint256"
        }
      ],
      "name": "getDevelopmentGroundBonesReward",
      "outputs": [
        {
          "internalType": "uint256",
          "name": "",
          "type": "uint256"
        }
      ],
      "stateMutability": "view",
      "type": "function"
    },
    {
      "inputs": [
        {
          "internalType": "uint256",
          "name": "_tokenId",
          "type": "uint256"
        }
      ],
      "name": "getDevelopmentGroundInfo",
      "outputs": [
        {
          "components": [
            {
              "internalType": "address",
              "name": "owner",
              "type": "address"
            },
            {
              "internalType": "uint64",
              "name": "lockPeriod",
              "type": "uint64"
            },
            {
              "internalType": "uint64",
              "name": "amountPosition",
              "type": "uint64"
            },
            {
              "internalType": "uint64",
              "name": "entryTime",
              "type": "uint64"
            },
            {
              "internalType": "uint64",
              "name": "lastRewardTime",
              "type": "uint64"
            },
            {
              "internalType": "uint256",
              "name": "bonesStaked",
              "type": "uint256"
            },
            {
              "internalType": "uint256",
              "name": "currentPitsLockPeriod",
              "type": "uint256"
            },
            {
              "internalType": "enum Grounds",
              "name": "ground",
              "type": "uint8"
            }
          ],
          "internalType": "struct DevelopmentGround",
          "name": "",
          "type": "tuple"
        }
      ],
      "stateMutability": "view",
      "type": "function"
    },
    {
      "inputs": [
        {
          "internalType": "uint256",
          "name": "_tokenId",
          "type": "uint256"
        }
      ],
      "name": "getPrimarySkill",
      "outputs": [
        {
          "internalType": "uint256",
          "name": "",
          "type": "uint256"
        }
      ],
      "stateMutability": "view",
      "type": "function"
    },
    {
      "inputs": [
        {
          "internalType": "address",
          "name": "_owner",
          "type": "address"
        }
      ],
      "name": "getStakedTokens",
      "outputs": [
        {
          "internalType": "uint256[]",
          "name": "",
          "type": "uint256[]"
        }
      ],
      "stateMutability": "view",
      "type": "function"
    },
    {
      "inputs": [
        {
          "internalType": "address",
          "name": "_pits",
          "type": "address"
        },
        {
          "internalType": "address",
          "name": "_neandersmol",
          "type": "address"
        },
        {
          "internalType": "address",
          "name": "_bones",
          "type": "address"
        }
      ],
      "name": "initialize",
      "outputs": [],
      "stateMutability": "nonpayable",
      "type": "function"
    },
    {
      "inputs": [
        {
          "internalType": "uint256[]",
          "name": "_tokenId",
          "type": "uint256[]"
        }
      ],
      "name": "leaveDevelopmentGround",
      "outputs": [],
      "stateMutability": "nonpayable",
      "type": "function"
    },
    {
      "inputs": [],
      "name": "neandersmol",
      "outputs": [
        {
          "internalType": "contract INeandersmol",
          "name": "",
          "type": "address"
        }
      ],
      "stateMutability": "view",
      "type": "function"
    },
    {
      "inputs": [],
      "name": "owner",
      "outputs": [
        {
          "internalType": "address",
          "name": "result",
          "type": "address"
        }
      ],
      "stateMutability": "view",
      "type": "function"
    },
    {
      "inputs": [
        {
          "internalType": "address",
          "name": "pendingOwner",
          "type": "address"
        }
      ],
      "name": "ownershipHandoverExpiresAt",
      "outputs": [
        {
          "internalType": "uint256",
          "name": "result",
          "type": "uint256"
        }
      ],
      "stateMutability": "view",
      "type": "function"
    },
    {
      "inputs": [],
      "name": "ownershipHandoverValidFor",
      "outputs": [
        {
          "internalType": "uint64",
          "name": "",
          "type": "uint64"
        }
      ],
      "stateMutability": "view",
      "type": "function"
    },
    {
      "inputs": [],
      "name": "pits",
      "outputs": [
        {
          "internalType": "contract IPits",
          "name": "",
          "type": "address"
        }
      ],
      "stateMutability": "view",
      "type": "function"
    },
    {
      "inputs": [
        {
          "internalType": "uint256[]",
          "name": "_tokenId",
          "type": "uint256[]"
        },
        {
          "internalType": "bool[]",
          "name": "_all",
          "type": "bool[]"
        }
      ],
      "name": "removeBones",
      "outputs": [],
      "stateMutability": "nonpayable",
      "type": "function"
    },
    {
      "inputs": [
        {
          "internalType": "uint256",
          "name": "_tokenId",
          "type": "uint256"
        },
        {
          "internalType": "uint256",
          "name": "_pos",
          "type": "uint256"
        }
      ],
      "name": "removeSingleBones",
      "outputs": [],
      "stateMutability": "nonpayable",
      "type": "function"
    },
    {
      "inputs": [],
      "name": "renounceOwnership",
      "outputs": [],
      "stateMutability": "payable",
      "type": "function"
    },
    {
      "inputs": [],
      "name": "requestOwnershipHandover",
      "outputs": [],
      "stateMutability": "payable",
      "type": "function"
    },
    {
      "inputs": [
        {
          "internalType": "address",
          "name": "_pits",
          "type": "address"
        },
        {
          "internalType": "address",
          "name": "_neandersmol",
          "type": "address"
        },
        {
          "internalType": "address",
          "name": "_bones",
          "type": "address"
        }
      ],
      "name": "setAddress",
      "outputs": [],
      "stateMutability": "nonpayable",
      "type": "function"
    },
    {
      "inputs": [
        {
          "internalType": "uint256[]",
          "name": "_amount",
          "type": "uint256[]"
        },
        {
          "internalType": "uint256[]",
          "name": "_tokenId",
          "type": "uint256[]"
        }
      ],
      "name": "stakeBonesInDevelopmentGround",
      "outputs": [],
      "stateMutability": "nonpayable",
      "type": "function"
    },
    {
      "inputs": [
        {
          "internalType": "address",
          "name": "newOwner",
          "type": "address"
        }
      ],
      "name": "transferOwnership",
      "outputs": [],
      "stateMutability": "payable",
      "type": "function"
    }
  ],
  "transactionHash": "0xcbe10d100b3fc4f52c2bf282c042b5735d738392c3d9975af173658b784abee0",
  "args": [],
  "numDeployments": 1,
  "solcInputHash": "bf95e44374a2853c6c9d95a5cb7cc8ee",
  "bytecode": "0x608060405234801561001057600080fd5b50615a9280620000216000396000f3fe6080604052600436106101815760003560e01c8063b00bec65116100d1578063d88ad8871161008a578063ec42cb7711610064578063ec42cb7714610546578063f04e283e1461056f578063f2fde38b1461058b578063fee81cf4146105a757610181565b8063d88ad887146104b5578063dd4fcc16146104e0578063ea32dac51461051d57610181565b8063b00bec65146103a7578063c0c53b8b146103d2578063c805c9af146103fb578063cb2fe05e14610424578063cf10078f1461044d578063d7533f021461048a57610181565b8063547ac0711161013e57806363c28db11161011857806363c28db11461030a578063715018a6146103475780637fd4bfd5146103515780638da5cb5b1461037c57610181565b8063547ac071146102ae57806354d1f13d146102d75780635970f453146102e157610181565b8063074f7eb3146101865780630a144076146101c357806325692962146102015780632a1f41461461020b5780633be08dab146102485780633e39953a14610271575b600080fd5b34801561019257600080fd5b506101ad60048036038101906101a891906148da565b6105e4565b6040516101ba9190614b0b565b60405180910390f35b3480156101cf57600080fd5b506101ea60048036038101906101e591906148da565b610828565b6040516101f8929190614b3c565b60405180910390f35b610209610934565b005b34801561021757600080fd5b50610232600480360381019061022d9190614b91565b610988565b60405161023f9190614bbe565b60405180910390f35b34801561025457600080fd5b5061026f600480360381019061026a9190614bd9565b610b6a565b005b34801561027d57600080fd5b5061029860048036038101906102939190614b91565b610c3a565b6040516102a59190614bbe565b60405180910390f35b3480156102ba57600080fd5b506102d560048036038101906102d09190614c91565b610e21565b005b6102df6110fd565b005b3480156102ed57600080fd5b5061030860048036038101906103039190614d68565b611139565b005b34801561031657600080fd5b50610331600480360381019061032c91906148da565b611760565b60405161033e9190614ecb565b60405180910390f35b61034f6117f7565b005b34801561035d57600080fd5b5061036661180b565b6040516103739190614f4c565b60405180910390f35b34801561038857600080fd5b50610391611831565b60405161039e9190614f76565b60405180910390f35b3480156103b357600080fd5b506103bc61183f565b6040516103c99190614fb2565b60405180910390f35b3480156103de57600080fd5b506103f960048036038101906103f49190614bd9565b611865565b005b34801561040757600080fd5b50610422600480360381019061041d9190614fcd565b6119b2565b005b34801561043057600080fd5b5061044b60048036038101906104469190615063565b611f8e565b005b34801561045957600080fd5b50610474600480360381019061046f9190614b91565b61205f565b60405161048191906151c2565b60405180910390f35b34801561049657600080fd5b5061049f61231f565b6040516104ac91906151f3565b60405180910390f35b3480156104c157600080fd5b506104ca61232a565b6040516104d7919061522f565b60405180910390f35b3480156104ec57600080fd5b5061050760048036038101906105029190614b91565b612350565b60405161051491906152fb565b60405180910390f35b34801561052957600080fd5b50610544600480360381019061053f9190615063565b6124eb565b005b34801561055257600080fd5b5061056d60048036038101906105689190615317565b61259a565b005b610589600480360381019061058491906148da565b6125e0565b005b6105a560048036038101906105a091906148da565b612621565b005b3480156105b357600080fd5b506105ce60048036038101906105c991906148da565b61264b565b6040516105db9190614bbe565b60405180910390f35b60606000600560008473ffffffffffffffffffffffffffffffffffffffff1673ffffffffffffffffffffffffffffffffffffffff16815260200190815260200160002080548060200260200160405190810160405280929190818152602001828054801561067157602002820191906000526020600020905b81548152602001906001019080831161065d575b505050505090506000815167ffffffffffffffff81111561069557610694615364565b5b6040519080825280602002602001820160405280156106ce57816020015b6106bb614755565b8152602001906001900390816106b35790505b50905060005b815181101561081d5760008382815181106106f2576106f1615393565b5b60200260200101519050600061070782612350565b905060008160600151826020015161071f91906153f1565b67ffffffffffffffff169050600081421061073b576000610756565b62015180428361074b919061542d565b6107559190615490565b5b90506040518060c00160405280826bffffffffffffffffffffffff168152602001846060015167ffffffffffffffff1642610791919061542d565b6bffffffffffffffffffffffff1681526020018567ffffffffffffffff1681526020016107bd86610988565b81526020016107cb86610c3a565b81526020018460e0015160028111156107e7576107e6614996565b5b8152508686815181106107fd576107fc615393565b5b60200260200101819052505050505080610816906154c1565b90506106d4565b819350505050919050565b6000806000600560008573ffffffffffffffffffffffffffffffffffffffff1673ffffffffffffffffffffffffffffffffffffffff1681526020019081526020016000208054806020026020016040519081016040528092919081815260200182805480156108b657602002820191906000526020600020905b8154815260200190600101908083116108a2575b5050505050905060008060005b8351811015610925576000806108f28684815181106108e5576108e4615393565b5b6020026020010151612666565b9150915081856109029190615509565b945080846109109190615509565b935050508061091e906154c1565b90506108c3565b50818194509450505050915091565b600061093e61231f565b67ffffffffffffffff164201905063389a75e1600c5233600052806020600c2055337fdbf36a107da19e49527a7176a1babf963b4b0ff8cde35ee35d6cd8f1f9ac7e1d600080a250565b60008060066000848152602001908152602001600020604051806101000160405290816000820160009054906101000a900473ffffffffffffffffffffffffffffffffffffffff1673ffffffffffffffffffffffffffffffffffffffff1673ffffffffffffffffffffffffffffffffffffffff1681526020016000820160149054906101000a900467ffffffffffffffff1667ffffffffffffffff1667ffffffffffffffff1681526020016001820160009054906101000a900467ffffffffffffffff1667ffffffffffffffff1667ffffffffffffffff1681526020016001820160089054906101000a900467ffffffffffffffff1667ffffffffffffffff1667ffffffffffffffff1681526020016001820160109054906101000a900467ffffffffffffffff1667ffffffffffffffff1667ffffffffffffffff16815260200160028201548152602001600382015481526020016004820160009054906101000a900460ff166002811115610b0157610b00614996565b5b6002811115610b1357610b12614996565b5b815250509050610b628160a00151826040015167ffffffffffffffff168360c0015186600160009054906101000a900473ffffffffffffffffffffffffffffffffffffffff16600360046128fe565b915050919050565b610b72612a17565b80600060026101000a81548173ffffffffffffffffffffffffffffffffffffffff021916908373ffffffffffffffffffffffffffffffffffffffff16021790555082600160006101000a81548173ffffffffffffffffffffffffffffffffffffffff021916908373ffffffffffffffffffffffffffffffffffffffff16021790555081600260006101000a81548173ffffffffffffffffffffffffffffffffffffffff021916908373ffffffffffffffffffffffffffffffffffffffff160217905550505050565b60008060066000848152602001908152602001600020604051806101000160405290816000820160009054906101000a900473ffffffffffffffffffffffffffffffffffffffff1673ffffffffffffffffffffffffffffffffffffffff1673ffffffffffffffffffffffffffffffffffffffff1681526020016000820160149054906101000a900467ffffffffffffffff1667ffffffffffffffff1667ffffffffffffffff1681526020016001820160009054906101000a900467ffffffffffffffff1667ffffffffffffffff1667ffffffffffffffff1681526020016001820160089054906101000a900467ffffffffffffffff1667ffffffffffffffff1667ffffffffffffffff1681526020016001820160109054906101000a900467ffffffffffffffff1667ffffffffffffffff1667ffffffffffffffff16815260200160028201548152602001600382015481526020016004820160009054906101000a900460ff166002811115610db357610db2614996565b5b6002811115610dc557610dc4614996565b5b815250509050610e198160c00151826020015167ffffffffffffffff16836080015167ffffffffffffffff16600160009054906101000a900473ffffffffffffffffffffffffffffffffffffffff16612a34565b915050919050565b610e4c600160009054906101000a900473ffffffffffffffffffffffffffffffffffffffff16612ab1565b610e5884848484612b59565b60005b848490508110156110f657600080848484818110610e7c57610e7b615393565b5b90506020020135878785818110610e9657610e95615393565b5b9050602002013591509150600060066000848152602001908152602001600020905081600060029054906101000a900473ffffffffffffffffffffffffffffffffffffffff1673ffffffffffffffffffffffffffffffffffffffff166370a08231336040518263ffffffff1660e01b8152600401610f149190614f76565b602060405180830381865afa158015610f31573d6000803e3d6000fd5b505050506040513d601f19601f82011682018060405250810190610f559190615552565b1015610f8d576040517f7276110900000000000000000000000000000000000000000000000000000000815260040160405180910390fd5b3373ffffffffffffffffffffffffffffffffffffffff168160000160009054906101000a900473ffffffffffffffffffffffffffffffffffffffff1673ffffffffffffffffffffffffffffffffffffffff1614611016576040517fb47f2b3300000000000000000000000000000000000000000000000000000000815260040160405180910390fd5b6000683635c9adc5dea000008361102d919061557f565b14611064576040517f1d823d0700000000000000000000000000000000000000000000000000000000815260040160405180910390fd5b611092600060029054906101000a900473ffffffffffffffffffffffffffffffffffffffff16333085612b9e565b61109d818484612bee565b82823373ffffffffffffffffffffffffffffffffffffffff167f1004c640a4c8dbc3c9dd5ff33837d99e4882aaf2b20fb8e7c419fc83c8ca5bd060405160405180910390a4505050806110ef906154c1565b9050610e5b565b5050505050565b63389a75e1600c523360005260006020600c2055337ffa7b8eab7da67f412cc9575ed43464468f9bfbae89d1675917346ca6d8fe3c92600080a2565b600061114787878787612b59565b828290508585905014611186576040517f22cb666100000000000000000000000000000000000000000000000000000000815260040160405180910390fd5b6111b1600160009054906101000a900473ffffffffffffffffffffffffffffffffffffffff16612ab1565b5b86869050811015611757576000808888848181106111d3576111d2615393565b5b905060200201358787858181106111ed576111ec615393565b5b905060200201359150915060006006600084815260200190815260200160002090506064600260009054906101000a900473ffffffffffffffffffffffffffffffffffffffff1673ffffffffffffffffffffffffffffffffffffffff1663f822a5b2856040518263ffffffff1660e01b815260040161126c9190614bbe565b602060405180830381865afa158015611289573d6000803e3d6000fd5b505050506040513d601f19601f820116820180604052508101906112ad9190615552565b10156112e5576040517f7f36105d00000000000000000000000000000000000000000000000000000000815260040160405180910390fd5b3373ffffffffffffffffffffffffffffffffffffffff16600260009054906101000a900473ffffffffffffffffffffffffffffffffffffffff1673ffffffffffffffffffffffffffffffffffffffff16636352211e856040518263ffffffff1660e01b81526004016113579190614bbe565b602060405180830381865afa158015611374573d6000803e3d6000fd5b505050506040513d601f19601f8201168201806040525081019061139891906155c5565b73ffffffffffffffffffffffffffffffffffffffff16146113e5576040517f091fe61c00000000000000000000000000000000000000000000000000000000815260040160405180910390fd5b6113ee82612ccc565b611424576040517fabf20e8f00000000000000000000000000000000000000000000000000000000815260040160405180910390fd5b600260009054906101000a900473ffffffffffffffffffffffffffffffffffffffff1673ffffffffffffffffffffffffffffffffffffffff166337bf06a68460016040518363ffffffff1660e01b815260040161148292919061560d565b600060405180830381600087803b15801561149c57600080fd5b505af11580156114b0573d6000803e3d6000fd5b50505050338160000160006101000a81548173ffffffffffffffffffffffffffffffffffffffff021916908373ffffffffffffffffffffffffffffffffffffffff160217905550428160010160086101000a81548167ffffffffffffffff021916908367ffffffffffffffff160217905550818160000160146101000a81548167ffffffffffffffff021916908367ffffffffffffffff160217905550428160010160106101000a81548167ffffffffffffffff021916908367ffffffffffffffff16021790555085858581811061158b5761158a615393565b5b90506020020160208101906115a0919061565b565b8160040160006101000a81548160ff021916908360028111156115c6576115c5614996565b5b0217905550600160009054906101000a900473ffffffffffffffffffffffffffffffffffffffff1673ffffffffffffffffffffffffffffffffffffffff16631b688d9f6040518163ffffffff1660e01b8152600401602060405180830381865afa158015611638573d6000803e3d6000fd5b505050506040513d601f19601f8201168201806040525081019061165c9190615552565b8160030181905550600560003373ffffffffffffffffffffffffffffffffffffffff1673ffffffffffffffffffffffffffffffffffffffff16815260200190815260200160002083908060018154018082558091505060019003906000526020600020016000909190919091505581833373ffffffffffffffffffffffffffffffffffffffff167ff0a4b106684863ac7bbc666f47a082e4f6a197f11447743c5347b3344b6b527e428a8a8a81811061171857611717615393565b5b905060200201602081019061172d919061565b565b60405161173b929190615697565b60405180910390a450505080611750906154c1565b90506111b2565b50505050505050565b6060600560008373ffffffffffffffffffffffffffffffffffffffff1673ffffffffffffffffffffffffffffffffffffffff1681526020019081526020016000208054806020026020016040519081016040528092919081815260200182805480156117eb57602002820191906000526020600020905b8154815260200190600101908083116117d7575b50505050509050919050565b6117ff612a17565b6118096000612cf5565b565b600160009054906101000a900473ffffffffffffffffffffffffffffffffffffffff1681565b6000638b78c6d81954905090565b600260009054906101000a900473ffffffffffffffffffffffffffffffffffffffff1681565b60008060019054906101000a900460ff161590508080156118965750600160008054906101000a900460ff1660ff16105b806118c357506118a530612d33565b1580156118c25750600160008054906101000a900460ff1660ff16145b5b611902576040517f08c379a00000000000000000000000000000000000000000000000000000000081526004016118f990615743565b60405180910390fd5b60016000806101000a81548160ff021916908360ff160217905550801561193f576001600060016101000a81548160ff0219169083151502179055505b61194833612d56565b611953848484610b6a565b80156119ac5760008060016101000a81548160ff0219169083151502179055507f7f26b83ff96e1f2b6a682f133852f6798a09c465da95921460cefb384740249860016040516119a391906157ab565b60405180910390a15b50505050565b600060066000848152602001908152602001600020604051806101000160405290816000820160009054906101000a900473ffffffffffffffffffffffffffffffffffffffff1673ffffffffffffffffffffffffffffffffffffffff1673ffffffffffffffffffffffffffffffffffffffff1681526020016000820160149054906101000a900467ffffffffffffffff1667ffffffffffffffff1667ffffffffffffffff1681526020016001820160009054906101000a900467ffffffffffffffff1667ffffffffffffffff1667ffffffffffffffff1681526020016001820160089054906101000a900467ffffffffffffffff1667ffffffffffffffff1667ffffffffffffffff1681526020016001820160109054906101000a900467ffffffffffffffff1667ffffffffffffffff1667ffffffffffffffff16815260200160028201548152602001600382015481526020016004820160009054906101000a900460ff166002811115611b2a57611b29614996565b5b6002811115611b3c57611b3b614996565b5b8152505090503373ffffffffffffffffffffffffffffffffffffffff16816000015173ffffffffffffffffffffffffffffffffffffffff1614611bab576040517f091fe61c00000000000000000000000000000000000000000000000000000000815260040160405180910390fd5b81816040015167ffffffffffffffff161015611bf3576040517f69229ba700000000000000000000000000000000000000000000000000000000815260040160405180910390fd5b60008160a0015103611c31576040517f9b4bb81b00000000000000000000000000000000000000000000000000000000815260040160405180910390fd5b611c3a83612d92565b600080600360008681526020019081526020016000206000858152602001908152602001600020549050600060046000878152602001908152602001600020600083815260200190815260200160002054905062278d0082611c9c9190615509565b42108015611cbd575060006002611cb161314e565b611cbb919061557f565b145b611cf9576004600087815260200190815260200160002060008381526020019081526020016000205483611cf19190615509565b925082611d39565b600260046000888152602001908152602001600020600084815260200190815260200160002054611d2a9190615490565b83611d359190615509565b9250825b506001846040015167ffffffffffffffff1614611dad57600360008781526020019081526020016000206000600187611d729190615509565b815260200190815260200160002054600360008881526020019081526020016000206000878152602001908152602001600020819055611dd7565b60006003600088815260200190815260200160002060008781526020019081526020016000208190555b5060006004600088815260200190815260200160002060008481526020019081526020016000208190555060016006600088815260200190815260200160002060010160008282829054906101000a900467ffffffffffffffff16611e3c91906157c6565b92506101000a81548167ffffffffffffffff021916908367ffffffffffffffff16021790555060008382611e70919061542d565b905060008114611f0a57600060029054906101000a900473ffffffffffffffffffffffffffffffffffffffff1673ffffffffffffffffffffffffffffffffffffffff16639dc29fac30836040518363ffffffff1660e01b8152600401611ed7929190615802565b600060405180830381600087803b158015611ef157600080fd5b505af1158015611f05573d6000803e3d6000fd5b505050505b60008414611f4057611f3f600060029054906101000a900473ffffffffffffffffffffffffffffffffffffffff163383613218565b5b83873373ffffffffffffffffffffffffffffffffffffffff167fa720e44767e2cddb37cfa697023b1f3875d107b58722b1cb628083a465290af860405160405180910390a450505050505050565b818190508484905014611fcd576040517f22cb666100000000000000000000000000000000000000000000000000000000815260040160405180910390fd5b60005b8484905081101561205857611ffd858583818110611ff157611ff0615393565b5b90506020020135612d92565b61204785858381811061201357612012615393565b5b9050602002013584848481811061202d5761202c615393565b5b90506020020160208101906120429190615857565b613261565b80612051906154c1565b9050611fd0565b5050505050565b6060600060066000848152602001908152602001600020604051806101000160405290816000820160009054906101000a900473ffffffffffffffffffffffffffffffffffffffff1673ffffffffffffffffffffffffffffffffffffffff1673ffffffffffffffffffffffffffffffffffffffff1681526020016000820160149054906101000a900467ffffffffffffffff1667ffffffffffffffff1667ffffffffffffffff1681526020016001820160009054906101000a900467ffffffffffffffff1667ffffffffffffffff1667ffffffffffffffff1681526020016001820160089054906101000a900467ffffffffffffffff1667ffffffffffffffff1667ffffffffffffffff1681526020016001820160109054906101000a900467ffffffffffffffff1667ffffffffffffffff1667ffffffffffffffff16815260200160028201548152602001600382015481526020016004820160009054906101000a900460ff1660028111156121d9576121d8614996565b5b60028111156121eb576121ea614996565b5b8152505090506000816040015167ffffffffffffffff1667ffffffffffffffff81111561221b5761221a615364565b5b60405190808252806020026020018201604052801561225457816020015b6122416147c3565b8152602001906001900390816122395790505b50905060005b826040015167ffffffffffffffff168110156123145760006003600087815260200190815260200160002060006001846122949190615509565b815260200190815260200160002054905060006004600088815260200190815260200160002060008381526020019081526020016000205490506040518060400160405280828152602001838152508484815181106122f6576122f5615393565b5b602002602001018190525050508061230d906154c1565b905061225a565b819350505050919050565b60006202a300905090565b600060029054906101000a900473ffffffffffffffffffffffffffffffffffffffff1681565b6123586147dd565b60066000838152602001908152602001600020604051806101000160405290816000820160009054906101000a900473ffffffffffffffffffffffffffffffffffffffff1673ffffffffffffffffffffffffffffffffffffffff1673ffffffffffffffffffffffffffffffffffffffff1681526020016000820160149054906101000a900467ffffffffffffffff1667ffffffffffffffff1667ffffffffffffffff1681526020016001820160009054906101000a900467ffffffffffffffff1667ffffffffffffffff1667ffffffffffffffff1681526020016001820160089054906101000a900467ffffffffffffffff1667ffffffffffffffff1667ffffffffffffffff1681526020016001820160109054906101000a900467ffffffffffffffff1667ffffffffffffffff1667ffffffffffffffff16815260200160028201548152602001600382015481526020016004820160009054906101000a900460ff1660028111156124ce576124cd614996565b5b60028111156124e0576124df614996565b5b815250509050919050565b81819050848490501461252a576040517f22cb666100000000000000000000000000000000000000000000000000000000815260040160405180910390fd5b60005b848490508110156125935761258285858381811061254e5761254d615393565b5b9050602002013584848481811061256857612567615393565b5b905060200201602081019061257d9190615857565b613877565b8061258c906154c1565b905061252d565b5050505050565b60005b828290508110156125db576125ca8383838181106125be576125bd615393565b5b90506020020135613be5565b806125d4906154c1565b905061259d565b505050565b6125e8612a17565b63389a75e1600c52806000526020600c20805442111561261057636f5e88186000526004601cfd5b600081555061261e81612cf5565b50565b612629612a17565b8060601b61263f57637448fbae6000526004601cfd5b61264881612cf5565b50565b600063389a75e1600c52816000526020600c20549050919050565b600080600060066000858152602001908152602001600020604051806101000160405290816000820160009054906101000a900473ffffffffffffffffffffffffffffffffffffffff1673ffffffffffffffffffffffffffffffffffffffff1673ffffffffffffffffffffffffffffffffffffffff1681526020016000820160149054906101000a900467ffffffffffffffff1667ffffffffffffffff1667ffffffffffffffff1681526020016001820160009054906101000a900467ffffffffffffffff1667ffffffffffffffff1667ffffffffffffffff1681526020016001820160089054906101000a900467ffffffffffffffff1667ffffffffffffffff1667ffffffffffffffff1681526020016001820160109054906101000a900467ffffffffffffffff1667ffffffffffffffff1667ffffffffffffffff16815260200160028201548152602001600382015481526020016004820160009054906101000a900460ff1660028111156127e1576127e0614996565b5b60028111156127f3576127f2614996565b5b81525050905060008160a00151036128125760008092509250506128f9565b6000600190506000805b836040015167ffffffffffffffff1683116128ee57600060036000898152602001908152602001600020600085815260200190815260200160002054905062278d00816128699190615509565b42106128a757600460008981526020019081526020016000206000828152602001908152602001600020548361289f9190615509565b9250826128db565b60046000898152602001908152602001600020600082815260200190815260200160002054826128d79190615509565b9150815b5050826128e7906154c1565b925061281c565b808295509550505050505b915091565b60008088036129105760009050612a0c565b600080600190505b8881116129d1576000620151808660008a815260200190815260200160002060008481526020019081526020016000205442612954919061542d565b61295e9190615490565b905060008560008a815260200190815260200160002060008860008c8152602001908152602001600020600086815260200190815260200160002054815260200190815260200160002054905080826129b79190615884565b846129c29190615509565b93508260010192505050612918565b5061271068056bc75e2d631000006129e98988614058565b6129f39190615884565b826129fe919061542d565b612a089190615490565b9150505b979650505050505050565b638b78c6d819543314612a32576382b429006000526004601cfd5b565b6000808403612a465760009050612aa9565b6000612a5185614472565b90506000620151808542612a65919061542d565b612a6f9190615490565b9050670de0b6b3a7640000612a848886614058565b8284612a909190615884565b612a9a919061542d565b612aa49190615884565b925050505b949350505050565b8073ffffffffffffffffffffffffffffffffffffffff1663ae4b37e46040518163ffffffff1660e01b8152600401602060405180830381865afa158015612afc573d6000803e3d6000fd5b505050506040513d601f19601f82011682018060405250810190612b2091906158db565b612b56576040517f288de97200000000000000000000000000000000000000000000000000000000815260040160405180910390fd5b50565b818190508484905014612b98576040517f22cb666100000000000000000000000000000000000000000000000000000000815260040160405180910390fd5b50505050565b6040516323b872dd600052836020528260405281606052602060006064601c6000895af13d156001600051141716612bde57637939f4246000526004601cfd5b6000606052806040525050505050565b80836002016000828254612c029190615509565b9250508190555082600101600081819054906101000a900467ffffffffffffffff16612c2d90615908565b91906101000a81548167ffffffffffffffff021916908367ffffffffffffffff1602179055508060046000848152602001908152602001600020600042815260200190815260200160002081905550426003600084815260200190815260200160002060008560010160009054906101000a900467ffffffffffffffff1667ffffffffffffffff16815260200190815260200160002081905550505050565b60006241eb00821480612ce157506283d60082145b80612cee575062c5c10082145b9050919050565b638b78c6d8198160601b60601c91508181547f8be0079c531659141344cd1fd0a4f28419497f9722a3daafe3b4186f6b6457e0600080a38181555050565b6000808273ffffffffffffffffffffffffffffffffffffffff163b119050919050565b8060601b60601c905080638b78c6d819558060007f8be0079c531659141344cd1fd0a4f28419497f9722a3daafe3b4186f6b6457e0600080a350565b600060066000838152602001908152602001600020604051806101000160405290816000820160009054906101000a900473ffffffffffffffffffffffffffffffffffffffff1673ffffffffffffffffffffffffffffffffffffffff1673ffffffffffffffffffffffffffffffffffffffff1681526020016000820160149054906101000a900467ffffffffffffffff1667ffffffffffffffff1667ffffffffffffffff1681526020016001820160009054906101000a900467ffffffffffffffff1667ffffffffffffffff1667ffffffffffffffff1681526020016001820160089054906101000a900467ffffffffffffffff1667ffffffffffffffff1667ffffffffffffffff1681526020016001820160109054906101000a900467ffffffffffffffff1667ffffffffffffffff1667ffffffffffffffff16815260200160028201548152602001600382015481526020016004820160009054906101000a900460ff166002811115612f0a57612f09614996565b5b6002811115612f1c57612f1b614996565b5b815250509050600080612f2e84610988565b8360e001519150915060006002811115612f4b57612f4a614996565b5b816002811115612f5e57612f5d614996565b5b03612ff757600260009054906101000a900473ffffffffffffffffffffffffffffffffffffffff1673ffffffffffffffffffffffffffffffffffffffff1663743f4e9485846040518363ffffffff1660e01b8152600401612fc0929190614b3c565b600060405180830381600087803b158015612fda57600080fd5b505af1158015612fee573d6000803e3d6000fd5b50505050613148565b6001600281111561300b5761300a614996565b5b81600281111561301e5761301d614996565b5b036130b757600260009054906101000a900473ffffffffffffffffffffffffffffffffffffffff1673ffffffffffffffffffffffffffffffffffffffff1663067ea39285846040518363ffffffff1660e01b8152600401613080929190614b3c565b600060405180830381600087803b15801561309a57600080fd5b505af11580156130ae573d6000803e3d6000fd5b50505050613147565b600260009054906101000a900473ffffffffffffffffffffffffffffffffffffffff1673ffffffffffffffffffffffffffffffffffffffff1663e0c5057785846040518363ffffffff1660e01b8152600401613114929190614b3c565b600060405180830381600087803b15801561312e57600080fd5b505af1158015613142573d6000803e3d6000fd5b505050505b5b50505050565b6000804342336040516020016131649190615980565b6040516020818303038152906040528051906020012060001c6131879190615490565b45424160405160200161319a91906159d6565b6040516020818303038152906040528051906020012060001c6131bd9190615490565b426131c89190615509565b6131d29190615509565b6131dc9190615509565b6131e69190615509565b6040516020016131f69190615a12565b6040516020818303038152906040528051906020012060001c90508091505090565b81601a5280603a5269a9059cbb00000000000060005260206000604460166000875af13d156001600051141716613257576390b8ec186000526004601cfd5b6000603a52505050565b600060066000848152602001908152602001600020604051806101000160405290816000820160009054906101000a900473ffffffffffffffffffffffffffffffffffffffff1673ffffffffffffffffffffffffffffffffffffffff1673ffffffffffffffffffffffffffffffffffffffff1681526020016000820160149054906101000a900467ffffffffffffffff1667ffffffffffffffff1667ffffffffffffffff1681526020016001820160009054906101000a900467ffffffffffffffff1667ffffffffffffffff1667ffffffffffffffff1681526020016001820160089054906101000a900467ffffffffffffffff1667ffffffffffffffff1667ffffffffffffffff1681526020016001820160109054906101000a900467ffffffffffffffff1667ffffffffffffffff1667ffffffffffffffff16815260200160028201548152602001600382015481526020016004820160009054906101000a900460ff1660028111156133d9576133d8614996565b5b60028111156133eb576133ea614996565b5b8152505090503373ffffffffffffffffffffffffffffffffffffffff16816000015173ffffffffffffffffffffffffffffffffffffffff161461345a576040517f091fe61c00000000000000000000000000000000000000000000000000000000815260040160405180910390fd5b60008160a0015103613498576040517f9b4bb81b00000000000000000000000000000000000000000000000000000000815260040160405180910390fd5b600080600190506000805b846040015167ffffffffffffffff1683116136b257600080600360008a8152602001908152602001600020600086815260200190815260200160002054600360008b815260200190815260200160002060006001886135029190615509565b8152602001908152602001600020549150915062278d00826135249190615509565b42108015613530575087155b1561353c5750506136a1565b62278d008261354b9190615509565b421080156135565750875b801561357557506000600261356961314e565b613573919061557f565b145b6135b157600460008a8152602001908152602001600020600083815260200190815260200160002054846135a99190615509565b9350836135f1565b6002600460008b81526020019081526020016000206000848152602001908152602001600020546135e29190615490565b846135ed9190615509565b9350835b50878061360c57506001876040015167ffffffffffffffff16145b61363d5780600360008b81526020019081526020016000206000878152602001908152602001600020819055613667565b6000600360008b815260200190815260200160002060008781526020019081526020016000208190555b506000600460008b81526020019081526020016000206000848152602001908152602001600020819055508261369c90615908565b925050505b826136ab906154c1565b92506134a3565b806006600089815260200190815260200160002060010160008282829054906101000a900467ffffffffffffffff166136eb91906157c6565b92506101000a81548167ffffffffffffffff021916908367ffffffffffffffff16021790555081600660008981526020019081526020016000206002016000828254613737919061542d565b92505081905550818560a0015161374e919061542d565b93506000841415801561375e5750855b156137f357600060029054906101000a900473ffffffffffffffffffffffffffffffffffffffff1673ffffffffffffffffffffffffffffffffffffffff16639dc29fac30866040518363ffffffff1660e01b81526004016137c0929190615802565b600060405180830381600087803b1580156137da57600080fd5b505af11580156137ee573d6000803e3d6000fd5b505050505b6000821461382957613828600060029054906101000a900473ffffffffffffffffffffffffffffffffffffffff163386613218565b5b81873373ffffffffffffffffffffffffffffffffffffffff167fa720e44767e2cddb37cfa697023b1f3875d107b58722b1cb628083a465290af860405160405180910390a450505050505050565b600060066000848152602001908152602001600020604051806101000160405290816000820160009054906101000a900473ffffffffffffffffffffffffffffffffffffffff1673ffffffffffffffffffffffffffffffffffffffff1673ffffffffffffffffffffffffffffffffffffffff1681526020016000820160149054906101000a900467ffffffffffffffff1667ffffffffffffffff1667ffffffffffffffff1681526020016001820160009054906101000a900467ffffffffffffffff1667ffffffffffffffff1667ffffffffffffffff1681526020016001820160089054906101000a900467ffffffffffffffff1667ffffffffffffffff1667ffffffffffffffff1681526020016001820160109054906101000a900467ffffffffffffffff1667ffffffffffffffff1667ffffffffffffffff16815260200160028201548152602001600382015481526020016004820160009054906101000a900460ff1660028111156139ef576139ee614996565b5b6002811115613a0157613a00614996565b5b8152505090503373ffffffffffffffffffffffffffffffffffffffff16816000015173ffffffffffffffffffffffffffffffffffffffff1614613a70576040517f091fe61c00000000000000000000000000000000000000000000000000000000815260040160405180910390fd5b6000613a7b84610c3a565b905060008103613ab7576040517f9b4bb81b00000000000000000000000000000000000000000000000000000000815260040160405180910390fd5b426006600086815260200190815260200160002060010160106101000a81548167ffffffffffffffff021916908367ffffffffffffffff16021790555082613b8d57600060029054906101000a900473ffffffffffffffffffffffffffffffffffffffff1673ffffffffffffffffffffffffffffffffffffffff166340c10f1933836040518363ffffffff1660e01b8152600401613b56929190615802565b600060405180830381600087803b158015613b7057600080fd5b505af1158015613b84573d6000803e3d6000fd5b50505050613b98565b613b9784826144a6565b5b821515843373ffffffffffffffffffffffffffffffffffffffff167f10fffc2725e2f04d2e9a7aa7762d3db31dd4051420267e5be076a5b13e8bb07760405160405180910390a450505050565b600060066000838152602001908152602001600020604051806101000160405290816000820160009054906101000a900473ffffffffffffffffffffffffffffffffffffffff1673ffffffffffffffffffffffffffffffffffffffff1673ffffffffffffffffffffffffffffffffffffffff1681526020016000820160149054906101000a900467ffffffffffffffff1667ffffffffffffffff1667ffffffffffffffff1681526020016001820160009054906101000a900467ffffffffffffffff1667ffffffffffffffff1667ffffffffffffffff1681526020016001820160089054906101000a900467ffffffffffffffff1667ffffffffffffffff1667ffffffffffffffff1681526020016001820160109054906101000a900467ffffffffffffffff1667ffffffffffffffff1667ffffffffffffffff16815260200160028201548152602001600382015481526020016004820160009054906101000a900460ff166002811115613d5d57613d5c614996565b5b6002811115613d6f57613d6e614996565b5b8152505090503373ffffffffffffffffffffffffffffffffffffffff16816000015173ffffffffffffffffffffffffffffffffffffffff1614613dde576040517f091fe61c00000000000000000000000000000000000000000000000000000000815260040160405180910390fd5b80602001518160600151613df291906153f1565b67ffffffffffffffff16421015613e35576040517ff5dcc1e300000000000000000000000000000000000000000000000000000000815260040160405180910390fd5b6000613e4083610c3a565b1115613e5257613e51826000613877565b5b60008160a001511115613e6b57613e6a826001613261565b5b613eb3600560003373ffffffffffffffffffffffffffffffffffffffff1673ffffffffffffffffffffffffffffffffffffffff16815260200190815260200160002083614697565b60066000838152602001908152602001600020600080820160006101000a81549073ffffffffffffffffffffffffffffffffffffffff02191690556000820160146101000a81549067ffffffffffffffff02191690556001820160006101000a81549067ffffffffffffffff02191690556001820160086101000a81549067ffffffffffffffff02191690556001820160106101000a81549067ffffffffffffffff0219169055600282016000905560038201600090556004820160006101000a81549060ff02191690555050600260009054906101000a900473ffffffffffffffffffffffffffffffffffffffff1673ffffffffffffffffffffffffffffffffffffffff166337bf06a68360006040518363ffffffff1660e01b8152600401613fde92919061560d565b600060405180830381600087803b158015613ff857600080fd5b505af115801561400c573d6000803e3d6000fd5b50505050813373ffffffffffffffffffffffffffffffffffffffff167f26727522aa20721ee01410aea547e7fc187973e8abf49394168d3c9cb4c90cf260405160405180910390a35050565b6000808273ffffffffffffffffffffffffffffffffffffffff16631b688d9f6040518163ffffffff1660e01b8152600401602060405180830381865afa1580156140a6573d6000803e3d6000fd5b505050506040513d601f19601f820116820180604052508101906140ca9190615552565b841461425e576000620151808473ffffffffffffffffffffffffffffffffffffffff16631b688d9f6040518163ffffffff1660e01b8152600401602060405180830381865afa158015614121573d6000803e3d6000fd5b505050506040513d601f19601f820116820180604052508101906141459190615552565b42614150919061542d565b61415a9190615490565b9050808473ffffffffffffffffffffffffffffffffffffffff1663d09f53c0876040518263ffffffff1660e01b81526004016141969190614bbe565b602060405180830381865afa1580156141b3573d6000803e3d6000fd5b505050506040513d601f19601f820116820180604052508101906141d79190615552565b8573ffffffffffffffffffffffffffffffffffffffff16637bd90cc26040518163ffffffff1660e01b8152600401602060405180830381865afa158015614222573d6000803e3d6000fd5b505050506040513d601f19601f820116820180604052508101906142469190615552565b614250919061542d565b61425a9190615509565b9150505b6000840361445c576000808473ffffffffffffffffffffffffffffffffffffffff16631b688d9f6040518163ffffffff1660e01b8152600401602060405180830381865afa1580156142b4573d6000803e3d6000fd5b505050506040513d601f19601f820116820180604052508101906142d89190615552565b036142e4576000614370565b620151808473ffffffffffffffffffffffffffffffffffffffff16631b688d9f6040518163ffffffff1660e01b8152600401602060405180830381865afa158015614333573d6000803e3d6000fd5b505050506040513d601f19601f820116820180604052508101906143579190615552565b42614362919061542d565b61436c9190615490565b9050805b508373ffffffffffffffffffffffffffffffffffffffff1663ae4b37e46040518163ffffffff1660e01b8152600401602060405180830381865afa1580156143bc573d6000803e3d6000fd5b505050506040513d601f19601f820116820180604052508101906143e091906158db565b15614457578373ffffffffffffffffffffffffffffffffffffffff16637bd90cc26040518163ffffffff1660e01b8152600401602060405180830381865afa158015614430573d6000803e3d6000fd5b505050506040513d601f19601f820116820180604052508101906144549190615552565b90505b809150505b600a816144699190615884565b91505092915050565b60006241eb00820361448357600a90505b6283d600820361449257603290505b62c5c10082036144a157606490505b919050565b6000683635c9adc5dea00000826144bd919061557f565b90508181036144f8576040517f1d823d0700000000000000000000000000000000000000000000000000000000815260040160405180910390fd5b6000811461459057600060029054906101000a900473ffffffffffffffffffffffffffffffffffffffff1673ffffffffffffffffffffffffffffffffffffffff166340c10f1933836040518363ffffffff1660e01b815260040161455d929190615802565b600060405180830381600087803b15801561457757600080fd5b505af115801561458b573d6000803e3d6000fd5b505050505b6000818361459e919061542d565b90506145bd600660008681526020019081526020016000208583612bee565b600060029054906101000a900473ffffffffffffffffffffffffffffffffffffffff1673ffffffffffffffffffffffffffffffffffffffff166340c10f1930836040518363ffffffff1660e01b815260040161461a929190615802565b600060405180830381600087803b15801561463457600080fd5b505af1158015614648573d6000803e3d6000fd5b5050505083813373ffffffffffffffffffffffffffffffffffffffff167f1004c640a4c8dbc3c9dd5ff33837d99e4882aaf2b20fb8e7c419fc83c8ca5bd060405160405180910390a450505050565b60005b828054905081101561475057818382815481106146ba576146b9615393565b5b9060005260206000200154036147455782600184805490506146dc919061542d565b815481106146ed576146ec615393565b5b906000526020600020015483828154811061470b5761470a615393565b5b90600052602060002001819055508280548061472a57614729615a2d565b5b60019003818190600052602060002001600090559055614750565b80600101905061469a565b505050565b6040518060c0016040528060006bffffffffffffffffffffffff16815260200160006bffffffffffffffffffffffff168152602001600067ffffffffffffffff1681526020016000815260200160008152602001600060028111156147bd576147bc614996565b5b81525090565b604051806040016040528060008152602001600081525090565b604051806101000160405280600073ffffffffffffffffffffffffffffffffffffffff168152602001600067ffffffffffffffff168152602001600067ffffffffffffffff168152602001600067ffffffffffffffff168152602001600067ffffffffffffffff16815260200160008152602001600081526020016000600281111561486c5761486b614996565b5b81525090565b600080fd5b600080fd5b600073ffffffffffffffffffffffffffffffffffffffff82169050919050565b60006148a78261487c565b9050919050565b6148b78161489c565b81146148c257600080fd5b50565b6000813590506148d4816148ae565b92915050565b6000602082840312156148f0576148ef614872565b5b60006148fe848285016148c5565b91505092915050565b600081519050919050565b600082825260208201905092915050565b6000819050602082019050919050565b60006bffffffffffffffffffffffff82169050919050565b61495481614933565b82525050565b600067ffffffffffffffff82169050919050565b6149778161495a565b82525050565b6000819050919050565b6149908161497d565b82525050565b7f4e487b7100000000000000000000000000000000000000000000000000000000600052602160045260246000fd5b600381106149d6576149d5614996565b5b50565b60008190506149e7826149c5565b919050565b60006149f7826149d9565b9050919050565b614a07816149ec565b82525050565b60c082016000820151614a23600085018261494b565b506020820151614a36602085018261494b565b506040820151614a49604085018261496e565b506060820151614a5c6060850182614987565b506080820151614a6f6080850182614987565b5060a0820151614a8260a08501826149fe565b50505050565b6000614a948383614a0d565b60c08301905092915050565b6000602082019050919050565b6000614ab882614907565b614ac28185614912565b9350614acd83614923565b8060005b83811015614afe578151614ae58882614a88565b9750614af083614aa0565b925050600181019050614ad1565b5085935050505092915050565b60006020820190508181036000830152614b258184614aad565b905092915050565b614b368161497d565b82525050565b6000604082019050614b516000830185614b2d565b614b5e6020830184614b2d565b9392505050565b614b6e8161497d565b8114614b7957600080fd5b50565b600081359050614b8b81614b65565b92915050565b600060208284031215614ba757614ba6614872565b5b6000614bb584828501614b7c565b91505092915050565b6000602082019050614bd36000830184614b2d565b92915050565b600080600060608486031215614bf257614bf1614872565b5b6000614c00868287016148c5565b9350506020614c11868287016148c5565b9250506040614c22868287016148c5565b9150509250925092565b600080fd5b600080fd5b600080fd5b60008083601f840112614c5157614c50614c2c565b5b8235905067ffffffffffffffff811115614c6e57614c6d614c31565b5b602083019150836020820283011115614c8a57614c89614c36565b5b9250929050565b60008060008060408587031215614cab57614caa614872565b5b600085013567ffffffffffffffff811115614cc957614cc8614877565b5b614cd587828801614c3b565b9450945050602085013567ffffffffffffffff811115614cf857614cf7614877565b5b614d0487828801614c3b565b925092505092959194509250565b60008083601f840112614d2857614d27614c2c565b5b8235905067ffffffffffffffff811115614d4557614d44614c31565b5b602083019150836020820283011115614d6157614d60614c36565b5b9250929050565b60008060008060008060608789031215614d8557614d84614872565b5b600087013567ffffffffffffffff811115614da357614da2614877565b5b614daf89828a01614c3b565b9650965050602087013567ffffffffffffffff811115614dd257614dd1614877565b5b614dde89828a01614c3b565b9450945050604087013567ffffffffffffffff811115614e0157614e00614877565b5b614e0d89828a01614d12565b92509250509295509295509295565b600081519050919050565b600082825260208201905092915050565b6000819050602082019050919050565b6000614e548383614987565b60208301905092915050565b6000602082019050919050565b6000614e7882614e1c565b614e828185614e27565b9350614e8d83614e38565b8060005b83811015614ebe578151614ea58882614e48565b9750614eb083614e60565b925050600181019050614e91565b5085935050505092915050565b60006020820190508181036000830152614ee58184614e6d565b905092915050565b6000819050919050565b6000614f12614f0d614f088461487c565b614eed565b61487c565b9050919050565b6000614f2482614ef7565b9050919050565b6000614f3682614f19565b9050919050565b614f4681614f2b565b82525050565b6000602082019050614f616000830184614f3d565b92915050565b614f708161489c565b82525050565b6000602082019050614f8b6000830184614f67565b92915050565b6000614f9c82614f19565b9050919050565b614fac81614f91565b82525050565b6000602082019050614fc76000830184614fa3565b92915050565b60008060408385031215614fe457614fe3614872565b5b6000614ff285828601614b7c565b925050602061500385828601614b7c565b9150509250929050565b60008083601f84011261502357615022614c2c565b5b8235905067ffffffffffffffff8111156150405761503f614c31565b5b60208301915083602082028301111561505c5761505b614c36565b5b9250929050565b6000806000806040858703121561507d5761507c614872565b5b600085013567ffffffffffffffff81111561509b5761509a614877565b5b6150a787828801614c3b565b9450945050602085013567ffffffffffffffff8111156150ca576150c9614877565b5b6150d68782880161500d565b925092505092959194509250565b600081519050919050565b600082825260208201905092915050565b6000819050602082019050919050565b6040820160008201516151266000850182614987565b5060208201516151396020850182614987565b50505050565b600061514b8383615110565b60408301905092915050565b6000602082019050919050565b600061516f826150e4565b61517981856150ef565b935061518483615100565b8060005b838110156151b557815161519c888261513f565b97506151a783615157565b925050600181019050615188565b5085935050505092915050565b600060208201905081810360008301526151dc8184615164565b905092915050565b6151ed8161495a565b82525050565b600060208201905061520860008301846151e4565b92915050565b600061521982614f19565b9050919050565b6152298161520e565b82525050565b60006020820190506152446000830184615220565b92915050565b6152538161489c565b82525050565b61010082016000820151615270600085018261524a565b506020820151615283602085018261496e565b506040820151615296604085018261496e565b5060608201516152a9606085018261496e565b5060808201516152bc608085018261496e565b5060a08201516152cf60a0850182614987565b5060c08201516152e260c0850182614987565b5060e08201516152f560e08501826149fe565b50505050565b6000610100820190506153116000830184615259565b92915050565b6000806020838503121561532e5761532d614872565b5b600083013567ffffffffffffffff81111561534c5761534b614877565b5b61535885828601614c3b565b92509250509250929050565b7f4e487b7100000000000000000000000000000000000000000000000000000000600052604160045260246000fd5b7f4e487b7100000000000000000000000000000000000000000000000000000000600052603260045260246000fd5b7f4e487b7100000000000000000000000000000000000000000000000000000000600052601160045260246000fd5b60006153fc8261495a565b91506154078361495a565b9250828201905067ffffffffffffffff811115615427576154266153c2565b5b92915050565b60006154388261497d565b91506154438361497d565b925082820390508181111561545b5761545a6153c2565b5b92915050565b7f4e487b7100000000000000000000000000000000000000000000000000000000600052601260045260246000fd5b600061549b8261497d565b91506154a68361497d565b9250826154b6576154b5615461565b5b828204905092915050565b60006154cc8261497d565b91507fffffffffffffffffffffffffffffffffffffffffffffffffffffffffffffffff82036154fe576154fd6153c2565b5b600182019050919050565b60006155148261497d565b915061551f8361497d565b9250828201905080821115615537576155366153c2565b5b92915050565b60008151905061554c81614b65565b92915050565b60006020828403121561556857615567614872565b5b60006155768482850161553d565b91505092915050565b600061558a8261497d565b91506155958361497d565b9250826155a5576155a4615461565b5b828206905092915050565b6000815190506155bf816148ae565b92915050565b6000602082840312156155db576155da614872565b5b60006155e9848285016155b0565b91505092915050565b60008115159050919050565b615607816155f2565b82525050565b60006040820190506156226000830185614b2d565b61562f60208301846155fe565b9392505050565b6003811061564357600080fd5b50565b60008135905061565581615636565b92915050565b60006020828403121561567157615670614872565b5b600061567f84828501615646565b91505092915050565b615691816149ec565b82525050565b60006040820190506156ac6000830185614b2d565b6156b96020830184615688565b9392505050565b600082825260208201905092915050565b7f496e697469616c697a61626c653a20636f6e747261637420697320616c72656160008201527f647920696e697469616c697a6564000000000000000000000000000000000000602082015250565b600061572d602e836156c0565b9150615738826156d1565b604082019050919050565b6000602082019050818103600083015261575c81615720565b9050919050565b6000819050919050565b600060ff82169050919050565b600061579561579061578b84615763565b614eed565b61576d565b9050919050565b6157a58161577a565b82525050565b60006020820190506157c0600083018461579c565b92915050565b60006157d18261495a565b91506157dc8361495a565b9250828203905067ffffffffffffffff8111156157fc576157fb6153c2565b5b92915050565b60006040820190506158176000830185614f67565b6158246020830184614b2d565b9392505050565b615834816155f2565b811461583f57600080fd5b50565b6000813590506158518161582b565b92915050565b60006020828403121561586d5761586c614872565b5b600061587b84828501615842565b91505092915050565b600061588f8261497d565b915061589a8361497d565b92508282026158a88161497d565b915082820484148315176158bf576158be6153c2565b5b5092915050565b6000815190506158d58161582b565b92915050565b6000602082840312156158f1576158f0614872565b5b60006158ff848285016158c6565b91505092915050565b60006159138261495a565b915067ffffffffffffffff820361592d5761592c6153c2565b5b600182019050919050565b60008160601b9050919050565b600061595082615938565b9050919050565b600061596282615945565b9050919050565b61597a6159758261489c565b615957565b82525050565b600061598c8284615969565b60148201915081905092915050565b60006159a68261487c565b9050919050565b60006159b882615945565b9050919050565b6159d06159cb8261599b565b6159ad565b82525050565b60006159e282846159bf565b60148201915081905092915050565b6000819050919050565b615a0c615a078261497d565b6159f1565b82525050565b6000615a1e82846159fb565b60208201915081905092915050565b7f4e487b7100000000000000000000000000000000000000000000000000000000600052603160045260246000fdfea2646970667358221220e2294dd4a155129f101a9963d3cae3303f6726ace5d6d5bf30b9a587906db78c64736f6c63430008120033",
  "devdoc": {
    "errors": {
      "NewOwnerIsZeroAddress()": [
        {
          "details": "The `newOwner` cannot be the zero address."
        }
      ],
      "NoHandoverRequest()": [
        {
          "details": "The `pendingOwner` does not have a valid handover request."
        }
      ],
      "Unauthorized()": [
        {
          "details": "The caller is not authorized to call the function."
        }
      ]
    },
    "events": {
      "Initialized(uint8)": {
        "details": "Triggered when the contract has been initialized or reinitialized."
      },
      "OwnershipHandoverCanceled(address)": {
        "details": "The ownership handover to `pendingOwner` has been canceled."
      },
      "OwnershipHandoverRequested(address)": {
        "details": "An ownership handover to `pendingOwner` has been requested."
      },
      "OwnershipTransferred(address,address)": {
        "details": "The ownership is transferred from `oldOwner` to `newOwner`. This event is intentionally kept the same as OpenZeppelin's Ownable to be compatible with indexers and [EIP-173](https://eips.ethereum.org/EIPS/eip-173), despite it not being as lightweight as a single argument event."
      }
    },
    "kind": "dev",
    "methods": {
      "bonesToTime(uint256)": {
        "details": "Returns an array of BonesFeInfo structs containing information about the Bone tokens staked at certain time.",
        "params": {
          "_tokenId": "The ID of the token to retrieve information for."
        },
        "returns": {
          "_0": "An array of BonesFeInfo structs containing Bone token and timestamp information."
        }
      },
      "cancelOwnershipHandover()": {
        "details": "Cancels the two-step ownership handover to the caller, if any."
      },
      "claimDevelopmentGroundBonesReward(uint256[],bool[])": {
        "params": {
          "_stake": "Whether to stake the reward bones in the development ground",
          "_tokenId": "ID of the development ground"
        }
      },
      "completeOwnershipHandover(address)": {
        "details": "Allows the owner to complete the two-step ownership handover to `pendingOwner`. Reverts if there is no existing ownership handover requested by `pendingOwner`."
      },
      "enterDevelopmentGround(uint256[],uint256[],uint8[])": {
        "details": "Enters the DevelopmentGround by transferring the tokens from the sender to the contract and setting the development ground data such as owner, entry time, lock period, etc.",
        "params": {
          "_ground": "Array of grounds for each corresponding token",
          "_lockTime": "Array of lock times for each corresponding token",
          "_tokenId": "Array of token IDs to be transferred"
        }
      },
      "getDevGroundFeInfo(address)": {
        "details": "Returns an array of DevGroundFeInfo structs containing information about the DevelopmentGround tokens staked by the specified owner.",
        "params": {
          "_owner": "The address of the owner."
        },
        "returns": {
          "_0": "An array of DevGroundFeInfo structs containing DevelopmentGround token information."
        }
      },
      "getDevelopmentGroundBonesReward(uint256)": {
        "details": "Returns the reward for the bones staked in the development ground.",
        "params": {
          "_tokenId": "The token ID for the development ground."
        },
        "returns": {
          "_0": "The reward for the bones staked in the development ground."
        }
      },
      "getDevelopmentGroundInfo(uint256)": {
        "details": "This function returns a DevelopmentGround struct containing information about a Development Ground token, specified by its ID, _tokenId.",
        "params": {
          "_tokenId": "ID of the Development Ground token to retrieve information for"
        },
        "returns": {
          "_0": "The DevelopmentGround struct containing information about the specified Development Ground token."
        }
      },
      "getPrimarySkill(uint256)": {
        "params": {
          "_tokenId": "ID of the development ground"
        },
        "returns": {
          "_0": "The primary skill level"
        }
      },
      "getStakedTokens(address)": {
        "details": "Returns an array of token IDs that are currently staked by the given owner.",
        "params": {
          "_owner": "The address of the owner."
        },
        "returns": {
          "_0": "An array of staked token IDs."
        }
      },
      "leaveDevelopmentGround(uint256[])": {
        "details": "Allows the owner to leave the development ground. This will transfer the token back to the owner and remove any bones staked in the development ground.",
        "params": {
          "_tokenId": "The token ID of the development ground to leave."
        }
      },
      "owner()": {
        "details": "Returns the owner of the contract."
      },
      "ownershipHandoverExpiresAt(address)": {
        "details": "Returns the expiry timestamp for the two-step ownership handover to `pendingOwner`."
      },
      "ownershipHandoverValidFor()": {
        "details": "Returns how long a two-step ownership handover is valid for in seconds."
      },
      "removeBones(uint256[],bool[])": {
        "details": "Removes bones from a specific development ground.",
        "params": {
          "_all": "Indicates whether to remove all bones or just a portion of them",
          "_tokenId": "The unique identifier for the development ground"
        }
      },
      "renounceOwnership()": {
        "details": "Allows the owner to renounce their ownership."
      },
      "requestOwnershipHandover()": {
        "details": "Request a two-step ownership handover to the caller. The request will be automatically expire in 48 hours (172800 seconds) by default."
      },
      "stakeBonesInDevelopmentGround(uint256[],uint256[])": {
        "details": "Stakes the bones in the DevelopmentGround by transferring the bones from the sender to the contract and updating the development ground data.",
        "params": {
          "_amount": "Array of amounts of bones to be transferred",
          "_tokenId": "Array of token IDs for the corresponding amounts of bones"
        }
      },
      "transferOwnership(address)": {
        "details": "Allows the owner to transfer the ownership to `newOwner`."
      }
    },
    "version": 1
  },
  "userdoc": {
    "kind": "user",
    "methods": {
      "claimDevelopmentGroundBonesReward(uint256[],bool[])": {
        "notice": "This function allows the owner of multiple development grounds to claim rewards earned by them."
      },
      "getDevelopmentGroundInfo(uint256)": {
        "notice": "Retrieve information about a Development Ground token."
      },
      "getPrimarySkill(uint256)": {
        "notice": "This function retrieves the primary skill of the `_tokenId` development ground."
      }
    },
    "version": 1
  },
  "storageLayout": {
    "storage": [
      {
        "astId": 6,
        "contract": "contracts/DevelopmentGrounds.sol:DevelopmentGrounds",
        "label": "_initialized",
        "offset": 0,
        "slot": "0",
        "type": "t_uint8"
      },
      {
        "astId": 9,
        "contract": "contracts/DevelopmentGrounds.sol:DevelopmentGrounds",
        "label": "_initializing",
        "offset": 1,
        "slot": "0",
        "type": "t_bool"
      },
      {
        "astId": 701,
        "contract": "contracts/DevelopmentGrounds.sol:DevelopmentGrounds",
        "label": "bones",
        "offset": 2,
        "slot": "0",
        "type": "t_contract(IBones)2474"
      },
      {
        "astId": 704,
        "contract": "contracts/DevelopmentGrounds.sol:DevelopmentGrounds",
        "label": "pits",
        "offset": 0,
        "slot": "1",
        "type": "t_contract(IPits)2546"
      },
      {
        "astId": 707,
        "contract": "contracts/DevelopmentGrounds.sol:DevelopmentGrounds",
        "label": "neandersmol",
        "offset": 0,
        "slot": "2",
        "type": "t_contract(INeandersmol)2516"
      },
      {
        "astId": 736,
        "contract": "contracts/DevelopmentGrounds.sol:DevelopmentGrounds",
        "label": "trackTime",
        "offset": 0,
        "slot": "3",
        "type": "t_mapping(t_uint256,t_mapping(t_uint256,t_uint256))"
      },
      {
        "astId": 742,
        "contract": "contracts/DevelopmentGrounds.sol:DevelopmentGrounds",
        "label": "trackToken",
        "offset": 0,
        "slot": "4",
        "type": "t_mapping(t_uint256,t_mapping(t_uint256,t_uint256))"
      },
      {
        "astId": 747,
        "contract": "contracts/DevelopmentGrounds.sol:DevelopmentGrounds",
        "label": "ownerToTokens",
        "offset": 0,
        "slot": "5",
        "type": "t_mapping(t_address,t_array(t_uint256)dyn_storage)"
      },
      {
        "astId": 752,
        "contract": "contracts/DevelopmentGrounds.sol:DevelopmentGrounds",
        "label": "developmentGround",
        "offset": 0,
        "slot": "6",
        "type": "t_mapping(t_uint256,t_struct(DevelopmentGround)2974_storage)"
      }
    ],
    "types": {
      "t_address": {
        "encoding": "inplace",
        "label": "address",
        "numberOfBytes": "20"
      },
      "t_array(t_uint256)dyn_storage": {
        "base": "t_uint256",
        "encoding": "dynamic_array",
        "label": "uint256[]",
        "numberOfBytes": "32"
      },
      "t_bool": {
        "encoding": "inplace",
        "label": "bool",
        "numberOfBytes": "1"
      },
      "t_contract(IBones)2474": {
        "encoding": "inplace",
        "label": "contract IBones",
        "numberOfBytes": "20"
      },
      "t_contract(INeandersmol)2516": {
        "encoding": "inplace",
        "label": "contract INeandersmol",
        "numberOfBytes": "20"
      },
      "t_contract(IPits)2546": {
        "encoding": "inplace",
        "label": "contract IPits",
        "numberOfBytes": "20"
      },
      "t_enum(Grounds)3034": {
        "encoding": "inplace",
        "label": "enum Grounds",
        "numberOfBytes": "1"
      },
      "t_mapping(t_address,t_array(t_uint256)dyn_storage)": {
        "encoding": "mapping",
        "key": "t_address",
        "label": "mapping(address => uint256[])",
        "numberOfBytes": "32",
        "value": "t_array(t_uint256)dyn_storage"
      },
      "t_mapping(t_uint256,t_mapping(t_uint256,t_uint256))": {
        "encoding": "mapping",
        "key": "t_uint256",
        "label": "mapping(uint256 => mapping(uint256 => uint256))",
        "numberOfBytes": "32",
        "value": "t_mapping(t_uint256,t_uint256)"
      },
      "t_mapping(t_uint256,t_struct(DevelopmentGround)2974_storage)": {
        "encoding": "mapping",
        "key": "t_uint256",
        "label": "mapping(uint256 => struct DevelopmentGround)",
        "numberOfBytes": "32",
        "value": "t_struct(DevelopmentGround)2974_storage"
      },
      "t_mapping(t_uint256,t_uint256)": {
        "encoding": "mapping",
        "key": "t_uint256",
        "label": "mapping(uint256 => uint256)",
        "numberOfBytes": "32",
        "value": "t_uint256"
      },
      "t_struct(DevelopmentGround)2974_storage": {
        "encoding": "inplace",
        "label": "struct DevelopmentGround",
        "members": [
          {
            "astId": 2958,
            "contract": "contracts/DevelopmentGrounds.sol:DevelopmentGrounds",
            "label": "owner",
            "offset": 0,
            "slot": "0",
            "type": "t_address"
          },
          {
            "astId": 2960,
            "contract": "contracts/DevelopmentGrounds.sol:DevelopmentGrounds",
            "label": "lockPeriod",
            "offset": 20,
            "slot": "0",
            "type": "t_uint64"
          },
          {
            "astId": 2962,
            "contract": "contracts/DevelopmentGrounds.sol:DevelopmentGrounds",
            "label": "amountPosition",
            "offset": 0,
            "slot": "1",
            "type": "t_uint64"
          },
          {
            "astId": 2964,
            "contract": "contracts/DevelopmentGrounds.sol:DevelopmentGrounds",
            "label": "entryTime",
            "offset": 8,
            "slot": "1",
            "type": "t_uint64"
          },
          {
            "astId": 2966,
            "contract": "contracts/DevelopmentGrounds.sol:DevelopmentGrounds",
            "label": "lastRewardTime",
            "offset": 16,
            "slot": "1",
            "type": "t_uint64"
          },
          {
            "astId": 2968,
            "contract": "contracts/DevelopmentGrounds.sol:DevelopmentGrounds",
            "label": "bonesStaked",
            "offset": 0,
            "slot": "2",
            "type": "t_uint256"
          },
          {
            "astId": 2970,
            "contract": "contracts/DevelopmentGrounds.sol:DevelopmentGrounds",
            "label": "currentPitsLockPeriod",
            "offset": 0,
            "slot": "3",
            "type": "t_uint256"
          },
          {
            "astId": 2973,
            "contract": "contracts/DevelopmentGrounds.sol:DevelopmentGrounds",
            "label": "ground",
            "offset": 0,
            "slot": "4",
            "type": "t_enum(Grounds)3034"
          }
        ],
        "numberOfBytes": "160"
      },
      "t_uint256": {
        "encoding": "inplace",
        "label": "uint256",
        "numberOfBytes": "32"
      },
      "t_uint64": {
        "encoding": "inplace",
        "label": "uint64",
        "numberOfBytes": "8"
      },
      "t_uint8": {
        "encoding": "inplace",
        "label": "uint8",
        "numberOfBytes": "1"
      }
    }
  }
}