{
  "address": "0xE6b63F9081241fb39DeF1569dcF3a5627f7c830b",
  "abi": [
    {
      "inputs": [],
      "name": "BalanceIsInsufficient",
      "type": "error"
    },
    {
      "inputs": [],
      "name": "CsIsBellowHundred",
      "type": "error"
    },
    {
      "inputs": [],
      "name": "InvalidLockTime",
      "type": "error"
    },
    {
      "inputs": [],
      "name": "LengthsNotEqual",
      "type": "error"
    },
    {
      "inputs": [],
      "name": "NeandersmolIsNotInDevelopmentGround",
      "type": "error"
    },
    {
      "inputs": [],
      "name": "NeandersmolsIsLocked",
      "type": "error"
    },
    {
      "inputs": [],
      "name": "NotYourToken",
      "type": "error"
    },
    {
      "inputs": [],
      "name": "WrongMultiple",
      "type": "error"
    },
    {
      "inputs": [],
      "name": "ZeroBalanceError",
      "type": "error"
    },
    {
      "anonymous": false,
      "inputs": [
        {
          "indexed": true,
          "internalType": "address",
          "name": "owner",
          "type": "address"
        },
        {
          "indexed": true,
          "internalType": "uint256",
          "name": "tokenId",
          "type": "uint256"
        },
        {
          "indexed": true,
          "internalType": "bool",
          "name": "stake",
          "type": "bool"
        }
      ],
      "name": "ClaimDevelopmentGroundBonesReward",
      "type": "event"
    },
    {
      "anonymous": false,
      "inputs": [
        {
          "indexed": true,
          "internalType": "address",
          "name": "owner",
          "type": "address"
        },
        {
          "indexed": true,
          "internalType": "uint256",
          "name": "tokenId",
          "type": "uint256"
        },
        {
          "indexed": true,
          "internalType": "uint256",
          "name": "lockTime",
          "type": "uint256"
        },
        {
          "indexed": false,
          "internalType": "uint256",
          "name": "entryTime",
          "type": "uint256"
        },
        {
          "indexed": false,
          "internalType": "enum Grounds",
          "name": "ground",
          "type": "uint8"
        }
      ],
      "name": "EnterDevelopmentGround",
      "type": "event"
    },
    {
      "anonymous": false,
      "inputs": [
        {
          "indexed": false,
          "internalType": "uint8",
          "name": "version",
          "type": "uint8"
        }
      ],
      "name": "Initialized",
      "type": "event"
    },
    {
      "anonymous": false,
      "inputs": [
        {
          "indexed": true,
          "internalType": "address",
          "name": "owner",
          "type": "address"
        },
        {
          "indexed": true,
          "internalType": "uint256",
          "name": "tokenId",
          "type": "uint256"
        }
      ],
      "name": "LeaveDevelopmentGround",
      "type": "event"
    },
    {
      "anonymous": false,
      "inputs": [
        {
          "indexed": true,
          "internalType": "address",
          "name": "owner",
          "type": "address"
        },
        {
          "indexed": true,
          "internalType": "uint256",
          "name": "tokenId",
          "type": "uint256"
        },
        {
          "indexed": true,
          "internalType": "uint256",
          "name": "amount",
          "type": "uint256"
        }
      ],
      "name": "RemoveBones",
      "type": "event"
    },
    {
      "anonymous": false,
      "inputs": [
        {
          "indexed": true,
          "internalType": "address",
          "name": "owner",
          "type": "address"
        },
        {
          "indexed": true,
          "internalType": "uint256",
          "name": "amount",
          "type": "uint256"
        },
        {
          "indexed": true,
          "internalType": "uint256",
          "name": "tokenId",
          "type": "uint256"
        }
      ],
      "name": "StakeBonesInDevelopmentGround",
      "type": "event"
    },
    {
      "inputs": [],
      "name": "bones",
      "outputs": [
        {
          "internalType": "contract IBones",
          "name": "",
          "type": "address"
        }
      ],
      "stateMutability": "view",
      "type": "function"
    },
    {
      "inputs": [
        {
          "internalType": "uint256[]",
          "name": "_tokenId",
          "type": "uint256[]"
        },
        {
          "internalType": "bool[]",
          "name": "_stake",
          "type": "bool[]"
        }
      ],
      "name": "claimDevelopmentGroundBonesReward",
      "outputs": [],
      "stateMutability": "nonpayable",
      "type": "function"
    },
    {
      "inputs": [
        {
          "internalType": "uint256[]",
          "name": "_tokenId",
          "type": "uint256[]"
        },
        {
          "internalType": "uint256[]",
          "name": "_lockTime",
          "type": "uint256[]"
        },
        {
          "internalType": "enum Grounds[]",
          "name": "_ground",
          "type": "uint8[]"
        }
      ],
      "name": "enterDevelopmentGround",
      "outputs": [],
      "stateMutability": "nonpayable",
      "type": "function"
    },
    {
      "inputs": [
        {
          "internalType": "uint256",
          "name": "_tokenId",
          "type": "uint256"
        }
      ],
      "name": "getDevelopmentGroundBonesReward",
      "outputs": [
        {
          "internalType": "uint256",
          "name": "",
          "type": "uint256"
        }
      ],
      "stateMutability": "view",
      "type": "function"
    },
    {
      "inputs": [
        {
          "internalType": "uint256",
          "name": "_tokenId",
          "type": "uint256"
        }
      ],
      "name": "getDevelopmentGroundInfo",
      "outputs": [
        {
          "components": [
            {
              "internalType": "address",
              "name": "owner",
              "type": "address"
            },
            {
              "internalType": "uint64",
              "name": "lockPeriod",
              "type": "uint64"
            },
            {
              "internalType": "uint64",
              "name": "amountPosition",
              "type": "uint64"
            },
            {
              "internalType": "uint64",
              "name": "entryTime",
              "type": "uint64"
            },
            {
              "internalType": "uint64",
              "name": "lastRewardTime",
              "type": "uint64"
            },
            {
              "internalType": "uint256",
              "name": "bonesStaked",
              "type": "uint256"
            },
            {
              "internalType": "uint256",
              "name": "currentPitsLockPeriod",
              "type": "uint256"
            },
            {
              "internalType": "enum Grounds",
              "name": "ground",
              "type": "uint8"
            }
          ],
          "internalType": "struct DevelopmentGround",
          "name": "",
          "type": "tuple"
        }
      ],
      "stateMutability": "view",
      "type": "function"
    },
    {
      "inputs": [
        {
          "internalType": "uint256",
          "name": "_tokenId",
          "type": "uint256"
        }
      ],
      "name": "getPrimarySkill",
      "outputs": [
        {
          "internalType": "uint256",
          "name": "",
          "type": "uint256"
        }
      ],
      "stateMutability": "view",
      "type": "function"
    },
    {
      "inputs": [
        {
          "internalType": "address",
          "name": "_owner",
          "type": "address"
        }
      ],
      "name": "getStakedTokens",
      "outputs": [
        {
          "internalType": "uint256[]",
          "name": "res",
          "type": "uint256[]"
        }
      ],
      "stateMutability": "view",
      "type": "function"
    },
    {
      "inputs": [
        {
          "internalType": "address",
          "name": "_pits",
          "type": "address"
        },
        {
          "internalType": "address",
          "name": "_neandersmol",
          "type": "address"
        },
        {
          "internalType": "address",
          "name": "_bones",
          "type": "address"
        }
      ],
      "name": "initialize",
      "outputs": [],
      "stateMutability": "nonpayable",
      "type": "function"
    },
    {
      "inputs": [
        {
          "internalType": "uint256[]",
          "name": "_tokenId",
          "type": "uint256[]"
        }
      ],
      "name": "leaveDevelopmentGround",
      "outputs": [],
      "stateMutability": "nonpayable",
      "type": "function"
    },
    {
      "inputs": [],
      "name": "neandersmol",
      "outputs": [
        {
          "internalType": "contract INeandersmol",
          "name": "",
          "type": "address"
        }
      ],
      "stateMutability": "view",
      "type": "function"
    },
    {
      "inputs": [],
      "name": "pits",
      "outputs": [
        {
          "internalType": "contract IPits",
          "name": "",
          "type": "address"
        }
      ],
      "stateMutability": "view",
      "type": "function"
    },
    {
      "inputs": [
        {
          "internalType": "uint256[]",
          "name": "_tokenId",
          "type": "uint256[]"
        },
        {
          "internalType": "bool[]",
          "name": "_all",
          "type": "bool[]"
        }
      ],
      "name": "removeBones",
      "outputs": [],
      "stateMutability": "nonpayable",
      "type": "function"
    },
    {
      "inputs": [
        {
          "internalType": "uint256[]",
          "name": "_amount",
          "type": "uint256[]"
        },
        {
          "internalType": "uint256[]",
          "name": "_tokenId",
          "type": "uint256[]"
        }
      ],
      "name": "stakeBonesInDevelopmentGround",
      "outputs": [],
      "stateMutability": "nonpayable",
      "type": "function"
    }
  ],
  "transactionHash": "0x1175107f7550e16da485e8db1ef46ff0c63d33bf0c9e5b359b5d75f7a4f1a25a",
  "args": [],
  "numDeployments": 1,
  "solcInputHash": "18f51bcb9845d8819b37cb038c9b098f",
  "bytecode": "0x608060405234801561001057600080fd5b50613a8f806100206000396000f3fe608060405234801561001057600080fd5b50600436106100cf5760003560e01c8063b00bec651161008c578063d88ad88711610066578063d88ad88714610210578063dd4fcc161461022e578063ea32dac51461025e578063ec42cb771461027a576100cf565b8063b00bec65146101ba578063c0c53b8b146101d8578063cb2fe05e146101f4576100cf565b80632a1f4146146100d45780633e39953a14610104578063547ac071146101345780635970f4531461015057806363c28db11461016c5780637fd4bfd51461019c575b600080fd5b6100ee60048036038101906100e99190612d29565b610296565b6040516100fb9190612d65565b60405180910390f35b61011e60048036038101906101199190612d29565b6104e3565b60405161012b9190612d65565b60405180910390f35b61014e60048036038101906101499190612de5565b610728565b005b61016a60048036038101906101659190612ebc565b610a5c565b005b61018660048036038101906101819190612fce565b6110dc565b60405161019391906130b9565b60405180910390f35b6101a4611173565b6040516101b1919061313a565b60405180910390f35b6101c2611199565b6040516101cf9190613176565b60405180910390f35b6101f260048036038101906101ed9190613191565b6111bf565b005b61020e6004803603810190610209919061323a565b6113bb565b005b610218611486565b60405161022591906132dc565b60405180910390f35b61024860048036038101906102439190612d29565b6114ac565b6040516102559190613442565b60405180910390f35b6102786004803603810190610273919061323a565b611647565b005b610294600480360381019061028f919061345e565b6116f0565b005b60008060066000848152602001908152602001600020604051806101000160405290816000820160009054906101000a900473ffffffffffffffffffffffffffffffffffffffff1673ffffffffffffffffffffffffffffffffffffffff1673ffffffffffffffffffffffffffffffffffffffff1681526020016000820160149054906101000a900467ffffffffffffffff1667ffffffffffffffff1667ffffffffffffffff1681526020016001820160009054906101000a900467ffffffffffffffff1667ffffffffffffffff1667ffffffffffffffff1681526020016001820160089054906101000a900467ffffffffffffffff1667ffffffffffffffff1667ffffffffffffffff1681526020016001820160109054906101000a900467ffffffffffffffff1667ffffffffffffffff1667ffffffffffffffff16815260200160028201548152602001600382015481526020016004820160009054906101000a900460ff16600281111561040f5761040e613329565b5b600281111561042157610420613329565b5b8152505090507357CFeaA556230252D60fab282cb354Cde6c11Fe96366ea43f08260a0015183604001518460c0015187600160009054906101000a900473ffffffffffffffffffffffffffffffffffffffff16600360046040518863ffffffff1660e01b815260040161049a9796959493929190613501565b602060405180830381865af41580156104b7573d6000803e3d6000fd5b505050506040513d601f19601f820116820180604052508101906104db9190613585565b915050919050565b60008060066000848152602001908152602001600020604051806101000160405290816000820160009054906101000a900473ffffffffffffffffffffffffffffffffffffffff1673ffffffffffffffffffffffffffffffffffffffff1673ffffffffffffffffffffffffffffffffffffffff1681526020016000820160149054906101000a900467ffffffffffffffff1667ffffffffffffffff1667ffffffffffffffff1681526020016001820160009054906101000a900467ffffffffffffffff1667ffffffffffffffff1667ffffffffffffffff1681526020016001820160089054906101000a900467ffffffffffffffff1667ffffffffffffffff1667ffffffffffffffff1681526020016001820160109054906101000a900467ffffffffffffffff1667ffffffffffffffff1667ffffffffffffffff16815260200160028201548152602001600382015481526020016004820160009054906101000a900460ff16600281111561065c5761065b613329565b5b600281111561066e5761066d613329565b5b8152505090507357CFeaA556230252D60fab282cb354Cde6c11Fe963f674f6b78260c0015183602001518460800151600160009054906101000a900473ffffffffffffffffffffffffffffffffffffffff166040518563ffffffff1660e01b81526004016106df94939291906135b2565b602060405180830381865af41580156106fc573d6000803e3d6000fd5b505050506040513d601f19601f820116820180604052508101906107209190613585565b915050919050565b7357CFeaA556230252D60fab282cb354Cde6c11Fe96371fcf204600160009054906101000a900473ffffffffffffffffffffffffffffffffffffffff166040518263ffffffff1660e01b815260040161078191906135f7565b60006040518083038186803b15801561079957600080fd5b505af41580156107ad573d6000803e3d6000fd5b505050506107bd84848484611730565b60005b84849050811015610a55576000808484848181106107e1576107e0613612565b5b905060200201358787858181106107fb576107fa613612565b5b9050602002013591509150600060066000848152602001908152602001600020905081600060029054906101000a900473ffffffffffffffffffffffffffffffffffffffff1673ffffffffffffffffffffffffffffffffffffffff166370a08231336040518263ffffffff1660e01b81526004016108799190613650565b602060405180830381865afa158015610896573d6000803e3d6000fd5b505050506040513d601f19601f820116820180604052508101906108ba9190613585565b10156108f2576040517f7276110900000000000000000000000000000000000000000000000000000000815260040160405180910390fd5b3373ffffffffffffffffffffffffffffffffffffffff168160000160009054906101000a900473ffffffffffffffffffffffffffffffffffffffff1673ffffffffffffffffffffffffffffffffffffffff161461097b576040517fb47f2b3300000000000000000000000000000000000000000000000000000000815260040160405180910390fd5b6000683635c9adc5dea0000083610992919061369a565b146109c9576040517f1d823d0700000000000000000000000000000000000000000000000000000000815260040160405180910390fd5b6109f7600060029054906101000a900473ffffffffffffffffffffffffffffffffffffffff16333085611775565b610a028184846117c5565b82823373ffffffffffffffffffffffffffffffffffffffff167f1004c640a4c8dbc3c9dd5ff33837d99e4882aaf2b20fb8e7c419fc83c8ca5bd060405160405180910390a48360010193505050506107c0565b5050505050565b6000610a6a87878787611730565b828290508585905014610aa9576040517f22cb666100000000000000000000000000000000000000000000000000000000815260040160405180910390fd5b7357CFeaA556230252D60fab282cb354Cde6c11Fe96371fcf204600160009054906101000a900473ffffffffffffffffffffffffffffffffffffffff166040518263ffffffff1660e01b8152600401610b0291906135f7565b60006040518083038186803b158015610b1a57600080fd5b505af4158015610b2e573d6000803e3d6000fd5b505050505b868690508110156110d357600080888884818110610b5457610b53613612565b5b90506020020135878785818110610b6e57610b6d613612565b5b905060200201359150915060006006600084815260200190815260200160002090506064600260009054906101000a900473ffffffffffffffffffffffffffffffffffffffff1673ffffffffffffffffffffffffffffffffffffffff1663f822a5b2856040518263ffffffff1660e01b8152600401610bed9190612d65565b602060405180830381865afa158015610c0a573d6000803e3d6000fd5b505050506040513d601f19601f82011682018060405250810190610c2e9190613585565b1015610c66576040517f7f36105d00000000000000000000000000000000000000000000000000000000815260040160405180910390fd5b3373ffffffffffffffffffffffffffffffffffffffff16600260009054906101000a900473ffffffffffffffffffffffffffffffffffffffff1673ffffffffffffffffffffffffffffffffffffffff16636352211e856040518263ffffffff1660e01b8152600401610cd89190612d65565b602060405180830381865afa158015610cf5573d6000803e3d6000fd5b505050506040513d601f19601f82011682018060405250810190610d1991906136e0565b73ffffffffffffffffffffffffffffffffffffffff1614610d66576040517f091fe61c00000000000000000000000000000000000000000000000000000000815260040160405180910390fd5b610d6f82611894565b610da5576040517fabf20e8f00000000000000000000000000000000000000000000000000000000815260040160405180910390fd5b600260009054906101000a900473ffffffffffffffffffffffffffffffffffffffff1673ffffffffffffffffffffffffffffffffffffffff166323b872dd3330866040518463ffffffff1660e01b8152600401610e049392919061370d565b600060405180830381600087803b158015610e1e57600080fd5b505af1158015610e32573d6000803e3d6000fd5b50505050338160000160006101000a81548173ffffffffffffffffffffffffffffffffffffffff021916908373ffffffffffffffffffffffffffffffffffffffff160217905550428160010160086101000a81548167ffffffffffffffff021916908367ffffffffffffffff160217905550818160000160146101000a81548167ffffffffffffffff021916908367ffffffffffffffff160217905550428160010160106101000a81548167ffffffffffffffff021916908367ffffffffffffffff160217905550858585818110610f0d57610f0c613612565b5b9050602002016020810190610f229190613769565b8160040160006101000a81548160ff02191690836002811115610f4857610f47613329565b5b0217905550600160009054906101000a900473ffffffffffffffffffffffffffffffffffffffff1673ffffffffffffffffffffffffffffffffffffffff16631b688d9f6040518163ffffffff1660e01b8152600401602060405180830381865afa158015610fba573d6000803e3d6000fd5b505050506040513d601f19601f82011682018060405250810190610fde9190613585565b8160030181905550600560003373ffffffffffffffffffffffffffffffffffffffff1673ffffffffffffffffffffffffffffffffffffffff16815260200190815260200160002083908060018154018082558091505060019003906000526020600020016000909190919091505581833373ffffffffffffffffffffffffffffffffffffffff167ff0a4b106684863ac7bbc666f47a082e4f6a197f11447743c5347b3344b6b527e428a8a8a81811061109a57611099613612565b5b90506020020160208101906110af9190613769565b6040516110bd9291906137a5565b60405180910390a4836001019350505050610b33565b50505050505050565b6060600560008373ffffffffffffffffffffffffffffffffffffffff1673ffffffffffffffffffffffffffffffffffffffff16815260200190815260200160002080548060200260200160405190810160405280929190818152602001828054801561116757602002820191906000526020600020905b815481526020019060010190808311611153575b50505050509050919050565b600160009054906101000a900473ffffffffffffffffffffffffffffffffffffffff1681565b600260009054906101000a900473ffffffffffffffffffffffffffffffffffffffff1681565b60008060019054906101000a900460ff161590508080156111f05750600160008054906101000a900460ff1660ff16105b8061121d57506111ff306118bd565b15801561121c5750600160008054906101000a900460ff1660ff16145b5b61125c576040517f08c379a000000000000000000000000000000000000000000000000000000000815260040161125390613851565b60405180910390fd5b60016000806101000a81548160ff021916908360ff1602179055508015611299576001600060016101000a81548160ff0219169083151502179055505b81600060026101000a81548173ffffffffffffffffffffffffffffffffffffffff021916908373ffffffffffffffffffffffffffffffffffffffff16021790555083600160006101000a81548173ffffffffffffffffffffffffffffffffffffffff021916908373ffffffffffffffffffffffffffffffffffffffff16021790555082600260006101000a81548173ffffffffffffffffffffffffffffffffffffffff021916908373ffffffffffffffffffffffffffffffffffffffff16021790555080156113b55760008060016101000a81548160ff0219169083151502179055507f7f26b83ff96e1f2b6a682f133852f6798a09c465da95921460cefb384740249860016040516113ac91906138b9565b60405180910390a15b50505050565b8181905084849050146113fa576040517f22cb666100000000000000000000000000000000000000000000000000000000815260040160405180910390fd5b60005b8484905081101561147f5761142a85858381811061141e5761141d613612565b5b905060200201356118e0565b6114748585838181106114405761143f613612565b5b9050602002013584848481811061145a57611459613612565b5b905060200201602081019061146f919061390c565b611c9c565b8060010190506113fd565b5050505050565b600060029054906101000a900473ffffffffffffffffffffffffffffffffffffffff1681565b6114b4612c54565b60066000838152602001908152602001600020604051806101000160405290816000820160009054906101000a900473ffffffffffffffffffffffffffffffffffffffff1673ffffffffffffffffffffffffffffffffffffffff1673ffffffffffffffffffffffffffffffffffffffff1681526020016000820160149054906101000a900467ffffffffffffffff1667ffffffffffffffff1667ffffffffffffffff1681526020016001820160009054906101000a900467ffffffffffffffff1667ffffffffffffffff1667ffffffffffffffff1681526020016001820160089054906101000a900467ffffffffffffffff1667ffffffffffffffff1667ffffffffffffffff1681526020016001820160109054906101000a900467ffffffffffffffff1667ffffffffffffffff1667ffffffffffffffff16815260200160028201548152602001600382015481526020016004820160009054906101000a900460ff16600281111561162a57611629613329565b5b600281111561163c5761163b613329565b5b815250509050919050565b818190508484905014611686576040517f22cb666100000000000000000000000000000000000000000000000000000000815260040160405180910390fd5b60005b848490508110156116e9576116de8585838181106116aa576116a9613612565b5b905060200201358484848181106116c4576116c3613612565b5b90506020020160208101906116d9919061390c565b61217a565b806001019050611689565b5050505050565b60005b8282905081101561172b5761172083838381811061171457611713613612565b5b905060200201356124e8565b8060010190506116f3565b505050565b81819050848490501461176f576040517f22cb666100000000000000000000000000000000000000000000000000000000815260040160405180910390fd5b50505050565b6040516323b872dd600052836020528260405281606052602060006064601c6000895af13d1560016000511417166117b557637939f4246000526004601cfd5b6000606052806040525050505050565b80836002016000828254019250508190555082600101600081819054906101000a900467ffffffffffffffff1660010191906101000a81548167ffffffffffffffff021916908367ffffffffffffffff1602179055508060046000848152602001908152602001600020600042815260200190815260200160002081905550426003600084815260200190815260200160002060008560010160009054906101000a900467ffffffffffffffff1667ffffffffffffffff16815260200190815260200160002081905550505050565b60006241eb008214806118a957506283d60082145b806118b6575062c5c10082145b9050919050565b6000808273ffffffffffffffffffffffffffffffffffffffff163b119050919050565b600060066000838152602001908152602001600020604051806101000160405290816000820160009054906101000a900473ffffffffffffffffffffffffffffffffffffffff1673ffffffffffffffffffffffffffffffffffffffff1673ffffffffffffffffffffffffffffffffffffffff1681526020016000820160149054906101000a900467ffffffffffffffff1667ffffffffffffffff1667ffffffffffffffff1681526020016001820160009054906101000a900467ffffffffffffffff1667ffffffffffffffff1667ffffffffffffffff1681526020016001820160089054906101000a900467ffffffffffffffff1667ffffffffffffffff1667ffffffffffffffff1681526020016001820160109054906101000a900467ffffffffffffffff1667ffffffffffffffff1667ffffffffffffffff16815260200160028201548152602001600382015481526020016004820160009054906101000a900460ff166002811115611a5857611a57613329565b5b6002811115611a6a57611a69613329565b5b815250509050600080611a7c84610296565b8360e001519150915060006002811115611a9957611a98613329565b5b816002811115611aac57611aab613329565b5b03611b4557600260009054906101000a900473ffffffffffffffffffffffffffffffffffffffff1673ffffffffffffffffffffffffffffffffffffffff1663743f4e9485846040518363ffffffff1660e01b8152600401611b0e929190613939565b600060405180830381600087803b158015611b2857600080fd5b505af1158015611b3c573d6000803e3d6000fd5b50505050611c96565b60016002811115611b5957611b58613329565b5b816002811115611b6c57611b6b613329565b5b03611c0557600260009054906101000a900473ffffffffffffffffffffffffffffffffffffffff1673ffffffffffffffffffffffffffffffffffffffff1663067ea39285846040518363ffffffff1660e01b8152600401611bce929190613939565b600060405180830381600087803b158015611be857600080fd5b505af1158015611bfc573d6000803e3d6000fd5b50505050611c95565b600260009054906101000a900473ffffffffffffffffffffffffffffffffffffffff1673ffffffffffffffffffffffffffffffffffffffff1663e0c5057785846040518363ffffffff1660e01b8152600401611c62929190613939565b600060405180830381600087803b158015611c7c57600080fd5b505af1158015611c90573d6000803e3d6000fd5b505050505b5b50505050565b600060066000848152602001908152602001600020604051806101000160405290816000820160009054906101000a900473ffffffffffffffffffffffffffffffffffffffff1673ffffffffffffffffffffffffffffffffffffffff1673ffffffffffffffffffffffffffffffffffffffff1681526020016000820160149054906101000a900467ffffffffffffffff1667ffffffffffffffff1667ffffffffffffffff1681526020016001820160009054906101000a900467ffffffffffffffff1667ffffffffffffffff1667ffffffffffffffff1681526020016001820160089054906101000a900467ffffffffffffffff1667ffffffffffffffff1667ffffffffffffffff1681526020016001820160109054906101000a900467ffffffffffffffff1667ffffffffffffffff1667ffffffffffffffff16815260200160028201548152602001600382015481526020016004820160009054906101000a900460ff166002811115611e1457611e13613329565b5b6002811115611e2657611e25613329565b5b81525050905060008160a0015103611e6a576040517f9b4bb81b00000000000000000000000000000000000000000000000000000000815260040160405180910390fd5b600080600190506000805b846040015167ffffffffffffffff16831161203157600080600360008a8152602001908152602001600020600086815260200190815260200160002054600360008b81526020019081526020016000206000600188018152602001908152602001600020549150915062278d00820142108015611ef0575087155b15611efc575050612026565b62278d00820142108015611f0d5750875b611f4057600460008a81526020019081526020016000206000838152602001908152602001600020548401935083611f7c565b6002600460008b815260200190815260200160002060008481526020019081526020016000205481611f7557611f7461366b565b5b0484019350835b508780611f9757506001876040015167ffffffffffffffff16145b611fc85780600360008b81526020019081526020016000206000878152602001908152602001600020819055611ff2565b6000600360008b815260200190815260200160002060008781526020019081526020016000208190555b506000600460008b815260200190815260200160002060008481526020019081526020016000208190555082600101925050505b826001019250611e75565b806006600089815260200190815260200160002060010160008282829054906101000a900467ffffffffffffffff160392506101000a81548167ffffffffffffffff021916908367ffffffffffffffff160217905550816006600089815260200190815260200160002060020160008282540392505081905550818560a00151039350600084141580156120c25750855b156120f6576120f5600060029054906101000a900473ffffffffffffffffffffffffffffffffffffffff1660018661295c565b5b6000821461212c5761212b600060029054906101000a900473ffffffffffffffffffffffffffffffffffffffff16338661295c565b5b81873373ffffffffffffffffffffffffffffffffffffffff167fa720e44767e2cddb37cfa697023b1f3875d107b58722b1cb628083a465290af860405160405180910390a450505050505050565b600060066000848152602001908152602001600020604051806101000160405290816000820160009054906101000a900473ffffffffffffffffffffffffffffffffffffffff1673ffffffffffffffffffffffffffffffffffffffff1673ffffffffffffffffffffffffffffffffffffffff1681526020016000820160149054906101000a900467ffffffffffffffff1667ffffffffffffffff1667ffffffffffffffff1681526020016001820160009054906101000a900467ffffffffffffffff1667ffffffffffffffff1667ffffffffffffffff1681526020016001820160089054906101000a900467ffffffffffffffff1667ffffffffffffffff1667ffffffffffffffff1681526020016001820160109054906101000a900467ffffffffffffffff1667ffffffffffffffff1667ffffffffffffffff16815260200160028201548152602001600382015481526020016004820160009054906101000a900460ff1660028111156122f2576122f1613329565b5b600281111561230457612303613329565b5b8152505090503373ffffffffffffffffffffffffffffffffffffffff16816000015173ffffffffffffffffffffffffffffffffffffffff1614612373576040517f091fe61c00000000000000000000000000000000000000000000000000000000815260040160405180910390fd5b600061237e846104e3565b9050600081036123ba576040517f9b4bb81b00000000000000000000000000000000000000000000000000000000815260040160405180910390fd5b426006600086815260200190815260200160002060010160106101000a81548167ffffffffffffffff021916908367ffffffffffffffff1602179055508261249057600060029054906101000a900473ffffffffffffffffffffffffffffffffffffffff1673ffffffffffffffffffffffffffffffffffffffff166340c10f1933836040518363ffffffff1660e01b8152600401612459929190613962565b600060405180830381600087803b15801561247357600080fd5b505af1158015612487573d6000803e3d6000fd5b5050505061249b565b61249a84826129a5565b5b821515843373ffffffffffffffffffffffffffffffffffffffff167f10fffc2725e2f04d2e9a7aa7762d3db31dd4051420267e5be076a5b13e8bb07760405160405180910390a450505050565b600060066000838152602001908152602001600020604051806101000160405290816000820160009054906101000a900473ffffffffffffffffffffffffffffffffffffffff1673ffffffffffffffffffffffffffffffffffffffff1673ffffffffffffffffffffffffffffffffffffffff1681526020016000820160149054906101000a900467ffffffffffffffff1667ffffffffffffffff1667ffffffffffffffff1681526020016001820160009054906101000a900467ffffffffffffffff1667ffffffffffffffff1667ffffffffffffffff1681526020016001820160089054906101000a900467ffffffffffffffff1667ffffffffffffffff1667ffffffffffffffff1681526020016001820160109054906101000a900467ffffffffffffffff1667ffffffffffffffff1667ffffffffffffffff16815260200160028201548152602001600382015481526020016004820160009054906101000a900460ff1660028111156126605761265f613329565b5b600281111561267257612671613329565b5b8152505090503373ffffffffffffffffffffffffffffffffffffffff16816000015173ffffffffffffffffffffffffffffffffffffffff16146126e1576040517f091fe61c00000000000000000000000000000000000000000000000000000000815260040160405180910390fd5b806020015181606001516126f591906139ba565b67ffffffffffffffff16421015612738576040517ff5dcc1e300000000000000000000000000000000000000000000000000000000815260040160405180910390fd5b6000612743836104e3565b11156127555761275482600061217a565b5b60008160a00151111561276e5761276d826001611c9c565b5b6127b6600560003373ffffffffffffffffffffffffffffffffffffffff1673ffffffffffffffffffffffffffffffffffffffff16815260200190815260200160002083612b96565b60066000838152602001908152602001600020600080820160006101000a81549073ffffffffffffffffffffffffffffffffffffffff02191690556000820160146101000a81549067ffffffffffffffff02191690556001820160006101000a81549067ffffffffffffffff02191690556001820160086101000a81549067ffffffffffffffff02191690556001820160106101000a81549067ffffffffffffffff0219169055600282016000905560038201600090556004820160006101000a81549060ff02191690555050600260009054906101000a900473ffffffffffffffffffffffffffffffffffffffff1673ffffffffffffffffffffffffffffffffffffffff166323b872dd3033856040518463ffffffff1660e01b81526004016128e29392919061370d565b600060405180830381600087803b1580156128fc57600080fd5b505af1158015612910573d6000803e3d6000fd5b50505050813373ffffffffffffffffffffffffffffffffffffffff167f26727522aa20721ee01410aea547e7fc187973e8abf49394168d3c9cb4c90cf260405160405180910390a35050565b81601a5280603a5269a9059cbb00000000000060005260206000604460166000875af13d15600160005114171661299b576390b8ec186000526004601cfd5b6000603a52505050565b6000683635c9adc5dea00000826129bc919061369a565b90508181036129f7576040517f1d823d0700000000000000000000000000000000000000000000000000000000815260040160405180910390fd5b60008114612a8f57600060029054906101000a900473ffffffffffffffffffffffffffffffffffffffff1673ffffffffffffffffffffffffffffffffffffffff166340c10f1933836040518363ffffffff1660e01b8152600401612a5c929190613962565b600060405180830381600087803b158015612a7657600080fd5b505af1158015612a8a573d6000803e3d6000fd5b505050505b60008183612a9d91906139f6565b9050612abc6006600086815260200190815260200160002085836117c5565b600060029054906101000a900473ffffffffffffffffffffffffffffffffffffffff1673ffffffffffffffffffffffffffffffffffffffff166340c10f1930836040518363ffffffff1660e01b8152600401612b19929190613962565b600060405180830381600087803b158015612b3357600080fd5b505af1158015612b47573d6000803e3d6000fd5b5050505083813373ffffffffffffffffffffffffffffffffffffffff167f1004c640a4c8dbc3c9dd5ff33837d99e4882aaf2b20fb8e7c419fc83c8ca5bd060405160405180910390a450505050565b60005b8280549050811015612c4f5781838281548110612bb957612bb8613612565b5b906000526020600020015403612c44578260018480549050612bdb91906139f6565b81548110612bec57612beb613612565b5b9060005260206000200154838281548110612c0a57612c09613612565b5b906000526020600020018190555082805480612c2957612c28613a2a565b5b60019003818190600052602060002001600090559055612c4f565b806001019050612b99565b505050565b604051806101000160405280600073ffffffffffffffffffffffffffffffffffffffff168152602001600067ffffffffffffffff168152602001600067ffffffffffffffff168152602001600067ffffffffffffffff168152602001600067ffffffffffffffff168152602001600081526020016000815260200160006002811115612ce357612ce2613329565b5b81525090565b600080fd5b600080fd5b6000819050919050565b612d0681612cf3565b8114612d1157600080fd5b50565b600081359050612d2381612cfd565b92915050565b600060208284031215612d3f57612d3e612ce9565b5b6000612d4d84828501612d14565b91505092915050565b612d5f81612cf3565b82525050565b6000602082019050612d7a6000830184612d56565b92915050565b600080fd5b600080fd5b600080fd5b60008083601f840112612da557612da4612d80565b5b8235905067ffffffffffffffff811115612dc257612dc1612d85565b5b602083019150836020820283011115612dde57612ddd612d8a565b5b9250929050565b60008060008060408587031215612dff57612dfe612ce9565b5b600085013567ffffffffffffffff811115612e1d57612e1c612cee565b5b612e2987828801612d8f565b9450945050602085013567ffffffffffffffff811115612e4c57612e4b612cee565b5b612e5887828801612d8f565b925092505092959194509250565b60008083601f840112612e7c57612e7b612d80565b5b8235905067ffffffffffffffff811115612e9957612e98612d85565b5b602083019150836020820283011115612eb557612eb4612d8a565b5b9250929050565b60008060008060008060608789031215612ed957612ed8612ce9565b5b600087013567ffffffffffffffff811115612ef757612ef6612cee565b5b612f0389828a01612d8f565b9650965050602087013567ffffffffffffffff811115612f2657612f25612cee565b5b612f3289828a01612d8f565b9450945050604087013567ffffffffffffffff811115612f5557612f54612cee565b5b612f6189828a01612e66565b92509250509295509295509295565b600073ffffffffffffffffffffffffffffffffffffffff82169050919050565b6000612f9b82612f70565b9050919050565b612fab81612f90565b8114612fb657600080fd5b50565b600081359050612fc881612fa2565b92915050565b600060208284031215612fe457612fe3612ce9565b5b6000612ff284828501612fb9565b91505092915050565b600081519050919050565b600082825260208201905092915050565b6000819050602082019050919050565b61303081612cf3565b82525050565b60006130428383613027565b60208301905092915050565b6000602082019050919050565b600061306682612ffb565b6130708185613006565b935061307b83613017565b8060005b838110156130ac5781516130938882613036565b975061309e8361304e565b92505060018101905061307f565b5085935050505092915050565b600060208201905081810360008301526130d3818461305b565b905092915050565b6000819050919050565b60006131006130fb6130f684612f70565b6130db565b612f70565b9050919050565b6000613112826130e5565b9050919050565b600061312482613107565b9050919050565b61313481613119565b82525050565b600060208201905061314f600083018461312b565b92915050565b600061316082613107565b9050919050565b61317081613155565b82525050565b600060208201905061318b6000830184613167565b92915050565b6000806000606084860312156131aa576131a9612ce9565b5b60006131b886828701612fb9565b93505060206131c986828701612fb9565b92505060406131da86828701612fb9565b9150509250925092565b60008083601f8401126131fa576131f9612d80565b5b8235905067ffffffffffffffff81111561321757613216612d85565b5b60208301915083602082028301111561323357613232612d8a565b5b9250929050565b6000806000806040858703121561325457613253612ce9565b5b600085013567ffffffffffffffff81111561327257613271612cee565b5b61327e87828801612d8f565b9450945050602085013567ffffffffffffffff8111156132a1576132a0612cee565b5b6132ad878288016131e4565b925092505092959194509250565b60006132c682613107565b9050919050565b6132d6816132bb565b82525050565b60006020820190506132f160008301846132cd565b92915050565b61330081612f90565b82525050565b600067ffffffffffffffff82169050919050565b61332381613306565b82525050565b7f4e487b7100000000000000000000000000000000000000000000000000000000600052602160045260246000fd5b6003811061336957613368613329565b5b50565b600081905061337a82613358565b919050565b600061338a8261336c565b9050919050565b61339a8161337f565b82525050565b610100820160008201516133b760008501826132f7565b5060208201516133ca602085018261331a565b5060408201516133dd604085018261331a565b5060608201516133f0606085018261331a565b506080820151613403608085018261331a565b5060a082015161341660a0850182613027565b5060c082015161342960c0850182613027565b5060e082015161343c60e0850182613391565b50505050565b60006101008201905061345860008301846133a0565b92915050565b6000806020838503121561347557613474612ce9565b5b600083013567ffffffffffffffff81111561349357613492612cee565b5b61349f85828601612d8f565b92509250509250929050565b6134b481612cf3565b82525050565b60006134d56134d06134cb84613306565b6130db565b612cf3565b9050919050565b6134e5816134ba565b82525050565b6134f481613119565b82525050565b8082525050565b600060e082019050613516600083018a6134ab565b61352360208301896134dc565b61353060408301886134ab565b61353d60608301876134ab565b61354a60808301866134eb565b61355760a08301856134fa565b61356460c08301846134fa565b98975050505050505050565b60008151905061357f81612cfd565b92915050565b60006020828403121561359b5761359a612ce9565b5b60006135a984828501613570565b91505092915050565b60006080820190506135c760008301876134ab565b6135d460208301866134dc565b6135e160408301856134dc565b6135ee60608301846134eb565b95945050505050565b600060208201905061360c60008301846134eb565b92915050565b7f4e487b7100000000000000000000000000000000000000000000000000000000600052603260045260246000fd5b61364a81612f90565b82525050565b60006020820190506136656000830184613641565b92915050565b7f4e487b7100000000000000000000000000000000000000000000000000000000600052601260045260246000fd5b60006136a582612cf3565b91506136b083612cf3565b9250826136c0576136bf61366b565b5b828206905092915050565b6000815190506136da81612fa2565b92915050565b6000602082840312156136f6576136f5612ce9565b5b6000613704848285016136cb565b91505092915050565b60006060820190506137226000830186613641565b61372f6020830185613641565b61373c6040830184612d56565b949350505050565b6003811061375157600080fd5b50565b60008135905061376381613744565b92915050565b60006020828403121561377f5761377e612ce9565b5b600061378d84828501613754565b91505092915050565b61379f8161337f565b82525050565b60006040820190506137ba6000830185612d56565b6137c76020830184613796565b9392505050565b600082825260208201905092915050565b7f496e697469616c697a61626c653a20636f6e747261637420697320616c72656160008201527f647920696e697469616c697a6564000000000000000000000000000000000000602082015250565b600061383b602e836137ce565b9150613846826137df565b604082019050919050565b6000602082019050818103600083015261386a8161382e565b9050919050565b6000819050919050565b600060ff82169050919050565b60006138a361389e61389984613871565b6130db565b61387b565b9050919050565b6138b381613888565b82525050565b60006020820190506138ce60008301846138aa565b92915050565b60008115159050919050565b6138e9816138d4565b81146138f457600080fd5b50565b600081359050613906816138e0565b92915050565b60006020828403121561392257613921612ce9565b5b6000613930848285016138f7565b91505092915050565b600060408201905061394e6000830185612d56565b61395b6020830184612d56565b9392505050565b60006040820190506139776000830185613641565b6139846020830184612d56565b9392505050565b7f4e487b7100000000000000000000000000000000000000000000000000000000600052601160045260246000fd5b60006139c582613306565b91506139d083613306565b9250828201905067ffffffffffffffff8111156139f0576139ef61398b565b5b92915050565b6000613a0182612cf3565b9150613a0c83612cf3565b9250828203905081811115613a2457613a2361398b565b5b92915050565b7f4e487b7100000000000000000000000000000000000000000000000000000000600052603160045260246000fdfea26469706673582212207caea759855c28281303e594b66ead270ed50b4f3e106368d5f3db4a0ea60e0464736f6c63430008110033",
  "deployedBytecode": "0x608060405234801561001057600080fd5b50600436106100cf5760003560e01c8063b00bec651161008c578063d88ad88711610066578063d88ad88714610210578063dd4fcc161461022e578063ea32dac51461025e578063ec42cb771461027a576100cf565b8063b00bec65146101ba578063c0c53b8b146101d8578063cb2fe05e146101f4576100cf565b80632a1f4146146100d45780633e39953a14610104578063547ac071146101345780635970f4531461015057806363c28db11461016c5780637fd4bfd51461019c575b600080fd5b6100ee60048036038101906100e99190612d29565b610296565b6040516100fb9190612d65565b60405180910390f35b61011e60048036038101906101199190612d29565b6104e3565b60405161012b9190612d65565b60405180910390f35b61014e60048036038101906101499190612de5565b610728565b005b61016a60048036038101906101659190612ebc565b610a5c565b005b61018660048036038101906101819190612fce565b6110dc565b60405161019391906130b9565b60405180910390f35b6101a4611173565b6040516101b1919061313a565b60405180910390f35b6101c2611199565b6040516101cf9190613176565b60405180910390f35b6101f260048036038101906101ed9190613191565b6111bf565b005b61020e6004803603810190610209919061323a565b6113bb565b005b610218611486565b60405161022591906132dc565b60405180910390f35b61024860048036038101906102439190612d29565b6114ac565b6040516102559190613442565b60405180910390f35b6102786004803603810190610273919061323a565b611647565b005b610294600480360381019061028f919061345e565b6116f0565b005b60008060066000848152602001908152602001600020604051806101000160405290816000820160009054906101000a900473ffffffffffffffffffffffffffffffffffffffff1673ffffffffffffffffffffffffffffffffffffffff1673ffffffffffffffffffffffffffffffffffffffff1681526020016000820160149054906101000a900467ffffffffffffffff1667ffffffffffffffff1667ffffffffffffffff1681526020016001820160009054906101000a900467ffffffffffffffff1667ffffffffffffffff1667ffffffffffffffff1681526020016001820160089054906101000a900467ffffffffffffffff1667ffffffffffffffff1667ffffffffffffffff1681526020016001820160109054906101000a900467ffffffffffffffff1667ffffffffffffffff1667ffffffffffffffff16815260200160028201548152602001600382015481526020016004820160009054906101000a900460ff16600281111561040f5761040e613329565b5b600281111561042157610420613329565b5b81525050905073__$c89922958da0ecd017c5bfa382f5c80a2d$__6366ea43f08260a0015183604001518460c0015187600160009054906101000a900473ffffffffffffffffffffffffffffffffffffffff16600360046040518863ffffffff1660e01b815260040161049a9796959493929190613501565b602060405180830381865af41580156104b7573d6000803e3d6000fd5b505050506040513d601f19601f820116820180604052508101906104db9190613585565b915050919050565b60008060066000848152602001908152602001600020604051806101000160405290816000820160009054906101000a900473ffffffffffffffffffffffffffffffffffffffff1673ffffffffffffffffffffffffffffffffffffffff1673ffffffffffffffffffffffffffffffffffffffff1681526020016000820160149054906101000a900467ffffffffffffffff1667ffffffffffffffff1667ffffffffffffffff1681526020016001820160009054906101000a900467ffffffffffffffff1667ffffffffffffffff1667ffffffffffffffff1681526020016001820160089054906101000a900467ffffffffffffffff1667ffffffffffffffff1667ffffffffffffffff1681526020016001820160109054906101000a900467ffffffffffffffff1667ffffffffffffffff1667ffffffffffffffff16815260200160028201548152602001600382015481526020016004820160009054906101000a900460ff16600281111561065c5761065b613329565b5b600281111561066e5761066d613329565b5b81525050905073__$c89922958da0ecd017c5bfa382f5c80a2d$__63f674f6b78260c0015183602001518460800151600160009054906101000a900473ffffffffffffffffffffffffffffffffffffffff166040518563ffffffff1660e01b81526004016106df94939291906135b2565b602060405180830381865af41580156106fc573d6000803e3d6000fd5b505050506040513d601f19601f820116820180604052508101906107209190613585565b915050919050565b73__$c89922958da0ecd017c5bfa382f5c80a2d$__6371fcf204600160009054906101000a900473ffffffffffffffffffffffffffffffffffffffff166040518263ffffffff1660e01b815260040161078191906135f7565b60006040518083038186803b15801561079957600080fd5b505af41580156107ad573d6000803e3d6000fd5b505050506107bd84848484611730565b60005b84849050811015610a55576000808484848181106107e1576107e0613612565b5b905060200201358787858181106107fb576107fa613612565b5b9050602002013591509150600060066000848152602001908152602001600020905081600060029054906101000a900473ffffffffffffffffffffffffffffffffffffffff1673ffffffffffffffffffffffffffffffffffffffff166370a08231336040518263ffffffff1660e01b81526004016108799190613650565b602060405180830381865afa158015610896573d6000803e3d6000fd5b505050506040513d601f19601f820116820180604052508101906108ba9190613585565b10156108f2576040517f7276110900000000000000000000000000000000000000000000000000000000815260040160405180910390fd5b3373ffffffffffffffffffffffffffffffffffffffff168160000160009054906101000a900473ffffffffffffffffffffffffffffffffffffffff1673ffffffffffffffffffffffffffffffffffffffff161461097b576040517fb47f2b3300000000000000000000000000000000000000000000000000000000815260040160405180910390fd5b6000683635c9adc5dea0000083610992919061369a565b146109c9576040517f1d823d0700000000000000000000000000000000000000000000000000000000815260040160405180910390fd5b6109f7600060029054906101000a900473ffffffffffffffffffffffffffffffffffffffff16333085611775565b610a028184846117c5565b82823373ffffffffffffffffffffffffffffffffffffffff167f1004c640a4c8dbc3c9dd5ff33837d99e4882aaf2b20fb8e7c419fc83c8ca5bd060405160405180910390a48360010193505050506107c0565b5050505050565b6000610a6a87878787611730565b828290508585905014610aa9576040517f22cb666100000000000000000000000000000000000000000000000000000000815260040160405180910390fd5b73__$c89922958da0ecd017c5bfa382f5c80a2d$__6371fcf204600160009054906101000a900473ffffffffffffffffffffffffffffffffffffffff166040518263ffffffff1660e01b8152600401610b0291906135f7565b60006040518083038186803b158015610b1a57600080fd5b505af4158015610b2e573d6000803e3d6000fd5b505050505b868690508110156110d357600080888884818110610b5457610b53613612565b5b90506020020135878785818110610b6e57610b6d613612565b5b905060200201359150915060006006600084815260200190815260200160002090506064600260009054906101000a900473ffffffffffffffffffffffffffffffffffffffff1673ffffffffffffffffffffffffffffffffffffffff1663f822a5b2856040518263ffffffff1660e01b8152600401610bed9190612d65565b602060405180830381865afa158015610c0a573d6000803e3d6000fd5b505050506040513d601f19601f82011682018060405250810190610c2e9190613585565b1015610c66576040517f7f36105d00000000000000000000000000000000000000000000000000000000815260040160405180910390fd5b3373ffffffffffffffffffffffffffffffffffffffff16600260009054906101000a900473ffffffffffffffffffffffffffffffffffffffff1673ffffffffffffffffffffffffffffffffffffffff16636352211e856040518263ffffffff1660e01b8152600401610cd89190612d65565b602060405180830381865afa158015610cf5573d6000803e3d6000fd5b505050506040513d601f19601f82011682018060405250810190610d1991906136e0565b73ffffffffffffffffffffffffffffffffffffffff1614610d66576040517f091fe61c00000000000000000000000000000000000000000000000000000000815260040160405180910390fd5b610d6f82611894565b610da5576040517fabf20e8f00000000000000000000000000000000000000000000000000000000815260040160405180910390fd5b600260009054906101000a900473ffffffffffffffffffffffffffffffffffffffff1673ffffffffffffffffffffffffffffffffffffffff166323b872dd3330866040518463ffffffff1660e01b8152600401610e049392919061370d565b600060405180830381600087803b158015610e1e57600080fd5b505af1158015610e32573d6000803e3d6000fd5b50505050338160000160006101000a81548173ffffffffffffffffffffffffffffffffffffffff021916908373ffffffffffffffffffffffffffffffffffffffff160217905550428160010160086101000a81548167ffffffffffffffff021916908367ffffffffffffffff160217905550818160000160146101000a81548167ffffffffffffffff021916908367ffffffffffffffff160217905550428160010160106101000a81548167ffffffffffffffff021916908367ffffffffffffffff160217905550858585818110610f0d57610f0c613612565b5b9050602002016020810190610f229190613769565b8160040160006101000a81548160ff02191690836002811115610f4857610f47613329565b5b0217905550600160009054906101000a900473ffffffffffffffffffffffffffffffffffffffff1673ffffffffffffffffffffffffffffffffffffffff16631b688d9f6040518163ffffffff1660e01b8152600401602060405180830381865afa158015610fba573d6000803e3d6000fd5b505050506040513d601f19601f82011682018060405250810190610fde9190613585565b8160030181905550600560003373ffffffffffffffffffffffffffffffffffffffff1673ffffffffffffffffffffffffffffffffffffffff16815260200190815260200160002083908060018154018082558091505060019003906000526020600020016000909190919091505581833373ffffffffffffffffffffffffffffffffffffffff167ff0a4b106684863ac7bbc666f47a082e4f6a197f11447743c5347b3344b6b527e428a8a8a81811061109a57611099613612565b5b90506020020160208101906110af9190613769565b6040516110bd9291906137a5565b60405180910390a4836001019350505050610b33565b50505050505050565b6060600560008373ffffffffffffffffffffffffffffffffffffffff1673ffffffffffffffffffffffffffffffffffffffff16815260200190815260200160002080548060200260200160405190810160405280929190818152602001828054801561116757602002820191906000526020600020905b815481526020019060010190808311611153575b50505050509050919050565b600160009054906101000a900473ffffffffffffffffffffffffffffffffffffffff1681565b600260009054906101000a900473ffffffffffffffffffffffffffffffffffffffff1681565b60008060019054906101000a900460ff161590508080156111f05750600160008054906101000a900460ff1660ff16105b8061121d57506111ff306118bd565b15801561121c5750600160008054906101000a900460ff1660ff16145b5b61125c576040517f08c379a000000000000000000000000000000000000000000000000000000000815260040161125390613851565b60405180910390fd5b60016000806101000a81548160ff021916908360ff1602179055508015611299576001600060016101000a81548160ff0219169083151502179055505b81600060026101000a81548173ffffffffffffffffffffffffffffffffffffffff021916908373ffffffffffffffffffffffffffffffffffffffff16021790555083600160006101000a81548173ffffffffffffffffffffffffffffffffffffffff021916908373ffffffffffffffffffffffffffffffffffffffff16021790555082600260006101000a81548173ffffffffffffffffffffffffffffffffffffffff021916908373ffffffffffffffffffffffffffffffffffffffff16021790555080156113b55760008060016101000a81548160ff0219169083151502179055507f7f26b83ff96e1f2b6a682f133852f6798a09c465da95921460cefb384740249860016040516113ac91906138b9565b60405180910390a15b50505050565b8181905084849050146113fa576040517f22cb666100000000000000000000000000000000000000000000000000000000815260040160405180910390fd5b60005b8484905081101561147f5761142a85858381811061141e5761141d613612565b5b905060200201356118e0565b6114748585838181106114405761143f613612565b5b9050602002013584848481811061145a57611459613612565b5b905060200201602081019061146f919061390c565b611c9c565b8060010190506113fd565b5050505050565b600060029054906101000a900473ffffffffffffffffffffffffffffffffffffffff1681565b6114b4612c54565b60066000838152602001908152602001600020604051806101000160405290816000820160009054906101000a900473ffffffffffffffffffffffffffffffffffffffff1673ffffffffffffffffffffffffffffffffffffffff1673ffffffffffffffffffffffffffffffffffffffff1681526020016000820160149054906101000a900467ffffffffffffffff1667ffffffffffffffff1667ffffffffffffffff1681526020016001820160009054906101000a900467ffffffffffffffff1667ffffffffffffffff1667ffffffffffffffff1681526020016001820160089054906101000a900467ffffffffffffffff1667ffffffffffffffff1667ffffffffffffffff1681526020016001820160109054906101000a900467ffffffffffffffff1667ffffffffffffffff1667ffffffffffffffff16815260200160028201548152602001600382015481526020016004820160009054906101000a900460ff16600281111561162a57611629613329565b5b600281111561163c5761163b613329565b5b815250509050919050565b818190508484905014611686576040517f22cb666100000000000000000000000000000000000000000000000000000000815260040160405180910390fd5b60005b848490508110156116e9576116de8585838181106116aa576116a9613612565b5b905060200201358484848181106116c4576116c3613612565b5b90506020020160208101906116d9919061390c565b61217a565b806001019050611689565b5050505050565b60005b8282905081101561172b5761172083838381811061171457611713613612565b5b905060200201356124e8565b8060010190506116f3565b505050565b81819050848490501461176f576040517f22cb666100000000000000000000000000000000000000000000000000000000815260040160405180910390fd5b50505050565b6040516323b872dd600052836020528260405281606052602060006064601c6000895af13d1560016000511417166117b557637939f4246000526004601cfd5b6000606052806040525050505050565b80836002016000828254019250508190555082600101600081819054906101000a900467ffffffffffffffff1660010191906101000a81548167ffffffffffffffff021916908367ffffffffffffffff1602179055508060046000848152602001908152602001600020600042815260200190815260200160002081905550426003600084815260200190815260200160002060008560010160009054906101000a900467ffffffffffffffff1667ffffffffffffffff16815260200190815260200160002081905550505050565b60006241eb008214806118a957506283d60082145b806118b6575062c5c10082145b9050919050565b6000808273ffffffffffffffffffffffffffffffffffffffff163b119050919050565b600060066000838152602001908152602001600020604051806101000160405290816000820160009054906101000a900473ffffffffffffffffffffffffffffffffffffffff1673ffffffffffffffffffffffffffffffffffffffff1673ffffffffffffffffffffffffffffffffffffffff1681526020016000820160149054906101000a900467ffffffffffffffff1667ffffffffffffffff1667ffffffffffffffff1681526020016001820160009054906101000a900467ffffffffffffffff1667ffffffffffffffff1667ffffffffffffffff1681526020016001820160089054906101000a900467ffffffffffffffff1667ffffffffffffffff1667ffffffffffffffff1681526020016001820160109054906101000a900467ffffffffffffffff1667ffffffffffffffff1667ffffffffffffffff16815260200160028201548152602001600382015481526020016004820160009054906101000a900460ff166002811115611a5857611a57613329565b5b6002811115611a6a57611a69613329565b5b815250509050600080611a7c84610296565b8360e001519150915060006002811115611a9957611a98613329565b5b816002811115611aac57611aab613329565b5b03611b4557600260009054906101000a900473ffffffffffffffffffffffffffffffffffffffff1673ffffffffffffffffffffffffffffffffffffffff1663743f4e9485846040518363ffffffff1660e01b8152600401611b0e929190613939565b600060405180830381600087803b158015611b2857600080fd5b505af1158015611b3c573d6000803e3d6000fd5b50505050611c96565b60016002811115611b5957611b58613329565b5b816002811115611b6c57611b6b613329565b5b03611c0557600260009054906101000a900473ffffffffffffffffffffffffffffffffffffffff1673ffffffffffffffffffffffffffffffffffffffff1663067ea39285846040518363ffffffff1660e01b8152600401611bce929190613939565b600060405180830381600087803b158015611be857600080fd5b505af1158015611bfc573d6000803e3d6000fd5b50505050611c95565b600260009054906101000a900473ffffffffffffffffffffffffffffffffffffffff1673ffffffffffffffffffffffffffffffffffffffff1663e0c5057785846040518363ffffffff1660e01b8152600401611c62929190613939565b600060405180830381600087803b158015611c7c57600080fd5b505af1158015611c90573d6000803e3d6000fd5b505050505b5b50505050565b600060066000848152602001908152602001600020604051806101000160405290816000820160009054906101000a900473ffffffffffffffffffffffffffffffffffffffff1673ffffffffffffffffffffffffffffffffffffffff1673ffffffffffffffffffffffffffffffffffffffff1681526020016000820160149054906101000a900467ffffffffffffffff1667ffffffffffffffff1667ffffffffffffffff1681526020016001820160009054906101000a900467ffffffffffffffff1667ffffffffffffffff1667ffffffffffffffff1681526020016001820160089054906101000a900467ffffffffffffffff1667ffffffffffffffff1667ffffffffffffffff1681526020016001820160109054906101000a900467ffffffffffffffff1667ffffffffffffffff1667ffffffffffffffff16815260200160028201548152602001600382015481526020016004820160009054906101000a900460ff166002811115611e1457611e13613329565b5b6002811115611e2657611e25613329565b5b81525050905060008160a0015103611e6a576040517f9b4bb81b00000000000000000000000000000000000000000000000000000000815260040160405180910390fd5b600080600190506000805b846040015167ffffffffffffffff16831161203157600080600360008a8152602001908152602001600020600086815260200190815260200160002054600360008b81526020019081526020016000206000600188018152602001908152602001600020549150915062278d00820142108015611ef0575087155b15611efc575050612026565b62278d00820142108015611f0d5750875b611f4057600460008a81526020019081526020016000206000838152602001908152602001600020548401935083611f7c565b6002600460008b815260200190815260200160002060008481526020019081526020016000205481611f7557611f7461366b565b5b0484019350835b508780611f9757506001876040015167ffffffffffffffff16145b611fc85780600360008b81526020019081526020016000206000878152602001908152602001600020819055611ff2565b6000600360008b815260200190815260200160002060008781526020019081526020016000208190555b506000600460008b815260200190815260200160002060008481526020019081526020016000208190555082600101925050505b826001019250611e75565b806006600089815260200190815260200160002060010160008282829054906101000a900467ffffffffffffffff160392506101000a81548167ffffffffffffffff021916908367ffffffffffffffff160217905550816006600089815260200190815260200160002060020160008282540392505081905550818560a00151039350600084141580156120c25750855b156120f6576120f5600060029054906101000a900473ffffffffffffffffffffffffffffffffffffffff1660018661295c565b5b6000821461212c5761212b600060029054906101000a900473ffffffffffffffffffffffffffffffffffffffff16338661295c565b5b81873373ffffffffffffffffffffffffffffffffffffffff167fa720e44767e2cddb37cfa697023b1f3875d107b58722b1cb628083a465290af860405160405180910390a450505050505050565b600060066000848152602001908152602001600020604051806101000160405290816000820160009054906101000a900473ffffffffffffffffffffffffffffffffffffffff1673ffffffffffffffffffffffffffffffffffffffff1673ffffffffffffffffffffffffffffffffffffffff1681526020016000820160149054906101000a900467ffffffffffffffff1667ffffffffffffffff1667ffffffffffffffff1681526020016001820160009054906101000a900467ffffffffffffffff1667ffffffffffffffff1667ffffffffffffffff1681526020016001820160089054906101000a900467ffffffffffffffff1667ffffffffffffffff1667ffffffffffffffff1681526020016001820160109054906101000a900467ffffffffffffffff1667ffffffffffffffff1667ffffffffffffffff16815260200160028201548152602001600382015481526020016004820160009054906101000a900460ff1660028111156122f2576122f1613329565b5b600281111561230457612303613329565b5b8152505090503373ffffffffffffffffffffffffffffffffffffffff16816000015173ffffffffffffffffffffffffffffffffffffffff1614612373576040517f091fe61c00000000000000000000000000000000000000000000000000000000815260040160405180910390fd5b600061237e846104e3565b9050600081036123ba576040517f9b4bb81b00000000000000000000000000000000000000000000000000000000815260040160405180910390fd5b426006600086815260200190815260200160002060010160106101000a81548167ffffffffffffffff021916908367ffffffffffffffff1602179055508261249057600060029054906101000a900473ffffffffffffffffffffffffffffffffffffffff1673ffffffffffffffffffffffffffffffffffffffff166340c10f1933836040518363ffffffff1660e01b8152600401612459929190613962565b600060405180830381600087803b15801561247357600080fd5b505af1158015612487573d6000803e3d6000fd5b5050505061249b565b61249a84826129a5565b5b821515843373ffffffffffffffffffffffffffffffffffffffff167f10fffc2725e2f04d2e9a7aa7762d3db31dd4051420267e5be076a5b13e8bb07760405160405180910390a450505050565b600060066000838152602001908152602001600020604051806101000160405290816000820160009054906101000a900473ffffffffffffffffffffffffffffffffffffffff1673ffffffffffffffffffffffffffffffffffffffff1673ffffffffffffffffffffffffffffffffffffffff1681526020016000820160149054906101000a900467ffffffffffffffff1667ffffffffffffffff1667ffffffffffffffff1681526020016001820160009054906101000a900467ffffffffffffffff1667ffffffffffffffff1667ffffffffffffffff1681526020016001820160089054906101000a900467ffffffffffffffff1667ffffffffffffffff1667ffffffffffffffff1681526020016001820160109054906101000a900467ffffffffffffffff1667ffffffffffffffff1667ffffffffffffffff16815260200160028201548152602001600382015481526020016004820160009054906101000a900460ff1660028111156126605761265f613329565b5b600281111561267257612671613329565b5b8152505090503373ffffffffffffffffffffffffffffffffffffffff16816000015173ffffffffffffffffffffffffffffffffffffffff16146126e1576040517f091fe61c00000000000000000000000000000000000000000000000000000000815260040160405180910390fd5b806020015181606001516126f591906139ba565b67ffffffffffffffff16421015612738576040517ff5dcc1e300000000000000000000000000000000000000000000000000000000815260040160405180910390fd5b6000612743836104e3565b11156127555761275482600061217a565b5b60008160a00151111561276e5761276d826001611c9c565b5b6127b6600560003373ffffffffffffffffffffffffffffffffffffffff1673ffffffffffffffffffffffffffffffffffffffff16815260200190815260200160002083612b96565b60066000838152602001908152602001600020600080820160006101000a81549073ffffffffffffffffffffffffffffffffffffffff02191690556000820160146101000a81549067ffffffffffffffff02191690556001820160006101000a81549067ffffffffffffffff02191690556001820160086101000a81549067ffffffffffffffff02191690556001820160106101000a81549067ffffffffffffffff0219169055600282016000905560038201600090556004820160006101000a81549060ff02191690555050600260009054906101000a900473ffffffffffffffffffffffffffffffffffffffff1673ffffffffffffffffffffffffffffffffffffffff166323b872dd3033856040518463ffffffff1660e01b81526004016128e29392919061370d565b600060405180830381600087803b1580156128fc57600080fd5b505af1158015612910573d6000803e3d6000fd5b50505050813373ffffffffffffffffffffffffffffffffffffffff167f26727522aa20721ee01410aea547e7fc187973e8abf49394168d3c9cb4c90cf260405160405180910390a35050565b81601a5280603a5269a9059cbb00000000000060005260206000604460166000875af13d15600160005114171661299b576390b8ec186000526004601cfd5b6000603a52505050565b6000683635c9adc5dea00000826129bc919061369a565b90508181036129f7576040517f1d823d0700000000000000000000000000000000000000000000000000000000815260040160405180910390fd5b60008114612a8f57600060029054906101000a900473ffffffffffffffffffffffffffffffffffffffff1673ffffffffffffffffffffffffffffffffffffffff166340c10f1933836040518363ffffffff1660e01b8152600401612a5c929190613962565b600060405180830381600087803b158015612a7657600080fd5b505af1158015612a8a573d6000803e3d6000fd5b505050505b60008183612a9d91906139f6565b9050612abc6006600086815260200190815260200160002085836117c5565b600060029054906101000a900473ffffffffffffffffffffffffffffffffffffffff1673ffffffffffffffffffffffffffffffffffffffff166340c10f1930836040518363ffffffff1660e01b8152600401612b19929190613962565b600060405180830381600087803b158015612b3357600080fd5b505af1158015612b47573d6000803e3d6000fd5b5050505083813373ffffffffffffffffffffffffffffffffffffffff167f1004c640a4c8dbc3c9dd5ff33837d99e4882aaf2b20fb8e7c419fc83c8ca5bd060405160405180910390a450505050565b60005b8280549050811015612c4f5781838281548110612bb957612bb8613612565b5b906000526020600020015403612c44578260018480549050612bdb91906139f6565b81548110612bec57612beb613612565b5b9060005260206000200154838281548110612c0a57612c09613612565b5b906000526020600020018190555082805480612c2957612c28613a2a565b5b60019003818190600052602060002001600090559055612c4f565b806001019050612b99565b505050565b604051806101000160405280600073ffffffffffffffffffffffffffffffffffffffff168152602001600067ffffffffffffffff168152602001600067ffffffffffffffff168152602001600067ffffffffffffffff168152602001600067ffffffffffffffff168152602001600081526020016000815260200160006002811115612ce357612ce2613329565b5b81525090565b600080fd5b600080fd5b6000819050919050565b612d0681612cf3565b8114612d1157600080fd5b50565b600081359050612d2381612cfd565b92915050565b600060208284031215612d3f57612d3e612ce9565b5b6000612d4d84828501612d14565b91505092915050565b612d5f81612cf3565b82525050565b6000602082019050612d7a6000830184612d56565b92915050565b600080fd5b600080fd5b600080fd5b60008083601f840112612da557612da4612d80565b5b8235905067ffffffffffffffff811115612dc257612dc1612d85565b5b602083019150836020820283011115612dde57612ddd612d8a565b5b9250929050565b60008060008060408587031215612dff57612dfe612ce9565b5b600085013567ffffffffffffffff811115612e1d57612e1c612cee565b5b612e2987828801612d8f565b9450945050602085013567ffffffffffffffff811115612e4c57612e4b612cee565b5b612e5887828801612d8f565b925092505092959194509250565b60008083601f840112612e7c57612e7b612d80565b5b8235905067ffffffffffffffff811115612e9957612e98612d85565b5b602083019150836020820283011115612eb557612eb4612d8a565b5b9250929050565b60008060008060008060608789031215612ed957612ed8612ce9565b5b600087013567ffffffffffffffff811115612ef757612ef6612cee565b5b612f0389828a01612d8f565b9650965050602087013567ffffffffffffffff811115612f2657612f25612cee565b5b612f3289828a01612d8f565b9450945050604087013567ffffffffffffffff811115612f5557612f54612cee565b5b612f6189828a01612e66565b92509250509295509295509295565b600073ffffffffffffffffffffffffffffffffffffffff82169050919050565b6000612f9b82612f70565b9050919050565b612fab81612f90565b8114612fb657600080fd5b50565b600081359050612fc881612fa2565b92915050565b600060208284031215612fe457612fe3612ce9565b5b6000612ff284828501612fb9565b91505092915050565b600081519050919050565b600082825260208201905092915050565b6000819050602082019050919050565b61303081612cf3565b82525050565b60006130428383613027565b60208301905092915050565b6000602082019050919050565b600061306682612ffb565b6130708185613006565b935061307b83613017565b8060005b838110156130ac5781516130938882613036565b975061309e8361304e565b92505060018101905061307f565b5085935050505092915050565b600060208201905081810360008301526130d3818461305b565b905092915050565b6000819050919050565b60006131006130fb6130f684612f70565b6130db565b612f70565b9050919050565b6000613112826130e5565b9050919050565b600061312482613107565b9050919050565b61313481613119565b82525050565b600060208201905061314f600083018461312b565b92915050565b600061316082613107565b9050919050565b61317081613155565b82525050565b600060208201905061318b6000830184613167565b92915050565b6000806000606084860312156131aa576131a9612ce9565b5b60006131b886828701612fb9565b93505060206131c986828701612fb9565b92505060406131da86828701612fb9565b9150509250925092565b60008083601f8401126131fa576131f9612d80565b5b8235905067ffffffffffffffff81111561321757613216612d85565b5b60208301915083602082028301111561323357613232612d8a565b5b9250929050565b6000806000806040858703121561325457613253612ce9565b5b600085013567ffffffffffffffff81111561327257613271612cee565b5b61327e87828801612d8f565b9450945050602085013567ffffffffffffffff8111156132a1576132a0612cee565b5b6132ad878288016131e4565b925092505092959194509250565b60006132c682613107565b9050919050565b6132d6816132bb565b82525050565b60006020820190506132f160008301846132cd565b92915050565b61330081612f90565b82525050565b600067ffffffffffffffff82169050919050565b61332381613306565b82525050565b7f4e487b7100000000000000000000000000000000000000000000000000000000600052602160045260246000fd5b6003811061336957613368613329565b5b50565b600081905061337a82613358565b919050565b600061338a8261336c565b9050919050565b61339a8161337f565b82525050565b610100820160008201516133b760008501826132f7565b5060208201516133ca602085018261331a565b5060408201516133dd604085018261331a565b5060608201516133f0606085018261331a565b506080820151613403608085018261331a565b5060a082015161341660a0850182613027565b5060c082015161342960c0850182613027565b5060e082015161343c60e0850182613391565b50505050565b60006101008201905061345860008301846133a0565b92915050565b6000806020838503121561347557613474612ce9565b5b600083013567ffffffffffffffff81111561349357613492612cee565b5b61349f85828601612d8f565b92509250509250929050565b6134b481612cf3565b82525050565b60006134d56134d06134cb84613306565b6130db565b612cf3565b9050919050565b6134e5816134ba565b82525050565b6134f481613119565b82525050565b8082525050565b600060e082019050613516600083018a6134ab565b61352360208301896134dc565b61353060408301886134ab565b61353d60608301876134ab565b61354a60808301866134eb565b61355760a08301856134fa565b61356460c08301846134fa565b98975050505050505050565b60008151905061357f81612cfd565b92915050565b60006020828403121561359b5761359a612ce9565b5b60006135a984828501613570565b91505092915050565b60006080820190506135c760008301876134ab565b6135d460208301866134dc565b6135e160408301856134dc565b6135ee60608301846134eb565b95945050505050565b600060208201905061360c60008301846134eb565b92915050565b7f4e487b7100000000000000000000000000000000000000000000000000000000600052603260045260246000fd5b61364a81612f90565b82525050565b60006020820190506136656000830184613641565b92915050565b7f4e487b7100000000000000000000000000000000000000000000000000000000600052601260045260246000fd5b60006136a582612cf3565b91506136b083612cf3565b9250826136c0576136bf61366b565b5b828206905092915050565b6000815190506136da81612fa2565b92915050565b6000602082840312156136f6576136f5612ce9565b5b6000613704848285016136cb565b91505092915050565b60006060820190506137226000830186613641565b61372f6020830185613641565b61373c6040830184612d56565b949350505050565b6003811061375157600080fd5b50565b60008135905061376381613744565b92915050565b60006020828403121561377f5761377e612ce9565b5b600061378d84828501613754565b91505092915050565b61379f8161337f565b82525050565b60006040820190506137ba6000830185612d56565b6137c76020830184613796565b9392505050565b600082825260208201905092915050565b7f496e697469616c697a61626c653a20636f6e747261637420697320616c72656160008201527f647920696e697469616c697a6564000000000000000000000000000000000000602082015250565b600061383b602e836137ce565b9150613846826137df565b604082019050919050565b6000602082019050818103600083015261386a8161382e565b9050919050565b6000819050919050565b600060ff82169050919050565b60006138a361389e61389984613871565b6130db565b61387b565b9050919050565b6138b381613888565b82525050565b60006020820190506138ce60008301846138aa565b92915050565b60008115159050919050565b6138e9816138d4565b81146138f457600080fd5b50565b600081359050613906816138e0565b92915050565b60006020828403121561392257613921612ce9565b5b6000613930848285016138f7565b91505092915050565b600060408201905061394e6000830185612d56565b61395b6020830184612d56565b9392505050565b60006040820190506139776000830185613641565b6139846020830184612d56565b9392505050565b7f4e487b7100000000000000000000000000000000000000000000000000000000600052601160045260246000fd5b60006139c582613306565b91506139d083613306565b9250828201905067ffffffffffffffff8111156139f0576139ef61398b565b5b92915050565b6000613a0182612cf3565b9150613a0c83612cf3565b9250828203905081811115613a2457613a2361398b565b5b92915050565b7f4e487b7100000000000000000000000000000000000000000000000000000000600052603160045260246000fdfea26469706673582212207caea759855c28281303e594b66ead270ed50b4f3e106368d5f3db4a0ea60e0464736f6c63430008110033",
  "libraries": {
    "Lib": "0x57CFeaA556230252D60fab282cb354Cde6c11Fe9"
  },
  "devdoc": {
    "kind": "dev",
    "methods": {
      "claimDevelopmentGroundBonesReward(uint256[],bool[])": {
        "params": {
          "_stake": "Whether to stake the reward bones in the development ground",
          "_tokenId": "ID of the development ground"
        }
      },
      "enterDevelopmentGround(uint256[],uint256[],uint8[])": {
        "details": "Enters the DevelopmentGround by transferring the tokens from the sender to the contract and setting the development ground data such as owner, entry time, lock period, etc.",
        "params": {
          "_ground": "Array of grounds for each corresponding token",
          "_lockTime": "Array of lock times for each corresponding token",
          "_tokenId": "Array of token IDs to be transferred"
        }
      },
      "getDevelopmentGroundBonesReward(uint256)": {
        "details": "Returns the reward for the bones staked in the development ground.",
        "params": {
          "_tokenId": "The token ID for the development ground."
        },
        "returns": {
          "_0": "The reward for the bones staked in the development ground."
        }
      },
      "getDevelopmentGroundInfo(uint256)": {
        "details": "This function returns a DevelopmentGround struct containing information about a Development Ground token, specified by its ID, _tokenId.",
        "params": {
          "_tokenId": "ID of the Development Ground token to retrieve information for"
        },
        "returns": {
          "_0": "The DevelopmentGround struct containing information about the specified Development Ground token."
        }
      },
      "getPrimarySkill(uint256)": {
        "params": {
          "_tokenId": "ID of the development ground"
        },
        "returns": {
          "_0": "The primary skill level"
        }
      },
      "leaveDevelopmentGround(uint256[])": {
        "details": "Allows the owner to leave the development ground. This will transfer the token back to the owner and remove any bones staked in the development ground.",
        "params": {
          "_tokenId": "The token ID of the development ground to leave."
        }
      },
      "removeBones(uint256[],bool[])": {
        "details": "Removes bones from a specific development ground.",
        "params": {
          "_all": "Indicates whether to remove all bones or just a portion of them",
          "_tokenId": "The unique identifier for the development ground"
        }
      },
      "stakeBonesInDevelopmentGround(uint256[],uint256[])": {
        "details": "Stakes the bones in the DevelopmentGround by transferring the bones from the sender to the contract and updating the development ground data.",
        "params": {
          "_amount": "Array of amounts of bones to be transferred",
          "_tokenId": "Array of token IDs for the corresponding amounts of bones"
        }
      }
    },
    "version": 1
  },
  "userdoc": {
    "kind": "user",
    "methods": {
      "claimDevelopmentGroundBonesReward(uint256[],bool[])": {
        "notice": "This function allows the owner of multiple development grounds to claim rewards earned by them."
      },
      "getDevelopmentGroundInfo(uint256)": {
        "notice": "Retrieve information about a Development Ground token."
      },
      "getPrimarySkill(uint256)": {
        "notice": "This function retrieves the primary skill of the `_tokenId` development ground."
      }
    },
    "version": 1
  },
  "storageLayout": {
    "storage": [
      {
        "astId": 6,
        "contract": "contracts/DevelopmentGrounds.sol:DevelopmentGrounds",
        "label": "_initialized",
        "offset": 0,
        "slot": "0",
        "type": "t_uint8"
      },
      {
        "astId": 9,
        "contract": "contracts/DevelopmentGrounds.sol:DevelopmentGrounds",
        "label": "_initializing",
        "offset": 1,
        "slot": "0",
        "type": "t_bool"
      },
      {
        "astId": 6810,
        "contract": "contracts/DevelopmentGrounds.sol:DevelopmentGrounds",
        "label": "bones",
        "offset": 2,
        "slot": "0",
        "type": "t_contract(IBones)9791"
      },
      {
        "astId": 6813,
        "contract": "contracts/DevelopmentGrounds.sol:DevelopmentGrounds",
        "label": "pits",
        "offset": 0,
        "slot": "1",
        "type": "t_contract(IPits)9872"
      },
      {
        "astId": 6816,
        "contract": "contracts/DevelopmentGrounds.sol:DevelopmentGrounds",
        "label": "neandersmol",
        "offset": 0,
        "slot": "2",
        "type": "t_contract(INeandersmol)9842"
      },
      {
        "astId": 6852,
        "contract": "contracts/DevelopmentGrounds.sol:DevelopmentGrounds",
        "label": "trackTime",
        "offset": 0,
        "slot": "3",
        "type": "t_mapping(t_uint256,t_mapping(t_uint256,t_uint256))"
      },
      {
        "astId": 6858,
        "contract": "contracts/DevelopmentGrounds.sol:DevelopmentGrounds",
        "label": "trackToken",
        "offset": 0,
        "slot": "4",
        "type": "t_mapping(t_uint256,t_mapping(t_uint256,t_uint256))"
      },
      {
        "astId": 6863,
        "contract": "contracts/DevelopmentGrounds.sol:DevelopmentGrounds",
        "label": "ownerToTokens",
        "offset": 0,
        "slot": "5",
        "type": "t_mapping(t_address,t_array(t_uint256)dyn_storage)"
      },
      {
        "astId": 6868,
        "contract": "contracts/DevelopmentGrounds.sol:DevelopmentGrounds",
        "label": "developmentGround",
        "offset": 0,
        "slot": "6",
        "type": "t_mapping(t_uint256,t_struct(DevelopmentGround)10308_storage)"
      }
    ],
    "types": {
      "t_address": {
        "encoding": "inplace",
        "label": "address",
        "numberOfBytes": "20"
      },
      "t_array(t_uint256)dyn_storage": {
        "base": "t_uint256",
        "encoding": "dynamic_array",
        "label": "uint256[]",
        "numberOfBytes": "32"
      },
      "t_bool": {
        "encoding": "inplace",
        "label": "bool",
        "numberOfBytes": "1"
      },
      "t_contract(IBones)9791": {
        "encoding": "inplace",
        "label": "contract IBones",
        "numberOfBytes": "20"
      },
      "t_contract(INeandersmol)9842": {
        "encoding": "inplace",
        "label": "contract INeandersmol",
        "numberOfBytes": "20"
      },
      "t_contract(IPits)9872": {
        "encoding": "inplace",
        "label": "contract IPits",
        "numberOfBytes": "20"
      },
      "t_enum(Grounds)10337": {
        "encoding": "inplace",
        "label": "enum Grounds",
        "numberOfBytes": "1"
      },
      "t_mapping(t_address,t_array(t_uint256)dyn_storage)": {
        "encoding": "mapping",
        "key": "t_address",
        "label": "mapping(address => uint256[])",
        "numberOfBytes": "32",
        "value": "t_array(t_uint256)dyn_storage"
      },
      "t_mapping(t_uint256,t_mapping(t_uint256,t_uint256))": {
        "encoding": "mapping",
        "key": "t_uint256",
        "label": "mapping(uint256 => mapping(uint256 => uint256))",
        "numberOfBytes": "32",
        "value": "t_mapping(t_uint256,t_uint256)"
      },
      "t_mapping(t_uint256,t_struct(DevelopmentGround)10308_storage)": {
        "encoding": "mapping",
        "key": "t_uint256",
        "label": "mapping(uint256 => struct DevelopmentGround)",
        "numberOfBytes": "32",
        "value": "t_struct(DevelopmentGround)10308_storage"
      },
      "t_mapping(t_uint256,t_uint256)": {
        "encoding": "mapping",
        "key": "t_uint256",
        "label": "mapping(uint256 => uint256)",
        "numberOfBytes": "32",
        "value": "t_uint256"
      },
      "t_struct(DevelopmentGround)10308_storage": {
        "encoding": "inplace",
        "label": "struct DevelopmentGround",
        "members": [
          {
            "astId": 10292,
            "contract": "contracts/DevelopmentGrounds.sol:DevelopmentGrounds",
            "label": "owner",
            "offset": 0,
            "slot": "0",
            "type": "t_address"
          },
          {
            "astId": 10294,
            "contract": "contracts/DevelopmentGrounds.sol:DevelopmentGrounds",
            "label": "lockPeriod",
            "offset": 20,
            "slot": "0",
            "type": "t_uint64"
          },
          {
            "astId": 10296,
            "contract": "contracts/DevelopmentGrounds.sol:DevelopmentGrounds",
            "label": "amountPosition",
            "offset": 0,
            "slot": "1",
            "type": "t_uint64"
          },
          {
            "astId": 10298,
            "contract": "contracts/DevelopmentGrounds.sol:DevelopmentGrounds",
            "label": "entryTime",
            "offset": 8,
            "slot": "1",
            "type": "t_uint64"
          },
          {
            "astId": 10300,
            "contract": "contracts/DevelopmentGrounds.sol:DevelopmentGrounds",
            "label": "lastRewardTime",
            "offset": 16,
            "slot": "1",
            "type": "t_uint64"
          },
          {
            "astId": 10302,
            "contract": "contracts/DevelopmentGrounds.sol:DevelopmentGrounds",
            "label": "bonesStaked",
            "offset": 0,
            "slot": "2",
            "type": "t_uint256"
          },
          {
            "astId": 10304,
            "contract": "contracts/DevelopmentGrounds.sol:DevelopmentGrounds",
            "label": "currentPitsLockPeriod",
            "offset": 0,
            "slot": "3",
            "type": "t_uint256"
          },
          {
            "astId": 10307,
            "contract": "contracts/DevelopmentGrounds.sol:DevelopmentGrounds",
            "label": "ground",
            "offset": 0,
            "slot": "4",
            "type": "t_enum(Grounds)10337"
          }
        ],
        "numberOfBytes": "160"
      },
      "t_uint256": {
        "encoding": "inplace",
        "label": "uint256",
        "numberOfBytes": "32"
      },
      "t_uint64": {
        "encoding": "inplace",
        "label": "uint64",
        "numberOfBytes": "8"
      },
      "t_uint8": {
        "encoding": "inplace",
        "label": "uint8",
        "numberOfBytes": "1"
      }
    }
  }
}