{
  "address": "0x73032eF96FEE3C84f95121BdAc5dbCe68E757D97",
  "abi": [
    {
      "inputs": [],
      "name": "CannotClaimNow",
      "type": "error"
    },
    {
      "inputs": [],
      "name": "CsToHigh",
      "type": "error"
    },
    {
      "inputs": [],
      "name": "DevelopmentGroundIsLocked",
      "type": "error"
    },
    {
      "inputs": [],
      "name": "InvalidTokenForThisJob",
      "type": "error"
    },
    {
      "inputs": [],
      "name": "LengthsNotEqual",
      "type": "error"
    },
    {
      "inputs": [],
      "name": "NewOwnerIsZeroAddress",
      "type": "error"
    },
    {
      "inputs": [],
      "name": "NoHandoverRequest",
      "type": "error"
    },
    {
      "inputs": [],
      "name": "NoMoreAnimalsAllowed",
      "type": "error"
    },
    {
      "inputs": [],
      "name": "NotYourToken",
      "type": "error"
    },
    {
      "inputs": [],
      "name": "Unauthorized",
      "type": "error"
    },
    {
      "anonymous": false,
      "inputs": [
        {
          "indexed": true,
          "internalType": "address",
          "name": "owner",
          "type": "address"
        },
        {
          "indexed": true,
          "internalType": "uint256",
          "name": "tokenId",
          "type": "uint256"
        },
        {
          "indexed": true,
          "internalType": "uint256",
          "name": "animalsId",
          "type": "uint256"
        }
      ],
      "name": "BringInAnimalsToLaborGround",
      "type": "event"
    },
    {
      "anonymous": false,
      "inputs": [
        {
          "indexed": true,
          "internalType": "address",
          "name": "owner",
          "type": "address"
        },
        {
          "indexed": true,
          "internalType": "uint256",
          "name": "tokenId",
          "type": "uint256"
        }
      ],
      "name": "ClaimCollectable",
      "type": "event"
    },
    {
      "anonymous": false,
      "inputs": [
        {
          "indexed": true,
          "internalType": "address",
          "name": "owner",
          "type": "address"
        },
        {
          "indexed": true,
          "internalType": "uint256",
          "name": "tokenId",
          "type": "uint256"
        },
        {
          "indexed": true,
          "internalType": "uint256",
          "name": "supplyId",
          "type": "uint256"
        },
        {
          "indexed": false,
          "internalType": "enum Jobs",
          "name": "job",
          "type": "uint8"
        }
      ],
      "name": "EnterLaborGround",
      "type": "event"
    },
    {
      "anonymous": false,
      "inputs": [
        {
          "indexed": false,
          "internalType": "uint8",
          "name": "version",
          "type": "uint8"
        }
      ],
      "name": "Initialized",
      "type": "event"
    },
    {
      "anonymous": false,
      "inputs": [
        {
          "indexed": true,
          "internalType": "address",
          "name": "owner",
          "type": "address"
        },
        {
          "indexed": true,
          "internalType": "uint256",
          "name": "tokenId",
          "type": "uint256"
        }
      ],
      "name": "LeaveLaborGround",
      "type": "event"
    },
    {
      "anonymous": false,
      "inputs": [
        {
          "indexed": true,
          "internalType": "address",
          "name": "pendingOwner",
          "type": "address"
        }
      ],
      "name": "OwnershipHandoverCanceled",
      "type": "event"
    },
    {
      "anonymous": false,
      "inputs": [
        {
          "indexed": true,
          "internalType": "address",
          "name": "pendingOwner",
          "type": "address"
        }
      ],
      "name": "OwnershipHandoverRequested",
      "type": "event"
    },
    {
      "anonymous": false,
      "inputs": [
        {
          "indexed": true,
          "internalType": "address",
          "name": "oldOwner",
          "type": "address"
        },
        {
          "indexed": true,
          "internalType": "address",
          "name": "newOwner",
          "type": "address"
        }
      ],
      "name": "OwnershipTransferred",
      "type": "event"
    },
    {
      "anonymous": false,
      "inputs": [
        {
          "indexed": true,
          "internalType": "address",
          "name": "owner",
          "type": "address"
        },
        {
          "indexed": true,
          "internalType": "uint256",
          "name": "tokenId",
          "type": "uint256"
        },
        {
          "indexed": true,
          "internalType": "uint256",
          "name": "animalsId",
          "type": "uint256"
        }
      ],
      "name": "RemoveAnimalsFromLaborGround",
      "type": "event"
    },
    {
      "inputs": [],
      "name": "animals",
      "outputs": [
        {
          "internalType": "contract IERC1155Upgradeable",
          "name": "",
          "type": "address"
        }
      ],
      "stateMutability": "view",
      "type": "function"
    },
    {
      "inputs": [
        {
          "internalType": "uint256[]",
          "name": "_tokenId",
          "type": "uint256[]"
        },
        {
          "internalType": "uint256[]",
          "name": "_animalsId",
          "type": "uint256[]"
        }
      ],
      "name": "bringInAnimalsToLaborGround",
      "outputs": [],
      "stateMutability": "nonpayable",
      "type": "function"
    },
    {
      "inputs": [],
      "name": "cancelOwnershipHandover",
      "outputs": [],
      "stateMutability": "payable",
      "type": "function"
    },
    {
      "inputs": [
        {
          "internalType": "uint256[]",
          "name": "_tokenId",
          "type": "uint256[]"
        }
      ],
      "name": "claimCollectables",
      "outputs": [],
      "stateMutability": "nonpayable",
      "type": "function"
    },
    {
      "inputs": [
        {
          "internalType": "address",
          "name": "pendingOwner",
          "type": "address"
        }
      ],
      "name": "completeOwnershipHandover",
      "outputs": [],
      "stateMutability": "payable",
      "type": "function"
    },
    {
      "inputs": [],
      "name": "consumables",
      "outputs": [
        {
          "internalType": "contract IConsumables",
          "name": "",
          "type": "address"
        }
      ],
      "stateMutability": "view",
      "type": "function"
    },
    {
      "inputs": [
        {
          "internalType": "uint256[]",
          "name": "_tokenId",
          "type": "uint256[]"
        },
        {
          "internalType": "uint256[]",
          "name": "_supplyId",
          "type": "uint256[]"
        },
        {
          "internalType": "enum Jobs[]",
          "name": "_job",
          "type": "uint8[]"
        }
      ],
      "name": "enterLaborGround",
      "outputs": [],
      "stateMutability": "nonpayable",
      "type": "function"
    },
    {
      "inputs": [
        {
          "internalType": "address",
          "name": "_owner",
          "type": "address"
        }
      ],
      "name": "getLaborGroundFeInfo",
      "outputs": [
        {
          "components": [
            {
              "internalType": "uint128",
              "name": "tokenId",
              "type": "uint128"
            },
            {
              "internalType": "uint128",
              "name": "timeLeft",
              "type": "uint128"
            }
          ],
          "internalType": "struct LaborGroundFeInfo[]",
          "name": "",
          "type": "tuple[]"
        }
      ],
      "stateMutability": "view",
      "type": "function"
    },
    {
      "inputs": [
        {
          "internalType": "uint256",
          "name": "_tokenId",
          "type": "uint256"
        }
      ],
      "name": "getLaborGroundInfo",
      "outputs": [
        {
          "components": [
            {
              "internalType": "address",
              "name": "owner",
              "type": "address"
            },
            {
              "internalType": "uint32",
              "name": "lockTime",
              "type": "uint32"
            },
            {
              "internalType": "uint32",
              "name": "supplyId",
              "type": "uint32"
            },
            {
              "internalType": "uint32",
              "name": "animalId",
              "type": "uint32"
            },
            {
              "internalType": "uint256",
              "name": "requestId",
              "type": "uint256"
            },
            {
              "internalType": "enum Jobs",
              "name": "job",
              "type": "uint8"
            }
          ],
          "internalType": "struct LaborGround",
          "name": "lg",
          "type": "tuple"
        }
      ],
      "stateMutability": "view",
      "type": "function"
    },
    {
      "inputs": [
        {
          "internalType": "address",
          "name": "_owner",
          "type": "address"
        }
      ],
      "name": "getStakedTokens",
      "outputs": [
        {
          "internalType": "uint256[]",
          "name": "",
          "type": "uint256[]"
        }
      ],
      "stateMutability": "view",
      "type": "function"
    },
    {
      "inputs": [
        {
          "internalType": "address",
          "name": "_pits",
          "type": "address"
        },
        {
          "internalType": "address",
          "name": "_animals",
          "type": "address"
        },
        {
          "internalType": "address",
          "name": "_supplies",
          "type": "address"
        },
        {
          "internalType": "address",
          "name": "_consumables",
          "type": "address"
        },
        {
          "internalType": "address",
          "name": "_neandersmol",
          "type": "address"
        },
        {
          "internalType": "address",
          "name": "_randomizer",
          "type": "address"
        }
      ],
      "name": "initialize",
      "outputs": [],
      "stateMutability": "nonpayable",
      "type": "function"
    },
    {
      "inputs": [
        {
          "internalType": "uint256[]",
          "name": "_tokenId",
          "type": "uint256[]"
        }
      ],
      "name": "leaveLaborGround",
      "outputs": [],
      "stateMutability": "nonpayable",
      "type": "function"
    },
    {
      "inputs": [],
      "name": "neandersmol",
      "outputs": [
        {
          "internalType": "contract INeandersmol",
          "name": "",
          "type": "address"
        }
      ],
      "stateMutability": "view",
      "type": "function"
    },
    {
      "inputs": [
        {
          "internalType": "address",
          "name": "",
          "type": "address"
        },
        {
          "internalType": "address",
          "name": "",
          "type": "address"
        },
        {
          "internalType": "uint256",
          "name": "",
          "type": "uint256"
        },
        {
          "internalType": "uint256",
          "name": "",
          "type": "uint256"
        },
        {
          "internalType": "bytes",
          "name": "",
          "type": "bytes"
        }
      ],
      "name": "onERC1155Received",
      "outputs": [
        {
          "internalType": "bytes4",
          "name": "",
          "type": "bytes4"
        }
      ],
      "stateMutability": "pure",
      "type": "function"
    },
    {
      "inputs": [],
      "name": "owner",
      "outputs": [
        {
          "internalType": "address",
          "name": "result",
          "type": "address"
        }
      ],
      "stateMutability": "view",
      "type": "function"
    },
    {
      "inputs": [
        {
          "internalType": "address",
          "name": "pendingOwner",
          "type": "address"
        }
      ],
      "name": "ownershipHandoverExpiresAt",
      "outputs": [
        {
          "internalType": "uint256",
          "name": "result",
          "type": "uint256"
        }
      ],
      "stateMutability": "view",
      "type": "function"
    },
    {
      "inputs": [],
      "name": "ownershipHandoverValidFor",
      "outputs": [
        {
          "internalType": "uint64",
          "name": "",
          "type": "uint64"
        }
      ],
      "stateMutability": "view",
      "type": "function"
    },
    {
      "inputs": [],
      "name": "pits",
      "outputs": [
        {
          "internalType": "contract IPits",
          "name": "",
          "type": "address"
        }
      ],
      "stateMutability": "view",
      "type": "function"
    },
    {
      "inputs": [
        {
          "internalType": "uint256[]",
          "name": "_tokenId",
          "type": "uint256[]"
        },
        {
          "internalType": "uint256[]",
          "name": "_animalsId",
          "type": "uint256[]"
        }
      ],
      "name": "removeAnimalsFromLaborGround",
      "outputs": [],
      "stateMutability": "nonpayable",
      "type": "function"
    },
    {
      "inputs": [],
      "name": "renounceOwnership",
      "outputs": [],
      "stateMutability": "payable",
      "type": "function"
    },
    {
      "inputs": [],
      "name": "requestOwnershipHandover",
      "outputs": [],
      "stateMutability": "payable",
      "type": "function"
    },
    {
      "inputs": [
        {
          "internalType": "address",
          "name": "_pits",
          "type": "address"
        },
        {
          "internalType": "address",
          "name": "_animals",
          "type": "address"
        },
        {
          "internalType": "address",
          "name": "_supplies",
          "type": "address"
        },
        {
          "internalType": "address",
          "name": "_consumables",
          "type": "address"
        },
        {
          "internalType": "address",
          "name": "_neandersmol",
          "type": "address"
        },
        {
          "internalType": "address",
          "name": "_randomizer",
          "type": "address"
        }
      ],
      "name": "setAddress",
      "outputs": [],
      "stateMutability": "nonpayable",
      "type": "function"
    },
    {
      "inputs": [],
      "name": "supplies",
      "outputs": [
        {
          "internalType": "contract IERC1155Upgradeable",
          "name": "",
          "type": "address"
        }
      ],
      "stateMutability": "view",
      "type": "function"
    },
    {
      "inputs": [
        {
          "internalType": "address",
          "name": "newOwner",
          "type": "address"
        }
      ],
      "name": "transferOwnership",
      "outputs": [],
      "stateMutability": "payable",
      "type": "function"
    }
  ],
  "transactionHash": "0xb705a64b9a083db4d65caf7a68fea90e3a7c58e2e969ad3ace9eba1f20891cf9",
  "args": [],
  "numDeployments": 1,
  "solcInputHash": "382b64b6cda7259ac2c94037600ab694",
  "bytecode": "0x608060405234801561001057600080fd5b50613d54806100206000396000f3fe60806040526004361061014b5760003560e01c8063b00bec65116100b6578063e95252441161006f578063e95252441461041d578063f04e283e14610448578063f23a6e6114610464578063f2fde38b146104a1578063fda72552146104bd578063fee81cf4146104e65761014b565b8063b00bec651461030f578063b3259e141461033a578063bd69b15714610377578063cc2a9a5b146103a0578063d4053d5b146103c9578063d7533f02146103f25761014b565b80637fd4bfd5116101085780637fd4bfd5146102115780638da5cb5b1461023c5780638efa88741461026757806390528e11146102925780639426dba2146102bd5780639c1a2678146102e65761014b565b8063256929621461015057806354d1f13d1461015a57806363c28db1146101645780636addfe57146101a157806370914034146101de578063715018a614610207575b600080fd5b610158610523565b005b610162610577565b005b34801561017057600080fd5b5061018b60048036038101906101869190612ce8565b6105b3565b6040516101989190612ddd565b60405180910390f35b3480156101ad57600080fd5b506101c860048036038101906101c39190612ce8565b61064a565b6040516101d59190612f08565b60405180910390f35b3480156101ea57600080fd5b5061020560048036038101906102009190612f8f565b610864565b005b61020f610bf7565b005b34801561021d57600080fd5b50610226610c0b565b604051610233919061306f565b60405180910390f35b34801561024857600080fd5b50610251610c31565b60405161025e9190613099565b60405180910390f35b34801561027357600080fd5b5061027c610c3f565b60405161028991906130d5565b60405180910390f35b34801561029e57600080fd5b506102a7610c65565b6040516102b49190613111565b60405180910390f35b3480156102c957600080fd5b506102e460048036038101906102df9190612f8f565b610c8b565b005b3480156102f257600080fd5b5061030d60048036038101906103089190613182565b610ee0565b005b34801561031b57600080fd5b50610324611588565b6040516103319190613257565b60405180910390f35b34801561034657600080fd5b50610361600480360381019061035c919061329e565b6115ae565b60405161036e91906133eb565b60405180910390f35b34801561038357600080fd5b5061039e60048036038101906103999190613406565b611855565b005b3480156103ac57600080fd5b506103c760048036038101906103c29190613453565b61189b565b005b3480156103d557600080fd5b506103f060048036038101906103eb9190613406565b6119ee565b005b3480156103fe57600080fd5b50610407611e86565b6040516104149190613503565b60405180910390f35b34801561042957600080fd5b50610432611e91565b60405161043f91906130d5565b60405180910390f35b610462600480360381019061045d9190612ce8565b611eb7565b005b34801561047057600080fd5b5061048b60048036038101906104869190613574565b611ef8565b6040516104989190613649565b60405180910390f35b6104bb60048036038101906104b69190612ce8565b611f0e565b005b3480156104c957600080fd5b506104e460048036038101906104df9190613453565b611f38565b005b3480156104f257600080fd5b5061050d60048036038101906105089190612ce8565b6120ce565b60405161051a9190613673565b60405180910390f35b600061052d611e86565b67ffffffffffffffff164201905063389a75e1600c5233600052806020600c2055337fdbf36a107da19e49527a7176a1babf963b4b0ff8cde35ee35d6cd8f1f9ac7e1d600080a250565b63389a75e1600c523360005260006020600c2055337ffa7b8eab7da67f412cc9575ed43464468f9bfbae89d1675917346ca6d8fe3c92600080a2565b6060600760008373ffffffffffffffffffffffffffffffffffffffff1673ffffffffffffffffffffffffffffffffffffffff16815260200190815260200160002080548060200260200160405190810160405280929190818152602001828054801561063e57602002820191906000526020600020905b81548152602001906001019080831161062a575b50505050509050919050565b60606000600760008473ffffffffffffffffffffffffffffffffffffffff1673ffffffffffffffffffffffffffffffffffffffff1681526020019081526020016000208054806020026020016040519081016040528092919081815260200182805480156106d757602002820191906000526020600020905b8154815260200190600101908083116106c3575b505050505090506000815167ffffffffffffffff8111156106fb576106fa61368e565b5b60405190808252806020026020018201604052801561073457816020015b610721612bd2565b8152602001906001900390816107195790505b50905060005b825181101561085957600061076884838151811061075b5761075a6136bd565b5b60200260200101516115ae565b602001516203f48061077a919061371b565b63ffffffff16421061078d5760006107d4565b620151806107b48584815181106107a7576107a66136bd565b5b60200260200101516115ae565b6020015163ffffffff16426107c99190613753565b6107d391906137b6565b5b905060405180604001604052808584815181106107f4576107f36136bd565b5b60200260200101516fffffffffffffffffffffffffffffffff168152602001826fffffffffffffffffffffffffffffffff1681525083838151811061083c5761083b6136bd565b5b60200260200101819052505080610852906137e7565b905061073a565b819350505050919050565b610870848484846120e9565b60005b84849050811015610bf0576000838383818110610893576108926136bd565b5b9050602002013590506000600660008888868181106108b5576108b46136bd565b5b9050602002013581526020019081526020016000206040518060c00160405290816000820160009054906101000a900473ffffffffffffffffffffffffffffffffffffffff1673ffffffffffffffffffffffffffffffffffffffff1673ffffffffffffffffffffffffffffffffffffffff1681526020016000820160149054906101000a900463ffffffff1663ffffffff1663ffffffff1681526020016000820160189054906101000a900463ffffffff1663ffffffff1663ffffffff16815260200160008201601c9054906101000a900463ffffffff1663ffffffff1663ffffffff168152602001600182015481526020016002820160009054906101000a900460ff1660028111156109cc576109cb6132f9565b5b60028111156109de576109dd6132f9565b5b8152505090503373ffffffffffffffffffffffffffffffffffffffff16816000015173ffffffffffffffffffffffffffffffffffffffff1614610a4d576040517f091fe61c00000000000000000000000000000000000000000000000000000000815260040160405180910390fd5b6000816060015163ffffffff1614610a91576040517f8dca9f6400000000000000000000000000000000000000000000000000000000815260040160405180910390fd5b600460009054906101000a900473ffffffffffffffffffffffffffffffffffffffff1673ffffffffffffffffffffffffffffffffffffffff1663f242432a33308560016040518563ffffffff1660e01b8152600401610af394939291906138a1565b600060405180830381600087803b158015610b0d57600080fd5b505af1158015610b21573d6000803e3d6000fd5b50505050600182610b32919061371b565b60066000898987818110610b4957610b486136bd565b5b905060200201358152602001908152602001600020600001601c6101000a81548163ffffffff021916908363ffffffff16021790555081878785818110610b9357610b926136bd565b5b905060200201353373ffffffffffffffffffffffffffffffffffffffff167f085b924bab9c71a3a17b45cf23191479522f5088263b5d8e87eb68f16ac1a0a860405160405180910390a4505080610be9906137e7565b9050610873565b5050505050565b610bff61212e565b610c09600061214b565b565b600060029054906101000a900473ffffffffffffffffffffffffffffffffffffffff1681565b6000638b78c6d81954905090565b600560009054906101000a900473ffffffffffffffffffffffffffffffffffffffff1681565b600260009054906101000a900473ffffffffffffffffffffffffffffffffffffffff1681565b610c97848484846120e9565b60005b84849050811015610ed9576000838383818110610cba57610cb96136bd565b5b905060200201359050600060066000888886818110610cdc57610cdb6136bd565b5b90506020020135815260200190815260200160002090503373ffffffffffffffffffffffffffffffffffffffff168160000160009054906101000a900473ffffffffffffffffffffffffffffffffffffffff1673ffffffffffffffffffffffffffffffffffffffff1614158015610d795750600182610d5b91906138f9565b81600001601c9054906101000a900463ffffffff1663ffffffff1614155b15610db0576040517f091fe61c00000000000000000000000000000000000000000000000000000000815260040160405180910390fd5b600081600001601c6101000a81548163ffffffff021916908363ffffffff160217905550600460009054906101000a900473ffffffffffffffffffffffffffffffffffffffff1673ffffffffffffffffffffffffffffffffffffffff1663f242432a30338560016040518563ffffffff1660e01b8152600401610e3694939291906138a1565b600060405180830381600087803b158015610e5057600080fd5b505af1158015610e64573d6000803e3d6000fd5b5050505081878785818110610e7c57610e7b6136bd565b5b905060200201353373ffffffffffffffffffffffffffffffffffffffff167f7db14b2c864954e7ddaa6550066e524715079a7e4e01a90e1011e357bbc10c6960405160405180910390a4505080610ed2906137e7565b9050610c9a565b5050505050565b610f0b600060029054906101000a900473ffffffffffffffffffffffffffffffffffffffff16612189565b610f17868686866120e9565b818190508484905014610f56576040517f22cb666100000000000000000000000000000000000000000000000000000000815260040160405180910390fd5b60005b8686905081101561157f57600080888884818110610f7a57610f796136bd565b5b90506020020135878785818110610f9457610f936136bd565b5b905060200201359150915060006006600084815260200190815260200160002090503373ffffffffffffffffffffffffffffffffffffffff16600360009054906101000a900473ffffffffffffffffffffffffffffffffffffffff1673ffffffffffffffffffffffffffffffffffffffff16636352211e856040518263ffffffff1660e01b81526004016110289190613673565b602060405180830381865afa158015611045573d6000803e3d6000fd5b505050506040513d601f19601f820116820180604052508101906110699190613942565b73ffffffffffffffffffffffffffffffffffffffff16146110b6576040517f091fe61c00000000000000000000000000000000000000000000000000000000815260040160405180910390fd5b6063600360009054906101000a900473ffffffffffffffffffffffffffffffffffffffff1673ffffffffffffffffffffffffffffffffffffffff1663f822a5b2856040518263ffffffff1660e01b81526004016111139190613673565b602060405180830381865afa158015611130573d6000803e3d6000fd5b505050506040513d601f19601f820116820180604052508101906111549190613984565b111561118c576040517fc0b81fcd00000000000000000000000000000000000000000000000000000000815260040160405180910390fd5b6111bd828787878181106111a3576111a26136bd565b5b90506020020160208101906111b891906139d6565b612231565b6111f3576040517f3189b2eb00000000000000000000000000000000000000000000000000000000815260040160405180910390fd5b600560009054906101000a900473ffffffffffffffffffffffffffffffffffffffff1673ffffffffffffffffffffffffffffffffffffffff1663f242432a33308560016040518563ffffffff1660e01b815260040161125594939291906138a1565b600060405180830381600087803b15801561126f57600080fd5b505af1158015611283573d6000803e3d6000fd5b50505050600360009054906101000a900473ffffffffffffffffffffffffffffffffffffffff1673ffffffffffffffffffffffffffffffffffffffff166337bf06a68460016040518363ffffffff1660e01b81526004016112e5929190613a1e565b600060405180830381600087803b1580156112ff57600080fd5b505af1158015611313573d6000803e3d6000fd5b50505050338160000160006101000a81548173ffffffffffffffffffffffffffffffffffffffff021916908373ffffffffffffffffffffffffffffffffffffffff160217905550428160000160146101000a81548163ffffffff021916908363ffffffff160217905550818160000160186101000a81548163ffffffff021916908363ffffffff1602179055508585858181106113b3576113b26136bd565b5b90506020020160208101906113c891906139d6565b8160020160006101000a81548160ff021916908360028111156113ee576113ed6132f9565b5b0217905550600160009054906101000a900473ffffffffffffffffffffffffffffffffffffffff1673ffffffffffffffffffffffffffffffffffffffff16638678a7b26040518163ffffffff1660e01b81526004016020604051808303816000875af1158015611462573d6000803e3d6000fd5b505050506040513d601f19601f820116820180604052508101906114869190613984565b8160010181905550600760003373ffffffffffffffffffffffffffffffffffffffff1673ffffffffffffffffffffffffffffffffffffffff16815260200190815260200160002083908060018154018082558091505060019003906000526020600020016000909190919091505581833373ffffffffffffffffffffffffffffffffffffffff167faf1d047d6158df0c7beade7a6810e77e0817265bf671190ebad2b03dd889a2b2898989818110611541576115406136bd565b5b905060200201602081019061155691906139d6565b6040516115639190613a56565b60405180910390a450505080611578906137e7565b9050610f59565b50505050505050565b600360009054906101000a900473ffffffffffffffffffffffffffffffffffffffff1681565b6115b6612c10565b600660008381526020019081526020016000206040518060c00160405290816000820160009054906101000a900473ffffffffffffffffffffffffffffffffffffffff1673ffffffffffffffffffffffffffffffffffffffff1673ffffffffffffffffffffffffffffffffffffffff1681526020016000820160149054906101000a900463ffffffff1663ffffffff1663ffffffff1681526020016000820160189054906101000a900463ffffffff1663ffffffff1663ffffffff16815260200160008201601c9054906101000a900463ffffffff1663ffffffff1663ffffffff168152602001600182015481526020016002820160009054906101000a900460ff1660028111156116cb576116ca6132f9565b5b60028111156116dd576116dc6132f9565b5b8152505090506000816060015163ffffffff160361182757600660008381526020019081526020016000206040518060c00160405290816000820160009054906101000a900473ffffffffffffffffffffffffffffffffffffffff1673ffffffffffffffffffffffffffffffffffffffff1673ffffffffffffffffffffffffffffffffffffffff1681526020016000820160149054906101000a900463ffffffff1663ffffffff1663ffffffff1681526020016000820160189054906101000a900463ffffffff1663ffffffff1663ffffffff16815260200160008201601c9054906101000a900463ffffffff1663ffffffff1663ffffffff168152602001600182015481526020016002820160009054906101000a900460ff16600281111561180a576118096132f9565b5b600281111561181c5761181b6132f9565b5b815250509050611850565b60018160600181815161183a9190613a71565b91509063ffffffff16908163ffffffff16815250505b919050565b60005b8282905081101561189657611885838383818110611879576118786136bd565b5b905060200201356122dd565b8061188f906137e7565b9050611858565b505050565b60008060019054906101000a900460ff161590508080156118cc5750600160008054906101000a900460ff1660ff16105b806118f957506118db3061260c565b1580156118f85750600160008054906101000a900460ff1660ff16145b5b611938576040517f08c379a000000000000000000000000000000000000000000000000000000000815260040161192f90613b2c565b60405180910390fd5b60016000806101000a81548160ff021916908360ff1602179055508015611975576001600060016101000a81548160ff0219169083151502179055505b61197e3361262f565b61198c878787878787611f38565b80156119e55760008060016101000a81548160ff0219169083151502179055507f7f26b83ff96e1f2b6a682f133852f6798a09c465da95921460cefb384740249860016040516119dc9190613b8a565b60405180910390a15b50505050505050565b60005b82829050811015611e81576000838383818110611a1157611a106136bd565b5b905060200201359050611a23816122dd565b6000600660008381526020019081526020016000206040518060c00160405290816000820160009054906101000a900473ffffffffffffffffffffffffffffffffffffffff1673ffffffffffffffffffffffffffffffffffffffff1673ffffffffffffffffffffffffffffffffffffffff1681526020016000820160149054906101000a900463ffffffff1663ffffffff1663ffffffff1681526020016000820160189054906101000a900463ffffffff1663ffffffff1663ffffffff16815260200160008201601c9054906101000a900463ffffffff1663ffffffff1663ffffffff168152602001600182015481526020016002820160009054906101000a900460ff166002811115611b3a57611b396132f9565b5b6002811115611b4c57611b4b6132f9565b5b81525050905060066000838152602001908152602001600020600080820160006101000a81549073ffffffffffffffffffffffffffffffffffffffff02191690556000820160146101000a81549063ffffffff02191690556000820160186101000a81549063ffffffff021916905560008201601c6101000a81549063ffffffff021916905560018201600090556002820160006101000a81549060ff02191690555050611c38600760003373ffffffffffffffffffffffffffffffffffffffff1673ffffffffffffffffffffffffffffffffffffffff1681526020019081526020016000208361266b565b6000816060015163ffffffff1614611cef57600460009054906101000a900473ffffffffffffffffffffffffffffffffffffffff1673ffffffffffffffffffffffffffffffffffffffff1663f242432a303360018560600151611c9b9190613a71565b60016040518563ffffffff1660e01b8152600401611cbc9493929190613bd6565b600060405180830381600087803b158015611cd657600080fd5b505af1158015611cea573d6000803e3d6000fd5b505050505b6000816040015163ffffffff1614611d9a57600560009054906101000a900473ffffffffffffffffffffffffffffffffffffffff1673ffffffffffffffffffffffffffffffffffffffff1663f242432a3033846040015160016040518563ffffffff1660e01b8152600401611d679493929190613bd6565b600060405180830381600087803b158015611d8157600080fd5b505af1158015611d95573d6000803e3d6000fd5b505050505b600360009054906101000a900473ffffffffffffffffffffffffffffffffffffffff1673ffffffffffffffffffffffffffffffffffffffff166337bf06a68360006040518363ffffffff1660e01b8152600401611df8929190613a1e565b600060405180830381600087803b158015611e1257600080fd5b505af1158015611e26573d6000803e3d6000fd5b50505050813373ffffffffffffffffffffffffffffffffffffffff167f829b142282bbe71c01b98e565ed26a8cc7cdc9446201b49bf41b184efa57ed5960405160405180910390a3505080611e7a906137e7565b90506119f1565b505050565b60006202a300905090565b600460009054906101000a900473ffffffffffffffffffffffffffffffffffffffff1681565b611ebf61212e565b63389a75e1600c52806000526020600c208054421115611ee757636f5e88186000526004601cfd5b6000815550611ef58161214b565b50565b600063f23a6e6160e01b90509695505050505050565b611f1661212e565b8060601b611f2c57637448fbae6000526004601cfd5b611f358161214b565b50565b611f4061212e565b84600460006101000a81548173ffffffffffffffffffffffffffffffffffffffff021916908373ffffffffffffffffffffffffffffffffffffffff16021790555085600060026101000a81548173ffffffffffffffffffffffffffffffffffffffff021916908373ffffffffffffffffffffffffffffffffffffffff16021790555083600560006101000a81548173ffffffffffffffffffffffffffffffffffffffff021916908373ffffffffffffffffffffffffffffffffffffffff16021790555080600160006101000a81548173ffffffffffffffffffffffffffffffffffffffff021916908373ffffffffffffffffffffffffffffffffffffffff16021790555082600260006101000a81548173ffffffffffffffffffffffffffffffffffffffff021916908373ffffffffffffffffffffffffffffffffffffffff16021790555081600360006101000a81548173ffffffffffffffffffffffffffffffffffffffff021916908373ffffffffffffffffffffffffffffffffffffffff160217905550505050505050565b600063389a75e1600c52816000526020600c20549050919050565b818190508484905014612128576040517f22cb666100000000000000000000000000000000000000000000000000000000815260040160405180910390fd5b50505050565b638b78c6d819543314612149576382b429006000526004601cfd5b565b638b78c6d8198160601b60601c91508181547f8be0079c531659141344cd1fd0a4f28419497f9722a3daafe3b4186f6b6457e0600080a38181555050565b8073ffffffffffffffffffffffffffffffffffffffff1663ae4b37e46040518163ffffffff1660e01b8152600401602060405180830381865afa1580156121d4573d6000803e3d6000fd5b505050506040513d601f19601f820116820180604052508101906121f89190613c5a565b61222e576040517f288de97200000000000000000000000000000000000000000000000000000000815260040160405180910390fd5b50565b6000806002811115612246576122456132f9565b5b826002811115612259576122586132f9565b5b03612269576001831490506122d7565b6001600281111561227d5761227c6132f9565b5b8260028111156122905761228f6132f9565b5b036122a0576002831490506122d7565b6002808111156122b3576122b26132f9565b5b8260028111156122c6576122c56132f9565b5b036122d6576003831490506122d7565b5b92915050565b60006006600083815260200190815260200160002090508060000160009054906101000a900473ffffffffffffffffffffffffffffffffffffffff1673ffffffffffffffffffffffffffffffffffffffff163373ffffffffffffffffffffffffffffffffffffffff161461237d576040517f091fe61c00000000000000000000000000000000000000000000000000000000815260040160405180910390fd5b6203f4808160000160149054906101000a900463ffffffff166123a0919061371b565b63ffffffff164210156123df576040517f5488a9fc00000000000000000000000000000000000000000000000000000000815260040160405180910390fd5b600061250383836040518060c00160405290816000820160009054906101000a900473ffffffffffffffffffffffffffffffffffffffff1673ffffffffffffffffffffffffffffffffffffffff1673ffffffffffffffffffffffffffffffffffffffff1681526020016000820160149054906101000a900463ffffffff1663ffffffff1663ffffffff1681526020016000820160189054906101000a900463ffffffff1663ffffffff1663ffffffff16815260200160008201601c9054906101000a900463ffffffff1663ffffffff1663ffffffff168152602001600182015481526020016002820160009054906101000a900460ff1660028111156124e8576124e76132f9565b5b60028111156124fa576124f96132f9565b5b81525050612729565b9050600081146125a057600260009054906101000a900473ffffffffffffffffffffffffffffffffffffffff1673ffffffffffffffffffffffffffffffffffffffff1663156e29f6338360016040518463ffffffff1660e01b815260040161256d93929190613c87565b600060405180830381600087803b15801561258757600080fd5b505af115801561259b573d6000803e3d6000fd5b505050505b428260000160146101000a81548163ffffffff021916908363ffffffff160217905550823373ffffffffffffffffffffffffffffffffffffffff167f5a0db36dd607437cb4689c3ac30ccb5940e032dab1c80eefe397f5f43202b34e60405160405180910390a3505050565b6000808273ffffffffffffffffffffffffffffffffffffffff163b119050919050565b8060601b60601c905080638b78c6d819558060007f8be0079c531659141344cd1fd0a4f28419497f9722a3daafe3b4186f6b6457e0600080a350565b60005b8280549050811015612724578183828154811061268e5761268d6136bd565b5b9060005260206000200154036127195782600184805490506126b09190613753565b815481106126c1576126c06136bd565b5b90600052602060002001548382815481106126df576126de6136bd565b5b9060005260206000200181905550828054806126fe576126fd613cbe565b5b60019003818190600052602060002001600090559055612724565b80600101905061266e565b505050565b6000806065600160009054906101000a900473ffffffffffffffffffffffffffffffffffffffff1673ffffffffffffffffffffffffffffffffffffffff16634ad30a7585608001516040518263ffffffff1660e01b815260040161278d9190613673565b602060405180830381865afa1580156127aa573d6000803e3d6000fd5b505050506040513d601f19601f820116820180604052508101906127ce9190613984565b6127d89190613ced565b90506000836060015163ffffffff16905060008060006127fb8760a0015161299a565b915091506000806000860361284357603d87101561281b57839450612842565b603c8711801561282b5750605187105b1561283857829450612841565b60039150600290505b5b5b6001860361288457604287101561285c57839450612883565b60428711801561286c5750605687105b1561287957829450612882565b60109150600590505b5b5b600286036128c557604287101561289d578394506128c4565b6041871180156128ad5750606087105b156128ba578294506128c3565b600b9150600690505b5b5b600386036129065760478710156128de57839450612905565b6046871180156128ee5750606087105b156128fb57829450612904565b60069150600190505b5b5b60008214158015612918575060008114155b15612939576129388a8a6040015163ffffffff1684848d60800151612a4c565b5b60048603612954576047871061294f5782612951565b835b94505b6005860361296f576042871061296a578261296c565b835b94505b6006860361298a57603d87106129855782612987565b835b94505b8497505050505050505092915050565b600080600060028111156129b1576129b06132f9565b5b8360028111156129c4576129c36132f9565b5b036129d6576001600480925081935050505b600160028111156129ea576129e96132f9565b5b8360028111156129fd576129fc6132f9565b5b03612a0f576002600580925081935050505b600280811115612a2257612a216132f9565b5b836002811115612a3557612a346132f9565b5b03612a47576003600680925081935050505b915091565b600083600160009054906101000a900473ffffffffffffffffffffffffffffffffffffffff1673ffffffffffffffffffffffffffffffffffffffff16634ad30a75846040518263ffffffff1660e01b8152600401612aaa9190613673565b602060405180830381865afa158015612ac7573d6000803e3d6000fd5b505050506040513d601f19601f82011682018060405250810190612aeb9190613984565b612af59190613ced565b905082811015612bca57600560009054906101000a900473ffffffffffffffffffffffffffffffffffffffff1673ffffffffffffffffffffffffffffffffffffffff1663f242432a30338860016040518563ffffffff1660e01b8152600401612b6194939291906138a1565b600060405180830381600087803b158015612b7b57600080fd5b505af1158015612b8f573d6000803e3d6000fd5b5050505060006006600088815260200190815260200160002060000160186101000a81548163ffffffff021916908363ffffffff1602179055505b505050505050565b604051806040016040528060006fffffffffffffffffffffffffffffffff16815260200160006fffffffffffffffffffffffffffffffff1681525090565b6040518060c00160405280600073ffffffffffffffffffffffffffffffffffffffff168152602001600063ffffffff168152602001600063ffffffff168152602001600063ffffffff1681526020016000815260200160006002811115612c7a57612c796132f9565b5b81525090565b600080fd5b600080fd5b600073ffffffffffffffffffffffffffffffffffffffff82169050919050565b6000612cb582612c8a565b9050919050565b612cc581612caa565b8114612cd057600080fd5b50565b600081359050612ce281612cbc565b92915050565b600060208284031215612cfe57612cfd612c80565b5b6000612d0c84828501612cd3565b91505092915050565b600081519050919050565b600082825260208201905092915050565b6000819050602082019050919050565b6000819050919050565b612d5481612d41565b82525050565b6000612d668383612d4b565b60208301905092915050565b6000602082019050919050565b6000612d8a82612d15565b612d948185612d20565b9350612d9f83612d31565b8060005b83811015612dd0578151612db78882612d5a565b9750612dc283612d72565b925050600181019050612da3565b5085935050505092915050565b60006020820190508181036000830152612df78184612d7f565b905092915050565b600081519050919050565b600082825260208201905092915050565b6000819050602082019050919050565b60006fffffffffffffffffffffffffffffffff82169050919050565b612e5081612e2b565b82525050565b604082016000820151612e6c6000850182612e47565b506020820151612e7f6020850182612e47565b50505050565b6000612e918383612e56565b60408301905092915050565b6000602082019050919050565b6000612eb582612dff565b612ebf8185612e0a565b9350612eca83612e1b565b8060005b83811015612efb578151612ee28882612e85565b9750612eed83612e9d565b925050600181019050612ece565b5085935050505092915050565b60006020820190508181036000830152612f228184612eaa565b905092915050565b600080fd5b600080fd5b600080fd5b60008083601f840112612f4f57612f4e612f2a565b5b8235905067ffffffffffffffff811115612f6c57612f6b612f2f565b5b602083019150836020820283011115612f8857612f87612f34565b5b9250929050565b60008060008060408587031215612fa957612fa8612c80565b5b600085013567ffffffffffffffff811115612fc757612fc6612c85565b5b612fd387828801612f39565b9450945050602085013567ffffffffffffffff811115612ff657612ff5612c85565b5b61300287828801612f39565b925092505092959194509250565b6000819050919050565b600061303561303061302b84612c8a565b613010565b612c8a565b9050919050565b60006130478261301a565b9050919050565b60006130598261303c565b9050919050565b6130698161304e565b82525050565b60006020820190506130846000830184613060565b92915050565b61309381612caa565b82525050565b60006020820190506130ae600083018461308a565b92915050565b60006130bf8261303c565b9050919050565b6130cf816130b4565b82525050565b60006020820190506130ea60008301846130c6565b92915050565b60006130fb8261303c565b9050919050565b61310b816130f0565b82525050565b60006020820190506131266000830184613102565b92915050565b60008083601f84011261314257613141612f2a565b5b8235905067ffffffffffffffff81111561315f5761315e612f2f565b5b60208301915083602082028301111561317b5761317a612f34565b5b9250929050565b6000806000806000806060878903121561319f5761319e612c80565b5b600087013567ffffffffffffffff8111156131bd576131bc612c85565b5b6131c989828a01612f39565b9650965050602087013567ffffffffffffffff8111156131ec576131eb612c85565b5b6131f889828a01612f39565b9450945050604087013567ffffffffffffffff81111561321b5761321a612c85565b5b61322789828a0161312c565b92509250509295509295509295565b60006132418261303c565b9050919050565b61325181613236565b82525050565b600060208201905061326c6000830184613248565b92915050565b61327b81612d41565b811461328657600080fd5b50565b60008135905061329881613272565b92915050565b6000602082840312156132b4576132b3612c80565b5b60006132c284828501613289565b91505092915050565b6132d481612caa565b82525050565b600063ffffffff82169050919050565b6132f3816132da565b82525050565b7f4e487b7100000000000000000000000000000000000000000000000000000000600052602160045260246000fd5b60038110613339576133386132f9565b5b50565b600081905061334a82613328565b919050565b600061335a8261333c565b9050919050565b61336a8161334f565b82525050565b60c08201600082015161338660008501826132cb565b50602082015161339960208501826132ea565b5060408201516133ac60408501826132ea565b5060608201516133bf60608501826132ea565b5060808201516133d26080850182612d4b565b5060a08201516133e560a0850182613361565b50505050565b600060c0820190506134006000830184613370565b92915050565b6000806020838503121561341d5761341c612c80565b5b600083013567ffffffffffffffff81111561343b5761343a612c85565b5b61344785828601612f39565b92509250509250929050565b60008060008060008060c087890312156134705761346f612c80565b5b600061347e89828a01612cd3565b965050602061348f89828a01612cd3565b95505060406134a089828a01612cd3565b94505060606134b189828a01612cd3565b93505060806134c289828a01612cd3565b92505060a06134d389828a01612cd3565b9150509295509295509295565b600067ffffffffffffffff82169050919050565b6134fd816134e0565b82525050565b600060208201905061351860008301846134f4565b92915050565b60008083601f84011261353457613533612f2a565b5b8235905067ffffffffffffffff81111561355157613550612f2f565b5b60208301915083600182028301111561356d5761356c612f34565b5b9250929050565b60008060008060008060a0878903121561359157613590612c80565b5b600061359f89828a01612cd3565b96505060206135b089828a01612cd3565b95505060406135c189828a01613289565b94505060606135d289828a01613289565b935050608087013567ffffffffffffffff8111156135f3576135f2612c85565b5b6135ff89828a0161351e565b92509250509295509295509295565b60007fffffffff0000000000000000000000000000000000000000000000000000000082169050919050565b6136438161360e565b82525050565b600060208201905061365e600083018461363a565b92915050565b61366d81612d41565b82525050565b60006020820190506136886000830184613664565b92915050565b7f4e487b7100000000000000000000000000000000000000000000000000000000600052604160045260246000fd5b7f4e487b7100000000000000000000000000000000000000000000000000000000600052603260045260246000fd5b7f4e487b7100000000000000000000000000000000000000000000000000000000600052601160045260246000fd5b6000613726826132da565b9150613731836132da565b9250828201905063ffffffff81111561374d5761374c6136ec565b5b92915050565b600061375e82612d41565b915061376983612d41565b9250828203905081811115613781576137806136ec565b5b92915050565b7f4e487b7100000000000000000000000000000000000000000000000000000000600052601260045260246000fd5b60006137c182612d41565b91506137cc83612d41565b9250826137dc576137db613787565b5b828204905092915050565b60006137f282612d41565b91507fffffffffffffffffffffffffffffffffffffffffffffffffffffffffffffffff8203613824576138236136ec565b5b600182019050919050565b6000819050919050565b600061385461384f61384a8461382f565b613010565b612d41565b9050919050565b61386481613839565b82525050565b600082825260208201905092915050565b50565b600061388b60008361386a565b91506138968261387b565b600082019050919050565b600060a0820190506138b6600083018761308a565b6138c3602083018661308a565b6138d06040830185613664565b6138dd606083018461385b565b81810360808301526138ee8161387e565b905095945050505050565b600061390482612d41565b915061390f83612d41565b9250828201905080821115613927576139266136ec565b5b92915050565b60008151905061393c81612cbc565b92915050565b60006020828403121561395857613957612c80565b5b60006139668482850161392d565b91505092915050565b60008151905061397e81613272565b92915050565b60006020828403121561399a57613999612c80565b5b60006139a88482850161396f565b91505092915050565b600381106139be57600080fd5b50565b6000813590506139d0816139b1565b92915050565b6000602082840312156139ec576139eb612c80565b5b60006139fa848285016139c1565b91505092915050565b60008115159050919050565b613a1881613a03565b82525050565b6000604082019050613a336000830185613664565b613a406020830184613a0f565b9392505050565b613a508161334f565b82525050565b6000602082019050613a6b6000830184613a47565b92915050565b6000613a7c826132da565b9150613a87836132da565b9250828203905063ffffffff811115613aa357613aa26136ec565b5b92915050565b600082825260208201905092915050565b7f496e697469616c697a61626c653a20636f6e747261637420697320616c72656160008201527f647920696e697469616c697a6564000000000000000000000000000000000000602082015250565b6000613b16602e83613aa9565b9150613b2182613aba565b604082019050919050565b60006020820190508181036000830152613b4581613b09565b9050919050565b600060ff82169050919050565b6000613b74613b6f613b6a8461382f565b613010565b613b4c565b9050919050565b613b8481613b59565b82525050565b6000602082019050613b9f6000830184613b7b565b92915050565b6000613bc0613bbb613bb6846132da565b613010565b612d41565b9050919050565b613bd081613ba5565b82525050565b600060a082019050613beb600083018761308a565b613bf8602083018661308a565b613c056040830185613bc7565b613c12606083018461385b565b8181036080830152613c238161387e565b905095945050505050565b613c3781613a03565b8114613c4257600080fd5b50565b600081519050613c5481613c2e565b92915050565b600060208284031215613c7057613c6f612c80565b5b6000613c7e84828501613c45565b91505092915050565b6000606082019050613c9c600083018661308a565b613ca96020830185613664565b613cb6604083018461385b565b949350505050565b7f4e487b7100000000000000000000000000000000000000000000000000000000600052603160045260246000fd5b6000613cf882612d41565b9150613d0383612d41565b925082613d1357613d12613787565b5b82820690509291505056fea2646970667358221220a1b4252872dd705d11d72086c4ba4f56dd8b64e31da1f184ad52fddeae4bdf7664736f6c63430008120033",
  "devdoc": {
    "errors": {
      "NewOwnerIsZeroAddress()": [
        {
          "details": "The `newOwner` cannot be the zero address."
        }
      ],
      "NoHandoverRequest()": [
        {
          "details": "The `pendingOwner` does not have a valid handover request."
        }
      ],
      "Unauthorized()": [
        {
          "details": "The caller is not authorized to call the function."
        }
      ]
    },
    "events": {
      "Initialized(uint8)": {
        "details": "Triggered when the contract has been initialized or reinitialized."
      },
      "OwnershipHandoverCanceled(address)": {
        "details": "The ownership handover to `pendingOwner` has been canceled."
      },
      "OwnershipHandoverRequested(address)": {
        "details": "An ownership handover to `pendingOwner` has been requested."
      },
      "OwnershipTransferred(address,address)": {
        "details": "The ownership is transferred from `oldOwner` to `newOwner`. This event is intentionally kept the same as OpenZeppelin's Ownable to be compatible with indexers and [EIP-173](https://eips.ethereum.org/EIPS/eip-173), despite it not being as lightweight as a single argument event."
      }
    },
    "kind": "dev",
    "methods": {
      "bringInAnimalsToLaborGround(uint256[],uint256[])": {
        "params": {
          "_animalsId": "An array of token IDs representing the animals.",
          "_tokenId": "An array of token IDs representing the labor grounds."
        }
      },
      "cancelOwnershipHandover()": {
        "details": "Cancels the two-step ownership handover to the caller, if any."
      },
      "claimCollectables(uint256[])": {
        "details": "This function allows a user to claim multiple collectables at once by providing an array of token IDs.",
        "params": {
          "_tokenId": "An array of token IDs that the user wants to claim."
        }
      },
      "completeOwnershipHandover(address)": {
        "details": "Allows the owner to complete the two-step ownership handover to `pendingOwner`. Reverts if there is no existing ownership handover requested by `pendingOwner`."
      },
      "enterLaborGround(uint256[],uint256[],uint8[])": {
        "params": {
          "_job": "Array of jobs assigned to the labor grounds.",
          "_supplyId": "Array of supply IDs associated with the labor grounds.",
          "_tokenId": "Array of token IDs of the labor grounds."
        }
      },
      "getLaborGroundInfo(uint256)": {
        "details": "This function returns a LaborGround struct containing information about a Labor Ground token, specified by its ID, _tokenId.",
        "params": {
          "_tokenId": "ID of the Labor Ground token to retrieve information for"
        },
        "returns": {
          "lg": "The LaborGround struct containing information about the specified Labor Ground token."
        }
      },
      "getStakedTokens(address)": {
        "details": "Returns an array of token IDs that are currently staked by the given owner.",
        "params": {
          "_owner": "The address of the owner."
        },
        "returns": {
          "_0": "An array of staked token IDs."
        }
      },
      "leaveLaborGround(uint256[])": {
        "details": "This function allows a user to leave the LaborGround and receive their animal, supply, and collectable.",
        "params": {
          "_tokenId": "An array of token IDs that the user wants to leave."
        }
      },
      "onERC1155Received(address,address,uint256,uint256,bytes)": {
        "details": "This function is the onERC1155Received fallback function for the contract, which is triggered when the contract receives an ERC1155 token transfer.",
        "returns": {
          "_0": "The selector for this function, \"0x20f90a7e\"."
        }
      },
      "owner()": {
        "details": "Returns the owner of the contract."
      },
      "ownershipHandoverExpiresAt(address)": {
        "details": "Returns the expiry timestamp for the two-step ownership handover to `pendingOwner`."
      },
      "ownershipHandoverValidFor()": {
        "details": "Returns how long a two-step ownership handover is valid for in seconds."
      },
      "removeAnimalsFromLaborGround(uint256[],uint256[])": {
        "params": {
          "_animalsId": "Array of animals IDs associated with the labor grounds.",
          "_tokenId": "Array of token IDs of the labor grounds."
        }
      },
      "renounceOwnership()": {
        "details": "Allows the owner to renounce their ownership."
      },
      "requestOwnershipHandover()": {
        "details": "Request a two-step ownership handover to the caller. The request will be automatically expire in 48 hours (172800 seconds) by default."
      },
      "transferOwnership(address)": {
        "details": "Allows the owner to transfer the ownership to `newOwner`."
      }
    },
    "version": 1
  },
  "userdoc": {
    "kind": "user",
    "methods": {
      "bringInAnimalsToLaborGround(uint256[],uint256[])": {
        "notice": "Brings in animals to the labor ground by calling the bringInAnimalsToLaborGround function in the Lib library and transferring the ownership of the animal token from the sender to the contract."
      },
      "enterLaborGround(uint256[],uint256[],uint8[])": {
        "notice": "Enters the labor ground with specified token ID and supply ID, and assigns the job to it. Transfers the token and supply ownership to the contract. Emits the \"EnterLaborGround\" event."
      },
      "getLaborGroundInfo(uint256)": {
        "notice": "Retrieve information about a Labor Ground token."
      },
      "onERC1155Received(address,address,uint256,uint256,bytes)": {
        "notice": "Handle incoming ERC1155 token transfers."
      },
      "removeAnimalsFromLaborGround(uint256[],uint256[])": {
        "notice": "Removes the animals from the specified labor ground. Transfers the ownership of the animals back to the sender."
      }
    },
    "version": 1
  },
  "storageLayout": {
    "storage": [
      {
        "astId": 415,
        "contract": "contracts/LaborGrounds.sol:LaborGrounds",
        "label": "_initialized",
        "offset": 0,
        "slot": "0",
        "type": "t_uint8"
      },
      {
        "astId": 418,
        "contract": "contracts/LaborGrounds.sol:LaborGrounds",
        "label": "_initializing",
        "offset": 1,
        "slot": "0",
        "type": "t_bool"
      },
      {
        "astId": 8934,
        "contract": "contracts/LaborGrounds.sol:LaborGrounds",
        "label": "pits",
        "offset": 2,
        "slot": "0",
        "type": "t_contract(IPits)10963"
      },
      {
        "astId": 8937,
        "contract": "contracts/LaborGrounds.sol:LaborGrounds",
        "label": "randomizer",
        "offset": 0,
        "slot": "1",
        "type": "t_contract(IRandomizer)10985"
      },
      {
        "astId": 8940,
        "contract": "contracts/LaborGrounds.sol:LaborGrounds",
        "label": "consumables",
        "offset": 0,
        "slot": "2",
        "type": "t_contract(IConsumables)10891"
      },
      {
        "astId": 8943,
        "contract": "contracts/LaborGrounds.sol:LaborGrounds",
        "label": "neandersmol",
        "offset": 0,
        "slot": "3",
        "type": "t_contract(INeandersmol)10933"
      },
      {
        "astId": 8946,
        "contract": "contracts/LaborGrounds.sol:LaborGrounds",
        "label": "animals",
        "offset": 0,
        "slot": "4",
        "type": "t_contract(IERC1155Upgradeable)1985"
      },
      {
        "astId": 8949,
        "contract": "contracts/LaborGrounds.sol:LaborGrounds",
        "label": "supplies",
        "offset": 0,
        "slot": "5",
        "type": "t_contract(IERC1155Upgradeable)1985"
      },
      {
        "astId": 8954,
        "contract": "contracts/LaborGrounds.sol:LaborGrounds",
        "label": "laborGround",
        "offset": 0,
        "slot": "6",
        "type": "t_mapping(t_uint256,t_struct(LaborGround)11417_storage)"
      },
      {
        "astId": 8959,
        "contract": "contracts/LaborGrounds.sol:LaborGrounds",
        "label": "ownerToTokens",
        "offset": 0,
        "slot": "7",
        "type": "t_mapping(t_address,t_array(t_uint256)dyn_storage)"
      }
    ],
    "types": {
      "t_address": {
        "encoding": "inplace",
        "label": "address",
        "numberOfBytes": "20"
      },
      "t_array(t_uint256)dyn_storage": {
        "base": "t_uint256",
        "encoding": "dynamic_array",
        "label": "uint256[]",
        "numberOfBytes": "32"
      },
      "t_bool": {
        "encoding": "inplace",
        "label": "bool",
        "numberOfBytes": "1"
      },
      "t_contract(IConsumables)10891": {
        "encoding": "inplace",
        "label": "contract IConsumables",
        "numberOfBytes": "20"
      },
      "t_contract(IERC1155Upgradeable)1985": {
        "encoding": "inplace",
        "label": "contract IERC1155Upgradeable",
        "numberOfBytes": "20"
      },
      "t_contract(INeandersmol)10933": {
        "encoding": "inplace",
        "label": "contract INeandersmol",
        "numberOfBytes": "20"
      },
      "t_contract(IPits)10963": {
        "encoding": "inplace",
        "label": "contract IPits",
        "numberOfBytes": "20"
      },
      "t_contract(IRandomizer)10985": {
        "encoding": "inplace",
        "label": "contract IRandomizer",
        "numberOfBytes": "20"
      },
      "t_enum(Jobs)11459": {
        "encoding": "inplace",
        "label": "enum Jobs",
        "numberOfBytes": "1"
      },
      "t_mapping(t_address,t_array(t_uint256)dyn_storage)": {
        "encoding": "mapping",
        "key": "t_address",
        "label": "mapping(address => uint256[])",
        "numberOfBytes": "32",
        "value": "t_array(t_uint256)dyn_storage"
      },
      "t_mapping(t_uint256,t_struct(LaborGround)11417_storage)": {
        "encoding": "mapping",
        "key": "t_uint256",
        "label": "mapping(uint256 => struct LaborGround)",
        "numberOfBytes": "32",
        "value": "t_struct(LaborGround)11417_storage"
      },
      "t_struct(LaborGround)11417_storage": {
        "encoding": "inplace",
        "label": "struct LaborGround",
        "members": [
          {
            "astId": 11405,
            "contract": "contracts/LaborGrounds.sol:LaborGrounds",
            "label": "owner",
            "offset": 0,
            "slot": "0",
            "type": "t_address"
          },
          {
            "astId": 11407,
            "contract": "contracts/LaborGrounds.sol:LaborGrounds",
            "label": "lockTime",
            "offset": 20,
            "slot": "0",
            "type": "t_uint32"
          },
          {
            "astId": 11409,
            "contract": "contracts/LaborGrounds.sol:LaborGrounds",
            "label": "supplyId",
            "offset": 24,
            "slot": "0",
            "type": "t_uint32"
          },
          {
            "astId": 11411,
            "contract": "contracts/LaborGrounds.sol:LaborGrounds",
            "label": "animalId",
            "offset": 28,
            "slot": "0",
            "type": "t_uint32"
          },
          {
            "astId": 11413,
            "contract": "contracts/LaborGrounds.sol:LaborGrounds",
            "label": "requestId",
            "offset": 0,
            "slot": "1",
            "type": "t_uint256"
          },
          {
            "astId": 11416,
            "contract": "contracts/LaborGrounds.sol:LaborGrounds",
            "label": "job",
            "offset": 0,
            "slot": "2",
            "type": "t_enum(Jobs)11459"
          }
        ],
        "numberOfBytes": "96"
      },
      "t_uint256": {
        "encoding": "inplace",
        "label": "uint256",
        "numberOfBytes": "32"
      },
      "t_uint32": {
        "encoding": "inplace",
        "label": "uint32",
        "numberOfBytes": "4"
      },
      "t_uint8": {
        "encoding": "inplace",
        "label": "uint8",
        "numberOfBytes": "1"
      }
    }
  }
}