{
  "address": "0x61Eb657D99D7897fC8169EF45B6C374529c85F51",
  "abi": [
    {
      "inputs": [],
      "name": "CannotClaimNow",
      "type": "error"
    },
    {
      "inputs": [],
      "name": "CsToHigh",
      "type": "error"
    },
    {
      "inputs": [],
      "name": "DevelopmentGroundIsLocked",
      "type": "error"
    },
    {
      "inputs": [],
      "name": "InvalidTokenForThisJob",
      "type": "error"
    },
    {
      "inputs": [],
      "name": "LengthsNotEqual",
      "type": "error"
    },
    {
      "inputs": [],
      "name": "NewOwnerIsZeroAddress",
      "type": "error"
    },
    {
      "inputs": [],
      "name": "NoHandoverRequest",
      "type": "error"
    },
    {
      "inputs": [],
      "name": "NoMoreAnimalsAllowed",
      "type": "error"
    },
    {
      "inputs": [],
      "name": "NotYourToken",
      "type": "error"
    },
    {
      "inputs": [],
      "name": "TokenIsStaked",
      "type": "error"
    },
    {
      "inputs": [],
      "name": "Unauthorized",
      "type": "error"
    },
    {
      "anonymous": false,
      "inputs": [
        {
          "indexed": true,
          "internalType": "address",
          "name": "owner",
          "type": "address"
        },
        {
          "indexed": true,
          "internalType": "uint256",
          "name": "tokenId",
          "type": "uint256"
        },
        {
          "indexed": true,
          "internalType": "uint256",
          "name": "animalsId",
          "type": "uint256"
        }
      ],
      "name": "BringInAnimalsToLaborGround",
      "type": "event"
    },
    {
      "anonymous": false,
      "inputs": [
        {
          "indexed": true,
          "internalType": "address",
          "name": "owner",
          "type": "address"
        },
        {
          "indexed": true,
          "internalType": "uint256",
          "name": "tokenId",
          "type": "uint256"
        }
      ],
      "name": "ClaimCollectable",
      "type": "event"
    },
    {
      "anonymous": false,
      "inputs": [
        {
          "indexed": true,
          "internalType": "address",
          "name": "owner",
          "type": "address"
        },
        {
          "indexed": true,
          "internalType": "uint256",
          "name": "tokenId",
          "type": "uint256"
        },
        {
          "indexed": true,
          "internalType": "uint256",
          "name": "supplyId",
          "type": "uint256"
        },
        {
          "indexed": false,
          "internalType": "enum Jobs",
          "name": "job",
          "type": "uint8"
        }
      ],
      "name": "EnterLaborGround",
      "type": "event"
    },
    {
      "anonymous": false,
      "inputs": [
        {
          "indexed": false,
          "internalType": "uint8",
          "name": "version",
          "type": "uint8"
        }
      ],
      "name": "Initialized",
      "type": "event"
    },
    {
      "anonymous": false,
      "inputs": [
        {
          "indexed": true,
          "internalType": "address",
          "name": "owner",
          "type": "address"
        },
        {
          "indexed": true,
          "internalType": "uint256",
          "name": "tokenId",
          "type": "uint256"
        }
      ],
      "name": "LeaveLaborGround",
      "type": "event"
    },
    {
      "anonymous": false,
      "inputs": [
        {
          "indexed": true,
          "internalType": "address",
          "name": "pendingOwner",
          "type": "address"
        }
      ],
      "name": "OwnershipHandoverCanceled",
      "type": "event"
    },
    {
      "anonymous": false,
      "inputs": [
        {
          "indexed": true,
          "internalType": "address",
          "name": "pendingOwner",
          "type": "address"
        }
      ],
      "name": "OwnershipHandoverRequested",
      "type": "event"
    },
    {
      "anonymous": false,
      "inputs": [
        {
          "indexed": true,
          "internalType": "address",
          "name": "oldOwner",
          "type": "address"
        },
        {
          "indexed": true,
          "internalType": "address",
          "name": "newOwner",
          "type": "address"
        }
      ],
      "name": "OwnershipTransferred",
      "type": "event"
    },
    {
      "anonymous": false,
      "inputs": [
        {
          "indexed": true,
          "internalType": "address",
          "name": "owner",
          "type": "address"
        },
        {
          "indexed": true,
          "internalType": "uint256",
          "name": "tokenId",
          "type": "uint256"
        },
        {
          "indexed": true,
          "internalType": "uint256",
          "name": "animalsId",
          "type": "uint256"
        }
      ],
      "name": "RemoveAnimalsFromLaborGround",
      "type": "event"
    },
    {
      "inputs": [],
      "name": "animals",
      "outputs": [
        {
          "internalType": "contract IERC1155Upgradeable",
          "name": "",
          "type": "address"
        }
      ],
      "stateMutability": "view",
      "type": "function"
    },
    {
      "inputs": [
        {
          "internalType": "uint256[]",
          "name": "_tokenId",
          "type": "uint256[]"
        },
        {
          "internalType": "uint256[]",
          "name": "_animalsId",
          "type": "uint256[]"
        }
      ],
      "name": "bringInAnimalsToLaborGround",
      "outputs": [],
      "stateMutability": "nonpayable",
      "type": "function"
    },
    {
      "inputs": [],
      "name": "cancelOwnershipHandover",
      "outputs": [],
      "stateMutability": "payable",
      "type": "function"
    },
    {
      "inputs": [
        {
          "internalType": "uint256[]",
          "name": "_tokenId",
          "type": "uint256[]"
        }
      ],
      "name": "claimCollectables",
      "outputs": [],
      "stateMutability": "nonpayable",
      "type": "function"
    },
    {
      "inputs": [
        {
          "internalType": "address",
          "name": "pendingOwner",
          "type": "address"
        }
      ],
      "name": "completeOwnershipHandover",
      "outputs": [],
      "stateMutability": "payable",
      "type": "function"
    },
    {
      "inputs": [],
      "name": "consumables",
      "outputs": [
        {
          "internalType": "contract IConsumables",
          "name": "",
          "type": "address"
        }
      ],
      "stateMutability": "view",
      "type": "function"
    },
    {
      "inputs": [
        {
          "internalType": "uint256[]",
          "name": "_tokenId",
          "type": "uint256[]"
        },
        {
          "internalType": "uint256[]",
          "name": "_supplyId",
          "type": "uint256[]"
        },
        {
          "internalType": "enum Jobs[]",
          "name": "_job",
          "type": "uint8[]"
        }
      ],
      "name": "enterLaborGround",
      "outputs": [],
      "stateMutability": "nonpayable",
      "type": "function"
    },
    {
      "inputs": [
        {
          "internalType": "address",
          "name": "_owner",
          "type": "address"
        }
      ],
      "name": "getLaborGroundFeInfo",
      "outputs": [
        {
          "components": [
            {
              "internalType": "uint128",
              "name": "tokenId",
              "type": "uint128"
            },
            {
              "internalType": "uint128",
              "name": "timeLeft",
              "type": "uint128"
            }
          ],
          "internalType": "struct LaborGroundFeInfo[]",
          "name": "",
          "type": "tuple[]"
        }
      ],
      "stateMutability": "view",
      "type": "function"
    },
    {
      "inputs": [
        {
          "internalType": "uint256",
          "name": "_tokenId",
          "type": "uint256"
        }
      ],
      "name": "getLaborGroundInfo",
      "outputs": [
        {
          "components": [
            {
              "internalType": "address",
              "name": "owner",
              "type": "address"
            },
            {
              "internalType": "uint32",
              "name": "lockTime",
              "type": "uint32"
            },
            {
              "internalType": "uint32",
              "name": "supplyId",
              "type": "uint32"
            },
            {
              "internalType": "uint32",
              "name": "animalId",
              "type": "uint32"
            },
            {
              "internalType": "uint256",
              "name": "requestId",
              "type": "uint256"
            },
            {
              "internalType": "enum Jobs",
              "name": "job",
              "type": "uint8"
            }
          ],
          "internalType": "struct LaborGround",
          "name": "lg",
          "type": "tuple"
        }
      ],
      "stateMutability": "view",
      "type": "function"
    },
    {
      "inputs": [
        {
          "internalType": "address",
          "name": "_owner",
          "type": "address"
        }
      ],
      "name": "getStakedTokens",
      "outputs": [
        {
          "internalType": "uint256[]",
          "name": "",
          "type": "uint256[]"
        }
      ],
      "stateMutability": "view",
      "type": "function"
    },
    {
      "inputs": [
        {
          "internalType": "address",
          "name": "_pits",
          "type": "address"
        },
        {
          "internalType": "address",
          "name": "_animals",
          "type": "address"
        },
        {
          "internalType": "address",
          "name": "_supplies",
          "type": "address"
        },
        {
          "internalType": "address",
          "name": "_consumables",
          "type": "address"
        },
        {
          "internalType": "address",
          "name": "_neandersmol",
          "type": "address"
        },
        {
          "internalType": "address",
          "name": "_randomizer",
          "type": "address"
        }
      ],
      "name": "initialize",
      "outputs": [],
      "stateMutability": "nonpayable",
      "type": "function"
    },
    {
      "inputs": [
        {
          "internalType": "uint256[]",
          "name": "_tokenId",
          "type": "uint256[]"
        }
      ],
      "name": "leaveLaborGround",
      "outputs": [],
      "stateMutability": "nonpayable",
      "type": "function"
    },
    {
      "inputs": [],
      "name": "neandersmol",
      "outputs": [
        {
          "internalType": "contract INeandersmol",
          "name": "",
          "type": "address"
        }
      ],
      "stateMutability": "view",
      "type": "function"
    },
    {
      "inputs": [
        {
          "internalType": "address",
          "name": "",
          "type": "address"
        },
        {
          "internalType": "address",
          "name": "",
          "type": "address"
        },
        {
          "internalType": "uint256",
          "name": "",
          "type": "uint256"
        },
        {
          "internalType": "uint256",
          "name": "",
          "type": "uint256"
        },
        {
          "internalType": "bytes",
          "name": "",
          "type": "bytes"
        }
      ],
      "name": "onERC1155Received",
      "outputs": [
        {
          "internalType": "bytes4",
          "name": "",
          "type": "bytes4"
        }
      ],
      "stateMutability": "pure",
      "type": "function"
    },
    {
      "inputs": [],
      "name": "owner",
      "outputs": [
        {
          "internalType": "address",
          "name": "result",
          "type": "address"
        }
      ],
      "stateMutability": "view",
      "type": "function"
    },
    {
      "inputs": [
        {
          "internalType": "address",
          "name": "pendingOwner",
          "type": "address"
        }
      ],
      "name": "ownershipHandoverExpiresAt",
      "outputs": [
        {
          "internalType": "uint256",
          "name": "result",
          "type": "uint256"
        }
      ],
      "stateMutability": "view",
      "type": "function"
    },
    {
      "inputs": [],
      "name": "ownershipHandoverValidFor",
      "outputs": [
        {
          "internalType": "uint64",
          "name": "",
          "type": "uint64"
        }
      ],
      "stateMutability": "view",
      "type": "function"
    },
    {
      "inputs": [],
      "name": "pits",
      "outputs": [
        {
          "internalType": "contract IPits",
          "name": "",
          "type": "address"
        }
      ],
      "stateMutability": "view",
      "type": "function"
    },
    {
      "inputs": [
        {
          "internalType": "uint256[]",
          "name": "_tokenId",
          "type": "uint256[]"
        },
        {
          "internalType": "uint256[]",
          "name": "_animalsId",
          "type": "uint256[]"
        }
      ],
      "name": "removeAnimalsFromLaborGround",
      "outputs": [],
      "stateMutability": "nonpayable",
      "type": "function"
    },
    {
      "inputs": [],
      "name": "renounceOwnership",
      "outputs": [],
      "stateMutability": "payable",
      "type": "function"
    },
    {
      "inputs": [],
      "name": "requestOwnershipHandover",
      "outputs": [],
      "stateMutability": "payable",
      "type": "function"
    },
    {
      "inputs": [
        {
          "internalType": "address",
          "name": "_pits",
          "type": "address"
        },
        {
          "internalType": "address",
          "name": "_animals",
          "type": "address"
        },
        {
          "internalType": "address",
          "name": "_supplies",
          "type": "address"
        },
        {
          "internalType": "address",
          "name": "_consumables",
          "type": "address"
        },
        {
          "internalType": "address",
          "name": "_neandersmol",
          "type": "address"
        },
        {
          "internalType": "address",
          "name": "_randomizer",
          "type": "address"
        }
      ],
      "name": "setAddress",
      "outputs": [],
      "stateMutability": "nonpayable",
      "type": "function"
    },
    {
      "inputs": [],
      "name": "supplies",
      "outputs": [
        {
          "internalType": "contract IERC1155Upgradeable",
          "name": "",
          "type": "address"
        }
      ],
      "stateMutability": "view",
      "type": "function"
    },
    {
      "inputs": [
        {
          "internalType": "address",
          "name": "newOwner",
          "type": "address"
        }
      ],
      "name": "transferOwnership",
      "outputs": [],
      "stateMutability": "payable",
      "type": "function"
    }
  ],
  "transactionHash": "0xf9fc7d31b601617b8890e061a9328569cd5f417ecd1f2d9bb27f76f4a948cc5b",
  "args": [],
  "numDeployments": 3,
  "solcInputHash": "44aa44b11617197f9a7ac7500ebd907b",
  "bytecode": "0x608060405234801561001057600080fd5b50613df6806100206000396000f3fe60806040526004361061014b5760003560e01c8063b00bec65116100b6578063e95252441161006f578063e95252441461041d578063f04e283e14610448578063f23a6e6114610464578063f2fde38b146104a1578063fda72552146104bd578063fee81cf4146104e65761014b565b8063b00bec651461030f578063b3259e141461033a578063bd69b15714610377578063cc2a9a5b146103a0578063d4053d5b146103c9578063d7533f02146103f25761014b565b80637fd4bfd5116101085780637fd4bfd5146102115780638da5cb5b1461023c5780638efa88741461026757806390528e11146102925780639426dba2146102bd5780639c1a2678146102e65761014b565b8063256929621461015057806354d1f13d1461015a57806363c28db1146101645780636addfe57146101a157806370914034146101de578063715018a614610207575b600080fd5b610158610523565b005b610162610577565b005b34801561017057600080fd5b5061018b60048036038101906101869190612dbb565b6105b3565b6040516101989190612eb0565b60405180910390f35b3480156101ad57600080fd5b506101c860048036038101906101c39190612dbb565b61064a565b6040516101d59190612fdb565b60405180910390f35b3480156101ea57600080fd5b5061020560048036038101906102009190613062565b610864565b005b61020f610bf7565b005b34801561021d57600080fd5b50610226610c0b565b6040516102339190613142565b60405180910390f35b34801561024857600080fd5b50610251610c31565b60405161025e919061316c565b60405180910390f35b34801561027357600080fd5b5061027c610c3f565b60405161028991906131a8565b60405180910390f35b34801561029e57600080fd5b506102a7610c65565b6040516102b491906131e4565b60405180910390f35b3480156102c957600080fd5b506102e460048036038101906102df9190613062565b610c8b565b005b3480156102f257600080fd5b5061030d60048036038101906103089190613255565b610ee0565b005b34801561031b57600080fd5b5061032461165b565b604051610331919061332a565b60405180910390f35b34801561034657600080fd5b50610361600480360381019061035c9190613371565b611681565b60405161036e91906134be565b60405180910390f35b34801561038357600080fd5b5061039e600480360381019061039991906134d9565b611928565b005b3480156103ac57600080fd5b506103c760048036038101906103c29190613526565b61196e565b005b3480156103d557600080fd5b506103f060048036038101906103eb91906134d9565b611ac1565b005b3480156103fe57600080fd5b50610407611f59565b60405161041491906135d6565b60405180910390f35b34801561042957600080fd5b50610432611f64565b60405161043f91906131a8565b60405180910390f35b610462600480360381019061045d9190612dbb565b611f8a565b005b34801561047057600080fd5b5061048b60048036038101906104869190613647565b611fcb565b604051610498919061371c565b60405180910390f35b6104bb60048036038101906104b69190612dbb565b611fe1565b005b3480156104c957600080fd5b506104e460048036038101906104df9190613526565b61200b565b005b3480156104f257600080fd5b5061050d60048036038101906105089190612dbb565b6121a1565b60405161051a9190613746565b60405180910390f35b600061052d611f59565b67ffffffffffffffff164201905063389a75e1600c5233600052806020600c2055337fdbf36a107da19e49527a7176a1babf963b4b0ff8cde35ee35d6cd8f1f9ac7e1d600080a250565b63389a75e1600c523360005260006020600c2055337ffa7b8eab7da67f412cc9575ed43464468f9bfbae89d1675917346ca6d8fe3c92600080a2565b6060600760008373ffffffffffffffffffffffffffffffffffffffff1673ffffffffffffffffffffffffffffffffffffffff16815260200190815260200160002080548060200260200160405190810160405280929190818152602001828054801561063e57602002820191906000526020600020905b81548152602001906001019080831161062a575b50505050509050919050565b60606000600760008473ffffffffffffffffffffffffffffffffffffffff1673ffffffffffffffffffffffffffffffffffffffff1681526020019081526020016000208054806020026020016040519081016040528092919081815260200182805480156106d757602002820191906000526020600020905b8154815260200190600101908083116106c3575b505050505090506000815167ffffffffffffffff8111156106fb576106fa613761565b5b60405190808252806020026020018201604052801561073457816020015b610721612ca5565b8152602001906001900390816107195790505b50905060005b825181101561085957600061076884838151811061075b5761075a613790565b5b6020026020010151611681565b602001516203f48061077a91906137ee565b63ffffffff16421061078d5760006107d4565b6107b08483815181106107a3576107a2613790565b5b6020026020010151611681565b6020015163ffffffff16426107c59190613826565b6203f4806107d39190613826565b5b905060405180604001604052808584815181106107f4576107f3613790565b5b60200260200101516fffffffffffffffffffffffffffffffff168152602001826fffffffffffffffffffffffffffffffff1681525083838151811061083c5761083b613790565b5b602002602001018190525050806108529061385a565b905061073a565b819350505050919050565b610870848484846121bc565b60005b84849050811015610bf057600083838381811061089357610892613790565b5b9050602002013590506000600660008888868181106108b5576108b4613790565b5b9050602002013581526020019081526020016000206040518060c00160405290816000820160009054906101000a900473ffffffffffffffffffffffffffffffffffffffff1673ffffffffffffffffffffffffffffffffffffffff1673ffffffffffffffffffffffffffffffffffffffff1681526020016000820160149054906101000a900463ffffffff1663ffffffff1663ffffffff1681526020016000820160189054906101000a900463ffffffff1663ffffffff1663ffffffff16815260200160008201601c9054906101000a900463ffffffff1663ffffffff1663ffffffff168152602001600182015481526020016002820160009054906101000a900460ff1660028111156109cc576109cb6133cc565b5b60028111156109de576109dd6133cc565b5b8152505090503373ffffffffffffffffffffffffffffffffffffffff16816000015173ffffffffffffffffffffffffffffffffffffffff1614610a4d576040517f091fe61c00000000000000000000000000000000000000000000000000000000815260040160405180910390fd5b6000816060015163ffffffff1614610a91576040517f8dca9f6400000000000000000000000000000000000000000000000000000000815260040160405180910390fd5b600460009054906101000a900473ffffffffffffffffffffffffffffffffffffffff1673ffffffffffffffffffffffffffffffffffffffff1663f242432a33308560016040518563ffffffff1660e01b8152600401610af39493929190613914565b600060405180830381600087803b158015610b0d57600080fd5b505af1158015610b21573d6000803e3d6000fd5b50505050600182610b3291906137ee565b60066000898987818110610b4957610b48613790565b5b905060200201358152602001908152602001600020600001601c6101000a81548163ffffffff021916908363ffffffff16021790555081878785818110610b9357610b92613790565b5b905060200201353373ffffffffffffffffffffffffffffffffffffffff167f085b924bab9c71a3a17b45cf23191479522f5088263b5d8e87eb68f16ac1a0a860405160405180910390a4505080610be99061385a565b9050610873565b5050505050565b610bff612201565b610c09600061221e565b565b600060029054906101000a900473ffffffffffffffffffffffffffffffffffffffff1681565b6000638b78c6d81954905090565b600560009054906101000a900473ffffffffffffffffffffffffffffffffffffffff1681565b600260009054906101000a900473ffffffffffffffffffffffffffffffffffffffff1681565b610c97848484846121bc565b60005b84849050811015610ed9576000838383818110610cba57610cb9613790565b5b905060200201359050600060066000888886818110610cdc57610cdb613790565b5b90506020020135815260200190815260200160002090503373ffffffffffffffffffffffffffffffffffffffff168160000160009054906101000a900473ffffffffffffffffffffffffffffffffffffffff1673ffffffffffffffffffffffffffffffffffffffff1614158015610d795750600182610d5b919061396c565b81600001601c9054906101000a900463ffffffff1663ffffffff1614155b15610db0576040517f091fe61c00000000000000000000000000000000000000000000000000000000815260040160405180910390fd5b600081600001601c6101000a81548163ffffffff021916908363ffffffff160217905550600460009054906101000a900473ffffffffffffffffffffffffffffffffffffffff1673ffffffffffffffffffffffffffffffffffffffff1663f242432a30338560016040518563ffffffff1660e01b8152600401610e369493929190613914565b600060405180830381600087803b158015610e5057600080fd5b505af1158015610e64573d6000803e3d6000fd5b5050505081878785818110610e7c57610e7b613790565b5b905060200201353373ffffffffffffffffffffffffffffffffffffffff167f7db14b2c864954e7ddaa6550066e524715079a7e4e01a90e1011e357bbc10c6960405160405180910390a4505080610ed29061385a565b9050610c9a565b5050505050565b610f0b600060029054906101000a900473ffffffffffffffffffffffffffffffffffffffff1661225c565b610f17868686866121bc565b818190508484905014610f56576040517f22cb666100000000000000000000000000000000000000000000000000000000815260040160405180910390fd5b60005b8686905081101561165257600080888884818110610f7a57610f79613790565b5b90506020020135878785818110610f9457610f93613790565b5b90506020020135915091506000600660008481526020019081526020016000209050600360009054906101000a900473ffffffffffffffffffffffffffffffffffffffff1673ffffffffffffffffffffffffffffffffffffffff16635e1bef32846040518263ffffffff1660e01b81526004016110119190613746565b602060405180830381865afa15801561102e573d6000803e3d6000fd5b505050506040513d601f19601f8201168201806040525081019061105291906139d8565b15611089576040517f3899ae3600000000000000000000000000000000000000000000000000000000815260040160405180910390fd5b3373ffffffffffffffffffffffffffffffffffffffff16600360009054906101000a900473ffffffffffffffffffffffffffffffffffffffff1673ffffffffffffffffffffffffffffffffffffffff16636352211e856040518263ffffffff1660e01b81526004016110fb9190613746565b602060405180830381865afa158015611118573d6000803e3d6000fd5b505050506040513d601f19601f8201168201806040525081019061113c9190613a1a565b73ffffffffffffffffffffffffffffffffffffffff1614611189576040517f091fe61c00000000000000000000000000000000000000000000000000000000815260040160405180910390fd5b6063600360009054906101000a900473ffffffffffffffffffffffffffffffffffffffff1673ffffffffffffffffffffffffffffffffffffffff1663f822a5b2856040518263ffffffff1660e01b81526004016111e69190613746565b602060405180830381865afa158015611203573d6000803e3d6000fd5b505050506040513d601f19601f820116820180604052508101906112279190613a5c565b111561125f576040517fc0b81fcd00000000000000000000000000000000000000000000000000000000815260040160405180910390fd5b6112908287878781811061127657611275613790565b5b905060200201602081019061128b9190613aae565b612304565b6112c6576040517f3189b2eb00000000000000000000000000000000000000000000000000000000815260040160405180910390fd5b600560009054906101000a900473ffffffffffffffffffffffffffffffffffffffff1673ffffffffffffffffffffffffffffffffffffffff1663f242432a33308560016040518563ffffffff1660e01b81526004016113289493929190613914565b600060405180830381600087803b15801561134257600080fd5b505af1158015611356573d6000803e3d6000fd5b50505050600360009054906101000a900473ffffffffffffffffffffffffffffffffffffffff1673ffffffffffffffffffffffffffffffffffffffff166337bf06a68460016040518363ffffffff1660e01b81526004016113b8929190613aea565b600060405180830381600087803b1580156113d257600080fd5b505af11580156113e6573d6000803e3d6000fd5b50505050338160000160006101000a81548173ffffffffffffffffffffffffffffffffffffffff021916908373ffffffffffffffffffffffffffffffffffffffff160217905550428160000160146101000a81548163ffffffff021916908363ffffffff160217905550818160000160186101000a81548163ffffffff021916908363ffffffff16021790555085858581811061148657611485613790565b5b905060200201602081019061149b9190613aae565b8160020160006101000a81548160ff021916908360028111156114c1576114c06133cc565b5b0217905550600160009054906101000a900473ffffffffffffffffffffffffffffffffffffffff1673ffffffffffffffffffffffffffffffffffffffff16638678a7b26040518163ffffffff1660e01b81526004016020604051808303816000875af1158015611535573d6000803e3d6000fd5b505050506040513d601f19601f820116820180604052508101906115599190613a5c565b8160010181905550600760003373ffffffffffffffffffffffffffffffffffffffff1673ffffffffffffffffffffffffffffffffffffffff16815260200190815260200160002083908060018154018082558091505060019003906000526020600020016000909190919091505581833373ffffffffffffffffffffffffffffffffffffffff167faf1d047d6158df0c7beade7a6810e77e0817265bf671190ebad2b03dd889a2b289898981811061161457611613613790565b5b90506020020160208101906116299190613aae565b6040516116369190613b22565b60405180910390a45050508061164b9061385a565b9050610f59565b50505050505050565b600360009054906101000a900473ffffffffffffffffffffffffffffffffffffffff1681565b611689612ce3565b600660008381526020019081526020016000206040518060c00160405290816000820160009054906101000a900473ffffffffffffffffffffffffffffffffffffffff1673ffffffffffffffffffffffffffffffffffffffff1673ffffffffffffffffffffffffffffffffffffffff1681526020016000820160149054906101000a900463ffffffff1663ffffffff1663ffffffff1681526020016000820160189054906101000a900463ffffffff1663ffffffff1663ffffffff16815260200160008201601c9054906101000a900463ffffffff1663ffffffff1663ffffffff168152602001600182015481526020016002820160009054906101000a900460ff16600281111561179e5761179d6133cc565b5b60028111156117b0576117af6133cc565b5b8152505090506000816060015163ffffffff16036118fa57600660008381526020019081526020016000206040518060c00160405290816000820160009054906101000a900473ffffffffffffffffffffffffffffffffffffffff1673ffffffffffffffffffffffffffffffffffffffff1673ffffffffffffffffffffffffffffffffffffffff1681526020016000820160149054906101000a900463ffffffff1663ffffffff1663ffffffff1681526020016000820160189054906101000a900463ffffffff1663ffffffff1663ffffffff16815260200160008201601c9054906101000a900463ffffffff1663ffffffff1663ffffffff168152602001600182015481526020016002820160009054906101000a900460ff1660028111156118dd576118dc6133cc565b5b60028111156118ef576118ee6133cc565b5b815250509050611923565b60018160600181815161190d9190613b3d565b91509063ffffffff16908163ffffffff16815250505b919050565b60005b828290508110156119695761195883838381811061194c5761194b613790565b5b905060200201356123b0565b806119629061385a565b905061192b565b505050565b60008060019054906101000a900460ff1615905080801561199f5750600160008054906101000a900460ff1660ff16105b806119cc57506119ae306126df565b1580156119cb5750600160008054906101000a900460ff1660ff16145b5b611a0b576040517f08c379a0000000000000000000000000000000000000000000000000000000008152600401611a0290613bf8565b60405180910390fd5b60016000806101000a81548160ff021916908360ff1602179055508015611a48576001600060016101000a81548160ff0219169083151502179055505b611a5133612702565b611a5f87878787878761200b565b8015611ab85760008060016101000a81548160ff0219169083151502179055507f7f26b83ff96e1f2b6a682f133852f6798a09c465da95921460cefb38474024986001604051611aaf9190613c56565b60405180910390a15b50505050505050565b60005b82829050811015611f54576000838383818110611ae457611ae3613790565b5b905060200201359050611af6816123b0565b6000600660008381526020019081526020016000206040518060c00160405290816000820160009054906101000a900473ffffffffffffffffffffffffffffffffffffffff1673ffffffffffffffffffffffffffffffffffffffff1673ffffffffffffffffffffffffffffffffffffffff1681526020016000820160149054906101000a900463ffffffff1663ffffffff1663ffffffff1681526020016000820160189054906101000a900463ffffffff1663ffffffff1663ffffffff16815260200160008201601c9054906101000a900463ffffffff1663ffffffff1663ffffffff168152602001600182015481526020016002820160009054906101000a900460ff166002811115611c0d57611c0c6133cc565b5b6002811115611c1f57611c1e6133cc565b5b81525050905060066000838152602001908152602001600020600080820160006101000a81549073ffffffffffffffffffffffffffffffffffffffff02191690556000820160146101000a81549063ffffffff02191690556000820160186101000a81549063ffffffff021916905560008201601c6101000a81549063ffffffff021916905560018201600090556002820160006101000a81549060ff02191690555050611d0b600760003373ffffffffffffffffffffffffffffffffffffffff1673ffffffffffffffffffffffffffffffffffffffff1681526020019081526020016000208361273e565b6000816060015163ffffffff1614611dc257600460009054906101000a900473ffffffffffffffffffffffffffffffffffffffff1673ffffffffffffffffffffffffffffffffffffffff1663f242432a303360018560600151611d6e9190613b3d565b60016040518563ffffffff1660e01b8152600401611d8f9493929190613ca2565b600060405180830381600087803b158015611da957600080fd5b505af1158015611dbd573d6000803e3d6000fd5b505050505b6000816040015163ffffffff1614611e6d57600560009054906101000a900473ffffffffffffffffffffffffffffffffffffffff1673ffffffffffffffffffffffffffffffffffffffff1663f242432a3033846040015160016040518563ffffffff1660e01b8152600401611e3a9493929190613ca2565b600060405180830381600087803b158015611e5457600080fd5b505af1158015611e68573d6000803e3d6000fd5b505050505b600360009054906101000a900473ffffffffffffffffffffffffffffffffffffffff1673ffffffffffffffffffffffffffffffffffffffff166337bf06a68360006040518363ffffffff1660e01b8152600401611ecb929190613aea565b600060405180830381600087803b158015611ee557600080fd5b505af1158015611ef9573d6000803e3d6000fd5b50505050813373ffffffffffffffffffffffffffffffffffffffff167f829b142282bbe71c01b98e565ed26a8cc7cdc9446201b49bf41b184efa57ed5960405160405180910390a3505080611f4d9061385a565b9050611ac4565b505050565b60006202a300905090565b600460009054906101000a900473ffffffffffffffffffffffffffffffffffffffff1681565b611f92612201565b63389a75e1600c52806000526020600c208054421115611fba57636f5e88186000526004601cfd5b6000815550611fc88161221e565b50565b600063f23a6e6160e01b90509695505050505050565b611fe9612201565b8060601b611fff57637448fbae6000526004601cfd5b6120088161221e565b50565b612013612201565b84600460006101000a81548173ffffffffffffffffffffffffffffffffffffffff021916908373ffffffffffffffffffffffffffffffffffffffff16021790555085600060026101000a81548173ffffffffffffffffffffffffffffffffffffffff021916908373ffffffffffffffffffffffffffffffffffffffff16021790555083600560006101000a81548173ffffffffffffffffffffffffffffffffffffffff021916908373ffffffffffffffffffffffffffffffffffffffff16021790555080600160006101000a81548173ffffffffffffffffffffffffffffffffffffffff021916908373ffffffffffffffffffffffffffffffffffffffff16021790555082600260006101000a81548173ffffffffffffffffffffffffffffffffffffffff021916908373ffffffffffffffffffffffffffffffffffffffff16021790555081600360006101000a81548173ffffffffffffffffffffffffffffffffffffffff021916908373ffffffffffffffffffffffffffffffffffffffff160217905550505050505050565b600063389a75e1600c52816000526020600c20549050919050565b8181905084849050146121fb576040517f22cb666100000000000000000000000000000000000000000000000000000000815260040160405180910390fd5b50505050565b638b78c6d81954331461221c576382b429006000526004601cfd5b565b638b78c6d8198160601b60601c91508181547f8be0079c531659141344cd1fd0a4f28419497f9722a3daafe3b4186f6b6457e0600080a38181555050565b8073ffffffffffffffffffffffffffffffffffffffff1663ae4b37e46040518163ffffffff1660e01b8152600401602060405180830381865afa1580156122a7573d6000803e3d6000fd5b505050506040513d601f19601f820116820180604052508101906122cb91906139d8565b612301576040517f288de97200000000000000000000000000000000000000000000000000000000815260040160405180910390fd5b50565b6000806002811115612319576123186133cc565b5b82600281111561232c5761232b6133cc565b5b0361233c576001831490506123aa565b600160028111156123505761234f6133cc565b5b826002811115612363576123626133cc565b5b03612373576002831490506123aa565b600280811115612386576123856133cc565b5b826002811115612399576123986133cc565b5b036123a9576003831490506123aa565b5b92915050565b60006006600083815260200190815260200160002090508060000160009054906101000a900473ffffffffffffffffffffffffffffffffffffffff1673ffffffffffffffffffffffffffffffffffffffff163373ffffffffffffffffffffffffffffffffffffffff1614612450576040517f091fe61c00000000000000000000000000000000000000000000000000000000815260040160405180910390fd5b6203f4808160000160149054906101000a900463ffffffff1661247391906137ee565b63ffffffff164210156124b2576040517f5488a9fc00000000000000000000000000000000000000000000000000000000815260040160405180910390fd5b60006125d683836040518060c00160405290816000820160009054906101000a900473ffffffffffffffffffffffffffffffffffffffff1673ffffffffffffffffffffffffffffffffffffffff1673ffffffffffffffffffffffffffffffffffffffff1681526020016000820160149054906101000a900463ffffffff1663ffffffff1663ffffffff1681526020016000820160189054906101000a900463ffffffff1663ffffffff1663ffffffff16815260200160008201601c9054906101000a900463ffffffff1663ffffffff1663ffffffff168152602001600182015481526020016002820160009054906101000a900460ff1660028111156125bb576125ba6133cc565b5b60028111156125cd576125cc6133cc565b5b815250506127fc565b90506000811461267357600260009054906101000a900473ffffffffffffffffffffffffffffffffffffffff1673ffffffffffffffffffffffffffffffffffffffff1663156e29f6338360016040518463ffffffff1660e01b815260040161264093929190613cfa565b600060405180830381600087803b15801561265a57600080fd5b505af115801561266e573d6000803e3d6000fd5b505050505b428260000160146101000a81548163ffffffff021916908363ffffffff160217905550823373ffffffffffffffffffffffffffffffffffffffff167f5a0db36dd607437cb4689c3ac30ccb5940e032dab1c80eefe397f5f43202b34e60405160405180910390a3505050565b6000808273ffffffffffffffffffffffffffffffffffffffff163b119050919050565b8060601b60601c905080638b78c6d819558060007f8be0079c531659141344cd1fd0a4f28419497f9722a3daafe3b4186f6b6457e0600080a350565b60005b82805490508110156127f7578183828154811061276157612760613790565b5b9060005260206000200154036127ec5782600184805490506127839190613826565b8154811061279457612793613790565b5b90600052602060002001548382815481106127b2576127b1613790565b5b9060005260206000200181905550828054806127d1576127d0613d31565b5b600190038181906000526020600020016000905590556127f7565b806001019050612741565b505050565b6000806065600160009054906101000a900473ffffffffffffffffffffffffffffffffffffffff1673ffffffffffffffffffffffffffffffffffffffff16634ad30a7585608001516040518263ffffffff1660e01b81526004016128609190613746565b602060405180830381865afa15801561287d573d6000803e3d6000fd5b505050506040513d601f19601f820116820180604052508101906128a19190613a5c565b6128ab9190613d8f565b90506000836060015163ffffffff16905060008060006128ce8760a00151612a6d565b915091506000806000860361291657603d8710156128ee57839450612915565b603c871180156128fe5750605187105b1561290b57829450612914565b60039150600290505b5b5b6001860361295757604287101561292f57839450612956565b60428711801561293f5750605687105b1561294c57829450612955565b60109150600590505b5b5b6002860361299857604287101561297057839450612997565b6041871180156129805750606087105b1561298d57829450612996565b600b9150600690505b5b5b600386036129d95760478710156129b1578394506129d8565b6046871180156129c15750606087105b156129ce578294506129d7565b60069150600190505b5b5b600082141580156129eb575060008114155b15612a0c57612a0b8a8a6040015163ffffffff1684848d60800151612b1f565b5b60048603612a275760478710612a225782612a24565b835b94505b60058603612a425760428710612a3d5782612a3f565b835b94505b60068603612a5d57603d8710612a585782612a5a565b835b94505b8497505050505050505092915050565b60008060006002811115612a8457612a836133cc565b5b836002811115612a9757612a966133cc565b5b03612aa9576001600480925081935050505b60016002811115612abd57612abc6133cc565b5b836002811115612ad057612acf6133cc565b5b03612ae2576002600580925081935050505b600280811115612af557612af46133cc565b5b836002811115612b0857612b076133cc565b5b03612b1a576003600680925081935050505b915091565b600083600160009054906101000a900473ffffffffffffffffffffffffffffffffffffffff1673ffffffffffffffffffffffffffffffffffffffff16634ad30a75846040518263ffffffff1660e01b8152600401612b7d9190613746565b602060405180830381865afa158015612b9a573d6000803e3d6000fd5b505050506040513d601f19601f82011682018060405250810190612bbe9190613a5c565b612bc89190613d8f565b905082811015612c9d57600560009054906101000a900473ffffffffffffffffffffffffffffffffffffffff1673ffffffffffffffffffffffffffffffffffffffff1663f242432a30338860016040518563ffffffff1660e01b8152600401612c349493929190613914565b600060405180830381600087803b158015612c4e57600080fd5b505af1158015612c62573d6000803e3d6000fd5b5050505060006006600088815260200190815260200160002060000160186101000a81548163ffffffff021916908363ffffffff1602179055505b505050505050565b604051806040016040528060006fffffffffffffffffffffffffffffffff16815260200160006fffffffffffffffffffffffffffffffff1681525090565b6040518060c00160405280600073ffffffffffffffffffffffffffffffffffffffff168152602001600063ffffffff168152602001600063ffffffff168152602001600063ffffffff1681526020016000815260200160006002811115612d4d57612d4c6133cc565b5b81525090565b600080fd5b600080fd5b600073ffffffffffffffffffffffffffffffffffffffff82169050919050565b6000612d8882612d5d565b9050919050565b612d9881612d7d565b8114612da357600080fd5b50565b600081359050612db581612d8f565b92915050565b600060208284031215612dd157612dd0612d53565b5b6000612ddf84828501612da6565b91505092915050565b600081519050919050565b600082825260208201905092915050565b6000819050602082019050919050565b6000819050919050565b612e2781612e14565b82525050565b6000612e398383612e1e565b60208301905092915050565b6000602082019050919050565b6000612e5d82612de8565b612e678185612df3565b9350612e7283612e04565b8060005b83811015612ea3578151612e8a8882612e2d565b9750612e9583612e45565b925050600181019050612e76565b5085935050505092915050565b60006020820190508181036000830152612eca8184612e52565b905092915050565b600081519050919050565b600082825260208201905092915050565b6000819050602082019050919050565b60006fffffffffffffffffffffffffffffffff82169050919050565b612f2381612efe565b82525050565b604082016000820151612f3f6000850182612f1a565b506020820151612f526020850182612f1a565b50505050565b6000612f648383612f29565b60408301905092915050565b6000602082019050919050565b6000612f8882612ed2565b612f928185612edd565b9350612f9d83612eee565b8060005b83811015612fce578151612fb58882612f58565b9750612fc083612f70565b925050600181019050612fa1565b5085935050505092915050565b60006020820190508181036000830152612ff58184612f7d565b905092915050565b600080fd5b600080fd5b600080fd5b60008083601f84011261302257613021612ffd565b5b8235905067ffffffffffffffff81111561303f5761303e613002565b5b60208301915083602082028301111561305b5761305a613007565b5b9250929050565b6000806000806040858703121561307c5761307b612d53565b5b600085013567ffffffffffffffff81111561309a57613099612d58565b5b6130a68782880161300c565b9450945050602085013567ffffffffffffffff8111156130c9576130c8612d58565b5b6130d58782880161300c565b925092505092959194509250565b6000819050919050565b60006131086131036130fe84612d5d565b6130e3565b612d5d565b9050919050565b600061311a826130ed565b9050919050565b600061312c8261310f565b9050919050565b61313c81613121565b82525050565b60006020820190506131576000830184613133565b92915050565b61316681612d7d565b82525050565b6000602082019050613181600083018461315d565b92915050565b60006131928261310f565b9050919050565b6131a281613187565b82525050565b60006020820190506131bd6000830184613199565b92915050565b60006131ce8261310f565b9050919050565b6131de816131c3565b82525050565b60006020820190506131f960008301846131d5565b92915050565b60008083601f84011261321557613214612ffd565b5b8235905067ffffffffffffffff81111561323257613231613002565b5b60208301915083602082028301111561324e5761324d613007565b5b9250929050565b6000806000806000806060878903121561327257613271612d53565b5b600087013567ffffffffffffffff8111156132905761328f612d58565b5b61329c89828a0161300c565b9650965050602087013567ffffffffffffffff8111156132bf576132be612d58565b5b6132cb89828a0161300c565b9450945050604087013567ffffffffffffffff8111156132ee576132ed612d58565b5b6132fa89828a016131ff565b92509250509295509295509295565b60006133148261310f565b9050919050565b61332481613309565b82525050565b600060208201905061333f600083018461331b565b92915050565b61334e81612e14565b811461335957600080fd5b50565b60008135905061336b81613345565b92915050565b60006020828403121561338757613386612d53565b5b60006133958482850161335c565b91505092915050565b6133a781612d7d565b82525050565b600063ffffffff82169050919050565b6133c6816133ad565b82525050565b7f4e487b7100000000000000000000000000000000000000000000000000000000600052602160045260246000fd5b6003811061340c5761340b6133cc565b5b50565b600081905061341d826133fb565b919050565b600061342d8261340f565b9050919050565b61343d81613422565b82525050565b60c082016000820151613459600085018261339e565b50602082015161346c60208501826133bd565b50604082015161347f60408501826133bd565b50606082015161349260608501826133bd565b5060808201516134a56080850182612e1e565b5060a08201516134b860a0850182613434565b50505050565b600060c0820190506134d36000830184613443565b92915050565b600080602083850312156134f0576134ef612d53565b5b600083013567ffffffffffffffff81111561350e5761350d612d58565b5b61351a8582860161300c565b92509250509250929050565b60008060008060008060c0878903121561354357613542612d53565b5b600061355189828a01612da6565b965050602061356289828a01612da6565b955050604061357389828a01612da6565b945050606061358489828a01612da6565b935050608061359589828a01612da6565b92505060a06135a689828a01612da6565b9150509295509295509295565b600067ffffffffffffffff82169050919050565b6135d0816135b3565b82525050565b60006020820190506135eb60008301846135c7565b92915050565b60008083601f84011261360757613606612ffd565b5b8235905067ffffffffffffffff81111561362457613623613002565b5b6020830191508360018202830111156136405761363f613007565b5b9250929050565b60008060008060008060a0878903121561366457613663612d53565b5b600061367289828a01612da6565b965050602061368389828a01612da6565b955050604061369489828a0161335c565b94505060606136a589828a0161335c565b935050608087013567ffffffffffffffff8111156136c6576136c5612d58565b5b6136d289828a016135f1565b92509250509295509295509295565b60007fffffffff0000000000000000000000000000000000000000000000000000000082169050919050565b613716816136e1565b82525050565b6000602082019050613731600083018461370d565b92915050565b61374081612e14565b82525050565b600060208201905061375b6000830184613737565b92915050565b7f4e487b7100000000000000000000000000000000000000000000000000000000600052604160045260246000fd5b7f4e487b7100000000000000000000000000000000000000000000000000000000600052603260045260246000fd5b7f4e487b7100000000000000000000000000000000000000000000000000000000600052601160045260246000fd5b60006137f9826133ad565b9150613804836133ad565b9250828201905063ffffffff8111156138205761381f6137bf565b5b92915050565b600061383182612e14565b915061383c83612e14565b9250828203905081811115613854576138536137bf565b5b92915050565b600061386582612e14565b91507fffffffffffffffffffffffffffffffffffffffffffffffffffffffffffffffff8203613897576138966137bf565b5b600182019050919050565b6000819050919050565b60006138c76138c26138bd846138a2565b6130e3565b612e14565b9050919050565b6138d7816138ac565b82525050565b600082825260208201905092915050565b50565b60006138fe6000836138dd565b9150613909826138ee565b600082019050919050565b600060a082019050613929600083018761315d565b613936602083018661315d565b6139436040830185613737565b61395060608301846138ce565b8181036080830152613961816138f1565b905095945050505050565b600061397782612e14565b915061398283612e14565b925082820190508082111561399a576139996137bf565b5b92915050565b60008115159050919050565b6139b5816139a0565b81146139c057600080fd5b50565b6000815190506139d2816139ac565b92915050565b6000602082840312156139ee576139ed612d53565b5b60006139fc848285016139c3565b91505092915050565b600081519050613a1481612d8f565b92915050565b600060208284031215613a3057613a2f612d53565b5b6000613a3e84828501613a05565b91505092915050565b600081519050613a5681613345565b92915050565b600060208284031215613a7257613a71612d53565b5b6000613a8084828501613a47565b91505092915050565b60038110613a9657600080fd5b50565b600081359050613aa881613a89565b92915050565b600060208284031215613ac457613ac3612d53565b5b6000613ad284828501613a99565b91505092915050565b613ae4816139a0565b82525050565b6000604082019050613aff6000830185613737565b613b0c6020830184613adb565b9392505050565b613b1c81613422565b82525050565b6000602082019050613b376000830184613b13565b92915050565b6000613b48826133ad565b9150613b53836133ad565b9250828203905063ffffffff811115613b6f57613b6e6137bf565b5b92915050565b600082825260208201905092915050565b7f496e697469616c697a61626c653a20636f6e747261637420697320616c72656160008201527f647920696e697469616c697a6564000000000000000000000000000000000000602082015250565b6000613be2602e83613b75565b9150613bed82613b86565b604082019050919050565b60006020820190508181036000830152613c1181613bd5565b9050919050565b600060ff82169050919050565b6000613c40613c3b613c36846138a2565b6130e3565b613c18565b9050919050565b613c5081613c25565b82525050565b6000602082019050613c6b6000830184613c47565b92915050565b6000613c8c613c87613c82846133ad565b6130e3565b612e14565b9050919050565b613c9c81613c71565b82525050565b600060a082019050613cb7600083018761315d565b613cc4602083018661315d565b613cd16040830185613c93565b613cde60608301846138ce565b8181036080830152613cef816138f1565b905095945050505050565b6000606082019050613d0f600083018661315d565b613d1c6020830185613737565b613d2960408301846138ce565b949350505050565b7f4e487b7100000000000000000000000000000000000000000000000000000000600052603160045260246000fd5b7f4e487b7100000000000000000000000000000000000000000000000000000000600052601260045260246000fd5b6000613d9a82612e14565b9150613da583612e14565b925082613db557613db4613d60565b5b82820690509291505056fea26469706673582212205516403f8437a9eba335b579d8fa0059d2e81b450fe23c2f97999eebb045dfe764736f6c63430008120033",
  "devdoc": {
    "errors": {
      "NewOwnerIsZeroAddress()": [
        {
          "details": "The `newOwner` cannot be the zero address."
        }
      ],
      "NoHandoverRequest()": [
        {
          "details": "The `pendingOwner` does not have a valid handover request."
        }
      ],
      "Unauthorized()": [
        {
          "details": "The caller is not authorized to call the function."
        }
      ]
    },
    "events": {
      "Initialized(uint8)": {
        "details": "Triggered when the contract has been initialized or reinitialized."
      },
      "OwnershipHandoverCanceled(address)": {
        "details": "The ownership handover to `pendingOwner` has been canceled."
      },
      "OwnershipHandoverRequested(address)": {
        "details": "An ownership handover to `pendingOwner` has been requested."
      },
      "OwnershipTransferred(address,address)": {
        "details": "The ownership is transferred from `oldOwner` to `newOwner`. This event is intentionally kept the same as OpenZeppelin's Ownable to be compatible with indexers and [EIP-173](https://eips.ethereum.org/EIPS/eip-173), despite it not being as lightweight as a single argument event."
      }
    },
    "kind": "dev",
    "methods": {
      "bringInAnimalsToLaborGround(uint256[],uint256[])": {
        "params": {
          "_animalsId": "An array of token IDs representing the animals.",
          "_tokenId": "An array of token IDs representing the labor grounds."
        }
      },
      "cancelOwnershipHandover()": {
        "details": "Cancels the two-step ownership handover to the caller, if any."
      },
      "claimCollectables(uint256[])": {
        "details": "This function allows a user to claim multiple collectables at once by providing an array of token IDs.",
        "params": {
          "_tokenId": "An array of token IDs that the user wants to claim."
        }
      },
      "completeOwnershipHandover(address)": {
        "details": "Allows the owner to complete the two-step ownership handover to `pendingOwner`. Reverts if there is no existing ownership handover requested by `pendingOwner`."
      },
      "enterLaborGround(uint256[],uint256[],uint8[])": {
        "params": {
          "_job": "Array of jobs assigned to the labor grounds.",
          "_supplyId": "Array of supply IDs associated with the labor grounds.",
          "_tokenId": "Array of token IDs of the labor grounds."
        }
      },
      "getLaborGroundInfo(uint256)": {
        "details": "This function returns a LaborGround struct containing information about a Labor Ground token, specified by its ID, _tokenId.",
        "params": {
          "_tokenId": "ID of the Labor Ground token to retrieve information for"
        },
        "returns": {
          "lg": "The LaborGround struct containing information about the specified Labor Ground token."
        }
      },
      "getStakedTokens(address)": {
        "details": "Returns an array of token IDs that are currently staked by the given owner.",
        "params": {
          "_owner": "The address of the owner."
        },
        "returns": {
          "_0": "An array of staked token IDs."
        }
      },
      "leaveLaborGround(uint256[])": {
        "details": "This function allows a user to leave the LaborGround and receive their animal, supply, and collectable.",
        "params": {
          "_tokenId": "An array of token IDs that the user wants to leave."
        }
      },
      "onERC1155Received(address,address,uint256,uint256,bytes)": {
        "details": "This function is the onERC1155Received fallback function for the contract, which is triggered when the contract receives an ERC1155 token transfer.",
        "returns": {
          "_0": "The selector for this function, \"0x20f90a7e\"."
        }
      },
      "owner()": {
        "details": "Returns the owner of the contract."
      },
      "ownershipHandoverExpiresAt(address)": {
        "details": "Returns the expiry timestamp for the two-step ownership handover to `pendingOwner`."
      },
      "ownershipHandoverValidFor()": {
        "details": "Returns how long a two-step ownership handover is valid for in seconds."
      },
      "removeAnimalsFromLaborGround(uint256[],uint256[])": {
        "params": {
          "_animalsId": "Array of animals IDs associated with the labor grounds.",
          "_tokenId": "Array of token IDs of the labor grounds."
        }
      },
      "renounceOwnership()": {
        "details": "Allows the owner to renounce their ownership."
      },
      "requestOwnershipHandover()": {
        "details": "Request a two-step ownership handover to the caller. The request will be automatically expire in 48 hours (172800 seconds) by default."
      },
      "transferOwnership(address)": {
        "details": "Allows the owner to transfer the ownership to `newOwner`."
      }
    },
    "version": 1
  },
  "userdoc": {
    "kind": "user",
    "methods": {
      "bringInAnimalsToLaborGround(uint256[],uint256[])": {
        "notice": "Brings in animals to the labor ground by calling the bringInAnimalsToLaborGround function in the Lib library and transferring the ownership of the animal token from the sender to the contract."
      },
      "enterLaborGround(uint256[],uint256[],uint8[])": {
        "notice": "Enters the labor ground with specified token ID and supply ID, and assigns the job to it. Transfers the token and supply ownership to the contract. Emits the \"EnterLaborGround\" event."
      },
      "getLaborGroundInfo(uint256)": {
        "notice": "Retrieve information about a Labor Ground token."
      },
      "onERC1155Received(address,address,uint256,uint256,bytes)": {
        "notice": "Handle incoming ERC1155 token transfers."
      },
      "removeAnimalsFromLaborGround(uint256[],uint256[])": {
        "notice": "Removes the animals from the specified labor ground. Transfers the ownership of the animals back to the sender."
      }
    },
    "version": 1
  },
  "storageLayout": {
    "storage": [
      {
        "astId": 6,
        "contract": "contracts/LaborGrounds.sol:LaborGrounds",
        "label": "_initialized",
        "offset": 0,
        "slot": "0",
        "type": "t_uint8"
      },
      {
        "astId": 9,
        "contract": "contracts/LaborGrounds.sol:LaborGrounds",
        "label": "_initializing",
        "offset": 1,
        "slot": "0",
        "type": "t_bool"
      },
      {
        "astId": 3176,
        "contract": "contracts/LaborGrounds.sol:LaborGrounds",
        "label": "pits",
        "offset": 2,
        "slot": "0",
        "type": "t_contract(IPits)4585"
      },
      {
        "astId": 3179,
        "contract": "contracts/LaborGrounds.sol:LaborGrounds",
        "label": "randomizer",
        "offset": 0,
        "slot": "1",
        "type": "t_contract(IRandomizer)4607"
      },
      {
        "astId": 3182,
        "contract": "contracts/LaborGrounds.sol:LaborGrounds",
        "label": "consumables",
        "offset": 0,
        "slot": "2",
        "type": "t_contract(IConsumables)4506"
      },
      {
        "astId": 3185,
        "contract": "contracts/LaborGrounds.sol:LaborGrounds",
        "label": "neandersmol",
        "offset": 0,
        "slot": "3",
        "type": "t_contract(INeandersmol)4555"
      },
      {
        "astId": 3188,
        "contract": "contracts/LaborGrounds.sol:LaborGrounds",
        "label": "animals",
        "offset": 0,
        "slot": "4",
        "type": "t_contract(IERC1155Upgradeable)290"
      },
      {
        "astId": 3191,
        "contract": "contracts/LaborGrounds.sol:LaborGrounds",
        "label": "supplies",
        "offset": 0,
        "slot": "5",
        "type": "t_contract(IERC1155Upgradeable)290"
      },
      {
        "astId": 3196,
        "contract": "contracts/LaborGrounds.sol:LaborGrounds",
        "label": "laborGround",
        "offset": 0,
        "slot": "6",
        "type": "t_mapping(t_uint256,t_struct(LaborGround)5027_storage)"
      },
      {
        "astId": 3201,
        "contract": "contracts/LaborGrounds.sol:LaborGrounds",
        "label": "ownerToTokens",
        "offset": 0,
        "slot": "7",
        "type": "t_mapping(t_address,t_array(t_uint256)dyn_storage)"
      }
    ],
    "types": {
      "t_address": {
        "encoding": "inplace",
        "label": "address",
        "numberOfBytes": "20"
      },
      "t_array(t_uint256)dyn_storage": {
        "base": "t_uint256",
        "encoding": "dynamic_array",
        "label": "uint256[]",
        "numberOfBytes": "32"
      },
      "t_bool": {
        "encoding": "inplace",
        "label": "bool",
        "numberOfBytes": "1"
      },
      "t_contract(IConsumables)4506": {
        "encoding": "inplace",
        "label": "contract IConsumables",
        "numberOfBytes": "20"
      },
      "t_contract(IERC1155Upgradeable)290": {
        "encoding": "inplace",
        "label": "contract IERC1155Upgradeable",
        "numberOfBytes": "20"
      },
      "t_contract(INeandersmol)4555": {
        "encoding": "inplace",
        "label": "contract INeandersmol",
        "numberOfBytes": "20"
      },
      "t_contract(IPits)4585": {
        "encoding": "inplace",
        "label": "contract IPits",
        "numberOfBytes": "20"
      },
      "t_contract(IRandomizer)4607": {
        "encoding": "inplace",
        "label": "contract IRandomizer",
        "numberOfBytes": "20"
      },
      "t_enum(Jobs)5069": {
        "encoding": "inplace",
        "label": "enum Jobs",
        "numberOfBytes": "1"
      },
      "t_mapping(t_address,t_array(t_uint256)dyn_storage)": {
        "encoding": "mapping",
        "key": "t_address",
        "label": "mapping(address => uint256[])",
        "numberOfBytes": "32",
        "value": "t_array(t_uint256)dyn_storage"
      },
      "t_mapping(t_uint256,t_struct(LaborGround)5027_storage)": {
        "encoding": "mapping",
        "key": "t_uint256",
        "label": "mapping(uint256 => struct LaborGround)",
        "numberOfBytes": "32",
        "value": "t_struct(LaborGround)5027_storage"
      },
      "t_struct(LaborGround)5027_storage": {
        "encoding": "inplace",
        "label": "struct LaborGround",
        "members": [
          {
            "astId": 5015,
            "contract": "contracts/LaborGrounds.sol:LaborGrounds",
            "label": "owner",
            "offset": 0,
            "slot": "0",
            "type": "t_address"
          },
          {
            "astId": 5017,
            "contract": "contracts/LaborGrounds.sol:LaborGrounds",
            "label": "lockTime",
            "offset": 20,
            "slot": "0",
            "type": "t_uint32"
          },
          {
            "astId": 5019,
            "contract": "contracts/LaborGrounds.sol:LaborGrounds",
            "label": "supplyId",
            "offset": 24,
            "slot": "0",
            "type": "t_uint32"
          },
          {
            "astId": 5021,
            "contract": "contracts/LaborGrounds.sol:LaborGrounds",
            "label": "animalId",
            "offset": 28,
            "slot": "0",
            "type": "t_uint32"
          },
          {
            "astId": 5023,
            "contract": "contracts/LaborGrounds.sol:LaborGrounds",
            "label": "requestId",
            "offset": 0,
            "slot": "1",
            "type": "t_uint256"
          },
          {
            "astId": 5026,
            "contract": "contracts/LaborGrounds.sol:LaborGrounds",
            "label": "job",
            "offset": 0,
            "slot": "2",
            "type": "t_enum(Jobs)5069"
          }
        ],
        "numberOfBytes": "96"
      },
      "t_uint256": {
        "encoding": "inplace",
        "label": "uint256",
        "numberOfBytes": "32"
      },
      "t_uint32": {
        "encoding": "inplace",
        "label": "uint32",
        "numberOfBytes": "4"
      },
      "t_uint8": {
        "encoding": "inplace",
        "label": "uint8",
        "numberOfBytes": "1"
      }
    }
  }
}