{
  "address": "0xB6c6a2F6496Cb97142cb2a6E978727C15B2CCd39",
  "abi": [
    {
      "inputs": [],
      "name": "CannotClaimNow",
      "type": "error"
    },
    {
      "inputs": [],
      "name": "CsToHigh",
      "type": "error"
    },
    {
      "inputs": [],
      "name": "DevelopmentGroundIsLocked",
      "type": "error"
    },
    {
      "inputs": [],
      "name": "InvalidTokenForThisJob",
      "type": "error"
    },
    {
      "inputs": [],
      "name": "LengthsNotEqual",
      "type": "error"
    },
    {
      "inputs": [],
      "name": "NoMoreAnimalsAllowed",
      "type": "error"
    },
    {
      "inputs": [],
      "name": "NotYourToken",
      "type": "error"
    },
    {
      "anonymous": false,
      "inputs": [
        {
          "indexed": true,
          "internalType": "address",
          "name": "owner",
          "type": "address"
        },
        {
          "indexed": true,
          "internalType": "uint256",
          "name": "tokenId",
          "type": "uint256"
        },
        {
          "indexed": true,
          "internalType": "uint256",
          "name": "animalsId",
          "type": "uint256"
        }
      ],
      "name": "BringInAnimalsToLaborGround",
      "type": "event"
    },
    {
      "anonymous": false,
      "inputs": [
        {
          "indexed": true,
          "internalType": "address",
          "name": "owner",
          "type": "address"
        },
        {
          "indexed": true,
          "internalType": "uint256",
          "name": "tokenId",
          "type": "uint256"
        }
      ],
      "name": "ClaimCollectable",
      "type": "event"
    },
    {
      "anonymous": false,
      "inputs": [
        {
          "indexed": true,
          "internalType": "address",
          "name": "owner",
          "type": "address"
        },
        {
          "indexed": true,
          "internalType": "uint256",
          "name": "tokenId",
          "type": "uint256"
        },
        {
          "indexed": true,
          "internalType": "uint256",
          "name": "supplyId",
          "type": "uint256"
        },
        {
          "indexed": false,
          "internalType": "enum Jobs",
          "name": "job",
          "type": "uint8"
        }
      ],
      "name": "EnterLaborGround",
      "type": "event"
    },
    {
      "anonymous": false,
      "inputs": [
        {
          "indexed": false,
          "internalType": "uint8",
          "name": "version",
          "type": "uint8"
        }
      ],
      "name": "Initialized",
      "type": "event"
    },
    {
      "anonymous": false,
      "inputs": [
        {
          "indexed": true,
          "internalType": "address",
          "name": "owner",
          "type": "address"
        },
        {
          "indexed": true,
          "internalType": "uint256",
          "name": "tokenId",
          "type": "uint256"
        }
      ],
      "name": "LeaveLaborGround",
      "type": "event"
    },
    {
      "anonymous": false,
      "inputs": [
        {
          "indexed": true,
          "internalType": "address",
          "name": "owner",
          "type": "address"
        },
        {
          "indexed": true,
          "internalType": "uint256",
          "name": "tokenId",
          "type": "uint256"
        },
        {
          "indexed": true,
          "internalType": "uint256",
          "name": "animalsId",
          "type": "uint256"
        }
      ],
      "name": "RemoveAnimalsFromLaborGround",
      "type": "event"
    },
    {
      "inputs": [],
      "name": "animals",
      "outputs": [
        {
          "internalType": "contract IERC1155Upgradeable",
          "name": "",
          "type": "address"
        }
      ],
      "stateMutability": "view",
      "type": "function"
    },
    {
      "inputs": [
        {
          "internalType": "uint256[]",
          "name": "_tokenId",
          "type": "uint256[]"
        },
        {
          "internalType": "uint256[]",
          "name": "_animalsId",
          "type": "uint256[]"
        }
      ],
      "name": "bringInAnimalsToLaborGround",
      "outputs": [],
      "stateMutability": "nonpayable",
      "type": "function"
    },
    {
      "inputs": [
        {
          "internalType": "uint256[]",
          "name": "_tokenId",
          "type": "uint256[]"
        }
      ],
      "name": "claimCollectables",
      "outputs": [],
      "stateMutability": "nonpayable",
      "type": "function"
    },
    {
      "inputs": [],
      "name": "consumables",
      "outputs": [
        {
          "internalType": "contract IConsumables",
          "name": "",
          "type": "address"
        }
      ],
      "stateMutability": "view",
      "type": "function"
    },
    {
      "inputs": [
        {
          "internalType": "uint256[]",
          "name": "_tokenId",
          "type": "uint256[]"
        },
        {
          "internalType": "uint256[]",
          "name": "_supplyId",
          "type": "uint256[]"
        },
        {
          "internalType": "enum Jobs[]",
          "name": "_job",
          "type": "uint8[]"
        }
      ],
      "name": "enterLaborGround",
      "outputs": [],
      "stateMutability": "nonpayable",
      "type": "function"
    },
    {
      "inputs": [
        {
          "internalType": "uint256",
          "name": "_tokenId",
          "type": "uint256"
        }
      ],
      "name": "getLaborGroundInfo",
      "outputs": [
        {
          "components": [
            {
              "internalType": "address",
              "name": "owner",
              "type": "address"
            },
            {
              "internalType": "uint32",
              "name": "lockTime",
              "type": "uint32"
            },
            {
              "internalType": "uint32",
              "name": "supplyId",
              "type": "uint32"
            },
            {
              "internalType": "uint32",
              "name": "animalId",
              "type": "uint32"
            },
            {
              "internalType": "uint256",
              "name": "requestId",
              "type": "uint256"
            },
            {
              "internalType": "enum Jobs",
              "name": "job",
              "type": "uint8"
            }
          ],
          "internalType": "struct LaborGround",
          "name": "lg",
          "type": "tuple"
        }
      ],
      "stateMutability": "view",
      "type": "function"
    },
    {
      "inputs": [
        {
          "internalType": "address",
          "name": "_owner",
          "type": "address"
        }
      ],
      "name": "getStakedTokens",
      "outputs": [
        {
          "internalType": "uint256[]",
          "name": "res",
          "type": "uint256[]"
        }
      ],
      "stateMutability": "view",
      "type": "function"
    },
    {
      "inputs": [
        {
          "internalType": "address",
          "name": "_pits",
          "type": "address"
        },
        {
          "internalType": "address",
          "name": "_animals",
          "type": "address"
        },
        {
          "internalType": "address",
          "name": "_supplies",
          "type": "address"
        },
        {
          "internalType": "address",
          "name": "_consumables",
          "type": "address"
        },
        {
          "internalType": "address",
          "name": "_neandersmol",
          "type": "address"
        },
        {
          "internalType": "address",
          "name": "_randomizer",
          "type": "address"
        }
      ],
      "name": "initialize",
      "outputs": [],
      "stateMutability": "nonpayable",
      "type": "function"
    },
    {
      "inputs": [
        {
          "internalType": "uint256[]",
          "name": "_tokenId",
          "type": "uint256[]"
        }
      ],
      "name": "leaveLaborGround",
      "outputs": [],
      "stateMutability": "nonpayable",
      "type": "function"
    },
    {
      "inputs": [],
      "name": "neandersmol",
      "outputs": [
        {
          "internalType": "contract INeandersmol",
          "name": "",
          "type": "address"
        }
      ],
      "stateMutability": "view",
      "type": "function"
    },
    {
      "inputs": [
        {
          "internalType": "address",
          "name": "",
          "type": "address"
        },
        {
          "internalType": "address",
          "name": "",
          "type": "address"
        },
        {
          "internalType": "uint256",
          "name": "",
          "type": "uint256"
        },
        {
          "internalType": "uint256",
          "name": "",
          "type": "uint256"
        },
        {
          "internalType": "bytes",
          "name": "",
          "type": "bytes"
        }
      ],
      "name": "onERC1155Received",
      "outputs": [
        {
          "internalType": "bytes4",
          "name": "",
          "type": "bytes4"
        }
      ],
      "stateMutability": "pure",
      "type": "function"
    },
    {
      "inputs": [],
      "name": "pits",
      "outputs": [
        {
          "internalType": "contract IPits",
          "name": "",
          "type": "address"
        }
      ],
      "stateMutability": "view",
      "type": "function"
    },
    {
      "inputs": [],
      "name": "randomizer",
      "outputs": [
        {
          "internalType": "contract IRandomizer",
          "name": "",
          "type": "address"
        }
      ],
      "stateMutability": "view",
      "type": "function"
    },
    {
      "inputs": [
        {
          "internalType": "uint256[]",
          "name": "_tokenId",
          "type": "uint256[]"
        },
        {
          "internalType": "uint256[]",
          "name": "_animalsId",
          "type": "uint256[]"
        }
      ],
      "name": "removeAnimalsFromLaborGround",
      "outputs": [],
      "stateMutability": "nonpayable",
      "type": "function"
    },
    {
      "inputs": [],
      "name": "supplies",
      "outputs": [
        {
          "internalType": "contract IERC1155Upgradeable",
          "name": "",
          "type": "address"
        }
      ],
      "stateMutability": "view",
      "type": "function"
    }
  ],
  "transactionHash": "0x5f6d15f518aa55ea526ec81143172fda8d90e593c6255d3d2fd6e1ace2d99845",
  "args": [],
  "numDeployments": 2,
  "solcInputHash": "0381cdc746c4dbb41e7f8864acfb40e5",
  "bytecode": "0x608060405234801561001057600080fd5b506134ce806100206000396000f3fe608060405234801561001057600080fd5b50600436106100f55760003560e01c8063b00bec6511610097578063d4053d5b11610066578063d4053d5b1461025e578063e95252441461027a578063f10fb58414610298578063f23a6e61146102b6576100f5565b8063b00bec65146101d8578063b3259e14146101f6578063bd69b15714610226578063cc2a9a5b14610242576100f5565b80638efa8874116100d35780638efa88741461016457806390528e11146101825780639426dba2146101a05780639c1a2678146101bc576100f5565b806363c28db1146100fa578063709140341461012a5780637fd4bfd514610146575b600080fd5b610114600480360381019061010f9190612653565b6102e6565b6040516101219190612748565b60405180910390f35b610144600480360381019061013f91906127cf565b61037d565b005b61014e610701565b60405161015b91906128af565b60405180910390f35b61016c610727565b60405161017991906128eb565b60405180910390f35b61018a61074d565b6040516101979190612927565b60405180910390f35b6101ba60048036038101906101b591906127cf565b610773565b005b6101d660048036038101906101d19190612998565b6109c2565b005b6101e0611065565b6040516101ed9190612a6d565b60405180910390f35b610210600480360381019061020b9190612ab4565b61108b565b60405161021d9190612c01565b60405180910390f35b610240600480360381019061023b9190612c1c565b611332565b005b61025c60048036038101906102579190612c69565b611372565b005b61027860048036038101906102739190612c1c565b611634565b005b610282611ac7565b60405161028f91906128eb565b60405180910390f35b6102a0611aed565b6040516102ad9190612d17565b60405180910390f35b6102d060048036038101906102cb9190612d88565b611b13565b6040516102dd9190612e5d565b60405180910390f35b6060600760008373ffffffffffffffffffffffffffffffffffffffff1673ffffffffffffffffffffffffffffffffffffffff16815260200190815260200160002080548060200260200160405190810160405280929190818152602001828054801561037157602002820191906000526020600020905b81548152602001906001019080831161035d575b50505050509050919050565b61038984848484611b29565b60005b848490508110156106fa5760008383838181106103ac576103ab612e78565b5b9050602002013590506000600660008888868181106103ce576103cd612e78565b5b9050602002013581526020019081526020016000206040518060c00160405290816000820160009054906101000a900473ffffffffffffffffffffffffffffffffffffffff1673ffffffffffffffffffffffffffffffffffffffff1673ffffffffffffffffffffffffffffffffffffffff1681526020016000820160149054906101000a900463ffffffff1663ffffffff1663ffffffff1681526020016000820160189054906101000a900463ffffffff1663ffffffff1663ffffffff16815260200160008201601c9054906101000a900463ffffffff1663ffffffff1663ffffffff168152602001600182015481526020016002820160009054906101000a900460ff1660028111156104e5576104e4612b0f565b5b60028111156104f7576104f6612b0f565b5b8152505090503373ffffffffffffffffffffffffffffffffffffffff16816000015173ffffffffffffffffffffffffffffffffffffffff1614610566576040517f091fe61c00000000000000000000000000000000000000000000000000000000815260040160405180910390fd5b6000816060015163ffffffff16146105aa576040517f8dca9f6400000000000000000000000000000000000000000000000000000000815260040160405180910390fd5b600460009054906101000a900473ffffffffffffffffffffffffffffffffffffffff1673ffffffffffffffffffffffffffffffffffffffff1663f242432a33308560016040518563ffffffff1660e01b815260040161060c9493929190612f37565b600060405180830381600087803b15801561062657600080fd5b505af115801561063a573d6000803e3d6000fd5b50505050600182016006600089898781811061065957610658612e78565b5b905060200201358152602001908152602001600020600001601c6101000a81548163ffffffff021916908363ffffffff160217905550818787858181106106a3576106a2612e78565b5b905060200201353373ffffffffffffffffffffffffffffffffffffffff167f085b924bab9c71a3a17b45cf23191479522f5088263b5d8e87eb68f16ac1a0a860405160405180910390a4826001019250505061038c565b5050505050565b600060029054906101000a900473ffffffffffffffffffffffffffffffffffffffff1681565b600560009054906101000a900473ffffffffffffffffffffffffffffffffffffffff1681565b600260009054906101000a900473ffffffffffffffffffffffffffffffffffffffff1681565b61077f84848484611b29565b60005b848490508110156109bb5760008383838181106107a2576107a1612e78565b5b9050602002013590506000600660008888868181106107c4576107c3612e78565b5b90506020020135815260200190815260200160002090503373ffffffffffffffffffffffffffffffffffffffff168160000160009054906101000a900473ffffffffffffffffffffffffffffffffffffffff1673ffffffffffffffffffffffffffffffffffffffff161415801561086157506001826108439190612fbe565b81600001601c9054906101000a900463ffffffff1663ffffffff1614155b15610898576040517f091fe61c00000000000000000000000000000000000000000000000000000000815260040160405180910390fd5b600460009054906101000a900473ffffffffffffffffffffffffffffffffffffffff1673ffffffffffffffffffffffffffffffffffffffff1663f242432a30338560016040518563ffffffff1660e01b81526004016108fa9493929190612f37565b600060405180830381600087803b15801561091457600080fd5b505af1158015610928573d6000803e3d6000fd5b50505050600081600001601c6101000a81548163ffffffff021916908363ffffffff1602179055508187878581811061096457610963612e78565b5b905060200201353373ffffffffffffffffffffffffffffffffffffffff167f7db14b2c864954e7ddaa6550066e524715079a7e4e01a90e1011e357bbc10c6960405160405180910390a48260010192505050610782565b5050505050565b6109ed600060029054906101000a900473ffffffffffffffffffffffffffffffffffffffff16611b6e565b6109f986868686611b29565b818190508484905014610a38576040517f22cb666100000000000000000000000000000000000000000000000000000000815260040160405180910390fd5b60005b8686905081101561105c57600080888884818110610a5c57610a5b612e78565b5b90506020020135878785818110610a7657610a75612e78565b5b905060200201359150915060006006600084815260200190815260200160002090503373ffffffffffffffffffffffffffffffffffffffff16600360009054906101000a900473ffffffffffffffffffffffffffffffffffffffff1673ffffffffffffffffffffffffffffffffffffffff16636352211e856040518263ffffffff1660e01b8152600401610b0a9190612ff2565b602060405180830381865afa158015610b27573d6000803e3d6000fd5b505050506040513d601f19601f82011682018060405250810190610b4b9190613022565b73ffffffffffffffffffffffffffffffffffffffff1614610b98576040517f091fe61c00000000000000000000000000000000000000000000000000000000815260040160405180910390fd5b6063600360009054906101000a900473ffffffffffffffffffffffffffffffffffffffff1673ffffffffffffffffffffffffffffffffffffffff1663f822a5b2856040518263ffffffff1660e01b8152600401610bf59190612ff2565b602060405180830381865afa158015610c12573d6000803e3d6000fd5b505050506040513d601f19601f82011682018060405250810190610c369190613064565b1115610c6e576040517fc0b81fcd00000000000000000000000000000000000000000000000000000000815260040160405180910390fd5b610c9f82878787818110610c8557610c84612e78565b5b9050602002016020810190610c9a91906130b6565b611c16565b610cd5576040517f3189b2eb00000000000000000000000000000000000000000000000000000000815260040160405180910390fd5b600560009054906101000a900473ffffffffffffffffffffffffffffffffffffffff1673ffffffffffffffffffffffffffffffffffffffff1663f242432a33308560016040518563ffffffff1660e01b8152600401610d379493929190612f37565b600060405180830381600087803b158015610d5157600080fd5b505af1158015610d65573d6000803e3d6000fd5b50505050600360009054906101000a900473ffffffffffffffffffffffffffffffffffffffff1673ffffffffffffffffffffffffffffffffffffffff166323b872dd3330866040518463ffffffff1660e01b8152600401610dc8939291906130e3565b600060405180830381600087803b158015610de257600080fd5b505af1158015610df6573d6000803e3d6000fd5b50505050338160000160006101000a81548173ffffffffffffffffffffffffffffffffffffffff021916908373ffffffffffffffffffffffffffffffffffffffff160217905550428160000160146101000a81548163ffffffff021916908363ffffffff160217905550818160000160186101000a81548163ffffffff021916908363ffffffff160217905550858585818110610e9657610e95612e78565b5b9050602002016020810190610eab91906130b6565b8160020160006101000a81548160ff02191690836002811115610ed157610ed0612b0f565b5b0217905550600160009054906101000a900473ffffffffffffffffffffffffffffffffffffffff1673ffffffffffffffffffffffffffffffffffffffff16638678a7b26040518163ffffffff1660e01b81526004016020604051808303816000875af1158015610f45573d6000803e3d6000fd5b505050506040513d601f19601f82011682018060405250810190610f699190613064565b8160010181905550600760003373ffffffffffffffffffffffffffffffffffffffff1673ffffffffffffffffffffffffffffffffffffffff16815260200190815260200160002083908060018154018082558091505060019003906000526020600020016000909190919091505581833373ffffffffffffffffffffffffffffffffffffffff167faf1d047d6158df0c7beade7a6810e77e0817265bf671190ebad2b03dd889a2b289898981811061102457611023612e78565b5b905060200201602081019061103991906130b6565b6040516110469190613129565b60405180910390a4836001019350505050610a3b565b50505050505050565b600360009054906101000a900473ffffffffffffffffffffffffffffffffffffffff1681565b61109361257b565b600660008381526020019081526020016000206040518060c00160405290816000820160009054906101000a900473ffffffffffffffffffffffffffffffffffffffff1673ffffffffffffffffffffffffffffffffffffffff1673ffffffffffffffffffffffffffffffffffffffff1681526020016000820160149054906101000a900463ffffffff1663ffffffff1663ffffffff1681526020016000820160189054906101000a900463ffffffff1663ffffffff1663ffffffff16815260200160008201601c9054906101000a900463ffffffff1663ffffffff1663ffffffff168152602001600182015481526020016002820160009054906101000a900460ff1660028111156111a8576111a7612b0f565b5b60028111156111ba576111b9612b0f565b5b8152505090506000816060015163ffffffff160361130457600660008381526020019081526020016000206040518060c00160405290816000820160009054906101000a900473ffffffffffffffffffffffffffffffffffffffff1673ffffffffffffffffffffffffffffffffffffffff1673ffffffffffffffffffffffffffffffffffffffff1681526020016000820160149054906101000a900463ffffffff1663ffffffff1663ffffffff1681526020016000820160189054906101000a900463ffffffff1663ffffffff1663ffffffff16815260200160008201601c9054906101000a900463ffffffff1663ffffffff1663ffffffff168152602001600182015481526020016002820160009054906101000a900460ff1660028111156112e7576112e6612b0f565b5b60028111156112f9576112f8612b0f565b5b81525050905061132d565b6001816060018181516113179190613144565b91509063ffffffff16908163ffffffff16815250505b919050565b60005b8282905081101561136d5761136283838381811061135657611355612e78565b5b90506020020135611cc2565b806001019050611335565b505050565b60008060019054906101000a900460ff161590508080156113a35750600160008054906101000a900460ff1660ff16105b806113d057506113b230611ff1565b1580156113cf5750600160008054906101000a900460ff1660ff16145b5b61140f576040517f08c379a0000000000000000000000000000000000000000000000000000000008152600401611406906131ff565b60405180910390fd5b60016000806101000a81548160ff021916908360ff160217905550801561144c576001600060016101000a81548160ff0219169083151502179055505b85600460006101000a81548173ffffffffffffffffffffffffffffffffffffffff021916908373ffffffffffffffffffffffffffffffffffffffff16021790555086600060026101000a81548173ffffffffffffffffffffffffffffffffffffffff021916908373ffffffffffffffffffffffffffffffffffffffff16021790555084600560006101000a81548173ffffffffffffffffffffffffffffffffffffffff021916908373ffffffffffffffffffffffffffffffffffffffff16021790555081600160006101000a81548173ffffffffffffffffffffffffffffffffffffffff021916908373ffffffffffffffffffffffffffffffffffffffff16021790555083600260006101000a81548173ffffffffffffffffffffffffffffffffffffffff021916908373ffffffffffffffffffffffffffffffffffffffff16021790555082600360006101000a81548173ffffffffffffffffffffffffffffffffffffffff021916908373ffffffffffffffffffffffffffffffffffffffff160217905550801561162b5760008060016101000a81548160ff0219169083151502179055507f7f26b83ff96e1f2b6a682f133852f6798a09c465da95921460cefb38474024986001604051611622919061325d565b60405180910390a15b50505050505050565b60005b82829050811015611ac257600083838381811061165757611656612e78565b5b90506020020135905061166981611cc2565b6000600660008381526020019081526020016000206040518060c00160405290816000820160009054906101000a900473ffffffffffffffffffffffffffffffffffffffff1673ffffffffffffffffffffffffffffffffffffffff1673ffffffffffffffffffffffffffffffffffffffff1681526020016000820160149054906101000a900463ffffffff1663ffffffff1663ffffffff1681526020016000820160189054906101000a900463ffffffff1663ffffffff1663ffffffff16815260200160008201601c9054906101000a900463ffffffff1663ffffffff1663ffffffff168152602001600182015481526020016002820160009054906101000a900460ff1660028111156117805761177f612b0f565b5b600281111561179257611791612b0f565b5b81525050905060066000838152602001908152602001600020600080820160006101000a81549073ffffffffffffffffffffffffffffffffffffffff02191690556000820160146101000a81549063ffffffff02191690556000820160186101000a81549063ffffffff021916905560008201601c6101000a81549063ffffffff021916905560018201600090556002820160006101000a81549060ff0219169055505061187e600760003373ffffffffffffffffffffffffffffffffffffffff1673ffffffffffffffffffffffffffffffffffffffff16815260200190815260200160002083612014565b6000816060015163ffffffff161461193557600460009054906101000a900473ffffffffffffffffffffffffffffffffffffffff1673ffffffffffffffffffffffffffffffffffffffff1663f242432a3033600185606001516118e19190613144565b60016040518563ffffffff1660e01b815260040161190294939291906132a9565b600060405180830381600087803b15801561191c57600080fd5b505af1158015611930573d6000803e3d6000fd5b505050505b6000816040015163ffffffff16146119e057600560009054906101000a900473ffffffffffffffffffffffffffffffffffffffff1673ffffffffffffffffffffffffffffffffffffffff1663f242432a3033846040015160016040518563ffffffff1660e01b81526004016119ad94939291906132a9565b600060405180830381600087803b1580156119c757600080fd5b505af11580156119db573d6000803e3d6000fd5b505050505b600360009054906101000a900473ffffffffffffffffffffffffffffffffffffffff1673ffffffffffffffffffffffffffffffffffffffff166323b872dd3033856040518463ffffffff1660e01b8152600401611a3f939291906130e3565b600060405180830381600087803b158015611a5957600080fd5b505af1158015611a6d573d6000803e3d6000fd5b50505050813373ffffffffffffffffffffffffffffffffffffffff167f829b142282bbe71c01b98e565ed26a8cc7cdc9446201b49bf41b184efa57ed5960405160405180910390a38260010192505050611637565b505050565b600460009054906101000a900473ffffffffffffffffffffffffffffffffffffffff1681565b600160009054906101000a900473ffffffffffffffffffffffffffffffffffffffff1681565b600063f23a6e6160e01b90509695505050505050565b818190508484905014611b68576040517f22cb666100000000000000000000000000000000000000000000000000000000815260040160405180910390fd5b50505050565b8073ffffffffffffffffffffffffffffffffffffffff1663ae4b37e46040518163ffffffff1660e01b8152600401602060405180830381865afa158015611bb9573d6000803e3d6000fd5b505050506040513d601f19601f82011682018060405250810190611bdd9190613339565b611c13576040517f288de97200000000000000000000000000000000000000000000000000000000815260040160405180910390fd5b50565b6000806002811115611c2b57611c2a612b0f565b5b826002811115611c3e57611c3d612b0f565b5b03611c4e57600183149050611cbc565b60016002811115611c6257611c61612b0f565b5b826002811115611c7557611c74612b0f565b5b03611c8557600283149050611cbc565b600280811115611c9857611c97612b0f565b5b826002811115611cab57611caa612b0f565b5b03611cbb57600383149050611cbc565b5b92915050565b60006006600083815260200190815260200160002090508060000160009054906101000a900473ffffffffffffffffffffffffffffffffffffffff1673ffffffffffffffffffffffffffffffffffffffff163373ffffffffffffffffffffffffffffffffffffffff1614611d62576040517f091fe61c00000000000000000000000000000000000000000000000000000000815260040160405180910390fd5b6203f4808160000160149054906101000a900463ffffffff16611d859190613366565b63ffffffff16421015611dc4576040517f5488a9fc00000000000000000000000000000000000000000000000000000000815260040160405180910390fd5b6000611ee883836040518060c00160405290816000820160009054906101000a900473ffffffffffffffffffffffffffffffffffffffff1673ffffffffffffffffffffffffffffffffffffffff1673ffffffffffffffffffffffffffffffffffffffff1681526020016000820160149054906101000a900463ffffffff1663ffffffff1663ffffffff1681526020016000820160189054906101000a900463ffffffff1663ffffffff1663ffffffff16815260200160008201601c9054906101000a900463ffffffff1663ffffffff1663ffffffff168152602001600182015481526020016002820160009054906101000a900460ff166002811115611ecd57611ecc612b0f565b5b6002811115611edf57611ede612b0f565b5b815250506120d2565b905060008114611f8557600260009054906101000a900473ffffffffffffffffffffffffffffffffffffffff1673ffffffffffffffffffffffffffffffffffffffff1663156e29f6338360016040518463ffffffff1660e01b8152600401611f529392919061339e565b600060405180830381600087803b158015611f6c57600080fd5b505af1158015611f80573d6000803e3d6000fd5b505050505b428260000160146101000a81548163ffffffff021916908363ffffffff160217905550823373ffffffffffffffffffffffffffffffffffffffff167f5a0db36dd607437cb4689c3ac30ccb5940e032dab1c80eefe397f5f43202b34e60405160405180910390a3505050565b6000808273ffffffffffffffffffffffffffffffffffffffff163b119050919050565b60005b82805490508110156120cd578183828154811061203757612036612e78565b5b9060005260206000200154036120c257826001848054905061205991906133d5565b8154811061206a57612069612e78565b5b906000526020600020015483828154811061208857612087612e78565b5b9060005260206000200181905550828054806120a7576120a6613409565b5b600190038181906000526020600020016000905590556120cd565b806001019050612017565b505050565b6000806065600160009054906101000a900473ffffffffffffffffffffffffffffffffffffffff1673ffffffffffffffffffffffffffffffffffffffff16634ad30a7585608001516040518263ffffffff1660e01b81526004016121369190612ff2565b602060405180830381865afa158015612153573d6000803e3d6000fd5b505050506040513d601f19601f820116820180604052508101906121779190613064565b6121819190613467565b90506000836060015163ffffffff16905060008060006121a48760a00151612343565b91509150600080600086036121ec57603d8710156121c4578394506121eb565b603c871180156121d45750605187105b156121e1578294506121ea565b60039150600290505b5b5b6001860361222d5760428710156122055783945061222c565b6042871180156122155750605687105b156122225782945061222b565b60109150600590505b5b5b6002860361226e5760428710156122465783945061226d565b6041871180156122565750606087105b156122635782945061226c565b600b9150600690505b5b5b600386036122af576047871015612287578394506122ae565b6046871180156122975750606087105b156122a4578294506122ad565b60069150600190505b5b5b600082141580156122c1575060008114155b156122e2576122e18a8a6040015163ffffffff1684848d608001516123f5565b5b600486036122fd57604787106122f857826122fa565b835b94505b6005860361231857604287106123135782612315565b835b94505b6006860361233357603d871061232e5782612330565b835b94505b8497505050505050505092915050565b6000806000600281111561235a57612359612b0f565b5b83600281111561236d5761236c612b0f565b5b0361237f576001600480925081935050505b6001600281111561239357612392612b0f565b5b8360028111156123a6576123a5612b0f565b5b036123b8576002600580925081935050505b6002808111156123cb576123ca612b0f565b5b8360028111156123de576123dd612b0f565b5b036123f0576003600680925081935050505b915091565b600083600160009054906101000a900473ffffffffffffffffffffffffffffffffffffffff1673ffffffffffffffffffffffffffffffffffffffff16634ad30a75846040518263ffffffff1660e01b81526004016124539190612ff2565b602060405180830381865afa158015612470573d6000803e3d6000fd5b505050506040513d601f19601f820116820180604052508101906124949190613064565b61249e9190613467565b90508281101561257357600560009054906101000a900473ffffffffffffffffffffffffffffffffffffffff1673ffffffffffffffffffffffffffffffffffffffff1663f242432a30338860016040518563ffffffff1660e01b815260040161250a9493929190612f37565b600060405180830381600087803b15801561252457600080fd5b505af1158015612538573d6000803e3d6000fd5b5050505060006006600088815260200190815260200160002060000160186101000a81548163ffffffff021916908363ffffffff1602179055505b505050505050565b6040518060c00160405280600073ffffffffffffffffffffffffffffffffffffffff168152602001600063ffffffff168152602001600063ffffffff168152602001600063ffffffff16815260200160008152602001600060028111156125e5576125e4612b0f565b5b81525090565b600080fd5b600080fd5b600073ffffffffffffffffffffffffffffffffffffffff82169050919050565b6000612620826125f5565b9050919050565b61263081612615565b811461263b57600080fd5b50565b60008135905061264d81612627565b92915050565b600060208284031215612669576126686125eb565b5b60006126778482850161263e565b91505092915050565b600081519050919050565b600082825260208201905092915050565b6000819050602082019050919050565b6000819050919050565b6126bf816126ac565b82525050565b60006126d183836126b6565b60208301905092915050565b6000602082019050919050565b60006126f582612680565b6126ff818561268b565b935061270a8361269c565b8060005b8381101561273b57815161272288826126c5565b975061272d836126dd565b92505060018101905061270e565b5085935050505092915050565b6000602082019050818103600083015261276281846126ea565b905092915050565b600080fd5b600080fd5b600080fd5b60008083601f84011261278f5761278e61276a565b5b8235905067ffffffffffffffff8111156127ac576127ab61276f565b5b6020830191508360208202830111156127c8576127c7612774565b5b9250929050565b600080600080604085870312156127e9576127e86125eb565b5b600085013567ffffffffffffffff811115612807576128066125f0565b5b61281387828801612779565b9450945050602085013567ffffffffffffffff811115612836576128356125f0565b5b61284287828801612779565b925092505092959194509250565b6000819050919050565b600061287561287061286b846125f5565b612850565b6125f5565b9050919050565b60006128878261285a565b9050919050565b60006128998261287c565b9050919050565b6128a98161288e565b82525050565b60006020820190506128c460008301846128a0565b92915050565b60006128d58261287c565b9050919050565b6128e5816128ca565b82525050565b600060208201905061290060008301846128dc565b92915050565b60006129118261287c565b9050919050565b61292181612906565b82525050565b600060208201905061293c6000830184612918565b92915050565b60008083601f8401126129585761295761276a565b5b8235905067ffffffffffffffff8111156129755761297461276f565b5b60208301915083602082028301111561299157612990612774565b5b9250929050565b600080600080600080606087890312156129b5576129b46125eb565b5b600087013567ffffffffffffffff8111156129d3576129d26125f0565b5b6129df89828a01612779565b9650965050602087013567ffffffffffffffff811115612a0257612a016125f0565b5b612a0e89828a01612779565b9450945050604087013567ffffffffffffffff811115612a3157612a306125f0565b5b612a3d89828a01612942565b92509250509295509295509295565b6000612a578261287c565b9050919050565b612a6781612a4c565b82525050565b6000602082019050612a826000830184612a5e565b92915050565b612a91816126ac565b8114612a9c57600080fd5b50565b600081359050612aae81612a88565b92915050565b600060208284031215612aca57612ac96125eb565b5b6000612ad884828501612a9f565b91505092915050565b612aea81612615565b82525050565b600063ffffffff82169050919050565b612b0981612af0565b82525050565b7f4e487b7100000000000000000000000000000000000000000000000000000000600052602160045260246000fd5b60038110612b4f57612b4e612b0f565b5b50565b6000819050612b6082612b3e565b919050565b6000612b7082612b52565b9050919050565b612b8081612b65565b82525050565b60c082016000820151612b9c6000850182612ae1565b506020820151612baf6020850182612b00565b506040820151612bc26040850182612b00565b506060820151612bd56060850182612b00565b506080820151612be860808501826126b6565b5060a0820151612bfb60a0850182612b77565b50505050565b600060c082019050612c166000830184612b86565b92915050565b60008060208385031215612c3357612c326125eb565b5b600083013567ffffffffffffffff811115612c5157612c506125f0565b5b612c5d85828601612779565b92509250509250929050565b60008060008060008060c08789031215612c8657612c856125eb565b5b6000612c9489828a0161263e565b9650506020612ca589828a0161263e565b9550506040612cb689828a0161263e565b9450506060612cc789828a0161263e565b9350506080612cd889828a0161263e565b92505060a0612ce989828a0161263e565b9150509295509295509295565b6000612d018261287c565b9050919050565b612d1181612cf6565b82525050565b6000602082019050612d2c6000830184612d08565b92915050565b60008083601f840112612d4857612d4761276a565b5b8235905067ffffffffffffffff811115612d6557612d6461276f565b5b602083019150836001820283011115612d8157612d80612774565b5b9250929050565b60008060008060008060a08789031215612da557612da46125eb565b5b6000612db389828a0161263e565b9650506020612dc489828a0161263e565b9550506040612dd589828a01612a9f565b9450506060612de689828a01612a9f565b935050608087013567ffffffffffffffff811115612e0757612e066125f0565b5b612e1389828a01612d32565b92509250509295509295509295565b60007fffffffff0000000000000000000000000000000000000000000000000000000082169050919050565b612e5781612e22565b82525050565b6000602082019050612e726000830184612e4e565b92915050565b7f4e487b7100000000000000000000000000000000000000000000000000000000600052603260045260246000fd5b612eb081612615565b82525050565b612ebf816126ac565b82525050565b6000819050919050565b6000612eea612ee5612ee084612ec5565b612850565b6126ac565b9050919050565b612efa81612ecf565b82525050565b600082825260208201905092915050565b50565b6000612f21600083612f00565b9150612f2c82612f11565b600082019050919050565b600060a082019050612f4c6000830187612ea7565b612f596020830186612ea7565b612f666040830185612eb6565b612f736060830184612ef1565b8181036080830152612f8481612f14565b905095945050505050565b7f4e487b7100000000000000000000000000000000000000000000000000000000600052601160045260246000fd5b6000612fc9826126ac565b9150612fd4836126ac565b9250828201905080821115612fec57612feb612f8f565b5b92915050565b60006020820190506130076000830184612eb6565b92915050565b60008151905061301c81612627565b92915050565b600060208284031215613038576130376125eb565b5b60006130468482850161300d565b91505092915050565b60008151905061305e81612a88565b92915050565b60006020828403121561307a576130796125eb565b5b60006130888482850161304f565b91505092915050565b6003811061309e57600080fd5b50565b6000813590506130b081613091565b92915050565b6000602082840312156130cc576130cb6125eb565b5b60006130da848285016130a1565b91505092915050565b60006060820190506130f86000830186612ea7565b6131056020830185612ea7565b6131126040830184612eb6565b949350505050565b61312381612b65565b82525050565b600060208201905061313e600083018461311a565b92915050565b600061314f82612af0565b915061315a83612af0565b9250828203905063ffffffff81111561317657613175612f8f565b5b92915050565b600082825260208201905092915050565b7f496e697469616c697a61626c653a20636f6e747261637420697320616c72656160008201527f647920696e697469616c697a6564000000000000000000000000000000000000602082015250565b60006131e9602e8361317c565b91506131f48261318d565b604082019050919050565b60006020820190508181036000830152613218816131dc565b9050919050565b600060ff82169050919050565b600061324761324261323d84612ec5565b612850565b61321f565b9050919050565b6132578161322c565b82525050565b6000602082019050613272600083018461324e565b92915050565b600061329361328e61328984612af0565b612850565b6126ac565b9050919050565b6132a381613278565b82525050565b600060a0820190506132be6000830187612ea7565b6132cb6020830186612ea7565b6132d8604083018561329a565b6132e56060830184612ef1565b81810360808301526132f681612f14565b905095945050505050565b60008115159050919050565b61331681613301565b811461332157600080fd5b50565b6000815190506133338161330d565b92915050565b60006020828403121561334f5761334e6125eb565b5b600061335d84828501613324565b91505092915050565b600061337182612af0565b915061337c83612af0565b9250828201905063ffffffff81111561339857613397612f8f565b5b92915050565b60006060820190506133b36000830186612ea7565b6133c06020830185612eb6565b6133cd6040830184612ef1565b949350505050565b60006133e0826126ac565b91506133eb836126ac565b925082820390508181111561340357613402612f8f565b5b92915050565b7f4e487b7100000000000000000000000000000000000000000000000000000000600052603160045260246000fd5b7f4e487b7100000000000000000000000000000000000000000000000000000000600052601260045260246000fd5b6000613472826126ac565b915061347d836126ac565b92508261348d5761348c613438565b5b82820690509291505056fea2646970667358221220c0f50d1ce69015d3b01de7d6a425db4b9c0566c8fdfbbe19b90ebe8402d26f1d64736f6c63430008110033",
  "devdoc": {
    "kind": "dev",
    "methods": {
      "bringInAnimalsToLaborGround(uint256[],uint256[])": {
        "params": {
          "_animalsId": "An array of token IDs representing the animals.",
          "_tokenId": "An array of token IDs representing the labor grounds."
        }
      },
      "claimCollectables(uint256[])": {
        "details": "This function allows a user to claim multiple collectables at once by providing an array of token IDs.",
        "params": {
          "_tokenId": "An array of token IDs that the user wants to claim."
        }
      },
      "enterLaborGround(uint256[],uint256[],uint8[])": {
        "params": {
          "_job": "Array of jobs assigned to the labor grounds.",
          "_supplyId": "Array of supply IDs associated with the labor grounds.",
          "_tokenId": "Array of token IDs of the labor grounds."
        }
      },
      "getLaborGroundInfo(uint256)": {
        "details": "This function returns a LaborGround struct containing information about a Labor Ground token, specified by its ID, _tokenId.",
        "params": {
          "_tokenId": "ID of the Labor Ground token to retrieve information for"
        },
        "returns": {
          "lg": "The LaborGround struct containing information about the specified Labor Ground token."
        }
      },
      "leaveLaborGround(uint256[])": {
        "details": "This function allows a user to leave the LaborGround and receive their animal, supply, and collectable.",
        "params": {
          "_tokenId": "An array of token IDs that the user wants to leave."
        }
      },
      "onERC1155Received(address,address,uint256,uint256,bytes)": {
        "details": "This function is the onERC1155Received fallback function for the contract, which is triggered when the contract receives an ERC1155 token transfer.",
        "returns": {
          "_0": "The selector for this function, \"0x20f90a7e\"."
        }
      },
      "removeAnimalsFromLaborGround(uint256[],uint256[])": {
        "params": {
          "_animalsId": "Array of animals IDs associated with the labor grounds.",
          "_tokenId": "Array of token IDs of the labor grounds."
        }
      }
    },
    "version": 1
  },
  "userdoc": {
    "kind": "user",
    "methods": {
      "bringInAnimalsToLaborGround(uint256[],uint256[])": {
        "notice": "Brings in animals to the labor ground by calling the bringInAnimalsToLaborGround function in the Lib library and transferring the ownership of the animal token from the sender to the contract."
      },
      "enterLaborGround(uint256[],uint256[],uint8[])": {
        "notice": "Enters the labor ground with specified token ID and supply ID, and assigns the job to it. Transfers the token and supply ownership to the contract. Emits the \"EnterLaborGround\" event."
      },
      "getLaborGroundInfo(uint256)": {
        "notice": "Retrieve information about a Labor Ground token."
      },
      "onERC1155Received(address,address,uint256,uint256,bytes)": {
        "notice": "Handle incoming ERC1155 token transfers."
      },
      "removeAnimalsFromLaborGround(uint256[],uint256[])": {
        "notice": "Removes the animals from the specified labor ground. Transfers the ownership of the animals back to the sender."
      }
    },
    "version": 1
  },
  "storageLayout": {
    "storage": [
      {
        "astId": 6,
        "contract": "contracts/LaborGrounds.sol:LaborGrounds",
        "label": "_initialized",
        "offset": 0,
        "slot": "0",
        "type": "t_uint8"
      },
      {
        "astId": 9,
        "contract": "contracts/LaborGrounds.sol:LaborGrounds",
        "label": "_initializing",
        "offset": 1,
        "slot": "0",
        "type": "t_bool"
      },
      {
        "astId": 736,
        "contract": "contracts/LaborGrounds.sol:LaborGrounds",
        "label": "pits",
        "offset": 2,
        "slot": "0",
        "type": "t_contract(IPits)1995"
      },
      {
        "astId": 739,
        "contract": "contracts/LaborGrounds.sol:LaborGrounds",
        "label": "randomizer",
        "offset": 0,
        "slot": "1",
        "type": "t_contract(IRandomizer)2017"
      },
      {
        "astId": 742,
        "contract": "contracts/LaborGrounds.sol:LaborGrounds",
        "label": "consumables",
        "offset": 0,
        "slot": "2",
        "type": "t_contract(IConsumables)1930"
      },
      {
        "astId": 745,
        "contract": "contracts/LaborGrounds.sol:LaborGrounds",
        "label": "neandersmol",
        "offset": 0,
        "slot": "3",
        "type": "t_contract(INeandersmol)1965"
      },
      {
        "astId": 748,
        "contract": "contracts/LaborGrounds.sol:LaborGrounds",
        "label": "animals",
        "offset": 0,
        "slot": "4",
        "type": "t_contract(IERC1155Upgradeable)290"
      },
      {
        "astId": 751,
        "contract": "contracts/LaborGrounds.sol:LaborGrounds",
        "label": "supplies",
        "offset": 0,
        "slot": "5",
        "type": "t_contract(IERC1155Upgradeable)290"
      },
      {
        "astId": 756,
        "contract": "contracts/LaborGrounds.sol:LaborGrounds",
        "label": "laborGround",
        "offset": 0,
        "slot": "6",
        "type": "t_mapping(t_uint256,t_struct(LaborGround)2433_storage)"
      },
      {
        "astId": 761,
        "contract": "contracts/LaborGrounds.sol:LaborGrounds",
        "label": "ownerToTokens",
        "offset": 0,
        "slot": "7",
        "type": "t_mapping(t_address,t_array(t_uint256)dyn_storage)"
      }
    ],
    "types": {
      "t_address": {
        "encoding": "inplace",
        "label": "address",
        "numberOfBytes": "20"
      },
      "t_array(t_uint256)dyn_storage": {
        "base": "t_uint256",
        "encoding": "dynamic_array",
        "label": "uint256[]",
        "numberOfBytes": "32"
      },
      "t_bool": {
        "encoding": "inplace",
        "label": "bool",
        "numberOfBytes": "1"
      },
      "t_contract(IConsumables)1930": {
        "encoding": "inplace",
        "label": "contract IConsumables",
        "numberOfBytes": "20"
      },
      "t_contract(IERC1155Upgradeable)290": {
        "encoding": "inplace",
        "label": "contract IERC1155Upgradeable",
        "numberOfBytes": "20"
      },
      "t_contract(INeandersmol)1965": {
        "encoding": "inplace",
        "label": "contract INeandersmol",
        "numberOfBytes": "20"
      },
      "t_contract(IPits)1995": {
        "encoding": "inplace",
        "label": "contract IPits",
        "numberOfBytes": "20"
      },
      "t_contract(IRandomizer)2017": {
        "encoding": "inplace",
        "label": "contract IRandomizer",
        "numberOfBytes": "20"
      },
      "t_enum(Jobs)2444": {
        "encoding": "inplace",
        "label": "enum Jobs",
        "numberOfBytes": "1"
      },
      "t_mapping(t_address,t_array(t_uint256)dyn_storage)": {
        "encoding": "mapping",
        "key": "t_address",
        "label": "mapping(address => uint256[])",
        "numberOfBytes": "32",
        "value": "t_array(t_uint256)dyn_storage"
      },
      "t_mapping(t_uint256,t_struct(LaborGround)2433_storage)": {
        "encoding": "mapping",
        "key": "t_uint256",
        "label": "mapping(uint256 => struct LaborGround)",
        "numberOfBytes": "32",
        "value": "t_struct(LaborGround)2433_storage"
      },
      "t_struct(LaborGround)2433_storage": {
        "encoding": "inplace",
        "label": "struct LaborGround",
        "members": [
          {
            "astId": 2421,
            "contract": "contracts/LaborGrounds.sol:LaborGrounds",
            "label": "owner",
            "offset": 0,
            "slot": "0",
            "type": "t_address"
          },
          {
            "astId": 2423,
            "contract": "contracts/LaborGrounds.sol:LaborGrounds",
            "label": "lockTime",
            "offset": 20,
            "slot": "0",
            "type": "t_uint32"
          },
          {
            "astId": 2425,
            "contract": "contracts/LaborGrounds.sol:LaborGrounds",
            "label": "supplyId",
            "offset": 24,
            "slot": "0",
            "type": "t_uint32"
          },
          {
            "astId": 2427,
            "contract": "contracts/LaborGrounds.sol:LaborGrounds",
            "label": "animalId",
            "offset": 28,
            "slot": "0",
            "type": "t_uint32"
          },
          {
            "astId": 2429,
            "contract": "contracts/LaborGrounds.sol:LaborGrounds",
            "label": "requestId",
            "offset": 0,
            "slot": "1",
            "type": "t_uint256"
          },
          {
            "astId": 2432,
            "contract": "contracts/LaborGrounds.sol:LaborGrounds",
            "label": "job",
            "offset": 0,
            "slot": "2",
            "type": "t_enum(Jobs)2444"
          }
        ],
        "numberOfBytes": "96"
      },
      "t_uint256": {
        "encoding": "inplace",
        "label": "uint256",
        "numberOfBytes": "32"
      },
      "t_uint32": {
        "encoding": "inplace",
        "label": "uint32",
        "numberOfBytes": "4"
      },
      "t_uint8": {
        "encoding": "inplace",
        "label": "uint8",
        "numberOfBytes": "1"
      }
    }
  }
}