{
  "address": "0xC5138A3DE49B684dF53C648A396675D6ae69FfF5",
  "abi": [
    {
      "inputs": [],
      "name": "CannotClaimNow",
      "type": "error"
    },
    {
      "inputs": [],
      "name": "CsToHigh",
      "type": "error"
    },
    {
      "inputs": [],
      "name": "DevelopmentGroundIsLocked",
      "type": "error"
    },
    {
      "inputs": [],
      "name": "InvalidTokenForThisJob",
      "type": "error"
    },
    {
      "inputs": [],
      "name": "LengthsNotEqual",
      "type": "error"
    },
    {
      "inputs": [],
      "name": "NoMoreAnimalsAllowed",
      "type": "error"
    },
    {
      "inputs": [],
      "name": "NotYourToken",
      "type": "error"
    },
    {
      "anonymous": false,
      "inputs": [
        {
          "indexed": true,
          "internalType": "address",
          "name": "owner",
          "type": "address"
        },
        {
          "indexed": true,
          "internalType": "uint256",
          "name": "tokenId",
          "type": "uint256"
        },
        {
          "indexed": true,
          "internalType": "uint256",
          "name": "animalsId",
          "type": "uint256"
        }
      ],
      "name": "BringInAnimalsToLaborGround",
      "type": "event"
    },
    {
      "anonymous": false,
      "inputs": [
        {
          "indexed": true,
          "internalType": "address",
          "name": "owner",
          "type": "address"
        },
        {
          "indexed": true,
          "internalType": "uint256",
          "name": "tokenId",
          "type": "uint256"
        }
      ],
      "name": "ClaimCollectable",
      "type": "event"
    },
    {
      "anonymous": false,
      "inputs": [
        {
          "indexed": true,
          "internalType": "address",
          "name": "owner",
          "type": "address"
        },
        {
          "indexed": true,
          "internalType": "uint256",
          "name": "tokenId",
          "type": "uint256"
        },
        {
          "indexed": true,
          "internalType": "uint256",
          "name": "supplyId",
          "type": "uint256"
        },
        {
          "indexed": false,
          "internalType": "enum Jobs",
          "name": "job",
          "type": "uint8"
        }
      ],
      "name": "EnterLaborGround",
      "type": "event"
    },
    {
      "anonymous": false,
      "inputs": [
        {
          "indexed": false,
          "internalType": "uint8",
          "name": "version",
          "type": "uint8"
        }
      ],
      "name": "Initialized",
      "type": "event"
    },
    {
      "anonymous": false,
      "inputs": [
        {
          "indexed": true,
          "internalType": "address",
          "name": "owner",
          "type": "address"
        },
        {
          "indexed": true,
          "internalType": "uint256",
          "name": "tokenId",
          "type": "uint256"
        }
      ],
      "name": "LeaveLaborGround",
      "type": "event"
    },
    {
      "anonymous": false,
      "inputs": [
        {
          "indexed": true,
          "internalType": "address",
          "name": "owner",
          "type": "address"
        },
        {
          "indexed": true,
          "internalType": "uint256",
          "name": "tokenId",
          "type": "uint256"
        },
        {
          "indexed": true,
          "internalType": "uint256",
          "name": "animalsId",
          "type": "uint256"
        }
      ],
      "name": "RemoveAnimalsFromLaborGround",
      "type": "event"
    },
    {
      "inputs": [],
      "name": "animals",
      "outputs": [
        {
          "internalType": "contract IERC1155Upgradeable",
          "name": "",
          "type": "address"
        }
      ],
      "stateMutability": "view",
      "type": "function"
    },
    {
      "inputs": [
        {
          "internalType": "uint256[]",
          "name": "_tokenId",
          "type": "uint256[]"
        },
        {
          "internalType": "uint256[]",
          "name": "_animalsId",
          "type": "uint256[]"
        }
      ],
      "name": "bringInAnimalsToLaborGround",
      "outputs": [],
      "stateMutability": "nonpayable",
      "type": "function"
    },
    {
      "inputs": [
        {
          "internalType": "uint256[]",
          "name": "_tokenId",
          "type": "uint256[]"
        }
      ],
      "name": "claimCollectables",
      "outputs": [],
      "stateMutability": "nonpayable",
      "type": "function"
    },
    {
      "inputs": [],
      "name": "consumables",
      "outputs": [
        {
          "internalType": "contract IConsumables",
          "name": "",
          "type": "address"
        }
      ],
      "stateMutability": "view",
      "type": "function"
    },
    {
      "inputs": [
        {
          "internalType": "uint256[]",
          "name": "_tokenId",
          "type": "uint256[]"
        },
        {
          "internalType": "uint256[]",
          "name": "_supplyId",
          "type": "uint256[]"
        },
        {
          "internalType": "enum Jobs[]",
          "name": "_job",
          "type": "uint8[]"
        }
      ],
      "name": "enterLaborGround",
      "outputs": [],
      "stateMutability": "nonpayable",
      "type": "function"
    },
    {
      "inputs": [
        {
          "internalType": "uint256",
          "name": "_tokenId",
          "type": "uint256"
        }
      ],
      "name": "getLaborGroundInfo",
      "outputs": [
        {
          "components": [
            {
              "internalType": "address",
              "name": "owner",
              "type": "address"
            },
            {
              "internalType": "uint32",
              "name": "lockTime",
              "type": "uint32"
            },
            {
              "internalType": "uint32",
              "name": "supplyId",
              "type": "uint32"
            },
            {
              "internalType": "uint32",
              "name": "animalId",
              "type": "uint32"
            },
            {
              "internalType": "uint256",
              "name": "requestId",
              "type": "uint256"
            },
            {
              "internalType": "enum Jobs",
              "name": "job",
              "type": "uint8"
            }
          ],
          "internalType": "struct LaborGround",
          "name": "lg",
          "type": "tuple"
        }
      ],
      "stateMutability": "view",
      "type": "function"
    },
    {
      "inputs": [
        {
          "internalType": "address",
          "name": "_owner",
          "type": "address"
        }
      ],
      "name": "getStakedTokens",
      "outputs": [
        {
          "internalType": "uint256[]",
          "name": "res",
          "type": "uint256[]"
        }
      ],
      "stateMutability": "view",
      "type": "function"
    },
    {
      "inputs": [
        {
          "internalType": "address",
          "name": "_pits",
          "type": "address"
        },
        {
          "internalType": "address",
          "name": "_animals",
          "type": "address"
        },
        {
          "internalType": "address",
          "name": "_supplies",
          "type": "address"
        },
        {
          "internalType": "address",
          "name": "_consumables",
          "type": "address"
        },
        {
          "internalType": "address",
          "name": "_neandersmol",
          "type": "address"
        },
        {
          "internalType": "address",
          "name": "_randomizer",
          "type": "address"
        }
      ],
      "name": "initialize",
      "outputs": [],
      "stateMutability": "nonpayable",
      "type": "function"
    },
    {
      "inputs": [
        {
          "internalType": "uint256[]",
          "name": "_tokenId",
          "type": "uint256[]"
        }
      ],
      "name": "leaveLaborGround",
      "outputs": [],
      "stateMutability": "nonpayable",
      "type": "function"
    },
    {
      "inputs": [],
      "name": "neandersmol",
      "outputs": [
        {
          "internalType": "contract INeandersmol",
          "name": "",
          "type": "address"
        }
      ],
      "stateMutability": "view",
      "type": "function"
    },
    {
      "inputs": [
        {
          "internalType": "address",
          "name": "",
          "type": "address"
        },
        {
          "internalType": "address",
          "name": "",
          "type": "address"
        },
        {
          "internalType": "uint256",
          "name": "",
          "type": "uint256"
        },
        {
          "internalType": "uint256",
          "name": "",
          "type": "uint256"
        },
        {
          "internalType": "bytes",
          "name": "",
          "type": "bytes"
        }
      ],
      "name": "onERC1155Received",
      "outputs": [
        {
          "internalType": "bytes4",
          "name": "",
          "type": "bytes4"
        }
      ],
      "stateMutability": "pure",
      "type": "function"
    },
    {
      "inputs": [],
      "name": "pits",
      "outputs": [
        {
          "internalType": "contract IPits",
          "name": "",
          "type": "address"
        }
      ],
      "stateMutability": "view",
      "type": "function"
    },
    {
      "inputs": [],
      "name": "randomizer",
      "outputs": [
        {
          "internalType": "contract IRandomizer",
          "name": "",
          "type": "address"
        }
      ],
      "stateMutability": "view",
      "type": "function"
    },
    {
      "inputs": [
        {
          "internalType": "uint256[]",
          "name": "_tokenId",
          "type": "uint256[]"
        },
        {
          "internalType": "uint256[]",
          "name": "_animalsId",
          "type": "uint256[]"
        }
      ],
      "name": "removeAnimalsFromLaborGround",
      "outputs": [],
      "stateMutability": "nonpayable",
      "type": "function"
    },
    {
      "inputs": [],
      "name": "supplies",
      "outputs": [
        {
          "internalType": "contract IERC1155Upgradeable",
          "name": "",
          "type": "address"
        }
      ],
      "stateMutability": "view",
      "type": "function"
    }
  ],
  "transactionHash": "0x313634027038858824f706b6abac0721465722469652ba9519dbe335e3565f43",
  "args": [],
  "numDeployments": 3,
  "solcInputHash": "39dc0fd82c7c2593f623a41c9de82aae",
  "bytecode": "0x608060405234801561001057600080fd5b5061353d806100206000396000f3fe608060405234801561001057600080fd5b50600436106100f55760003560e01c8063b00bec6511610097578063d4053d5b11610066578063d4053d5b1461025e578063e95252441461027a578063f10fb58414610298578063f23a6e61146102b6576100f5565b8063b00bec65146101d8578063b3259e14146101f6578063bd69b15714610226578063cc2a9a5b14610242576100f5565b80638efa8874116100d35780638efa88741461016457806390528e11146101825780639426dba2146101a05780639c1a2678146101bc576100f5565b806363c28db1146100fa578063709140341461012a5780637fd4bfd514610146575b600080fd5b610114600480360381019061010f919061267a565b6102e6565b604051610121919061276f565b60405180910390f35b610144600480360381019061013f91906127f6565b61037d565b005b61014e610710565b60405161015b91906128d6565b60405180910390f35b61016c610736565b6040516101799190612912565b60405180910390f35b61018a61075c565b604051610197919061294e565b60405180910390f35b6101ba60048036038101906101b591906127f6565b610782565b005b6101d660048036038101906101d191906129bf565b6109d7565b005b6101e0611080565b6040516101ed9190612a94565b60405180910390f35b610210600480360381019061020b9190612adb565b6110a6565b60405161021d9190612c28565b60405180910390f35b610240600480360381019061023b9190612c43565b61134d565b005b61025c60048036038101906102579190612c90565b611393565b005b61027860048036038101906102739190612c43565b611655565b005b610282611aee565b60405161028f9190612912565b60405180910390f35b6102a0611b14565b6040516102ad9190612d3e565b60405180910390f35b6102d060048036038101906102cb9190612daf565b611b3a565b6040516102dd9190612e84565b60405180910390f35b6060600760008373ffffffffffffffffffffffffffffffffffffffff1673ffffffffffffffffffffffffffffffffffffffff16815260200190815260200160002080548060200260200160405190810160405280929190818152602001828054801561037157602002820191906000526020600020905b81548152602001906001019080831161035d575b50505050509050919050565b61038984848484611b50565b60005b848490508110156107095760008383838181106103ac576103ab612e9f565b5b9050602002013590506000600660008888868181106103ce576103cd612e9f565b5b9050602002013581526020019081526020016000206040518060c00160405290816000820160009054906101000a900473ffffffffffffffffffffffffffffffffffffffff1673ffffffffffffffffffffffffffffffffffffffff1673ffffffffffffffffffffffffffffffffffffffff1681526020016000820160149054906101000a900463ffffffff1663ffffffff1663ffffffff1681526020016000820160189054906101000a900463ffffffff1663ffffffff1663ffffffff16815260200160008201601c9054906101000a900463ffffffff1663ffffffff1663ffffffff168152602001600182015481526020016002820160009054906101000a900460ff1660028111156104e5576104e4612b36565b5b60028111156104f7576104f6612b36565b5b8152505090503373ffffffffffffffffffffffffffffffffffffffff16816000015173ffffffffffffffffffffffffffffffffffffffff1614610566576040517f091fe61c00000000000000000000000000000000000000000000000000000000815260040160405180910390fd5b6000816060015163ffffffff16146105aa576040517f8dca9f6400000000000000000000000000000000000000000000000000000000815260040160405180910390fd5b600460009054906101000a900473ffffffffffffffffffffffffffffffffffffffff1673ffffffffffffffffffffffffffffffffffffffff1663f242432a33308560016040518563ffffffff1660e01b815260040161060c9493929190612f5e565b600060405180830381600087803b15801561062657600080fd5b505af115801561063a573d6000803e3d6000fd5b5050505060018261064b9190612fe5565b6006600089898781811061066257610661612e9f565b5b905060200201358152602001908152602001600020600001601c6101000a81548163ffffffff021916908363ffffffff160217905550818787858181106106ac576106ab612e9f565b5b905060200201353373ffffffffffffffffffffffffffffffffffffffff167f085b924bab9c71a3a17b45cf23191479522f5088263b5d8e87eb68f16ac1a0a860405160405180910390a45050806107029061301d565b905061038c565b5050505050565b600060029054906101000a900473ffffffffffffffffffffffffffffffffffffffff1681565b600560009054906101000a900473ffffffffffffffffffffffffffffffffffffffff1681565b600260009054906101000a900473ffffffffffffffffffffffffffffffffffffffff1681565b61078e84848484611b50565b60005b848490508110156109d05760008383838181106107b1576107b0612e9f565b5b9050602002013590506000600660008888868181106107d3576107d2612e9f565b5b90506020020135815260200190815260200160002090503373ffffffffffffffffffffffffffffffffffffffff168160000160009054906101000a900473ffffffffffffffffffffffffffffffffffffffff1673ffffffffffffffffffffffffffffffffffffffff161415801561087057506001826108529190613065565b81600001601c9054906101000a900463ffffffff1663ffffffff1614155b156108a7576040517f091fe61c00000000000000000000000000000000000000000000000000000000815260040160405180910390fd5b600460009054906101000a900473ffffffffffffffffffffffffffffffffffffffff1673ffffffffffffffffffffffffffffffffffffffff1663f242432a30338560016040518563ffffffff1660e01b81526004016109099493929190612f5e565b600060405180830381600087803b15801561092357600080fd5b505af1158015610937573d6000803e3d6000fd5b50505050600081600001601c6101000a81548163ffffffff021916908363ffffffff1602179055508187878581811061097357610972612e9f565b5b905060200201353373ffffffffffffffffffffffffffffffffffffffff167f7db14b2c864954e7ddaa6550066e524715079a7e4e01a90e1011e357bbc10c6960405160405180910390a45050806109c99061301d565b9050610791565b5050505050565b610a02600060029054906101000a900473ffffffffffffffffffffffffffffffffffffffff16611b95565b610a0e86868686611b50565b818190508484905014610a4d576040517f22cb666100000000000000000000000000000000000000000000000000000000815260040160405180910390fd5b60005b8686905081101561107757600080888884818110610a7157610a70612e9f565b5b90506020020135878785818110610a8b57610a8a612e9f565b5b905060200201359150915060006006600084815260200190815260200160002090503373ffffffffffffffffffffffffffffffffffffffff16600360009054906101000a900473ffffffffffffffffffffffffffffffffffffffff1673ffffffffffffffffffffffffffffffffffffffff16636352211e856040518263ffffffff1660e01b8152600401610b1f9190613099565b602060405180830381865afa158015610b3c573d6000803e3d6000fd5b505050506040513d601f19601f82011682018060405250810190610b6091906130c9565b73ffffffffffffffffffffffffffffffffffffffff1614610bad576040517f091fe61c00000000000000000000000000000000000000000000000000000000815260040160405180910390fd5b6063600360009054906101000a900473ffffffffffffffffffffffffffffffffffffffff1673ffffffffffffffffffffffffffffffffffffffff1663f822a5b2856040518263ffffffff1660e01b8152600401610c0a9190613099565b602060405180830381865afa158015610c27573d6000803e3d6000fd5b505050506040513d601f19601f82011682018060405250810190610c4b919061310b565b1115610c83576040517fc0b81fcd00000000000000000000000000000000000000000000000000000000815260040160405180910390fd5b610cb482878787818110610c9a57610c99612e9f565b5b9050602002016020810190610caf919061315d565b611c3d565b610cea576040517f3189b2eb00000000000000000000000000000000000000000000000000000000815260040160405180910390fd5b600560009054906101000a900473ffffffffffffffffffffffffffffffffffffffff1673ffffffffffffffffffffffffffffffffffffffff1663f242432a33308560016040518563ffffffff1660e01b8152600401610d4c9493929190612f5e565b600060405180830381600087803b158015610d6657600080fd5b505af1158015610d7a573d6000803e3d6000fd5b50505050600360009054906101000a900473ffffffffffffffffffffffffffffffffffffffff1673ffffffffffffffffffffffffffffffffffffffff166323b872dd3330866040518463ffffffff1660e01b8152600401610ddd9392919061318a565b600060405180830381600087803b158015610df757600080fd5b505af1158015610e0b573d6000803e3d6000fd5b50505050338160000160006101000a81548173ffffffffffffffffffffffffffffffffffffffff021916908373ffffffffffffffffffffffffffffffffffffffff160217905550428160000160146101000a81548163ffffffff021916908363ffffffff160217905550818160000160186101000a81548163ffffffff021916908363ffffffff160217905550858585818110610eab57610eaa612e9f565b5b9050602002016020810190610ec0919061315d565b8160020160006101000a81548160ff02191690836002811115610ee657610ee5612b36565b5b0217905550600160009054906101000a900473ffffffffffffffffffffffffffffffffffffffff1673ffffffffffffffffffffffffffffffffffffffff16638678a7b26040518163ffffffff1660e01b81526004016020604051808303816000875af1158015610f5a573d6000803e3d6000fd5b505050506040513d601f19601f82011682018060405250810190610f7e919061310b565b8160010181905550600760003373ffffffffffffffffffffffffffffffffffffffff1673ffffffffffffffffffffffffffffffffffffffff16815260200190815260200160002083908060018154018082558091505060019003906000526020600020016000909190919091505581833373ffffffffffffffffffffffffffffffffffffffff167faf1d047d6158df0c7beade7a6810e77e0817265bf671190ebad2b03dd889a2b289898981811061103957611038612e9f565b5b905060200201602081019061104e919061315d565b60405161105b91906131d0565b60405180910390a4505050806110709061301d565b9050610a50565b50505050505050565b600360009054906101000a900473ffffffffffffffffffffffffffffffffffffffff1681565b6110ae6125a2565b600660008381526020019081526020016000206040518060c00160405290816000820160009054906101000a900473ffffffffffffffffffffffffffffffffffffffff1673ffffffffffffffffffffffffffffffffffffffff1673ffffffffffffffffffffffffffffffffffffffff1681526020016000820160149054906101000a900463ffffffff1663ffffffff1663ffffffff1681526020016000820160189054906101000a900463ffffffff1663ffffffff1663ffffffff16815260200160008201601c9054906101000a900463ffffffff1663ffffffff1663ffffffff168152602001600182015481526020016002820160009054906101000a900460ff1660028111156111c3576111c2612b36565b5b60028111156111d5576111d4612b36565b5b8152505090506000816060015163ffffffff160361131f57600660008381526020019081526020016000206040518060c00160405290816000820160009054906101000a900473ffffffffffffffffffffffffffffffffffffffff1673ffffffffffffffffffffffffffffffffffffffff1673ffffffffffffffffffffffffffffffffffffffff1681526020016000820160149054906101000a900463ffffffff1663ffffffff1663ffffffff1681526020016000820160189054906101000a900463ffffffff1663ffffffff1663ffffffff16815260200160008201601c9054906101000a900463ffffffff1663ffffffff1663ffffffff168152602001600182015481526020016002820160009054906101000a900460ff16600281111561130257611301612b36565b5b600281111561131457611313612b36565b5b815250509050611348565b60018160600181815161133291906131eb565b91509063ffffffff16908163ffffffff16815250505b919050565b60005b8282905081101561138e5761137d83838381811061137157611370612e9f565b5b90506020020135611ce9565b806113879061301d565b9050611350565b505050565b60008060019054906101000a900460ff161590508080156113c45750600160008054906101000a900460ff1660ff16105b806113f157506113d330612018565b1580156113f05750600160008054906101000a900460ff1660ff16145b5b611430576040517f08c379a0000000000000000000000000000000000000000000000000000000008152600401611427906132a6565b60405180910390fd5b60016000806101000a81548160ff021916908360ff160217905550801561146d576001600060016101000a81548160ff0219169083151502179055505b85600460006101000a81548173ffffffffffffffffffffffffffffffffffffffff021916908373ffffffffffffffffffffffffffffffffffffffff16021790555086600060026101000a81548173ffffffffffffffffffffffffffffffffffffffff021916908373ffffffffffffffffffffffffffffffffffffffff16021790555084600560006101000a81548173ffffffffffffffffffffffffffffffffffffffff021916908373ffffffffffffffffffffffffffffffffffffffff16021790555081600160006101000a81548173ffffffffffffffffffffffffffffffffffffffff021916908373ffffffffffffffffffffffffffffffffffffffff16021790555083600260006101000a81548173ffffffffffffffffffffffffffffffffffffffff021916908373ffffffffffffffffffffffffffffffffffffffff16021790555082600360006101000a81548173ffffffffffffffffffffffffffffffffffffffff021916908373ffffffffffffffffffffffffffffffffffffffff160217905550801561164c5760008060016101000a81548160ff0219169083151502179055507f7f26b83ff96e1f2b6a682f133852f6798a09c465da95921460cefb384740249860016040516116439190613304565b60405180910390a15b50505050505050565b60005b82829050811015611ae957600083838381811061167857611677612e9f565b5b90506020020135905061168a81611ce9565b6000600660008381526020019081526020016000206040518060c00160405290816000820160009054906101000a900473ffffffffffffffffffffffffffffffffffffffff1673ffffffffffffffffffffffffffffffffffffffff1673ffffffffffffffffffffffffffffffffffffffff1681526020016000820160149054906101000a900463ffffffff1663ffffffff1663ffffffff1681526020016000820160189054906101000a900463ffffffff1663ffffffff1663ffffffff16815260200160008201601c9054906101000a900463ffffffff1663ffffffff1663ffffffff168152602001600182015481526020016002820160009054906101000a900460ff1660028111156117a1576117a0612b36565b5b60028111156117b3576117b2612b36565b5b81525050905060066000838152602001908152602001600020600080820160006101000a81549073ffffffffffffffffffffffffffffffffffffffff02191690556000820160146101000a81549063ffffffff02191690556000820160186101000a81549063ffffffff021916905560008201601c6101000a81549063ffffffff021916905560018201600090556002820160006101000a81549060ff0219169055505061189f600760003373ffffffffffffffffffffffffffffffffffffffff1673ffffffffffffffffffffffffffffffffffffffff1681526020019081526020016000208361203b565b6000816060015163ffffffff161461195657600460009054906101000a900473ffffffffffffffffffffffffffffffffffffffff1673ffffffffffffffffffffffffffffffffffffffff1663f242432a30336001856060015161190291906131eb565b60016040518563ffffffff1660e01b81526004016119239493929190613350565b600060405180830381600087803b15801561193d57600080fd5b505af1158015611951573d6000803e3d6000fd5b505050505b6000816040015163ffffffff1614611a0157600560009054906101000a900473ffffffffffffffffffffffffffffffffffffffff1673ffffffffffffffffffffffffffffffffffffffff1663f242432a3033846040015160016040518563ffffffff1660e01b81526004016119ce9493929190613350565b600060405180830381600087803b1580156119e857600080fd5b505af11580156119fc573d6000803e3d6000fd5b505050505b600360009054906101000a900473ffffffffffffffffffffffffffffffffffffffff1673ffffffffffffffffffffffffffffffffffffffff166323b872dd3033856040518463ffffffff1660e01b8152600401611a609392919061318a565b600060405180830381600087803b158015611a7a57600080fd5b505af1158015611a8e573d6000803e3d6000fd5b50505050813373ffffffffffffffffffffffffffffffffffffffff167f829b142282bbe71c01b98e565ed26a8cc7cdc9446201b49bf41b184efa57ed5960405160405180910390a3505080611ae29061301d565b9050611658565b505050565b600460009054906101000a900473ffffffffffffffffffffffffffffffffffffffff1681565b600160009054906101000a900473ffffffffffffffffffffffffffffffffffffffff1681565b600063f23a6e6160e01b90509695505050505050565b818190508484905014611b8f576040517f22cb666100000000000000000000000000000000000000000000000000000000815260040160405180910390fd5b50505050565b8073ffffffffffffffffffffffffffffffffffffffff1663ae4b37e46040518163ffffffff1660e01b8152600401602060405180830381865afa158015611be0573d6000803e3d6000fd5b505050506040513d601f19601f82011682018060405250810190611c0491906133e0565b611c3a576040517f288de97200000000000000000000000000000000000000000000000000000000815260040160405180910390fd5b50565b6000806002811115611c5257611c51612b36565b5b826002811115611c6557611c64612b36565b5b03611c7557600183149050611ce3565b60016002811115611c8957611c88612b36565b5b826002811115611c9c57611c9b612b36565b5b03611cac57600283149050611ce3565b600280811115611cbf57611cbe612b36565b5b826002811115611cd257611cd1612b36565b5b03611ce257600383149050611ce3565b5b92915050565b60006006600083815260200190815260200160002090508060000160009054906101000a900473ffffffffffffffffffffffffffffffffffffffff1673ffffffffffffffffffffffffffffffffffffffff163373ffffffffffffffffffffffffffffffffffffffff1614611d89576040517f091fe61c00000000000000000000000000000000000000000000000000000000815260040160405180910390fd5b6203f4808160000160149054906101000a900463ffffffff16611dac9190612fe5565b63ffffffff16421015611deb576040517f5488a9fc00000000000000000000000000000000000000000000000000000000815260040160405180910390fd5b6000611f0f83836040518060c00160405290816000820160009054906101000a900473ffffffffffffffffffffffffffffffffffffffff1673ffffffffffffffffffffffffffffffffffffffff1673ffffffffffffffffffffffffffffffffffffffff1681526020016000820160149054906101000a900463ffffffff1663ffffffff1663ffffffff1681526020016000820160189054906101000a900463ffffffff1663ffffffff1663ffffffff16815260200160008201601c9054906101000a900463ffffffff1663ffffffff1663ffffffff168152602001600182015481526020016002820160009054906101000a900460ff166002811115611ef457611ef3612b36565b5b6002811115611f0657611f05612b36565b5b815250506120f9565b905060008114611fac57600260009054906101000a900473ffffffffffffffffffffffffffffffffffffffff1673ffffffffffffffffffffffffffffffffffffffff1663156e29f6338360016040518463ffffffff1660e01b8152600401611f799392919061340d565b600060405180830381600087803b158015611f9357600080fd5b505af1158015611fa7573d6000803e3d6000fd5b505050505b428260000160146101000a81548163ffffffff021916908363ffffffff160217905550823373ffffffffffffffffffffffffffffffffffffffff167f5a0db36dd607437cb4689c3ac30ccb5940e032dab1c80eefe397f5f43202b34e60405160405180910390a3505050565b6000808273ffffffffffffffffffffffffffffffffffffffff163b119050919050565b60005b82805490508110156120f4578183828154811061205e5761205d612e9f565b5b9060005260206000200154036120e95782600184805490506120809190613444565b8154811061209157612090612e9f565b5b90600052602060002001548382815481106120af576120ae612e9f565b5b9060005260206000200181905550828054806120ce576120cd613478565b5b600190038181906000526020600020016000905590556120f4565b80600101905061203e565b505050565b6000806065600160009054906101000a900473ffffffffffffffffffffffffffffffffffffffff1673ffffffffffffffffffffffffffffffffffffffff16634ad30a7585608001516040518263ffffffff1660e01b815260040161215d9190613099565b602060405180830381865afa15801561217a573d6000803e3d6000fd5b505050506040513d601f19601f8201168201806040525081019061219e919061310b565b6121a891906134d6565b90506000836060015163ffffffff16905060008060006121cb8760a0015161236a565b915091506000806000860361221357603d8710156121eb57839450612212565b603c871180156121fb5750605187105b1561220857829450612211565b60039150600290505b5b5b6001860361225457604287101561222c57839450612253565b60428711801561223c5750605687105b1561224957829450612252565b60109150600590505b5b5b6002860361229557604287101561226d57839450612294565b60418711801561227d5750606087105b1561228a57829450612293565b600b9150600690505b5b5b600386036122d65760478710156122ae578394506122d5565b6046871180156122be5750606087105b156122cb578294506122d4565b60069150600190505b5b5b600082141580156122e8575060008114155b15612309576123088a8a6040015163ffffffff1684848d6080015161241c565b5b60048603612324576047871061231f5782612321565b835b94505b6005860361233f576042871061233a578261233c565b835b94505b6006860361235a57603d87106123555782612357565b835b94505b8497505050505050505092915050565b6000806000600281111561238157612380612b36565b5b83600281111561239457612393612b36565b5b036123a6576001600480925081935050505b600160028111156123ba576123b9612b36565b5b8360028111156123cd576123cc612b36565b5b036123df576002600580925081935050505b6002808111156123f2576123f1612b36565b5b83600281111561240557612404612b36565b5b03612417576003600680925081935050505b915091565b600083600160009054906101000a900473ffffffffffffffffffffffffffffffffffffffff1673ffffffffffffffffffffffffffffffffffffffff16634ad30a75846040518263ffffffff1660e01b815260040161247a9190613099565b602060405180830381865afa158015612497573d6000803e3d6000fd5b505050506040513d601f19601f820116820180604052508101906124bb919061310b565b6124c591906134d6565b90508281101561259a57600560009054906101000a900473ffffffffffffffffffffffffffffffffffffffff1673ffffffffffffffffffffffffffffffffffffffff1663f242432a30338860016040518563ffffffff1660e01b81526004016125319493929190612f5e565b600060405180830381600087803b15801561254b57600080fd5b505af115801561255f573d6000803e3d6000fd5b5050505060006006600088815260200190815260200160002060000160186101000a81548163ffffffff021916908363ffffffff1602179055505b505050505050565b6040518060c00160405280600073ffffffffffffffffffffffffffffffffffffffff168152602001600063ffffffff168152602001600063ffffffff168152602001600063ffffffff168152602001600081526020016000600281111561260c5761260b612b36565b5b81525090565b600080fd5b600080fd5b600073ffffffffffffffffffffffffffffffffffffffff82169050919050565b60006126478261261c565b9050919050565b6126578161263c565b811461266257600080fd5b50565b6000813590506126748161264e565b92915050565b6000602082840312156126905761268f612612565b5b600061269e84828501612665565b91505092915050565b600081519050919050565b600082825260208201905092915050565b6000819050602082019050919050565b6000819050919050565b6126e6816126d3565b82525050565b60006126f883836126dd565b60208301905092915050565b6000602082019050919050565b600061271c826126a7565b61272681856126b2565b9350612731836126c3565b8060005b8381101561276257815161274988826126ec565b975061275483612704565b925050600181019050612735565b5085935050505092915050565b600060208201905081810360008301526127898184612711565b905092915050565b600080fd5b600080fd5b600080fd5b60008083601f8401126127b6576127b5612791565b5b8235905067ffffffffffffffff8111156127d3576127d2612796565b5b6020830191508360208202830111156127ef576127ee61279b565b5b9250929050565b600080600080604085870312156128105761280f612612565b5b600085013567ffffffffffffffff81111561282e5761282d612617565b5b61283a878288016127a0565b9450945050602085013567ffffffffffffffff81111561285d5761285c612617565b5b612869878288016127a0565b925092505092959194509250565b6000819050919050565b600061289c6128976128928461261c565b612877565b61261c565b9050919050565b60006128ae82612881565b9050919050565b60006128c0826128a3565b9050919050565b6128d0816128b5565b82525050565b60006020820190506128eb60008301846128c7565b92915050565b60006128fc826128a3565b9050919050565b61290c816128f1565b82525050565b60006020820190506129276000830184612903565b92915050565b6000612938826128a3565b9050919050565b6129488161292d565b82525050565b6000602082019050612963600083018461293f565b92915050565b60008083601f84011261297f5761297e612791565b5b8235905067ffffffffffffffff81111561299c5761299b612796565b5b6020830191508360208202830111156129b8576129b761279b565b5b9250929050565b600080600080600080606087890312156129dc576129db612612565b5b600087013567ffffffffffffffff8111156129fa576129f9612617565b5b612a0689828a016127a0565b9650965050602087013567ffffffffffffffff811115612a2957612a28612617565b5b612a3589828a016127a0565b9450945050604087013567ffffffffffffffff811115612a5857612a57612617565b5b612a6489828a01612969565b92509250509295509295509295565b6000612a7e826128a3565b9050919050565b612a8e81612a73565b82525050565b6000602082019050612aa96000830184612a85565b92915050565b612ab8816126d3565b8114612ac357600080fd5b50565b600081359050612ad581612aaf565b92915050565b600060208284031215612af157612af0612612565b5b6000612aff84828501612ac6565b91505092915050565b612b118161263c565b82525050565b600063ffffffff82169050919050565b612b3081612b17565b82525050565b7f4e487b7100000000000000000000000000000000000000000000000000000000600052602160045260246000fd5b60038110612b7657612b75612b36565b5b50565b6000819050612b8782612b65565b919050565b6000612b9782612b79565b9050919050565b612ba781612b8c565b82525050565b60c082016000820151612bc36000850182612b08565b506020820151612bd66020850182612b27565b506040820151612be96040850182612b27565b506060820151612bfc6060850182612b27565b506080820151612c0f60808501826126dd565b5060a0820151612c2260a0850182612b9e565b50505050565b600060c082019050612c3d6000830184612bad565b92915050565b60008060208385031215612c5a57612c59612612565b5b600083013567ffffffffffffffff811115612c7857612c77612617565b5b612c84858286016127a0565b92509250509250929050565b60008060008060008060c08789031215612cad57612cac612612565b5b6000612cbb89828a01612665565b9650506020612ccc89828a01612665565b9550506040612cdd89828a01612665565b9450506060612cee89828a01612665565b9350506080612cff89828a01612665565b92505060a0612d1089828a01612665565b9150509295509295509295565b6000612d28826128a3565b9050919050565b612d3881612d1d565b82525050565b6000602082019050612d536000830184612d2f565b92915050565b60008083601f840112612d6f57612d6e612791565b5b8235905067ffffffffffffffff811115612d8c57612d8b612796565b5b602083019150836001820283011115612da857612da761279b565b5b9250929050565b60008060008060008060a08789031215612dcc57612dcb612612565b5b6000612dda89828a01612665565b9650506020612deb89828a01612665565b9550506040612dfc89828a01612ac6565b9450506060612e0d89828a01612ac6565b935050608087013567ffffffffffffffff811115612e2e57612e2d612617565b5b612e3a89828a01612d59565b92509250509295509295509295565b60007fffffffff0000000000000000000000000000000000000000000000000000000082169050919050565b612e7e81612e49565b82525050565b6000602082019050612e996000830184612e75565b92915050565b7f4e487b7100000000000000000000000000000000000000000000000000000000600052603260045260246000fd5b612ed78161263c565b82525050565b612ee6816126d3565b82525050565b6000819050919050565b6000612f11612f0c612f0784612eec565b612877565b6126d3565b9050919050565b612f2181612ef6565b82525050565b600082825260208201905092915050565b50565b6000612f48600083612f27565b9150612f5382612f38565b600082019050919050565b600060a082019050612f736000830187612ece565b612f806020830186612ece565b612f8d6040830185612edd565b612f9a6060830184612f18565b8181036080830152612fab81612f3b565b905095945050505050565b7f4e487b7100000000000000000000000000000000000000000000000000000000600052601160045260246000fd5b6000612ff082612b17565b9150612ffb83612b17565b9250828201905063ffffffff81111561301757613016612fb6565b5b92915050565b6000613028826126d3565b91507fffffffffffffffffffffffffffffffffffffffffffffffffffffffffffffffff820361305a57613059612fb6565b5b600182019050919050565b6000613070826126d3565b915061307b836126d3565b925082820190508082111561309357613092612fb6565b5b92915050565b60006020820190506130ae6000830184612edd565b92915050565b6000815190506130c38161264e565b92915050565b6000602082840312156130df576130de612612565b5b60006130ed848285016130b4565b91505092915050565b60008151905061310581612aaf565b92915050565b60006020828403121561312157613120612612565b5b600061312f848285016130f6565b91505092915050565b6003811061314557600080fd5b50565b60008135905061315781613138565b92915050565b60006020828403121561317357613172612612565b5b600061318184828501613148565b91505092915050565b600060608201905061319f6000830186612ece565b6131ac6020830185612ece565b6131b96040830184612edd565b949350505050565b6131ca81612b8c565b82525050565b60006020820190506131e560008301846131c1565b92915050565b60006131f682612b17565b915061320183612b17565b9250828203905063ffffffff81111561321d5761321c612fb6565b5b92915050565b600082825260208201905092915050565b7f496e697469616c697a61626c653a20636f6e747261637420697320616c72656160008201527f647920696e697469616c697a6564000000000000000000000000000000000000602082015250565b6000613290602e83613223565b915061329b82613234565b604082019050919050565b600060208201905081810360008301526132bf81613283565b9050919050565b600060ff82169050919050565b60006132ee6132e96132e484612eec565b612877565b6132c6565b9050919050565b6132fe816132d3565b82525050565b600060208201905061331960008301846132f5565b92915050565b600061333a61333561333084612b17565b612877565b6126d3565b9050919050565b61334a8161331f565b82525050565b600060a0820190506133656000830187612ece565b6133726020830186612ece565b61337f6040830185613341565b61338c6060830184612f18565b818103608083015261339d81612f3b565b905095945050505050565b60008115159050919050565b6133bd816133a8565b81146133c857600080fd5b50565b6000815190506133da816133b4565b92915050565b6000602082840312156133f6576133f5612612565b5b6000613404848285016133cb565b91505092915050565b60006060820190506134226000830186612ece565b61342f6020830185612edd565b61343c6040830184612f18565b949350505050565b600061344f826126d3565b915061345a836126d3565b925082820390508181111561347257613471612fb6565b5b92915050565b7f4e487b7100000000000000000000000000000000000000000000000000000000600052603160045260246000fd5b7f4e487b7100000000000000000000000000000000000000000000000000000000600052601260045260246000fd5b60006134e1826126d3565b91506134ec836126d3565b9250826134fc576134fb6134a7565b5b82820690509291505056fea2646970667358221220a0b5e853a8557d6ad00b5f265e44f0b80d337d690b40276f69c6df222248dfbd64736f6c63430008110033",
  "devdoc": {
    "kind": "dev",
    "methods": {
      "bringInAnimalsToLaborGround(uint256[],uint256[])": {
        "params": {
          "_animalsId": "An array of token IDs representing the animals.",
          "_tokenId": "An array of token IDs representing the labor grounds."
        }
      },
      "claimCollectables(uint256[])": {
        "details": "This function allows a user to claim multiple collectables at once by providing an array of token IDs.",
        "params": {
          "_tokenId": "An array of token IDs that the user wants to claim."
        }
      },
      "enterLaborGround(uint256[],uint256[],uint8[])": {
        "params": {
          "_job": "Array of jobs assigned to the labor grounds.",
          "_supplyId": "Array of supply IDs associated with the labor grounds.",
          "_tokenId": "Array of token IDs of the labor grounds."
        }
      },
      "getLaborGroundInfo(uint256)": {
        "details": "This function returns a LaborGround struct containing information about a Labor Ground token, specified by its ID, _tokenId.",
        "params": {
          "_tokenId": "ID of the Labor Ground token to retrieve information for"
        },
        "returns": {
          "lg": "The LaborGround struct containing information about the specified Labor Ground token."
        }
      },
      "leaveLaborGround(uint256[])": {
        "details": "This function allows a user to leave the LaborGround and receive their animal, supply, and collectable.",
        "params": {
          "_tokenId": "An array of token IDs that the user wants to leave."
        }
      },
      "onERC1155Received(address,address,uint256,uint256,bytes)": {
        "details": "This function is the onERC1155Received fallback function for the contract, which is triggered when the contract receives an ERC1155 token transfer.",
        "returns": {
          "_0": "The selector for this function, \"0x20f90a7e\"."
        }
      },
      "removeAnimalsFromLaborGround(uint256[],uint256[])": {
        "params": {
          "_animalsId": "Array of animals IDs associated with the labor grounds.",
          "_tokenId": "Array of token IDs of the labor grounds."
        }
      }
    },
    "version": 1
  },
  "userdoc": {
    "kind": "user",
    "methods": {
      "bringInAnimalsToLaborGround(uint256[],uint256[])": {
        "notice": "Brings in animals to the labor ground by calling the bringInAnimalsToLaborGround function in the Lib library and transferring the ownership of the animal token from the sender to the contract."
      },
      "enterLaborGround(uint256[],uint256[],uint8[])": {
        "notice": "Enters the labor ground with specified token ID and supply ID, and assigns the job to it. Transfers the token and supply ownership to the contract. Emits the \"EnterLaborGround\" event."
      },
      "getLaborGroundInfo(uint256)": {
        "notice": "Retrieve information about a Labor Ground token."
      },
      "onERC1155Received(address,address,uint256,uint256,bytes)": {
        "notice": "Handle incoming ERC1155 token transfers."
      },
      "removeAnimalsFromLaborGround(uint256[],uint256[])": {
        "notice": "Removes the animals from the specified labor ground. Transfers the ownership of the animals back to the sender."
      }
    },
    "version": 1
  },
  "storageLayout": {
    "storage": [
      {
        "astId": 6,
        "contract": "contracts/LaborGrounds.sol:LaborGrounds",
        "label": "_initialized",
        "offset": 0,
        "slot": "0",
        "type": "t_uint8"
      },
      {
        "astId": 9,
        "contract": "contracts/LaborGrounds.sol:LaborGrounds",
        "label": "_initializing",
        "offset": 1,
        "slot": "0",
        "type": "t_bool"
      },
      {
        "astId": 2628,
        "contract": "contracts/LaborGrounds.sol:LaborGrounds",
        "label": "pits",
        "offset": 2,
        "slot": "0",
        "type": "t_contract(IPits)3901"
      },
      {
        "astId": 2631,
        "contract": "contracts/LaborGrounds.sol:LaborGrounds",
        "label": "randomizer",
        "offset": 0,
        "slot": "1",
        "type": "t_contract(IRandomizer)3923"
      },
      {
        "astId": 2634,
        "contract": "contracts/LaborGrounds.sol:LaborGrounds",
        "label": "consumables",
        "offset": 0,
        "slot": "2",
        "type": "t_contract(IConsumables)3836"
      },
      {
        "astId": 2637,
        "contract": "contracts/LaborGrounds.sol:LaborGrounds",
        "label": "neandersmol",
        "offset": 0,
        "slot": "3",
        "type": "t_contract(INeandersmol)3871"
      },
      {
        "astId": 2640,
        "contract": "contracts/LaborGrounds.sol:LaborGrounds",
        "label": "animals",
        "offset": 0,
        "slot": "4",
        "type": "t_contract(IERC1155Upgradeable)290"
      },
      {
        "astId": 2643,
        "contract": "contracts/LaborGrounds.sol:LaborGrounds",
        "label": "supplies",
        "offset": 0,
        "slot": "5",
        "type": "t_contract(IERC1155Upgradeable)290"
      },
      {
        "astId": 2648,
        "contract": "contracts/LaborGrounds.sol:LaborGrounds",
        "label": "laborGround",
        "offset": 0,
        "slot": "6",
        "type": "t_mapping(t_uint256,t_struct(LaborGround)4339_storage)"
      },
      {
        "astId": 2653,
        "contract": "contracts/LaborGrounds.sol:LaborGrounds",
        "label": "ownerToTokens",
        "offset": 0,
        "slot": "7",
        "type": "t_mapping(t_address,t_array(t_uint256)dyn_storage)"
      }
    ],
    "types": {
      "t_address": {
        "encoding": "inplace",
        "label": "address",
        "numberOfBytes": "20"
      },
      "t_array(t_uint256)dyn_storage": {
        "base": "t_uint256",
        "encoding": "dynamic_array",
        "label": "uint256[]",
        "numberOfBytes": "32"
      },
      "t_bool": {
        "encoding": "inplace",
        "label": "bool",
        "numberOfBytes": "1"
      },
      "t_contract(IConsumables)3836": {
        "encoding": "inplace",
        "label": "contract IConsumables",
        "numberOfBytes": "20"
      },
      "t_contract(IERC1155Upgradeable)290": {
        "encoding": "inplace",
        "label": "contract IERC1155Upgradeable",
        "numberOfBytes": "20"
      },
      "t_contract(INeandersmol)3871": {
        "encoding": "inplace",
        "label": "contract INeandersmol",
        "numberOfBytes": "20"
      },
      "t_contract(IPits)3901": {
        "encoding": "inplace",
        "label": "contract IPits",
        "numberOfBytes": "20"
      },
      "t_contract(IRandomizer)3923": {
        "encoding": "inplace",
        "label": "contract IRandomizer",
        "numberOfBytes": "20"
      },
      "t_enum(Jobs)4368": {
        "encoding": "inplace",
        "label": "enum Jobs",
        "numberOfBytes": "1"
      },
      "t_mapping(t_address,t_array(t_uint256)dyn_storage)": {
        "encoding": "mapping",
        "key": "t_address",
        "label": "mapping(address => uint256[])",
        "numberOfBytes": "32",
        "value": "t_array(t_uint256)dyn_storage"
      },
      "t_mapping(t_uint256,t_struct(LaborGround)4339_storage)": {
        "encoding": "mapping",
        "key": "t_uint256",
        "label": "mapping(uint256 => struct LaborGround)",
        "numberOfBytes": "32",
        "value": "t_struct(LaborGround)4339_storage"
      },
      "t_struct(LaborGround)4339_storage": {
        "encoding": "inplace",
        "label": "struct LaborGround",
        "members": [
          {
            "astId": 4327,
            "contract": "contracts/LaborGrounds.sol:LaborGrounds",
            "label": "owner",
            "offset": 0,
            "slot": "0",
            "type": "t_address"
          },
          {
            "astId": 4329,
            "contract": "contracts/LaborGrounds.sol:LaborGrounds",
            "label": "lockTime",
            "offset": 20,
            "slot": "0",
            "type": "t_uint32"
          },
          {
            "astId": 4331,
            "contract": "contracts/LaborGrounds.sol:LaborGrounds",
            "label": "supplyId",
            "offset": 24,
            "slot": "0",
            "type": "t_uint32"
          },
          {
            "astId": 4333,
            "contract": "contracts/LaborGrounds.sol:LaborGrounds",
            "label": "animalId",
            "offset": 28,
            "slot": "0",
            "type": "t_uint32"
          },
          {
            "astId": 4335,
            "contract": "contracts/LaborGrounds.sol:LaborGrounds",
            "label": "requestId",
            "offset": 0,
            "slot": "1",
            "type": "t_uint256"
          },
          {
            "astId": 4338,
            "contract": "contracts/LaborGrounds.sol:LaborGrounds",
            "label": "job",
            "offset": 0,
            "slot": "2",
            "type": "t_enum(Jobs)4368"
          }
        ],
        "numberOfBytes": "96"
      },
      "t_uint256": {
        "encoding": "inplace",
        "label": "uint256",
        "numberOfBytes": "32"
      },
      "t_uint32": {
        "encoding": "inplace",
        "label": "uint32",
        "numberOfBytes": "4"
      },
      "t_uint8": {
        "encoding": "inplace",
        "label": "uint8",
        "numberOfBytes": "1"
      }
    }
  }
}