{
  "address": "0x57CFeaA556230252D60fab282cb354Cde6c11Fe9",
  "abi": [
    {
      "inputs": [],
      "name": "DevelopmentGroundIsLocked",
      "type": "error"
    },
    {
      "inputs": [
        {
          "internalType": "uint256",
          "name": "_currentLockPeriod",
          "type": "uint256"
        },
        {
          "internalType": "uint256",
          "name": "_lockPeriod",
          "type": "uint256"
        },
        {
          "internalType": "uint256",
          "name": "_lastRewardTime",
          "type": "uint256"
        },
        {
          "internalType": "contract IPits",
          "name": "_pits",
          "type": "IPits"
        }
      ],
      "name": "getDevelopmentGroundBonesReward",
      "outputs": [
        {
          "internalType": "uint256",
          "name": "",
          "type": "uint256"
        }
      ],
      "stateMutability": "view",
      "type": "function"
    },
    {
      "inputs": [
        {
          "internalType": "contract IPits",
          "name": "_pits",
          "type": "IPits"
        }
      ],
      "name": "pitsValidation",
      "outputs": [],
      "stateMutability": "view",
      "type": "function"
    }
  ],
  "transactionHash": "0x88b05c3a3170106cbb2a513be09b31b9349486c0ba899e77af6776dc05221804",
  "args": [],
  "numDeployments": 1,
  "solcInputHash": "18f51bcb9845d8819b37cb038c9b098f",
  "bytecode": "0x610bd9610053600b82828239805160001a607314610046577f4e487b7100000000000000000000000000000000000000000000000000000000600052600060045260246000fd5b30600052607381538281f3fe730000000000000000000000000000000000000000301460806040526004361061004b5760003560e01c806366ea43f01461005057806371fcf20414610080578063f674f6b71461009c575b600080fd5b61006a60048036038101906100659190610839565b6100cc565b60405161007791906108ea565b60405180910390f35b61009a60048036038101906100959190610905565b6101e5565b005b6100b660048036038101906100b19190610932565b61028d565b6040516100c391906108ea565b60405180910390f35b60008088036100de57600090506101da565b600080600190505b88811161019f576000620151808660008a81526020019081526020016000206000848152602001908152602001600020544261012291906109c8565b61012c9190610a2b565b905060008560008a815260200190815260200160002060008860008c8152602001908152602001600020600086815260200190815260200160002054815260200190815260200160002054905080826101859190610a5c565b846101909190610a9e565b935082600101925050506100e6565b5061271068056bc75e2d631000006101b7898861030a565b6101c19190610a5c565b826101cc91906109c8565b6101d69190610a2b565b9150505b979650505050505050565b8073ffffffffffffffffffffffffffffffffffffffff1663ae4b37e46040518163ffffffff1660e01b8152600401602060405180830381865afa158015610230573d6000803e3d6000fd5b505050506040513d601f19601f820116820180604052508101906102549190610b0a565b61028a576040517f288de97200000000000000000000000000000000000000000000000000000000815260040160405180910390fd5b50565b600080840361029f5760009050610302565b60006102aa85610724565b905060006201518085426102be91906109c8565b6102c89190610a2b565b9050670de0b6b3a76400006102dd888661030a565b82846102e99190610a5c565b6102f391906109c8565b6102fd9190610a5c565b925050505b949350505050565b6000808273ffffffffffffffffffffffffffffffffffffffff16631b688d9f6040518163ffffffff1660e01b8152600401602060405180830381865afa158015610358573d6000803e3d6000fd5b505050506040513d601f19601f8201168201806040525081019061037c9190610b4c565b8414610510576000620151808473ffffffffffffffffffffffffffffffffffffffff16631b688d9f6040518163ffffffff1660e01b8152600401602060405180830381865afa1580156103d3573d6000803e3d6000fd5b505050506040513d601f19601f820116820180604052508101906103f79190610b4c565b4261040291906109c8565b61040c9190610a2b565b9050808473ffffffffffffffffffffffffffffffffffffffff1663d09f53c0876040518263ffffffff1660e01b81526004016104489190610b88565b602060405180830381865afa158015610465573d6000803e3d6000fd5b505050506040513d601f19601f820116820180604052508101906104899190610b4c565b8573ffffffffffffffffffffffffffffffffffffffff16637bd90cc26040518163ffffffff1660e01b8152600401602060405180830381865afa1580156104d4573d6000803e3d6000fd5b505050506040513d601f19601f820116820180604052508101906104f89190610b4c565b61050291906109c8565b61050c9190610a9e565b9150505b6000840361070e576000808473ffffffffffffffffffffffffffffffffffffffff16631b688d9f6040518163ffffffff1660e01b8152600401602060405180830381865afa158015610566573d6000803e3d6000fd5b505050506040513d601f19601f8201168201806040525081019061058a9190610b4c565b03610596576000610622565b620151808473ffffffffffffffffffffffffffffffffffffffff16631b688d9f6040518163ffffffff1660e01b8152600401602060405180830381865afa1580156105e5573d6000803e3d6000fd5b505050506040513d601f19601f820116820180604052508101906106099190610b4c565b4261061491906109c8565b61061e9190610a2b565b9050805b508373ffffffffffffffffffffffffffffffffffffffff1663ae4b37e46040518163ffffffff1660e01b8152600401602060405180830381865afa15801561066e573d6000803e3d6000fd5b505050506040513d601f19601f820116820180604052508101906106929190610b0a565b15610709578373ffffffffffffffffffffffffffffffffffffffff16637bd90cc26040518163ffffffff1660e01b8152600401602060405180830381865afa1580156106e2573d6000803e3d6000fd5b505050506040513d601f19601f820116820180604052508101906107069190610b4c565b90505b809150505b600a8161071b9190610a5c565b91505092915050565b60006241eb00820361073557600a90505b6283d600820361074457603290505b62c5c100820361075357606490505b919050565b600080fd5b6000819050919050565b6107708161075d565b811461077b57600080fd5b50565b60008135905061078d81610767565b92915050565b600073ffffffffffffffffffffffffffffffffffffffff82169050919050565b60006107be82610793565b9050919050565b60006107d0826107b3565b9050919050565b6107e0816107c5565b81146107eb57600080fd5b50565b6000813590506107fd816107d7565b92915050565b6000819050919050565b61081681610803565b811461082157600080fd5b50565b6000813590506108338161080d565b92915050565b600080600080600080600060e0888a03121561085857610857610758565b5b60006108668a828b0161077e565b97505060206108778a828b0161077e565b96505060406108888a828b0161077e565b95505060606108998a828b0161077e565b94505060806108aa8a828b016107ee565b93505060a06108bb8a828b01610824565b92505060c06108cc8a828b01610824565b91505092959891949750929550565b6108e48161075d565b82525050565b60006020820190506108ff60008301846108db565b92915050565b60006020828403121561091b5761091a610758565b5b6000610929848285016107ee565b91505092915050565b6000806000806080858703121561094c5761094b610758565b5b600061095a8782880161077e565b945050602061096b8782880161077e565b935050604061097c8782880161077e565b925050606061098d878288016107ee565b91505092959194509250565b7f4e487b7100000000000000000000000000000000000000000000000000000000600052601160045260246000fd5b60006109d38261075d565b91506109de8361075d565b92508282039050818111156109f6576109f5610999565b5b92915050565b7f4e487b7100000000000000000000000000000000000000000000000000000000600052601260045260246000fd5b6000610a368261075d565b9150610a418361075d565b925082610a5157610a506109fc565b5b828204905092915050565b6000610a678261075d565b9150610a728361075d565b9250828202610a808161075d565b91508282048414831517610a9757610a96610999565b5b5092915050565b6000610aa98261075d565b9150610ab48361075d565b9250828201905080821115610acc57610acb610999565b5b92915050565b60008115159050919050565b610ae781610ad2565b8114610af257600080fd5b50565b600081519050610b0481610ade565b92915050565b600060208284031215610b2057610b1f610758565b5b6000610b2e84828501610af5565b91505092915050565b600081519050610b4681610767565b92915050565b600060208284031215610b6257610b61610758565b5b6000610b7084828501610b37565b91505092915050565b610b828161075d565b82525050565b6000602082019050610b9d6000830184610b79565b9291505056fea26469706673582212207fe0825024849a47c2307b954ec922ebd4c2c440d69edbc7ef6d16152fc2aa4964736f6c63430008110033",
  "devdoc": {
    "kind": "dev",
    "methods": {},
    "version": 1
  },
  "userdoc": {
    "kind": "user",
    "methods": {},
    "version": 1
  },
  "storageLayout": {
    "storage": [],
    "types": null
  }
}