{
  "address": "0x83bC8A59cFEcFfb82979c8882F65a61eA72fb9c7",
  "abi": [
    {
      "anonymous": false,
      "inputs": [
        {
          "indexed": true,
          "internalType": "address",
          "name": "account",
          "type": "address"
        },
        {
          "indexed": true,
          "internalType": "address",
          "name": "operator",
          "type": "address"
        },
        {
          "indexed": false,
          "internalType": "bool",
          "name": "approved",
          "type": "bool"
        }
      ],
      "name": "ApprovalForAll",
      "type": "event"
    },
    {
      "anonymous": false,
      "inputs": [
        {
          "indexed": false,
          "internalType": "uint8",
          "name": "version",
          "type": "uint8"
        }
      ],
      "name": "Initialized",
      "type": "event"
    },
    {
      "anonymous": false,
      "inputs": [
        {
          "indexed": true,
          "internalType": "address",
          "name": "operator",
          "type": "address"
        },
        {
          "indexed": true,
          "internalType": "address",
          "name": "from",
          "type": "address"
        },
        {
          "indexed": true,
          "internalType": "address",
          "name": "to",
          "type": "address"
        },
        {
          "indexed": false,
          "internalType": "uint256[]",
          "name": "ids",
          "type": "uint256[]"
        },
        {
          "indexed": false,
          "internalType": "uint256[]",
          "name": "values",
          "type": "uint256[]"
        }
      ],
      "name": "TransferBatch",
      "type": "event"
    },
    {
      "anonymous": false,
      "inputs": [
        {
          "indexed": true,
          "internalType": "address",
          "name": "operator",
          "type": "address"
        },
        {
          "indexed": true,
          "internalType": "address",
          "name": "from",
          "type": "address"
        },
        {
          "indexed": true,
          "internalType": "address",
          "name": "to",
          "type": "address"
        },
        {
          "indexed": false,
          "internalType": "uint256",
          "name": "id",
          "type": "uint256"
        },
        {
          "indexed": false,
          "internalType": "uint256",
          "name": "value",
          "type": "uint256"
        }
      ],
      "name": "TransferSingle",
      "type": "event"
    },
    {
      "anonymous": false,
      "inputs": [
        {
          "indexed": false,
          "internalType": "string",
          "name": "value",
          "type": "string"
        },
        {
          "indexed": true,
          "internalType": "uint256",
          "name": "id",
          "type": "uint256"
        }
      ],
      "name": "URI",
      "type": "event"
    },
    {
      "inputs": [
        {
          "internalType": "address",
          "name": "account",
          "type": "address"
        },
        {
          "internalType": "uint256",
          "name": "id",
          "type": "uint256"
        }
      ],
      "name": "balanceOf",
      "outputs": [
        {
          "internalType": "uint256",
          "name": "",
          "type": "uint256"
        }
      ],
      "stateMutability": "view",
      "type": "function"
    },
    {
      "inputs": [
        {
          "internalType": "address[]",
          "name": "accounts",
          "type": "address[]"
        },
        {
          "internalType": "uint256[]",
          "name": "ids",
          "type": "uint256[]"
        }
      ],
      "name": "balanceOfBatch",
      "outputs": [
        {
          "internalType": "uint256[]",
          "name": "",
          "type": "uint256[]"
        }
      ],
      "stateMutability": "view",
      "type": "function"
    },
    {
      "inputs": [
        {
          "internalType": "address",
          "name": "account",
          "type": "address"
        },
        {
          "internalType": "uint256",
          "name": "id",
          "type": "uint256"
        },
        {
          "internalType": "uint256",
          "name": "value",
          "type": "uint256"
        }
      ],
      "name": "burn",
      "outputs": [],
      "stateMutability": "nonpayable",
      "type": "function"
    },
    {
      "inputs": [
        {
          "internalType": "address",
          "name": "account",
          "type": "address"
        },
        {
          "internalType": "uint256[]",
          "name": "ids",
          "type": "uint256[]"
        },
        {
          "internalType": "uint256[]",
          "name": "values",
          "type": "uint256[]"
        }
      ],
      "name": "burnBatch",
      "outputs": [],
      "stateMutability": "nonpayable",
      "type": "function"
    },
    {
      "inputs": [],
      "name": "initialize",
      "outputs": [],
      "stateMutability": "nonpayable",
      "type": "function"
    },
    {
      "inputs": [
        {
          "internalType": "address",
          "name": "account",
          "type": "address"
        },
        {
          "internalType": "address",
          "name": "operator",
          "type": "address"
        }
      ],
      "name": "isApprovedForAll",
      "outputs": [
        {
          "internalType": "bool",
          "name": "",
          "type": "bool"
        }
      ],
      "stateMutability": "view",
      "type": "function"
    },
    {
      "inputs": [
        {
          "internalType": "uint256",
          "name": "_amount",
          "type": "uint256"
        }
      ],
      "name": "mint",
      "outputs": [],
      "stateMutability": "nonpayable",
      "type": "function"
    },
    {
      "inputs": [
        {
          "internalType": "address",
          "name": "from",
          "type": "address"
        },
        {
          "internalType": "address",
          "name": "to",
          "type": "address"
        },
        {
          "internalType": "uint256[]",
          "name": "ids",
          "type": "uint256[]"
        },
        {
          "internalType": "uint256[]",
          "name": "amounts",
          "type": "uint256[]"
        },
        {
          "internalType": "bytes",
          "name": "data",
          "type": "bytes"
        }
      ],
      "name": "safeBatchTransferFrom",
      "outputs": [],
      "stateMutability": "nonpayable",
      "type": "function"
    },
    {
      "inputs": [
        {
          "internalType": "address",
          "name": "from",
          "type": "address"
        },
        {
          "internalType": "address",
          "name": "to",
          "type": "address"
        },
        {
          "internalType": "uint256",
          "name": "id",
          "type": "uint256"
        },
        {
          "internalType": "uint256",
          "name": "amount",
          "type": "uint256"
        },
        {
          "internalType": "bytes",
          "name": "data",
          "type": "bytes"
        }
      ],
      "name": "safeTransferFrom",
      "outputs": [],
      "stateMutability": "nonpayable",
      "type": "function"
    },
    {
      "inputs": [
        {
          "internalType": "address",
          "name": "operator",
          "type": "address"
        },
        {
          "internalType": "bool",
          "name": "approved",
          "type": "bool"
        }
      ],
      "name": "setApprovalForAll",
      "outputs": [],
      "stateMutability": "nonpayable",
      "type": "function"
    },
    {
      "inputs": [
        {
          "internalType": "bytes4",
          "name": "interfaceId",
          "type": "bytes4"
        }
      ],
      "name": "supportsInterface",
      "outputs": [
        {
          "internalType": "bool",
          "name": "",
          "type": "bool"
        }
      ],
      "stateMutability": "view",
      "type": "function"
    },
    {
      "inputs": [],
      "name": "tokenuUri",
      "outputs": [
        {
          "internalType": "string",
          "name": "",
          "type": "string"
        }
      ],
      "stateMutability": "view",
      "type": "function"
    },
    {
      "inputs": [
        {
          "internalType": "uint256",
          "name": "",
          "type": "uint256"
        }
      ],
      "name": "uri",
      "outputs": [
        {
          "internalType": "string",
          "name": "",
          "type": "string"
        }
      ],
      "stateMutability": "pure",
      "type": "function"
    }
  ],
  "transactionHash": "0xd6f0ad9baa4f43899fd618c36edda6a23c5d45cd5e888e0cf4f1bf7a3b82f479",
  "args": [],
  "numDeployments": 1,
  "solcInputHash": "382b64b6cda7259ac2c94037600ab694",
  "bytecode": "0x608060405234801561001057600080fd5b5061332a806100206000396000f3fe608060405234801561001057600080fd5b50600436106100ce5760003560e01c80636b20c4541161008c578063a22cb46511610066578063a22cb4651461020f578063e985e9c51461022b578063f242432a1461025b578063f5298aca14610277576100ce565b80636b20c454146101cd5780638129fc1c146101e9578063a0712d68146101f3576100ce565b8062fdd58e146100d357806301ffc9a7146101035780630e89341c146101335780632eb2c2d6146101635780634e1273f41461017f57806350d486f4146101af575b600080fd5b6100ed60048036038101906100e89190611e1b565b610293565b6040516100fa9190611e6a565b60405180910390f35b61011d60048036038101906101189190611edd565b61035c565b60405161012a9190611f25565b60405180910390f35b61014d60048036038101906101489190611f40565b61043e565b60405161015a9190611ffd565b60405180910390f35b61017d6004803603810190610178919061221c565b610460565b005b610199600480360381019061019491906123ae565b610501565b6040516101a691906124e4565b60405180910390f35b6101b761061a565b6040516101c49190611ffd565b60405180910390f35b6101e760048036038101906101e29190612506565b6106a8565b005b6101f1610745565b005b61020d60048036038101906102089190611f40565b610898565b005b610229600480360381019061022491906125bd565b6108b7565b005b610245600480360381019061024091906125fd565b6108cd565b6040516102529190611f25565b60405180910390f35b6102756004803603810190610270919061263d565b610961565b005b610291600480360381019061028c91906126d4565b610a02565b005b60008073ffffffffffffffffffffffffffffffffffffffff168373ffffffffffffffffffffffffffffffffffffffff1603610303576040517f08c379a00000000000000000000000000000000000000000000000000000000081526004016102fa90612799565b60405180910390fd5b6065600083815260200190815260200160002060008473ffffffffffffffffffffffffffffffffffffffff1673ffffffffffffffffffffffffffffffffffffffff16815260200190815260200160002054905092915050565b60007fd9b67a26000000000000000000000000000000000000000000000000000000007bffffffffffffffffffffffffffffffffffffffffffffffffffffffff1916827bffffffffffffffffffffffffffffffffffffffffffffffffffffffff1916148061042757507f0e89341c000000000000000000000000000000000000000000000000000000007bffffffffffffffffffffffffffffffffffffffffffffffffffffffff1916827bffffffffffffffffffffffffffffffffffffffffffffffffffffffff1916145b80610437575061043682610a12565b5b9050919050565b60606040518060600160405280603581526020016132c0603591399050919050565b610468610a7c565b73ffffffffffffffffffffffffffffffffffffffff168573ffffffffffffffffffffffffffffffffffffffff1614806104ae57506104ad856104a8610a7c565b6108cd565b5b6104ed576040517f08c379a00000000000000000000000000000000000000000000000000000000081526004016104e49061282b565b60405180910390fd5b6104fa8585858585610a84565b5050505050565b60608151835114610547576040517f08c379a000000000000000000000000000000000000000000000000000000000815260040161053e906128bd565b60405180910390fd5b6000835167ffffffffffffffff81111561056457610563612024565b5b6040519080825280602002602001820160405280156105925781602001602082028036833780820191505090505b50905060005b845181101561060f576105df8582815181106105b7576105b66128dd565b5b60200260200101518583815181106105d2576105d16128dd565b5b6020026020010151610293565b8282815181106105f2576105f16128dd565b5b602002602001018181525050806106089061293b565b9050610598565b508091505092915050565b60c98054610627906129b2565b80601f0160208091040260200160405190810160405280929190818152602001828054610653906129b2565b80156106a05780601f10610675576101008083540402835291602001916106a0565b820191906000526020600020905b81548152906001019060200180831161068357829003601f168201915b505050505081565b6106b0610a7c565b73ffffffffffffffffffffffffffffffffffffffff168373ffffffffffffffffffffffffffffffffffffffff1614806106f657506106f5836106f0610a7c565b6108cd565b5b610735576040517f08c379a000000000000000000000000000000000000000000000000000000000815260040161072c9061282b565b60405180910390fd5b610740838383610da8565b505050565b60008060019054906101000a900460ff161590508080156107765750600160008054906101000a900460ff1660ff16105b806107a3575061078530611078565b1580156107a25750600160008054906101000a900460ff1660ff16145b5b6107e2576040517f08c379a00000000000000000000000000000000000000000000000000000000081526004016107d990612a55565b60405180910390fd5b60016000806101000a81548160ff021916908360ff160217905550801561081f576001600060016101000a81548160ff0219169083151502179055505b61083c33600160326040518060200160405280600081525061109b565b80156108955760008060016101000a81548160ff0219169083151502179055507f7f26b83ff96e1f2b6a682f133852f6798a09c465da95921460cefb3847402498600160405161088c9190612ac7565b60405180910390a15b50565b6108b4336001836040518060200160405280600081525061109b565b50565b6108c96108c2610a7c565b838361124c565b5050565b6000606660008473ffffffffffffffffffffffffffffffffffffffff1673ffffffffffffffffffffffffffffffffffffffff16815260200190815260200160002060008373ffffffffffffffffffffffffffffffffffffffff1673ffffffffffffffffffffffffffffffffffffffff16815260200190815260200160002060009054906101000a900460ff16905092915050565b610969610a7c565b73ffffffffffffffffffffffffffffffffffffffff168573ffffffffffffffffffffffffffffffffffffffff1614806109af57506109ae856109a9610a7c565b6108cd565b5b6109ee576040517f08c379a00000000000000000000000000000000000000000000000000000000081526004016109e59061282b565b60405180910390fd5b6109fb85858585856113b8565b5050505050565b610a0d838383611656565b505050565b60007f01ffc9a7000000000000000000000000000000000000000000000000000000007bffffffffffffffffffffffffffffffffffffffffffffffffffffffff1916827bffffffffffffffffffffffffffffffffffffffffffffffffffffffff1916149050919050565b600033905090565b8151835114610ac8576040517f08c379a0000000000000000000000000000000000000000000000000000000008152600401610abf90612b54565b60405180910390fd5b600073ffffffffffffffffffffffffffffffffffffffff168473ffffffffffffffffffffffffffffffffffffffff1603610b37576040517f08c379a0000000000000000000000000000000000000000000000000000000008152600401610b2e90612be6565b60405180910390fd5b6000610b41610a7c565b9050610b518187878787876116f3565b60005b8451811015610d05576000858281518110610b7257610b716128dd565b5b602002602001015190506000858381518110610b9157610b906128dd565b5b6020026020010151905060006065600084815260200190815260200160002060008b73ffffffffffffffffffffffffffffffffffffffff1673ffffffffffffffffffffffffffffffffffffffff16815260200190815260200160002054905081811015610c33576040517f08c379a0000000000000000000000000000000000000000000000000000000008152600401610c2a90612c78565b60405180910390fd5b8181036065600085815260200190815260200160002060008c73ffffffffffffffffffffffffffffffffffffffff1673ffffffffffffffffffffffffffffffffffffffff16815260200190815260200160002081905550816065600085815260200190815260200160002060008b73ffffffffffffffffffffffffffffffffffffffff1673ffffffffffffffffffffffffffffffffffffffff1681526020019081526020016000206000828254610cea9190612c98565b9250508190555050505080610cfe9061293b565b9050610b54565b508473ffffffffffffffffffffffffffffffffffffffff168673ffffffffffffffffffffffffffffffffffffffff168273ffffffffffffffffffffffffffffffffffffffff167f4a39dc06d4c0dbc64b70af90fd698a233a518aa5d07e595d983b8c0526c8f7fb8787604051610d7c929190612ccc565b60405180910390a4610d928187878787876116fb565b610da0818787878787611703565b505050505050565b600073ffffffffffffffffffffffffffffffffffffffff168373ffffffffffffffffffffffffffffffffffffffff1603610e17576040517f08c379a0000000000000000000000000000000000000000000000000000000008152600401610e0e90612d75565b60405180910390fd5b8051825114610e5b576040517f08c379a0000000000000000000000000000000000000000000000000000000008152600401610e5290612b54565b60405180910390fd5b6000610e65610a7c565b9050610e85818560008686604051806020016040528060008152506116f3565b60005b8351811015610fd4576000848281518110610ea657610ea56128dd565b5b602002602001015190506000848381518110610ec557610ec46128dd565b5b6020026020010151905060006065600084815260200190815260200160002060008973ffffffffffffffffffffffffffffffffffffffff1673ffffffffffffffffffffffffffffffffffffffff16815260200190815260200160002054905081811015610f67576040517f08c379a0000000000000000000000000000000000000000000000000000000008152600401610f5e90612e07565b60405180910390fd5b8181036065600085815260200190815260200160002060008a73ffffffffffffffffffffffffffffffffffffffff1673ffffffffffffffffffffffffffffffffffffffff168152602001908152602001600020819055505050508080610fcc9061293b565b915050610e88565b50600073ffffffffffffffffffffffffffffffffffffffff168473ffffffffffffffffffffffffffffffffffffffff168273ffffffffffffffffffffffffffffffffffffffff167f4a39dc06d4c0dbc64b70af90fd698a233a518aa5d07e595d983b8c0526c8f7fb868660405161104c929190612ccc565b60405180910390a4611072818560008686604051806020016040528060008152506116fb565b50505050565b6000808273ffffffffffffffffffffffffffffffffffffffff163b119050919050565b600073ffffffffffffffffffffffffffffffffffffffff168473ffffffffffffffffffffffffffffffffffffffff160361110a576040517f08c379a000000000000000000000000000000000000000000000000000000000815260040161110190612e99565b60405180910390fd5b6000611114610a7c565b90506000611121856118da565b9050600061112e856118da565b905061113f836000898585896116f3565b846065600088815260200190815260200160002060008973ffffffffffffffffffffffffffffffffffffffff1673ffffffffffffffffffffffffffffffffffffffff168152602001908152602001600020600082825461119f9190612c98565b925050819055508673ffffffffffffffffffffffffffffffffffffffff16600073ffffffffffffffffffffffffffffffffffffffff168473ffffffffffffffffffffffffffffffffffffffff167fc3d58168c5ae7397731d063d5bbf3d657854427343f4c083240f7aacaa2d0f62898960405161121d929190612eb9565b60405180910390a4611234836000898585896116fb565b61124383600089898989611954565b50505050505050565b8173ffffffffffffffffffffffffffffffffffffffff168373ffffffffffffffffffffffffffffffffffffffff16036112ba576040517f08c379a00000000000000000000000000000000000000000000000000000000081526004016112b190612f54565b60405180910390fd5b80606660008573ffffffffffffffffffffffffffffffffffffffff1673ffffffffffffffffffffffffffffffffffffffff16815260200190815260200160002060008473ffffffffffffffffffffffffffffffffffffffff1673ffffffffffffffffffffffffffffffffffffffff16815260200190815260200160002060006101000a81548160ff0219169083151502179055508173ffffffffffffffffffffffffffffffffffffffff168373ffffffffffffffffffffffffffffffffffffffff167f17307eab39ab6107e8899845ad3d59bd9653f200f220920489ca2b5937696c31836040516113ab9190611f25565b60405180910390a3505050565b600073ffffffffffffffffffffffffffffffffffffffff168473ffffffffffffffffffffffffffffffffffffffff1603611427576040517f08c379a000000000000000000000000000000000000000000000000000000000815260040161141e90612be6565b60405180910390fd5b6000611431610a7c565b9050600061143e856118da565b9050600061144b856118da565b905061145b8389898585896116f3565b60006065600088815260200190815260200160002060008a73ffffffffffffffffffffffffffffffffffffffff1673ffffffffffffffffffffffffffffffffffffffff168152602001908152602001600020549050858110156114f3576040517f08c379a00000000000000000000000000000000000000000000000000000000081526004016114ea90612c78565b60405180910390fd5b8581036065600089815260200190815260200160002060008b73ffffffffffffffffffffffffffffffffffffffff1673ffffffffffffffffffffffffffffffffffffffff16815260200190815260200160002081905550856065600089815260200190815260200160002060008a73ffffffffffffffffffffffffffffffffffffffff1673ffffffffffffffffffffffffffffffffffffffff16815260200190815260200160002060008282546115aa9190612c98565b925050819055508773ffffffffffffffffffffffffffffffffffffffff168973ffffffffffffffffffffffffffffffffffffffff168573ffffffffffffffffffffffffffffffffffffffff167fc3d58168c5ae7397731d063d5bbf3d657854427343f4c083240f7aacaa2d0f628a8a604051611627929190612eb9565b60405180910390a461163d848a8a86868a6116fb565b61164b848a8a8a8a8a611954565b505050505050505050565b61165e610a7c565b73ffffffffffffffffffffffffffffffffffffffff168373ffffffffffffffffffffffffffffffffffffffff1614806116a457506116a38361169e610a7c565b6108cd565b5b6116e3576040517f08c379a00000000000000000000000000000000000000000000000000000000081526004016116da9061282b565b60405180910390fd5b6116ee838383611b2b565b505050565b505050505050565b505050505050565b6117228473ffffffffffffffffffffffffffffffffffffffff16611078565b156118d2578373ffffffffffffffffffffffffffffffffffffffff1663bc197c8187878686866040518663ffffffff1660e01b8152600401611768959493929190612fd8565b6020604051808303816000875af19250505080156117a457506040513d601f19601f820116820180604052508101906117a19190613055565b60015b611849576117b061308f565b806308c379a00361180c57506117c46130b1565b806117cf575061180e565b806040517f08c379a00000000000000000000000000000000000000000000000000000000081526004016118039190611ffd565b60405180910390fd5b505b6040517f08c379a0000000000000000000000000000000000000000000000000000000008152600401611840906131b3565b60405180910390fd5b63bc197c8160e01b7bffffffffffffffffffffffffffffffffffffffffffffffffffffffff1916817bffffffffffffffffffffffffffffffffffffffffffffffffffffffff1916146118d0576040517f08c379a00000000000000000000000000000000000000000000000000000000081526004016118c790613245565b60405180910390fd5b505b505050505050565b60606000600167ffffffffffffffff8111156118f9576118f8612024565b5b6040519080825280602002602001820160405280156119275781602001602082028036833780820191505090505b509050828160008151811061193f5761193e6128dd565b5b60200260200101818152505080915050919050565b6119738473ffffffffffffffffffffffffffffffffffffffff16611078565b15611b23578373ffffffffffffffffffffffffffffffffffffffff1663f23a6e6187878686866040518663ffffffff1660e01b81526004016119b9959493929190613265565b6020604051808303816000875af19250505080156119f557506040513d601f19601f820116820180604052508101906119f29190613055565b60015b611a9a57611a0161308f565b806308c379a003611a5d5750611a156130b1565b80611a205750611a5f565b806040517f08c379a0000000000000000000000000000000000000000000000000000000008152600401611a549190611ffd565b60405180910390fd5b505b6040517f08c379a0000000000000000000000000000000000000000000000000000000008152600401611a91906131b3565b60405180910390fd5b63f23a6e6160e01b7bffffffffffffffffffffffffffffffffffffffffffffffffffffffff1916817bffffffffffffffffffffffffffffffffffffffffffffffffffffffff191614611b21576040517f08c379a0000000000000000000000000000000000000000000000000000000008152600401611b1890613245565b60405180910390fd5b505b505050505050565b600073ffffffffffffffffffffffffffffffffffffffff168373ffffffffffffffffffffffffffffffffffffffff1603611b9a576040517f08c379a0000000000000000000000000000000000000000000000000000000008152600401611b9190612d75565b60405180910390fd5b6000611ba4610a7c565b90506000611bb1846118da565b90506000611bbe846118da565b9050611bde838760008585604051806020016040528060008152506116f3565b60006065600087815260200190815260200160002060008873ffffffffffffffffffffffffffffffffffffffff1673ffffffffffffffffffffffffffffffffffffffff16815260200190815260200160002054905084811015611c76576040517f08c379a0000000000000000000000000000000000000000000000000000000008152600401611c6d90612e07565b60405180910390fd5b8481036065600088815260200190815260200160002060008973ffffffffffffffffffffffffffffffffffffffff1673ffffffffffffffffffffffffffffffffffffffff16815260200190815260200160002081905550600073ffffffffffffffffffffffffffffffffffffffff168773ffffffffffffffffffffffffffffffffffffffff168573ffffffffffffffffffffffffffffffffffffffff167fc3d58168c5ae7397731d063d5bbf3d657854427343f4c083240f7aacaa2d0f628989604051611d44929190612eb9565b60405180910390a4611d6a848860008686604051806020016040528060008152506116fb565b50505050505050565b6000604051905090565b600080fd5b600080fd5b600073ffffffffffffffffffffffffffffffffffffffff82169050919050565b6000611db282611d87565b9050919050565b611dc281611da7565b8114611dcd57600080fd5b50565b600081359050611ddf81611db9565b92915050565b6000819050919050565b611df881611de5565b8114611e0357600080fd5b50565b600081359050611e1581611def565b92915050565b60008060408385031215611e3257611e31611d7d565b5b6000611e4085828601611dd0565b9250506020611e5185828601611e06565b9150509250929050565b611e6481611de5565b82525050565b6000602082019050611e7f6000830184611e5b565b92915050565b60007fffffffff0000000000000000000000000000000000000000000000000000000082169050919050565b611eba81611e85565b8114611ec557600080fd5b50565b600081359050611ed781611eb1565b92915050565b600060208284031215611ef357611ef2611d7d565b5b6000611f0184828501611ec8565b91505092915050565b60008115159050919050565b611f1f81611f0a565b82525050565b6000602082019050611f3a6000830184611f16565b92915050565b600060208284031215611f5657611f55611d7d565b5b6000611f6484828501611e06565b91505092915050565b600081519050919050565b600082825260208201905092915050565b60005b83811015611fa7578082015181840152602081019050611f8c565b60008484015250505050565b6000601f19601f8301169050919050565b6000611fcf82611f6d565b611fd98185611f78565b9350611fe9818560208601611f89565b611ff281611fb3565b840191505092915050565b600060208201905081810360008301526120178184611fc4565b905092915050565b600080fd5b7f4e487b7100000000000000000000000000000000000000000000000000000000600052604160045260246000fd5b61205c82611fb3565b810181811067ffffffffffffffff8211171561207b5761207a612024565b5b80604052505050565b600061208e611d73565b905061209a8282612053565b919050565b600067ffffffffffffffff8211156120ba576120b9612024565b5b602082029050602081019050919050565b600080fd5b60006120e36120de8461209f565b612084565b90508083825260208201905060208402830185811115612106576121056120cb565b5b835b8181101561212f578061211b8882611e06565b845260208401935050602081019050612108565b5050509392505050565b600082601f83011261214e5761214d61201f565b5b813561215e8482602086016120d0565b91505092915050565b600080fd5b600067ffffffffffffffff82111561218757612186612024565b5b61219082611fb3565b9050602081019050919050565b82818337600083830152505050565b60006121bf6121ba8461216c565b612084565b9050828152602081018484840111156121db576121da612167565b5b6121e684828561219d565b509392505050565b600082601f8301126122035761220261201f565b5b81356122138482602086016121ac565b91505092915050565b600080600080600060a0868803121561223857612237611d7d565b5b600061224688828901611dd0565b955050602061225788828901611dd0565b945050604086013567ffffffffffffffff81111561227857612277611d82565b5b61228488828901612139565b935050606086013567ffffffffffffffff8111156122a5576122a4611d82565b5b6122b188828901612139565b925050608086013567ffffffffffffffff8111156122d2576122d1611d82565b5b6122de888289016121ee565b9150509295509295909350565b600067ffffffffffffffff82111561230657612305612024565b5b602082029050602081019050919050565b600061232a612325846122eb565b612084565b9050808382526020820190506020840283018581111561234d5761234c6120cb565b5b835b8181101561237657806123628882611dd0565b84526020840193505060208101905061234f565b5050509392505050565b600082601f8301126123955761239461201f565b5b81356123a5848260208601612317565b91505092915050565b600080604083850312156123c5576123c4611d7d565b5b600083013567ffffffffffffffff8111156123e3576123e2611d82565b5b6123ef85828601612380565b925050602083013567ffffffffffffffff8111156124105761240f611d82565b5b61241c85828601612139565b9150509250929050565b600081519050919050565b600082825260208201905092915050565b6000819050602082019050919050565b61245b81611de5565b82525050565b600061246d8383612452565b60208301905092915050565b6000602082019050919050565b600061249182612426565b61249b8185612431565b93506124a683612442565b8060005b838110156124d75781516124be8882612461565b97506124c983612479565b9250506001810190506124aa565b5085935050505092915050565b600060208201905081810360008301526124fe8184612486565b905092915050565b60008060006060848603121561251f5761251e611d7d565b5b600061252d86828701611dd0565b935050602084013567ffffffffffffffff81111561254e5761254d611d82565b5b61255a86828701612139565b925050604084013567ffffffffffffffff81111561257b5761257a611d82565b5b61258786828701612139565b9150509250925092565b61259a81611f0a565b81146125a557600080fd5b50565b6000813590506125b781612591565b92915050565b600080604083850312156125d4576125d3611d7d565b5b60006125e285828601611dd0565b92505060206125f3858286016125a8565b9150509250929050565b6000806040838503121561261457612613611d7d565b5b600061262285828601611dd0565b925050602061263385828601611dd0565b9150509250929050565b600080600080600060a0868803121561265957612658611d7d565b5b600061266788828901611dd0565b955050602061267888828901611dd0565b945050604061268988828901611e06565b935050606061269a88828901611e06565b925050608086013567ffffffffffffffff8111156126bb576126ba611d82565b5b6126c7888289016121ee565b9150509295509295909350565b6000806000606084860312156126ed576126ec611d7d565b5b60006126fb86828701611dd0565b935050602061270c86828701611e06565b925050604061271d86828701611e06565b9150509250925092565b7f455243313135353a2061646472657373207a65726f206973206e6f742061207660008201527f616c6964206f776e657200000000000000000000000000000000000000000000602082015250565b6000612783602a83611f78565b915061278e82612727565b604082019050919050565b600060208201905081810360008301526127b281612776565b9050919050565b7f455243313135353a2063616c6c6572206973206e6f7420746f6b656e206f776e60008201527f6572206f7220617070726f766564000000000000000000000000000000000000602082015250565b6000612815602e83611f78565b9150612820826127b9565b604082019050919050565b6000602082019050818103600083015261284481612808565b9050919050565b7f455243313135353a206163636f756e747320616e6420696473206c656e67746860008201527f206d69736d617463680000000000000000000000000000000000000000000000602082015250565b60006128a7602983611f78565b91506128b28261284b565b604082019050919050565b600060208201905081810360008301526128d68161289a565b9050919050565b7f4e487b7100000000000000000000000000000000000000000000000000000000600052603260045260246000fd5b7f4e487b7100000000000000000000000000000000000000000000000000000000600052601160045260246000fd5b600061294682611de5565b91507fffffffffffffffffffffffffffffffffffffffffffffffffffffffffffffffff82036129785761297761290c565b5b600182019050919050565b7f4e487b7100000000000000000000000000000000000000000000000000000000600052602260045260246000fd5b600060028204905060018216806129ca57607f821691505b6020821081036129dd576129dc612983565b5b50919050565b7f496e697469616c697a61626c653a20636f6e747261637420697320616c72656160008201527f647920696e697469616c697a6564000000000000000000000000000000000000602082015250565b6000612a3f602e83611f78565b9150612a4a826129e3565b604082019050919050565b60006020820190508181036000830152612a6e81612a32565b9050919050565b6000819050919050565b600060ff82169050919050565b6000819050919050565b6000612ab1612aac612aa784612a75565b612a8c565b612a7f565b9050919050565b612ac181612a96565b82525050565b6000602082019050612adc6000830184612ab8565b92915050565b7f455243313135353a2069647320616e6420616d6f756e7473206c656e6774682060008201527f6d69736d61746368000000000000000000000000000000000000000000000000602082015250565b6000612b3e602883611f78565b9150612b4982612ae2565b604082019050919050565b60006020820190508181036000830152612b6d81612b31565b9050919050565b7f455243313135353a207472616e7366657220746f20746865207a65726f20616460008201527f6472657373000000000000000000000000000000000000000000000000000000602082015250565b6000612bd0602583611f78565b9150612bdb82612b74565b604082019050919050565b60006020820190508181036000830152612bff81612bc3565b9050919050565b7f455243313135353a20696e73756666696369656e742062616c616e636520666f60008201527f72207472616e7366657200000000000000000000000000000000000000000000602082015250565b6000612c62602a83611f78565b9150612c6d82612c06565b604082019050919050565b60006020820190508181036000830152612c9181612c55565b9050919050565b6000612ca382611de5565b9150612cae83611de5565b9250828201905080821115612cc657612cc561290c565b5b92915050565b60006040820190508181036000830152612ce68185612486565b90508181036020830152612cfa8184612486565b90509392505050565b7f455243313135353a206275726e2066726f6d20746865207a65726f206164647260008201527f6573730000000000000000000000000000000000000000000000000000000000602082015250565b6000612d5f602383611f78565b9150612d6a82612d03565b604082019050919050565b60006020820190508181036000830152612d8e81612d52565b9050919050565b7f455243313135353a206275726e20616d6f756e7420657863656564732062616c60008201527f616e636500000000000000000000000000000000000000000000000000000000602082015250565b6000612df1602483611f78565b9150612dfc82612d95565b604082019050919050565b60006020820190508181036000830152612e2081612de4565b9050919050565b7f455243313135353a206d696e7420746f20746865207a65726f2061646472657360008201527f7300000000000000000000000000000000000000000000000000000000000000602082015250565b6000612e83602183611f78565b9150612e8e82612e27565b604082019050919050565b60006020820190508181036000830152612eb281612e76565b9050919050565b6000604082019050612ece6000830185611e5b565b612edb6020830184611e5b565b9392505050565b7f455243313135353a2073657474696e6720617070726f76616c2073746174757360008201527f20666f722073656c660000000000000000000000000000000000000000000000602082015250565b6000612f3e602983611f78565b9150612f4982612ee2565b604082019050919050565b60006020820190508181036000830152612f6d81612f31565b9050919050565b612f7d81611da7565b82525050565b600081519050919050565b600082825260208201905092915050565b6000612faa82612f83565b612fb48185612f8e565b9350612fc4818560208601611f89565b612fcd81611fb3565b840191505092915050565b600060a082019050612fed6000830188612f74565b612ffa6020830187612f74565b818103604083015261300c8186612486565b905081810360608301526130208185612486565b905081810360808301526130348184612f9f565b90509695505050505050565b60008151905061304f81611eb1565b92915050565b60006020828403121561306b5761306a611d7d565b5b600061307984828501613040565b91505092915050565b60008160e01c9050919050565b600060033d11156130ae5760046000803e6130ab600051613082565b90505b90565b600060443d1061313e576130c3611d73565b60043d036004823e80513d602482011167ffffffffffffffff821117156130eb57505061313e565b808201805167ffffffffffffffff811115613109575050505061313e565b80602083010160043d03850181111561312657505050505061313e565b61313582602001850186612053565b82955050505050505b90565b7f455243313135353a207472616e7366657220746f206e6f6e2d4552433131353560008201527f526563656976657220696d706c656d656e746572000000000000000000000000602082015250565b600061319d603483611f78565b91506131a882613141565b604082019050919050565b600060208201905081810360008301526131cc81613190565b9050919050565b7f455243313135353a204552433131353552656365697665722072656a6563746560008201527f6420746f6b656e73000000000000000000000000000000000000000000000000602082015250565b600061322f602883611f78565b915061323a826131d3565b604082019050919050565b6000602082019050818103600083015261325e81613222565b9050919050565b600060a08201905061327a6000830188612f74565b6132876020830187612f74565b6132946040830186611e5b565b6132a16060830185611e5b565b81810360808301526132b38184612f9f565b9050969550505050505056fe697066733a2f2f516d556b35697035644b5366316978554b43776b793365544a5467554a7546325374546259515a3846486e706f70a26469706673582212205a94263a69d88b629d71d339f141b2444cddf099df8e955fb8a4fe2c44f82f8d64736f6c63430008120033",
  "devdoc": {
    "events": {
      "ApprovalForAll(address,address,bool)": {
        "details": "Emitted when `account` grants or revokes permission to `operator` to transfer their tokens, according to `approved`."
      },
      "Initialized(uint8)": {
        "details": "Triggered when the contract has been initialized or reinitialized."
      },
      "TransferBatch(address,address,address,uint256[],uint256[])": {
        "details": "Equivalent to multiple {TransferSingle} events, where `operator`, `from` and `to` are the same for all transfers."
      },
      "TransferSingle(address,address,address,uint256,uint256)": {
        "details": "Emitted when `value` tokens of token type `id` are transferred from `from` to `to` by `operator`."
      },
      "URI(string,uint256)": {
        "details": "Emitted when the URI for token type `id` changes to `value`, if it is a non-programmatic URI. If an {URI} event was emitted for `id`, the standard https://eips.ethereum.org/EIPS/eip-1155#metadata-extensions[guarantees] that `value` will equal the value returned by {IERC1155MetadataURI-uri}."
      }
    },
    "kind": "dev",
    "methods": {
      "balanceOf(address,uint256)": {
        "details": "See {IERC1155-balanceOf}. Requirements: - `account` cannot be the zero address."
      },
      "balanceOfBatch(address[],uint256[])": {
        "details": "See {IERC1155-balanceOfBatch}. Requirements: - `accounts` and `ids` must have the same length."
      },
      "isApprovedForAll(address,address)": {
        "details": "See {IERC1155-isApprovedForAll}."
      },
      "safeBatchTransferFrom(address,address,uint256[],uint256[],bytes)": {
        "details": "See {IERC1155-safeBatchTransferFrom}."
      },
      "safeTransferFrom(address,address,uint256,uint256,bytes)": {
        "details": "See {IERC1155-safeTransferFrom}."
      },
      "setApprovalForAll(address,bool)": {
        "details": "See {IERC1155-setApprovalForAll}."
      },
      "supportsInterface(bytes4)": {
        "details": "See {IERC165-supportsInterface}."
      },
      "uri(uint256)": {
        "details": "See {IERC1155MetadataURI-uri}. This implementation returns the same URI for *all* token types. It relies on the token type ID substitution mechanism https://eips.ethereum.org/EIPS/eip-1155#metadata[defined in the EIP]. Clients calling this function must replace the `\\{id\\}` substring with the actual token type ID."
      }
    },
    "version": 1
  },
  "userdoc": {
    "kind": "user",
    "methods": {},
    "version": 1
  },
  "storageLayout": {
    "storage": [
      {
        "astId": 415,
        "contract": "contracts/mocks/mERC1155.sol:mERC1155",
        "label": "_initialized",
        "offset": 0,
        "slot": "0",
        "type": "t_uint8"
      },
      {
        "astId": 418,
        "contract": "contracts/mocks/mERC1155.sol:mERC1155",
        "label": "_initializing",
        "offset": 1,
        "slot": "0",
        "type": "t_bool"
      },
      {
        "astId": 4665,
        "contract": "contracts/mocks/mERC1155.sol:mERC1155",
        "label": "__gap",
        "offset": 0,
        "slot": "1",
        "type": "t_array(t_uint256)50_storage"
      },
      {
        "astId": 5460,
        "contract": "contracts/mocks/mERC1155.sol:mERC1155",
        "label": "__gap",
        "offset": 0,
        "slot": "51",
        "type": "t_array(t_uint256)50_storage"
      },
      {
        "astId": 606,
        "contract": "contracts/mocks/mERC1155.sol:mERC1155",
        "label": "_balances",
        "offset": 0,
        "slot": "101",
        "type": "t_mapping(t_uint256,t_mapping(t_address,t_uint256))"
      },
      {
        "astId": 612,
        "contract": "contracts/mocks/mERC1155.sol:mERC1155",
        "label": "_operatorApprovals",
        "offset": 0,
        "slot": "102",
        "type": "t_mapping(t_address,t_mapping(t_address,t_bool))"
      },
      {
        "astId": 614,
        "contract": "contracts/mocks/mERC1155.sol:mERC1155",
        "label": "_uri",
        "offset": 0,
        "slot": "103",
        "type": "t_string_storage"
      },
      {
        "astId": 1821,
        "contract": "contracts/mocks/mERC1155.sol:mERC1155",
        "label": "__gap",
        "offset": 0,
        "slot": "104",
        "type": "t_array(t_uint256)47_storage"
      },
      {
        "astId": 2073,
        "contract": "contracts/mocks/mERC1155.sol:mERC1155",
        "label": "__gap",
        "offset": 0,
        "slot": "151",
        "type": "t_array(t_uint256)50_storage"
      },
      {
        "astId": 11582,
        "contract": "contracts/mocks/mERC1155.sol:mERC1155",
        "label": "tokenuUri",
        "offset": 0,
        "slot": "201",
        "type": "t_string_storage"
      }
    ],
    "types": {
      "t_address": {
        "encoding": "inplace",
        "label": "address",
        "numberOfBytes": "20"
      },
      "t_array(t_uint256)47_storage": {
        "base": "t_uint256",
        "encoding": "inplace",
        "label": "uint256[47]",
        "numberOfBytes": "1504"
      },
      "t_array(t_uint256)50_storage": {
        "base": "t_uint256",
        "encoding": "inplace",
        "label": "uint256[50]",
        "numberOfBytes": "1600"
      },
      "t_bool": {
        "encoding": "inplace",
        "label": "bool",
        "numberOfBytes": "1"
      },
      "t_mapping(t_address,t_bool)": {
        "encoding": "mapping",
        "key": "t_address",
        "label": "mapping(address => bool)",
        "numberOfBytes": "32",
        "value": "t_bool"
      },
      "t_mapping(t_address,t_mapping(t_address,t_bool))": {
        "encoding": "mapping",
        "key": "t_address",
        "label": "mapping(address => mapping(address => bool))",
        "numberOfBytes": "32",
        "value": "t_mapping(t_address,t_bool)"
      },
      "t_mapping(t_address,t_uint256)": {
        "encoding": "mapping",
        "key": "t_address",
        "label": "mapping(address => uint256)",
        "numberOfBytes": "32",
        "value": "t_uint256"
      },
      "t_mapping(t_uint256,t_mapping(t_address,t_uint256))": {
        "encoding": "mapping",
        "key": "t_uint256",
        "label": "mapping(uint256 => mapping(address => uint256))",
        "numberOfBytes": "32",
        "value": "t_mapping(t_address,t_uint256)"
      },
      "t_string_storage": {
        "encoding": "bytes",
        "label": "string",
        "numberOfBytes": "32"
      },
      "t_uint256": {
        "encoding": "inplace",
        "label": "uint256",
        "numberOfBytes": "32"
      },
      "t_uint8": {
        "encoding": "inplace",
        "label": "uint8",
        "numberOfBytes": "1"
      }
    }
  }
}