{
  "address": "0xE640EEFcb9eBfdC5398FeC9905a0ea86c64B9841",
  "abi": [
    {
      "inputs": [],
      "name": "NotAnAdmin",
      "type": "error"
    },
    {
      "inputs": [],
      "name": "NotAuthorized",
      "type": "error"
    },
    {
      "inputs": [],
      "name": "NotTheOwner",
      "type": "error"
    },
    {
      "inputs": [],
      "name": "NotTheStakingContract",
      "type": "error"
    },
    {
      "inputs": [],
      "name": "TokenIsStaked",
      "type": "error"
    },
    {
      "anonymous": false,
      "inputs": [
        {
          "indexed": true,
          "internalType": "address",
          "name": "owner",
          "type": "address"
        },
        {
          "indexed": true,
          "internalType": "address",
          "name": "approved",
          "type": "address"
        },
        {
          "indexed": true,
          "internalType": "uint256",
          "name": "tokenId",
          "type": "uint256"
        }
      ],
      "name": "Approval",
      "type": "event"
    },
    {
      "anonymous": false,
      "inputs": [
        {
          "indexed": true,
          "internalType": "address",
          "name": "owner",
          "type": "address"
        },
        {
          "indexed": true,
          "internalType": "address",
          "name": "operator",
          "type": "address"
        },
        {
          "indexed": false,
          "internalType": "bool",
          "name": "approved",
          "type": "bool"
        }
      ],
      "name": "ApprovalForAll",
      "type": "event"
    },
    {
      "anonymous": false,
      "inputs": [
        {
          "indexed": true,
          "internalType": "uint256",
          "name": "tokenId",
          "type": "uint256"
        },
        {
          "indexed": true,
          "internalType": "uint256",
          "name": "amount",
          "type": "uint256"
        }
      ],
      "name": "FarmerSkillUpdated",
      "type": "event"
    },
    {
      "anonymous": false,
      "inputs": [
        {
          "indexed": true,
          "internalType": "uint256",
          "name": "tokenId",
          "type": "uint256"
        },
        {
          "indexed": true,
          "internalType": "uint256",
          "name": "amount",
          "type": "uint256"
        }
      ],
      "name": "FightersSkillUpdated",
      "type": "event"
    },
    {
      "anonymous": false,
      "inputs": [
        {
          "indexed": false,
          "internalType": "uint8",
          "name": "version",
          "type": "uint8"
        }
      ],
      "name": "Initialized",
      "type": "event"
    },
    {
      "anonymous": false,
      "inputs": [
        {
          "indexed": true,
          "internalType": "uint256",
          "name": "tokenId",
          "type": "uint256"
        },
        {
          "indexed": true,
          "internalType": "uint256",
          "name": "amount",
          "type": "uint256"
        }
      ],
      "name": "MysticsSkillUpdated",
      "type": "event"
    },
    {
      "anonymous": false,
      "inputs": [
        {
          "indexed": true,
          "internalType": "bytes32",
          "name": "role",
          "type": "bytes32"
        },
        {
          "indexed": true,
          "internalType": "bytes32",
          "name": "previousAdminRole",
          "type": "bytes32"
        },
        {
          "indexed": true,
          "internalType": "bytes32",
          "name": "newAdminRole",
          "type": "bytes32"
        }
      ],
      "name": "RoleAdminChanged",
      "type": "event"
    },
    {
      "anonymous": false,
      "inputs": [
        {
          "indexed": true,
          "internalType": "bytes32",
          "name": "role",
          "type": "bytes32"
        },
        {
          "indexed": true,
          "internalType": "address",
          "name": "account",
          "type": "address"
        },
        {
          "indexed": true,
          "internalType": "address",
          "name": "sender",
          "type": "address"
        }
      ],
      "name": "RoleGranted",
      "type": "event"
    },
    {
      "anonymous": false,
      "inputs": [
        {
          "indexed": true,
          "internalType": "bytes32",
          "name": "role",
          "type": "bytes32"
        },
        {
          "indexed": true,
          "internalType": "address",
          "name": "account",
          "type": "address"
        },
        {
          "indexed": true,
          "internalType": "address",
          "name": "sender",
          "type": "address"
        }
      ],
      "name": "RoleRevoked",
      "type": "event"
    },
    {
      "anonymous": false,
      "inputs": [
        {
          "indexed": false,
          "internalType": "address",
          "name": "to",
          "type": "address"
        },
        {
          "indexed": false,
          "internalType": "uint256",
          "name": "tokenId",
          "type": "uint256"
        }
      ],
      "name": "SmolNeanderMint",
      "type": "event"
    },
    {
      "anonymous": false,
      "inputs": [
        {
          "indexed": true,
          "internalType": "uint256",
          "name": "tokenId",
          "type": "uint256"
        },
        {
          "indexed": false,
          "internalType": "bool",
          "name": "state",
          "type": "bool"
        }
      ],
      "name": "StakeState",
      "type": "event"
    },
    {
      "anonymous": false,
      "inputs": [
        {
          "indexed": true,
          "internalType": "address",
          "name": "from",
          "type": "address"
        },
        {
          "indexed": true,
          "internalType": "address",
          "name": "to",
          "type": "address"
        },
        {
          "indexed": true,
          "internalType": "uint256",
          "name": "tokenId",
          "type": "uint256"
        }
      ],
      "name": "Transfer",
      "type": "event"
    },
    {
      "anonymous": false,
      "inputs": [
        {
          "indexed": false,
          "internalType": "uint256",
          "name": "tokenId",
          "type": "uint256"
        },
        {
          "indexed": false,
          "internalType": "uint256",
          "name": "commonSense",
          "type": "uint256"
        }
      ],
      "name": "commonSenseUpdated",
      "type": "event"
    },
    {
      "anonymous": false,
      "inputs": [
        {
          "indexed": false,
          "internalType": "string",
          "name": "newURI",
          "type": "string"
        }
      ],
      "name": "uriUpdate",
      "type": "event"
    },
    {
      "inputs": [],
      "name": "DEFAULT_ADMIN_ROLE",
      "outputs": [
        {
          "internalType": "bytes32",
          "name": "",
          "type": "bytes32"
        }
      ],
      "stateMutability": "view",
      "type": "function"
    },
    {
      "inputs": [],
      "name": "SMOLNEANDER_ADMIN_ROLE",
      "outputs": [
        {
          "internalType": "bytes32",
          "name": "",
          "type": "bytes32"
        }
      ],
      "stateMutability": "view",
      "type": "function"
    },
    {
      "inputs": [],
      "name": "SMOLNEANDER_CONTRACT_ROLE",
      "outputs": [
        {
          "internalType": "bytes32",
          "name": "",
          "type": "bytes32"
        }
      ],
      "stateMutability": "view",
      "type": "function"
    },
    {
      "inputs": [],
      "name": "SMOLNEANDER_DEV_GROUND_ROLE",
      "outputs": [
        {
          "internalType": "bytes32",
          "name": "",
          "type": "bytes32"
        }
      ],
      "stateMutability": "view",
      "type": "function"
    },
    {
      "inputs": [],
      "name": "SMOLNEANDER_OWNER_ROLE",
      "outputs": [
        {
          "internalType": "bytes32",
          "name": "",
          "type": "bytes32"
        }
      ],
      "stateMutability": "view",
      "type": "function"
    },
    {
      "inputs": [],
      "name": "_tokenIdTracker",
      "outputs": [
        {
          "internalType": "uint256",
          "name": "_value",
          "type": "uint256"
        }
      ],
      "stateMutability": "view",
      "type": "function"
    },
    {
      "inputs": [
        {
          "internalType": "address",
          "name": "to",
          "type": "address"
        },
        {
          "internalType": "uint256",
          "name": "tokenId",
          "type": "uint256"
        }
      ],
      "name": "approve",
      "outputs": [],
      "stateMutability": "nonpayable",
      "type": "function"
    },
    {
      "inputs": [
        {
          "internalType": "address",
          "name": "owner",
          "type": "address"
        }
      ],
      "name": "balanceOf",
      "outputs": [
        {
          "internalType": "uint256",
          "name": "",
          "type": "uint256"
        }
      ],
      "stateMutability": "view",
      "type": "function"
    },
    {
      "inputs": [],
      "name": "baseURI",
      "outputs": [
        {
          "internalType": "string",
          "name": "",
          "type": "string"
        }
      ],
      "stateMutability": "view",
      "type": "function"
    },
    {
      "inputs": [
        {
          "internalType": "uint256",
          "name": "",
          "type": "uint256"
        }
      ],
      "name": "commonSense",
      "outputs": [
        {
          "internalType": "uint256",
          "name": "",
          "type": "uint256"
        }
      ],
      "stateMutability": "view",
      "type": "function"
    },
    {
      "inputs": [],
      "name": "commonSenseMaxLevel",
      "outputs": [
        {
          "internalType": "uint256",
          "name": "",
          "type": "uint256"
        }
      ],
      "stateMutability": "view",
      "type": "function"
    },
    {
      "inputs": [],
      "name": "decimals",
      "outputs": [
        {
          "internalType": "uint256",
          "name": "",
          "type": "uint256"
        }
      ],
      "stateMutability": "view",
      "type": "function"
    },
    {
      "inputs": [],
      "name": "devGround",
      "outputs": [
        {
          "internalType": "address",
          "name": "",
          "type": "address"
        }
      ],
      "stateMutability": "view",
      "type": "function"
    },
    {
      "inputs": [
        {
          "internalType": "uint256",
          "name": "_tokenId",
          "type": "uint256"
        },
        {
          "internalType": "uint256",
          "name": "_amount",
          "type": "uint256"
        }
      ],
      "name": "developFarmers",
      "outputs": [],
      "stateMutability": "nonpayable",
      "type": "function"
    },
    {
      "inputs": [
        {
          "internalType": "uint256",
          "name": "_tokenId",
          "type": "uint256"
        },
        {
          "internalType": "uint256",
          "name": "_amount",
          "type": "uint256"
        }
      ],
      "name": "developFighter",
      "outputs": [],
      "stateMutability": "nonpayable",
      "type": "function"
    },
    {
      "inputs": [
        {
          "internalType": "uint256",
          "name": "_tokenId",
          "type": "uint256"
        },
        {
          "internalType": "uint256",
          "name": "_amount",
          "type": "uint256"
        }
      ],
      "name": "developMystics",
      "outputs": [],
      "stateMutability": "nonpayable",
      "type": "function"
    },
    {
      "inputs": [],
      "name": "flipPublicState",
      "outputs": [],
      "stateMutability": "nonpayable",
      "type": "function"
    },
    {
      "inputs": [
        {
          "internalType": "uint256",
          "name": "tokenId",
          "type": "uint256"
        }
      ],
      "name": "getApproved",
      "outputs": [
        {
          "internalType": "address",
          "name": "",
          "type": "address"
        }
      ],
      "stateMutability": "view",
      "type": "function"
    },
    {
      "inputs": [
        {
          "internalType": "uint256",
          "name": "_tokenId",
          "type": "uint256"
        }
      ],
      "name": "getCommonSense",
      "outputs": [
        {
          "internalType": "uint256",
          "name": "",
          "type": "uint256"
        }
      ],
      "stateMutability": "view",
      "type": "function"
    },
    {
      "inputs": [
        {
          "internalType": "uint256",
          "name": "_tokenId",
          "type": "uint256"
        }
      ],
      "name": "getPrimarySkill",
      "outputs": [
        {
          "components": [
            {
              "internalType": "uint256",
              "name": "mystics",
              "type": "uint256"
            },
            {
              "internalType": "uint256",
              "name": "farmers",
              "type": "uint256"
            },
            {
              "internalType": "uint256",
              "name": "fighters",
              "type": "uint256"
            }
          ],
          "internalType": "struct NeanderSmol.PrimarySkill",
          "name": "",
          "type": "tuple"
        }
      ],
      "stateMutability": "view",
      "type": "function"
    },
    {
      "inputs": [
        {
          "internalType": "bytes32",
          "name": "role",
          "type": "bytes32"
        }
      ],
      "name": "getRoleAdmin",
      "outputs": [
        {
          "internalType": "bytes32",
          "name": "",
          "type": "bytes32"
        }
      ],
      "stateMutability": "view",
      "type": "function"
    },
    {
      "inputs": [
        {
          "internalType": "address",
          "name": "_admin",
          "type": "address"
        }
      ],
      "name": "grantAdmin",
      "outputs": [],
      "stateMutability": "nonpayable",
      "type": "function"
    },
    {
      "inputs": [
        {
          "internalType": "address",
          "name": "_devGround",
          "type": "address"
        }
      ],
      "name": "grantDevGround",
      "outputs": [],
      "stateMutability": "nonpayable",
      "type": "function"
    },
    {
      "inputs": [
        {
          "internalType": "address",
          "name": "_owner",
          "type": "address"
        }
      ],
      "name": "grantOwner",
      "outputs": [],
      "stateMutability": "nonpayable",
      "type": "function"
    },
    {
      "inputs": [
        {
          "internalType": "bytes32",
          "name": "role",
          "type": "bytes32"
        },
        {
          "internalType": "address",
          "name": "account",
          "type": "address"
        }
      ],
      "name": "grantRole",
      "outputs": [],
      "stateMutability": "nonpayable",
      "type": "function"
    },
    {
      "inputs": [
        {
          "internalType": "address",
          "name": "_contract",
          "type": "address"
        }
      ],
      "name": "grantStaking",
      "outputs": [],
      "stateMutability": "nonpayable",
      "type": "function"
    },
    {
      "inputs": [
        {
          "internalType": "address[]",
          "name": "_contracts",
          "type": "address[]"
        }
      ],
      "name": "grantStakingContracts",
      "outputs": [],
      "stateMutability": "nonpayable",
      "type": "function"
    },
    {
      "inputs": [
        {
          "internalType": "bytes32",
          "name": "role",
          "type": "bytes32"
        },
        {
          "internalType": "address",
          "name": "account",
          "type": "address"
        }
      ],
      "name": "hasRole",
      "outputs": [
        {
          "internalType": "bool",
          "name": "",
          "type": "bool"
        }
      ],
      "stateMutability": "view",
      "type": "function"
    },
    {
      "inputs": [],
      "name": "initialize",
      "outputs": [],
      "stateMutability": "nonpayable",
      "type": "function"
    },
    {
      "inputs": [],
      "name": "initializeAccess",
      "outputs": [],
      "stateMutability": "nonpayable",
      "type": "function"
    },
    {
      "inputs": [
        {
          "internalType": "address",
          "name": "_admin",
          "type": "address"
        }
      ],
      "name": "isAdmin",
      "outputs": [
        {
          "internalType": "bool",
          "name": "",
          "type": "bool"
        }
      ],
      "stateMutability": "view",
      "type": "function"
    },
    {
      "inputs": [
        {
          "internalType": "address",
          "name": "owner",
          "type": "address"
        },
        {
          "internalType": "address",
          "name": "operator",
          "type": "address"
        }
      ],
      "name": "isApprovedForAll",
      "outputs": [
        {
          "internalType": "bool",
          "name": "",
          "type": "bool"
        }
      ],
      "stateMutability": "view",
      "type": "function"
    },
    {
      "inputs": [
        {
          "internalType": "address",
          "name": "_devGround",
          "type": "address"
        }
      ],
      "name": "isDevGround",
      "outputs": [
        {
          "internalType": "bool",
          "name": "",
          "type": "bool"
        }
      ],
      "stateMutability": "view",
      "type": "function"
    },
    {
      "inputs": [
        {
          "internalType": "address",
          "name": "_owner",
          "type": "address"
        }
      ],
      "name": "isOwner",
      "outputs": [
        {
          "internalType": "bool",
          "name": "",
          "type": "bool"
        }
      ],
      "stateMutability": "view",
      "type": "function"
    },
    {
      "inputs": [
        {
          "internalType": "address",
          "name": "_contract",
          "type": "address"
        }
      ],
      "name": "isStakingContract",
      "outputs": [
        {
          "internalType": "bool",
          "name": "",
          "type": "bool"
        }
      ],
      "stateMutability": "view",
      "type": "function"
    },
    {
      "inputs": [],
      "name": "name",
      "outputs": [
        {
          "internalType": "string",
          "name": "",
          "type": "string"
        }
      ],
      "stateMutability": "view",
      "type": "function"
    },
    {
      "inputs": [
        {
          "internalType": "uint256",
          "name": "tokenId",
          "type": "uint256"
        }
      ],
      "name": "ownerOf",
      "outputs": [
        {
          "internalType": "address",
          "name": "",
          "type": "address"
        }
      ],
      "stateMutability": "view",
      "type": "function"
    },
    {
      "inputs": [],
      "name": "publicActive",
      "outputs": [
        {
          "internalType": "bool",
          "name": "",
          "type": "bool"
        }
      ],
      "stateMutability": "view",
      "type": "function"
    },
    {
      "inputs": [
        {
          "internalType": "uint256",
          "name": "amount",
          "type": "uint256"
        }
      ],
      "name": "publicMint",
      "outputs": [],
      "stateMutability": "nonpayable",
      "type": "function"
    },
    {
      "inputs": [],
      "name": "publicPrice",
      "outputs": [
        {
          "internalType": "uint256",
          "name": "",
          "type": "uint256"
        }
      ],
      "stateMutability": "view",
      "type": "function"
    },
    {
      "inputs": [
        {
          "internalType": "bytes32",
          "name": "role",
          "type": "bytes32"
        },
        {
          "internalType": "address",
          "name": "account",
          "type": "address"
        }
      ],
      "name": "renounceRole",
      "outputs": [],
      "stateMutability": "nonpayable",
      "type": "function"
    },
    {
      "inputs": [
        {
          "internalType": "bytes32",
          "name": "role",
          "type": "bytes32"
        },
        {
          "internalType": "address",
          "name": "account",
          "type": "address"
        }
      ],
      "name": "revokeRole",
      "outputs": [],
      "stateMutability": "nonpayable",
      "type": "function"
    },
    {
      "inputs": [
        {
          "internalType": "address",
          "name": "from",
          "type": "address"
        },
        {
          "internalType": "address",
          "name": "to",
          "type": "address"
        },
        {
          "internalType": "uint256",
          "name": "tokenId",
          "type": "uint256"
        }
      ],
      "name": "safeTransferFrom",
      "outputs": [],
      "stateMutability": "nonpayable",
      "type": "function"
    },
    {
      "inputs": [
        {
          "internalType": "address",
          "name": "from",
          "type": "address"
        },
        {
          "internalType": "address",
          "name": "to",
          "type": "address"
        },
        {
          "internalType": "uint256",
          "name": "tokenId",
          "type": "uint256"
        },
        {
          "internalType": "bytes",
          "name": "data",
          "type": "bytes"
        }
      ],
      "name": "safeTransferFrom",
      "outputs": [],
      "stateMutability": "nonpayable",
      "type": "function"
    },
    {
      "inputs": [
        {
          "internalType": "address",
          "name": "operator",
          "type": "address"
        },
        {
          "internalType": "bool",
          "name": "approved",
          "type": "bool"
        }
      ],
      "name": "setApprovalForAll",
      "outputs": [],
      "stateMutability": "nonpayable",
      "type": "function"
    },
    {
      "inputs": [
        {
          "internalType": "string",
          "name": "newBaseURI",
          "type": "string"
        }
      ],
      "name": "setBaseURI",
      "outputs": [],
      "stateMutability": "nonpayable",
      "type": "function"
    },
    {
      "inputs": [
        {
          "internalType": "uint256",
          "name": "amount",
          "type": "uint256"
        }
      ],
      "name": "setPublicPrice",
      "outputs": [],
      "stateMutability": "nonpayable",
      "type": "function"
    },
    {
      "inputs": [
        {
          "internalType": "uint256",
          "name": "",
          "type": "uint256"
        }
      ],
      "name": "staked",
      "outputs": [
        {
          "internalType": "bool",
          "name": "",
          "type": "bool"
        }
      ],
      "stateMutability": "view",
      "type": "function"
    },
    {
      "inputs": [
        {
          "internalType": "uint256",
          "name": "_tokenId",
          "type": "uint256"
        },
        {
          "internalType": "bool",
          "name": "_state",
          "type": "bool"
        }
      ],
      "name": "stakingHandler",
      "outputs": [],
      "stateMutability": "nonpayable",
      "type": "function"
    },
    {
      "inputs": [
        {
          "internalType": "bytes4",
          "name": "interfaceId",
          "type": "bytes4"
        }
      ],
      "name": "supportsInterface",
      "outputs": [
        {
          "internalType": "bool",
          "name": "",
          "type": "bool"
        }
      ],
      "stateMutability": "view",
      "type": "function"
    },
    {
      "inputs": [],
      "name": "symbol",
      "outputs": [
        {
          "internalType": "string",
          "name": "",
          "type": "string"
        }
      ],
      "stateMutability": "view",
      "type": "function"
    },
    {
      "inputs": [
        {
          "internalType": "uint256",
          "name": "index",
          "type": "uint256"
        }
      ],
      "name": "tokenByIndex",
      "outputs": [
        {
          "internalType": "uint256",
          "name": "",
          "type": "uint256"
        }
      ],
      "stateMutability": "view",
      "type": "function"
    },
    {
      "inputs": [
        {
          "internalType": "address",
          "name": "owner",
          "type": "address"
        },
        {
          "internalType": "uint256",
          "name": "index",
          "type": "uint256"
        }
      ],
      "name": "tokenOfOwnerByIndex",
      "outputs": [
        {
          "internalType": "uint256",
          "name": "",
          "type": "uint256"
        }
      ],
      "stateMutability": "view",
      "type": "function"
    },
    {
      "inputs": [
        {
          "internalType": "uint256",
          "name": "",
          "type": "uint256"
        }
      ],
      "name": "tokenURI",
      "outputs": [
        {
          "internalType": "string",
          "name": "",
          "type": "string"
        }
      ],
      "stateMutability": "view",
      "type": "function"
    },
    {
      "inputs": [],
      "name": "totalSupply",
      "outputs": [
        {
          "internalType": "uint256",
          "name": "",
          "type": "uint256"
        }
      ],
      "stateMutability": "view",
      "type": "function"
    },
    {
      "inputs": [
        {
          "internalType": "address",
          "name": "from",
          "type": "address"
        },
        {
          "internalType": "address",
          "name": "to",
          "type": "address"
        },
        {
          "internalType": "uint256",
          "name": "tokenId",
          "type": "uint256"
        }
      ],
      "name": "transferFrom",
      "outputs": [],
      "stateMutability": "nonpayable",
      "type": "function"
    },
    {
      "inputs": [
        {
          "internalType": "uint256",
          "name": "_tokenId",
          "type": "uint256"
        },
        {
          "internalType": "uint256",
          "name": "amount",
          "type": "uint256"
        }
      ],
      "name": "updateCommonSense",
      "outputs": [],
      "stateMutability": "nonpayable",
      "type": "function"
    },
    {
      "inputs": [],
      "name": "withdrawAll",
      "outputs": [],
      "stateMutability": "nonpayable",
      "type": "function"
    }
  ],
  "transactionHash": "0x93ec15baa810571ff1b815eec3bd85198800c8d7fb826422680c1d7917db9f3c",
  "args": [],
  "numDeployments": 1,
  "solcInputHash": "070a5701f9e111a1f42aaaea5d321db4",
  "bytecode": "0x608060405234801561001057600080fd5b5061598c80620000216000396000f3fe608060405234801561001057600080fd5b506004361061038e5760003560e01c80635e1bef32116101de578063a22cb4651161010f578063c87b56dd116100ad578063e0c505771161007c578063e0c5057714610a8f578063e985e9c514610aab578063ec95461e14610adb578063f822a5b214610af95761038e565b8063c87b56dd14610a09578063cf1c7d8414610a39578063d547741f14610a57578063dc97805914610a735761038e565b8063b8673a3f116100e9578063b8673a3f14610995578063b88d4fde146109b3578063c1c4db7f146109cf578063c6275255146109ed5761038e565b8063a22cb4651461093d578063a945bf8014610959578063b6ddc8a1146109775761038e565b8063853828b61161017c57806391d148541161015657806391d14854146108b357806395d89b41146108e357806398bcede914610901578063a217fddf1461091f5761038e565b8063853828b61461086f578063882b1808146108795780638dd919bb146108835761038e565b80636c0360eb116101b85780636c0360eb146107fb57806370a0823114610819578063743f4e94146108495780638129fc1c146108655761038e565b80635e1bef321461076b57806362cd8ade1461079b5780636352211e146107cb5761038e565b80632a25e57c116102c357806336568abe1161026157806342842e0e1161023057806342842e0e146106e7578063458b4336146107035780634f6ccce71461071f57806355f804b31461074f5761038e565b806336568abe1461067357806337bf06a61461068f5780633f2981cf146106ab57806341754c57146106c95761038e565b80632f54bf6e1161029d5780632f54bf6e146105d95780632f745c5914610609578063313ce5671461063957806335bb3e16146106575761038e565b80632a25e57c146105855780632db11544146105a15780632f2ff15d146105bd5761038e565b806323b872dd116103305780632548b9b01161030a5780632548b9b014610513578063261b2fda1461051d57806329eef985146105395780632a1f4146146105555761038e565b806323b872dd14610497578063248a9ca3146104b357806324d7806c146104e35761038e565b806306fdde031161036c57806306fdde031461040f578063081812fc1461042d578063095ea7b31461045d57806318160ddd146104795761038e565b806301ffc9a714610393578063067ea392146103c357806306df2719146103df575b600080fd5b6103ad60048036038101906103a89190613ec8565b610b29565b6040516103ba9190613f10565b60405180910390f35b6103dd60048036038101906103d89190613f61565b610b4b565b005b6103f960048036038101906103f49190613fff565b610bea565b6040516104069190613f10565b60405180910390f35b610417610c1d565b60405161042491906140c5565b60405180910390f35b610447600480360381019061044291906140e7565b610caf565b6040516104549190614123565b60405180910390f35b6104776004803603810190610472919061413e565b610cf5565b005b610481610e0c565b60405161048e919061418d565b60405180910390f35b6104b160048036038101906104ac91906141a8565b610e19565b005b6104cd60048036038101906104c89190614231565b610e79565b6040516104da919061426d565b60405180910390f35b6104fd60048036038101906104f89190613fff565b610e99565b60405161050a9190613f10565b60405180910390f35b61051b610ecc565b005b61053760048036038101906105329190613f61565b6110bf565b005b610553600480360381019061054e91906142ed565b6111ca565b005b61056f600480360381019061056a91906140e7565b61121e565b60405161057c919061438b565b60405180910390f35b61059f600480360381019061059a9190613fff565b61126a565b005b6105bb60048036038101906105b691906140e7565b611297565b005b6105d760048036038101906105d291906143a6565b6113a8565b005b6105f360048036038101906105ee9190613fff565b6113c9565b6040516106009190613f10565b60405180910390f35b610623600480360381019061061e919061413e565b6113fc565b604051610630919061418d565b60405180910390f35b6106416114a1565b60405161064e919061418d565b60405180910390f35b610671600480360381019061066c9190613fff565b6114a7565b005b61068d600480360381019061068891906143a6565b6114d4565b005b6106a960048036038101906106a49190614412565b611557565b005b6106b3611605565b6040516106c09190613f10565b60405180910390f35b6106d1611618565b6040516106de919061418d565b60405180910390f35b61070160048036038101906106fc91906141a8565b61161e565b005b61071d60048036038101906107189190613fff565b61163e565b005b610739600480360381019061073491906140e7565b61166a565b604051610746919061418d565b60405180910390f35b61076960048036038101906107649190614582565b6116db565b005b610785600480360381019061078091906140e7565b611772565b6040516107929190613f10565b60405180910390f35b6107b560048036038101906107b09190613fff565b611793565b6040516107c29190613f10565b60405180910390f35b6107e560048036038101906107e091906140e7565b6117c5565b6040516107f29190614123565b60405180910390f35b61080361184b565b60405161081091906140c5565b60405180910390f35b610833600480360381019061082e9190613fff565b6118d9565b604051610840919061418d565b60405180910390f35b610863600480360381019061085e9190613f61565b611990565b005b61086d611a2f565b005b610877611c50565b005b610881611e1c565b005b61089d600480360381019061089891906140e7565b611e8e565b6040516108aa919061418d565b60405180910390f35b6108cd60048036038101906108c891906143a6565b611ea7565b6040516108da9190613f10565b60405180910390f35b6108eb611f12565b6040516108f891906140c5565b60405180910390f35b610909611fa4565b604051610916919061418d565b60405180910390f35b610927611fb0565b604051610934919061426d565b60405180910390f35b610957600480360381019061095291906145cb565b611fb7565b005b610961611fcd565b60405161096e919061418d565b60405180910390f35b61097f611fd4565b60405161098c9190614123565b60405180910390f35b61099d611ffb565b6040516109aa919061426d565b60405180910390f35b6109cd60048036038101906109c891906146ac565b61201e565b005b6109d7612080565b6040516109e4919061426d565b60405180910390f35b610a076004803603810190610a0291906140e7565b6120a4565b005b610a236004803603810190610a1e91906140e7565b6120f5565b604051610a3091906140c5565b60405180910390f35b610a41612117565b604051610a4e919061426d565b60405180910390f35b610a716004803603810190610a6c91906143a6565b61213b565b005b610a8d6004803603810190610a889190613fff565b61215c565b005b610aa96004803603810190610aa49190613f61565b612189565b005b610ac56004803603810190610ac0919061472f565b612228565b604051610ad29190613f10565b60405180910390f35b610ae36122bc565b604051610af0919061426d565b60405180910390f35b610b136004803603810190610b0e91906140e7565b6122e0565b604051610b20919061418d565b60405180910390f35b6000610b3482612317565b80610b445750610b4382612391565b5b9050919050565b610b5433611793565b610b8a576040517fea8e4eb500000000000000000000000000000000000000000000000000000000815260040160405180910390fd5b8061010360008481526020019081526020016000206001016000828254610bb1919061479e565b9250508190555080827f46aff80f5a0f8e2858db912b4f55d84a73e02bcf0db483da3113e39f4d61800360405160405180910390a35050565b6000610c167fa619569270f7f4a1d8f7ed82794221f15c6f8595dada80d85ac4e31cdd6fe04c83611ea7565b9050919050565b606060978054610c2c90614823565b80601f0160208091040260200160405190810160405280929190818152602001828054610c5890614823565b8015610ca55780601f10610c7a57610100808354040283529160200191610ca5565b820191906000526020600020905b815481529060010190602001808311610c8857829003601f168201915b5050505050905090565b6000610cba8261240b565b609b600083815260200190815260200160002060009054906101000a900473ffffffffffffffffffffffffffffffffffffffff169050919050565b6000610d00826117c5565b90508073ffffffffffffffffffffffffffffffffffffffff168373ffffffffffffffffffffffffffffffffffffffff1603610d70576040517f08c379a0000000000000000000000000000000000000000000000000000000008152600401610d67906148c6565b60405180910390fd5b8073ffffffffffffffffffffffffffffffffffffffff16610d8f612456565b73ffffffffffffffffffffffffffffffffffffffff161480610dbe5750610dbd81610db8612456565b612228565b5b610dfd576040517f08c379a0000000000000000000000000000000000000000000000000000000008152600401610df490614958565b60405180910390fd5b610e07838361245e565b505050565b600060cb80549050905090565b610e2a610e24612456565b82612517565b610e69576040517f08c379a0000000000000000000000000000000000000000000000000000000008152600401610e60906149ea565b60405180910390fd5b610e748383836125ac565b505050565b600060656000838152602001908152602001600020600101549050919050565b6000610ec57f3b351bd1fe2dfe571b64d5c9adc99cfeeccb1e4f46d0485613dcb1ff87242f4d83611ea7565b9050919050565b600060019054906101000a900460ff16610f1b576040517f08c379a0000000000000000000000000000000000000000000000000000000008152600401610f1290614a7c565b60405180910390fd5b610f236128a5565b610f4d7f9aa77ce78f008f23606e6755d96256721080001bc839bd46f3566a5b8e3f3188806128f6565b610f977fa619569270f7f4a1d8f7ed82794221f15c6f8595dada80d85ac4e31cdd6fe04c7f9aa77ce78f008f23606e6755d96256721080001bc839bd46f3566a5b8e3f31886128f6565b610fe07ee9ab62a5761636687b05e2e7b04f22689d99792df38552d31664fa3f9584097f9aa77ce78f008f23606e6755d96256721080001bc839bd46f3566a5b8e3f31886128f6565b61102a7f3b351bd1fe2dfe571b64d5c9adc99cfeeccb1e4f46d0485613dcb1ff87242f4d7f9aa77ce78f008f23606e6755d96256721080001bc839bd46f3566a5b8e3f31886128f6565b61105b7f9aa77ce78f008f23606e6755d96256721080001bc839bd46f3566a5b8e3f3188611056612456565b612952565b61108c7fa619569270f7f4a1d8f7ed82794221f15c6f8595dada80d85ac4e31cdd6fe04c611087612456565b612952565b6110bd7f3b351bd1fe2dfe571b64d5c9adc99cfeeccb1e4f46d0485613dcb1ff87242f4d6110b8612456565b612952565b565b6110cf6110ca612456565b6113c9565b611105576040517f36b6b89500000000000000000000000000000000000000000000000000000000815260040160405180910390fd5b60fe5481610105600085815260200190815260200160002054611128919061479e565b1061114d5760fe54610105600084815260200190815260200160002081905550611179565b8061010560008481526020019081526020016000206000828254611171919061479e565b925050819055505b7f78ebbea0f2bcf8b35cdcad5cb93b4c13bc6d80b2e6ec67dfc1cfc85db8ddaeb1826101056000858152602001908152602001600020546040516111be929190614a9c565b60405180910390a15050565b60005b82829050811015611219576112088383838181106111ee576111ed614ac5565b5b90506020020160208101906112039190613fff565b61126a565b8061121290614af4565b90506111cd565b505050565b611226613d98565b610103600083815260200190815260200160002060405180606001604052908160008201548152602001600182015481526020016002820154815250509050919050565b6112947fa619569270f7f4a1d8f7ed82794221f15c6f8595dada80d85ac4e31cdd6fe04c826113a8565b50565b601e8161010760003373ffffffffffffffffffffffffffffffffffffffff1673ffffffffffffffffffffffffffffffffffffffff168152602001908152602001600020546112e5919061479e565b1115611326576040517f08c379a000000000000000000000000000000000000000000000000000000000815260040161131d90614b88565b60405180910390fd5b8061010760003373ffffffffffffffffffffffffffffffffffffffff1673ffffffffffffffffffffffffffffffffffffffff1681526020019081526020016000206000828254611376919061479e565b9250508190555060005b818110156113a45761139133612960565b808061139c90614af4565b915050611380565b5050565b6113b182610e79565b6113ba81612a04565b6113c48383612a18565b505050565b60006113f57f9aa77ce78f008f23606e6755d96256721080001bc839bd46f3566a5b8e3f318883611ea7565b9050919050565b6000611407836118d9565b8210611448576040517f08c379a000000000000000000000000000000000000000000000000000000000815260040161143f90614c1a565b60405180910390fd5b60c960008473ffffffffffffffffffffffffffffffffffffffff1673ffffffffffffffffffffffffffffffffffffffff168152602001908152602001600020600083815260200190815260200160002054905092915050565b60fd5481565b6114d17f3b351bd1fe2dfe571b64d5c9adc99cfeeccb1e4f46d0485613dcb1ff87242f4d826113a8565b50565b6114dc612456565b73ffffffffffffffffffffffffffffffffffffffff168173ffffffffffffffffffffffffffffffffffffffff1614611549576040517f08c379a000000000000000000000000000000000000000000000000000000000815260040161154090614cac565b60405180910390fd5b6115538282612af9565b5050565b611567611562612456565b610bea565b61159d576040517fcc8576e900000000000000000000000000000000000000000000000000000000815260040160405180910390fd5b80610104600084815260200190815260200160002060006101000a81548160ff021916908315150217905550817fa95329310e1e9618d3340bf022b833c8cc09e95e9fa8b248d36dd3bdad7df5aa826040516115f99190613f10565b60405180910390a25050565b60ff60009054906101000a900460ff1681565b60fe5481565b6116398383836040518060200160405280600081525061201e565b505050565b6116677ee9ab62a5761636687b05e2e7b04f22689d99792df38552d31664fa3f958409826113a8565b50565b6000611674610e0c565b82106116b5576040517f08c379a00000000000000000000000000000000000000000000000000000000081526004016116ac90614d3e565b60405180910390fd5b60cb82815481106116c9576116c8614ac5565b5b90600052602060002001549050919050565b6116eb6116e6612456565b610e99565b611721576040517f55098f2700000000000000000000000000000000000000000000000000000000815260040160405180910390fd5b8060fc9080519060200190611737929190613db9565b507fb7dc3d82553f66494744771504119d99246c225f02cb0aec4e13b7be3bfc88bb8160405161176791906140c5565b60405180910390a150565b6101046020528060005260406000206000915054906101000a900460ff1681565b60006117be7ee9ab62a5761636687b05e2e7b04f22689d99792df38552d31664fa3f95840983611ea7565b9050919050565b6000806117d183612bdb565b9050600073ffffffffffffffffffffffffffffffffffffffff168173ffffffffffffffffffffffffffffffffffffffff1603611842576040517f08c379a000000000000000000000000000000000000000000000000000000000815260040161183990614daa565b60405180910390fd5b80915050919050565b60fc805461185890614823565b80601f016020809104026020016040519081016040528092919081815260200182805461188490614823565b80156118d15780601f106118a6576101008083540402835291602001916118d1565b820191906000526020600020905b8154815290600101906020018083116118b457829003601f168201915b505050505081565b60008073ffffffffffffffffffffffffffffffffffffffff168273ffffffffffffffffffffffffffffffffffffffff1603611949576040517f08c379a000000000000000000000000000000000000000000000000000000000815260040161194090614e3c565b60405180910390fd5b609a60008373ffffffffffffffffffffffffffffffffffffffff1673ffffffffffffffffffffffffffffffffffffffff168152602001908152602001600020549050919050565b61199933611793565b6119cf576040517fea8e4eb500000000000000000000000000000000000000000000000000000000815260040160405180910390fd5b80610103600084815260200190815260200160002060000160008282546119f6919061479e565b9250508190555080827fe35569cc02c4dbfef78de8b7236cf1da89364a064bebc436c0e50538433326ae60405160405180910390a35050565b60008060019054906101000a900460ff16159050808015611a605750600160008054906101000a900460ff1660ff16105b80611a8d5750611a6f30612c18565b158015611a8c5750600160008054906101000a900460ff1660ff16145b5b611acc576040517f08c379a0000000000000000000000000000000000000000000000000000000008152600401611ac390614ece565b60405180910390fd5b60016000806101000a81548160ff021916908360ff1602179055508015611b09576001600060016101000a81548160ff0219169083151502179055505b611b7d6040518060400160405280600c81526020017f4e65616e64657220536d6f6c00000000000000000000000000000000000000008152506040518060400160405280600b81526020017f4e65616e646572536d6f6c000000000000000000000000000000000000000000815250612c3b565b611b85610ecc565b600960fd8190555060fd54600a611b9c9190615021565b6064611ba8919061506c565b60fe81905550600060ff60006101000a81548160ff02191690831515021790555066470de4df82000061010081905550600161010160006101000a81548160ff0219169083151502179055508015611c4d5760008060016101000a81548160ff0219169083151502179055507f7f26b83ff96e1f2b6a682f133852f6798a09c465da95921460cefb38474024986001604051611c449190615118565b60405180910390a15b50565b611c60611c5b612456565b6113c9565b611c96576040517f36b6b89500000000000000000000000000000000000000000000000000000000815260040160405180910390fd5b3373ffffffffffffffffffffffffffffffffffffffff166108fc479081150290604051600060405180830381858888f19350505050611cd457600080fd5b61010160019054906101000a900473ffffffffffffffffffffffffffffffffffffffff1673ffffffffffffffffffffffffffffffffffffffff1663a9059cbb3361010160019054906101000a900473ffffffffffffffffffffffffffffffffffffffff1673ffffffffffffffffffffffffffffffffffffffff166370a08231306040518263ffffffff1660e01b8152600401611d709190614123565b602060405180830381865afa158015611d8d573d6000803e3d6000fd5b505050506040513d601f19601f82011682018060405250810190611db19190615148565b6040518363ffffffff1660e01b8152600401611dce929190615175565b6020604051808303816000875af1158015611ded573d6000803e3d6000fd5b505050506040513d601f19601f82011682018060405250810190611e1191906151b3565b611e1a57600080fd5b565b611e2c611e27612456565b610e99565b611e62576040517f55098f2700000000000000000000000000000000000000000000000000000000815260040160405180910390fd5b60ff60009054906101000a900460ff161560ff60006101000a81548160ff021916908315150217905550565b6101056020528060005260406000206000915090505481565b60006065600084815260200190815260200160002060000160008373ffffffffffffffffffffffffffffffffffffffff1673ffffffffffffffffffffffffffffffffffffffff16815260200190815260200160002060009054906101000a900460ff16905092915050565b606060988054611f2190614823565b80601f0160208091040260200160405190810160405280929190818152602001828054611f4d90614823565b8015611f9a5780601f10611f6f57610100808354040283529160200191611f9a565b820191906000526020600020905b815481529060010190602001808311611f7d57829003601f168201915b5050505050905090565b60fb8060000154905081565b6000801b81565b611fc9611fc2612456565b8383612c98565b5050565b6101005481565b61010260009054906101000a900473ffffffffffffffffffffffffffffffffffffffff1681565b7ee9ab62a5761636687b05e2e7b04f22689d99792df38552d31664fa3f95840981565b61202f612029612456565b83612517565b61206e576040517f08c379a0000000000000000000000000000000000000000000000000000000008152600401612065906149ea565b60405180910390fd5b61207a84848484612e04565b50505050565b7fa619569270f7f4a1d8f7ed82794221f15c6f8595dada80d85ac4e31cdd6fe04c81565b6120b46120af612456565b610e99565b6120ea576040517f55098f2700000000000000000000000000000000000000000000000000000000815260040160405180910390fd5b806101008190555050565b6060604051806060016040528060358152602001615922603591399050919050565b7f3b351bd1fe2dfe571b64d5c9adc99cfeeccb1e4f46d0485613dcb1ff87242f4d81565b61214482610e79565b61214d81612a04565b6121578383612af9565b505050565b6121867f9aa77ce78f008f23606e6755d96256721080001bc839bd46f3566a5b8e3f3188826113a8565b50565b61219233611793565b6121c8576040517fea8e4eb500000000000000000000000000000000000000000000000000000000815260040160405180910390fd5b80610103600084815260200190815260200160002060020160008282546121ef919061479e565b9250508190555080827fe852686fc3379988351fab3924b8412a69b0f884879d23a989640c46daca203060405160405180910390a35050565b6000609c60008473ffffffffffffffffffffffffffffffffffffffff1673ffffffffffffffffffffffffffffffffffffffff16815260200190815260200160002060008373ffffffffffffffffffffffffffffffffffffffff1673ffffffffffffffffffffffffffffffffffffffff16815260200190815260200160002060009054906101000a900460ff16905092915050565b7f9aa77ce78f008f23606e6755d96256721080001bc839bd46f3566a5b8e3f318881565b600060fd54600a6122f19190615021565b610105600084815260200190815260200160002054612310919061520f565b9050919050565b60007f780e9d63000000000000000000000000000000000000000000000000000000007bffffffffffffffffffffffffffffffffffffffffffffffffffffffff1916827bffffffffffffffffffffffffffffffffffffffffffffffffffffffff1916148061238a575061238982612e60565b5b9050919050565b60007f7965db0b000000000000000000000000000000000000000000000000000000007bffffffffffffffffffffffffffffffffffffffffffffffffffffffff1916827bffffffffffffffffffffffffffffffffffffffffffffffffffffffff19161480612404575061240382612f42565b5b9050919050565b61241481612fac565b612453576040517f08c379a000000000000000000000000000000000000000000000000000000000815260040161244a90614daa565b60405180910390fd5b50565b600033905090565b81609b600083815260200190815260200160002060006101000a81548173ffffffffffffffffffffffffffffffffffffffff021916908373ffffffffffffffffffffffffffffffffffffffff160217905550808273ffffffffffffffffffffffffffffffffffffffff166124d1836117c5565b73ffffffffffffffffffffffffffffffffffffffff167f8c5be1e5ebec7d5bd14f71427d1e84f3dd0314c0f7b2291e5b200ac8c7c3b92560405160405180910390a45050565b600080612523836117c5565b90508073ffffffffffffffffffffffffffffffffffffffff168473ffffffffffffffffffffffffffffffffffffffff16148061256557506125648185612228565b5b806125a357508373ffffffffffffffffffffffffffffffffffffffff1661258b84610caf565b73ffffffffffffffffffffffffffffffffffffffff16145b91505092915050565b8273ffffffffffffffffffffffffffffffffffffffff166125cc826117c5565b73ffffffffffffffffffffffffffffffffffffffff1614612622576040517f08c379a0000000000000000000000000000000000000000000000000000000008152600401612619906152b2565b60405180910390fd5b600073ffffffffffffffffffffffffffffffffffffffff168273ffffffffffffffffffffffffffffffffffffffff1603612691576040517f08c379a000000000000000000000000000000000000000000000000000000000815260040161268890615344565b60405180910390fd5b61269e8383836001612fed565b8273ffffffffffffffffffffffffffffffffffffffff166126be826117c5565b73ffffffffffffffffffffffffffffffffffffffff1614612714576040517f08c379a000000000000000000000000000000000000000000000000000000000815260040161270b906152b2565b60405180910390fd5b609b600082815260200190815260200160002060006101000a81549073ffffffffffffffffffffffffffffffffffffffff02191690556001609a60008573ffffffffffffffffffffffffffffffffffffffff1673ffffffffffffffffffffffffffffffffffffffff168152602001908152602001600020600082825403925050819055506001609a60008473ffffffffffffffffffffffffffffffffffffffff1673ffffffffffffffffffffffffffffffffffffffff16815260200190815260200160002060008282540192505081905550816099600083815260200190815260200160002060006101000a81548173ffffffffffffffffffffffffffffffffffffffff021916908373ffffffffffffffffffffffffffffffffffffffff160217905550808273ffffffffffffffffffffffffffffffffffffffff168473ffffffffffffffffffffffffffffffffffffffff167fddf252ad1be2c89b69c2b068fc378daa952ba7f163c4a11628f55a4df523b3ef60405160405180910390a46128a08383836001613058565b505050565b600060019054906101000a900460ff166128f4576040517f08c379a00000000000000000000000000000000000000000000000000000000081526004016128eb90614a7c565b60405180910390fd5b565b600061290183610e79565b90508160656000858152602001908152602001600020600101819055508181847fbd79b86ffe0ab8e8776151514217cd7cacd52c909f66475c3af44e129f0b00ff60405160405180910390a4505050565b61295c8282612a18565b5050565b600061296c60fb61305e565b905061297860fb61306c565b61162e8111156129bd576040517f08c379a00000000000000000000000000000000000000000000000000000000081526004016129b4906153b0565b60405180910390fd5b7f13d0c6609c1489bff1e3c88b5ad19c5647fe75c23c7ab35e81f04afdce4f956482826040516129ee929190615175565b60405180910390a1612a008282613082565b5050565b612a1581612a10612456565b6130a0565b50565b612a228282611ea7565b612af55760016065600084815260200190815260200160002060000160008373ffffffffffffffffffffffffffffffffffffffff1673ffffffffffffffffffffffffffffffffffffffff16815260200190815260200160002060006101000a81548160ff021916908315150217905550612a9a612456565b73ffffffffffffffffffffffffffffffffffffffff168173ffffffffffffffffffffffffffffffffffffffff16837f2f8788117e7eff1d82e926ec794901d17c78024a50270940304540a733656f0d60405160405180910390a45b5050565b612b038282611ea7565b15612bd75760006065600084815260200190815260200160002060000160008373ffffffffffffffffffffffffffffffffffffffff1673ffffffffffffffffffffffffffffffffffffffff16815260200190815260200160002060006101000a81548160ff021916908315150217905550612b7c612456565b73ffffffffffffffffffffffffffffffffffffffff168173ffffffffffffffffffffffffffffffffffffffff16837ff6391f5c32d9c69d2a47ea670b442974b53935d1edc7fd64eb21e047a839171b60405160405180910390a45b5050565b60006099600083815260200190815260200160002060009054906101000a900473ffffffffffffffffffffffffffffffffffffffff169050919050565b6000808273ffffffffffffffffffffffffffffffffffffffff163b119050919050565b600060019054906101000a900460ff16612c8a576040517f08c379a0000000000000000000000000000000000000000000000000000000008152600401612c8190614a7c565b60405180910390fd5b612c948282613125565b5050565b8173ffffffffffffffffffffffffffffffffffffffff168373ffffffffffffffffffffffffffffffffffffffff1603612d06576040517f08c379a0000000000000000000000000000000000000000000000000000000008152600401612cfd9061541c565b60405180910390fd5b80609c60008573ffffffffffffffffffffffffffffffffffffffff1673ffffffffffffffffffffffffffffffffffffffff16815260200190815260200160002060008473ffffffffffffffffffffffffffffffffffffffff1673ffffffffffffffffffffffffffffffffffffffff16815260200190815260200160002060006101000a81548160ff0219169083151502179055508173ffffffffffffffffffffffffffffffffffffffff168373ffffffffffffffffffffffffffffffffffffffff167f17307eab39ab6107e8899845ad3d59bd9653f200f220920489ca2b5937696c3183604051612df79190613f10565b60405180910390a3505050565b612e0f8484846125ac565b612e1b848484846131a6565b612e5a576040517f08c379a0000000000000000000000000000000000000000000000000000000008152600401612e51906154ae565b60405180910390fd5b50505050565b60007f80ac58cd000000000000000000000000000000000000000000000000000000007bffffffffffffffffffffffffffffffffffffffffffffffffffffffff1916827bffffffffffffffffffffffffffffffffffffffffffffffffffffffff19161480612f2b57507f5b5e139f000000000000000000000000000000000000000000000000000000007bffffffffffffffffffffffffffffffffffffffffffffffffffffffff1916827bffffffffffffffffffffffffffffffffffffffffffffffffffffffff1916145b80612f3b5750612f3a82612391565b5b9050919050565b60007f01ffc9a7000000000000000000000000000000000000000000000000000000007bffffffffffffffffffffffffffffffffffffffffffffffffffffffff1916827bffffffffffffffffffffffffffffffffffffffffffffffffffffffff1916149050919050565b60008073ffffffffffffffffffffffffffffffffffffffff16612fce83612bdb565b73ffffffffffffffffffffffffffffffffffffffff1614159050919050565b610104600083815260200190815260200160002060009054906101000a900460ff1615613046576040517f3899ae3600000000000000000000000000000000000000000000000000000000815260040160405180910390fd5b6130528484848461332d565b50505050565b50505050565b600081600001549050919050565b6001816000016000828254019250508190555050565b61309c82826040518060200160405280600081525061348b565b5050565b6130aa8282611ea7565b613121576130b7816134e6565b6130c58360001c6020613513565b6040516020016130d69291906155a2565b6040516020818303038152906040526040517f08c379a000000000000000000000000000000000000000000000000000000000815260040161311891906140c5565b60405180910390fd5b5050565b600060019054906101000a900460ff16613174576040517f08c379a000000000000000000000000000000000000000000000000000000000815260040161316b90614a7c565b60405180910390fd5b816097908051906020019061318a929190613db9565b5080609890805190602001906131a1929190613db9565b505050565b60006131c78473ffffffffffffffffffffffffffffffffffffffff16612c18565b15613320578373ffffffffffffffffffffffffffffffffffffffff1663150b7a026131f0612456565b8786866040518563ffffffff1660e01b81526004016132129493929190615631565b6020604051808303816000875af192505050801561324e57506040513d601f19601f8201168201806040525081019061324b9190615692565b60015b6132d0573d806000811461327e576040519150601f19603f3d011682016040523d82523d6000602084013e613283565b606091505b5060008151036132c8576040517f08c379a00000000000000000000000000000000000000000000000000000000081526004016132bf906154ae565b60405180910390fd5b805181602001fd5b63150b7a0260e01b7bffffffffffffffffffffffffffffffffffffffffffffffffffffffff1916817bffffffffffffffffffffffffffffffffffffffffffffffffffffffff191614915050613325565b600190505b949350505050565b6133398484848461374f565b600181111561337d576040517f08c379a000000000000000000000000000000000000000000000000000000000815260040161337490615731565b60405180910390fd5b6000829050600073ffffffffffffffffffffffffffffffffffffffff168573ffffffffffffffffffffffffffffffffffffffff16036133c4576133bf81613875565b613403565b8373ffffffffffffffffffffffffffffffffffffffff168573ffffffffffffffffffffffffffffffffffffffff16146134025761340185826138be565b5b5b600073ffffffffffffffffffffffffffffffffffffffff168473ffffffffffffffffffffffffffffffffffffffff16036134455761344081613a2b565b613484565b8473ffffffffffffffffffffffffffffffffffffffff168473ffffffffffffffffffffffffffffffffffffffff1614613483576134828482613afc565b5b5b5050505050565b6134958383613b7b565b6134a260008484846131a6565b6134e1576040517f08c379a00000000000000000000000000000000000000000000000000000000081526004016134d8906154ae565b60405180910390fd5b505050565b606061350c8273ffffffffffffffffffffffffffffffffffffffff16601460ff16613513565b9050919050565b606060006002836002613526919061506c565b613530919061479e565b67ffffffffffffffff81111561354957613548614457565b5b6040519080825280601f01601f19166020018201604052801561357b5781602001600182028036833780820191505090505b5090507f3000000000000000000000000000000000000000000000000000000000000000816000815181106135b3576135b2614ac5565b5b60200101907effffffffffffffffffffffffffffffffffffffffffffffffffffffffffffff1916908160001a9053507f78000000000000000000000000000000000000000000000000000000000000008160018151811061361757613616614ac5565b5b60200101907effffffffffffffffffffffffffffffffffffffffffffffffffffffffffffff1916908160001a90535060006001846002613657919061506c565b613661919061479e565b90505b6001811115613701577f3031323334353637383961626364656600000000000000000000000000000000600f8616601081106136a3576136a2614ac5565b5b1a60f81b8282815181106136ba576136b9614ac5565b5b60200101907effffffffffffffffffffffffffffffffffffffffffffffffffffffffffffff1916908160001a905350600485901c9450806136fa90615751565b9050613664565b5060008414613745576040517f08c379a000000000000000000000000000000000000000000000000000000000815260040161373c906157c6565b60405180910390fd5b8091505092915050565b600181111561386f57600073ffffffffffffffffffffffffffffffffffffffff168473ffffffffffffffffffffffffffffffffffffffff16146137e35780609a60008673ffffffffffffffffffffffffffffffffffffffff1673ffffffffffffffffffffffffffffffffffffffff16815260200190815260200160002060008282546137db91906157e6565b925050819055505b600073ffffffffffffffffffffffffffffffffffffffff168373ffffffffffffffffffffffffffffffffffffffff161461386e5780609a60008573ffffffffffffffffffffffffffffffffffffffff1673ffffffffffffffffffffffffffffffffffffffff1681526020019081526020016000206000828254613866919061479e565b925050819055505b5b50505050565b60cb8054905060cc60008381526020019081526020016000208190555060cb81908060018154018082558091505060019003906000526020600020016000909190919091505550565b600060016138cb846118d9565b6138d591906157e6565b9050600060ca60008481526020019081526020016000205490508181146139ba57600060c960008673ffffffffffffffffffffffffffffffffffffffff1673ffffffffffffffffffffffffffffffffffffffff16815260200190815260200160002060008481526020019081526020016000205490508060c960008773ffffffffffffffffffffffffffffffffffffffff1673ffffffffffffffffffffffffffffffffffffffff1681526020019081526020016000206000848152602001908152602001600020819055508160ca600083815260200190815260200160002081905550505b60ca60008481526020019081526020016000206000905560c960008573ffffffffffffffffffffffffffffffffffffffff1673ffffffffffffffffffffffffffffffffffffffff16815260200190815260200160002060008381526020019081526020016000206000905550505050565b6000600160cb80549050613a3f91906157e6565b9050600060cc6000848152602001908152602001600020549050600060cb8381548110613a6f57613a6e614ac5565b5b906000526020600020015490508060cb8381548110613a9157613a90614ac5565b5b90600052602060002001819055508160cc60008381526020019081526020016000208190555060cc60008581526020019081526020016000206000905560cb805480613ae057613adf61581a565b5b6001900381819060005260206000200160009055905550505050565b6000613b07836118d9565b90508160c960008573ffffffffffffffffffffffffffffffffffffffff1673ffffffffffffffffffffffffffffffffffffffff1681526020019081526020016000206000838152602001908152602001600020819055508060ca600084815260200190815260200160002081905550505050565b600073ffffffffffffffffffffffffffffffffffffffff168273ffffffffffffffffffffffffffffffffffffffff1603613bea576040517f08c379a0000000000000000000000000000000000000000000000000000000008152600401613be190615895565b60405180910390fd5b613bf381612fac565b15613c33576040517f08c379a0000000000000000000000000000000000000000000000000000000008152600401613c2a90615901565b60405180910390fd5b613c41600083836001612fed565b613c4a81612fac565b15613c8a576040517f08c379a0000000000000000000000000000000000000000000000000000000008152600401613c8190615901565b60405180910390fd5b6001609a60008473ffffffffffffffffffffffffffffffffffffffff1673ffffffffffffffffffffffffffffffffffffffff16815260200190815260200160002060008282540192505081905550816099600083815260200190815260200160002060006101000a81548173ffffffffffffffffffffffffffffffffffffffff021916908373ffffffffffffffffffffffffffffffffffffffff160217905550808273ffffffffffffffffffffffffffffffffffffffff16600073ffffffffffffffffffffffffffffffffffffffff167fddf252ad1be2c89b69c2b068fc378daa952ba7f163c4a11628f55a4df523b3ef60405160405180910390a4613d94600083836001613058565b5050565b60405180606001604052806000815260200160008152602001600081525090565b828054613dc590614823565b90600052602060002090601f016020900481019282613de75760008555613e2e565b82601f10613e0057805160ff1916838001178555613e2e565b82800160010185558215613e2e579182015b82811115613e2d578251825591602001919060010190613e12565b5b509050613e3b9190613e3f565b5090565b5b80821115613e58576000816000905550600101613e40565b5090565b6000604051905090565b600080fd5b600080fd5b60007fffffffff0000000000000000000000000000000000000000000000000000000082169050919050565b613ea581613e70565b8114613eb057600080fd5b50565b600081359050613ec281613e9c565b92915050565b600060208284031215613ede57613edd613e66565b5b6000613eec84828501613eb3565b91505092915050565b60008115159050919050565b613f0a81613ef5565b82525050565b6000602082019050613f256000830184613f01565b92915050565b6000819050919050565b613f3e81613f2b565b8114613f4957600080fd5b50565b600081359050613f5b81613f35565b92915050565b60008060408385031215613f7857613f77613e66565b5b6000613f8685828601613f4c565b9250506020613f9785828601613f4c565b9150509250929050565b600073ffffffffffffffffffffffffffffffffffffffff82169050919050565b6000613fcc82613fa1565b9050919050565b613fdc81613fc1565b8114613fe757600080fd5b50565b600081359050613ff981613fd3565b92915050565b60006020828403121561401557614014613e66565b5b600061402384828501613fea565b91505092915050565b600081519050919050565b600082825260208201905092915050565b60005b8381101561406657808201518184015260208101905061404b565b83811115614075576000848401525b50505050565b6000601f19601f8301169050919050565b60006140978261402c565b6140a18185614037565b93506140b1818560208601614048565b6140ba8161407b565b840191505092915050565b600060208201905081810360008301526140df818461408c565b905092915050565b6000602082840312156140fd576140fc613e66565b5b600061410b84828501613f4c565b91505092915050565b61411d81613fc1565b82525050565b60006020820190506141386000830184614114565b92915050565b6000806040838503121561415557614154613e66565b5b600061416385828601613fea565b925050602061417485828601613f4c565b9150509250929050565b61418781613f2b565b82525050565b60006020820190506141a2600083018461417e565b92915050565b6000806000606084860312156141c1576141c0613e66565b5b60006141cf86828701613fea565b93505060206141e086828701613fea565b92505060406141f186828701613f4c565b9150509250925092565b6000819050919050565b61420e816141fb565b811461421957600080fd5b50565b60008135905061422b81614205565b92915050565b60006020828403121561424757614246613e66565b5b60006142558482850161421c565b91505092915050565b614267816141fb565b82525050565b6000602082019050614282600083018461425e565b92915050565b600080fd5b600080fd5b600080fd5b60008083601f8401126142ad576142ac614288565b5b8235905067ffffffffffffffff8111156142ca576142c961428d565b5b6020830191508360208202830111156142e6576142e5614292565b5b9250929050565b6000806020838503121561430457614303613e66565b5b600083013567ffffffffffffffff81111561432257614321613e6b565b5b61432e85828601614297565b92509250509250929050565b61434381613f2b565b82525050565b60608201600082015161435f600085018261433a565b506020820151614372602085018261433a565b506040820151614385604085018261433a565b50505050565b60006060820190506143a06000830184614349565b92915050565b600080604083850312156143bd576143bc613e66565b5b60006143cb8582860161421c565b92505060206143dc85828601613fea565b9150509250929050565b6143ef81613ef5565b81146143fa57600080fd5b50565b60008135905061440c816143e6565b92915050565b6000806040838503121561442957614428613e66565b5b600061443785828601613f4c565b9250506020614448858286016143fd565b9150509250929050565b600080fd5b7f4e487b7100000000000000000000000000000000000000000000000000000000600052604160045260246000fd5b61448f8261407b565b810181811067ffffffffffffffff821117156144ae576144ad614457565b5b80604052505050565b60006144c1613e5c565b90506144cd8282614486565b919050565b600067ffffffffffffffff8211156144ed576144ec614457565b5b6144f68261407b565b9050602081019050919050565b82818337600083830152505050565b6000614525614520846144d2565b6144b7565b90508281526020810184848401111561454157614540614452565b5b61454c848285614503565b509392505050565b600082601f83011261456957614568614288565b5b8135614579848260208601614512565b91505092915050565b60006020828403121561459857614597613e66565b5b600082013567ffffffffffffffff8111156145b6576145b5613e6b565b5b6145c284828501614554565b91505092915050565b600080604083850312156145e2576145e1613e66565b5b60006145f085828601613fea565b9250506020614601858286016143fd565b9150509250929050565b600067ffffffffffffffff82111561462657614625614457565b5b61462f8261407b565b9050602081019050919050565b600061464f61464a8461460b565b6144b7565b90508281526020810184848401111561466b5761466a614452565b5b614676848285614503565b509392505050565b600082601f83011261469357614692614288565b5b81356146a384826020860161463c565b91505092915050565b600080600080608085870312156146c6576146c5613e66565b5b60006146d487828801613fea565b94505060206146e587828801613fea565b93505060406146f687828801613f4c565b925050606085013567ffffffffffffffff81111561471757614716613e6b565b5b6147238782880161467e565b91505092959194509250565b6000806040838503121561474657614745613e66565b5b600061475485828601613fea565b925050602061476585828601613fea565b9150509250929050565b7f4e487b7100000000000000000000000000000000000000000000000000000000600052601160045260246000fd5b60006147a982613f2b565b91506147b483613f2b565b9250827fffffffffffffffffffffffffffffffffffffffffffffffffffffffffffffffff038211156147e9576147e861476f565b5b828201905092915050565b7f4e487b7100000000000000000000000000000000000000000000000000000000600052602260045260246000fd5b6000600282049050600182168061483b57607f821691505b60208210810361484e5761484d6147f4565b5b50919050565b7f4552433732313a20617070726f76616c20746f2063757272656e74206f776e6560008201527f7200000000000000000000000000000000000000000000000000000000000000602082015250565b60006148b0602183614037565b91506148bb82614854565b604082019050919050565b600060208201905081810360008301526148df816148a3565b9050919050565b7f4552433732313a20617070726f76652063616c6c6572206973206e6f7420746f60008201527f6b656e206f776e6572206f7220617070726f76656420666f7220616c6c000000602082015250565b6000614942603d83614037565b915061494d826148e6565b604082019050919050565b6000602082019050818103600083015261497181614935565b9050919050565b7f4552433732313a2063616c6c6572206973206e6f7420746f6b656e206f776e6560008201527f72206f7220617070726f76656400000000000000000000000000000000000000602082015250565b60006149d4602d83614037565b91506149df82614978565b604082019050919050565b60006020820190508181036000830152614a03816149c7565b9050919050565b7f496e697469616c697a61626c653a20636f6e7472616374206973206e6f74206960008201527f6e697469616c697a696e67000000000000000000000000000000000000000000602082015250565b6000614a66602b83614037565b9150614a7182614a0a565b604082019050919050565b60006020820190508181036000830152614a9581614a59565b9050919050565b6000604082019050614ab1600083018561417e565b614abe602083018461417e565b9392505050565b7f4e487b7100000000000000000000000000000000000000000000000000000000600052603260045260246000fd5b6000614aff82613f2b565b91507fffffffffffffffffffffffffffffffffffffffffffffffffffffffffffffffff8203614b3157614b3061476f565b5b600182019050919050565b7f4d696e7473206578636565646564000000000000000000000000000000000000600082015250565b6000614b72600e83614037565b9150614b7d82614b3c565b602082019050919050565b60006020820190508181036000830152614ba181614b65565b9050919050565b7f455243373231456e756d657261626c653a206f776e657220696e646578206f7560008201527f74206f6620626f756e6473000000000000000000000000000000000000000000602082015250565b6000614c04602b83614037565b9150614c0f82614ba8565b604082019050919050565b60006020820190508181036000830152614c3381614bf7565b9050919050565b7f416363657373436f6e74726f6c3a2063616e206f6e6c792072656e6f756e636560008201527f20726f6c657320666f722073656c660000000000000000000000000000000000602082015250565b6000614c96602f83614037565b9150614ca182614c3a565b604082019050919050565b60006020820190508181036000830152614cc581614c89565b9050919050565b7f455243373231456e756d657261626c653a20676c6f62616c20696e646578206f60008201527f7574206f6620626f756e64730000000000000000000000000000000000000000602082015250565b6000614d28602c83614037565b9150614d3382614ccc565b604082019050919050565b60006020820190508181036000830152614d5781614d1b565b9050919050565b7f4552433732313a20696e76616c696420746f6b656e2049440000000000000000600082015250565b6000614d94601883614037565b9150614d9f82614d5e565b602082019050919050565b60006020820190508181036000830152614dc381614d87565b9050919050565b7f4552433732313a2061646472657373207a65726f206973206e6f74206120766160008201527f6c6964206f776e65720000000000000000000000000000000000000000000000602082015250565b6000614e26602983614037565b9150614e3182614dca565b604082019050919050565b60006020820190508181036000830152614e5581614e19565b9050919050565b7f496e697469616c697a61626c653a20636f6e747261637420697320616c72656160008201527f647920696e697469616c697a6564000000000000000000000000000000000000602082015250565b6000614eb8602e83614037565b9150614ec382614e5c565b604082019050919050565b60006020820190508181036000830152614ee781614eab565b9050919050565b60008160011c9050919050565b6000808291508390505b6001851115614f4557808604811115614f2157614f2061476f565b5b6001851615614f305780820291505b8081029050614f3e85614eee565b9450614f05565b94509492505050565b600082614f5e576001905061501a565b81614f6c576000905061501a565b8160018114614f825760028114614f8c57614fbb565b600191505061501a565b60ff841115614f9e57614f9d61476f565b5b8360020a915084821115614fb557614fb461476f565b5b5061501a565b5060208310610133831016604e8410600b8410161715614ff05782820a905083811115614feb57614fea61476f565b5b61501a565b614ffd8484846001614efb565b925090508184048111156150145761501361476f565b5b81810290505b9392505050565b600061502c82613f2b565b915061503783613f2b565b92506150647fffffffffffffffffffffffffffffffffffffffffffffffffffffffffffffffff8484614f4e565b905092915050565b600061507782613f2b565b915061508283613f2b565b9250817fffffffffffffffffffffffffffffffffffffffffffffffffffffffffffffffff04831182151516156150bb576150ba61476f565b5b828202905092915050565b6000819050919050565b600060ff82169050919050565b6000819050919050565b60006151026150fd6150f8846150c6565b6150dd565b6150d0565b9050919050565b615112816150e7565b82525050565b600060208201905061512d6000830184615109565b92915050565b60008151905061514281613f35565b92915050565b60006020828403121561515e5761515d613e66565b5b600061516c84828501615133565b91505092915050565b600060408201905061518a6000830185614114565b615197602083018461417e565b9392505050565b6000815190506151ad816143e6565b92915050565b6000602082840312156151c9576151c8613e66565b5b60006151d78482850161519e565b91505092915050565b7f4e487b7100000000000000000000000000000000000000000000000000000000600052601260045260246000fd5b600061521a82613f2b565b915061522583613f2b565b925082615235576152346151e0565b5b828204905092915050565b7f4552433732313a207472616e736665722066726f6d20696e636f72726563742060008201527f6f776e6572000000000000000000000000000000000000000000000000000000602082015250565b600061529c602583614037565b91506152a782615240565b604082019050919050565b600060208201905081810360008301526152cb8161528f565b9050919050565b7f4552433732313a207472616e7366657220746f20746865207a65726f2061646460008201527f7265737300000000000000000000000000000000000000000000000000000000602082015250565b600061532e602483614037565b9150615339826152d2565b604082019050919050565b6000602082019050818103600083015261535d81615321565b9050919050565b7f457863656564656420737570706c790000000000000000000000000000000000600082015250565b600061539a600f83614037565b91506153a582615364565b602082019050919050565b600060208201905081810360008301526153c98161538d565b9050919050565b7f4552433732313a20617070726f766520746f2063616c6c657200000000000000600082015250565b6000615406601983614037565b9150615411826153d0565b602082019050919050565b60006020820190508181036000830152615435816153f9565b9050919050565b7f4552433732313a207472616e7366657220746f206e6f6e20455243373231526560008201527f63656976657220696d706c656d656e7465720000000000000000000000000000602082015250565b6000615498603283614037565b91506154a38261543c565b604082019050919050565b600060208201905081810360008301526154c78161548b565b9050919050565b600081905092915050565b7f416363657373436f6e74726f6c3a206163636f756e7420000000000000000000600082015250565b600061550f6017836154ce565b915061551a826154d9565b601782019050919050565b60006155308261402c565b61553a81856154ce565b935061554a818560208601614048565b80840191505092915050565b7f206973206d697373696e6720726f6c6520000000000000000000000000000000600082015250565b600061558c6011836154ce565b915061559782615556565b601182019050919050565b60006155ad82615502565b91506155b98285615525565b91506155c48261557f565b91506155d08284615525565b91508190509392505050565b600081519050919050565b600082825260208201905092915050565b6000615603826155dc565b61560d81856155e7565b935061561d818560208601614048565b6156268161407b565b840191505092915050565b60006080820190506156466000830187614114565b6156536020830186614114565b615660604083018561417e565b818103606083015261567281846155f8565b905095945050505050565b60008151905061568c81613e9c565b92915050565b6000602082840312156156a8576156a7613e66565b5b60006156b68482850161567d565b91505092915050565b7f455243373231456e756d657261626c653a20636f6e736563757469766520747260008201527f616e7366657273206e6f7420737570706f727465640000000000000000000000602082015250565b600061571b603583614037565b9150615726826156bf565b604082019050919050565b6000602082019050818103600083015261574a8161570e565b9050919050565b600061575c82613f2b565b91506000820361576f5761576e61476f565b5b600182039050919050565b7f537472696e67733a20686578206c656e67746820696e73756666696369656e74600082015250565b60006157b0602083614037565b91506157bb8261577a565b602082019050919050565b600060208201905081810360008301526157df816157a3565b9050919050565b60006157f182613f2b565b91506157fc83613f2b565b92508282101561580f5761580e61476f565b5b828203905092915050565b7f4e487b7100000000000000000000000000000000000000000000000000000000600052603160045260246000fd5b7f4552433732313a206d696e7420746f20746865207a65726f2061646472657373600082015250565b600061587f602083614037565b915061588a82615849565b602082019050919050565b600060208201905081810360008301526158ae81615872565b9050919050565b7f4552433732313a20746f6b656e20616c7265616479206d696e74656400000000600082015250565b60006158eb601c83614037565b91506158f6826158b5565b602082019050919050565b6000602082019050818103600083015261591a816158de565b905091905056fe697066733a2f2f516d555a767569447a654b764b4365697a50564b6f5765737270475466793459736633727a6753417073374e394ba264697066735822122056be273359601cc853850a981961ffe1638d3733a231702a96a66d9e2662720c64736f6c634300080d0033",
  "devdoc": {
    "kind": "dev",
    "methods": {
      "approve(address,uint256)": {
        "details": "See {IERC721-approve}."
      },
      "balanceOf(address)": {
        "details": "See {IERC721-balanceOf}."
      },
      "getApproved(uint256)": {
        "details": "See {IERC721-getApproved}."
      },
      "getRoleAdmin(bytes32)": {
        "details": "Returns the admin role that controls `role`. See {grantRole} and {revokeRole}. To change a role's admin, use {_setRoleAdmin}."
      },
      "grantRole(bytes32,address)": {
        "details": "Grants `role` to `account`. If `account` had not been already granted `role`, emits a {RoleGranted} event. Requirements: - the caller must have ``role``'s admin role. May emit a {RoleGranted} event."
      },
      "hasRole(bytes32,address)": {
        "details": "Returns `true` if `account` has been granted `role`."
      },
      "isApprovedForAll(address,address)": {
        "details": "See {IERC721-isApprovedForAll}."
      },
      "name()": {
        "details": "See {IERC721Metadata-name}."
      },
      "ownerOf(uint256)": {
        "details": "See {IERC721-ownerOf}."
      },
      "renounceRole(bytes32,address)": {
        "details": "Revokes `role` from the calling account. Roles are often managed via {grantRole} and {revokeRole}: this function's purpose is to provide a mechanism for accounts to lose their privileges if they are compromised (such as when a trusted device is misplaced). If the calling account had been revoked `role`, emits a {RoleRevoked} event. Requirements: - the caller must be `account`. May emit a {RoleRevoked} event."
      },
      "revokeRole(bytes32,address)": {
        "details": "Revokes `role` from `account`. If `account` had been granted `role`, emits a {RoleRevoked} event. Requirements: - the caller must have ``role``'s admin role. May emit a {RoleRevoked} event."
      },
      "safeTransferFrom(address,address,uint256)": {
        "details": "See {IERC721-safeTransferFrom}."
      },
      "safeTransferFrom(address,address,uint256,bytes)": {
        "details": "See {IERC721-safeTransferFrom}."
      },
      "setApprovalForAll(address,bool)": {
        "details": "See {IERC721-setApprovalForAll}."
      },
      "symbol()": {
        "details": "See {IERC721Metadata-symbol}."
      },
      "tokenByIndex(uint256)": {
        "details": "See {IERC721Enumerable-tokenByIndex}."
      },
      "tokenOfOwnerByIndex(address,uint256)": {
        "details": "See {IERC721Enumerable-tokenOfOwnerByIndex}."
      },
      "totalSupply()": {
        "details": "See {IERC721Enumerable-totalSupply}."
      },
      "transferFrom(address,address,uint256)": {
        "details": "See {IERC721-transferFrom}."
      }
    },
    "version": 1
  },
  "userdoc": {
    "kind": "user",
    "methods": {},
    "version": 1
  },
  "storageLayout": {
    "storage": [
      {
        "astId": 415,
        "contract": "contracts/NeanderSmol.sol:NeanderSmol",
        "label": "_initialized",
        "offset": 0,
        "slot": "0",
        "type": "t_uint8"
      },
      {
        "astId": 418,
        "contract": "contracts/NeanderSmol.sol:NeanderSmol",
        "label": "_initializing",
        "offset": 1,
        "slot": "0",
        "type": "t_bool"
      },
      {
        "astId": 2438,
        "contract": "contracts/NeanderSmol.sol:NeanderSmol",
        "label": "__gap",
        "offset": 0,
        "slot": "1",
        "type": "t_array(t_uint256)50_storage"
      },
      {
        "astId": 3233,
        "contract": "contracts/NeanderSmol.sol:NeanderSmol",
        "label": "__gap",
        "offset": 0,
        "slot": "51",
        "type": "t_array(t_uint256)50_storage"
      },
      {
        "astId": 39,
        "contract": "contracts/NeanderSmol.sol:NeanderSmol",
        "label": "_roles",
        "offset": 0,
        "slot": "101",
        "type": "t_mapping(t_bytes32,t_struct(RoleData)34_storage)"
      },
      {
        "astId": 334,
        "contract": "contracts/NeanderSmol.sol:NeanderSmol",
        "label": "__gap",
        "offset": 0,
        "slot": "102",
        "type": "t_array(t_uint256)49_storage"
      },
      {
        "astId": 606,
        "contract": "contracts/NeanderSmol.sol:NeanderSmol",
        "label": "_name",
        "offset": 0,
        "slot": "151",
        "type": "t_string_storage"
      },
      {
        "astId": 608,
        "contract": "contracts/NeanderSmol.sol:NeanderSmol",
        "label": "_symbol",
        "offset": 0,
        "slot": "152",
        "type": "t_string_storage"
      },
      {
        "astId": 612,
        "contract": "contracts/NeanderSmol.sol:NeanderSmol",
        "label": "_owners",
        "offset": 0,
        "slot": "153",
        "type": "t_mapping(t_uint256,t_address)"
      },
      {
        "astId": 616,
        "contract": "contracts/NeanderSmol.sol:NeanderSmol",
        "label": "_balances",
        "offset": 0,
        "slot": "154",
        "type": "t_mapping(t_address,t_uint256)"
      },
      {
        "astId": 620,
        "contract": "contracts/NeanderSmol.sol:NeanderSmol",
        "label": "_tokenApprovals",
        "offset": 0,
        "slot": "155",
        "type": "t_mapping(t_uint256,t_address)"
      },
      {
        "astId": 626,
        "contract": "contracts/NeanderSmol.sol:NeanderSmol",
        "label": "_operatorApprovals",
        "offset": 0,
        "slot": "156",
        "type": "t_mapping(t_address,t_mapping(t_address,t_bool))"
      },
      {
        "astId": 1546,
        "contract": "contracts/NeanderSmol.sol:NeanderSmol",
        "label": "__gap",
        "offset": 0,
        "slot": "157",
        "type": "t_array(t_uint256)44_storage"
      },
      {
        "astId": 1711,
        "contract": "contracts/NeanderSmol.sol:NeanderSmol",
        "label": "_ownedTokens",
        "offset": 0,
        "slot": "201",
        "type": "t_mapping(t_address,t_mapping(t_uint256,t_uint256))"
      },
      {
        "astId": 1715,
        "contract": "contracts/NeanderSmol.sol:NeanderSmol",
        "label": "_ownedTokensIndex",
        "offset": 0,
        "slot": "202",
        "type": "t_mapping(t_uint256,t_uint256)"
      },
      {
        "astId": 1718,
        "contract": "contracts/NeanderSmol.sol:NeanderSmol",
        "label": "_allTokens",
        "offset": 0,
        "slot": "203",
        "type": "t_array(t_uint256)dyn_storage"
      },
      {
        "astId": 1722,
        "contract": "contracts/NeanderSmol.sol:NeanderSmol",
        "label": "_allTokensIndex",
        "offset": 0,
        "slot": "204",
        "type": "t_mapping(t_uint256,t_uint256)"
      },
      {
        "astId": 2054,
        "contract": "contracts/NeanderSmol.sol:NeanderSmol",
        "label": "__gap",
        "offset": 0,
        "slot": "205",
        "type": "t_array(t_uint256)46_storage"
      },
      {
        "astId": 4391,
        "contract": "contracts/NeanderSmol.sol:NeanderSmol",
        "label": "_tokenIdTracker",
        "offset": 0,
        "slot": "251",
        "type": "t_struct(Counter)2445_storage"
      },
      {
        "astId": 4393,
        "contract": "contracts/NeanderSmol.sol:NeanderSmol",
        "label": "baseURI",
        "offset": 0,
        "slot": "252",
        "type": "t_string_storage"
      },
      {
        "astId": 4395,
        "contract": "contracts/NeanderSmol.sol:NeanderSmol",
        "label": "decimals",
        "offset": 0,
        "slot": "253",
        "type": "t_uint256"
      },
      {
        "astId": 4397,
        "contract": "contracts/NeanderSmol.sol:NeanderSmol",
        "label": "commonSenseMaxLevel",
        "offset": 0,
        "slot": "254",
        "type": "t_uint256"
      },
      {
        "astId": 4399,
        "contract": "contracts/NeanderSmol.sol:NeanderSmol",
        "label": "publicActive",
        "offset": 0,
        "slot": "255",
        "type": "t_bool"
      },
      {
        "astId": 4401,
        "contract": "contracts/NeanderSmol.sol:NeanderSmol",
        "label": "publicPrice",
        "offset": 0,
        "slot": "256",
        "type": "t_uint256"
      },
      {
        "astId": 4403,
        "contract": "contracts/NeanderSmol.sol:NeanderSmol",
        "label": "revealed",
        "offset": 0,
        "slot": "257",
        "type": "t_bool"
      },
      {
        "astId": 4406,
        "contract": "contracts/NeanderSmol.sol:NeanderSmol",
        "label": "magic",
        "offset": 1,
        "slot": "257",
        "type": "t_contract(IERC20)4923"
      },
      {
        "astId": 4408,
        "contract": "contracts/NeanderSmol.sol:NeanderSmol",
        "label": "devGround",
        "offset": 0,
        "slot": "258",
        "type": "t_address"
      },
      {
        "astId": 4420,
        "contract": "contracts/NeanderSmol.sol:NeanderSmol",
        "label": "tokenToSkill",
        "offset": 0,
        "slot": "259",
        "type": "t_mapping(t_uint256,t_struct(PrimarySkill)4415_storage)"
      },
      {
        "astId": 4424,
        "contract": "contracts/NeanderSmol.sol:NeanderSmol",
        "label": "staked",
        "offset": 0,
        "slot": "260",
        "type": "t_mapping(t_uint256,t_bool)"
      },
      {
        "astId": 4428,
        "contract": "contracts/NeanderSmol.sol:NeanderSmol",
        "label": "commonSense",
        "offset": 0,
        "slot": "261",
        "type": "t_mapping(t_uint256,t_uint256)"
      },
      {
        "astId": 4432,
        "contract": "contracts/NeanderSmol.sol:NeanderSmol",
        "label": "minted",
        "offset": 0,
        "slot": "262",
        "type": "t_mapping(t_address,t_bool)"
      },
      {
        "astId": 4436,
        "contract": "contracts/NeanderSmol.sol:NeanderSmol",
        "label": "publicMinted",
        "offset": 0,
        "slot": "263",
        "type": "t_mapping(t_address,t_uint256)"
      }
    ],
    "types": {
      "t_address": {
        "encoding": "inplace",
        "label": "address",
        "numberOfBytes": "20"
      },
      "t_array(t_uint256)44_storage": {
        "base": "t_uint256",
        "encoding": "inplace",
        "label": "uint256[44]",
        "numberOfBytes": "1408"
      },
      "t_array(t_uint256)46_storage": {
        "base": "t_uint256",
        "encoding": "inplace",
        "label": "uint256[46]",
        "numberOfBytes": "1472"
      },
      "t_array(t_uint256)49_storage": {
        "base": "t_uint256",
        "encoding": "inplace",
        "label": "uint256[49]",
        "numberOfBytes": "1568"
      },
      "t_array(t_uint256)50_storage": {
        "base": "t_uint256",
        "encoding": "inplace",
        "label": "uint256[50]",
        "numberOfBytes": "1600"
      },
      "t_array(t_uint256)dyn_storage": {
        "base": "t_uint256",
        "encoding": "dynamic_array",
        "label": "uint256[]",
        "numberOfBytes": "32"
      },
      "t_bool": {
        "encoding": "inplace",
        "label": "bool",
        "numberOfBytes": "1"
      },
      "t_bytes32": {
        "encoding": "inplace",
        "label": "bytes32",
        "numberOfBytes": "32"
      },
      "t_contract(IERC20)4923": {
        "encoding": "inplace",
        "label": "contract IERC20",
        "numberOfBytes": "20"
      },
      "t_mapping(t_address,t_bool)": {
        "encoding": "mapping",
        "key": "t_address",
        "label": "mapping(address => bool)",
        "numberOfBytes": "32",
        "value": "t_bool"
      },
      "t_mapping(t_address,t_mapping(t_address,t_bool))": {
        "encoding": "mapping",
        "key": "t_address",
        "label": "mapping(address => mapping(address => bool))",
        "numberOfBytes": "32",
        "value": "t_mapping(t_address,t_bool)"
      },
      "t_mapping(t_address,t_mapping(t_uint256,t_uint256))": {
        "encoding": "mapping",
        "key": "t_address",
        "label": "mapping(address => mapping(uint256 => uint256))",
        "numberOfBytes": "32",
        "value": "t_mapping(t_uint256,t_uint256)"
      },
      "t_mapping(t_address,t_uint256)": {
        "encoding": "mapping",
        "key": "t_address",
        "label": "mapping(address => uint256)",
        "numberOfBytes": "32",
        "value": "t_uint256"
      },
      "t_mapping(t_bytes32,t_struct(RoleData)34_storage)": {
        "encoding": "mapping",
        "key": "t_bytes32",
        "label": "mapping(bytes32 => struct AccessControlUpgradeable.RoleData)",
        "numberOfBytes": "32",
        "value": "t_struct(RoleData)34_storage"
      },
      "t_mapping(t_uint256,t_address)": {
        "encoding": "mapping",
        "key": "t_uint256",
        "label": "mapping(uint256 => address)",
        "numberOfBytes": "32",
        "value": "t_address"
      },
      "t_mapping(t_uint256,t_bool)": {
        "encoding": "mapping",
        "key": "t_uint256",
        "label": "mapping(uint256 => bool)",
        "numberOfBytes": "32",
        "value": "t_bool"
      },
      "t_mapping(t_uint256,t_struct(PrimarySkill)4415_storage)": {
        "encoding": "mapping",
        "key": "t_uint256",
        "label": "mapping(uint256 => struct NeanderSmol.PrimarySkill)",
        "numberOfBytes": "32",
        "value": "t_struct(PrimarySkill)4415_storage"
      },
      "t_mapping(t_uint256,t_uint256)": {
        "encoding": "mapping",
        "key": "t_uint256",
        "label": "mapping(uint256 => uint256)",
        "numberOfBytes": "32",
        "value": "t_uint256"
      },
      "t_string_storage": {
        "encoding": "bytes",
        "label": "string",
        "numberOfBytes": "32"
      },
      "t_struct(Counter)2445_storage": {
        "encoding": "inplace",
        "label": "struct CountersUpgradeable.Counter",
        "members": [
          {
            "astId": 2444,
            "contract": "contracts/NeanderSmol.sol:NeanderSmol",
            "label": "_value",
            "offset": 0,
            "slot": "0",
            "type": "t_uint256"
          }
        ],
        "numberOfBytes": "32"
      },
      "t_struct(PrimarySkill)4415_storage": {
        "encoding": "inplace",
        "label": "struct NeanderSmol.PrimarySkill",
        "members": [
          {
            "astId": 4410,
            "contract": "contracts/NeanderSmol.sol:NeanderSmol",
            "label": "mystics",
            "offset": 0,
            "slot": "0",
            "type": "t_uint256"
          },
          {
            "astId": 4412,
            "contract": "contracts/NeanderSmol.sol:NeanderSmol",
            "label": "farmers",
            "offset": 0,
            "slot": "1",
            "type": "t_uint256"
          },
          {
            "astId": 4414,
            "contract": "contracts/NeanderSmol.sol:NeanderSmol",
            "label": "fighters",
            "offset": 0,
            "slot": "2",
            "type": "t_uint256"
          }
        ],
        "numberOfBytes": "96"
      },
      "t_struct(RoleData)34_storage": {
        "encoding": "inplace",
        "label": "struct AccessControlUpgradeable.RoleData",
        "members": [
          {
            "astId": 31,
            "contract": "contracts/NeanderSmol.sol:NeanderSmol",
            "label": "members",
            "offset": 0,
            "slot": "0",
            "type": "t_mapping(t_address,t_bool)"
          },
          {
            "astId": 33,
            "contract": "contracts/NeanderSmol.sol:NeanderSmol",
            "label": "adminRole",
            "offset": 0,
            "slot": "1",
            "type": "t_bytes32"
          }
        ],
        "numberOfBytes": "64"
      },
      "t_uint256": {
        "encoding": "inplace",
        "label": "uint256",
        "numberOfBytes": "32"
      },
      "t_uint8": {
        "encoding": "inplace",
        "label": "uint8",
        "numberOfBytes": "1"
      }
    }
  }
}