{
  "address": "0x60507BbE6E7fD52Ba93243921b99bA61fD7a445D",
  "abi": [
    {
      "inputs": [],
      "name": "NotAnAdmin",
      "type": "error"
    },
    {
      "inputs": [],
      "name": "NotAuthorized",
      "type": "error"
    },
    {
      "inputs": [],
      "name": "NotTheOwner",
      "type": "error"
    },
    {
      "inputs": [],
      "name": "NotTheStakingContract",
      "type": "error"
    },
    {
      "inputs": [],
      "name": "TokenIsStaked",
      "type": "error"
    },
    {
      "anonymous": false,
      "inputs": [
        {
          "indexed": true,
          "internalType": "address",
          "name": "owner",
          "type": "address"
        },
        {
          "indexed": true,
          "internalType": "address",
          "name": "approved",
          "type": "address"
        },
        {
          "indexed": true,
          "internalType": "uint256",
          "name": "tokenId",
          "type": "uint256"
        }
      ],
      "name": "Approval",
      "type": "event"
    },
    {
      "anonymous": false,
      "inputs": [
        {
          "indexed": true,
          "internalType": "address",
          "name": "owner",
          "type": "address"
        },
        {
          "indexed": true,
          "internalType": "address",
          "name": "operator",
          "type": "address"
        },
        {
          "indexed": false,
          "internalType": "bool",
          "name": "approved",
          "type": "bool"
        }
      ],
      "name": "ApprovalForAll",
      "type": "event"
    },
    {
      "anonymous": false,
      "inputs": [
        {
          "indexed": true,
          "internalType": "uint256",
          "name": "tokenId",
          "type": "uint256"
        },
        {
          "indexed": true,
          "internalType": "uint256",
          "name": "amount",
          "type": "uint256"
        }
      ],
      "name": "FarmerSkillUpdated",
      "type": "event"
    },
    {
      "anonymous": false,
      "inputs": [
        {
          "indexed": true,
          "internalType": "uint256",
          "name": "tokenId",
          "type": "uint256"
        },
        {
          "indexed": true,
          "internalType": "uint256",
          "name": "amount",
          "type": "uint256"
        }
      ],
      "name": "FightersSkillUpdated",
      "type": "event"
    },
    {
      "anonymous": false,
      "inputs": [
        {
          "indexed": false,
          "internalType": "uint8",
          "name": "version",
          "type": "uint8"
        }
      ],
      "name": "Initialized",
      "type": "event"
    },
    {
      "anonymous": false,
      "inputs": [
        {
          "indexed": true,
          "internalType": "uint256",
          "name": "tokenId",
          "type": "uint256"
        },
        {
          "indexed": true,
          "internalType": "uint256",
          "name": "amount",
          "type": "uint256"
        }
      ],
      "name": "MysticsSkillUpdated",
      "type": "event"
    },
    {
      "anonymous": false,
      "inputs": [
        {
          "indexed": true,
          "internalType": "bytes32",
          "name": "role",
          "type": "bytes32"
        },
        {
          "indexed": true,
          "internalType": "bytes32",
          "name": "previousAdminRole",
          "type": "bytes32"
        },
        {
          "indexed": true,
          "internalType": "bytes32",
          "name": "newAdminRole",
          "type": "bytes32"
        }
      ],
      "name": "RoleAdminChanged",
      "type": "event"
    },
    {
      "anonymous": false,
      "inputs": [
        {
          "indexed": true,
          "internalType": "bytes32",
          "name": "role",
          "type": "bytes32"
        },
        {
          "indexed": true,
          "internalType": "address",
          "name": "account",
          "type": "address"
        },
        {
          "indexed": true,
          "internalType": "address",
          "name": "sender",
          "type": "address"
        }
      ],
      "name": "RoleGranted",
      "type": "event"
    },
    {
      "anonymous": false,
      "inputs": [
        {
          "indexed": true,
          "internalType": "bytes32",
          "name": "role",
          "type": "bytes32"
        },
        {
          "indexed": true,
          "internalType": "address",
          "name": "account",
          "type": "address"
        },
        {
          "indexed": true,
          "internalType": "address",
          "name": "sender",
          "type": "address"
        }
      ],
      "name": "RoleRevoked",
      "type": "event"
    },
    {
      "anonymous": false,
      "inputs": [
        {
          "indexed": false,
          "internalType": "address",
          "name": "to",
          "type": "address"
        },
        {
          "indexed": false,
          "internalType": "uint256",
          "name": "tokenId",
          "type": "uint256"
        }
      ],
      "name": "SmolNeanderMint",
      "type": "event"
    },
    {
      "anonymous": false,
      "inputs": [
        {
          "indexed": true,
          "internalType": "uint256",
          "name": "tokenId",
          "type": "uint256"
        },
        {
          "indexed": false,
          "internalType": "bool",
          "name": "state",
          "type": "bool"
        }
      ],
      "name": "StakeState",
      "type": "event"
    },
    {
      "anonymous": false,
      "inputs": [
        {
          "indexed": true,
          "internalType": "address",
          "name": "from",
          "type": "address"
        },
        {
          "indexed": true,
          "internalType": "address",
          "name": "to",
          "type": "address"
        },
        {
          "indexed": true,
          "internalType": "uint256",
          "name": "tokenId",
          "type": "uint256"
        }
      ],
      "name": "Transfer",
      "type": "event"
    },
    {
      "anonymous": false,
      "inputs": [
        {
          "indexed": false,
          "internalType": "uint256",
          "name": "tokenId",
          "type": "uint256"
        },
        {
          "indexed": false,
          "internalType": "uint256",
          "name": "commonSense",
          "type": "uint256"
        }
      ],
      "name": "commonSenseUpdated",
      "type": "event"
    },
    {
      "anonymous": false,
      "inputs": [
        {
          "indexed": false,
          "internalType": "string",
          "name": "newURI",
          "type": "string"
        }
      ],
      "name": "uriUpdate",
      "type": "event"
    },
    {
      "inputs": [],
      "name": "DEFAULT_ADMIN_ROLE",
      "outputs": [
        {
          "internalType": "bytes32",
          "name": "",
          "type": "bytes32"
        }
      ],
      "stateMutability": "view",
      "type": "function"
    },
    {
      "inputs": [],
      "name": "SMOLNEANDER_ADMIN_ROLE",
      "outputs": [
        {
          "internalType": "bytes32",
          "name": "",
          "type": "bytes32"
        }
      ],
      "stateMutability": "view",
      "type": "function"
    },
    {
      "inputs": [],
      "name": "SMOLNEANDER_CONTRACT_ROLE",
      "outputs": [
        {
          "internalType": "bytes32",
          "name": "",
          "type": "bytes32"
        }
      ],
      "stateMutability": "view",
      "type": "function"
    },
    {
      "inputs": [],
      "name": "SMOLNEANDER_DEV_GROUND_ROLE",
      "outputs": [
        {
          "internalType": "bytes32",
          "name": "",
          "type": "bytes32"
        }
      ],
      "stateMutability": "view",
      "type": "function"
    },
    {
      "inputs": [],
      "name": "SMOLNEANDER_OWNER_ROLE",
      "outputs": [
        {
          "internalType": "bytes32",
          "name": "",
          "type": "bytes32"
        }
      ],
      "stateMutability": "view",
      "type": "function"
    },
    {
      "inputs": [],
      "name": "_tokenIdTracker",
      "outputs": [
        {
          "internalType": "uint256",
          "name": "_value",
          "type": "uint256"
        }
      ],
      "stateMutability": "view",
      "type": "function"
    },
    {
      "inputs": [
        {
          "internalType": "address",
          "name": "to",
          "type": "address"
        },
        {
          "internalType": "uint256",
          "name": "tokenId",
          "type": "uint256"
        }
      ],
      "name": "approve",
      "outputs": [],
      "stateMutability": "nonpayable",
      "type": "function"
    },
    {
      "inputs": [
        {
          "internalType": "address",
          "name": "owner",
          "type": "address"
        }
      ],
      "name": "balanceOf",
      "outputs": [
        {
          "internalType": "uint256",
          "name": "",
          "type": "uint256"
        }
      ],
      "stateMutability": "view",
      "type": "function"
    },
    {
      "inputs": [],
      "name": "baseURI",
      "outputs": [
        {
          "internalType": "string",
          "name": "",
          "type": "string"
        }
      ],
      "stateMutability": "view",
      "type": "function"
    },
    {
      "inputs": [
        {
          "internalType": "uint256",
          "name": "",
          "type": "uint256"
        }
      ],
      "name": "commonSense",
      "outputs": [
        {
          "internalType": "uint256",
          "name": "",
          "type": "uint256"
        }
      ],
      "stateMutability": "view",
      "type": "function"
    },
    {
      "inputs": [],
      "name": "commonSenseMaxLevel",
      "outputs": [
        {
          "internalType": "uint256",
          "name": "",
          "type": "uint256"
        }
      ],
      "stateMutability": "view",
      "type": "function"
    },
    {
      "inputs": [],
      "name": "decimals",
      "outputs": [
        {
          "internalType": "uint256",
          "name": "",
          "type": "uint256"
        }
      ],
      "stateMutability": "view",
      "type": "function"
    },
    {
      "inputs": [],
      "name": "devGround",
      "outputs": [
        {
          "internalType": "address",
          "name": "",
          "type": "address"
        }
      ],
      "stateMutability": "view",
      "type": "function"
    },
    {
      "inputs": [
        {
          "internalType": "uint256",
          "name": "_tokenId",
          "type": "uint256"
        },
        {
          "internalType": "uint256",
          "name": "_amount",
          "type": "uint256"
        }
      ],
      "name": "developFarmers",
      "outputs": [],
      "stateMutability": "nonpayable",
      "type": "function"
    },
    {
      "inputs": [
        {
          "internalType": "uint256",
          "name": "_tokenId",
          "type": "uint256"
        },
        {
          "internalType": "uint256",
          "name": "_amount",
          "type": "uint256"
        }
      ],
      "name": "developFighter",
      "outputs": [],
      "stateMutability": "nonpayable",
      "type": "function"
    },
    {
      "inputs": [
        {
          "internalType": "uint256",
          "name": "_tokenId",
          "type": "uint256"
        },
        {
          "internalType": "uint256",
          "name": "_amount",
          "type": "uint256"
        }
      ],
      "name": "developMystics",
      "outputs": [],
      "stateMutability": "nonpayable",
      "type": "function"
    },
    {
      "inputs": [],
      "name": "flipPublicState",
      "outputs": [],
      "stateMutability": "nonpayable",
      "type": "function"
    },
    {
      "inputs": [
        {
          "internalType": "uint256",
          "name": "tokenId",
          "type": "uint256"
        }
      ],
      "name": "getApproved",
      "outputs": [
        {
          "internalType": "address",
          "name": "",
          "type": "address"
        }
      ],
      "stateMutability": "view",
      "type": "function"
    },
    {
      "inputs": [
        {
          "internalType": "uint256",
          "name": "_tokenId",
          "type": "uint256"
        }
      ],
      "name": "getCommonSense",
      "outputs": [
        {
          "internalType": "uint256",
          "name": "",
          "type": "uint256"
        }
      ],
      "stateMutability": "view",
      "type": "function"
    },
    {
      "inputs": [
        {
          "internalType": "uint256",
          "name": "_tokenId",
          "type": "uint256"
        }
      ],
      "name": "getPrimarySkill",
      "outputs": [
        {
          "components": [
            {
              "internalType": "uint256",
              "name": "mystics",
              "type": "uint256"
            },
            {
              "internalType": "uint256",
              "name": "farmers",
              "type": "uint256"
            },
            {
              "internalType": "uint256",
              "name": "fighters",
              "type": "uint256"
            }
          ],
          "internalType": "struct NeanderSmol.PrimarySkill",
          "name": "",
          "type": "tuple"
        }
      ],
      "stateMutability": "view",
      "type": "function"
    },
    {
      "inputs": [
        {
          "internalType": "bytes32",
          "name": "role",
          "type": "bytes32"
        }
      ],
      "name": "getRoleAdmin",
      "outputs": [
        {
          "internalType": "bytes32",
          "name": "",
          "type": "bytes32"
        }
      ],
      "stateMutability": "view",
      "type": "function"
    },
    {
      "inputs": [
        {
          "internalType": "address",
          "name": "_admin",
          "type": "address"
        }
      ],
      "name": "grantAdmin",
      "outputs": [],
      "stateMutability": "nonpayable",
      "type": "function"
    },
    {
      "inputs": [
        {
          "internalType": "address",
          "name": "_devGround",
          "type": "address"
        }
      ],
      "name": "grantDevGround",
      "outputs": [],
      "stateMutability": "nonpayable",
      "type": "function"
    },
    {
      "inputs": [
        {
          "internalType": "address",
          "name": "_owner",
          "type": "address"
        }
      ],
      "name": "grantOwner",
      "outputs": [],
      "stateMutability": "nonpayable",
      "type": "function"
    },
    {
      "inputs": [
        {
          "internalType": "bytes32",
          "name": "role",
          "type": "bytes32"
        },
        {
          "internalType": "address",
          "name": "account",
          "type": "address"
        }
      ],
      "name": "grantRole",
      "outputs": [],
      "stateMutability": "nonpayable",
      "type": "function"
    },
    {
      "inputs": [
        {
          "internalType": "address",
          "name": "_contract",
          "type": "address"
        }
      ],
      "name": "grantStaking",
      "outputs": [],
      "stateMutability": "nonpayable",
      "type": "function"
    },
    {
      "inputs": [
        {
          "internalType": "address[]",
          "name": "_contracts",
          "type": "address[]"
        }
      ],
      "name": "grantStakingContracts",
      "outputs": [],
      "stateMutability": "nonpayable",
      "type": "function"
    },
    {
      "inputs": [
        {
          "internalType": "bytes32",
          "name": "role",
          "type": "bytes32"
        },
        {
          "internalType": "address",
          "name": "account",
          "type": "address"
        }
      ],
      "name": "hasRole",
      "outputs": [
        {
          "internalType": "bool",
          "name": "",
          "type": "bool"
        }
      ],
      "stateMutability": "view",
      "type": "function"
    },
    {
      "inputs": [],
      "name": "initialize",
      "outputs": [],
      "stateMutability": "nonpayable",
      "type": "function"
    },
    {
      "inputs": [],
      "name": "initializeAccess",
      "outputs": [],
      "stateMutability": "nonpayable",
      "type": "function"
    },
    {
      "inputs": [
        {
          "internalType": "address",
          "name": "_admin",
          "type": "address"
        }
      ],
      "name": "isAdmin",
      "outputs": [
        {
          "internalType": "bool",
          "name": "",
          "type": "bool"
        }
      ],
      "stateMutability": "view",
      "type": "function"
    },
    {
      "inputs": [
        {
          "internalType": "address",
          "name": "owner",
          "type": "address"
        },
        {
          "internalType": "address",
          "name": "operator",
          "type": "address"
        }
      ],
      "name": "isApprovedForAll",
      "outputs": [
        {
          "internalType": "bool",
          "name": "",
          "type": "bool"
        }
      ],
      "stateMutability": "view",
      "type": "function"
    },
    {
      "inputs": [
        {
          "internalType": "address",
          "name": "_devGround",
          "type": "address"
        }
      ],
      "name": "isDevGround",
      "outputs": [
        {
          "internalType": "bool",
          "name": "",
          "type": "bool"
        }
      ],
      "stateMutability": "view",
      "type": "function"
    },
    {
      "inputs": [
        {
          "internalType": "address",
          "name": "_owner",
          "type": "address"
        }
      ],
      "name": "isOwner",
      "outputs": [
        {
          "internalType": "bool",
          "name": "",
          "type": "bool"
        }
      ],
      "stateMutability": "view",
      "type": "function"
    },
    {
      "inputs": [
        {
          "internalType": "address",
          "name": "_contract",
          "type": "address"
        }
      ],
      "name": "isStakingContract",
      "outputs": [
        {
          "internalType": "bool",
          "name": "",
          "type": "bool"
        }
      ],
      "stateMutability": "view",
      "type": "function"
    },
    {
      "inputs": [],
      "name": "name",
      "outputs": [
        {
          "internalType": "string",
          "name": "",
          "type": "string"
        }
      ],
      "stateMutability": "view",
      "type": "function"
    },
    {
      "inputs": [
        {
          "internalType": "uint256",
          "name": "tokenId",
          "type": "uint256"
        }
      ],
      "name": "ownerOf",
      "outputs": [
        {
          "internalType": "address",
          "name": "",
          "type": "address"
        }
      ],
      "stateMutability": "view",
      "type": "function"
    },
    {
      "inputs": [],
      "name": "publicActive",
      "outputs": [
        {
          "internalType": "bool",
          "name": "",
          "type": "bool"
        }
      ],
      "stateMutability": "view",
      "type": "function"
    },
    {
      "inputs": [
        {
          "internalType": "uint256",
          "name": "amount",
          "type": "uint256"
        }
      ],
      "name": "publicMint",
      "outputs": [],
      "stateMutability": "payable",
      "type": "function"
    },
    {
      "inputs": [],
      "name": "publicPrice",
      "outputs": [
        {
          "internalType": "uint256",
          "name": "",
          "type": "uint256"
        }
      ],
      "stateMutability": "view",
      "type": "function"
    },
    {
      "inputs": [
        {
          "internalType": "bytes32",
          "name": "role",
          "type": "bytes32"
        },
        {
          "internalType": "address",
          "name": "account",
          "type": "address"
        }
      ],
      "name": "renounceRole",
      "outputs": [],
      "stateMutability": "nonpayable",
      "type": "function"
    },
    {
      "inputs": [
        {
          "internalType": "bytes32",
          "name": "role",
          "type": "bytes32"
        },
        {
          "internalType": "address",
          "name": "account",
          "type": "address"
        }
      ],
      "name": "revokeRole",
      "outputs": [],
      "stateMutability": "nonpayable",
      "type": "function"
    },
    {
      "inputs": [
        {
          "internalType": "address",
          "name": "from",
          "type": "address"
        },
        {
          "internalType": "address",
          "name": "to",
          "type": "address"
        },
        {
          "internalType": "uint256",
          "name": "tokenId",
          "type": "uint256"
        }
      ],
      "name": "safeTransferFrom",
      "outputs": [],
      "stateMutability": "nonpayable",
      "type": "function"
    },
    {
      "inputs": [
        {
          "internalType": "address",
          "name": "from",
          "type": "address"
        },
        {
          "internalType": "address",
          "name": "to",
          "type": "address"
        },
        {
          "internalType": "uint256",
          "name": "tokenId",
          "type": "uint256"
        },
        {
          "internalType": "bytes",
          "name": "data",
          "type": "bytes"
        }
      ],
      "name": "safeTransferFrom",
      "outputs": [],
      "stateMutability": "nonpayable",
      "type": "function"
    },
    {
      "inputs": [
        {
          "internalType": "address",
          "name": "operator",
          "type": "address"
        },
        {
          "internalType": "bool",
          "name": "approved",
          "type": "bool"
        }
      ],
      "name": "setApprovalForAll",
      "outputs": [],
      "stateMutability": "nonpayable",
      "type": "function"
    },
    {
      "inputs": [
        {
          "internalType": "string",
          "name": "newBaseURI",
          "type": "string"
        }
      ],
      "name": "setBaseURI",
      "outputs": [],
      "stateMutability": "nonpayable",
      "type": "function"
    },
    {
      "inputs": [
        {
          "internalType": "uint256",
          "name": "amount",
          "type": "uint256"
        }
      ],
      "name": "setPublicPrice",
      "outputs": [],
      "stateMutability": "nonpayable",
      "type": "function"
    },
    {
      "inputs": [
        {
          "internalType": "uint256",
          "name": "",
          "type": "uint256"
        }
      ],
      "name": "staked",
      "outputs": [
        {
          "internalType": "bool",
          "name": "",
          "type": "bool"
        }
      ],
      "stateMutability": "view",
      "type": "function"
    },
    {
      "inputs": [
        {
          "internalType": "uint256",
          "name": "_tokenId",
          "type": "uint256"
        },
        {
          "internalType": "bool",
          "name": "_state",
          "type": "bool"
        }
      ],
      "name": "stakingHandler",
      "outputs": [],
      "stateMutability": "nonpayable",
      "type": "function"
    },
    {
      "inputs": [
        {
          "internalType": "bytes4",
          "name": "interfaceId",
          "type": "bytes4"
        }
      ],
      "name": "supportsInterface",
      "outputs": [
        {
          "internalType": "bool",
          "name": "",
          "type": "bool"
        }
      ],
      "stateMutability": "view",
      "type": "function"
    },
    {
      "inputs": [],
      "name": "symbol",
      "outputs": [
        {
          "internalType": "string",
          "name": "",
          "type": "string"
        }
      ],
      "stateMutability": "view",
      "type": "function"
    },
    {
      "inputs": [
        {
          "internalType": "uint256",
          "name": "index",
          "type": "uint256"
        }
      ],
      "name": "tokenByIndex",
      "outputs": [
        {
          "internalType": "uint256",
          "name": "",
          "type": "uint256"
        }
      ],
      "stateMutability": "view",
      "type": "function"
    },
    {
      "inputs": [
        {
          "internalType": "address",
          "name": "owner",
          "type": "address"
        },
        {
          "internalType": "uint256",
          "name": "index",
          "type": "uint256"
        }
      ],
      "name": "tokenOfOwnerByIndex",
      "outputs": [
        {
          "internalType": "uint256",
          "name": "",
          "type": "uint256"
        }
      ],
      "stateMutability": "view",
      "type": "function"
    },
    {
      "inputs": [
        {
          "internalType": "uint256",
          "name": "",
          "type": "uint256"
        }
      ],
      "name": "tokenURI",
      "outputs": [
        {
          "internalType": "string",
          "name": "",
          "type": "string"
        }
      ],
      "stateMutability": "view",
      "type": "function"
    },
    {
      "inputs": [],
      "name": "totalSupply",
      "outputs": [
        {
          "internalType": "uint256",
          "name": "",
          "type": "uint256"
        }
      ],
      "stateMutability": "view",
      "type": "function"
    },
    {
      "inputs": [
        {
          "internalType": "address",
          "name": "from",
          "type": "address"
        },
        {
          "internalType": "address",
          "name": "to",
          "type": "address"
        },
        {
          "internalType": "uint256",
          "name": "tokenId",
          "type": "uint256"
        }
      ],
      "name": "transferFrom",
      "outputs": [],
      "stateMutability": "nonpayable",
      "type": "function"
    },
    {
      "inputs": [
        {
          "internalType": "uint256",
          "name": "_tokenId",
          "type": "uint256"
        },
        {
          "internalType": "uint256",
          "name": "amount",
          "type": "uint256"
        }
      ],
      "name": "updateCommonSense",
      "outputs": [],
      "stateMutability": "nonpayable",
      "type": "function"
    },
    {
      "inputs": [],
      "name": "withdrawAll",
      "outputs": [],
      "stateMutability": "nonpayable",
      "type": "function"
    }
  ],
  "transactionHash": "0x38e0f57100a7026bf82557df121417e645b00c4cd7905e91d104a09f6f167fc1",
  "args": [],
  "numDeployments": 2,
  "solcInputHash": "5a75228573ea531db0f060d86d9ccd68",
  "bytecode": "0x608060405234801561001057600080fd5b50615e9580620000216000396000f3fe6080604052600436106103815760003560e01c80635e1bef32116101d1578063a22cb46511610102578063c87b56dd116100a0578063e0c505771161006f578063e0c5057714610d33578063e985e9c514610d5c578063ec95461e14610d99578063f822a5b214610dc457610381565b8063c87b56dd14610c79578063cf1c7d8414610cb6578063d547741f14610ce1578063dc97805914610d0a57610381565b8063b8673a3f116100dc578063b8673a3f14610bd1578063b88d4fde14610bfc578063c1c4db7f14610c25578063c627525514610c5057610381565b8063a22cb46514610b52578063a945bf8014610b7b578063b6ddc8a114610ba657610381565b8063853828b61161016f57806391d148541161014957806391d1485414610a9457806395d89b4114610ad157806398bcede914610afc578063a217fddf14610b2757610381565b8063853828b614610a29578063882b180814610a405780638dd919bb14610a5757610381565b80636c0360eb116101ab5780636c0360eb1461098157806370a08231146109ac578063743f4e94146109e95780638129fc1c14610a1257610381565b80635e1bef32146108ca57806362cd8ade146109075780636352211e1461094457610381565b80632a25e57c116102b657806336568abe1161025457806342842e0e1161022357806342842e0e14610812578063458b43361461083b5780634f6ccce71461086457806355f804b3146108a157610381565b806336568abe1461076a57806337bf06a6146107935780633f2981cf146107bc57806341754c57146107e757610381565b80632f54bf6e116102905780632f54bf6e1461069c5780632f745c59146106d9578063313ce5671461071657806335bb3e161461074157610381565b80632a25e57c1461062e5780632db11544146106575780632f2ff15d1461067357610381565b806323b872dd116103235780632548b9b0116102fd5780632548b9b014610588578063261b2fda1461059f57806329eef985146105c85780632a1f4146146105f157610381565b806323b872dd146104e5578063248a9ca31461050e57806324d7806c1461054b57610381565b806306fdde031161035f57806306fdde0314610429578063081812fc14610454578063095ea7b31461049157806318160ddd146104ba57610381565b806301ffc9a714610386578063067ea392146103c357806306df2719146103ec575b600080fd5b34801561039257600080fd5b506103ad60048036038101906103a8919061428d565b610e01565b6040516103ba91906142d5565b60405180910390f35b3480156103cf57600080fd5b506103ea60048036038101906103e59190614326565b610e23565b005b3480156103f857600080fd5b50610413600480360381019061040e91906143c4565b610ec2565b60405161042091906142d5565b60405180910390f35b34801561043557600080fd5b5061043e610ef5565b60405161044b919061448a565b60405180910390f35b34801561046057600080fd5b5061047b600480360381019061047691906144ac565b610f87565b60405161048891906144e8565b60405180910390f35b34801561049d57600080fd5b506104b860048036038101906104b39190614503565b610fcd565b005b3480156104c657600080fd5b506104cf6110e4565b6040516104dc9190614552565b60405180910390f35b3480156104f157600080fd5b5061050c6004803603810190610507919061456d565b6110f1565b005b34801561051a57600080fd5b50610535600480360381019061053091906145f6565b611151565b6040516105429190614632565b60405180910390f35b34801561055757600080fd5b50610572600480360381019061056d91906143c4565b611171565b60405161057f91906142d5565b60405180910390f35b34801561059457600080fd5b5061059d6111a4565b005b3480156105ab57600080fd5b506105c660048036038101906105c19190614326565b611397565b005b3480156105d457600080fd5b506105ef60048036038101906105ea91906146b2565b6114a2565b005b3480156105fd57600080fd5b50610618600480360381019061061391906144ac565b6114f6565b6040516106259190614750565b60405180910390f35b34801561063a57600080fd5b50610655600480360381019061065091906143c4565b611542565b005b610671600480360381019061066c91906144ac565b61156f565b005b34801561067f57600080fd5b5061069a6004803603810190610695919061476b565b61176d565b005b3480156106a857600080fd5b506106c360048036038101906106be91906143c4565b61178e565b6040516106d091906142d5565b60405180910390f35b3480156106e557600080fd5b5061070060048036038101906106fb9190614503565b6117c1565b60405161070d9190614552565b60405180910390f35b34801561072257600080fd5b5061072b611866565b6040516107389190614552565b60405180910390f35b34801561074d57600080fd5b50610768600480360381019061076391906143c4565b61186c565b005b34801561077657600080fd5b50610791600480360381019061078c919061476b565b611899565b005b34801561079f57600080fd5b506107ba60048036038101906107b591906147d7565b61191c565b005b3480156107c857600080fd5b506107d16119ca565b6040516107de91906142d5565b60405180910390f35b3480156107f357600080fd5b506107fc6119dd565b6040516108099190614552565b60405180910390f35b34801561081e57600080fd5b506108396004803603810190610834919061456d565b6119e3565b005b34801561084757600080fd5b50610862600480360381019061085d91906143c4565b611a03565b005b34801561087057600080fd5b5061088b600480360381019061088691906144ac565b611a2f565b6040516108989190614552565b60405180910390f35b3480156108ad57600080fd5b506108c860048036038101906108c39190614947565b611aa0565b005b3480156108d657600080fd5b506108f160048036038101906108ec91906144ac565b611b37565b6040516108fe91906142d5565b60405180910390f35b34801561091357600080fd5b5061092e600480360381019061092991906143c4565b611b58565b60405161093b91906142d5565b60405180910390f35b34801561095057600080fd5b5061096b600480360381019061096691906144ac565b611b8a565b60405161097891906144e8565b60405180910390f35b34801561098d57600080fd5b50610996611c10565b6040516109a3919061448a565b60405180910390f35b3480156109b857600080fd5b506109d360048036038101906109ce91906143c4565b611c9e565b6040516109e09190614552565b60405180910390f35b3480156109f557600080fd5b50610a106004803603810190610a0b9190614326565b611d55565b005b348015610a1e57600080fd5b50610a27611df4565b005b348015610a3557600080fd5b50610a3e612015565b005b348015610a4c57600080fd5b50610a556121e1565b005b348015610a6357600080fd5b50610a7e6004803603810190610a7991906144ac565b612253565b604051610a8b9190614552565b60405180910390f35b348015610aa057600080fd5b50610abb6004803603810190610ab6919061476b565b61226c565b604051610ac891906142d5565b60405180910390f35b348015610add57600080fd5b50610ae66122d7565b604051610af3919061448a565b60405180910390f35b348015610b0857600080fd5b50610b11612369565b604051610b1e9190614552565b60405180910390f35b348015610b3357600080fd5b50610b3c612375565b604051610b499190614632565b60405180910390f35b348015610b5e57600080fd5b50610b796004803603810190610b749190614990565b61237c565b005b348015610b8757600080fd5b50610b90612392565b604051610b9d9190614552565b60405180910390f35b348015610bb257600080fd5b50610bbb612399565b604051610bc891906144e8565b60405180910390f35b348015610bdd57600080fd5b50610be66123c0565b604051610bf39190614632565b60405180910390f35b348015610c0857600080fd5b50610c236004803603810190610c1e9190614a71565b6123e3565b005b348015610c3157600080fd5b50610c3a612445565b604051610c479190614632565b60405180910390f35b348015610c5c57600080fd5b50610c776004803603810190610c7291906144ac565b612469565b005b348015610c8557600080fd5b50610ca06004803603810190610c9b91906144ac565b6124ba565b604051610cad919061448a565b60405180910390f35b348015610cc257600080fd5b50610ccb6124dc565b604051610cd89190614632565b60405180910390f35b348015610ced57600080fd5b50610d086004803603810190610d03919061476b565b612500565b005b348015610d1657600080fd5b50610d316004803603810190610d2c91906143c4565b612521565b005b348015610d3f57600080fd5b50610d5a6004803603810190610d559190614326565b61254e565b005b348015610d6857600080fd5b50610d836004803603810190610d7e9190614af4565b6125ed565b604051610d9091906142d5565b60405180910390f35b348015610da557600080fd5b50610dae612681565b604051610dbb9190614632565b60405180910390f35b348015610dd057600080fd5b50610deb6004803603810190610de691906144ac565b6126a5565b604051610df89190614552565b60405180910390f35b6000610e0c826126dc565b80610e1c5750610e1b82612756565b5b9050919050565b610e2c33611b58565b610e62576040517fea8e4eb500000000000000000000000000000000000000000000000000000000815260040160405180910390fd5b8061010360008481526020019081526020016000206001016000828254610e899190614b63565b9250508190555080827f46aff80f5a0f8e2858db912b4f55d84a73e02bcf0db483da3113e39f4d61800360405160405180910390a35050565b6000610eee7fa619569270f7f4a1d8f7ed82794221f15c6f8595dada80d85ac4e31cdd6fe04c8361226c565b9050919050565b606060978054610f0490614be8565b80601f0160208091040260200160405190810160405280929190818152602001828054610f3090614be8565b8015610f7d5780601f10610f5257610100808354040283529160200191610f7d565b820191906000526020600020905b815481529060010190602001808311610f6057829003601f168201915b5050505050905090565b6000610f92826127d0565b609b600083815260200190815260200160002060009054906101000a900473ffffffffffffffffffffffffffffffffffffffff169050919050565b6000610fd882611b8a565b90508073ffffffffffffffffffffffffffffffffffffffff168373ffffffffffffffffffffffffffffffffffffffff1603611048576040517f08c379a000000000000000000000000000000000000000000000000000000000815260040161103f90614c8b565b60405180910390fd5b8073ffffffffffffffffffffffffffffffffffffffff1661106761281b565b73ffffffffffffffffffffffffffffffffffffffff16148061109657506110958161109061281b565b6125ed565b5b6110d5576040517f08c379a00000000000000000000000000000000000000000000000000000000081526004016110cc90614d1d565b60405180910390fd5b6110df8383612823565b505050565b600060cb80549050905090565b6111026110fc61281b565b826128dc565b611141576040517f08c379a000000000000000000000000000000000000000000000000000000000815260040161113890614daf565b60405180910390fd5b61114c838383612971565b505050565b600060656000838152602001908152602001600020600101549050919050565b600061119d7f3b351bd1fe2dfe571b64d5c9adc99cfeeccb1e4f46d0485613dcb1ff87242f4d8361226c565b9050919050565b600060019054906101000a900460ff166111f3576040517f08c379a00000000000000000000000000000000000000000000000000000000081526004016111ea90614e41565b60405180910390fd5b6111fb612c6a565b6112257f9aa77ce78f008f23606e6755d96256721080001bc839bd46f3566a5b8e3f318880612cbb565b61126f7fa619569270f7f4a1d8f7ed82794221f15c6f8595dada80d85ac4e31cdd6fe04c7f9aa77ce78f008f23606e6755d96256721080001bc839bd46f3566a5b8e3f3188612cbb565b6112b87ee9ab62a5761636687b05e2e7b04f22689d99792df38552d31664fa3f9584097f9aa77ce78f008f23606e6755d96256721080001bc839bd46f3566a5b8e3f3188612cbb565b6113027f3b351bd1fe2dfe571b64d5c9adc99cfeeccb1e4f46d0485613dcb1ff87242f4d7f9aa77ce78f008f23606e6755d96256721080001bc839bd46f3566a5b8e3f3188612cbb565b6113337f9aa77ce78f008f23606e6755d96256721080001bc839bd46f3566a5b8e3f318861132e61281b565b612d17565b6113647fa619569270f7f4a1d8f7ed82794221f15c6f8595dada80d85ac4e31cdd6fe04c61135f61281b565b612d17565b6113957f3b351bd1fe2dfe571b64d5c9adc99cfeeccb1e4f46d0485613dcb1ff87242f4d61139061281b565b612d17565b565b6113a76113a261281b565b61178e565b6113dd576040517f36b6b89500000000000000000000000000000000000000000000000000000000815260040160405180910390fd5b60fe54816101056000858152602001908152602001600020546114009190614b63565b106114255760fe54610105600084815260200190815260200160002081905550611451565b80610105600084815260200190815260200160002060008282546114499190614b63565b925050819055505b7f78ebbea0f2bcf8b35cdcad5cb93b4c13bc6d80b2e6ec67dfc1cfc85db8ddaeb182610105600085815260200190815260200160002054604051611496929190614e61565b60405180910390a15050565b60005b828290508110156114f1576114e08383838181106114c6576114c5614e8a565b5b90506020020160208101906114db91906143c4565b611542565b806114ea90614eb9565b90506114a5565b505050565b6114fe61415d565b610103600083815260200190815260200160002060405180606001604052908160008201548152602001600182015481526020016002820154815250509050919050565b61156c7fa619569270f7f4a1d8f7ed82794221f15c6f8595dada80d85ac4e31cdd6fe04c8261176d565b50565b806101005461157e9190614f01565b3410156115c0576040517f08c379a00000000000000000000000000000000000000000000000000000000081526004016115b790614fa7565b60405180910390fd5b60ff60009054906101000a900460ff1661160f576040517f08c379a000000000000000000000000000000000000000000000000000000000815260040161160690615013565b60405180910390fd5b61162e61161c60fb612d25565b1061165c576040517f08c379a00000000000000000000000000000000000000000000000000000000081526004016116539061507f565b60405180910390fd5b601e8161010760003373ffffffffffffffffffffffffffffffffffffffff1673ffffffffffffffffffffffffffffffffffffffff168152602001908152602001600020546116aa9190614b63565b11156116eb576040517f08c379a00000000000000000000000000000000000000000000000000000000081526004016116e2906150eb565b60405180910390fd5b8061010760003373ffffffffffffffffffffffffffffffffffffffff1673ffffffffffffffffffffffffffffffffffffffff168152602001908152602001600020600082825461173b9190614b63565b9250508190555060005b818110156117695761175633612d33565b808061176190614eb9565b915050611745565b5050565b61177682611151565b61177f81612dd7565b6117898383612deb565b505050565b60006117ba7f9aa77ce78f008f23606e6755d96256721080001bc839bd46f3566a5b8e3f31888361226c565b9050919050565b60006117cc83611c9e565b821061180d576040517f08c379a00000000000000000000000000000000000000000000000000000000081526004016118049061517d565b60405180910390fd5b60c960008473ffffffffffffffffffffffffffffffffffffffff1673ffffffffffffffffffffffffffffffffffffffff168152602001908152602001600020600083815260200190815260200160002054905092915050565b60fd5481565b6118967f3b351bd1fe2dfe571b64d5c9adc99cfeeccb1e4f46d0485613dcb1ff87242f4d8261176d565b50565b6118a161281b565b73ffffffffffffffffffffffffffffffffffffffff168173ffffffffffffffffffffffffffffffffffffffff161461190e576040517f08c379a00000000000000000000000000000000000000000000000000000000081526004016119059061520f565b60405180910390fd5b6119188282612ecc565b5050565b61192c61192761281b565b610ec2565b611962576040517fcc8576e900000000000000000000000000000000000000000000000000000000815260040160405180910390fd5b80610104600084815260200190815260200160002060006101000a81548160ff021916908315150217905550817fa95329310e1e9618d3340bf022b833c8cc09e95e9fa8b248d36dd3bdad7df5aa826040516119be91906142d5565b60405180910390a25050565b60ff60009054906101000a900460ff1681565b60fe5481565b6119fe838383604051806020016040528060008152506123e3565b505050565b611a2c7ee9ab62a5761636687b05e2e7b04f22689d99792df38552d31664fa3f9584098261176d565b50565b6000611a396110e4565b8210611a7a576040517f08c379a0000000000000000000000000000000000000000000000000000000008152600401611a71906152a1565b60405180910390fd5b60cb8281548110611a8e57611a8d614e8a565b5b90600052602060002001549050919050565b611ab0611aab61281b565b611171565b611ae6576040517f55098f2700000000000000000000000000000000000000000000000000000000815260040160405180910390fd5b8060fc9080519060200190611afc92919061417e565b507fb7dc3d82553f66494744771504119d99246c225f02cb0aec4e13b7be3bfc88bb81604051611b2c919061448a565b60405180910390a150565b6101046020528060005260406000206000915054906101000a900460ff1681565b6000611b837ee9ab62a5761636687b05e2e7b04f22689d99792df38552d31664fa3f9584098361226c565b9050919050565b600080611b9683612fae565b9050600073ffffffffffffffffffffffffffffffffffffffff168173ffffffffffffffffffffffffffffffffffffffff1603611c07576040517f08c379a0000000000000000000000000000000000000000000000000000000008152600401611bfe9061530d565b60405180910390fd5b80915050919050565b60fc8054611c1d90614be8565b80601f0160208091040260200160405190810160405280929190818152602001828054611c4990614be8565b8015611c965780601f10611c6b57610100808354040283529160200191611c96565b820191906000526020600020905b815481529060010190602001808311611c7957829003601f168201915b505050505081565b60008073ffffffffffffffffffffffffffffffffffffffff168273ffffffffffffffffffffffffffffffffffffffff1603611d0e576040517f08c379a0000000000000000000000000000000000000000000000000000000008152600401611d059061539f565b60405180910390fd5b609a60008373ffffffffffffffffffffffffffffffffffffffff1673ffffffffffffffffffffffffffffffffffffffff168152602001908152602001600020549050919050565b611d5e33611b58565b611d94576040517fea8e4eb500000000000000000000000000000000000000000000000000000000815260040160405180910390fd5b8061010360008481526020019081526020016000206000016000828254611dbb9190614b63565b9250508190555080827fe35569cc02c4dbfef78de8b7236cf1da89364a064bebc436c0e50538433326ae60405160405180910390a35050565b60008060019054906101000a900460ff16159050808015611e255750600160008054906101000a900460ff1660ff16105b80611e525750611e3430612feb565b158015611e515750600160008054906101000a900460ff1660ff16145b5b611e91576040517f08c379a0000000000000000000000000000000000000000000000000000000008152600401611e8890615431565b60405180910390fd5b60016000806101000a81548160ff021916908360ff1602179055508015611ece576001600060016101000a81548160ff0219169083151502179055505b611f426040518060400160405280600c81526020017f4e65616e64657220536d6f6c00000000000000000000000000000000000000008152506040518060400160405280600b81526020017f4e65616e646572536d6f6c00000000000000000000000000000000000000000081525061300e565b611f4a6111a4565b600960fd8190555060fd54600a611f619190615584565b6064611f6d9190614f01565b60fe81905550600060ff60006101000a81548160ff02191690831515021790555066470de4df82000061010081905550600161010160006101000a81548160ff02191690831515021790555080156120125760008060016101000a81548160ff0219169083151502179055507f7f26b83ff96e1f2b6a682f133852f6798a09c465da95921460cefb384740249860016040516120099190615621565b60405180910390a15b50565b61202561202061281b565b61178e565b61205b576040517f36b6b89500000000000000000000000000000000000000000000000000000000815260040160405180910390fd5b3373ffffffffffffffffffffffffffffffffffffffff166108fc479081150290604051600060405180830381858888f1935050505061209957600080fd5b61010160019054906101000a900473ffffffffffffffffffffffffffffffffffffffff1673ffffffffffffffffffffffffffffffffffffffff1663a9059cbb3361010160019054906101000a900473ffffffffffffffffffffffffffffffffffffffff1673ffffffffffffffffffffffffffffffffffffffff166370a08231306040518263ffffffff1660e01b815260040161213591906144e8565b602060405180830381865afa158015612152573d6000803e3d6000fd5b505050506040513d601f19601f820116820180604052508101906121769190615651565b6040518363ffffffff1660e01b815260040161219392919061567e565b6020604051808303816000875af11580156121b2573d6000803e3d6000fd5b505050506040513d601f19601f820116820180604052508101906121d691906156bc565b6121df57600080fd5b565b6121f16121ec61281b565b611171565b612227576040517f55098f2700000000000000000000000000000000000000000000000000000000815260040160405180910390fd5b60ff60009054906101000a900460ff161560ff60006101000a81548160ff021916908315150217905550565b6101056020528060005260406000206000915090505481565b60006065600084815260200190815260200160002060000160008373ffffffffffffffffffffffffffffffffffffffff1673ffffffffffffffffffffffffffffffffffffffff16815260200190815260200160002060009054906101000a900460ff16905092915050565b6060609880546122e690614be8565b80601f016020809104026020016040519081016040528092919081815260200182805461231290614be8565b801561235f5780601f106123345761010080835404028352916020019161235f565b820191906000526020600020905b81548152906001019060200180831161234257829003601f168201915b5050505050905090565b60fb8060000154905081565b6000801b81565b61238e61238761281b565b838361306b565b5050565b6101005481565b61010260009054906101000a900473ffffffffffffffffffffffffffffffffffffffff1681565b7ee9ab62a5761636687b05e2e7b04f22689d99792df38552d31664fa3f95840981565b6123f46123ee61281b565b836128dc565b612433576040517f08c379a000000000000000000000000000000000000000000000000000000000815260040161242a90614daf565b60405180910390fd5b61243f848484846131d7565b50505050565b7fa619569270f7f4a1d8f7ed82794221f15c6f8595dada80d85ac4e31cdd6fe04c81565b61247961247461281b565b611171565b6124af576040517f55098f2700000000000000000000000000000000000000000000000000000000815260040160405180910390fd5b806101008190555050565b6060604051806060016040528060358152602001615e2b603591399050919050565b7f3b351bd1fe2dfe571b64d5c9adc99cfeeccb1e4f46d0485613dcb1ff87242f4d81565b61250982611151565b61251281612dd7565b61251c8383612ecc565b505050565b61254b7f9aa77ce78f008f23606e6755d96256721080001bc839bd46f3566a5b8e3f31888261176d565b50565b61255733611b58565b61258d576040517fea8e4eb500000000000000000000000000000000000000000000000000000000815260040160405180910390fd5b80610103600084815260200190815260200160002060020160008282546125b49190614b63565b9250508190555080827fe852686fc3379988351fab3924b8412a69b0f884879d23a989640c46daca203060405160405180910390a35050565b6000609c60008473ffffffffffffffffffffffffffffffffffffffff1673ffffffffffffffffffffffffffffffffffffffff16815260200190815260200160002060008373ffffffffffffffffffffffffffffffffffffffff1673ffffffffffffffffffffffffffffffffffffffff16815260200190815260200160002060009054906101000a900460ff16905092915050565b7f9aa77ce78f008f23606e6755d96256721080001bc839bd46f3566a5b8e3f318881565b600060fd54600a6126b69190615584565b6101056000848152602001908152602001600020546126d59190615718565b9050919050565b60007f780e9d63000000000000000000000000000000000000000000000000000000007bffffffffffffffffffffffffffffffffffffffffffffffffffffffff1916827bffffffffffffffffffffffffffffffffffffffffffffffffffffffff1916148061274f575061274e82613233565b5b9050919050565b60007f7965db0b000000000000000000000000000000000000000000000000000000007bffffffffffffffffffffffffffffffffffffffffffffffffffffffff1916827bffffffffffffffffffffffffffffffffffffffffffffffffffffffff191614806127c957506127c882613315565b5b9050919050565b6127d98161337f565b612818576040517f08c379a000000000000000000000000000000000000000000000000000000000815260040161280f9061530d565b60405180910390fd5b50565b600033905090565b81609b600083815260200190815260200160002060006101000a81548173ffffffffffffffffffffffffffffffffffffffff021916908373ffffffffffffffffffffffffffffffffffffffff160217905550808273ffffffffffffffffffffffffffffffffffffffff1661289683611b8a565b73ffffffffffffffffffffffffffffffffffffffff167f8c5be1e5ebec7d5bd14f71427d1e84f3dd0314c0f7b2291e5b200ac8c7c3b92560405160405180910390a45050565b6000806128e883611b8a565b90508073ffffffffffffffffffffffffffffffffffffffff168473ffffffffffffffffffffffffffffffffffffffff16148061292a575061292981856125ed565b5b8061296857508373ffffffffffffffffffffffffffffffffffffffff1661295084610f87565b73ffffffffffffffffffffffffffffffffffffffff16145b91505092915050565b8273ffffffffffffffffffffffffffffffffffffffff1661299182611b8a565b73ffffffffffffffffffffffffffffffffffffffff16146129e7576040517f08c379a00000000000000000000000000000000000000000000000000000000081526004016129de906157bb565b60405180910390fd5b600073ffffffffffffffffffffffffffffffffffffffff168273ffffffffffffffffffffffffffffffffffffffff1603612a56576040517f08c379a0000000000000000000000000000000000000000000000000000000008152600401612a4d9061584d565b60405180910390fd5b612a6383838360016133c0565b8273ffffffffffffffffffffffffffffffffffffffff16612a8382611b8a565b73ffffffffffffffffffffffffffffffffffffffff1614612ad9576040517f08c379a0000000000000000000000000000000000000000000000000000000008152600401612ad0906157bb565b60405180910390fd5b609b600082815260200190815260200160002060006101000a81549073ffffffffffffffffffffffffffffffffffffffff02191690556001609a60008573ffffffffffffffffffffffffffffffffffffffff1673ffffffffffffffffffffffffffffffffffffffff168152602001908152602001600020600082825403925050819055506001609a60008473ffffffffffffffffffffffffffffffffffffffff1673ffffffffffffffffffffffffffffffffffffffff16815260200190815260200160002060008282540192505081905550816099600083815260200190815260200160002060006101000a81548173ffffffffffffffffffffffffffffffffffffffff021916908373ffffffffffffffffffffffffffffffffffffffff160217905550808273ffffffffffffffffffffffffffffffffffffffff168473ffffffffffffffffffffffffffffffffffffffff167fddf252ad1be2c89b69c2b068fc378daa952ba7f163c4a11628f55a4df523b3ef60405160405180910390a4612c65838383600161342b565b505050565b600060019054906101000a900460ff16612cb9576040517f08c379a0000000000000000000000000000000000000000000000000000000008152600401612cb090614e41565b60405180910390fd5b565b6000612cc683611151565b90508160656000858152602001908152602001600020600101819055508181847fbd79b86ffe0ab8e8776151514217cd7cacd52c909f66475c3af44e129f0b00ff60405160405180910390a4505050565b612d218282612deb565b5050565b600081600001549050919050565b6000612d3f60fb612d25565b9050612d4b60fb613431565b61162e811115612d90576040517f08c379a0000000000000000000000000000000000000000000000000000000008152600401612d87906158b9565b60405180910390fd5b7f13d0c6609c1489bff1e3c88b5ad19c5647fe75c23c7ab35e81f04afdce4f95648282604051612dc192919061567e565b60405180910390a1612dd38282613447565b5050565b612de881612de361281b565b613465565b50565b612df5828261226c565b612ec85760016065600084815260200190815260200160002060000160008373ffffffffffffffffffffffffffffffffffffffff1673ffffffffffffffffffffffffffffffffffffffff16815260200190815260200160002060006101000a81548160ff021916908315150217905550612e6d61281b565b73ffffffffffffffffffffffffffffffffffffffff168173ffffffffffffffffffffffffffffffffffffffff16837f2f8788117e7eff1d82e926ec794901d17c78024a50270940304540a733656f0d60405160405180910390a45b5050565b612ed6828261226c565b15612faa5760006065600084815260200190815260200160002060000160008373ffffffffffffffffffffffffffffffffffffffff1673ffffffffffffffffffffffffffffffffffffffff16815260200190815260200160002060006101000a81548160ff021916908315150217905550612f4f61281b565b73ffffffffffffffffffffffffffffffffffffffff168173ffffffffffffffffffffffffffffffffffffffff16837ff6391f5c32d9c69d2a47ea670b442974b53935d1edc7fd64eb21e047a839171b60405160405180910390a45b5050565b60006099600083815260200190815260200160002060009054906101000a900473ffffffffffffffffffffffffffffffffffffffff169050919050565b6000808273ffffffffffffffffffffffffffffffffffffffff163b119050919050565b600060019054906101000a900460ff1661305d576040517f08c379a000000000000000000000000000000000000000000000000000000000815260040161305490614e41565b60405180910390fd5b61306782826134ea565b5050565b8173ffffffffffffffffffffffffffffffffffffffff168373ffffffffffffffffffffffffffffffffffffffff16036130d9576040517f08c379a00000000000000000000000000000000000000000000000000000000081526004016130d090615925565b60405180910390fd5b80609c60008573ffffffffffffffffffffffffffffffffffffffff1673ffffffffffffffffffffffffffffffffffffffff16815260200190815260200160002060008473ffffffffffffffffffffffffffffffffffffffff1673ffffffffffffffffffffffffffffffffffffffff16815260200190815260200160002060006101000a81548160ff0219169083151502179055508173ffffffffffffffffffffffffffffffffffffffff168373ffffffffffffffffffffffffffffffffffffffff167f17307eab39ab6107e8899845ad3d59bd9653f200f220920489ca2b5937696c31836040516131ca91906142d5565b60405180910390a3505050565b6131e2848484612971565b6131ee8484848461356b565b61322d576040517f08c379a0000000000000000000000000000000000000000000000000000000008152600401613224906159b7565b60405180910390fd5b50505050565b60007f80ac58cd000000000000000000000000000000000000000000000000000000007bffffffffffffffffffffffffffffffffffffffffffffffffffffffff1916827bffffffffffffffffffffffffffffffffffffffffffffffffffffffff191614806132fe57507f5b5e139f000000000000000000000000000000000000000000000000000000007bffffffffffffffffffffffffffffffffffffffffffffffffffffffff1916827bffffffffffffffffffffffffffffffffffffffffffffffffffffffff1916145b8061330e575061330d82612756565b5b9050919050565b60007f01ffc9a7000000000000000000000000000000000000000000000000000000007bffffffffffffffffffffffffffffffffffffffffffffffffffffffff1916827bffffffffffffffffffffffffffffffffffffffffffffffffffffffff1916149050919050565b60008073ffffffffffffffffffffffffffffffffffffffff166133a183612fae565b73ffffffffffffffffffffffffffffffffffffffff1614159050919050565b610104600083815260200190815260200160002060009054906101000a900460ff1615613419576040517f3899ae3600000000000000000000000000000000000000000000000000000000815260040160405180910390fd5b613425848484846136f2565b50505050565b50505050565b6001816000016000828254019250508190555050565b613461828260405180602001604052806000815250613850565b5050565b61346f828261226c565b6134e65761347c816138ab565b61348a8360001c60206138d8565b60405160200161349b929190615aab565b6040516020818303038152906040526040517f08c379a00000000000000000000000000000000000000000000000000000000081526004016134dd919061448a565b60405180910390fd5b5050565b600060019054906101000a900460ff16613539576040517f08c379a000000000000000000000000000000000000000000000000000000000815260040161353090614e41565b60405180910390fd5b816097908051906020019061354f92919061417e565b50806098908051906020019061356692919061417e565b505050565b600061358c8473ffffffffffffffffffffffffffffffffffffffff16612feb565b156136e5578373ffffffffffffffffffffffffffffffffffffffff1663150b7a026135b561281b565b8786866040518563ffffffff1660e01b81526004016135d79493929190615b3a565b6020604051808303816000875af192505050801561361357506040513d601f19601f820116820180604052508101906136109190615b9b565b60015b613695573d8060008114613643576040519150601f19603f3d011682016040523d82523d6000602084013e613648565b606091505b50600081510361368d576040517f08c379a0000000000000000000000000000000000000000000000000000000008152600401613684906159b7565b60405180910390fd5b805181602001fd5b63150b7a0260e01b7bffffffffffffffffffffffffffffffffffffffffffffffffffffffff1916817bffffffffffffffffffffffffffffffffffffffffffffffffffffffff1916149150506136ea565b600190505b949350505050565b6136fe84848484613b14565b6001811115613742576040517f08c379a000000000000000000000000000000000000000000000000000000000815260040161373990615c3a565b60405180910390fd5b6000829050600073ffffffffffffffffffffffffffffffffffffffff168573ffffffffffffffffffffffffffffffffffffffff16036137895761378481613c3a565b6137c8565b8373ffffffffffffffffffffffffffffffffffffffff168573ffffffffffffffffffffffffffffffffffffffff16146137c7576137c68582613c83565b5b5b600073ffffffffffffffffffffffffffffffffffffffff168473ffffffffffffffffffffffffffffffffffffffff160361380a5761380581613df0565b613849565b8473ffffffffffffffffffffffffffffffffffffffff168473ffffffffffffffffffffffffffffffffffffffff1614613848576138478482613ec1565b5b5b5050505050565b61385a8383613f40565b613867600084848461356b565b6138a6576040517f08c379a000000000000000000000000000000000000000000000000000000000815260040161389d906159b7565b60405180910390fd5b505050565b60606138d18273ffffffffffffffffffffffffffffffffffffffff16601460ff166138d8565b9050919050565b6060600060028360026138eb9190614f01565b6138f59190614b63565b67ffffffffffffffff81111561390e5761390d61481c565b5b6040519080825280601f01601f1916602001820160405280156139405781602001600182028036833780820191505090505b5090507f30000000000000000000000000000000000000000000000000000000000000008160008151811061397857613977614e8a565b5b60200101907effffffffffffffffffffffffffffffffffffffffffffffffffffffffffffff1916908160001a9053507f7800000000000000000000000000000000000000000000000000000000000000816001815181106139dc576139db614e8a565b5b60200101907effffffffffffffffffffffffffffffffffffffffffffffffffffffffffffff1916908160001a90535060006001846002613a1c9190614f01565b613a269190614b63565b90505b6001811115613ac6577f3031323334353637383961626364656600000000000000000000000000000000600f861660108110613a6857613a67614e8a565b5b1a60f81b828281518110613a7f57613a7e614e8a565b5b60200101907effffffffffffffffffffffffffffffffffffffffffffffffffffffffffffff1916908160001a905350600485901c945080613abf90615c5a565b9050613a29565b5060008414613b0a576040517f08c379a0000000000000000000000000000000000000000000000000000000008152600401613b0190615ccf565b60405180910390fd5b8091505092915050565b6001811115613c3457600073ffffffffffffffffffffffffffffffffffffffff168473ffffffffffffffffffffffffffffffffffffffff1614613ba85780609a60008673ffffffffffffffffffffffffffffffffffffffff1673ffffffffffffffffffffffffffffffffffffffff1681526020019081526020016000206000828254613ba09190615cef565b925050819055505b600073ffffffffffffffffffffffffffffffffffffffff168373ffffffffffffffffffffffffffffffffffffffff1614613c335780609a60008573ffffffffffffffffffffffffffffffffffffffff1673ffffffffffffffffffffffffffffffffffffffff1681526020019081526020016000206000828254613c2b9190614b63565b925050819055505b5b50505050565b60cb8054905060cc60008381526020019081526020016000208190555060cb81908060018154018082558091505060019003906000526020600020016000909190919091505550565b60006001613c9084611c9e565b613c9a9190615cef565b9050600060ca6000848152602001908152602001600020549050818114613d7f57600060c960008673ffffffffffffffffffffffffffffffffffffffff1673ffffffffffffffffffffffffffffffffffffffff16815260200190815260200160002060008481526020019081526020016000205490508060c960008773ffffffffffffffffffffffffffffffffffffffff1673ffffffffffffffffffffffffffffffffffffffff1681526020019081526020016000206000848152602001908152602001600020819055508160ca600083815260200190815260200160002081905550505b60ca60008481526020019081526020016000206000905560c960008573ffffffffffffffffffffffffffffffffffffffff1673ffffffffffffffffffffffffffffffffffffffff16815260200190815260200160002060008381526020019081526020016000206000905550505050565b6000600160cb80549050613e049190615cef565b9050600060cc6000848152602001908152602001600020549050600060cb8381548110613e3457613e33614e8a565b5b906000526020600020015490508060cb8381548110613e5657613e55614e8a565b5b90600052602060002001819055508160cc60008381526020019081526020016000208190555060cc60008581526020019081526020016000206000905560cb805480613ea557613ea4615d23565b5b6001900381819060005260206000200160009055905550505050565b6000613ecc83611c9e565b90508160c960008573ffffffffffffffffffffffffffffffffffffffff1673ffffffffffffffffffffffffffffffffffffffff1681526020019081526020016000206000838152602001908152602001600020819055508060ca600084815260200190815260200160002081905550505050565b600073ffffffffffffffffffffffffffffffffffffffff168273ffffffffffffffffffffffffffffffffffffffff1603613faf576040517f08c379a0000000000000000000000000000000000000000000000000000000008152600401613fa690615d9e565b60405180910390fd5b613fb88161337f565b15613ff8576040517f08c379a0000000000000000000000000000000000000000000000000000000008152600401613fef90615e0a565b60405180910390fd5b6140066000838360016133c0565b61400f8161337f565b1561404f576040517f08c379a000000000000000000000000000000000000000000000000000000000815260040161404690615e0a565b60405180910390fd5b6001609a60008473ffffffffffffffffffffffffffffffffffffffff1673ffffffffffffffffffffffffffffffffffffffff16815260200190815260200160002060008282540192505081905550816099600083815260200190815260200160002060006101000a81548173ffffffffffffffffffffffffffffffffffffffff021916908373ffffffffffffffffffffffffffffffffffffffff160217905550808273ffffffffffffffffffffffffffffffffffffffff16600073ffffffffffffffffffffffffffffffffffffffff167fddf252ad1be2c89b69c2b068fc378daa952ba7f163c4a11628f55a4df523b3ef60405160405180910390a461415960008383600161342b565b5050565b60405180606001604052806000815260200160008152602001600081525090565b82805461418a90614be8565b90600052602060002090601f0160209004810192826141ac57600085556141f3565b82601f106141c557805160ff19168380011785556141f3565b828001600101855582156141f3579182015b828111156141f25782518255916020019190600101906141d7565b5b5090506142009190614204565b5090565b5b8082111561421d576000816000905550600101614205565b5090565b6000604051905090565b600080fd5b600080fd5b60007fffffffff0000000000000000000000000000000000000000000000000000000082169050919050565b61426a81614235565b811461427557600080fd5b50565b60008135905061428781614261565b92915050565b6000602082840312156142a3576142a261422b565b5b60006142b184828501614278565b91505092915050565b60008115159050919050565b6142cf816142ba565b82525050565b60006020820190506142ea60008301846142c6565b92915050565b6000819050919050565b614303816142f0565b811461430e57600080fd5b50565b600081359050614320816142fa565b92915050565b6000806040838503121561433d5761433c61422b565b5b600061434b85828601614311565b925050602061435c85828601614311565b9150509250929050565b600073ffffffffffffffffffffffffffffffffffffffff82169050919050565b600061439182614366565b9050919050565b6143a181614386565b81146143ac57600080fd5b50565b6000813590506143be81614398565b92915050565b6000602082840312156143da576143d961422b565b5b60006143e8848285016143af565b91505092915050565b600081519050919050565b600082825260208201905092915050565b60005b8381101561442b578082015181840152602081019050614410565b8381111561443a576000848401525b50505050565b6000601f19601f8301169050919050565b600061445c826143f1565b61446681856143fc565b935061447681856020860161440d565b61447f81614440565b840191505092915050565b600060208201905081810360008301526144a48184614451565b905092915050565b6000602082840312156144c2576144c161422b565b5b60006144d084828501614311565b91505092915050565b6144e281614386565b82525050565b60006020820190506144fd60008301846144d9565b92915050565b6000806040838503121561451a5761451961422b565b5b6000614528858286016143af565b925050602061453985828601614311565b9150509250929050565b61454c816142f0565b82525050565b60006020820190506145676000830184614543565b92915050565b6000806000606084860312156145865761458561422b565b5b6000614594868287016143af565b93505060206145a5868287016143af565b92505060406145b686828701614311565b9150509250925092565b6000819050919050565b6145d3816145c0565b81146145de57600080fd5b50565b6000813590506145f0816145ca565b92915050565b60006020828403121561460c5761460b61422b565b5b600061461a848285016145e1565b91505092915050565b61462c816145c0565b82525050565b60006020820190506146476000830184614623565b92915050565b600080fd5b600080fd5b600080fd5b60008083601f8401126146725761467161464d565b5b8235905067ffffffffffffffff81111561468f5761468e614652565b5b6020830191508360208202830111156146ab576146aa614657565b5b9250929050565b600080602083850312156146c9576146c861422b565b5b600083013567ffffffffffffffff8111156146e7576146e6614230565b5b6146f38582860161465c565b92509250509250929050565b614708816142f0565b82525050565b60608201600082015161472460008501826146ff565b50602082015161473760208501826146ff565b50604082015161474a60408501826146ff565b50505050565b6000606082019050614765600083018461470e565b92915050565b600080604083850312156147825761478161422b565b5b6000614790858286016145e1565b92505060206147a1858286016143af565b9150509250929050565b6147b4816142ba565b81146147bf57600080fd5b50565b6000813590506147d1816147ab565b92915050565b600080604083850312156147ee576147ed61422b565b5b60006147fc85828601614311565b925050602061480d858286016147c2565b9150509250929050565b600080fd5b7f4e487b7100000000000000000000000000000000000000000000000000000000600052604160045260246000fd5b61485482614440565b810181811067ffffffffffffffff821117156148735761487261481c565b5b80604052505050565b6000614886614221565b9050614892828261484b565b919050565b600067ffffffffffffffff8211156148b2576148b161481c565b5b6148bb82614440565b9050602081019050919050565b82818337600083830152505050565b60006148ea6148e584614897565b61487c565b90508281526020810184848401111561490657614905614817565b5b6149118482856148c8565b509392505050565b600082601f83011261492e5761492d61464d565b5b813561493e8482602086016148d7565b91505092915050565b60006020828403121561495d5761495c61422b565b5b600082013567ffffffffffffffff81111561497b5761497a614230565b5b61498784828501614919565b91505092915050565b600080604083850312156149a7576149a661422b565b5b60006149b5858286016143af565b92505060206149c6858286016147c2565b9150509250929050565b600067ffffffffffffffff8211156149eb576149ea61481c565b5b6149f482614440565b9050602081019050919050565b6000614a14614a0f846149d0565b61487c565b905082815260208101848484011115614a3057614a2f614817565b5b614a3b8482856148c8565b509392505050565b600082601f830112614a5857614a5761464d565b5b8135614a68848260208601614a01565b91505092915050565b60008060008060808587031215614a8b57614a8a61422b565b5b6000614a99878288016143af565b9450506020614aaa878288016143af565b9350506040614abb87828801614311565b925050606085013567ffffffffffffffff811115614adc57614adb614230565b5b614ae887828801614a43565b91505092959194509250565b60008060408385031215614b0b57614b0a61422b565b5b6000614b19858286016143af565b9250506020614b2a858286016143af565b9150509250929050565b7f4e487b7100000000000000000000000000000000000000000000000000000000600052601160045260246000fd5b6000614b6e826142f0565b9150614b79836142f0565b9250827fffffffffffffffffffffffffffffffffffffffffffffffffffffffffffffffff03821115614bae57614bad614b34565b5b828201905092915050565b7f4e487b7100000000000000000000000000000000000000000000000000000000600052602260045260246000fd5b60006002820490506001821680614c0057607f821691505b602082108103614c1357614c12614bb9565b5b50919050565b7f4552433732313a20617070726f76616c20746f2063757272656e74206f776e6560008201527f7200000000000000000000000000000000000000000000000000000000000000602082015250565b6000614c756021836143fc565b9150614c8082614c19565b604082019050919050565b60006020820190508181036000830152614ca481614c68565b9050919050565b7f4552433732313a20617070726f76652063616c6c6572206973206e6f7420746f60008201527f6b656e206f776e6572206f7220617070726f76656420666f7220616c6c000000602082015250565b6000614d07603d836143fc565b9150614d1282614cab565b604082019050919050565b60006020820190508181036000830152614d3681614cfa565b9050919050565b7f4552433732313a2063616c6c6572206973206e6f7420746f6b656e206f776e6560008201527f72206f7220617070726f76656400000000000000000000000000000000000000602082015250565b6000614d99602d836143fc565b9150614da482614d3d565b604082019050919050565b60006020820190508181036000830152614dc881614d8c565b9050919050565b7f496e697469616c697a61626c653a20636f6e7472616374206973206e6f74206960008201527f6e697469616c697a696e67000000000000000000000000000000000000000000602082015250565b6000614e2b602b836143fc565b9150614e3682614dcf565b604082019050919050565b60006020820190508181036000830152614e5a81614e1e565b9050919050565b6000604082019050614e766000830185614543565b614e836020830184614543565b9392505050565b7f4e487b7100000000000000000000000000000000000000000000000000000000600052603260045260246000fd5b6000614ec4826142f0565b91507fffffffffffffffffffffffffffffffffffffffffffffffffffffffffffffffff8203614ef657614ef5614b34565b5b600182019050919050565b6000614f0c826142f0565b9150614f17836142f0565b9250817fffffffffffffffffffffffffffffffffffffffffffffffffffffffffffffffff0483118215151615614f5057614f4f614b34565b5b828202905092915050565b7f496e636f72726563742050726963650000000000000000000000000000000000600082015250565b6000614f91600f836143fc565b9150614f9c82614f5b565b602082019050919050565b60006020820190508181036000830152614fc081614f84565b9050919050565b7f5075626c6963206e6f7420616374697665000000000000000000000000000000600082015250565b6000614ffd6011836143fc565b915061500882614fc7565b602082019050919050565b6000602082019050818103600083015261502c81614ff0565b9050919050565b7f35363738204d617820537570706c790000000000000000000000000000000000600082015250565b6000615069600f836143fc565b915061507482615033565b602082019050919050565b600060208201905081810360008301526150988161505c565b9050919050565b7f4d696e7473206578636565646564000000000000000000000000000000000000600082015250565b60006150d5600e836143fc565b91506150e08261509f565b602082019050919050565b60006020820190508181036000830152615104816150c8565b9050919050565b7f455243373231456e756d657261626c653a206f776e657220696e646578206f7560008201527f74206f6620626f756e6473000000000000000000000000000000000000000000602082015250565b6000615167602b836143fc565b91506151728261510b565b604082019050919050565b600060208201905081810360008301526151968161515a565b9050919050565b7f416363657373436f6e74726f6c3a2063616e206f6e6c792072656e6f756e636560008201527f20726f6c657320666f722073656c660000000000000000000000000000000000602082015250565b60006151f9602f836143fc565b91506152048261519d565b604082019050919050565b60006020820190508181036000830152615228816151ec565b9050919050565b7f455243373231456e756d657261626c653a20676c6f62616c20696e646578206f60008201527f7574206f6620626f756e64730000000000000000000000000000000000000000602082015250565b600061528b602c836143fc565b91506152968261522f565b604082019050919050565b600060208201905081810360008301526152ba8161527e565b9050919050565b7f4552433732313a20696e76616c696420746f6b656e2049440000000000000000600082015250565b60006152f76018836143fc565b9150615302826152c1565b602082019050919050565b60006020820190508181036000830152615326816152ea565b9050919050565b7f4552433732313a2061646472657373207a65726f206973206e6f74206120766160008201527f6c6964206f776e65720000000000000000000000000000000000000000000000602082015250565b60006153896029836143fc565b91506153948261532d565b604082019050919050565b600060208201905081810360008301526153b88161537c565b9050919050565b7f496e697469616c697a61626c653a20636f6e747261637420697320616c72656160008201527f647920696e697469616c697a6564000000000000000000000000000000000000602082015250565b600061541b602e836143fc565b9150615426826153bf565b604082019050919050565b6000602082019050818103600083015261544a8161540e565b9050919050565b60008160011c9050919050565b6000808291508390505b60018511156154a85780860481111561548457615483614b34565b5b60018516156154935780820291505b80810290506154a185615451565b9450615468565b94509492505050565b6000826154c1576001905061557d565b816154cf576000905061557d565b81600181146154e557600281146154ef5761551e565b600191505061557d565b60ff84111561550157615500614b34565b5b8360020a91508482111561551857615517614b34565b5b5061557d565b5060208310610133831016604e8410600b84101617156155535782820a90508381111561554e5761554d614b34565b5b61557d565b615560848484600161545e565b9250905081840481111561557757615576614b34565b5b81810290505b9392505050565b600061558f826142f0565b915061559a836142f0565b92506155c77fffffffffffffffffffffffffffffffffffffffffffffffffffffffffffffffff84846154b1565b905092915050565b6000819050919050565b600060ff82169050919050565b6000819050919050565b600061560b615606615601846155cf565b6155e6565b6155d9565b9050919050565b61561b816155f0565b82525050565b60006020820190506156366000830184615612565b92915050565b60008151905061564b816142fa565b92915050565b6000602082840312156156675761566661422b565b5b60006156758482850161563c565b91505092915050565b600060408201905061569360008301856144d9565b6156a06020830184614543565b9392505050565b6000815190506156b6816147ab565b92915050565b6000602082840312156156d2576156d161422b565b5b60006156e0848285016156a7565b91505092915050565b7f4e487b7100000000000000000000000000000000000000000000000000000000600052601260045260246000fd5b6000615723826142f0565b915061572e836142f0565b92508261573e5761573d6156e9565b5b828204905092915050565b7f4552433732313a207472616e736665722066726f6d20696e636f72726563742060008201527f6f776e6572000000000000000000000000000000000000000000000000000000602082015250565b60006157a56025836143fc565b91506157b082615749565b604082019050919050565b600060208201905081810360008301526157d481615798565b9050919050565b7f4552433732313a207472616e7366657220746f20746865207a65726f2061646460008201527f7265737300000000000000000000000000000000000000000000000000000000602082015250565b60006158376024836143fc565b9150615842826157db565b604082019050919050565b600060208201905081810360008301526158668161582a565b9050919050565b7f457863656564656420737570706c790000000000000000000000000000000000600082015250565b60006158a3600f836143fc565b91506158ae8261586d565b602082019050919050565b600060208201905081810360008301526158d281615896565b9050919050565b7f4552433732313a20617070726f766520746f2063616c6c657200000000000000600082015250565b600061590f6019836143fc565b915061591a826158d9565b602082019050919050565b6000602082019050818103600083015261593e81615902565b9050919050565b7f4552433732313a207472616e7366657220746f206e6f6e20455243373231526560008201527f63656976657220696d706c656d656e7465720000000000000000000000000000602082015250565b60006159a16032836143fc565b91506159ac82615945565b604082019050919050565b600060208201905081810360008301526159d081615994565b9050919050565b600081905092915050565b7f416363657373436f6e74726f6c3a206163636f756e7420000000000000000000600082015250565b6000615a186017836159d7565b9150615a23826159e2565b601782019050919050565b6000615a39826143f1565b615a4381856159d7565b9350615a5381856020860161440d565b80840191505092915050565b7f206973206d697373696e6720726f6c6520000000000000000000000000000000600082015250565b6000615a956011836159d7565b9150615aa082615a5f565b601182019050919050565b6000615ab682615a0b565b9150615ac28285615a2e565b9150615acd82615a88565b9150615ad98284615a2e565b91508190509392505050565b600081519050919050565b600082825260208201905092915050565b6000615b0c82615ae5565b615b168185615af0565b9350615b2681856020860161440d565b615b2f81614440565b840191505092915050565b6000608082019050615b4f60008301876144d9565b615b5c60208301866144d9565b615b696040830185614543565b8181036060830152615b7b8184615b01565b905095945050505050565b600081519050615b9581614261565b92915050565b600060208284031215615bb157615bb061422b565b5b6000615bbf84828501615b86565b91505092915050565b7f455243373231456e756d657261626c653a20636f6e736563757469766520747260008201527f616e7366657273206e6f7420737570706f727465640000000000000000000000602082015250565b6000615c246035836143fc565b9150615c2f82615bc8565b604082019050919050565b60006020820190508181036000830152615c5381615c17565b9050919050565b6000615c65826142f0565b915060008203615c7857615c77614b34565b5b600182039050919050565b7f537472696e67733a20686578206c656e67746820696e73756666696369656e74600082015250565b6000615cb96020836143fc565b9150615cc482615c83565b602082019050919050565b60006020820190508181036000830152615ce881615cac565b9050919050565b6000615cfa826142f0565b9150615d05836142f0565b925082821015615d1857615d17614b34565b5b828203905092915050565b7f4e487b7100000000000000000000000000000000000000000000000000000000600052603160045260246000fd5b7f4552433732313a206d696e7420746f20746865207a65726f2061646472657373600082015250565b6000615d886020836143fc565b9150615d9382615d52565b602082019050919050565b60006020820190508181036000830152615db781615d7b565b9050919050565b7f4552433732313a20746f6b656e20616c7265616479206d696e74656400000000600082015250565b6000615df4601c836143fc565b9150615dff82615dbe565b602082019050919050565b60006020820190508181036000830152615e2381615de7565b905091905056fe697066733a2f2f516d555a767569447a654b764b4365697a50564b6f5765737270475466793459736633727a6753417073374e394ba2646970667358221220e5399c609027e21734837ccc52c6d4ed3883681b7e3db31cd548ee52a33afa0264736f6c634300080d0033",
  "devdoc": {
    "kind": "dev",
    "methods": {
      "approve(address,uint256)": {
        "details": "See {IERC721-approve}."
      },
      "balanceOf(address)": {
        "details": "See {IERC721-balanceOf}."
      },
      "getApproved(uint256)": {
        "details": "See {IERC721-getApproved}."
      },
      "getRoleAdmin(bytes32)": {
        "details": "Returns the admin role that controls `role`. See {grantRole} and {revokeRole}. To change a role's admin, use {_setRoleAdmin}."
      },
      "grantRole(bytes32,address)": {
        "details": "Grants `role` to `account`. If `account` had not been already granted `role`, emits a {RoleGranted} event. Requirements: - the caller must have ``role``'s admin role. May emit a {RoleGranted} event."
      },
      "hasRole(bytes32,address)": {
        "details": "Returns `true` if `account` has been granted `role`."
      },
      "isApprovedForAll(address,address)": {
        "details": "See {IERC721-isApprovedForAll}."
      },
      "name()": {
        "details": "See {IERC721Metadata-name}."
      },
      "ownerOf(uint256)": {
        "details": "See {IERC721-ownerOf}."
      },
      "renounceRole(bytes32,address)": {
        "details": "Revokes `role` from the calling account. Roles are often managed via {grantRole} and {revokeRole}: this function's purpose is to provide a mechanism for accounts to lose their privileges if they are compromised (such as when a trusted device is misplaced). If the calling account had been revoked `role`, emits a {RoleRevoked} event. Requirements: - the caller must be `account`. May emit a {RoleRevoked} event."
      },
      "revokeRole(bytes32,address)": {
        "details": "Revokes `role` from `account`. If `account` had been granted `role`, emits a {RoleRevoked} event. Requirements: - the caller must have ``role``'s admin role. May emit a {RoleRevoked} event."
      },
      "safeTransferFrom(address,address,uint256)": {
        "details": "See {IERC721-safeTransferFrom}."
      },
      "safeTransferFrom(address,address,uint256,bytes)": {
        "details": "See {IERC721-safeTransferFrom}."
      },
      "setApprovalForAll(address,bool)": {
        "details": "See {IERC721-setApprovalForAll}."
      },
      "symbol()": {
        "details": "See {IERC721Metadata-symbol}."
      },
      "tokenByIndex(uint256)": {
        "details": "See {IERC721Enumerable-tokenByIndex}."
      },
      "tokenOfOwnerByIndex(address,uint256)": {
        "details": "See {IERC721Enumerable-tokenOfOwnerByIndex}."
      },
      "totalSupply()": {
        "details": "See {IERC721Enumerable-totalSupply}."
      },
      "transferFrom(address,address,uint256)": {
        "details": "See {IERC721-transferFrom}."
      }
    },
    "version": 1
  },
  "userdoc": {
    "kind": "user",
    "methods": {},
    "version": 1
  },
  "storageLayout": {
    "storage": [
      {
        "astId": 415,
        "contract": "contracts/NeanderSmol.sol:NeanderSmol",
        "label": "_initialized",
        "offset": 0,
        "slot": "0",
        "type": "t_uint8"
      },
      {
        "astId": 418,
        "contract": "contracts/NeanderSmol.sol:NeanderSmol",
        "label": "_initializing",
        "offset": 1,
        "slot": "0",
        "type": "t_bool"
      },
      {
        "astId": 2438,
        "contract": "contracts/NeanderSmol.sol:NeanderSmol",
        "label": "__gap",
        "offset": 0,
        "slot": "1",
        "type": "t_array(t_uint256)50_storage"
      },
      {
        "astId": 3233,
        "contract": "contracts/NeanderSmol.sol:NeanderSmol",
        "label": "__gap",
        "offset": 0,
        "slot": "51",
        "type": "t_array(t_uint256)50_storage"
      },
      {
        "astId": 39,
        "contract": "contracts/NeanderSmol.sol:NeanderSmol",
        "label": "_roles",
        "offset": 0,
        "slot": "101",
        "type": "t_mapping(t_bytes32,t_struct(RoleData)34_storage)"
      },
      {
        "astId": 334,
        "contract": "contracts/NeanderSmol.sol:NeanderSmol",
        "label": "__gap",
        "offset": 0,
        "slot": "102",
        "type": "t_array(t_uint256)49_storage"
      },
      {
        "astId": 606,
        "contract": "contracts/NeanderSmol.sol:NeanderSmol",
        "label": "_name",
        "offset": 0,
        "slot": "151",
        "type": "t_string_storage"
      },
      {
        "astId": 608,
        "contract": "contracts/NeanderSmol.sol:NeanderSmol",
        "label": "_symbol",
        "offset": 0,
        "slot": "152",
        "type": "t_string_storage"
      },
      {
        "astId": 612,
        "contract": "contracts/NeanderSmol.sol:NeanderSmol",
        "label": "_owners",
        "offset": 0,
        "slot": "153",
        "type": "t_mapping(t_uint256,t_address)"
      },
      {
        "astId": 616,
        "contract": "contracts/NeanderSmol.sol:NeanderSmol",
        "label": "_balances",
        "offset": 0,
        "slot": "154",
        "type": "t_mapping(t_address,t_uint256)"
      },
      {
        "astId": 620,
        "contract": "contracts/NeanderSmol.sol:NeanderSmol",
        "label": "_tokenApprovals",
        "offset": 0,
        "slot": "155",
        "type": "t_mapping(t_uint256,t_address)"
      },
      {
        "astId": 626,
        "contract": "contracts/NeanderSmol.sol:NeanderSmol",
        "label": "_operatorApprovals",
        "offset": 0,
        "slot": "156",
        "type": "t_mapping(t_address,t_mapping(t_address,t_bool))"
      },
      {
        "astId": 1546,
        "contract": "contracts/NeanderSmol.sol:NeanderSmol",
        "label": "__gap",
        "offset": 0,
        "slot": "157",
        "type": "t_array(t_uint256)44_storage"
      },
      {
        "astId": 1711,
        "contract": "contracts/NeanderSmol.sol:NeanderSmol",
        "label": "_ownedTokens",
        "offset": 0,
        "slot": "201",
        "type": "t_mapping(t_address,t_mapping(t_uint256,t_uint256))"
      },
      {
        "astId": 1715,
        "contract": "contracts/NeanderSmol.sol:NeanderSmol",
        "label": "_ownedTokensIndex",
        "offset": 0,
        "slot": "202",
        "type": "t_mapping(t_uint256,t_uint256)"
      },
      {
        "astId": 1718,
        "contract": "contracts/NeanderSmol.sol:NeanderSmol",
        "label": "_allTokens",
        "offset": 0,
        "slot": "203",
        "type": "t_array(t_uint256)dyn_storage"
      },
      {
        "astId": 1722,
        "contract": "contracts/NeanderSmol.sol:NeanderSmol",
        "label": "_allTokensIndex",
        "offset": 0,
        "slot": "204",
        "type": "t_mapping(t_uint256,t_uint256)"
      },
      {
        "astId": 2054,
        "contract": "contracts/NeanderSmol.sol:NeanderSmol",
        "label": "__gap",
        "offset": 0,
        "slot": "205",
        "type": "t_array(t_uint256)46_storage"
      },
      {
        "astId": 4391,
        "contract": "contracts/NeanderSmol.sol:NeanderSmol",
        "label": "_tokenIdTracker",
        "offset": 0,
        "slot": "251",
        "type": "t_struct(Counter)2445_storage"
      },
      {
        "astId": 4393,
        "contract": "contracts/NeanderSmol.sol:NeanderSmol",
        "label": "baseURI",
        "offset": 0,
        "slot": "252",
        "type": "t_string_storage"
      },
      {
        "astId": 4395,
        "contract": "contracts/NeanderSmol.sol:NeanderSmol",
        "label": "decimals",
        "offset": 0,
        "slot": "253",
        "type": "t_uint256"
      },
      {
        "astId": 4397,
        "contract": "contracts/NeanderSmol.sol:NeanderSmol",
        "label": "commonSenseMaxLevel",
        "offset": 0,
        "slot": "254",
        "type": "t_uint256"
      },
      {
        "astId": 4399,
        "contract": "contracts/NeanderSmol.sol:NeanderSmol",
        "label": "publicActive",
        "offset": 0,
        "slot": "255",
        "type": "t_bool"
      },
      {
        "astId": 4401,
        "contract": "contracts/NeanderSmol.sol:NeanderSmol",
        "label": "publicPrice",
        "offset": 0,
        "slot": "256",
        "type": "t_uint256"
      },
      {
        "astId": 4403,
        "contract": "contracts/NeanderSmol.sol:NeanderSmol",
        "label": "revealed",
        "offset": 0,
        "slot": "257",
        "type": "t_bool"
      },
      {
        "astId": 4406,
        "contract": "contracts/NeanderSmol.sol:NeanderSmol",
        "label": "magic",
        "offset": 1,
        "slot": "257",
        "type": "t_contract(IERC20)4947"
      },
      {
        "astId": 4408,
        "contract": "contracts/NeanderSmol.sol:NeanderSmol",
        "label": "devGround",
        "offset": 0,
        "slot": "258",
        "type": "t_address"
      },
      {
        "astId": 4420,
        "contract": "contracts/NeanderSmol.sol:NeanderSmol",
        "label": "tokenToSkill",
        "offset": 0,
        "slot": "259",
        "type": "t_mapping(t_uint256,t_struct(PrimarySkill)4415_storage)"
      },
      {
        "astId": 4424,
        "contract": "contracts/NeanderSmol.sol:NeanderSmol",
        "label": "staked",
        "offset": 0,
        "slot": "260",
        "type": "t_mapping(t_uint256,t_bool)"
      },
      {
        "astId": 4428,
        "contract": "contracts/NeanderSmol.sol:NeanderSmol",
        "label": "commonSense",
        "offset": 0,
        "slot": "261",
        "type": "t_mapping(t_uint256,t_uint256)"
      },
      {
        "astId": 4432,
        "contract": "contracts/NeanderSmol.sol:NeanderSmol",
        "label": "minted",
        "offset": 0,
        "slot": "262",
        "type": "t_mapping(t_address,t_bool)"
      },
      {
        "astId": 4436,
        "contract": "contracts/NeanderSmol.sol:NeanderSmol",
        "label": "publicMinted",
        "offset": 0,
        "slot": "263",
        "type": "t_mapping(t_address,t_uint256)"
      }
    ],
    "types": {
      "t_address": {
        "encoding": "inplace",
        "label": "address",
        "numberOfBytes": "20"
      },
      "t_array(t_uint256)44_storage": {
        "base": "t_uint256",
        "encoding": "inplace",
        "label": "uint256[44]",
        "numberOfBytes": "1408"
      },
      "t_array(t_uint256)46_storage": {
        "base": "t_uint256",
        "encoding": "inplace",
        "label": "uint256[46]",
        "numberOfBytes": "1472"
      },
      "t_array(t_uint256)49_storage": {
        "base": "t_uint256",
        "encoding": "inplace",
        "label": "uint256[49]",
        "numberOfBytes": "1568"
      },
      "t_array(t_uint256)50_storage": {
        "base": "t_uint256",
        "encoding": "inplace",
        "label": "uint256[50]",
        "numberOfBytes": "1600"
      },
      "t_array(t_uint256)dyn_storage": {
        "base": "t_uint256",
        "encoding": "dynamic_array",
        "label": "uint256[]",
        "numberOfBytes": "32"
      },
      "t_bool": {
        "encoding": "inplace",
        "label": "bool",
        "numberOfBytes": "1"
      },
      "t_bytes32": {
        "encoding": "inplace",
        "label": "bytes32",
        "numberOfBytes": "32"
      },
      "t_contract(IERC20)4947": {
        "encoding": "inplace",
        "label": "contract IERC20",
        "numberOfBytes": "20"
      },
      "t_mapping(t_address,t_bool)": {
        "encoding": "mapping",
        "key": "t_address",
        "label": "mapping(address => bool)",
        "numberOfBytes": "32",
        "value": "t_bool"
      },
      "t_mapping(t_address,t_mapping(t_address,t_bool))": {
        "encoding": "mapping",
        "key": "t_address",
        "label": "mapping(address => mapping(address => bool))",
        "numberOfBytes": "32",
        "value": "t_mapping(t_address,t_bool)"
      },
      "t_mapping(t_address,t_mapping(t_uint256,t_uint256))": {
        "encoding": "mapping",
        "key": "t_address",
        "label": "mapping(address => mapping(uint256 => uint256))",
        "numberOfBytes": "32",
        "value": "t_mapping(t_uint256,t_uint256)"
      },
      "t_mapping(t_address,t_uint256)": {
        "encoding": "mapping",
        "key": "t_address",
        "label": "mapping(address => uint256)",
        "numberOfBytes": "32",
        "value": "t_uint256"
      },
      "t_mapping(t_bytes32,t_struct(RoleData)34_storage)": {
        "encoding": "mapping",
        "key": "t_bytes32",
        "label": "mapping(bytes32 => struct AccessControlUpgradeable.RoleData)",
        "numberOfBytes": "32",
        "value": "t_struct(RoleData)34_storage"
      },
      "t_mapping(t_uint256,t_address)": {
        "encoding": "mapping",
        "key": "t_uint256",
        "label": "mapping(uint256 => address)",
        "numberOfBytes": "32",
        "value": "t_address"
      },
      "t_mapping(t_uint256,t_bool)": {
        "encoding": "mapping",
        "key": "t_uint256",
        "label": "mapping(uint256 => bool)",
        "numberOfBytes": "32",
        "value": "t_bool"
      },
      "t_mapping(t_uint256,t_struct(PrimarySkill)4415_storage)": {
        "encoding": "mapping",
        "key": "t_uint256",
        "label": "mapping(uint256 => struct NeanderSmol.PrimarySkill)",
        "numberOfBytes": "32",
        "value": "t_struct(PrimarySkill)4415_storage"
      },
      "t_mapping(t_uint256,t_uint256)": {
        "encoding": "mapping",
        "key": "t_uint256",
        "label": "mapping(uint256 => uint256)",
        "numberOfBytes": "32",
        "value": "t_uint256"
      },
      "t_string_storage": {
        "encoding": "bytes",
        "label": "string",
        "numberOfBytes": "32"
      },
      "t_struct(Counter)2445_storage": {
        "encoding": "inplace",
        "label": "struct CountersUpgradeable.Counter",
        "members": [
          {
            "astId": 2444,
            "contract": "contracts/NeanderSmol.sol:NeanderSmol",
            "label": "_value",
            "offset": 0,
            "slot": "0",
            "type": "t_uint256"
          }
        ],
        "numberOfBytes": "32"
      },
      "t_struct(PrimarySkill)4415_storage": {
        "encoding": "inplace",
        "label": "struct NeanderSmol.PrimarySkill",
        "members": [
          {
            "astId": 4410,
            "contract": "contracts/NeanderSmol.sol:NeanderSmol",
            "label": "mystics",
            "offset": 0,
            "slot": "0",
            "type": "t_uint256"
          },
          {
            "astId": 4412,
            "contract": "contracts/NeanderSmol.sol:NeanderSmol",
            "label": "farmers",
            "offset": 0,
            "slot": "1",
            "type": "t_uint256"
          },
          {
            "astId": 4414,
            "contract": "contracts/NeanderSmol.sol:NeanderSmol",
            "label": "fighters",
            "offset": 0,
            "slot": "2",
            "type": "t_uint256"
          }
        ],
        "numberOfBytes": "96"
      },
      "t_struct(RoleData)34_storage": {
        "encoding": "inplace",
        "label": "struct AccessControlUpgradeable.RoleData",
        "members": [
          {
            "astId": 31,
            "contract": "contracts/NeanderSmol.sol:NeanderSmol",
            "label": "members",
            "offset": 0,
            "slot": "0",
            "type": "t_mapping(t_address,t_bool)"
          },
          {
            "astId": 33,
            "contract": "contracts/NeanderSmol.sol:NeanderSmol",
            "label": "adminRole",
            "offset": 0,
            "slot": "1",
            "type": "t_bytes32"
          }
        ],
        "numberOfBytes": "64"
      },
      "t_uint256": {
        "encoding": "inplace",
        "label": "uint256",
        "numberOfBytes": "32"
      },
      "t_uint8": {
        "encoding": "inplace",
        "label": "uint8",
        "numberOfBytes": "1"
      }
    }
  }
}