{
  "address": "0xC3a1ea37E1AFd770A3106E528120e5881796702c",
  "abi": [
    {
      "inputs": [],
      "name": "BalanceIsInsufficient",
      "type": "error"
    },
    {
      "anonymous": false,
      "inputs": [
        {
          "indexed": false,
          "internalType": "uint8",
          "name": "version",
          "type": "uint8"
        }
      ],
      "name": "Initialized",
      "type": "event"
    },
    {
      "anonymous": false,
      "inputs": [
        {
          "indexed": true,
          "internalType": "address",
          "name": "owner",
          "type": "address"
        },
        {
          "indexed": true,
          "internalType": "uint256",
          "name": "amount",
          "type": "uint256"
        }
      ],
      "name": "RemoveBonesFromYard",
      "type": "event"
    },
    {
      "anonymous": false,
      "inputs": [
        {
          "indexed": true,
          "internalType": "address",
          "name": "owner",
          "type": "address"
        },
        {
          "indexed": true,
          "internalType": "uint256",
          "name": "amount",
          "type": "uint256"
        }
      ],
      "name": "StakeBonesInYard",
      "type": "event"
    },
    {
      "inputs": [],
      "name": "bones",
      "outputs": [
        {
          "internalType": "contract IERC20",
          "name": "",
          "type": "address"
        }
      ],
      "stateMutability": "view",
      "type": "function"
    },
    {
      "inputs": [],
      "name": "bonesStaked",
      "outputs": [
        {
          "internalType": "uint256",
          "name": "",
          "type": "uint256"
        }
      ],
      "stateMutability": "view",
      "type": "function"
    },
    {
      "inputs": [
        {
          "internalType": "address",
          "name": "_addr",
          "type": "address"
        }
      ],
      "name": "getBonesStaked",
      "outputs": [
        {
          "internalType": "uint256",
          "name": "",
          "type": "uint256"
        }
      ],
      "stateMutability": "view",
      "type": "function"
    },
    {
      "inputs": [
        {
          "internalType": "uint256",
          "name": "_timestamp",
          "type": "uint256"
        }
      ],
      "name": "getDaysOff",
      "outputs": [
        {
          "internalType": "uint256",
          "name": "",
          "type": "uint256"
        }
      ],
      "stateMutability": "view",
      "type": "function"
    },
    {
      "inputs": [],
      "name": "getTimeOut",
      "outputs": [
        {
          "internalType": "uint256",
          "name": "",
          "type": "uint256"
        }
      ],
      "stateMutability": "view",
      "type": "function"
    },
    {
      "inputs": [],
      "name": "getTotalBonesStaked",
      "outputs": [
        {
          "internalType": "uint256",
          "name": "",
          "type": "uint256"
        }
      ],
      "stateMutability": "view",
      "type": "function"
    },
    {
      "inputs": [],
      "name": "getTotalDaysOff",
      "outputs": [
        {
          "internalType": "uint256",
          "name": "",
          "type": "uint256"
        }
      ],
      "stateMutability": "view",
      "type": "function"
    },
    {
      "inputs": [
        {
          "internalType": "address",
          "name": "_bones",
          "type": "address"
        }
      ],
      "name": "initialize",
      "outputs": [],
      "stateMutability": "nonpayable",
      "type": "function"
    },
    {
      "inputs": [
        {
          "internalType": "uint256",
          "name": "_amount",
          "type": "uint256"
        }
      ],
      "name": "removeBonesFromYard",
      "outputs": [],
      "stateMutability": "nonpayable",
      "type": "function"
    },
    {
      "inputs": [
        {
          "internalType": "uint256",
          "name": "_amount",
          "type": "uint256"
        }
      ],
      "name": "stakeBonesInYard",
      "outputs": [],
      "stateMutability": "nonpayable",
      "type": "function"
    },
    {
      "inputs": [],
      "name": "timeOut",
      "outputs": [
        {
          "internalType": "uint256",
          "name": "",
          "type": "uint256"
        }
      ],
      "stateMutability": "view",
      "type": "function"
    },
    {
      "inputs": [],
      "name": "totalDaysOff",
      "outputs": [
        {
          "internalType": "uint256",
          "name": "",
          "type": "uint256"
        }
      ],
      "stateMutability": "view",
      "type": "function"
    },
    {
      "inputs": [],
      "name": "validation",
      "outputs": [
        {
          "internalType": "bool",
          "name": "",
          "type": "bool"
        }
      ],
      "stateMutability": "view",
      "type": "function"
    }
  ],
  "transactionHash": "0xedd2ccc034365e8b4d70e669390b8b1742361b9d869bab33cf2486140f64edc8",
  "args": [],
  "numDeployments": 1,
  "solcInputHash": "6361f1d7e0b69cf5c6ebba581cc5ae31",
  "bytecode": "0x608060405234801561001057600080fd5b50610eb2806100206000396000f3fe608060405234801561001057600080fd5b50600436106100cf5760003560e01c806389626bbb1161008c578063c4d66de811610066578063c4d66de8146101de578063d09f53c0146101fa578063d88ad8871461022a578063e30aadc014610248576100cf565b806389626bbb146101865780638d32b0b0146101a4578063ae4b37e4146101c0576100cf565b806311f77b6c146100d45780631b688d9f146100f2578063229f45701461011057806360dc175d1461012c578063614d85e11461014a5780637bd90cc214610168575b600080fd5b6100dc610278565b6040516100e99190610a1d565b60405180910390f35b6100fa61027e565b6040516101079190610a1d565b60405180910390f35b61012a60048036038101906101259190610a69565b610288565b005b6101346104d3565b6040516101419190610a1d565b60405180910390f35b6101526104dd565b60405161015f9190610a1d565b60405180910390f35b6101706104e3565b60405161017d9190610a1d565b60405180910390f35b61018e6104ed565b60405161019b9190610a1d565b60405180910390f35b6101be60048036038101906101b99190610a69565b6104f3565b005b6101c8610680565b6040516101d59190610ab1565b60405180910390f35b6101f860048036038101906101f39190610b2a565b610694565b005b610214600480360381019061020f9190610a69565b61080c565b6040516102219190610a1d565b60405180910390f35b610232610829565b60405161023f9190610bb6565b60405180910390f35b610262600480360381019061025d9190610b2a565b61084f565b60405161026f9190610a1d565b60405180910390f35b60015481565b6000600254905090565b80600060029054906101000a900473ffffffffffffffffffffffffffffffffffffffff1673ffffffffffffffffffffffffffffffffffffffff166370a08231336040518263ffffffff1660e01b81526004016102e49190610be0565b602060405180830381865afa158015610301573d6000803e3d6000fd5b505050506040513d601f19601f820116820180604052508101906103259190610c10565b101561035d576040517f7276110900000000000000000000000000000000000000000000000000000000815260040160405180910390fd5b60006001549050610392600060029054906101000a900473ffffffffffffffffffffffffffffffffffffffff16333085610898565b81600460003373ffffffffffffffffffffffffffffffffffffffff1673ffffffffffffffffffffffffffffffffffffffff16815260200190815260200160002060008282546103e19190610c6c565b9250508190555081600160008282546103fa9190610c6c565b925050819055506104096108e8565b8110801561041b575061041a610680565b5b1561048b576000806002541461044f57620151806002544261043d9190610ca0565b6104479190610d03565b905080610455565b60009050805b50806005600060025481526020019081526020016000208190555080600360008282546104829190610c6c565b92505081905550505b813373ffffffffffffffffffffffffffffffffffffffff167feee583b3a9abd3fc0b4ec61ae41e4945daef0730d6e2ff18701a2eccf5a14fc360405160405180910390a35050565b6000600154905090565b60025481565b6000600354905090565b60035481565b600460003373ffffffffffffffffffffffffffffffffffffffff1673ffffffffffffffffffffffffffffffffffffffff1681526020019081526020016000205481111561056c576040517f7276110900000000000000000000000000000000000000000000000000000000815260040160405180910390fd5b6000600154905081600460003373ffffffffffffffffffffffffffffffffffffffff1673ffffffffffffffffffffffffffffffffffffffff16815260200190815260200160002060008282546105c29190610ca0565b9250508190555081600160008282546105db9190610ca0565b925050819055506105ea6108e8565b81101580156105fe57506105fc610680565b155b1561060b57426002819055505b610638600060029054906101000a900473ffffffffffffffffffffffffffffffffffffffff163384610998565b813373ffffffffffffffffffffffffffffffffffffffff167f890a9eede17bad064866e98bf8a4b0039775595030c55e9c2a142bbe4913a85b60405160405180910390a35050565b600061068a6108e8565b6001541015905090565b60008060019054906101000a900460ff161590508080156106c55750600160008054906101000a900460ff1660ff16105b806106f257506106d4306109e1565b1580156106f15750600160008054906101000a900460ff1660ff16145b5b610731576040517f08c379a000000000000000000000000000000000000000000000000000000000815260040161072890610db7565b60405180910390fd5b60016000806101000a81548160ff021916908360ff160217905550801561076e576001600060016101000a81548160ff0219169083151502179055505b81600060026101000a81548173ffffffffffffffffffffffffffffffffffffffff021916908373ffffffffffffffffffffffffffffffffffffffff16021790555080156108085760008060016101000a81548160ff0219169083151502179055507f7f26b83ff96e1f2b6a682f133852f6798a09c465da95921460cefb384740249860016040516107ff9190610e1f565b60405180910390a15b5050565b600060056000838152602001908152602001600020549050919050565b600060029054906101000a900473ffffffffffffffffffffffffffffffffffffffff1681565b6000600460008373ffffffffffffffffffffffffffffffffffffffff1673ffffffffffffffffffffffffffffffffffffffff168152602001908152602001600020549050919050565b6040516323b872dd600052836020528260405281606052602060006064601c6000895af13d1560016000511417166108d857637939f4246000526004601cfd5b6000606052806040525050505050565b6000600a6003600060029054906101000a900473ffffffffffffffffffffffffffffffffffffffff1673ffffffffffffffffffffffffffffffffffffffff166318160ddd6040518163ffffffff1660e01b8152600401602060405180830381865afa15801561095b573d6000803e3d6000fd5b505050506040513d601f19601f8201168201806040525081019061097f9190610c10565b6109899190610e3a565b6109939190610d03565b905090565b81601a5280603a5269a9059cbb00000000000060005260206000604460166000875af13d1560016000511417166109d7576390b8ec186000526004601cfd5b6000603a52505050565b6000808273ffffffffffffffffffffffffffffffffffffffff163b119050919050565b6000819050919050565b610a1781610a04565b82525050565b6000602082019050610a326000830184610a0e565b92915050565b600080fd5b610a4681610a04565b8114610a5157600080fd5b50565b600081359050610a6381610a3d565b92915050565b600060208284031215610a7f57610a7e610a38565b5b6000610a8d84828501610a54565b91505092915050565b60008115159050919050565b610aab81610a96565b82525050565b6000602082019050610ac66000830184610aa2565b92915050565b600073ffffffffffffffffffffffffffffffffffffffff82169050919050565b6000610af782610acc565b9050919050565b610b0781610aec565b8114610b1257600080fd5b50565b600081359050610b2481610afe565b92915050565b600060208284031215610b4057610b3f610a38565b5b6000610b4e84828501610b15565b91505092915050565b6000819050919050565b6000610b7c610b77610b7284610acc565b610b57565b610acc565b9050919050565b6000610b8e82610b61565b9050919050565b6000610ba082610b83565b9050919050565b610bb081610b95565b82525050565b6000602082019050610bcb6000830184610ba7565b92915050565b610bda81610aec565b82525050565b6000602082019050610bf56000830184610bd1565b92915050565b600081519050610c0a81610a3d565b92915050565b600060208284031215610c2657610c25610a38565b5b6000610c3484828501610bfb565b91505092915050565b7f4e487b7100000000000000000000000000000000000000000000000000000000600052601160045260246000fd5b6000610c7782610a04565b9150610c8283610a04565b9250828201905080821115610c9a57610c99610c3d565b5b92915050565b6000610cab82610a04565b9150610cb683610a04565b9250828203905081811115610cce57610ccd610c3d565b5b92915050565b7f4e487b7100000000000000000000000000000000000000000000000000000000600052601260045260246000fd5b6000610d0e82610a04565b9150610d1983610a04565b925082610d2957610d28610cd4565b5b828204905092915050565b600082825260208201905092915050565b7f496e697469616c697a61626c653a20636f6e747261637420697320616c72656160008201527f647920696e697469616c697a6564000000000000000000000000000000000000602082015250565b6000610da1602e83610d34565b9150610dac82610d45565b604082019050919050565b60006020820190508181036000830152610dd081610d94565b9050919050565b6000819050919050565b600060ff82169050919050565b6000610e09610e04610dff84610dd7565b610b57565b610de1565b9050919050565b610e1981610dee565b82525050565b6000602082019050610e346000830184610e10565b92915050565b6000610e4582610a04565b9150610e5083610a04565b9250828202610e5e81610a04565b91508282048414831517610e7557610e74610c3d565b5b509291505056fea26469706673582212205ee2b20622a561e53b2cf967ae66b85c4e9f8be6f7eb2b0ebc3e07524582af5464736f6c63430008110033",
  "devdoc": {
    "kind": "dev",
    "methods": {},
    "version": 1
  },
  "userdoc": {
    "kind": "user",
    "methods": {},
    "version": 1
  },
  "storageLayout": {
    "storage": [
      {
        "astId": 6,
        "contract": "contracts/Pits.sol:Pits",
        "label": "_initialized",
        "offset": 0,
        "slot": "0",
        "type": "t_uint8"
      },
      {
        "astId": 9,
        "contract": "contracts/Pits.sol:Pits",
        "label": "_initializing",
        "offset": 1,
        "slot": "0",
        "type": "t_bool"
      },
      {
        "astId": 751,
        "contract": "contracts/Pits.sol:Pits",
        "label": "bones",
        "offset": 2,
        "slot": "0",
        "type": "t_contract(IERC20)736"
      },
      {
        "astId": 753,
        "contract": "contracts/Pits.sol:Pits",
        "label": "bonesStaked",
        "offset": 0,
        "slot": "1",
        "type": "t_uint256"
      },
      {
        "astId": 755,
        "contract": "contracts/Pits.sol:Pits",
        "label": "timeOut",
        "offset": 0,
        "slot": "2",
        "type": "t_uint256"
      },
      {
        "astId": 757,
        "contract": "contracts/Pits.sol:Pits",
        "label": "totalDaysOff",
        "offset": 0,
        "slot": "3",
        "type": "t_uint256"
      },
      {
        "astId": 761,
        "contract": "contracts/Pits.sol:Pits",
        "label": "balance",
        "offset": 0,
        "slot": "4",
        "type": "t_mapping(t_address,t_uint256)"
      },
      {
        "astId": 765,
        "contract": "contracts/Pits.sol:Pits",
        "label": "trackDaysOff",
        "offset": 0,
        "slot": "5",
        "type": "t_mapping(t_uint256,t_uint256)"
      }
    ],
    "types": {
      "t_address": {
        "encoding": "inplace",
        "label": "address",
        "numberOfBytes": "20"
      },
      "t_bool": {
        "encoding": "inplace",
        "label": "bool",
        "numberOfBytes": "1"
      },
      "t_contract(IERC20)736": {
        "encoding": "inplace",
        "label": "contract IERC20",
        "numberOfBytes": "20"
      },
      "t_mapping(t_address,t_uint256)": {
        "encoding": "mapping",
        "key": "t_address",
        "label": "mapping(address => uint256)",
        "numberOfBytes": "32",
        "value": "t_uint256"
      },
      "t_mapping(t_uint256,t_uint256)": {
        "encoding": "mapping",
        "key": "t_uint256",
        "label": "mapping(uint256 => uint256)",
        "numberOfBytes": "32",
        "value": "t_uint256"
      },
      "t_uint256": {
        "encoding": "inplace",
        "label": "uint256",
        "numberOfBytes": "32"
      },
      "t_uint8": {
        "encoding": "inplace",
        "label": "uint8",
        "numberOfBytes": "1"
      }
    }
  }
}