{
  "address": "0x52592b0b845a0F0a02018C0Ae455335d2a18C63e",
  "abi": [
    {
      "inputs": [],
      "name": "InvalidTokenId",
      "type": "error"
    },
    {
      "inputs": [],
      "name": "LengthsNotEqual",
      "type": "error"
    },
    {
      "inputs": [],
      "name": "NewOwnerIsZeroAddress",
      "type": "error"
    },
    {
      "inputs": [],
      "name": "NoHandoverRequest",
      "type": "error"
    },
    {
      "inputs": [],
      "name": "NotAuthorized",
      "type": "error"
    },
    {
      "inputs": [],
      "name": "Unauthorized",
      "type": "error"
    },
    {
      "anonymous": false,
      "inputs": [
        {
          "indexed": true,
          "internalType": "address",
          "name": "account",
          "type": "address"
        },
        {
          "indexed": true,
          "internalType": "address",
          "name": "operator",
          "type": "address"
        },
        {
          "indexed": false,
          "internalType": "bool",
          "name": "approved",
          "type": "bool"
        }
      ],
      "name": "ApprovalForAll",
      "type": "event"
    },
    {
      "anonymous": false,
      "inputs": [
        {
          "indexed": false,
          "internalType": "uint8",
          "name": "version",
          "type": "uint8"
        }
      ],
      "name": "Initialized",
      "type": "event"
    },
    {
      "anonymous": false,
      "inputs": [
        {
          "indexed": true,
          "internalType": "address",
          "name": "pendingOwner",
          "type": "address"
        }
      ],
      "name": "OwnershipHandoverCanceled",
      "type": "event"
    },
    {
      "anonymous": false,
      "inputs": [
        {
          "indexed": true,
          "internalType": "address",
          "name": "pendingOwner",
          "type": "address"
        }
      ],
      "name": "OwnershipHandoverRequested",
      "type": "event"
    },
    {
      "anonymous": false,
      "inputs": [
        {
          "indexed": true,
          "internalType": "address",
          "name": "oldOwner",
          "type": "address"
        },
        {
          "indexed": true,
          "internalType": "address",
          "name": "newOwner",
          "type": "address"
        }
      ],
      "name": "OwnershipTransferred",
      "type": "event"
    },
    {
      "anonymous": false,
      "inputs": [
        {
          "indexed": true,
          "internalType": "address",
          "name": "operator",
          "type": "address"
        },
        {
          "indexed": true,
          "internalType": "address",
          "name": "from",
          "type": "address"
        },
        {
          "indexed": true,
          "internalType": "address",
          "name": "to",
          "type": "address"
        },
        {
          "indexed": false,
          "internalType": "uint256[]",
          "name": "ids",
          "type": "uint256[]"
        },
        {
          "indexed": false,
          "internalType": "uint256[]",
          "name": "values",
          "type": "uint256[]"
        }
      ],
      "name": "TransferBatch",
      "type": "event"
    },
    {
      "anonymous": false,
      "inputs": [
        {
          "indexed": true,
          "internalType": "address",
          "name": "operator",
          "type": "address"
        },
        {
          "indexed": true,
          "internalType": "address",
          "name": "from",
          "type": "address"
        },
        {
          "indexed": true,
          "internalType": "address",
          "name": "to",
          "type": "address"
        },
        {
          "indexed": false,
          "internalType": "uint256",
          "name": "id",
          "type": "uint256"
        },
        {
          "indexed": false,
          "internalType": "uint256",
          "name": "value",
          "type": "uint256"
        }
      ],
      "name": "TransferSingle",
      "type": "event"
    },
    {
      "anonymous": false,
      "inputs": [
        {
          "indexed": false,
          "internalType": "string",
          "name": "value",
          "type": "string"
        },
        {
          "indexed": true,
          "internalType": "uint256",
          "name": "id",
          "type": "uint256"
        }
      ],
      "name": "URI",
      "type": "event"
    },
    {
      "inputs": [
        {
          "internalType": "address",
          "name": "account",
          "type": "address"
        },
        {
          "internalType": "uint256",
          "name": "id",
          "type": "uint256"
        }
      ],
      "name": "balanceOf",
      "outputs": [
        {
          "internalType": "uint256",
          "name": "",
          "type": "uint256"
        }
      ],
      "stateMutability": "view",
      "type": "function"
    },
    {
      "inputs": [
        {
          "internalType": "address[]",
          "name": "accounts",
          "type": "address[]"
        },
        {
          "internalType": "uint256[]",
          "name": "ids",
          "type": "uint256[]"
        }
      ],
      "name": "balanceOfBatch",
      "outputs": [
        {
          "internalType": "uint256[]",
          "name": "",
          "type": "uint256[]"
        }
      ],
      "stateMutability": "view",
      "type": "function"
    },
    {
      "inputs": [],
      "name": "bones",
      "outputs": [
        {
          "internalType": "address",
          "name": "",
          "type": "address"
        }
      ],
      "stateMutability": "view",
      "type": "function"
    },
    {
      "inputs": [],
      "name": "cancelOwnershipHandover",
      "outputs": [],
      "stateMutability": "payable",
      "type": "function"
    },
    {
      "inputs": [
        {
          "internalType": "address",
          "name": "pendingOwner",
          "type": "address"
        }
      ],
      "name": "completeOwnershipHandover",
      "outputs": [],
      "stateMutability": "payable",
      "type": "function"
    },
    {
      "inputs": [
        {
          "internalType": "address",
          "name": "_bones",
          "type": "address"
        },
        {
          "internalType": "address",
          "name": "_magic",
          "type": "address"
        },
        {
          "internalType": "address",
          "name": "_treasure",
          "type": "address"
        },
        {
          "internalType": "string",
          "name": "_baseUri",
          "type": "string"
        }
      ],
      "name": "initialize",
      "outputs": [],
      "stateMutability": "nonpayable",
      "type": "function"
    },
    {
      "inputs": [
        {
          "internalType": "address",
          "name": "account",
          "type": "address"
        },
        {
          "internalType": "address",
          "name": "operator",
          "type": "address"
        }
      ],
      "name": "isApprovedForAll",
      "outputs": [
        {
          "internalType": "bool",
          "name": "",
          "type": "bool"
        }
      ],
      "stateMutability": "view",
      "type": "function"
    },
    {
      "inputs": [],
      "name": "laborGround",
      "outputs": [
        {
          "internalType": "address",
          "name": "",
          "type": "address"
        }
      ],
      "stateMutability": "view",
      "type": "function"
    },
    {
      "inputs": [],
      "name": "magic",
      "outputs": [
        {
          "internalType": "address",
          "name": "",
          "type": "address"
        }
      ],
      "stateMutability": "view",
      "type": "function"
    },
    {
      "inputs": [
        {
          "internalType": "uint256[]",
          "name": "_tokenId",
          "type": "uint256[]"
        },
        {
          "internalType": "uint256[]",
          "name": "_amount",
          "type": "uint256[]"
        },
        {
          "internalType": "enum Supplies.Curr[]",
          "name": "_curr",
          "type": "uint8[]"
        }
      ],
      "name": "mint",
      "outputs": [],
      "stateMutability": "nonpayable",
      "type": "function"
    },
    {
      "inputs": [],
      "name": "name",
      "outputs": [
        {
          "internalType": "string",
          "name": "",
          "type": "string"
        }
      ],
      "stateMutability": "pure",
      "type": "function"
    },
    {
      "inputs": [],
      "name": "owner",
      "outputs": [
        {
          "internalType": "address",
          "name": "result",
          "type": "address"
        }
      ],
      "stateMutability": "view",
      "type": "function"
    },
    {
      "inputs": [
        {
          "internalType": "address",
          "name": "pendingOwner",
          "type": "address"
        }
      ],
      "name": "ownershipHandoverExpiresAt",
      "outputs": [
        {
          "internalType": "uint256",
          "name": "result",
          "type": "uint256"
        }
      ],
      "stateMutability": "view",
      "type": "function"
    },
    {
      "inputs": [],
      "name": "ownershipHandoverValidFor",
      "outputs": [
        {
          "internalType": "uint64",
          "name": "",
          "type": "uint64"
        }
      ],
      "stateMutability": "view",
      "type": "function"
    },
    {
      "inputs": [],
      "name": "renounceOwnership",
      "outputs": [],
      "stateMutability": "payable",
      "type": "function"
    },
    {
      "inputs": [],
      "name": "requestOwnershipHandover",
      "outputs": [],
      "stateMutability": "payable",
      "type": "function"
    },
    {
      "inputs": [
        {
          "internalType": "address",
          "name": "from",
          "type": "address"
        },
        {
          "internalType": "address",
          "name": "to",
          "type": "address"
        },
        {
          "internalType": "uint256[]",
          "name": "ids",
          "type": "uint256[]"
        },
        {
          "internalType": "uint256[]",
          "name": "amounts",
          "type": "uint256[]"
        },
        {
          "internalType": "bytes",
          "name": "data",
          "type": "bytes"
        }
      ],
      "name": "safeBatchTransferFrom",
      "outputs": [],
      "stateMutability": "nonpayable",
      "type": "function"
    },
    {
      "inputs": [
        {
          "internalType": "address",
          "name": "from",
          "type": "address"
        },
        {
          "internalType": "address",
          "name": "to",
          "type": "address"
        },
        {
          "internalType": "uint256",
          "name": "id",
          "type": "uint256"
        },
        {
          "internalType": "uint256",
          "name": "amount",
          "type": "uint256"
        },
        {
          "internalType": "bytes",
          "name": "data",
          "type": "bytes"
        }
      ],
      "name": "safeTransferFrom",
      "outputs": [],
      "stateMutability": "nonpayable",
      "type": "function"
    },
    {
      "inputs": [
        {
          "internalType": "address",
          "name": "operator",
          "type": "address"
        },
        {
          "internalType": "bool",
          "name": "approved",
          "type": "bool"
        }
      ],
      "name": "setApprovalForAll",
      "outputs": [],
      "stateMutability": "nonpayable",
      "type": "function"
    },
    {
      "inputs": [
        {
          "internalType": "address",
          "name": "_laborGround",
          "type": "address"
        }
      ],
      "name": "setLaborGroundAddresss",
      "outputs": [],
      "stateMutability": "nonpayable",
      "type": "function"
    },
    {
      "inputs": [
        {
          "internalType": "bytes4",
          "name": "interfaceId",
          "type": "bytes4"
        }
      ],
      "name": "supportsInterface",
      "outputs": [
        {
          "internalType": "bool",
          "name": "",
          "type": "bool"
        }
      ],
      "stateMutability": "view",
      "type": "function"
    },
    {
      "inputs": [],
      "name": "symbol",
      "outputs": [
        {
          "internalType": "string",
          "name": "",
          "type": "string"
        }
      ],
      "stateMutability": "pure",
      "type": "function"
    },
    {
      "inputs": [
        {
          "internalType": "address",
          "name": "newOwner",
          "type": "address"
        }
      ],
      "name": "transferOwnership",
      "outputs": [],
      "stateMutability": "payable",
      "type": "function"
    },
    {
      "inputs": [],
      "name": "treasure",
      "outputs": [
        {
          "internalType": "address",
          "name": "",
          "type": "address"
        }
      ],
      "stateMutability": "view",
      "type": "function"
    },
    {
      "inputs": [
        {
          "internalType": "uint256",
          "name": "_tokenId",
          "type": "uint256"
        }
      ],
      "name": "uri",
      "outputs": [
        {
          "internalType": "string",
          "name": "",
          "type": "string"
        }
      ],
      "stateMutability": "view",
      "type": "function"
    },
    {
      "inputs": [],
      "name": "withdraw",
      "outputs": [],
      "stateMutability": "nonpayable",
      "type": "function"
    }
  ],
  "transactionHash": "0x54fc689cf8a3379de9993ad35fe7f5cd6632af39caf62c1210650b686ba77463",
  "args": [],
  "numDeployments": 1,
  "solcInputHash": "382b64b6cda7259ac2c94037600ab694",
  "bytecode": "0x608060405234801561001057600080fd5b50614042806100206000396000f3fe6080604052600436106101805760003560e01c8063715018a6116100d1578063d88ad8871161008a578063f04e283e11610064578063f04e283e14610510578063f242432a1461052c578063f2fde38b14610555578063fee81cf41461057157610180565b8063d88ad8871461047d578063e520fc7e146104a8578063e985e9c5146104d357610180565b8063715018a61461039e57806372355af8146103a85780638da5cb5b146103d357806395d89b41146103fe578063a22cb46514610429578063d7533f021461045257610180565b8063256929621161013e5780634b98d53b116101185780634b98d53b146103055780634e1273f41461032e57806354d1f13d1461036b57806365e8e4f41461037557610180565b806325692962146102bb5780632eb2c2d6146102c55780633ccfd60b146102ee57610180565b8062fdd58e1461018557806301ffc9a7146101c257806306fdde03146101ff5780630d8546461461022a5780630e89341c146102555780631963070e14610292575b600080fd5b34801561019157600080fd5b506101ac60048036038101906101a79190612581565b6105ae565b6040516101b991906125d0565b60405180910390f35b3480156101ce57600080fd5b506101e960048036038101906101e49190612643565b610677565b6040516101f6919061268b565b60405180910390f35b34801561020b57600080fd5b50610214610759565b6040516102219190612736565b60405180910390f35b34801561023657600080fd5b5061023f610796565b60405161024c9190612767565b60405180910390f35b34801561026157600080fd5b5061027c60048036038101906102779190612782565b6107bc565b6040516102899190612736565b60405180910390f35b34801561029e57600080fd5b506102b960048036038101906102b491906127af565b6107f0565b005b6102c361083c565b005b3480156102d157600080fd5b506102ec60048036038101906102e791906129d9565b610890565b005b3480156102fa57600080fd5b50610303610931565b005b34801561031157600080fd5b5061032c60048036038101906103279190612b59565b610968565b005b34801561033a57600080fd5b5061035560048036038101906103509190612cd0565b610af1565b6040516103629190612e06565b60405180910390f35b610373610c0a565b005b34801561038157600080fd5b5061039c60048036038101906103979190612ec9565b610c46565b005b6103a6610e5c565b005b3480156103b457600080fd5b506103bd610e70565b6040516103ca9190612767565b60405180910390f35b3480156103df57600080fd5b506103e8610e96565b6040516103f59190612767565b60405180910390f35b34801561040a57600080fd5b50610413610ea4565b6040516104209190612736565b60405180910390f35b34801561043557600080fd5b50610450600480360381019061044b9190612f78565b610ee1565b005b34801561045e57600080fd5b50610467610f76565b6040516104749190612fdb565b60405180910390f35b34801561048957600080fd5b50610492610f81565b60405161049f9190612767565b60405180910390f35b3480156104b457600080fd5b506104bd610fa7565b6040516104ca9190612767565b60405180910390f35b3480156104df57600080fd5b506104fa60048036038101906104f59190612ff6565b610fcd565b604051610507919061268b565b60405180910390f35b61052a600480360381019061052591906127af565b611061565b005b34801561053857600080fd5b50610553600480360381019061054e9190613036565b6110a2565b005b61056f600480360381019061056a91906127af565b611143565b005b34801561057d57600080fd5b50610598600480360381019061059391906127af565b61116d565b6040516105a591906125d0565b60405180910390f35b60008073ffffffffffffffffffffffffffffffffffffffff168373ffffffffffffffffffffffffffffffffffffffff160361061e576040517f08c379a00000000000000000000000000000000000000000000000000000000081526004016106159061313f565b60405180910390fd5b6065600083815260200190815260200160002060008473ffffffffffffffffffffffffffffffffffffffff1673ffffffffffffffffffffffffffffffffffffffff16815260200190815260200160002054905092915050565b60007fd9b67a26000000000000000000000000000000000000000000000000000000007bffffffffffffffffffffffffffffffffffffffffffffffffffffffff1916827bffffffffffffffffffffffffffffffffffffffffffffffffffffffff1916148061074257507f0e89341c000000000000000000000000000000000000000000000000000000007bffffffffffffffffffffffffffffffffffffffffffffffffffffffff1916827bffffffffffffffffffffffffffffffffffffffffffffffffffffffff1916145b80610752575061075182611188565b5b9050919050565b60606040518060400160405280600881526020017f537570706c696573000000000000000000000000000000000000000000000000815250905090565b609a60009054906101000a900473ffffffffffffffffffffffffffffffffffffffff1681565b6060609b6107c9836111f2565b6040516020016107da929190613293565b6040516020818303038152906040529050919050565b6107f86112c0565b80609760006101000a81548173ffffffffffffffffffffffffffffffffffffffff021916908373ffffffffffffffffffffffffffffffffffffffff16021790555050565b6000610846610f76565b67ffffffffffffffff164201905063389a75e1600c5233600052806020600c2055337fdbf36a107da19e49527a7176a1babf963b4b0ff8cde35ee35d6cd8f1f9ac7e1d600080a250565b6108986112dd565b73ffffffffffffffffffffffffffffffffffffffff168573ffffffffffffffffffffffffffffffffffffffff1614806108de57506108dd856108d86112dd565b610fcd565b5b61091d576040517f08c379a000000000000000000000000000000000000000000000000000000000815260040161091490613329565b60405180910390fd5b61092a85858585856112e5565b5050505050565b6109396112c0565b610965609a60009054906101000a900473ffffffffffffffffffffffffffffffffffffffff1633611609565b50565b600084849050878790501415806109855750828290508585905014155b156109bc576040517f22cb666100000000000000000000000000000000000000000000000000000000815260040160405180910390fd5b5b86869050811015610ae85760038787838181106109dd576109dc613349565b5b905060200201351180610a0957506001878783818110610a00576109ff613349565b5b90506020020135105b15610a40576040517f3f6cc76800000000000000000000000000000000000000000000000000000000815260040160405180910390fd5b610a8a838383818110610a5657610a55613349565b5b9050602002016020810190610a6b919061339d565b868684818110610a7e57610a7d613349565b5b90506020020135611684565b610ad733888884818110610aa157610aa0613349565b5b90506020020135878785818110610abb57610aba613349565b5b9050602002013560405180602001604052806000815250611890565b80610ae1906133f9565b90506109bd565b50505050505050565b60608151835114610b37576040517f08c379a0000000000000000000000000000000000000000000000000000000008152600401610b2e906134b3565b60405180910390fd5b6000835167ffffffffffffffff811115610b5457610b536127e1565b5b604051908082528060200260200182016040528015610b825781602001602082028036833780820191505090505b50905060005b8451811015610bff57610bcf858281518110610ba757610ba6613349565b5b6020026020010151858381518110610bc257610bc1613349565b5b60200260200101516105ae565b828281518110610be257610be1613349565b5b60200260200101818152505080610bf8906133f9565b9050610b88565b508091505092915050565b63389a75e1600c523360005260006020600c2055337ffa7b8eab7da67f412cc9575ed43464468f9bfbae89d1675917346ca6d8fe3c92600080a2565b60008060019054906101000a900460ff16159050808015610c775750600160008054906101000a900460ff1660ff16105b80610ca45750610c8630611a41565b158015610ca35750600160008054906101000a900460ff1660ff16145b5b610ce3576040517f08c379a0000000000000000000000000000000000000000000000000000000008152600401610cda90613545565b60405180910390fd5b60016000806101000a81548160ff021916908360ff1602179055508015610d20576001600060016101000a81548160ff0219169083151502179055505b610d2933611a64565b84609960006101000a81548173ffffffffffffffffffffffffffffffffffffffff021916908373ffffffffffffffffffffffffffffffffffffffff16021790555083609a60006101000a81548173ffffffffffffffffffffffffffffffffffffffff021916908373ffffffffffffffffffffffffffffffffffffffff16021790555082609860006101000a81548173ffffffffffffffffffffffffffffffffffffffff021916908373ffffffffffffffffffffffffffffffffffffffff16021790555081609b9081610dfb91906136fc565b508015610e555760008060016101000a81548160ff0219169083151502179055507f7f26b83ff96e1f2b6a682f133852f6798a09c465da95921460cefb38474024986001604051610e4c9190613816565b60405180910390a15b5050505050565b610e646112c0565b610e6e6000611aa0565b565b609760009054906101000a900473ffffffffffffffffffffffffffffffffffffffff1681565b6000638b78c6d81954905090565b60606040518060400160405280600881526020017f737570706c696573000000000000000000000000000000000000000000000000815250905090565b609760009054906101000a900473ffffffffffffffffffffffffffffffffffffffff1673ffffffffffffffffffffffffffffffffffffffff168273ffffffffffffffffffffffffffffffffffffffff1614610f68576040517fea8e4eb500000000000000000000000000000000000000000000000000000000815260040160405180910390fd5b610f728282611ade565b5050565b60006202a300905090565b609960009054906101000a900473ffffffffffffffffffffffffffffffffffffffff1681565b609860009054906101000a900473ffffffffffffffffffffffffffffffffffffffff1681565b6000606660008473ffffffffffffffffffffffffffffffffffffffff1673ffffffffffffffffffffffffffffffffffffffff16815260200190815260200160002060008373ffffffffffffffffffffffffffffffffffffffff1673ffffffffffffffffffffffffffffffffffffffff16815260200190815260200160002060009054906101000a900460ff16905092915050565b6110696112c0565b63389a75e1600c52806000526020600c20805442111561109157636f5e88186000526004601cfd5b600081555061109f81611aa0565b50565b6110aa6112dd565b73ffffffffffffffffffffffffffffffffffffffff168573ffffffffffffffffffffffffffffffffffffffff1614806110f057506110ef856110ea6112dd565b610fcd565b5b61112f576040517f08c379a000000000000000000000000000000000000000000000000000000000815260040161112690613329565b60405180910390fd5b61113c8585858585611af4565b5050505050565b61114b6112c0565b8060601b61116157637448fbae6000526004601cfd5b61116a81611aa0565b50565b600063389a75e1600c52816000526020600c20549050919050565b60007f01ffc9a7000000000000000000000000000000000000000000000000000000007bffffffffffffffffffffffffffffffffffffffffffffffffffffffff1916827bffffffffffffffffffffffffffffffffffffffffffffffffffffffff1916149050919050565b60606000600161120184611d92565b01905060008167ffffffffffffffff8111156112205761121f6127e1565b5b6040519080825280601f01601f1916602001820160405280156112525781602001600182028036833780820191505090505b509050600082602001820190505b6001156112b5578080600190039150507f3031323334353637383961626364656600000000000000000000000000000000600a86061a8153600a85816112a9576112a8613831565b5b04945060008503611260575b819350505050919050565b638b78c6d8195433146112db576382b429006000526004601cfd5b565b600033905090565b8151835114611329576040517f08c379a0000000000000000000000000000000000000000000000000000000008152600401611320906138d2565b60405180910390fd5b600073ffffffffffffffffffffffffffffffffffffffff168473ffffffffffffffffffffffffffffffffffffffff1603611398576040517f08c379a000000000000000000000000000000000000000000000000000000000815260040161138f90613964565b60405180910390fd5b60006113a26112dd565b90506113b2818787878787611ee5565b60005b84518110156115665760008582815181106113d3576113d2613349565b5b6020026020010151905060008583815181106113f2576113f1613349565b5b6020026020010151905060006065600084815260200190815260200160002060008b73ffffffffffffffffffffffffffffffffffffffff1673ffffffffffffffffffffffffffffffffffffffff16815260200190815260200160002054905081811015611494576040517f08c379a000000000000000000000000000000000000000000000000000000000815260040161148b906139f6565b60405180910390fd5b8181036065600085815260200190815260200160002060008c73ffffffffffffffffffffffffffffffffffffffff1673ffffffffffffffffffffffffffffffffffffffff16815260200190815260200160002081905550816065600085815260200190815260200160002060008b73ffffffffffffffffffffffffffffffffffffffff1673ffffffffffffffffffffffffffffffffffffffff168152602001908152602001600020600082825461154b9190613a16565b925050819055505050508061155f906133f9565b90506113b5565b508473ffffffffffffffffffffffffffffffffffffffff168673ffffffffffffffffffffffffffffffffffffffff168273ffffffffffffffffffffffffffffffffffffffff167f4a39dc06d4c0dbc64b70af90fd698a233a518aa5d07e595d983b8c0526c8f7fb87876040516115dd929190613a4a565b60405180910390a46115f3818787878787611eed565b611601818787878787611ef5565b505050505050565b60006370a08231600052306020526020603a6024601c865afa601f3d1116611639576390b8ec186000526004601cfd5b81601a52603a51905069a9059cbb00000000000060005260206000604460166000875af13d156001600051141716611679576390b8ec186000526004601cfd5b6000603a5292915050565b6000600281111561169857611697613a81565b5b8260028111156116ab576116aa613a81565b5b036116f2576116f1609a60009054906101000a900473ffffffffffffffffffffffffffffffffffffffff16333084678ac7230489e800006116ec9190613ab0565b6120cc565b5b6001600281111561170657611705613a81565b5b82600281111561171957611718613a81565b5b036117c257609960009054906101000a900473ffffffffffffffffffffffffffffffffffffffff1673ffffffffffffffffffffffffffffffffffffffff16639dc29fac3383683635c9adc5dea000006117729190613ab0565b6040518363ffffffff1660e01b815260040161178f929190613af2565b600060405180830381600087803b1580156117a957600080fd5b505af11580156117bd573d6000803e3d6000fd5b505050505b6002808111156117d5576117d4613a81565b5b8260028111156117e8576117e7613a81565b5b0361188c57609860009054906101000a900473ffffffffffffffffffffffffffffffffffffffff1673ffffffffffffffffffffffffffffffffffffffff1663f5298aca33600184600561183b9190613ab0565b6040518463ffffffff1660e01b815260040161185993929190613b4c565b600060405180830381600087803b15801561187357600080fd5b505af1158015611887573d6000803e3d6000fd5b505050505b5050565b600073ffffffffffffffffffffffffffffffffffffffff168473ffffffffffffffffffffffffffffffffffffffff16036118ff576040517f08c379a00000000000000000000000000000000000000000000000000000000081526004016118f690613bf5565b60405180910390fd5b60006119096112dd565b905060006119168561211c565b905060006119238561211c565b905061193483600089858589611ee5565b846065600088815260200190815260200160002060008973ffffffffffffffffffffffffffffffffffffffff1673ffffffffffffffffffffffffffffffffffffffff16815260200190815260200160002060008282546119949190613a16565b925050819055508673ffffffffffffffffffffffffffffffffffffffff16600073ffffffffffffffffffffffffffffffffffffffff168473ffffffffffffffffffffffffffffffffffffffff167fc3d58168c5ae7397731d063d5bbf3d657854427343f4c083240f7aacaa2d0f628989604051611a12929190613c15565b60405180910390a4611a2983600089858589611eed565b611a3883600089898989612196565b50505050505050565b6000808273ffffffffffffffffffffffffffffffffffffffff163b119050919050565b8060601b60601c905080638b78c6d819558060007f8be0079c531659141344cd1fd0a4f28419497f9722a3daafe3b4186f6b6457e0600080a350565b638b78c6d8198160601b60601c91508181547f8be0079c531659141344cd1fd0a4f28419497f9722a3daafe3b4186f6b6457e0600080a38181555050565b611af0611ae96112dd565b838361236d565b5050565b600073ffffffffffffffffffffffffffffffffffffffff168473ffffffffffffffffffffffffffffffffffffffff1603611b63576040517f08c379a0000000000000000000000000000000000000000000000000000000008152600401611b5a90613964565b60405180910390fd5b6000611b6d6112dd565b90506000611b7a8561211c565b90506000611b878561211c565b9050611b97838989858589611ee5565b60006065600088815260200190815260200160002060008a73ffffffffffffffffffffffffffffffffffffffff1673ffffffffffffffffffffffffffffffffffffffff16815260200190815260200160002054905085811015611c2f576040517f08c379a0000000000000000000000000000000000000000000000000000000008152600401611c26906139f6565b60405180910390fd5b8581036065600089815260200190815260200160002060008b73ffffffffffffffffffffffffffffffffffffffff1673ffffffffffffffffffffffffffffffffffffffff16815260200190815260200160002081905550856065600089815260200190815260200160002060008a73ffffffffffffffffffffffffffffffffffffffff1673ffffffffffffffffffffffffffffffffffffffff1681526020019081526020016000206000828254611ce69190613a16565b925050819055508773ffffffffffffffffffffffffffffffffffffffff168973ffffffffffffffffffffffffffffffffffffffff168573ffffffffffffffffffffffffffffffffffffffff167fc3d58168c5ae7397731d063d5bbf3d657854427343f4c083240f7aacaa2d0f628a8a604051611d63929190613c15565b60405180910390a4611d79848a8a86868a611eed565b611d87848a8a8a8a8a612196565b505050505050505050565b600080600090507a184f03e93ff9f4daa797ed6e38ed64bf6a1f0100000000000000008310611df0577a184f03e93ff9f4daa797ed6e38ed64bf6a1f0100000000000000008381611de657611de5613831565b5b0492506040810190505b6d04ee2d6d415b85acef81000000008310611e2d576d04ee2d6d415b85acef81000000008381611e2357611e22613831565b5b0492506020810190505b662386f26fc100008310611e5c57662386f26fc100008381611e5257611e51613831565b5b0492506010810190505b6305f5e1008310611e85576305f5e1008381611e7b57611e7a613831565b5b0492506008810190505b6127108310611eaa576127108381611ea057611e9f613831565b5b0492506004810190505b60648310611ecd5760648381611ec357611ec2613831565b5b0492506002810190505b600a8310611edc576001810190505b80915050919050565b505050505050565b505050505050565b611f148473ffffffffffffffffffffffffffffffffffffffff16611a41565b156120c4578373ffffffffffffffffffffffffffffffffffffffff1663bc197c8187878686866040518663ffffffff1660e01b8152600401611f5a959493929190613c93565b6020604051808303816000875af1925050508015611f9657506040513d601f19601f82011682018060405250810190611f939190613d10565b60015b61203b57611fa2613d4a565b806308c379a003611ffe5750611fb6613d6c565b80611fc15750612000565b806040517f08c379a0000000000000000000000000000000000000000000000000000000008152600401611ff59190612736565b60405180910390fd5b505b6040517f08c379a000000000000000000000000000000000000000000000000000000000815260040161203290613e6e565b60405180910390fd5b63bc197c8160e01b7bffffffffffffffffffffffffffffffffffffffffffffffffffffffff1916817bffffffffffffffffffffffffffffffffffffffffffffffffffffffff1916146120c2576040517f08c379a00000000000000000000000000000000000000000000000000000000081526004016120b990613f00565b60405180910390fd5b505b505050505050565b6040516323b872dd600052836020528260405281606052602060006064601c6000895af13d15600160005114171661210c57637939f4246000526004601cfd5b6000606052806040525050505050565b60606000600167ffffffffffffffff81111561213b5761213a6127e1565b5b6040519080825280602002602001820160405280156121695781602001602082028036833780820191505090505b509050828160008151811061218157612180613349565b5b60200260200101818152505080915050919050565b6121b58473ffffffffffffffffffffffffffffffffffffffff16611a41565b15612365578373ffffffffffffffffffffffffffffffffffffffff1663f23a6e6187878686866040518663ffffffff1660e01b81526004016121fb959493929190613f20565b6020604051808303816000875af192505050801561223757506040513d601f19601f820116820180604052508101906122349190613d10565b60015b6122dc57612243613d4a565b806308c379a00361229f5750612257613d6c565b8061226257506122a1565b806040517f08c379a00000000000000000000000000000000000000000000000000000000081526004016122969190612736565b60405180910390fd5b505b6040517f08c379a00000000000000000000000000000000000000000000000000000000081526004016122d390613e6e565b60405180910390fd5b63f23a6e6160e01b7bffffffffffffffffffffffffffffffffffffffffffffffffffffffff1916817bffffffffffffffffffffffffffffffffffffffffffffffffffffffff191614612363576040517f08c379a000000000000000000000000000000000000000000000000000000000815260040161235a90613f00565b60405180910390fd5b505b505050505050565b8173ffffffffffffffffffffffffffffffffffffffff168373ffffffffffffffffffffffffffffffffffffffff16036123db576040517f08c379a00000000000000000000000000000000000000000000000000000000081526004016123d290613fec565b60405180910390fd5b80606660008573ffffffffffffffffffffffffffffffffffffffff1673ffffffffffffffffffffffffffffffffffffffff16815260200190815260200160002060008473ffffffffffffffffffffffffffffffffffffffff1673ffffffffffffffffffffffffffffffffffffffff16815260200190815260200160002060006101000a81548160ff0219169083151502179055508173ffffffffffffffffffffffffffffffffffffffff168373ffffffffffffffffffffffffffffffffffffffff167f17307eab39ab6107e8899845ad3d59bd9653f200f220920489ca2b5937696c31836040516124cc919061268b565b60405180910390a3505050565b6000604051905090565b600080fd5b600080fd5b600073ffffffffffffffffffffffffffffffffffffffff82169050919050565b6000612518826124ed565b9050919050565b6125288161250d565b811461253357600080fd5b50565b6000813590506125458161251f565b92915050565b6000819050919050565b61255e8161254b565b811461256957600080fd5b50565b60008135905061257b81612555565b92915050565b60008060408385031215612598576125976124e3565b5b60006125a685828601612536565b92505060206125b78582860161256c565b9150509250929050565b6125ca8161254b565b82525050565b60006020820190506125e560008301846125c1565b92915050565b60007fffffffff0000000000000000000000000000000000000000000000000000000082169050919050565b612620816125eb565b811461262b57600080fd5b50565b60008135905061263d81612617565b92915050565b600060208284031215612659576126586124e3565b5b60006126678482850161262e565b91505092915050565b60008115159050919050565b61268581612670565b82525050565b60006020820190506126a0600083018461267c565b92915050565b600081519050919050565b600082825260208201905092915050565b60005b838110156126e05780820151818401526020810190506126c5565b60008484015250505050565b6000601f19601f8301169050919050565b6000612708826126a6565b61271281856126b1565b93506127228185602086016126c2565b61272b816126ec565b840191505092915050565b6000602082019050818103600083015261275081846126fd565b905092915050565b6127618161250d565b82525050565b600060208201905061277c6000830184612758565b92915050565b600060208284031215612798576127976124e3565b5b60006127a68482850161256c565b91505092915050565b6000602082840312156127c5576127c46124e3565b5b60006127d384828501612536565b91505092915050565b600080fd5b7f4e487b7100000000000000000000000000000000000000000000000000000000600052604160045260246000fd5b612819826126ec565b810181811067ffffffffffffffff82111715612838576128376127e1565b5b80604052505050565b600061284b6124d9565b90506128578282612810565b919050565b600067ffffffffffffffff821115612877576128766127e1565b5b602082029050602081019050919050565b600080fd5b60006128a061289b8461285c565b612841565b905080838252602082019050602084028301858111156128c3576128c2612888565b5b835b818110156128ec57806128d8888261256c565b8452602084019350506020810190506128c5565b5050509392505050565b600082601f83011261290b5761290a6127dc565b5b813561291b84826020860161288d565b91505092915050565b600080fd5b600067ffffffffffffffff821115612944576129436127e1565b5b61294d826126ec565b9050602081019050919050565b82818337600083830152505050565b600061297c61297784612929565b612841565b90508281526020810184848401111561299857612997612924565b5b6129a384828561295a565b509392505050565b600082601f8301126129c0576129bf6127dc565b5b81356129d0848260208601612969565b91505092915050565b600080600080600060a086880312156129f5576129f46124e3565b5b6000612a0388828901612536565b9550506020612a1488828901612536565b945050604086013567ffffffffffffffff811115612a3557612a346124e8565b5b612a41888289016128f6565b935050606086013567ffffffffffffffff811115612a6257612a616124e8565b5b612a6e888289016128f6565b925050608086013567ffffffffffffffff811115612a8f57612a8e6124e8565b5b612a9b888289016129ab565b9150509295509295909350565b600080fd5b60008083601f840112612ac357612ac26127dc565b5b8235905067ffffffffffffffff811115612ae057612adf612aa8565b5b602083019150836020820283011115612afc57612afb612888565b5b9250929050565b60008083601f840112612b1957612b186127dc565b5b8235905067ffffffffffffffff811115612b3657612b35612aa8565b5b602083019150836020820283011115612b5257612b51612888565b5b9250929050565b60008060008060008060608789031215612b7657612b756124e3565b5b600087013567ffffffffffffffff811115612b9457612b936124e8565b5b612ba089828a01612aad565b9650965050602087013567ffffffffffffffff811115612bc357612bc26124e8565b5b612bcf89828a01612aad565b9450945050604087013567ffffffffffffffff811115612bf257612bf16124e8565b5b612bfe89828a01612b03565b92509250509295509295509295565b600067ffffffffffffffff821115612c2857612c276127e1565b5b602082029050602081019050919050565b6000612c4c612c4784612c0d565b612841565b90508083825260208201905060208402830185811115612c6f57612c6e612888565b5b835b81811015612c985780612c848882612536565b845260208401935050602081019050612c71565b5050509392505050565b600082601f830112612cb757612cb66127dc565b5b8135612cc7848260208601612c39565b91505092915050565b60008060408385031215612ce757612ce66124e3565b5b600083013567ffffffffffffffff811115612d0557612d046124e8565b5b612d1185828601612ca2565b925050602083013567ffffffffffffffff811115612d3257612d316124e8565b5b612d3e858286016128f6565b9150509250929050565b600081519050919050565b600082825260208201905092915050565b6000819050602082019050919050565b612d7d8161254b565b82525050565b6000612d8f8383612d74565b60208301905092915050565b6000602082019050919050565b6000612db382612d48565b612dbd8185612d53565b9350612dc883612d64565b8060005b83811015612df9578151612de08882612d83565b9750612deb83612d9b565b925050600181019050612dcc565b5085935050505092915050565b60006020820190508181036000830152612e208184612da8565b905092915050565b600067ffffffffffffffff821115612e4357612e426127e1565b5b612e4c826126ec565b9050602081019050919050565b6000612e6c612e6784612e28565b612841565b905082815260208101848484011115612e8857612e87612924565b5b612e9384828561295a565b509392505050565b600082601f830112612eb057612eaf6127dc565b5b8135612ec0848260208601612e59565b91505092915050565b60008060008060808587031215612ee357612ee26124e3565b5b6000612ef187828801612536565b9450506020612f0287828801612536565b9350506040612f1387828801612536565b925050606085013567ffffffffffffffff811115612f3457612f336124e8565b5b612f4087828801612e9b565b91505092959194509250565b612f5581612670565b8114612f6057600080fd5b50565b600081359050612f7281612f4c565b92915050565b60008060408385031215612f8f57612f8e6124e3565b5b6000612f9d85828601612536565b9250506020612fae85828601612f63565b9150509250929050565b600067ffffffffffffffff82169050919050565b612fd581612fb8565b82525050565b6000602082019050612ff06000830184612fcc565b92915050565b6000806040838503121561300d5761300c6124e3565b5b600061301b85828601612536565b925050602061302c85828601612536565b9150509250929050565b600080600080600060a08688031215613052576130516124e3565b5b600061306088828901612536565b955050602061307188828901612536565b94505060406130828882890161256c565b93505060606130938882890161256c565b925050608086013567ffffffffffffffff8111156130b4576130b36124e8565b5b6130c0888289016129ab565b9150509295509295909350565b7f455243313135353a2061646472657373207a65726f206973206e6f742061207660008201527f616c6964206f776e657200000000000000000000000000000000000000000000602082015250565b6000613129602a836126b1565b9150613134826130cd565b604082019050919050565b600060208201905081810360008301526131588161311c565b9050919050565b7f4e487b7100000000000000000000000000000000000000000000000000000000600052602260045260246000fd5b600060028204905060018216806131a657607f821691505b6020821081036131b9576131b861315f565b5b50919050565b600081905092915050565b60008190508160005260206000209050919050565b600081546131ec8161318e565b6131f681866131bf565b94506001821660008114613211576001811461322657613259565b60ff1983168652811515820286019350613259565b61322f856131ca565b60005b8381101561325157815481890152600182019150602081019050613232565b838801955050505b50505092915050565b600061326d826126a6565b61327781856131bf565b93506132878185602086016126c2565b80840191505092915050565b600061329f82856131df565b91506132ab8284613262565b91508190509392505050565b7f455243313135353a2063616c6c6572206973206e6f7420746f6b656e206f776e60008201527f6572206f7220617070726f766564000000000000000000000000000000000000602082015250565b6000613313602e836126b1565b915061331e826132b7565b604082019050919050565b6000602082019050818103600083015261334281613306565b9050919050565b7f4e487b7100000000000000000000000000000000000000000000000000000000600052603260045260246000fd5b6003811061338557600080fd5b50565b60008135905061339781613378565b92915050565b6000602082840312156133b3576133b26124e3565b5b60006133c184828501613388565b91505092915050565b7f4e487b7100000000000000000000000000000000000000000000000000000000600052601160045260246000fd5b60006134048261254b565b91507fffffffffffffffffffffffffffffffffffffffffffffffffffffffffffffffff8203613436576134356133ca565b5b600182019050919050565b7f455243313135353a206163636f756e747320616e6420696473206c656e67746860008201527f206d69736d617463680000000000000000000000000000000000000000000000602082015250565b600061349d6029836126b1565b91506134a882613441565b604082019050919050565b600060208201905081810360008301526134cc81613490565b9050919050565b7f496e697469616c697a61626c653a20636f6e747261637420697320616c72656160008201527f647920696e697469616c697a6564000000000000000000000000000000000000602082015250565b600061352f602e836126b1565b915061353a826134d3565b604082019050919050565b6000602082019050818103600083015261355e81613522565b9050919050565b60006020601f8301049050919050565b600082821b905092915050565b6000600883026135b27fffffffffffffffffffffffffffffffffffffffffffffffffffffffffffffffff82613575565b6135bc8683613575565b95508019841693508086168417925050509392505050565b6000819050919050565b60006135f96135f46135ef8461254b565b6135d4565b61254b565b9050919050565b6000819050919050565b613613836135de565b61362761361f82613600565b848454613582565b825550505050565b600090565b61363c61362f565b61364781848461360a565b505050565b5b8181101561366b57613660600082613634565b60018101905061364d565b5050565b601f8211156136b057613681816131ca565b61368a84613565565b81016020851015613699578190505b6136ad6136a585613565565b83018261364c565b50505b505050565b600082821c905092915050565b60006136d3600019846008026136b5565b1980831691505092915050565b60006136ec83836136c2565b9150826002028217905092915050565b613705826126a6565b67ffffffffffffffff81111561371e5761371d6127e1565b5b613728825461318e565b61373382828561366f565b600060209050601f8311600181146137665760008415613754578287015190505b61375e85826136e0565b8655506137c6565b601f198416613774866131ca565b60005b8281101561379c57848901518255600182019150602085019450602081019050613777565b868310156137b957848901516137b5601f8916826136c2565b8355505b6001600288020188555050505b505050505050565b6000819050919050565b600060ff82169050919050565b60006138006137fb6137f6846137ce565b6135d4565b6137d8565b9050919050565b613810816137e5565b82525050565b600060208201905061382b6000830184613807565b92915050565b7f4e487b7100000000000000000000000000000000000000000000000000000000600052601260045260246000fd5b7f455243313135353a2069647320616e6420616d6f756e7473206c656e6774682060008201527f6d69736d61746368000000000000000000000000000000000000000000000000602082015250565b60006138bc6028836126b1565b91506138c782613860565b604082019050919050565b600060208201905081810360008301526138eb816138af565b9050919050565b7f455243313135353a207472616e7366657220746f20746865207a65726f20616460008201527f6472657373000000000000000000000000000000000000000000000000000000602082015250565b600061394e6025836126b1565b9150613959826138f2565b604082019050919050565b6000602082019050818103600083015261397d81613941565b9050919050565b7f455243313135353a20696e73756666696369656e742062616c616e636520666f60008201527f72207472616e7366657200000000000000000000000000000000000000000000602082015250565b60006139e0602a836126b1565b91506139eb82613984565b604082019050919050565b60006020820190508181036000830152613a0f816139d3565b9050919050565b6000613a218261254b565b9150613a2c8361254b565b9250828201905080821115613a4457613a436133ca565b5b92915050565b60006040820190508181036000830152613a648185612da8565b90508181036020830152613a788184612da8565b90509392505050565b7f4e487b7100000000000000000000000000000000000000000000000000000000600052602160045260246000fd5b6000613abb8261254b565b9150613ac68361254b565b9250828202613ad48161254b565b91508282048414831517613aeb57613aea6133ca565b5b5092915050565b6000604082019050613b076000830185612758565b613b1460208301846125c1565b9392505050565b6000613b36613b31613b2c846137ce565b6135d4565b61254b565b9050919050565b613b4681613b1b565b82525050565b6000606082019050613b616000830186612758565b613b6e6020830185613b3d565b613b7b60408301846125c1565b949350505050565b7f455243313135353a206d696e7420746f20746865207a65726f2061646472657360008201527f7300000000000000000000000000000000000000000000000000000000000000602082015250565b6000613bdf6021836126b1565b9150613bea82613b83565b604082019050919050565b60006020820190508181036000830152613c0e81613bd2565b9050919050565b6000604082019050613c2a60008301856125c1565b613c3760208301846125c1565b9392505050565b600081519050919050565b600082825260208201905092915050565b6000613c6582613c3e565b613c6f8185613c49565b9350613c7f8185602086016126c2565b613c88816126ec565b840191505092915050565b600060a082019050613ca86000830188612758565b613cb56020830187612758565b8181036040830152613cc78186612da8565b90508181036060830152613cdb8185612da8565b90508181036080830152613cef8184613c5a565b90509695505050505050565b600081519050613d0a81612617565b92915050565b600060208284031215613d2657613d256124e3565b5b6000613d3484828501613cfb565b91505092915050565b60008160e01c9050919050565b600060033d1115613d695760046000803e613d66600051613d3d565b90505b90565b600060443d10613df957613d7e6124d9565b60043d036004823e80513d602482011167ffffffffffffffff82111715613da6575050613df9565b808201805167ffffffffffffffff811115613dc45750505050613df9565b80602083010160043d038501811115613de1575050505050613df9565b613df082602001850186612810565b82955050505050505b90565b7f455243313135353a207472616e7366657220746f206e6f6e2d4552433131353560008201527f526563656976657220696d706c656d656e746572000000000000000000000000602082015250565b6000613e586034836126b1565b9150613e6382613dfc565b604082019050919050565b60006020820190508181036000830152613e8781613e4b565b9050919050565b7f455243313135353a204552433131353552656365697665722072656a6563746560008201527f6420746f6b656e73000000000000000000000000000000000000000000000000602082015250565b6000613eea6028836126b1565b9150613ef582613e8e565b604082019050919050565b60006020820190508181036000830152613f1981613edd565b9050919050565b600060a082019050613f356000830188612758565b613f426020830187612758565b613f4f60408301866125c1565b613f5c60608301856125c1565b8181036080830152613f6e8184613c5a565b90509695505050505050565b7f455243313135353a2073657474696e6720617070726f76616c2073746174757360008201527f20666f722073656c660000000000000000000000000000000000000000000000602082015250565b6000613fd66029836126b1565b9150613fe182613f7a565b604082019050919050565b6000602082019050818103600083015261400581613fc9565b905091905056fea2646970667358221220d4bd1e3243989176e31b06d20ae25fc0c72f39da931cc3624471ff937b051cb464736f6c63430008120033",
  "devdoc": {
    "errors": {
      "NewOwnerIsZeroAddress()": [
        {
          "details": "The `newOwner` cannot be the zero address."
        }
      ],
      "NoHandoverRequest()": [
        {
          "details": "The `pendingOwner` does not have a valid handover request."
        }
      ],
      "Unauthorized()": [
        {
          "details": "The caller is not authorized to call the function."
        }
      ]
    },
    "events": {
      "ApprovalForAll(address,address,bool)": {
        "details": "Emitted when `account` grants or revokes permission to `operator` to transfer their tokens, according to `approved`."
      },
      "Initialized(uint8)": {
        "details": "Triggered when the contract has been initialized or reinitialized."
      },
      "OwnershipHandoverCanceled(address)": {
        "details": "The ownership handover to `pendingOwner` has been canceled."
      },
      "OwnershipHandoverRequested(address)": {
        "details": "An ownership handover to `pendingOwner` has been requested."
      },
      "OwnershipTransferred(address,address)": {
        "details": "The ownership is transferred from `oldOwner` to `newOwner`. This event is intentionally kept the same as OpenZeppelin's Ownable to be compatible with indexers and [EIP-173](https://eips.ethereum.org/EIPS/eip-173), despite it not being as lightweight as a single argument event."
      },
      "TransferBatch(address,address,address,uint256[],uint256[])": {
        "details": "Equivalent to multiple {TransferSingle} events, where `operator`, `from` and `to` are the same for all transfers."
      },
      "TransferSingle(address,address,address,uint256,uint256)": {
        "details": "Emitted when `value` tokens of token type `id` are transferred from `from` to `to` by `operator`."
      },
      "URI(string,uint256)": {
        "details": "Emitted when the URI for token type `id` changes to `value`, if it is a non-programmatic URI. If an {URI} event was emitted for `id`, the standard https://eips.ethereum.org/EIPS/eip-1155#metadata-extensions[guarantees] that `value` will equal the value returned by {IERC1155MetadataURI-uri}."
      }
    },
    "kind": "dev",
    "methods": {
      "balanceOf(address,uint256)": {
        "details": "See {IERC1155-balanceOf}. Requirements: - `account` cannot be the zero address."
      },
      "balanceOfBatch(address[],uint256[])": {
        "details": "See {IERC1155-balanceOfBatch}. Requirements: - `accounts` and `ids` must have the same length."
      },
      "cancelOwnershipHandover()": {
        "details": "Cancels the two-step ownership handover to the caller, if any."
      },
      "completeOwnershipHandover(address)": {
        "details": "Allows the owner to complete the two-step ownership handover to `pendingOwner`. Reverts if there is no existing ownership handover requested by `pendingOwner`."
      },
      "isApprovedForAll(address,address)": {
        "details": "See {IERC1155-isApprovedForAll}."
      },
      "owner()": {
        "details": "Returns the owner of the contract."
      },
      "ownershipHandoverExpiresAt(address)": {
        "details": "Returns the expiry timestamp for the two-step ownership handover to `pendingOwner`."
      },
      "ownershipHandoverValidFor()": {
        "details": "Returns how long a two-step ownership handover is valid for in seconds."
      },
      "renounceOwnership()": {
        "details": "Allows the owner to renounce their ownership."
      },
      "requestOwnershipHandover()": {
        "details": "Request a two-step ownership handover to the caller. The request will be automatically expire in 48 hours (172800 seconds) by default."
      },
      "safeBatchTransferFrom(address,address,uint256[],uint256[],bytes)": {
        "details": "See {IERC1155-safeBatchTransferFrom}."
      },
      "safeTransferFrom(address,address,uint256,uint256,bytes)": {
        "details": "See {IERC1155-safeTransferFrom}."
      },
      "setApprovalForAll(address,bool)": {
        "details": "See {IERC1155-setApprovalForAll}."
      },
      "supportsInterface(bytes4)": {
        "details": "See {IERC165-supportsInterface}."
      },
      "transferOwnership(address)": {
        "details": "Allows the owner to transfer the ownership to `newOwner`."
      }
    },
    "version": 1
  },
  "userdoc": {
    "kind": "user",
    "methods": {
      "mint(uint256[],uint256[],uint8[])": {
        "notice": "this token can no be sold on the secondary market only mint it and used for job"
      }
    },
    "version": 1
  },
  "storageLayout": {
    "storage": [
      {
        "astId": 415,
        "contract": "contracts/Supplies.sol:Supplies",
        "label": "_initialized",
        "offset": 0,
        "slot": "0",
        "type": "t_uint8"
      },
      {
        "astId": 418,
        "contract": "contracts/Supplies.sol:Supplies",
        "label": "_initializing",
        "offset": 1,
        "slot": "0",
        "type": "t_bool"
      },
      {
        "astId": 4665,
        "contract": "contracts/Supplies.sol:Supplies",
        "label": "__gap",
        "offset": 0,
        "slot": "1",
        "type": "t_array(t_uint256)50_storage"
      },
      {
        "astId": 5460,
        "contract": "contracts/Supplies.sol:Supplies",
        "label": "__gap",
        "offset": 0,
        "slot": "51",
        "type": "t_array(t_uint256)50_storage"
      },
      {
        "astId": 606,
        "contract": "contracts/Supplies.sol:Supplies",
        "label": "_balances",
        "offset": 0,
        "slot": "101",
        "type": "t_mapping(t_uint256,t_mapping(t_address,t_uint256))"
      },
      {
        "astId": 612,
        "contract": "contracts/Supplies.sol:Supplies",
        "label": "_operatorApprovals",
        "offset": 0,
        "slot": "102",
        "type": "t_mapping(t_address,t_mapping(t_address,t_bool))"
      },
      {
        "astId": 614,
        "contract": "contracts/Supplies.sol:Supplies",
        "label": "_uri",
        "offset": 0,
        "slot": "103",
        "type": "t_string_storage"
      },
      {
        "astId": 1821,
        "contract": "contracts/Supplies.sol:Supplies",
        "label": "__gap",
        "offset": 0,
        "slot": "104",
        "type": "t_array(t_uint256)47_storage"
      },
      {
        "astId": 10563,
        "contract": "contracts/Supplies.sol:Supplies",
        "label": "laborGround",
        "offset": 0,
        "slot": "151",
        "type": "t_address"
      },
      {
        "astId": 10565,
        "contract": "contracts/Supplies.sol:Supplies",
        "label": "treasure",
        "offset": 0,
        "slot": "152",
        "type": "t_address"
      },
      {
        "astId": 10567,
        "contract": "contracts/Supplies.sol:Supplies",
        "label": "bones",
        "offset": 0,
        "slot": "153",
        "type": "t_address"
      },
      {
        "astId": 10569,
        "contract": "contracts/Supplies.sol:Supplies",
        "label": "magic",
        "offset": 0,
        "slot": "154",
        "type": "t_address"
      },
      {
        "astId": 10589,
        "contract": "contracts/Supplies.sol:Supplies",
        "label": "baseUri",
        "offset": 0,
        "slot": "155",
        "type": "t_string_storage"
      }
    ],
    "types": {
      "t_address": {
        "encoding": "inplace",
        "label": "address",
        "numberOfBytes": "20"
      },
      "t_array(t_uint256)47_storage": {
        "base": "t_uint256",
        "encoding": "inplace",
        "label": "uint256[47]",
        "numberOfBytes": "1504"
      },
      "t_array(t_uint256)50_storage": {
        "base": "t_uint256",
        "encoding": "inplace",
        "label": "uint256[50]",
        "numberOfBytes": "1600"
      },
      "t_bool": {
        "encoding": "inplace",
        "label": "bool",
        "numberOfBytes": "1"
      },
      "t_mapping(t_address,t_bool)": {
        "encoding": "mapping",
        "key": "t_address",
        "label": "mapping(address => bool)",
        "numberOfBytes": "32",
        "value": "t_bool"
      },
      "t_mapping(t_address,t_mapping(t_address,t_bool))": {
        "encoding": "mapping",
        "key": "t_address",
        "label": "mapping(address => mapping(address => bool))",
        "numberOfBytes": "32",
        "value": "t_mapping(t_address,t_bool)"
      },
      "t_mapping(t_address,t_uint256)": {
        "encoding": "mapping",
        "key": "t_address",
        "label": "mapping(address => uint256)",
        "numberOfBytes": "32",
        "value": "t_uint256"
      },
      "t_mapping(t_uint256,t_mapping(t_address,t_uint256))": {
        "encoding": "mapping",
        "key": "t_uint256",
        "label": "mapping(uint256 => mapping(address => uint256))",
        "numberOfBytes": "32",
        "value": "t_mapping(t_address,t_uint256)"
      },
      "t_string_storage": {
        "encoding": "bytes",
        "label": "string",
        "numberOfBytes": "32"
      },
      "t_uint256": {
        "encoding": "inplace",
        "label": "uint256",
        "numberOfBytes": "32"
      },
      "t_uint8": {
        "encoding": "inplace",
        "label": "uint8",
        "numberOfBytes": "1"
      }
    }
  }
}