{
  "address": "0x2486DA68dD9fa0cCC6C44D4dFD647080f477949F",
  "abi": [
    {
      "inputs": [],
      "name": "InvalidTokenId",
      "type": "error"
    },
    {
      "inputs": [],
      "name": "LengthsNotEqual",
      "type": "error"
    },
    {
      "inputs": [],
      "name": "NewOwnerIsZeroAddress",
      "type": "error"
    },
    {
      "inputs": [],
      "name": "NoHandoverRequest",
      "type": "error"
    },
    {
      "inputs": [],
      "name": "NotAuthorized",
      "type": "error"
    },
    {
      "inputs": [],
      "name": "Unauthorized",
      "type": "error"
    },
    {
      "anonymous": false,
      "inputs": [
        {
          "indexed": true,
          "internalType": "address",
          "name": "account",
          "type": "address"
        },
        {
          "indexed": true,
          "internalType": "address",
          "name": "operator",
          "type": "address"
        },
        {
          "indexed": false,
          "internalType": "bool",
          "name": "approved",
          "type": "bool"
        }
      ],
      "name": "ApprovalForAll",
      "type": "event"
    },
    {
      "anonymous": false,
      "inputs": [
        {
          "indexed": false,
          "internalType": "uint8",
          "name": "version",
          "type": "uint8"
        }
      ],
      "name": "Initialized",
      "type": "event"
    },
    {
      "anonymous": false,
      "inputs": [
        {
          "indexed": true,
          "internalType": "address",
          "name": "pendingOwner",
          "type": "address"
        }
      ],
      "name": "OwnershipHandoverCanceled",
      "type": "event"
    },
    {
      "anonymous": false,
      "inputs": [
        {
          "indexed": true,
          "internalType": "address",
          "name": "pendingOwner",
          "type": "address"
        }
      ],
      "name": "OwnershipHandoverRequested",
      "type": "event"
    },
    {
      "anonymous": false,
      "inputs": [
        {
          "indexed": true,
          "internalType": "address",
          "name": "oldOwner",
          "type": "address"
        },
        {
          "indexed": true,
          "internalType": "address",
          "name": "newOwner",
          "type": "address"
        }
      ],
      "name": "OwnershipTransferred",
      "type": "event"
    },
    {
      "anonymous": false,
      "inputs": [
        {
          "indexed": true,
          "internalType": "address",
          "name": "operator",
          "type": "address"
        },
        {
          "indexed": true,
          "internalType": "address",
          "name": "from",
          "type": "address"
        },
        {
          "indexed": true,
          "internalType": "address",
          "name": "to",
          "type": "address"
        },
        {
          "indexed": false,
          "internalType": "uint256[]",
          "name": "ids",
          "type": "uint256[]"
        },
        {
          "indexed": false,
          "internalType": "uint256[]",
          "name": "values",
          "type": "uint256[]"
        }
      ],
      "name": "TransferBatch",
      "type": "event"
    },
    {
      "anonymous": false,
      "inputs": [
        {
          "indexed": true,
          "internalType": "address",
          "name": "operator",
          "type": "address"
        },
        {
          "indexed": true,
          "internalType": "address",
          "name": "from",
          "type": "address"
        },
        {
          "indexed": true,
          "internalType": "address",
          "name": "to",
          "type": "address"
        },
        {
          "indexed": false,
          "internalType": "uint256",
          "name": "id",
          "type": "uint256"
        },
        {
          "indexed": false,
          "internalType": "uint256",
          "name": "value",
          "type": "uint256"
        }
      ],
      "name": "TransferSingle",
      "type": "event"
    },
    {
      "anonymous": false,
      "inputs": [
        {
          "indexed": false,
          "internalType": "string",
          "name": "value",
          "type": "string"
        },
        {
          "indexed": true,
          "internalType": "uint256",
          "name": "id",
          "type": "uint256"
        }
      ],
      "name": "URI",
      "type": "event"
    },
    {
      "inputs": [],
      "name": "BONES_PRICE",
      "outputs": [
        {
          "internalType": "uint256",
          "name": "",
          "type": "uint256"
        }
      ],
      "stateMutability": "view",
      "type": "function"
    },
    {
      "inputs": [],
      "name": "MAGIC_PRICE",
      "outputs": [
        {
          "internalType": "uint256",
          "name": "",
          "type": "uint256"
        }
      ],
      "stateMutability": "view",
      "type": "function"
    },
    {
      "inputs": [],
      "name": "TREASURE_MOONROCK_VALUE",
      "outputs": [
        {
          "internalType": "uint256",
          "name": "",
          "type": "uint256"
        }
      ],
      "stateMutability": "view",
      "type": "function"
    },
    {
      "inputs": [
        {
          "internalType": "address",
          "name": "account",
          "type": "address"
        },
        {
          "internalType": "uint256",
          "name": "id",
          "type": "uint256"
        }
      ],
      "name": "balanceOf",
      "outputs": [
        {
          "internalType": "uint256",
          "name": "",
          "type": "uint256"
        }
      ],
      "stateMutability": "view",
      "type": "function"
    },
    {
      "inputs": [
        {
          "internalType": "address[]",
          "name": "accounts",
          "type": "address[]"
        },
        {
          "internalType": "uint256[]",
          "name": "ids",
          "type": "uint256[]"
        }
      ],
      "name": "balanceOfBatch",
      "outputs": [
        {
          "internalType": "uint256[]",
          "name": "",
          "type": "uint256[]"
        }
      ],
      "stateMutability": "view",
      "type": "function"
    },
    {
      "inputs": [],
      "name": "bones",
      "outputs": [
        {
          "internalType": "address",
          "name": "",
          "type": "address"
        }
      ],
      "stateMutability": "view",
      "type": "function"
    },
    {
      "inputs": [
        {
          "internalType": "address",
          "name": "_from",
          "type": "address"
        },
        {
          "internalType": "uint256",
          "name": "_id",
          "type": "uint256"
        },
        {
          "internalType": "uint256",
          "name": "_amount",
          "type": "uint256"
        }
      ],
      "name": "burn",
      "outputs": [],
      "stateMutability": "nonpayable",
      "type": "function"
    },
    {
      "inputs": [],
      "name": "cancelOwnershipHandover",
      "outputs": [],
      "stateMutability": "payable",
      "type": "function"
    },
    {
      "inputs": [
        {
          "internalType": "address",
          "name": "pendingOwner",
          "type": "address"
        }
      ],
      "name": "completeOwnershipHandover",
      "outputs": [],
      "stateMutability": "payable",
      "type": "function"
    },
    {
      "inputs": [
        {
          "internalType": "address",
          "name": "_bones",
          "type": "address"
        },
        {
          "internalType": "address",
          "name": "_magic",
          "type": "address"
        },
        {
          "internalType": "address",
          "name": "_treasure",
          "type": "address"
        },
        {
          "internalType": "string",
          "name": "_baseUri",
          "type": "string"
        }
      ],
      "name": "initialize",
      "outputs": [],
      "stateMutability": "nonpayable",
      "type": "function"
    },
    {
      "inputs": [
        {
          "internalType": "address",
          "name": "account",
          "type": "address"
        },
        {
          "internalType": "address",
          "name": "operator",
          "type": "address"
        }
      ],
      "name": "isApprovedForAll",
      "outputs": [
        {
          "internalType": "bool",
          "name": "",
          "type": "bool"
        }
      ],
      "stateMutability": "view",
      "type": "function"
    },
    {
      "inputs": [],
      "name": "laborGround",
      "outputs": [
        {
          "internalType": "address",
          "name": "",
          "type": "address"
        }
      ],
      "stateMutability": "view",
      "type": "function"
    },
    {
      "inputs": [],
      "name": "magic",
      "outputs": [
        {
          "internalType": "address",
          "name": "",
          "type": "address"
        }
      ],
      "stateMutability": "view",
      "type": "function"
    },
    {
      "inputs": [
        {
          "internalType": "uint256[]",
          "name": "_tokenId",
          "type": "uint256[]"
        },
        {
          "internalType": "uint256[]",
          "name": "_amount",
          "type": "uint256[]"
        },
        {
          "internalType": "enum Supplies.Curr[]",
          "name": "_curr",
          "type": "uint8[]"
        }
      ],
      "name": "mint",
      "outputs": [],
      "stateMutability": "nonpayable",
      "type": "function"
    },
    {
      "inputs": [],
      "name": "name",
      "outputs": [
        {
          "internalType": "string",
          "name": "",
          "type": "string"
        }
      ],
      "stateMutability": "pure",
      "type": "function"
    },
    {
      "inputs": [],
      "name": "owner",
      "outputs": [
        {
          "internalType": "address",
          "name": "result",
          "type": "address"
        }
      ],
      "stateMutability": "view",
      "type": "function"
    },
    {
      "inputs": [
        {
          "internalType": "address",
          "name": "pendingOwner",
          "type": "address"
        }
      ],
      "name": "ownershipHandoverExpiresAt",
      "outputs": [
        {
          "internalType": "uint256",
          "name": "result",
          "type": "uint256"
        }
      ],
      "stateMutability": "view",
      "type": "function"
    },
    {
      "inputs": [],
      "name": "ownershipHandoverValidFor",
      "outputs": [
        {
          "internalType": "uint64",
          "name": "",
          "type": "uint64"
        }
      ],
      "stateMutability": "view",
      "type": "function"
    },
    {
      "inputs": [],
      "name": "renounceOwnership",
      "outputs": [],
      "stateMutability": "payable",
      "type": "function"
    },
    {
      "inputs": [],
      "name": "requestOwnershipHandover",
      "outputs": [],
      "stateMutability": "payable",
      "type": "function"
    },
    {
      "inputs": [
        {
          "internalType": "address",
          "name": "from",
          "type": "address"
        },
        {
          "internalType": "address",
          "name": "to",
          "type": "address"
        },
        {
          "internalType": "uint256[]",
          "name": "ids",
          "type": "uint256[]"
        },
        {
          "internalType": "uint256[]",
          "name": "amounts",
          "type": "uint256[]"
        },
        {
          "internalType": "bytes",
          "name": "data",
          "type": "bytes"
        }
      ],
      "name": "safeBatchTransferFrom",
      "outputs": [],
      "stateMutability": "nonpayable",
      "type": "function"
    },
    {
      "inputs": [
        {
          "internalType": "address",
          "name": "from",
          "type": "address"
        },
        {
          "internalType": "address",
          "name": "to",
          "type": "address"
        },
        {
          "internalType": "uint256",
          "name": "id",
          "type": "uint256"
        },
        {
          "internalType": "uint256",
          "name": "amount",
          "type": "uint256"
        },
        {
          "internalType": "bytes",
          "name": "data",
          "type": "bytes"
        }
      ],
      "name": "safeTransferFrom",
      "outputs": [],
      "stateMutability": "nonpayable",
      "type": "function"
    },
    {
      "inputs": [
        {
          "internalType": "address",
          "name": "operator",
          "type": "address"
        },
        {
          "internalType": "bool",
          "name": "approved",
          "type": "bool"
        }
      ],
      "name": "setApprovalForAll",
      "outputs": [],
      "stateMutability": "nonpayable",
      "type": "function"
    },
    {
      "inputs": [
        {
          "internalType": "address",
          "name": "_laborGround",
          "type": "address"
        }
      ],
      "name": "setLaborGroundAddresss",
      "outputs": [],
      "stateMutability": "nonpayable",
      "type": "function"
    },
    {
      "inputs": [
        {
          "internalType": "bytes4",
          "name": "interfaceId",
          "type": "bytes4"
        }
      ],
      "name": "supportsInterface",
      "outputs": [
        {
          "internalType": "bool",
          "name": "",
          "type": "bool"
        }
      ],
      "stateMutability": "view",
      "type": "function"
    },
    {
      "inputs": [],
      "name": "symbol",
      "outputs": [
        {
          "internalType": "string",
          "name": "",
          "type": "string"
        }
      ],
      "stateMutability": "pure",
      "type": "function"
    },
    {
      "inputs": [
        {
          "internalType": "address",
          "name": "newOwner",
          "type": "address"
        }
      ],
      "name": "transferOwnership",
      "outputs": [],
      "stateMutability": "payable",
      "type": "function"
    },
    {
      "inputs": [],
      "name": "treasure",
      "outputs": [
        {
          "internalType": "address",
          "name": "",
          "type": "address"
        }
      ],
      "stateMutability": "view",
      "type": "function"
    },
    {
      "inputs": [
        {
          "internalType": "uint256",
          "name": "_tokenId",
          "type": "uint256"
        }
      ],
      "name": "uri",
      "outputs": [
        {
          "internalType": "string",
          "name": "",
          "type": "string"
        }
      ],
      "stateMutability": "view",
      "type": "function"
    },
    {
      "inputs": [],
      "name": "withdraw",
      "outputs": [],
      "stateMutability": "nonpayable",
      "type": "function"
    }
  ],
  "transactionHash": "0x9d30e336c375114e3e9320fd22ea77dfe01d56efd8b85daf8bf95f76abaf0966",
  "args": [],
  "numDeployments": 3,
  "solcInputHash": "e9b3b43708d3d4e899eeea9b15e4cb68",
  "bytecode": "0x608060405234801561001057600080fd5b506145ac806100206000396000f3fe6080604052600436106101cc5760003560e01c8063715018a6116100f7578063d88ad88711610095578063f242432a11610064578063f242432a146105f9578063f2fde38b14610622578063f5298aca1461063e578063fee81cf414610667576101cc565b8063d88ad8871461054a578063e520fc7e14610575578063e985e9c5146105a0578063f04e283e146105dd576101cc565b806395d89b41116100d157806395d89b41146104a0578063a22cb465146104cb578063aad9b207146104f4578063d7533f021461051f576101cc565b8063715018a61461044057806372355af81461044a5780638da5cb5b14610475576101cc565b80632eb2c2d61161016f57806354d1f13d1161013e57806354d1f13d146103b757806365e8e4f4146103c1578063674e68ad146103ea5780636c8e4e4a14610415576101cc565b80632eb2c2d6146103115780633ccfd60b1461033a5780634b98d53b146103515780634e1273f41461037a576101cc565b80630d854646116101ab5780630d854646146102765780630e89341c146102a15780631963070e146102de5780632569296214610307576101cc565b8062fdd58e146101d157806301ffc9a71461020e57806306fdde031461024b575b600080fd5b3480156101dd57600080fd5b506101f860048036038101906101f39190612974565b6106a4565b60405161020591906129c3565b60405180910390f35b34801561021a57600080fd5b5061023560048036038101906102309190612a36565b61076d565b6040516102429190612a7e565b60405180910390f35b34801561025757600080fd5b5061026061084f565b60405161026d9190612b29565b60405180910390f35b34801561028257600080fd5b5061028b61088c565b6040516102989190612b5a565b60405180910390f35b3480156102ad57600080fd5b506102c860048036038101906102c39190612b75565b6108b2565b6040516102d59190612b29565b60405180910390f35b3480156102ea57600080fd5b5061030560048036038101906103009190612ba2565b6108e6565b005b61030f610932565b005b34801561031d57600080fd5b5061033860048036038101906103339190612dcc565b610986565b005b34801561034657600080fd5b5061034f610a27565b005b34801561035d57600080fd5b5061037860048036038101906103739190612f4c565b610a5e565b005b34801561038657600080fd5b506103a1600480360381019061039c91906130c3565b610be7565b6040516103ae91906131f9565b60405180910390f35b6103bf610d00565b005b3480156103cd57600080fd5b506103e860048036038101906103e391906132bc565b610d3c565b005b3480156103f657600080fd5b506103ff610f52565b60405161040c91906129c3565b60405180910390f35b34801561042157600080fd5b5061042a610f5f565b60405161043791906129c3565b60405180910390f35b610448610f6b565b005b34801561045657600080fd5b5061045f610f7f565b60405161046c9190612b5a565b60405180910390f35b34801561048157600080fd5b5061048a610fa5565b6040516104979190612b5a565b60405180910390f35b3480156104ac57600080fd5b506104b5610fb3565b6040516104c29190612b29565b60405180910390f35b3480156104d757600080fd5b506104f260048036038101906104ed919061336b565b610ff0565b005b34801561050057600080fd5b50610509611085565b60405161051691906129c3565b60405180910390f35b34801561052b57600080fd5b5061053461108a565b60405161054191906133ce565b60405180910390f35b34801561055657600080fd5b5061055f611095565b60405161056c9190612b5a565b60405180910390f35b34801561058157600080fd5b5061058a6110bb565b6040516105979190612b5a565b60405180910390f35b3480156105ac57600080fd5b506105c760048036038101906105c291906133e9565b6110e1565b6040516105d49190612a7e565b60405180910390f35b6105f760048036038101906105f29190612ba2565b611175565b005b34801561060557600080fd5b50610620600480360381019061061b9190613429565b6111b6565b005b61063c60048036038101906106379190612ba2565b611257565b005b34801561064a57600080fd5b50610665600480360381019061066091906134c0565b611281565b005b34801561067357600080fd5b5061068e60048036038101906106899190612ba2565b611318565b60405161069b91906129c3565b60405180910390f35b60008073ffffffffffffffffffffffffffffffffffffffff168373ffffffffffffffffffffffffffffffffffffffff1603610714576040517f08c379a000000000000000000000000000000000000000000000000000000000815260040161070b90613585565b60405180910390fd5b6065600083815260200190815260200160002060008473ffffffffffffffffffffffffffffffffffffffff1673ffffffffffffffffffffffffffffffffffffffff16815260200190815260200160002054905092915050565b60007fd9b67a26000000000000000000000000000000000000000000000000000000007bffffffffffffffffffffffffffffffffffffffffffffffffffffffff1916827bffffffffffffffffffffffffffffffffffffffffffffffffffffffff1916148061083857507f0e89341c000000000000000000000000000000000000000000000000000000007bffffffffffffffffffffffffffffffffffffffffffffffffffffffff1916827bffffffffffffffffffffffffffffffffffffffffffffffffffffffff1916145b80610848575061084782611333565b5b9050919050565b60606040518060400160405280600881526020017f537570706c696573000000000000000000000000000000000000000000000000815250905090565b609a60009054906101000a900473ffffffffffffffffffffffffffffffffffffffff1681565b6060609b6108bf8361139d565b6040516020016108d09291906136d9565b6040516020818303038152906040529050919050565b6108ee61146b565b80609760006101000a81548173ffffffffffffffffffffffffffffffffffffffff021916908373ffffffffffffffffffffffffffffffffffffffff16021790555050565b600061093c61108a565b67ffffffffffffffff164201905063389a75e1600c5233600052806020600c2055337fdbf36a107da19e49527a7176a1babf963b4b0ff8cde35ee35d6cd8f1f9ac7e1d600080a250565b61098e611488565b73ffffffffffffffffffffffffffffffffffffffff168573ffffffffffffffffffffffffffffffffffffffff1614806109d457506109d3856109ce611488565b6110e1565b5b610a13576040517f08c379a0000000000000000000000000000000000000000000000000000000008152600401610a0a9061376f565b60405180910390fd5b610a208585858585611490565b5050505050565b610a2f61146b565b610a5b609a60009054906101000a900473ffffffffffffffffffffffffffffffffffffffff16336117b4565b50565b60008484905087879050141580610a7b5750828290508585905014155b15610ab2576040517f22cb666100000000000000000000000000000000000000000000000000000000815260040160405180910390fd5b5b86869050811015610bde576003878783818110610ad357610ad261378f565b5b905060200201351180610aff57506001878783818110610af657610af561378f565b5b90506020020135105b15610b36576040517f3f6cc76800000000000000000000000000000000000000000000000000000000815260040160405180910390fd5b610b80838383818110610b4c57610b4b61378f565b5b9050602002016020810190610b6191906137e3565b868684818110610b7457610b7361378f565b5b9050602002013561182f565b610bcd33888884818110610b9757610b9661378f565b5b90506020020135878785818110610bb157610bb061378f565b5b9050602002013560405180602001604052806000815250611a3b565b80610bd79061383f565b9050610ab3565b50505050505050565b60608151835114610c2d576040517f08c379a0000000000000000000000000000000000000000000000000000000008152600401610c24906138f9565b60405180910390fd5b6000835167ffffffffffffffff811115610c4a57610c49612bd4565b5b604051908082528060200260200182016040528015610c785781602001602082028036833780820191505090505b50905060005b8451811015610cf557610cc5858281518110610c9d57610c9c61378f565b5b6020026020010151858381518110610cb857610cb761378f565b5b60200260200101516106a4565b828281518110610cd857610cd761378f565b5b60200260200101818152505080610cee9061383f565b9050610c7e565b508091505092915050565b63389a75e1600c523360005260006020600c2055337ffa7b8eab7da67f412cc9575ed43464468f9bfbae89d1675917346ca6d8fe3c92600080a2565b60008060019054906101000a900460ff16159050808015610d6d5750600160008054906101000a900460ff1660ff16105b80610d9a5750610d7c30611bec565b158015610d995750600160008054906101000a900460ff1660ff16145b5b610dd9576040517f08c379a0000000000000000000000000000000000000000000000000000000008152600401610dd09061398b565b60405180910390fd5b60016000806101000a81548160ff021916908360ff1602179055508015610e16576001600060016101000a81548160ff0219169083151502179055505b610e1f33611c0f565b84609960006101000a81548173ffffffffffffffffffffffffffffffffffffffff021916908373ffffffffffffffffffffffffffffffffffffffff16021790555083609a60006101000a81548173ffffffffffffffffffffffffffffffffffffffff021916908373ffffffffffffffffffffffffffffffffffffffff16021790555082609860006101000a81548173ffffffffffffffffffffffffffffffffffffffff021916908373ffffffffffffffffffffffffffffffffffffffff16021790555081609b9081610ef19190613b42565b508015610f4b5760008060016101000a81548160ff0219169083151502179055507f7f26b83ff96e1f2b6a682f133852f6798a09c465da95921460cefb38474024986001604051610f429190613c5c565b60405180910390a15b5050505050565b683635c9adc5dea0000081565b678ac7230489e8000081565b610f7361146b565b610f7d6000611c4b565b565b609760009054906101000a900473ffffffffffffffffffffffffffffffffffffffff1681565b6000638b78c6d81954905090565b60606040518060400160405280600881526020017f737570706c696573000000000000000000000000000000000000000000000000815250905090565b609760009054906101000a900473ffffffffffffffffffffffffffffffffffffffff1673ffffffffffffffffffffffffffffffffffffffff168273ffffffffffffffffffffffffffffffffffffffff1614611077576040517fea8e4eb500000000000000000000000000000000000000000000000000000000815260040160405180910390fd5b6110818282611c89565b5050565b600581565b60006202a300905090565b609960009054906101000a900473ffffffffffffffffffffffffffffffffffffffff1681565b609860009054906101000a900473ffffffffffffffffffffffffffffffffffffffff1681565b6000606660008473ffffffffffffffffffffffffffffffffffffffff1673ffffffffffffffffffffffffffffffffffffffff16815260200190815260200160002060008373ffffffffffffffffffffffffffffffffffffffff1673ffffffffffffffffffffffffffffffffffffffff16815260200190815260200160002060009054906101000a900460ff16905092915050565b61117d61146b565b63389a75e1600c52806000526020600c2080544211156111a557636f5e88186000526004601cfd5b60008155506111b381611c4b565b50565b6111be611488565b73ffffffffffffffffffffffffffffffffffffffff168573ffffffffffffffffffffffffffffffffffffffff1614806112045750611203856111fe611488565b6110e1565b5b611243576040517f08c379a000000000000000000000000000000000000000000000000000000000815260040161123a9061376f565b60405180910390fd5b6112508585858585611c9f565b5050505050565b61125f61146b565b8060601b61127557637448fbae6000526004601cfd5b61127e81611c4b565b50565b609760009054906101000a900473ffffffffffffffffffffffffffffffffffffffff1673ffffffffffffffffffffffffffffffffffffffff163373ffffffffffffffffffffffffffffffffffffffff1614611308576040517fea8e4eb500000000000000000000000000000000000000000000000000000000815260040160405180910390fd5b611313838383611f3d565b505050565b600063389a75e1600c52816000526020600c20549050919050565b60007f01ffc9a7000000000000000000000000000000000000000000000000000000007bffffffffffffffffffffffffffffffffffffffffffffffffffffffff1916827bffffffffffffffffffffffffffffffffffffffffffffffffffffffff1916149050919050565b6060600060016113ac84612185565b01905060008167ffffffffffffffff8111156113cb576113ca612bd4565b5b6040519080825280601f01601f1916602001820160405280156113fd5781602001600182028036833780820191505090505b509050600082602001820190505b600115611460578080600190039150507f3031323334353637383961626364656600000000000000000000000000000000600a86061a8153600a858161145457611453613c77565b5b0494506000850361140b575b819350505050919050565b638b78c6d819543314611486576382b429006000526004601cfd5b565b600033905090565b81518351146114d4576040517f08c379a00000000000000000000000000000000000000000000000000000000081526004016114cb90613d18565b60405180910390fd5b600073ffffffffffffffffffffffffffffffffffffffff168473ffffffffffffffffffffffffffffffffffffffff1603611543576040517f08c379a000000000000000000000000000000000000000000000000000000000815260040161153a90613daa565b60405180910390fd5b600061154d611488565b905061155d8187878787876122d8565b60005b845181101561171157600085828151811061157e5761157d61378f565b5b60200260200101519050600085838151811061159d5761159c61378f565b5b6020026020010151905060006065600084815260200190815260200160002060008b73ffffffffffffffffffffffffffffffffffffffff1673ffffffffffffffffffffffffffffffffffffffff1681526020019081526020016000205490508181101561163f576040517f08c379a000000000000000000000000000000000000000000000000000000000815260040161163690613e3c565b60405180910390fd5b8181036065600085815260200190815260200160002060008c73ffffffffffffffffffffffffffffffffffffffff1673ffffffffffffffffffffffffffffffffffffffff16815260200190815260200160002081905550816065600085815260200190815260200160002060008b73ffffffffffffffffffffffffffffffffffffffff1673ffffffffffffffffffffffffffffffffffffffff16815260200190815260200160002060008282546116f69190613e5c565b925050819055505050508061170a9061383f565b9050611560565b508473ffffffffffffffffffffffffffffffffffffffff168673ffffffffffffffffffffffffffffffffffffffff168273ffffffffffffffffffffffffffffffffffffffff167f4a39dc06d4c0dbc64b70af90fd698a233a518aa5d07e595d983b8c0526c8f7fb8787604051611788929190613e90565b60405180910390a461179e8187878787876122e0565b6117ac8187878787876122e8565b505050505050565b60006370a08231600052306020526020603a6024601c865afa601f3d11166117e4576390b8ec186000526004601cfd5b81601a52603a51905069a9059cbb00000000000060005260206000604460166000875af13d156001600051141716611824576390b8ec186000526004601cfd5b6000603a5292915050565b6000600281111561184357611842613ec7565b5b82600281111561185657611855613ec7565b5b0361189d5761189c609a60009054906101000a900473ffffffffffffffffffffffffffffffffffffffff16333084678ac7230489e800006118979190613ef6565b6124bf565b5b600160028111156118b1576118b0613ec7565b5b8260028111156118c4576118c3613ec7565b5b0361196d57609960009054906101000a900473ffffffffffffffffffffffffffffffffffffffff1673ffffffffffffffffffffffffffffffffffffffff16639dc29fac3383683635c9adc5dea0000061191d9190613ef6565b6040518363ffffffff1660e01b815260040161193a929190613f38565b600060405180830381600087803b15801561195457600080fd5b505af1158015611968573d6000803e3d6000fd5b505050505b6002808111156119805761197f613ec7565b5b82600281111561199357611992613ec7565b5b03611a3757609860009054906101000a900473ffffffffffffffffffffffffffffffffffffffff1673ffffffffffffffffffffffffffffffffffffffff1663f5298aca3360018460056119e69190613ef6565b6040518463ffffffff1660e01b8152600401611a0493929190613f92565b600060405180830381600087803b158015611a1e57600080fd5b505af1158015611a32573d6000803e3d6000fd5b505050505b5050565b600073ffffffffffffffffffffffffffffffffffffffff168473ffffffffffffffffffffffffffffffffffffffff1603611aaa576040517f08c379a0000000000000000000000000000000000000000000000000000000008152600401611aa19061403b565b60405180910390fd5b6000611ab4611488565b90506000611ac18561250f565b90506000611ace8561250f565b9050611adf836000898585896122d8565b846065600088815260200190815260200160002060008973ffffffffffffffffffffffffffffffffffffffff1673ffffffffffffffffffffffffffffffffffffffff1681526020019081526020016000206000828254611b3f9190613e5c565b925050819055508673ffffffffffffffffffffffffffffffffffffffff16600073ffffffffffffffffffffffffffffffffffffffff168473ffffffffffffffffffffffffffffffffffffffff167fc3d58168c5ae7397731d063d5bbf3d657854427343f4c083240f7aacaa2d0f628989604051611bbd92919061405b565b60405180910390a4611bd4836000898585896122e0565b611be383600089898989612589565b50505050505050565b6000808273ffffffffffffffffffffffffffffffffffffffff163b119050919050565b8060601b60601c905080638b78c6d819558060007f8be0079c531659141344cd1fd0a4f28419497f9722a3daafe3b4186f6b6457e0600080a350565b638b78c6d8198160601b60601c91508181547f8be0079c531659141344cd1fd0a4f28419497f9722a3daafe3b4186f6b6457e0600080a38181555050565b611c9b611c94611488565b8383612760565b5050565b600073ffffffffffffffffffffffffffffffffffffffff168473ffffffffffffffffffffffffffffffffffffffff1603611d0e576040517f08c379a0000000000000000000000000000000000000000000000000000000008152600401611d0590613daa565b60405180910390fd5b6000611d18611488565b90506000611d258561250f565b90506000611d328561250f565b9050611d428389898585896122d8565b60006065600088815260200190815260200160002060008a73ffffffffffffffffffffffffffffffffffffffff1673ffffffffffffffffffffffffffffffffffffffff16815260200190815260200160002054905085811015611dda576040517f08c379a0000000000000000000000000000000000000000000000000000000008152600401611dd190613e3c565b60405180910390fd5b8581036065600089815260200190815260200160002060008b73ffffffffffffffffffffffffffffffffffffffff1673ffffffffffffffffffffffffffffffffffffffff16815260200190815260200160002081905550856065600089815260200190815260200160002060008a73ffffffffffffffffffffffffffffffffffffffff1673ffffffffffffffffffffffffffffffffffffffff1681526020019081526020016000206000828254611e919190613e5c565b925050819055508773ffffffffffffffffffffffffffffffffffffffff168973ffffffffffffffffffffffffffffffffffffffff168573ffffffffffffffffffffffffffffffffffffffff167fc3d58168c5ae7397731d063d5bbf3d657854427343f4c083240f7aacaa2d0f628a8a604051611f0e92919061405b565b60405180910390a4611f24848a8a86868a6122e0565b611f32848a8a8a8a8a612589565b505050505050505050565b600073ffffffffffffffffffffffffffffffffffffffff168373ffffffffffffffffffffffffffffffffffffffff1603611fac576040517f08c379a0000000000000000000000000000000000000000000000000000000008152600401611fa3906140f6565b60405180910390fd5b6000611fb6611488565b90506000611fc38461250f565b90506000611fd08461250f565b9050611ff0838760008585604051806020016040528060008152506122d8565b60006065600087815260200190815260200160002060008873ffffffffffffffffffffffffffffffffffffffff1673ffffffffffffffffffffffffffffffffffffffff16815260200190815260200160002054905084811015612088576040517f08c379a000000000000000000000000000000000000000000000000000000000815260040161207f90614188565b60405180910390fd5b8481036065600088815260200190815260200160002060008973ffffffffffffffffffffffffffffffffffffffff1673ffffffffffffffffffffffffffffffffffffffff16815260200190815260200160002081905550600073ffffffffffffffffffffffffffffffffffffffff168773ffffffffffffffffffffffffffffffffffffffff168573ffffffffffffffffffffffffffffffffffffffff167fc3d58168c5ae7397731d063d5bbf3d657854427343f4c083240f7aacaa2d0f62898960405161215692919061405b565b60405180910390a461217c848860008686604051806020016040528060008152506122e0565b50505050505050565b600080600090507a184f03e93ff9f4daa797ed6e38ed64bf6a1f01000000000000000083106121e3577a184f03e93ff9f4daa797ed6e38ed64bf6a1f01000000000000000083816121d9576121d8613c77565b5b0492506040810190505b6d04ee2d6d415b85acef81000000008310612220576d04ee2d6d415b85acef8100000000838161221657612215613c77565b5b0492506020810190505b662386f26fc10000831061224f57662386f26fc10000838161224557612244613c77565b5b0492506010810190505b6305f5e1008310612278576305f5e100838161226e5761226d613c77565b5b0492506008810190505b612710831061229d57612710838161229357612292613c77565b5b0492506004810190505b606483106122c057606483816122b6576122b5613c77565b5b0492506002810190505b600a83106122cf576001810190505b80915050919050565b505050505050565b505050505050565b6123078473ffffffffffffffffffffffffffffffffffffffff16611bec565b156124b7578373ffffffffffffffffffffffffffffffffffffffff1663bc197c8187878686866040518663ffffffff1660e01b815260040161234d9594939291906141fd565b6020604051808303816000875af192505050801561238957506040513d601f19601f82011682018060405250810190612386919061427a565b60015b61242e576123956142b4565b806308c379a0036123f157506123a96142d6565b806123b457506123f3565b806040517f08c379a00000000000000000000000000000000000000000000000000000000081526004016123e89190612b29565b60405180910390fd5b505b6040517f08c379a0000000000000000000000000000000000000000000000000000000008152600401612425906143d8565b60405180910390fd5b63bc197c8160e01b7bffffffffffffffffffffffffffffffffffffffffffffffffffffffff1916817bffffffffffffffffffffffffffffffffffffffffffffffffffffffff1916146124b5576040517f08c379a00000000000000000000000000000000000000000000000000000000081526004016124ac9061446a565b60405180910390fd5b505b505050505050565b6040516323b872dd600052836020528260405281606052602060006064601c6000895af13d1560016000511417166124ff57637939f4246000526004601cfd5b6000606052806040525050505050565b60606000600167ffffffffffffffff81111561252e5761252d612bd4565b5b60405190808252806020026020018201604052801561255c5781602001602082028036833780820191505090505b50905082816000815181106125745761257361378f565b5b60200260200101818152505080915050919050565b6125a88473ffffffffffffffffffffffffffffffffffffffff16611bec565b15612758578373ffffffffffffffffffffffffffffffffffffffff1663f23a6e6187878686866040518663ffffffff1660e01b81526004016125ee95949392919061448a565b6020604051808303816000875af192505050801561262a57506040513d601f19601f82011682018060405250810190612627919061427a565b60015b6126cf576126366142b4565b806308c379a003612692575061264a6142d6565b806126555750612694565b806040517f08c379a00000000000000000000000000000000000000000000000000000000081526004016126899190612b29565b60405180910390fd5b505b6040517f08c379a00000000000000000000000000000000000000000000000000000000081526004016126c6906143d8565b60405180910390fd5b63f23a6e6160e01b7bffffffffffffffffffffffffffffffffffffffffffffffffffffffff1916817bffffffffffffffffffffffffffffffffffffffffffffffffffffffff191614612756576040517f08c379a000000000000000000000000000000000000000000000000000000000815260040161274d9061446a565b60405180910390fd5b505b505050505050565b8173ffffffffffffffffffffffffffffffffffffffff168373ffffffffffffffffffffffffffffffffffffffff16036127ce576040517f08c379a00000000000000000000000000000000000000000000000000000000081526004016127c590614556565b60405180910390fd5b80606660008573ffffffffffffffffffffffffffffffffffffffff1673ffffffffffffffffffffffffffffffffffffffff16815260200190815260200160002060008473ffffffffffffffffffffffffffffffffffffffff1673ffffffffffffffffffffffffffffffffffffffff16815260200190815260200160002060006101000a81548160ff0219169083151502179055508173ffffffffffffffffffffffffffffffffffffffff168373ffffffffffffffffffffffffffffffffffffffff167f17307eab39ab6107e8899845ad3d59bd9653f200f220920489ca2b5937696c31836040516128bf9190612a7e565b60405180910390a3505050565b6000604051905090565b600080fd5b600080fd5b600073ffffffffffffffffffffffffffffffffffffffff82169050919050565b600061290b826128e0565b9050919050565b61291b81612900565b811461292657600080fd5b50565b60008135905061293881612912565b92915050565b6000819050919050565b6129518161293e565b811461295c57600080fd5b50565b60008135905061296e81612948565b92915050565b6000806040838503121561298b5761298a6128d6565b5b600061299985828601612929565b92505060206129aa8582860161295f565b9150509250929050565b6129bd8161293e565b82525050565b60006020820190506129d860008301846129b4565b92915050565b60007fffffffff0000000000000000000000000000000000000000000000000000000082169050919050565b612a13816129de565b8114612a1e57600080fd5b50565b600081359050612a3081612a0a565b92915050565b600060208284031215612a4c57612a4b6128d6565b5b6000612a5a84828501612a21565b91505092915050565b60008115159050919050565b612a7881612a63565b82525050565b6000602082019050612a936000830184612a6f565b92915050565b600081519050919050565b600082825260208201905092915050565b60005b83811015612ad3578082015181840152602081019050612ab8565b60008484015250505050565b6000601f19601f8301169050919050565b6000612afb82612a99565b612b058185612aa4565b9350612b15818560208601612ab5565b612b1e81612adf565b840191505092915050565b60006020820190508181036000830152612b438184612af0565b905092915050565b612b5481612900565b82525050565b6000602082019050612b6f6000830184612b4b565b92915050565b600060208284031215612b8b57612b8a6128d6565b5b6000612b998482850161295f565b91505092915050565b600060208284031215612bb857612bb76128d6565b5b6000612bc684828501612929565b91505092915050565b600080fd5b7f4e487b7100000000000000000000000000000000000000000000000000000000600052604160045260246000fd5b612c0c82612adf565b810181811067ffffffffffffffff82111715612c2b57612c2a612bd4565b5b80604052505050565b6000612c3e6128cc565b9050612c4a8282612c03565b919050565b600067ffffffffffffffff821115612c6a57612c69612bd4565b5b602082029050602081019050919050565b600080fd5b6000612c93612c8e84612c4f565b612c34565b90508083825260208201905060208402830185811115612cb657612cb5612c7b565b5b835b81811015612cdf5780612ccb888261295f565b845260208401935050602081019050612cb8565b5050509392505050565b600082601f830112612cfe57612cfd612bcf565b5b8135612d0e848260208601612c80565b91505092915050565b600080fd5b600067ffffffffffffffff821115612d3757612d36612bd4565b5b612d4082612adf565b9050602081019050919050565b82818337600083830152505050565b6000612d6f612d6a84612d1c565b612c34565b905082815260208101848484011115612d8b57612d8a612d17565b5b612d96848285612d4d565b509392505050565b600082601f830112612db357612db2612bcf565b5b8135612dc3848260208601612d5c565b91505092915050565b600080600080600060a08688031215612de857612de76128d6565b5b6000612df688828901612929565b9550506020612e0788828901612929565b945050604086013567ffffffffffffffff811115612e2857612e276128db565b5b612e3488828901612ce9565b935050606086013567ffffffffffffffff811115612e5557612e546128db565b5b612e6188828901612ce9565b925050608086013567ffffffffffffffff811115612e8257612e816128db565b5b612e8e88828901612d9e565b9150509295509295909350565b600080fd5b60008083601f840112612eb657612eb5612bcf565b5b8235905067ffffffffffffffff811115612ed357612ed2612e9b565b5b602083019150836020820283011115612eef57612eee612c7b565b5b9250929050565b60008083601f840112612f0c57612f0b612bcf565b5b8235905067ffffffffffffffff811115612f2957612f28612e9b565b5b602083019150836020820283011115612f4557612f44612c7b565b5b9250929050565b60008060008060008060608789031215612f6957612f686128d6565b5b600087013567ffffffffffffffff811115612f8757612f866128db565b5b612f9389828a01612ea0565b9650965050602087013567ffffffffffffffff811115612fb657612fb56128db565b5b612fc289828a01612ea0565b9450945050604087013567ffffffffffffffff811115612fe557612fe46128db565b5b612ff189828a01612ef6565b92509250509295509295509295565b600067ffffffffffffffff82111561301b5761301a612bd4565b5b602082029050602081019050919050565b600061303f61303a84613000565b612c34565b9050808382526020820190506020840283018581111561306257613061612c7b565b5b835b8181101561308b57806130778882612929565b845260208401935050602081019050613064565b5050509392505050565b600082601f8301126130aa576130a9612bcf565b5b81356130ba84826020860161302c565b91505092915050565b600080604083850312156130da576130d96128d6565b5b600083013567ffffffffffffffff8111156130f8576130f76128db565b5b61310485828601613095565b925050602083013567ffffffffffffffff811115613125576131246128db565b5b61313185828601612ce9565b9150509250929050565b600081519050919050565b600082825260208201905092915050565b6000819050602082019050919050565b6131708161293e565b82525050565b60006131828383613167565b60208301905092915050565b6000602082019050919050565b60006131a68261313b565b6131b08185613146565b93506131bb83613157565b8060005b838110156131ec5781516131d38882613176565b97506131de8361318e565b9250506001810190506131bf565b5085935050505092915050565b60006020820190508181036000830152613213818461319b565b905092915050565b600067ffffffffffffffff82111561323657613235612bd4565b5b61323f82612adf565b9050602081019050919050565b600061325f61325a8461321b565b612c34565b90508281526020810184848401111561327b5761327a612d17565b5b613286848285612d4d565b509392505050565b600082601f8301126132a3576132a2612bcf565b5b81356132b384826020860161324c565b91505092915050565b600080600080608085870312156132d6576132d56128d6565b5b60006132e487828801612929565b94505060206132f587828801612929565b935050604061330687828801612929565b925050606085013567ffffffffffffffff811115613327576133266128db565b5b6133338782880161328e565b91505092959194509250565b61334881612a63565b811461335357600080fd5b50565b6000813590506133658161333f565b92915050565b60008060408385031215613382576133816128d6565b5b600061339085828601612929565b92505060206133a185828601613356565b9150509250929050565b600067ffffffffffffffff82169050919050565b6133c8816133ab565b82525050565b60006020820190506133e360008301846133bf565b92915050565b60008060408385031215613400576133ff6128d6565b5b600061340e85828601612929565b925050602061341f85828601612929565b9150509250929050565b600080600080600060a08688031215613445576134446128d6565b5b600061345388828901612929565b955050602061346488828901612929565b94505060406134758882890161295f565b93505060606134868882890161295f565b925050608086013567ffffffffffffffff8111156134a7576134a66128db565b5b6134b388828901612d9e565b9150509295509295909350565b6000806000606084860312156134d9576134d86128d6565b5b60006134e786828701612929565b93505060206134f88682870161295f565b92505060406135098682870161295f565b9150509250925092565b7f455243313135353a2061646472657373207a65726f206973206e6f742061207660008201527f616c6964206f776e657200000000000000000000000000000000000000000000602082015250565b600061356f602a83612aa4565b915061357a82613513565b604082019050919050565b6000602082019050818103600083015261359e81613562565b9050919050565b7f4e487b7100000000000000000000000000000000000000000000000000000000600052602260045260246000fd5b600060028204905060018216806135ec57607f821691505b6020821081036135ff576135fe6135a5565b5b50919050565b600081905092915050565b60008190508160005260206000209050919050565b60008154613632816135d4565b61363c8186613605565b94506001821660008114613657576001811461366c5761369f565b60ff198316865281151582028601935061369f565b61367585613610565b60005b8381101561369757815481890152600182019150602081019050613678565b838801955050505b50505092915050565b60006136b382612a99565b6136bd8185613605565b93506136cd818560208601612ab5565b80840191505092915050565b60006136e58285613625565b91506136f182846136a8565b91508190509392505050565b7f455243313135353a2063616c6c6572206973206e6f7420746f6b656e206f776e60008201527f6572206f7220617070726f766564000000000000000000000000000000000000602082015250565b6000613759602e83612aa4565b9150613764826136fd565b604082019050919050565b600060208201905081810360008301526137888161374c565b9050919050565b7f4e487b7100000000000000000000000000000000000000000000000000000000600052603260045260246000fd5b600381106137cb57600080fd5b50565b6000813590506137dd816137be565b92915050565b6000602082840312156137f9576137f86128d6565b5b6000613807848285016137ce565b91505092915050565b7f4e487b7100000000000000000000000000000000000000000000000000000000600052601160045260246000fd5b600061384a8261293e565b91507fffffffffffffffffffffffffffffffffffffffffffffffffffffffffffffffff820361387c5761387b613810565b5b600182019050919050565b7f455243313135353a206163636f756e747320616e6420696473206c656e67746860008201527f206d69736d617463680000000000000000000000000000000000000000000000602082015250565b60006138e3602983612aa4565b91506138ee82613887565b604082019050919050565b60006020820190508181036000830152613912816138d6565b9050919050565b7f496e697469616c697a61626c653a20636f6e747261637420697320616c72656160008201527f647920696e697469616c697a6564000000000000000000000000000000000000602082015250565b6000613975602e83612aa4565b915061398082613919565b604082019050919050565b600060208201905081810360008301526139a481613968565b9050919050565b60006020601f8301049050919050565b600082821b905092915050565b6000600883026139f87fffffffffffffffffffffffffffffffffffffffffffffffffffffffffffffffff826139bb565b613a0286836139bb565b95508019841693508086168417925050509392505050565b6000819050919050565b6000613a3f613a3a613a358461293e565b613a1a565b61293e565b9050919050565b6000819050919050565b613a5983613a24565b613a6d613a6582613a46565b8484546139c8565b825550505050565b600090565b613a82613a75565b613a8d818484613a50565b505050565b5b81811015613ab157613aa6600082613a7a565b600181019050613a93565b5050565b601f821115613af657613ac781613610565b613ad0846139ab565b81016020851015613adf578190505b613af3613aeb856139ab565b830182613a92565b50505b505050565b600082821c905092915050565b6000613b1960001984600802613afb565b1980831691505092915050565b6000613b328383613b08565b9150826002028217905092915050565b613b4b82612a99565b67ffffffffffffffff811115613b6457613b63612bd4565b5b613b6e82546135d4565b613b79828285613ab5565b600060209050601f831160018114613bac5760008415613b9a578287015190505b613ba48582613b26565b865550613c0c565b601f198416613bba86613610565b60005b82811015613be257848901518255600182019150602085019450602081019050613bbd565b86831015613bff5784890151613bfb601f891682613b08565b8355505b6001600288020188555050505b505050505050565b6000819050919050565b600060ff82169050919050565b6000613c46613c41613c3c84613c14565b613a1a565b613c1e565b9050919050565b613c5681613c2b565b82525050565b6000602082019050613c716000830184613c4d565b92915050565b7f4e487b7100000000000000000000000000000000000000000000000000000000600052601260045260246000fd5b7f455243313135353a2069647320616e6420616d6f756e7473206c656e6774682060008201527f6d69736d61746368000000000000000000000000000000000000000000000000602082015250565b6000613d02602883612aa4565b9150613d0d82613ca6565b604082019050919050565b60006020820190508181036000830152613d3181613cf5565b9050919050565b7f455243313135353a207472616e7366657220746f20746865207a65726f20616460008201527f6472657373000000000000000000000000000000000000000000000000000000602082015250565b6000613d94602583612aa4565b9150613d9f82613d38565b604082019050919050565b60006020820190508181036000830152613dc381613d87565b9050919050565b7f455243313135353a20696e73756666696369656e742062616c616e636520666f60008201527f72207472616e7366657200000000000000000000000000000000000000000000602082015250565b6000613e26602a83612aa4565b9150613e3182613dca565b604082019050919050565b60006020820190508181036000830152613e5581613e19565b9050919050565b6000613e678261293e565b9150613e728361293e565b9250828201905080821115613e8a57613e89613810565b5b92915050565b60006040820190508181036000830152613eaa818561319b565b90508181036020830152613ebe818461319b565b90509392505050565b7f4e487b7100000000000000000000000000000000000000000000000000000000600052602160045260246000fd5b6000613f018261293e565b9150613f0c8361293e565b9250828202613f1a8161293e565b91508282048414831517613f3157613f30613810565b5b5092915050565b6000604082019050613f4d6000830185612b4b565b613f5a60208301846129b4565b9392505050565b6000613f7c613f77613f7284613c14565b613a1a565b61293e565b9050919050565b613f8c81613f61565b82525050565b6000606082019050613fa76000830186612b4b565b613fb46020830185613f83565b613fc160408301846129b4565b949350505050565b7f455243313135353a206d696e7420746f20746865207a65726f2061646472657360008201527f7300000000000000000000000000000000000000000000000000000000000000602082015250565b6000614025602183612aa4565b915061403082613fc9565b604082019050919050565b6000602082019050818103600083015261405481614018565b9050919050565b600060408201905061407060008301856129b4565b61407d60208301846129b4565b9392505050565b7f455243313135353a206275726e2066726f6d20746865207a65726f206164647260008201527f6573730000000000000000000000000000000000000000000000000000000000602082015250565b60006140e0602383612aa4565b91506140eb82614084565b604082019050919050565b6000602082019050818103600083015261410f816140d3565b9050919050565b7f455243313135353a206275726e20616d6f756e7420657863656564732062616c60008201527f616e636500000000000000000000000000000000000000000000000000000000602082015250565b6000614172602483612aa4565b915061417d82614116565b604082019050919050565b600060208201905081810360008301526141a181614165565b9050919050565b600081519050919050565b600082825260208201905092915050565b60006141cf826141a8565b6141d981856141b3565b93506141e9818560208601612ab5565b6141f281612adf565b840191505092915050565b600060a0820190506142126000830188612b4b565b61421f6020830187612b4b565b8181036040830152614231818661319b565b90508181036060830152614245818561319b565b9050818103608083015261425981846141c4565b90509695505050505050565b60008151905061427481612a0a565b92915050565b6000602082840312156142905761428f6128d6565b5b600061429e84828501614265565b91505092915050565b60008160e01c9050919050565b600060033d11156142d35760046000803e6142d06000516142a7565b90505b90565b600060443d10614363576142e86128cc565b60043d036004823e80513d602482011167ffffffffffffffff82111715614310575050614363565b808201805167ffffffffffffffff81111561432e5750505050614363565b80602083010160043d03850181111561434b575050505050614363565b61435a82602001850186612c03565b82955050505050505b90565b7f455243313135353a207472616e7366657220746f206e6f6e2d4552433131353560008201527f526563656976657220696d706c656d656e746572000000000000000000000000602082015250565b60006143c2603483612aa4565b91506143cd82614366565b604082019050919050565b600060208201905081810360008301526143f1816143b5565b9050919050565b7f455243313135353a204552433131353552656365697665722072656a6563746560008201527f6420746f6b656e73000000000000000000000000000000000000000000000000602082015250565b6000614454602883612aa4565b915061445f826143f8565b604082019050919050565b6000602082019050818103600083015261448381614447565b9050919050565b600060a08201905061449f6000830188612b4b565b6144ac6020830187612b4b565b6144b960408301866129b4565b6144c660608301856129b4565b81810360808301526144d881846141c4565b90509695505050505050565b7f455243313135353a2073657474696e6720617070726f76616c2073746174757360008201527f20666f722073656c660000000000000000000000000000000000000000000000602082015250565b6000614540602983612aa4565b915061454b826144e4565b604082019050919050565b6000602082019050818103600083015261456f81614533565b905091905056fea264697066735822122018b47893d8eaa96341b1ecc3247c90dbe51f7e2a44ebcaa928311694a68be99a64736f6c63430008120033",
  "devdoc": {
    "errors": {
      "NewOwnerIsZeroAddress()": [
        {
          "details": "The `newOwner` cannot be the zero address."
        }
      ],
      "NoHandoverRequest()": [
        {
          "details": "The `pendingOwner` does not have a valid handover request."
        }
      ],
      "Unauthorized()": [
        {
          "details": "The caller is not authorized to call the function."
        }
      ]
    },
    "events": {
      "ApprovalForAll(address,address,bool)": {
        "details": "Emitted when `account` grants or revokes permission to `operator` to transfer their tokens, according to `approved`."
      },
      "Initialized(uint8)": {
        "details": "Triggered when the contract has been initialized or reinitialized."
      },
      "OwnershipHandoverCanceled(address)": {
        "details": "The ownership handover to `pendingOwner` has been canceled."
      },
      "OwnershipHandoverRequested(address)": {
        "details": "An ownership handover to `pendingOwner` has been requested."
      },
      "OwnershipTransferred(address,address)": {
        "details": "The ownership is transferred from `oldOwner` to `newOwner`. This event is intentionally kept the same as OpenZeppelin's Ownable to be compatible with indexers and [EIP-173](https://eips.ethereum.org/EIPS/eip-173), despite it not being as lightweight as a single argument event."
      },
      "TransferBatch(address,address,address,uint256[],uint256[])": {
        "details": "Equivalent to multiple {TransferSingle} events, where `operator`, `from` and `to` are the same for all transfers."
      },
      "TransferSingle(address,address,address,uint256,uint256)": {
        "details": "Emitted when `value` tokens of token type `id` are transferred from `from` to `to` by `operator`."
      },
      "URI(string,uint256)": {
        "details": "Emitted when the URI for token type `id` changes to `value`, if it is a non-programmatic URI. If an {URI} event was emitted for `id`, the standard https://eips.ethereum.org/EIPS/eip-1155#metadata-extensions[guarantees] that `value` will equal the value returned by {IERC1155MetadataURI-uri}."
      }
    },
    "kind": "dev",
    "methods": {
      "balanceOf(address,uint256)": {
        "details": "See {IERC1155-balanceOf}. Requirements: - `account` cannot be the zero address."
      },
      "balanceOfBatch(address[],uint256[])": {
        "details": "See {IERC1155-balanceOfBatch}. Requirements: - `accounts` and `ids` must have the same length."
      },
      "cancelOwnershipHandover()": {
        "details": "Cancels the two-step ownership handover to the caller, if any."
      },
      "completeOwnershipHandover(address)": {
        "details": "Allows the owner to complete the two-step ownership handover to `pendingOwner`. Reverts if there is no existing ownership handover requested by `pendingOwner`."
      },
      "isApprovedForAll(address,address)": {
        "details": "See {IERC1155-isApprovedForAll}."
      },
      "owner()": {
        "details": "Returns the owner of the contract."
      },
      "ownershipHandoverExpiresAt(address)": {
        "details": "Returns the expiry timestamp for the two-step ownership handover to `pendingOwner`."
      },
      "ownershipHandoverValidFor()": {
        "details": "Returns how long a two-step ownership handover is valid for in seconds."
      },
      "renounceOwnership()": {
        "details": "Allows the owner to renounce their ownership."
      },
      "requestOwnershipHandover()": {
        "details": "Request a two-step ownership handover to the caller. The request will be automatically expire in 48 hours (172800 seconds) by default."
      },
      "safeBatchTransferFrom(address,address,uint256[],uint256[],bytes)": {
        "details": "See {IERC1155-safeBatchTransferFrom}."
      },
      "safeTransferFrom(address,address,uint256,uint256,bytes)": {
        "details": "See {IERC1155-safeTransferFrom}."
      },
      "setApprovalForAll(address,bool)": {
        "details": "See {IERC1155-setApprovalForAll}."
      },
      "supportsInterface(bytes4)": {
        "details": "See {IERC165-supportsInterface}."
      },
      "transferOwnership(address)": {
        "details": "Allows the owner to transfer the ownership to `newOwner`."
      }
    },
    "version": 1
  },
  "userdoc": {
    "kind": "user",
    "methods": {
      "mint(uint256[],uint256[],uint8[])": {
        "notice": "this token can no be sold on the secondary market only mint it and used for job"
      }
    },
    "version": 1
  },
  "storageLayout": {
    "storage": [
      {
        "astId": 6,
        "contract": "contracts/Supplies.sol:Supplies",
        "label": "_initialized",
        "offset": 0,
        "slot": "0",
        "type": "t_uint8"
      },
      {
        "astId": 9,
        "contract": "contracts/Supplies.sol:Supplies",
        "label": "_initializing",
        "offset": 1,
        "slot": "0",
        "type": "t_bool"
      },
      {
        "astId": 1994,
        "contract": "contracts/Supplies.sol:Supplies",
        "label": "__gap",
        "offset": 0,
        "slot": "1",
        "type": "t_array(t_uint256)50_storage"
      },
      {
        "astId": 2213,
        "contract": "contracts/Supplies.sol:Supplies",
        "label": "__gap",
        "offset": 0,
        "slot": "51",
        "type": "t_array(t_uint256)50_storage"
      },
      {
        "astId": 197,
        "contract": "contracts/Supplies.sol:Supplies",
        "label": "_balances",
        "offset": 0,
        "slot": "101",
        "type": "t_mapping(t_uint256,t_mapping(t_address,t_uint256))"
      },
      {
        "astId": 203,
        "contract": "contracts/Supplies.sol:Supplies",
        "label": "_operatorApprovals",
        "offset": 0,
        "slot": "102",
        "type": "t_mapping(t_address,t_mapping(t_address,t_bool))"
      },
      {
        "astId": 205,
        "contract": "contracts/Supplies.sol:Supplies",
        "label": "_uri",
        "offset": 0,
        "slot": "103",
        "type": "t_string_storage"
      },
      {
        "astId": 1412,
        "contract": "contracts/Supplies.sol:Supplies",
        "label": "__gap",
        "offset": 0,
        "slot": "104",
        "type": "t_array(t_uint256)47_storage"
      },
      {
        "astId": 3120,
        "contract": "contracts/Supplies.sol:Supplies",
        "label": "laborGround",
        "offset": 0,
        "slot": "151",
        "type": "t_address"
      },
      {
        "astId": 3122,
        "contract": "contracts/Supplies.sol:Supplies",
        "label": "treasure",
        "offset": 0,
        "slot": "152",
        "type": "t_address"
      },
      {
        "astId": 3124,
        "contract": "contracts/Supplies.sol:Supplies",
        "label": "bones",
        "offset": 0,
        "slot": "153",
        "type": "t_address"
      },
      {
        "astId": 3126,
        "contract": "contracts/Supplies.sol:Supplies",
        "label": "magic",
        "offset": 0,
        "slot": "154",
        "type": "t_address"
      },
      {
        "astId": 3137,
        "contract": "contracts/Supplies.sol:Supplies",
        "label": "baseUri",
        "offset": 0,
        "slot": "155",
        "type": "t_string_storage"
      }
    ],
    "types": {
      "t_address": {
        "encoding": "inplace",
        "label": "address",
        "numberOfBytes": "20"
      },
      "t_array(t_uint256)47_storage": {
        "base": "t_uint256",
        "encoding": "inplace",
        "label": "uint256[47]",
        "numberOfBytes": "1504"
      },
      "t_array(t_uint256)50_storage": {
        "base": "t_uint256",
        "encoding": "inplace",
        "label": "uint256[50]",
        "numberOfBytes": "1600"
      },
      "t_bool": {
        "encoding": "inplace",
        "label": "bool",
        "numberOfBytes": "1"
      },
      "t_mapping(t_address,t_bool)": {
        "encoding": "mapping",
        "key": "t_address",
        "label": "mapping(address => bool)",
        "numberOfBytes": "32",
        "value": "t_bool"
      },
      "t_mapping(t_address,t_mapping(t_address,t_bool))": {
        "encoding": "mapping",
        "key": "t_address",
        "label": "mapping(address => mapping(address => bool))",
        "numberOfBytes": "32",
        "value": "t_mapping(t_address,t_bool)"
      },
      "t_mapping(t_address,t_uint256)": {
        "encoding": "mapping",
        "key": "t_address",
        "label": "mapping(address => uint256)",
        "numberOfBytes": "32",
        "value": "t_uint256"
      },
      "t_mapping(t_uint256,t_mapping(t_address,t_uint256))": {
        "encoding": "mapping",
        "key": "t_uint256",
        "label": "mapping(uint256 => mapping(address => uint256))",
        "numberOfBytes": "32",
        "value": "t_mapping(t_address,t_uint256)"
      },
      "t_string_storage": {
        "encoding": "bytes",
        "label": "string",
        "numberOfBytes": "32"
      },
      "t_uint256": {
        "encoding": "inplace",
        "label": "uint256",
        "numberOfBytes": "32"
      },
      "t_uint8": {
        "encoding": "inplace",
        "label": "uint8",
        "numberOfBytes": "1"
      }
    }
  }
}