{
  "address": "0x87a80A2E3A42981973F20782625Dd3e7053Ae89f",
  "abi": [
    {
      "anonymous": false,
      "inputs": [
        {
          "indexed": true,
          "internalType": "address",
          "name": "owner",
          "type": "address"
        },
        {
          "indexed": true,
          "internalType": "address",
          "name": "spender",
          "type": "address"
        },
        {
          "indexed": false,
          "internalType": "uint256",
          "name": "value",
          "type": "uint256"
        }
      ],
      "name": "Approval",
      "type": "event"
    },
    {
      "anonymous": false,
      "inputs": [
        {
          "indexed": false,
          "internalType": "uint8",
          "name": "version",
          "type": "uint8"
        }
      ],
      "name": "Initialized",
      "type": "event"
    },
    {
      "anonymous": false,
      "inputs": [
        {
          "indexed": true,
          "internalType": "address",
          "name": "from",
          "type": "address"
        },
        {
          "indexed": true,
          "internalType": "address",
          "name": "to",
          "type": "address"
        },
        {
          "indexed": false,
          "internalType": "uint256",
          "name": "value",
          "type": "uint256"
        }
      ],
      "name": "Transfer",
      "type": "event"
    },
    {
      "inputs": [
        {
          "internalType": "address",
          "name": "owner",
          "type": "address"
        },
        {
          "internalType": "address",
          "name": "spender",
          "type": "address"
        }
      ],
      "name": "allowance",
      "outputs": [
        {
          "internalType": "uint256",
          "name": "",
          "type": "uint256"
        }
      ],
      "stateMutability": "view",
      "type": "function"
    },
    {
      "inputs": [
        {
          "internalType": "address",
          "name": "spender",
          "type": "address"
        },
        {
          "internalType": "uint256",
          "name": "amount",
          "type": "uint256"
        }
      ],
      "name": "approve",
      "outputs": [
        {
          "internalType": "bool",
          "name": "",
          "type": "bool"
        }
      ],
      "stateMutability": "nonpayable",
      "type": "function"
    },
    {
      "inputs": [
        {
          "internalType": "address",
          "name": "account",
          "type": "address"
        }
      ],
      "name": "balanceOf",
      "outputs": [
        {
          "internalType": "uint256",
          "name": "",
          "type": "uint256"
        }
      ],
      "stateMutability": "view",
      "type": "function"
    },
    {
      "inputs": [
        {
          "internalType": "address",
          "name": "_from",
          "type": "address"
        },
        {
          "internalType": "uint256",
          "name": "_amount",
          "type": "uint256"
        }
      ],
      "name": "burn",
      "outputs": [],
      "stateMutability": "nonpayable",
      "type": "function"
    },
    {
      "inputs": [],
      "name": "decimals",
      "outputs": [
        {
          "internalType": "uint8",
          "name": "",
          "type": "uint8"
        }
      ],
      "stateMutability": "view",
      "type": "function"
    },
    {
      "inputs": [
        {
          "internalType": "address",
          "name": "spender",
          "type": "address"
        },
        {
          "internalType": "uint256",
          "name": "subtractedValue",
          "type": "uint256"
        }
      ],
      "name": "decreaseAllowance",
      "outputs": [
        {
          "internalType": "bool",
          "name": "",
          "type": "bool"
        }
      ],
      "stateMutability": "nonpayable",
      "type": "function"
    },
    {
      "inputs": [
        {
          "internalType": "address",
          "name": "spender",
          "type": "address"
        },
        {
          "internalType": "uint256",
          "name": "addedValue",
          "type": "uint256"
        }
      ],
      "name": "increaseAllowance",
      "outputs": [
        {
          "internalType": "bool",
          "name": "",
          "type": "bool"
        }
      ],
      "stateMutability": "nonpayable",
      "type": "function"
    },
    {
      "inputs": [],
      "name": "initialize",
      "outputs": [],
      "stateMutability": "nonpayable",
      "type": "function"
    },
    {
      "inputs": [
        {
          "internalType": "address",
          "name": "_to",
          "type": "address"
        },
        {
          "internalType": "uint256",
          "name": "_amount",
          "type": "uint256"
        }
      ],
      "name": "mint",
      "outputs": [],
      "stateMutability": "nonpayable",
      "type": "function"
    },
    {
      "inputs": [],
      "name": "name",
      "outputs": [
        {
          "internalType": "string",
          "name": "",
          "type": "string"
        }
      ],
      "stateMutability": "view",
      "type": "function"
    },
    {
      "inputs": [],
      "name": "symbol",
      "outputs": [
        {
          "internalType": "string",
          "name": "",
          "type": "string"
        }
      ],
      "stateMutability": "view",
      "type": "function"
    },
    {
      "inputs": [],
      "name": "totalSupply",
      "outputs": [
        {
          "internalType": "uint256",
          "name": "",
          "type": "uint256"
        }
      ],
      "stateMutability": "view",
      "type": "function"
    },
    {
      "inputs": [
        {
          "internalType": "address",
          "name": "to",
          "type": "address"
        },
        {
          "internalType": "uint256",
          "name": "amount",
          "type": "uint256"
        }
      ],
      "name": "transfer",
      "outputs": [
        {
          "internalType": "bool",
          "name": "",
          "type": "bool"
        }
      ],
      "stateMutability": "nonpayable",
      "type": "function"
    },
    {
      "inputs": [
        {
          "internalType": "address",
          "name": "from",
          "type": "address"
        },
        {
          "internalType": "address",
          "name": "to",
          "type": "address"
        },
        {
          "internalType": "uint256",
          "name": "amount",
          "type": "uint256"
        }
      ],
      "name": "transferFrom",
      "outputs": [
        {
          "internalType": "bool",
          "name": "",
          "type": "bool"
        }
      ],
      "stateMutability": "nonpayable",
      "type": "function"
    }
  ],
  "transactionHash": "0x3a9fb3daea1bb47ef9e02d9de65986bbbf0a77a10c558db004955411665d042c",
  "args": [],
  "numDeployments": 1,
  "solcInputHash": "382b64b6cda7259ac2c94037600ab694",
  "bytecode": "0x608060405234801561001057600080fd5b50611e61806100206000396000f3fe608060405234801561001057600080fd5b50600436106100ea5760003560e01c806370a082311161008c5780639dc29fac116100665780639dc29fac1461024d578063a457c2d714610269578063a9059cbb14610299578063dd62ed3e146102c9576100ea565b806370a08231146101f55780638129fc1c1461022557806395d89b411461022f576100ea565b806323b872dd116100c857806323b872dd1461015b578063313ce5671461018b57806339509351146101a957806340c10f19146101d9576100ea565b806306fdde03146100ef578063095ea7b31461010d57806318160ddd1461013d575b600080fd5b6100f76102f9565b6040516101049190611187565b60405180910390f35b61012760048036038101906101229190611242565b61038b565b604051610134919061129d565b60405180910390f35b6101456103ae565b60405161015291906112c7565b60405180910390f35b610175600480360381019061017091906112e2565b6103b8565b604051610182919061129d565b60405180910390f35b6101936103e7565b6040516101a09190611351565b60405180910390f35b6101c360048036038101906101be9190611242565b6103f0565b6040516101d0919061129d565b60405180910390f35b6101f360048036038101906101ee9190611242565b610427565b005b61020f600480360381019061020a919061136c565b610435565b60405161021c91906112c7565b60405180910390f35b61022d61047e565b005b61023761063d565b6040516102449190611187565b60405180910390f35b61026760048036038101906102629190611242565b6106cf565b005b610283600480360381019061027e9190611242565b6106dd565b604051610290919061129d565b60405180910390f35b6102b360048036038101906102ae9190611242565b610754565b6040516102c0919061129d565b60405180910390f35b6102e360048036038101906102de9190611399565b610777565b6040516102f091906112c7565b60405180910390f35b60606036805461030890611408565b80601f016020809104026020016040519081016040528092919081815260200182805461033490611408565b80156103815780601f1061035657610100808354040283529160200191610381565b820191906000526020600020905b81548152906001019060200180831161036457829003601f168201915b5050505050905090565b6000806103966107fe565b90506103a3818585610806565b600191505092915050565b6000603554905090565b6000806103c36107fe565b90506103d08582856109cf565b6103db858585610a5b565b60019150509392505050565b60006012905090565b6000806103fb6107fe565b905061041c81858561040d8589610777565b6104179190611468565b610806565b600191505092915050565b6104318282610cd4565b5050565b6000603360008373ffffffffffffffffffffffffffffffffffffffff1673ffffffffffffffffffffffffffffffffffffffff168152602001908152602001600020549050919050565b60008060019054906101000a900460ff161590508080156104af5750600160008054906101000a900460ff1660ff16105b806104dc57506104be30610e2b565b1580156104db5750600160008054906101000a900460ff1660ff16145b5b61051b576040517f08c379a00000000000000000000000000000000000000000000000000000000081526004016105129061150e565b60405180910390fd5b60016000806101000a81548160ff021916908360ff1602179055508015610558576001600060016101000a81548160ff0219169083151502179055505b6105cc6040518060400160405280600a81526020017f4d6f636b20426f6e6573000000000000000000000000000000000000000000008152506040518060400160405280600681526020017f6d426f6e65730000000000000000000000000000000000000000000000000000815250610e4e565b6105e1336a084595161401484a000000610cd4565b801561063a5760008060016101000a81548160ff0219169083151502179055507f7f26b83ff96e1f2b6a682f133852f6798a09c465da95921460cefb384740249860016040516106319190611573565b60405180910390a15b50565b60606037805461064c90611408565b80601f016020809104026020016040519081016040528092919081815260200182805461067890611408565b80156106c55780601f1061069a576101008083540402835291602001916106c5565b820191906000526020600020905b8154815290600101906020018083116106a857829003601f168201915b5050505050905090565b6106d98282610eab565b5050565b6000806106e86107fe565b905060006106f68286610777565b90508381101561073b576040517f08c379a000000000000000000000000000000000000000000000000000000000815260040161073290611600565b60405180910390fd5b6107488286868403610806565b60019250505092915050565b60008061075f6107fe565b905061076c818585610a5b565b600191505092915050565b6000603460008473ffffffffffffffffffffffffffffffffffffffff1673ffffffffffffffffffffffffffffffffffffffff16815260200190815260200160002060008373ffffffffffffffffffffffffffffffffffffffff1673ffffffffffffffffffffffffffffffffffffffff16815260200190815260200160002054905092915050565b600033905090565b600073ffffffffffffffffffffffffffffffffffffffff168373ffffffffffffffffffffffffffffffffffffffff1603610875576040517f08c379a000000000000000000000000000000000000000000000000000000000815260040161086c90611692565b60405180910390fd5b600073ffffffffffffffffffffffffffffffffffffffff168273ffffffffffffffffffffffffffffffffffffffff16036108e4576040517f08c379a00000000000000000000000000000000000000000000000000000000081526004016108db90611724565b60405180910390fd5b80603460008573ffffffffffffffffffffffffffffffffffffffff1673ffffffffffffffffffffffffffffffffffffffff16815260200190815260200160002060008473ffffffffffffffffffffffffffffffffffffffff1673ffffffffffffffffffffffffffffffffffffffff168152602001908152602001600020819055508173ffffffffffffffffffffffffffffffffffffffff168373ffffffffffffffffffffffffffffffffffffffff167f8c5be1e5ebec7d5bd14f71427d1e84f3dd0314c0f7b2291e5b200ac8c7c3b925836040516109c291906112c7565b60405180910390a3505050565b60006109db8484610777565b90507fffffffffffffffffffffffffffffffffffffffffffffffffffffffffffffffff8114610a555781811015610a47576040517f08c379a0000000000000000000000000000000000000000000000000000000008152600401610a3e90611790565b60405180910390fd5b610a548484848403610806565b5b50505050565b600073ffffffffffffffffffffffffffffffffffffffff168373ffffffffffffffffffffffffffffffffffffffff1603610aca576040517f08c379a0000000000000000000000000000000000000000000000000000000008152600401610ac190611822565b60405180910390fd5b600073ffffffffffffffffffffffffffffffffffffffff168273ffffffffffffffffffffffffffffffffffffffff1603610b39576040517f08c379a0000000000000000000000000000000000000000000000000000000008152600401610b30906118b4565b60405180910390fd5b610b4483838361107a565b6000603360008573ffffffffffffffffffffffffffffffffffffffff1673ffffffffffffffffffffffffffffffffffffffff16815260200190815260200160002054905081811015610bcb576040517f08c379a0000000000000000000000000000000000000000000000000000000008152600401610bc290611946565b60405180910390fd5b818103603360008673ffffffffffffffffffffffffffffffffffffffff1673ffffffffffffffffffffffffffffffffffffffff1681526020019081526020016000208190555081603360008573ffffffffffffffffffffffffffffffffffffffff1673ffffffffffffffffffffffffffffffffffffffff168152602001908152602001600020600082825401925050819055508273ffffffffffffffffffffffffffffffffffffffff168473ffffffffffffffffffffffffffffffffffffffff167fddf252ad1be2c89b69c2b068fc378daa952ba7f163c4a11628f55a4df523b3ef84604051610cbb91906112c7565b60405180910390a3610cce84848461107f565b50505050565b600073ffffffffffffffffffffffffffffffffffffffff168273ffffffffffffffffffffffffffffffffffffffff1603610d43576040517f08c379a0000000000000000000000000000000000000000000000000000000008152600401610d3a906119b2565b60405180910390fd5b610d4f6000838361107a565b8060356000828254610d619190611468565b9250508190555080603360008473ffffffffffffffffffffffffffffffffffffffff1673ffffffffffffffffffffffffffffffffffffffff168152602001908152602001600020600082825401925050819055508173ffffffffffffffffffffffffffffffffffffffff16600073ffffffffffffffffffffffffffffffffffffffff167fddf252ad1be2c89b69c2b068fc378daa952ba7f163c4a11628f55a4df523b3ef83604051610e1391906112c7565b60405180910390a3610e276000838361107f565b5050565b6000808273ffffffffffffffffffffffffffffffffffffffff163b119050919050565b600060019054906101000a900460ff16610e9d576040517f08c379a0000000000000000000000000000000000000000000000000000000008152600401610e9490611a44565b60405180910390fd5b610ea78282611084565b5050565b600073ffffffffffffffffffffffffffffffffffffffff168273ffffffffffffffffffffffffffffffffffffffff1603610f1a576040517f08c379a0000000000000000000000000000000000000000000000000000000008152600401610f1190611ad6565b60405180910390fd5b610f268260008361107a565b6000603360008473ffffffffffffffffffffffffffffffffffffffff1673ffffffffffffffffffffffffffffffffffffffff16815260200190815260200160002054905081811015610fad576040517f08c379a0000000000000000000000000000000000000000000000000000000008152600401610fa490611b68565b60405180910390fd5b818103603360008573ffffffffffffffffffffffffffffffffffffffff1673ffffffffffffffffffffffffffffffffffffffff1681526020019081526020016000208190555081603560008282540392505081905550600073ffffffffffffffffffffffffffffffffffffffff168373ffffffffffffffffffffffffffffffffffffffff167fddf252ad1be2c89b69c2b068fc378daa952ba7f163c4a11628f55a4df523b3ef8460405161106191906112c7565b60405180910390a36110758360008461107f565b505050565b505050565b505050565b600060019054906101000a900460ff166110d3576040517f08c379a00000000000000000000000000000000000000000000000000000000081526004016110ca90611a44565b60405180910390fd5b81603690816110e29190611d59565b5080603790816110f29190611d59565b505050565b600081519050919050565b600082825260208201905092915050565b60005b83811015611131578082015181840152602081019050611116565b60008484015250505050565b6000601f19601f8301169050919050565b6000611159826110f7565b6111638185611102565b9350611173818560208601611113565b61117c8161113d565b840191505092915050565b600060208201905081810360008301526111a1818461114e565b905092915050565b600080fd5b600073ffffffffffffffffffffffffffffffffffffffff82169050919050565b60006111d9826111ae565b9050919050565b6111e9816111ce565b81146111f457600080fd5b50565b600081359050611206816111e0565b92915050565b6000819050919050565b61121f8161120c565b811461122a57600080fd5b50565b60008135905061123c81611216565b92915050565b60008060408385031215611259576112586111a9565b5b6000611267858286016111f7565b92505060206112788582860161122d565b9150509250929050565b60008115159050919050565b61129781611282565b82525050565b60006020820190506112b2600083018461128e565b92915050565b6112c18161120c565b82525050565b60006020820190506112dc60008301846112b8565b92915050565b6000806000606084860312156112fb576112fa6111a9565b5b6000611309868287016111f7565b935050602061131a868287016111f7565b925050604061132b8682870161122d565b9150509250925092565b600060ff82169050919050565b61134b81611335565b82525050565b60006020820190506113666000830184611342565b92915050565b600060208284031215611382576113816111a9565b5b6000611390848285016111f7565b91505092915050565b600080604083850312156113b0576113af6111a9565b5b60006113be858286016111f7565b92505060206113cf858286016111f7565b9150509250929050565b7f4e487b7100000000000000000000000000000000000000000000000000000000600052602260045260246000fd5b6000600282049050600182168061142057607f821691505b602082108103611433576114326113d9565b5b50919050565b7f4e487b7100000000000000000000000000000000000000000000000000000000600052601160045260246000fd5b60006114738261120c565b915061147e8361120c565b925082820190508082111561149657611495611439565b5b92915050565b7f496e697469616c697a61626c653a20636f6e747261637420697320616c72656160008201527f647920696e697469616c697a6564000000000000000000000000000000000000602082015250565b60006114f8602e83611102565b91506115038261149c565b604082019050919050565b60006020820190508181036000830152611527816114eb565b9050919050565b6000819050919050565b6000819050919050565b600061155d6115586115538461152e565b611538565b611335565b9050919050565b61156d81611542565b82525050565b60006020820190506115886000830184611564565b92915050565b7f45524332303a2064656372656173656420616c6c6f77616e63652062656c6f7760008201527f207a65726f000000000000000000000000000000000000000000000000000000602082015250565b60006115ea602583611102565b91506115f58261158e565b604082019050919050565b60006020820190508181036000830152611619816115dd565b9050919050565b7f45524332303a20617070726f76652066726f6d20746865207a65726f2061646460008201527f7265737300000000000000000000000000000000000000000000000000000000602082015250565b600061167c602483611102565b915061168782611620565b604082019050919050565b600060208201905081810360008301526116ab8161166f565b9050919050565b7f45524332303a20617070726f766520746f20746865207a65726f20616464726560008201527f7373000000000000000000000000000000000000000000000000000000000000602082015250565b600061170e602283611102565b9150611719826116b2565b604082019050919050565b6000602082019050818103600083015261173d81611701565b9050919050565b7f45524332303a20696e73756666696369656e7420616c6c6f77616e6365000000600082015250565b600061177a601d83611102565b915061178582611744565b602082019050919050565b600060208201905081810360008301526117a98161176d565b9050919050565b7f45524332303a207472616e736665722066726f6d20746865207a65726f20616460008201527f6472657373000000000000000000000000000000000000000000000000000000602082015250565b600061180c602583611102565b9150611817826117b0565b604082019050919050565b6000602082019050818103600083015261183b816117ff565b9050919050565b7f45524332303a207472616e7366657220746f20746865207a65726f206164647260008201527f6573730000000000000000000000000000000000000000000000000000000000602082015250565b600061189e602383611102565b91506118a982611842565b604082019050919050565b600060208201905081810360008301526118cd81611891565b9050919050565b7f45524332303a207472616e7366657220616d6f756e742065786365656473206260008201527f616c616e63650000000000000000000000000000000000000000000000000000602082015250565b6000611930602683611102565b915061193b826118d4565b604082019050919050565b6000602082019050818103600083015261195f81611923565b9050919050565b7f45524332303a206d696e7420746f20746865207a65726f206164647265737300600082015250565b600061199c601f83611102565b91506119a782611966565b602082019050919050565b600060208201905081810360008301526119cb8161198f565b9050919050565b7f496e697469616c697a61626c653a20636f6e7472616374206973206e6f74206960008201527f6e697469616c697a696e67000000000000000000000000000000000000000000602082015250565b6000611a2e602b83611102565b9150611a39826119d2565b604082019050919050565b60006020820190508181036000830152611a5d81611a21565b9050919050565b7f45524332303a206275726e2066726f6d20746865207a65726f2061646472657360008201527f7300000000000000000000000000000000000000000000000000000000000000602082015250565b6000611ac0602183611102565b9150611acb82611a64565b604082019050919050565b60006020820190508181036000830152611aef81611ab3565b9050919050565b7f45524332303a206275726e20616d6f756e7420657863656564732062616c616e60008201527f6365000000000000000000000000000000000000000000000000000000000000602082015250565b6000611b52602283611102565b9150611b5d82611af6565b604082019050919050565b60006020820190508181036000830152611b8181611b45565b9050919050565b7f4e487b7100000000000000000000000000000000000000000000000000000000600052604160045260246000fd5b60008190508160005260206000209050919050565b60006020601f8301049050919050565b600082821b905092915050565b600060088302611c197fffffffffffffffffffffffffffffffffffffffffffffffffffffffffffffffff82611bdc565b611c238683611bdc565b95508019841693508086168417925050509392505050565b6000611c56611c51611c4c8461120c565b611538565b61120c565b9050919050565b6000819050919050565b611c7083611c3b565b611c84611c7c82611c5d565b848454611be9565b825550505050565b600090565b611c99611c8c565b611ca4818484611c67565b505050565b5b81811015611cc857611cbd600082611c91565b600181019050611caa565b5050565b601f821115611d0d57611cde81611bb7565b611ce784611bcc565b81016020851015611cf6578190505b611d0a611d0285611bcc565b830182611ca9565b50505b505050565b600082821c905092915050565b6000611d3060001984600802611d12565b1980831691505092915050565b6000611d498383611d1f565b9150826002028217905092915050565b611d62826110f7565b67ffffffffffffffff811115611d7b57611d7a611b88565b5b611d858254611408565b611d90828285611ccc565b600060209050601f831160018114611dc35760008415611db1578287015190505b611dbb8582611d3d565b865550611e23565b601f198416611dd186611bb7565b60005b82811015611df957848901518255600182019150602085019450602081019050611dd4565b86831015611e165784890151611e12601f891682611d1f565b8355505b6001600288020188555050505b50505050505056fea2646970667358221220a7197b9ae11ee1bd8d57ff144e00931a1995c2eb72efd9e8fe80f6d20dadf8e664736f6c63430008120033",
  "devdoc": {
    "events": {
      "Approval(address,address,uint256)": {
        "details": "Emitted when the allowance of a `spender` for an `owner` is set by a call to {approve}. `value` is the new allowance."
      },
      "Initialized(uint8)": {
        "details": "Triggered when the contract has been initialized or reinitialized."
      },
      "Transfer(address,address,uint256)": {
        "details": "Emitted when `value` tokens are moved from one account (`from`) to another (`to`). Note that `value` may be zero."
      }
    },
    "kind": "dev",
    "methods": {
      "allowance(address,address)": {
        "details": "See {IERC20-allowance}."
      },
      "approve(address,uint256)": {
        "details": "See {IERC20-approve}. NOTE: If `amount` is the maximum `uint256`, the allowance is not updated on `transferFrom`. This is semantically equivalent to an infinite approval. Requirements: - `spender` cannot be the zero address."
      },
      "balanceOf(address)": {
        "details": "See {IERC20-balanceOf}."
      },
      "decimals()": {
        "details": "Returns the number of decimals used to get its user representation. For example, if `decimals` equals `2`, a balance of `505` tokens should be displayed to a user as `5.05` (`505 / 10 ** 2`). Tokens usually opt for a value of 18, imitating the relationship between Ether and Wei. This is the value {ERC20} uses, unless this function is overridden; NOTE: This information is only used for _display_ purposes: it in no way affects any of the arithmetic of the contract, including {IERC20-balanceOf} and {IERC20-transfer}."
      },
      "decreaseAllowance(address,uint256)": {
        "details": "Atomically decreases the allowance granted to `spender` by the caller. This is an alternative to {approve} that can be used as a mitigation for problems described in {IERC20-approve}. Emits an {Approval} event indicating the updated allowance. Requirements: - `spender` cannot be the zero address. - `spender` must have allowance for the caller of at least `subtractedValue`."
      },
      "increaseAllowance(address,uint256)": {
        "details": "Atomically increases the allowance granted to `spender` by the caller. This is an alternative to {approve} that can be used as a mitigation for problems described in {IERC20-approve}. Emits an {Approval} event indicating the updated allowance. Requirements: - `spender` cannot be the zero address."
      },
      "name()": {
        "details": "Returns the name of the token."
      },
      "symbol()": {
        "details": "Returns the symbol of the token, usually a shorter version of the name."
      },
      "totalSupply()": {
        "details": "See {IERC20-totalSupply}."
      },
      "transfer(address,uint256)": {
        "details": "See {IERC20-transfer}. Requirements: - `to` cannot be the zero address. - the caller must have a balance of at least `amount`."
      },
      "transferFrom(address,address,uint256)": {
        "details": "See {IERC20-transferFrom}. Emits an {Approval} event indicating the updated allowance. This is not required by the EIP. See the note at the beginning of {ERC20}. NOTE: Does not update the allowance if the current allowance is the maximum `uint256`. Requirements: - `from` and `to` cannot be the zero address. - `from` must have a balance of at least `amount`. - the caller must have allowance for ``from``'s tokens of at least `amount`."
      }
    },
    "version": 1
  },
  "userdoc": {
    "kind": "user",
    "methods": {},
    "version": 1
  },
  "storageLayout": {
    "storage": [
      {
        "astId": 415,
        "contract": "contracts/mocks/Token.sol:Token",
        "label": "_initialized",
        "offset": 0,
        "slot": "0",
        "type": "t_uint8"
      },
      {
        "astId": 418,
        "contract": "contracts/mocks/Token.sol:Token",
        "label": "_initializing",
        "offset": 1,
        "slot": "0",
        "type": "t_bool"
      },
      {
        "astId": 4665,
        "contract": "contracts/mocks/Token.sol:Token",
        "label": "__gap",
        "offset": 0,
        "slot": "1",
        "type": "t_array(t_uint256)50_storage"
      },
      {
        "astId": 2108,
        "contract": "contracts/mocks/Token.sol:Token",
        "label": "_balances",
        "offset": 0,
        "slot": "51",
        "type": "t_mapping(t_address,t_uint256)"
      },
      {
        "astId": 2114,
        "contract": "contracts/mocks/Token.sol:Token",
        "label": "_allowances",
        "offset": 0,
        "slot": "52",
        "type": "t_mapping(t_address,t_mapping(t_address,t_uint256))"
      },
      {
        "astId": 2116,
        "contract": "contracts/mocks/Token.sol:Token",
        "label": "_totalSupply",
        "offset": 0,
        "slot": "53",
        "type": "t_uint256"
      },
      {
        "astId": 2118,
        "contract": "contracts/mocks/Token.sol:Token",
        "label": "_name",
        "offset": 0,
        "slot": "54",
        "type": "t_string_storage"
      },
      {
        "astId": 2120,
        "contract": "contracts/mocks/Token.sol:Token",
        "label": "_symbol",
        "offset": 0,
        "slot": "55",
        "type": "t_string_storage"
      },
      {
        "astId": 2700,
        "contract": "contracts/mocks/Token.sol:Token",
        "label": "__gap",
        "offset": 0,
        "slot": "56",
        "type": "t_array(t_uint256)45_storage"
      }
    ],
    "types": {
      "t_address": {
        "encoding": "inplace",
        "label": "address",
        "numberOfBytes": "20"
      },
      "t_array(t_uint256)45_storage": {
        "base": "t_uint256",
        "encoding": "inplace",
        "label": "uint256[45]",
        "numberOfBytes": "1440"
      },
      "t_array(t_uint256)50_storage": {
        "base": "t_uint256",
        "encoding": "inplace",
        "label": "uint256[50]",
        "numberOfBytes": "1600"
      },
      "t_bool": {
        "encoding": "inplace",
        "label": "bool",
        "numberOfBytes": "1"
      },
      "t_mapping(t_address,t_mapping(t_address,t_uint256))": {
        "encoding": "mapping",
        "key": "t_address",
        "label": "mapping(address => mapping(address => uint256))",
        "numberOfBytes": "32",
        "value": "t_mapping(t_address,t_uint256)"
      },
      "t_mapping(t_address,t_uint256)": {
        "encoding": "mapping",
        "key": "t_address",
        "label": "mapping(address => uint256)",
        "numberOfBytes": "32",
        "value": "t_uint256"
      },
      "t_string_storage": {
        "encoding": "bytes",
        "label": "string",
        "numberOfBytes": "32"
      },
      "t_uint256": {
        "encoding": "inplace",
        "label": "uint256",
        "numberOfBytes": "32"
      },
      "t_uint8": {
        "encoding": "inplace",
        "label": "uint8",
        "numberOfBytes": "1"
      }
    }
  }
}