{
  "_format": "hh-sol-artifact-1",
  "contractName": "Caves",
  "sourceName": "contracts/Caves.sol",
  "abi": [
    {
      "inputs": [],
      "name": "DevelopmentGroundIsLocked",
      "type": "error"
    },
    {
      "inputs": [],
      "name": "NeandersmolsIsLocked",
      "type": "error"
    },
    {
      "inputs": [],
      "name": "NotYourToken",
      "type": "error"
    },
    {
      "inputs": [],
      "name": "ZeroBalanceError",
      "type": "error"
    },
    {
      "anonymous": false,
      "inputs": [
        {
          "indexed": true,
          "internalType": "address",
          "name": "owner",
          "type": "address"
        },
        {
          "indexed": true,
          "internalType": "uint256",
          "name": "tokenId",
          "type": "uint256"
        },
        {
          "indexed": true,
          "internalType": "uint256",
          "name": "amount",
          "type": "uint256"
        }
      ],
      "name": "ClaimCaveReward",
      "type": "event"
    },
    {
      "anonymous": false,
      "inputs": [
        {
          "indexed": true,
          "internalType": "address",
          "name": "owner",
          "type": "address"
        },
        {
          "indexed": true,
          "internalType": "uint256",
          "name": "tokenId",
          "type": "uint256"
        },
        {
          "indexed": true,
          "internalType": "uint256",
          "name": "stakeTime",
          "type": "uint256"
        }
      ],
      "name": "EnterCaves",
      "type": "event"
    },
    {
      "anonymous": false,
      "inputs": [
        {
          "indexed": false,
          "internalType": "uint8",
          "name": "version",
          "type": "uint8"
        }
      ],
      "name": "Initialized",
      "type": "event"
    },
    {
      "anonymous": false,
      "inputs": [
        {
          "indexed": true,
          "internalType": "address",
          "name": "owner",
          "type": "address"
        },
        {
          "indexed": true,
          "internalType": "uint256",
          "name": "tokenId",
          "type": "uint256"
        }
      ],
      "name": "LeaveCave",
      "type": "event"
    },
    {
      "inputs": [],
      "name": "bones",
      "outputs": [
        {
          "internalType": "contract IBones",
          "name": "",
          "type": "address"
        }
      ],
      "stateMutability": "view",
      "type": "function"
    },
    {
      "inputs": [
        {
          "internalType": "uint256[]",
          "name": "_tokenId",
          "type": "uint256[]"
        }
      ],
      "name": "claimCaveReward",
      "outputs": [],
      "stateMutability": "nonpayable",
      "type": "function"
    },
    {
      "inputs": [
        {
          "internalType": "uint256[]",
          "name": "_tokenId",
          "type": "uint256[]"
        }
      ],
      "name": "enterCaves",
      "outputs": [],
      "stateMutability": "nonpayable",
      "type": "function"
    },
    {
      "inputs": [
        {
          "internalType": "uint256",
          "name": "_tokenId",
          "type": "uint256"
        }
      ],
      "name": "getCavesInfo",
      "outputs": [
        {
          "components": [
            {
              "internalType": "address",
              "name": "owner",
              "type": "address"
            },
            {
              "internalType": "uint48",
              "name": "stakingTime",
              "type": "uint48"
            },
            {
              "internalType": "uint48",
              "name": "lastRewardTimestamp",
              "type": "uint48"
            }
          ],
          "internalType": "struct Cave",
          "name": "",
          "type": "tuple"
        }
      ],
      "stateMutability": "view",
      "type": "function"
    },
    {
      "inputs": [
        {
          "internalType": "uint256",
          "name": "_tokenId",
          "type": "uint256"
        }
      ],
      "name": "getCavesReward",
      "outputs": [
        {
          "internalType": "uint256",
          "name": "",
          "type": "uint256"
        }
      ],
      "stateMutability": "view",
      "type": "function"
    },
    {
      "inputs": [
        {
          "internalType": "address",
          "name": "_owner",
          "type": "address"
        }
      ],
      "name": "getStakedTokens",
      "outputs": [
        {
          "internalType": "uint256[]",
          "name": "res",
          "type": "uint256[]"
        }
      ],
      "stateMutability": "view",
      "type": "function"
    },
    {
      "inputs": [
        {
          "internalType": "address",
          "name": "_pits",
          "type": "address"
        },
        {
          "internalType": "address",
          "name": "_bones",
          "type": "address"
        },
        {
          "internalType": "address",
          "name": "_neandersmol",
          "type": "address"
        }
      ],
      "name": "initialize",
      "outputs": [],
      "stateMutability": "nonpayable",
      "type": "function"
    },
    {
      "inputs": [
        {
          "internalType": "uint256[]",
          "name": "_tokenId",
          "type": "uint256[]"
        }
      ],
      "name": "leaveCave",
      "outputs": [],
      "stateMutability": "nonpayable",
      "type": "function"
    },
    {
      "inputs": [],
      "name": "neandersmol",
      "outputs": [
        {
          "internalType": "contract INeandersmol",
          "name": "",
          "type": "address"
        }
      ],
      "stateMutability": "view",
      "type": "function"
    },
    {
      "inputs": [],
      "name": "pits",
      "outputs": [
        {
          "internalType": "contract IPits",
          "name": "",
          "type": "address"
        }
      ],
      "stateMutability": "view",
      "type": "function"
    }
  ],
  "bytecode": "0x608060405234801561001057600080fd5b506119b5806100206000396000f3fe608060405234801561001057600080fd5b506004361061009e5760003560e01c80638de38dda116100665780638de38dda14610145578063b00bec6514610175578063c0c53b8b14610193578063d88ad887146101af578063eee0eaa0146101cd5761009e565b80633336ddde146100a357806342f390d4146100bf5780635ac384be146100db57806363c28db1146100f75780637fd4bfd514610127575b600080fd5b6100bd60048036038101906100b891906111af565b6101fd565b005b6100d960048036038101906100d491906111af565b61056e565b005b6100f560048036038101906100f091906111af565b6108bb565b005b610111600480360381019061010c919061125a565b6108fb565b60405161011e919061134f565b60405180910390f35b61012f610992565b60405161013c91906113d0565b60405180910390f35b61015f600480360381019061015a9190611417565b6109b8565b60405161016c91906114b6565b60405180910390f35b61017d610a93565b60405161018a91906114f2565b60405180910390f35b6101ad60048036038101906101a8919061150d565b610ab9565b005b6101b7610cb5565b6040516101c49190611581565b60405180910390f35b6101e760048036038101906101e29190611417565b610cdb565b6040516101f491906115ab565b60405180910390f35b60005b828290508110156105695760008383838181106102205761021f6115c6565b5b9050602002013590506000600360008381526020019081526020016000206040518060600160405290816000820160009054906101000a900473ffffffffffffffffffffffffffffffffffffffff1673ffffffffffffffffffffffffffffffffffffffff1673ffffffffffffffffffffffffffffffffffffffff1681526020016000820160149054906101000a900465ffffffffffff1665ffffffffffff1665ffffffffffff16815260200160008201601a9054906101000a900465ffffffffffff1665ffffffffffff1665ffffffffffff168152505090503373ffffffffffffffffffffffffffffffffffffffff16816000015173ffffffffffffffffffffffffffffffffffffffff1614610362576040517f091fe61c00000000000000000000000000000000000000000000000000000000815260040160405180910390fd5b4281602001516283d6006103769190611624565b65ffffffffffff1611156103b6576040517ff5dcc1e300000000000000000000000000000000000000000000000000000000815260040160405180910390fd5b60006103c183610cdb565b146103d0576103cf82610e18565b5b610418600460003373ffffffffffffffffffffffffffffffffffffffff1673ffffffffffffffffffffffffffffffffffffffff16815260200190815260200160002083610f70565b60036000838152602001908152602001600020600080820160006101000a81549073ffffffffffffffffffffffffffffffffffffffff02191690556000820160146101000a81549065ffffffffffff021916905560008201601a6101000a81549065ffffffffffff02191690555050600260009054906101000a900473ffffffffffffffffffffffffffffffffffffffff1673ffffffffffffffffffffffffffffffffffffffff166323b872dd3033856040518463ffffffff1660e01b81526004016104e69392919061166d565b600060405180830381600087803b15801561050057600080fd5b505af1158015610514573d6000803e3d6000fd5b50505050813373ffffffffffffffffffffffffffffffffffffffff167fbbfb105669b1ae5c41fb02f67b40def517f625498c28079e8afc15538710ef5d60405160405180910390a38260010192505050610200565b505050565b610599600060029054906101000a900473ffffffffffffffffffffffffffffffffffffffff1661102e565b60005b828290508110156108b65760008383838181106105bc576105bb6115c6565b5b90506020020135905060006003600083815260200190815260200160002090503373ffffffffffffffffffffffffffffffffffffffff16600260009054906101000a900473ffffffffffffffffffffffffffffffffffffffff1673ffffffffffffffffffffffffffffffffffffffff16636352211e846040518263ffffffff1660e01b815260040161064e91906115ab565b602060405180830381865afa15801561066b573d6000803e3d6000fd5b505050506040513d601f19601f8201168201806040525081019061068f91906116b9565b73ffffffffffffffffffffffffffffffffffffffff16146106dc576040517f091fe61c00000000000000000000000000000000000000000000000000000000815260040160405180910390fd5b600260009054906101000a900473ffffffffffffffffffffffffffffffffffffffff1673ffffffffffffffffffffffffffffffffffffffff166323b872dd3330856040518463ffffffff1660e01b815260040161073b9392919061166d565b600060405180830381600087803b15801561075557600080fd5b505af1158015610769573d6000803e3d6000fd5b50505050338160000160006101000a81548173ffffffffffffffffffffffffffffffffffffffff021916908373ffffffffffffffffffffffffffffffffffffffff160217905550428160000160146101000a81548165ffffffffffff021916908365ffffffffffff1602179055504281600001601a6101000a81548165ffffffffffff021916908365ffffffffffff160217905550600460003373ffffffffffffffffffffffffffffffffffffffff1673ffffffffffffffffffffffffffffffffffffffff16815260200190815260200160002082908060018154018082558091505060019003906000526020600020016000909190919091505542823373ffffffffffffffffffffffffffffffffffffffff167fc691aa41315aadaa128475ed80fa49569e5bd8ce86b076d71695700d4972014760405160405180910390a4826001019250505061059c565b505050565b60005b828290508110156108f6576108eb8383838181106108df576108de6115c6565b5b90506020020135610e18565b8060010190506108be565b505050565b6060600460008373ffffffffffffffffffffffffffffffffffffffff1673ffffffffffffffffffffffffffffffffffffffff16815260200190815260200160002080548060200260200160405190810160405280929190818152602001828054801561098657602002820191906000526020600020905b815481526020019060010190808311610972575b50505050509050919050565b600060029054906101000a900473ffffffffffffffffffffffffffffffffffffffff1681565b6109c06110f9565b600360008381526020019081526020016000206040518060600160405290816000820160009054906101000a900473ffffffffffffffffffffffffffffffffffffffff1673ffffffffffffffffffffffffffffffffffffffff1673ffffffffffffffffffffffffffffffffffffffff1681526020016000820160149054906101000a900465ffffffffffff1665ffffffffffff1665ffffffffffff16815260200160008201601a9054906101000a900465ffffffffffff1665ffffffffffff1665ffffffffffff16815250509050919050565b600260009054906101000a900473ffffffffffffffffffffffffffffffffffffffff1681565b60008060019054906101000a900460ff16159050808015610aea5750600160008054906101000a900460ff1660ff16105b80610b175750610af9306110d6565b158015610b165750600160008054906101000a900460ff1660ff16145b5b610b56576040517f08c379a0000000000000000000000000000000000000000000000000000000008152600401610b4d90611769565b60405180910390fd5b60016000806101000a81548160ff021916908360ff1602179055508015610b93576001600060016101000a81548160ff0219169083151502179055505b82600160006101000a81548173ffffffffffffffffffffffffffffffffffffffff021916908373ffffffffffffffffffffffffffffffffffffffff16021790555083600060026101000a81548173ffffffffffffffffffffffffffffffffffffffff021916908373ffffffffffffffffffffffffffffffffffffffff16021790555081600260006101000a81548173ffffffffffffffffffffffffffffffffffffffff021916908373ffffffffffffffffffffffffffffffffffffffff1602179055508015610caf5760008060016101000a81548160ff0219169083151502179055507f7f26b83ff96e1f2b6a682f133852f6798a09c465da95921460cefb38474024986001604051610ca691906117d1565b60405180910390a15b50505050565b600160009054906101000a900473ffffffffffffffffffffffffffffffffffffffff1681565b600080600360008481526020019081526020016000206040518060600160405290816000820160009054906101000a900473ffffffffffffffffffffffffffffffffffffffff1673ffffffffffffffffffffffffffffffffffffffff1673ffffffffffffffffffffffffffffffffffffffff1681526020016000820160149054906101000a900465ffffffffffff1665ffffffffffff1665ffffffffffff16815260200160008201601a9054906101000a900465ffffffffffff1665ffffffffffff1665ffffffffffff168152505090506000816040015165ffffffffffff1603610dca576000915050610e13565b670de0b6b3a7640000600a62015180836040015165ffffffffffff1642610df191906117ec565b610dfb919061184f565b610e059190611880565b610e0f9190611880565b9150505b919050565b6000610e2382610cdb565b905060008103610e5f576040517f9b4bb81b00000000000000000000000000000000000000000000000000000000815260040160405180910390fd5b4260036000848152602001908152602001600020600001601a6101000a81548165ffffffffffff021916908365ffffffffffff160217905550600160009054906101000a900473ffffffffffffffffffffffffffffffffffffffff1673ffffffffffffffffffffffffffffffffffffffff166340c10f1933836040518363ffffffff1660e01b8152600401610ef59291906118c2565b600060405180830381600087803b158015610f0f57600080fd5b505af1158015610f23573d6000803e3d6000fd5b5050505080823373ffffffffffffffffffffffffffffffffffffffff167f97c662bac04c9fd14924d37fb5267cb2203e308f338f2c92418adecab0681b2a60405160405180910390a45050565b60005b82805490508110156110295781838281548110610f9357610f926115c6565b5b90600052602060002001540361101e578260018480549050610fb591906117ec565b81548110610fc657610fc56115c6565b5b9060005260206000200154838281548110610fe457610fe36115c6565b5b906000526020600020018190555082805480611003576110026118eb565b5b60019003818190600052602060002001600090559055611029565b806001019050610f73565b505050565b8073ffffffffffffffffffffffffffffffffffffffff1663ae4b37e46040518163ffffffff1660e01b8152600401602060405180830381865afa158015611079573d6000803e3d6000fd5b505050506040513d601f19601f8201168201806040525081019061109d9190611952565b6110d3576040517f288de97200000000000000000000000000000000000000000000000000000000815260040160405180910390fd5b50565b6000808273ffffffffffffffffffffffffffffffffffffffff163b119050919050565b6040518060600160405280600073ffffffffffffffffffffffffffffffffffffffff168152602001600065ffffffffffff168152602001600065ffffffffffff1681525090565b600080fd5b600080fd5b600080fd5b600080fd5b600080fd5b60008083601f84011261116f5761116e61114a565b5b8235905067ffffffffffffffff81111561118c5761118b61114f565b5b6020830191508360208202830111156111a8576111a7611154565b5b9250929050565b600080602083850312156111c6576111c5611140565b5b600083013567ffffffffffffffff8111156111e4576111e3611145565b5b6111f085828601611159565b92509250509250929050565b600073ffffffffffffffffffffffffffffffffffffffff82169050919050565b6000611227826111fc565b9050919050565b6112378161121c565b811461124257600080fd5b50565b6000813590506112548161122e565b92915050565b6000602082840312156112705761126f611140565b5b600061127e84828501611245565b91505092915050565b600081519050919050565b600082825260208201905092915050565b6000819050602082019050919050565b6000819050919050565b6112c6816112b3565b82525050565b60006112d883836112bd565b60208301905092915050565b6000602082019050919050565b60006112fc82611287565b6113068185611292565b9350611311836112a3565b8060005b8381101561134257815161132988826112cc565b9750611334836112e4565b925050600181019050611315565b5085935050505092915050565b6000602082019050818103600083015261136981846112f1565b905092915050565b6000819050919050565b600061139661139161138c846111fc565b611371565b6111fc565b9050919050565b60006113a88261137b565b9050919050565b60006113ba8261139d565b9050919050565b6113ca816113af565b82525050565b60006020820190506113e560008301846113c1565b92915050565b6113f4816112b3565b81146113ff57600080fd5b50565b600081359050611411816113eb565b92915050565b60006020828403121561142d5761142c611140565b5b600061143b84828501611402565b91505092915050565b61144d8161121c565b82525050565b600065ffffffffffff82169050919050565b61146e81611453565b82525050565b60608201600082015161148a6000850182611444565b50602082015161149d6020850182611465565b5060408201516114b06040850182611465565b50505050565b60006060820190506114cb6000830184611474565b92915050565b60006114dc8261139d565b9050919050565b6114ec816114d1565b82525050565b600060208201905061150760008301846114e3565b92915050565b60008060006060848603121561152657611525611140565b5b600061153486828701611245565b935050602061154586828701611245565b925050604061155686828701611245565b9150509250925092565b600061156b8261139d565b9050919050565b61157b81611560565b82525050565b60006020820190506115966000830184611572565b92915050565b6115a5816112b3565b82525050565b60006020820190506115c0600083018461159c565b92915050565b7f4e487b7100000000000000000000000000000000000000000000000000000000600052603260045260246000fd5b7f4e487b7100000000000000000000000000000000000000000000000000000000600052601160045260246000fd5b600061162f82611453565b915061163a83611453565b9250828201905065ffffffffffff811115611658576116576115f5565b5b92915050565b6116678161121c565b82525050565b6000606082019050611682600083018661165e565b61168f602083018561165e565b61169c604083018461159c565b949350505050565b6000815190506116b38161122e565b92915050565b6000602082840312156116cf576116ce611140565b5b60006116dd848285016116a4565b91505092915050565b600082825260208201905092915050565b7f496e697469616c697a61626c653a20636f6e747261637420697320616c72656160008201527f647920696e697469616c697a6564000000000000000000000000000000000000602082015250565b6000611753602e836116e6565b915061175e826116f7565b604082019050919050565b6000602082019050818103600083015261178281611746565b9050919050565b6000819050919050565b600060ff82169050919050565b60006117bb6117b66117b184611789565b611371565b611793565b9050919050565b6117cb816117a0565b82525050565b60006020820190506117e660008301846117c2565b92915050565b60006117f7826112b3565b9150611802836112b3565b925082820390508181111561181a576118196115f5565b5b92915050565b7f4e487b7100000000000000000000000000000000000000000000000000000000600052601260045260246000fd5b600061185a826112b3565b9150611865836112b3565b92508261187557611874611820565b5b828204905092915050565b600061188b826112b3565b9150611896836112b3565b92508282026118a4816112b3565b915082820484148315176118bb576118ba6115f5565b5b5092915050565b60006040820190506118d7600083018561165e565b6118e4602083018461159c565b9392505050565b7f4e487b7100000000000000000000000000000000000000000000000000000000600052603160045260246000fd5b60008115159050919050565b61192f8161191a565b811461193a57600080fd5b50565b60008151905061194c81611926565b92915050565b60006020828403121561196857611967611140565b5b60006119768482850161193d565b9150509291505056fea2646970667358221220f63822779ebdc3958709018b923e07967605fd02b531998af85aeea77fd4d6e064736f6c63430008110033",
  "linkReferences": {},
  "deployedLinkReferences": {}
}