{
  "_format": "hh-sol-artifact-1",
  "contractName": "Consumables",
  "sourceName": "contracts/Consumables.sol",
  "abi": [
    {
      "inputs": [],
      "name": "NewOwnerIsZeroAddress",
      "type": "error"
    },
    {
      "inputs": [],
      "name": "NoHandoverRequest",
      "type": "error"
    },
    {
      "inputs": [],
      "name": "NotAuthorized",
      "type": "error"
    },
    {
      "inputs": [],
      "name": "Unauthorized",
      "type": "error"
    },
    {
      "anonymous": false,
      "inputs": [
        {
          "indexed": true,
          "internalType": "address",
          "name": "account",
          "type": "address"
        },
        {
          "indexed": true,
          "internalType": "address",
          "name": "operator",
          "type": "address"
        },
        {
          "indexed": false,
          "internalType": "bool",
          "name": "approved",
          "type": "bool"
        }
      ],
      "name": "ApprovalForAll",
      "type": "event"
    },
    {
      "anonymous": false,
      "inputs": [
        {
          "indexed": false,
          "internalType": "uint8",
          "name": "version",
          "type": "uint8"
        }
      ],
      "name": "Initialized",
      "type": "event"
    },
    {
      "anonymous": false,
      "inputs": [
        {
          "indexed": true,
          "internalType": "address",
          "name": "pendingOwner",
          "type": "address"
        }
      ],
      "name": "OwnershipHandoverCanceled",
      "type": "event"
    },
    {
      "anonymous": false,
      "inputs": [
        {
          "indexed": true,
          "internalType": "address",
          "name": "pendingOwner",
          "type": "address"
        }
      ],
      "name": "OwnershipHandoverRequested",
      "type": "event"
    },
    {
      "anonymous": false,
      "inputs": [
        {
          "indexed": true,
          "internalType": "address",
          "name": "oldOwner",
          "type": "address"
        },
        {
          "indexed": true,
          "internalType": "address",
          "name": "newOwner",
          "type": "address"
        }
      ],
      "name": "OwnershipTransferred",
      "type": "event"
    },
    {
      "anonymous": false,
      "inputs": [
        {
          "indexed": true,
          "internalType": "address",
          "name": "operator",
          "type": "address"
        },
        {
          "indexed": true,
          "internalType": "address",
          "name": "from",
          "type": "address"
        },
        {
          "indexed": true,
          "internalType": "address",
          "name": "to",
          "type": "address"
        },
        {
          "indexed": false,
          "internalType": "uint256[]",
          "name": "ids",
          "type": "uint256[]"
        },
        {
          "indexed": false,
          "internalType": "uint256[]",
          "name": "values",
          "type": "uint256[]"
        }
      ],
      "name": "TransferBatch",
      "type": "event"
    },
    {
      "anonymous": false,
      "inputs": [
        {
          "indexed": true,
          "internalType": "address",
          "name": "operator",
          "type": "address"
        },
        {
          "indexed": true,
          "internalType": "address",
          "name": "from",
          "type": "address"
        },
        {
          "indexed": true,
          "internalType": "address",
          "name": "to",
          "type": "address"
        },
        {
          "indexed": false,
          "internalType": "uint256",
          "name": "id",
          "type": "uint256"
        },
        {
          "indexed": false,
          "internalType": "uint256",
          "name": "value",
          "type": "uint256"
        }
      ],
      "name": "TransferSingle",
      "type": "event"
    },
    {
      "anonymous": false,
      "inputs": [
        {
          "indexed": false,
          "internalType": "string",
          "name": "value",
          "type": "string"
        },
        {
          "indexed": true,
          "internalType": "uint256",
          "name": "id",
          "type": "uint256"
        }
      ],
      "name": "URI",
      "type": "event"
    },
    {
      "inputs": [
        {
          "internalType": "address",
          "name": "account",
          "type": "address"
        },
        {
          "internalType": "uint256",
          "name": "id",
          "type": "uint256"
        }
      ],
      "name": "balanceOf",
      "outputs": [
        {
          "internalType": "uint256",
          "name": "",
          "type": "uint256"
        }
      ],
      "stateMutability": "view",
      "type": "function"
    },
    {
      "inputs": [
        {
          "internalType": "address[]",
          "name": "accounts",
          "type": "address[]"
        },
        {
          "internalType": "uint256[]",
          "name": "ids",
          "type": "uint256[]"
        }
      ],
      "name": "balanceOfBatch",
      "outputs": [
        {
          "internalType": "uint256[]",
          "name": "",
          "type": "uint256[]"
        }
      ],
      "stateMutability": "view",
      "type": "function"
    },
    {
      "inputs": [],
      "name": "baseUri",
      "outputs": [
        {
          "internalType": "string",
          "name": "",
          "type": "string"
        }
      ],
      "stateMutability": "view",
      "type": "function"
    },
    {
      "inputs": [],
      "name": "cancelOwnershipHandover",
      "outputs": [],
      "stateMutability": "payable",
      "type": "function"
    },
    {
      "inputs": [
        {
          "internalType": "address",
          "name": "pendingOwner",
          "type": "address"
        }
      ],
      "name": "completeOwnershipHandover",
      "outputs": [],
      "stateMutability": "payable",
      "type": "function"
    },
    {
      "inputs": [
        {
          "internalType": "string",
          "name": "_baseUri",
          "type": "string"
        }
      ],
      "name": "initialize",
      "outputs": [],
      "stateMutability": "nonpayable",
      "type": "function"
    },
    {
      "inputs": [
        {
          "internalType": "address",
          "name": "account",
          "type": "address"
        },
        {
          "internalType": "address",
          "name": "operator",
          "type": "address"
        }
      ],
      "name": "isApprovedForAll",
      "outputs": [
        {
          "internalType": "bool",
          "name": "",
          "type": "bool"
        }
      ],
      "stateMutability": "view",
      "type": "function"
    },
    {
      "inputs": [
        {
          "internalType": "address",
          "name": "_to",
          "type": "address"
        },
        {
          "internalType": "uint256",
          "name": "_tokenId",
          "type": "uint256"
        },
        {
          "internalType": "uint256",
          "name": "_amount",
          "type": "uint256"
        }
      ],
      "name": "mint",
      "outputs": [],
      "stateMutability": "nonpayable",
      "type": "function"
    },
    {
      "inputs": [],
      "name": "name",
      "outputs": [
        {
          "internalType": "string",
          "name": "",
          "type": "string"
        }
      ],
      "stateMutability": "pure",
      "type": "function"
    },
    {
      "inputs": [],
      "name": "owner",
      "outputs": [
        {
          "internalType": "address",
          "name": "result",
          "type": "address"
        }
      ],
      "stateMutability": "view",
      "type": "function"
    },
    {
      "inputs": [
        {
          "internalType": "address",
          "name": "pendingOwner",
          "type": "address"
        }
      ],
      "name": "ownershipHandoverExpiresAt",
      "outputs": [
        {
          "internalType": "uint256",
          "name": "result",
          "type": "uint256"
        }
      ],
      "stateMutability": "view",
      "type": "function"
    },
    {
      "inputs": [],
      "name": "ownershipHandoverValidFor",
      "outputs": [
        {
          "internalType": "uint64",
          "name": "",
          "type": "uint64"
        }
      ],
      "stateMutability": "view",
      "type": "function"
    },
    {
      "inputs": [],
      "name": "renounceOwnership",
      "outputs": [],
      "stateMutability": "payable",
      "type": "function"
    },
    {
      "inputs": [],
      "name": "requestOwnershipHandover",
      "outputs": [],
      "stateMutability": "payable",
      "type": "function"
    },
    {
      "inputs": [
        {
          "internalType": "address",
          "name": "from",
          "type": "address"
        },
        {
          "internalType": "address",
          "name": "to",
          "type": "address"
        },
        {
          "internalType": "uint256[]",
          "name": "ids",
          "type": "uint256[]"
        },
        {
          "internalType": "uint256[]",
          "name": "amounts",
          "type": "uint256[]"
        },
        {
          "internalType": "bytes",
          "name": "data",
          "type": "bytes"
        }
      ],
      "name": "safeBatchTransferFrom",
      "outputs": [],
      "stateMutability": "nonpayable",
      "type": "function"
    },
    {
      "inputs": [
        {
          "internalType": "address",
          "name": "from",
          "type": "address"
        },
        {
          "internalType": "address",
          "name": "to",
          "type": "address"
        },
        {
          "internalType": "uint256",
          "name": "id",
          "type": "uint256"
        },
        {
          "internalType": "uint256",
          "name": "amount",
          "type": "uint256"
        },
        {
          "internalType": "bytes",
          "name": "data",
          "type": "bytes"
        }
      ],
      "name": "safeTransferFrom",
      "outputs": [],
      "stateMutability": "nonpayable",
      "type": "function"
    },
    {
      "inputs": [
        {
          "internalType": "address",
          "name": "_addr",
          "type": "address"
        },
        {
          "internalType": "bool",
          "name": "_state",
          "type": "bool"
        }
      ],
      "name": "setAllowedAddress",
      "outputs": [],
      "stateMutability": "nonpayable",
      "type": "function"
    },
    {
      "inputs": [
        {
          "internalType": "address",
          "name": "operator",
          "type": "address"
        },
        {
          "internalType": "bool",
          "name": "approved",
          "type": "bool"
        }
      ],
      "name": "setApprovalForAll",
      "outputs": [],
      "stateMutability": "nonpayable",
      "type": "function"
    },
    {
      "inputs": [
        {
          "internalType": "bytes4",
          "name": "interfaceId",
          "type": "bytes4"
        }
      ],
      "name": "supportsInterface",
      "outputs": [
        {
          "internalType": "bool",
          "name": "",
          "type": "bool"
        }
      ],
      "stateMutability": "view",
      "type": "function"
    },
    {
      "inputs": [],
      "name": "symbol",
      "outputs": [
        {
          "internalType": "string",
          "name": "",
          "type": "string"
        }
      ],
      "stateMutability": "pure",
      "type": "function"
    },
    {
      "inputs": [
        {
          "internalType": "address",
          "name": "newOwner",
          "type": "address"
        }
      ],
      "name": "transferOwnership",
      "outputs": [],
      "stateMutability": "payable",
      "type": "function"
    },
    {
      "inputs": [
        {
          "internalType": "uint256",
          "name": "_tokenId",
          "type": "uint256"
        }
      ],
      "name": "uri",
      "outputs": [
        {
          "internalType": "string",
          "name": "",
          "type": "string"
        }
      ],
      "stateMutability": "view",
      "type": "function"
    }
  ],
  "bytecode": "0x608060405234801561001057600080fd5b5061377c806100206000396000f3fe6080604052600436106101345760003560e01c806395d89b41116100ab578063f04e283e1161006f578063f04e283e146103da578063f242432a146103f6578063f2fde38b1461041f578063f62d18881461043b578063fae3698614610464578063fee81cf41461048d57610134565b806395d89b41146102f35780639abc83201461031e578063a22cb46514610349578063d7533f0214610372578063e985e9c51461039d57610134565b806325692962116100fd57806325692962146102445780632eb2c2d61461024e5780634e1273f41461027757806354d1f13d146102b4578063715018a6146102be5780638da5cb5b146102c857610134565b8062fdd58e1461013957806301ffc9a71461017657806306fdde03146101b35780630e89341c146101de578063156e29f61461021b575b600080fd5b34801561014557600080fd5b50610160600480360381019061015b9190611f5b565b6104ca565b60405161016d9190611faa565b60405180910390f35b34801561018257600080fd5b5061019d6004803603810190610198919061201d565b610593565b6040516101aa9190612065565b60405180910390f35b3480156101bf57600080fd5b506101c8610675565b6040516101d59190612110565b60405180910390f35b3480156101ea57600080fd5b5061020560048036038101906102009190612132565b6106b2565b6040516102129190612110565b60405180910390f35b34801561022757600080fd5b50610242600480360381019061023d919061215f565b6106e6565b005b61024c610789565b005b34801561025a57600080fd5b50610275600480360381019061027091906123af565b6107dd565b005b34801561028357600080fd5b5061029e60048036038101906102999190612541565b61087e565b6040516102ab9190612677565b60405180910390f35b6102bc610997565b005b6102c66109d3565b005b3480156102d457600080fd5b506102dd6109e7565b6040516102ea91906126a8565b60405180910390f35b3480156102ff57600080fd5b506103086109f5565b6040516103159190612110565b60405180910390f35b34801561032a57600080fd5b50610333610a32565b6040516103409190612110565b60405180910390f35b34801561035557600080fd5b50610370600480360381019061036b91906126ef565b610ac0565b005b34801561037e57600080fd5b50610387610ad6565b6040516103949190612752565b60405180910390f35b3480156103a957600080fd5b506103c460048036038101906103bf919061276d565b610ae1565b6040516103d19190612065565b60405180910390f35b6103f460048036038101906103ef91906127ad565b610b75565b005b34801561040257600080fd5b5061041d600480360381019061041891906127da565b610bb6565b005b610439600480360381019061043491906127ad565b610c57565b005b34801561044757600080fd5b50610462600480360381019061045d9190612912565b610c81565b005b34801561047057600080fd5b5061048b600480360381019061048691906126ef565b610dd1565b005b34801561049957600080fd5b506104b460048036038101906104af91906127ad565b610e34565b6040516104c19190611faa565b60405180910390f35b60008073ffffffffffffffffffffffffffffffffffffffff168373ffffffffffffffffffffffffffffffffffffffff160361053a576040517f08c379a0000000000000000000000000000000000000000000000000000000008152600401610531906129cd565b60405180910390fd5b6065600083815260200190815260200160002060008473ffffffffffffffffffffffffffffffffffffffff1673ffffffffffffffffffffffffffffffffffffffff16815260200190815260200160002054905092915050565b60007fd9b67a26000000000000000000000000000000000000000000000000000000007bffffffffffffffffffffffffffffffffffffffffffffffffffffffff1916827bffffffffffffffffffffffffffffffffffffffffffffffffffffffff1916148061065e57507f0e89341c000000000000000000000000000000000000000000000000000000007bffffffffffffffffffffffffffffffffffffffffffffffffffffffff1916827bffffffffffffffffffffffffffffffffffffffffffffffffffffffff1916145b8061066e575061066d82610e4f565b5b9050919050565b60606040518060400160405280600b81526020017f436f6e73756d61626c6573000000000000000000000000000000000000000000815250905090565b606060976106bf83610eb9565b6040516020016106d0929190612b21565b6040516020818303038152906040529050919050565b609860003373ffffffffffffffffffffffffffffffffffffffff1673ffffffffffffffffffffffffffffffffffffffff16815260200190815260200160002060009054906101000a900460ff16610769576040517fea8e4eb500000000000000000000000000000000000000000000000000000000815260040160405180910390fd5b61078483838360405180602001604052806000815250610f87565b505050565b6000610793610ad6565b67ffffffffffffffff164201905063389a75e1600c5233600052806020600c2055337fdbf36a107da19e49527a7176a1babf963b4b0ff8cde35ee35d6cd8f1f9ac7e1d600080a250565b6107e5611138565b73ffffffffffffffffffffffffffffffffffffffff168573ffffffffffffffffffffffffffffffffffffffff16148061082b575061082a85610825611138565b610ae1565b5b61086a576040517f08c379a000000000000000000000000000000000000000000000000000000000815260040161086190612bb7565b60405180910390fd5b6108778585858585611140565b5050505050565b606081518351146108c4576040517f08c379a00000000000000000000000000000000000000000000000000000000081526004016108bb90612c49565b60405180910390fd5b6000835167ffffffffffffffff8111156108e1576108e06121b7565b5b60405190808252806020026020018201604052801561090f5781602001602082028036833780820191505090505b50905060005b845181101561098c5761095c85828151811061093457610933612c69565b5b602002602001015185838151811061094f5761094e612c69565b5b60200260200101516104ca565b82828151811061096f5761096e612c69565b5b6020026020010181815250508061098590612cc7565b9050610915565b508091505092915050565b63389a75e1600c523360005260006020600c2055337ffa7b8eab7da67f412cc9575ed43464468f9bfbae89d1675917346ca6d8fe3c92600080a2565b6109db611464565b6109e56000611481565b565b6000638b78c6d81954905090565b60606040518060400160405280600b81526020017f636f6e73756d61626c6573000000000000000000000000000000000000000000815250905090565b60978054610a3f90612a1c565b80601f0160208091040260200160405190810160405280929190818152602001828054610a6b90612a1c565b8015610ab85780601f10610a8d57610100808354040283529160200191610ab8565b820191906000526020600020905b815481529060010190602001808311610a9b57829003601f168201915b505050505081565b610ad2610acb611138565b83836114bf565b5050565b60006202a300905090565b6000606660008473ffffffffffffffffffffffffffffffffffffffff1673ffffffffffffffffffffffffffffffffffffffff16815260200190815260200160002060008373ffffffffffffffffffffffffffffffffffffffff1673ffffffffffffffffffffffffffffffffffffffff16815260200190815260200160002060009054906101000a900460ff16905092915050565b610b7d611464565b63389a75e1600c52806000526020600c208054421115610ba557636f5e88186000526004601cfd5b6000815550610bb381611481565b50565b610bbe611138565b73ffffffffffffffffffffffffffffffffffffffff168573ffffffffffffffffffffffffffffffffffffffff161480610c045750610c0385610bfe611138565b610ae1565b5b610c43576040517f08c379a0000000000000000000000000000000000000000000000000000000008152600401610c3a90612bb7565b60405180910390fd5b610c50858585858561162b565b5050505050565b610c5f611464565b8060601b610c7557637448fbae6000526004601cfd5b610c7e81611481565b50565b60008060019054906101000a900460ff16159050808015610cb25750600160008054906101000a900460ff1660ff16105b80610cdf5750610cc1306118c9565b158015610cde5750600160008054906101000a900460ff1660ff16145b5b610d1e576040517f08c379a0000000000000000000000000000000000000000000000000000000008152600401610d1590612d81565b60405180910390fd5b60016000806101000a81548160ff021916908360ff1602179055508015610d5b576001600060016101000a81548160ff0219169083151502179055505b610d64336118ec565b8160979081610d739190612f38565b508015610dcd5760008060016101000a81548160ff0219169083151502179055507f7f26b83ff96e1f2b6a682f133852f6798a09c465da95921460cefb38474024986001604051610dc49190613052565b60405180910390a15b5050565b610dd9611464565b80609860008473ffffffffffffffffffffffffffffffffffffffff1673ffffffffffffffffffffffffffffffffffffffff16815260200190815260200160002060006101000a81548160ff0219169083151502179055505050565b600063389a75e1600c52816000526020600c20549050919050565b60007f01ffc9a7000000000000000000000000000000000000000000000000000000007bffffffffffffffffffffffffffffffffffffffffffffffffffffffff1916827bffffffffffffffffffffffffffffffffffffffffffffffffffffffff1916149050919050565b606060006001610ec884611928565b01905060008167ffffffffffffffff811115610ee757610ee66121b7565b5b6040519080825280601f01601f191660200182016040528015610f195781602001600182028036833780820191505090505b509050600082602001820190505b600115610f7c578080600190039150507f3031323334353637383961626364656600000000000000000000000000000000600a86061a8153600a8581610f7057610f6f61306d565b5b04945060008503610f27575b819350505050919050565b600073ffffffffffffffffffffffffffffffffffffffff168473ffffffffffffffffffffffffffffffffffffffff1603610ff6576040517f08c379a0000000000000000000000000000000000000000000000000000000008152600401610fed9061310e565b60405180910390fd5b6000611000611138565b9050600061100d85611a7b565b9050600061101a85611a7b565b905061102b83600089858589611af5565b846065600088815260200190815260200160002060008973ffffffffffffffffffffffffffffffffffffffff1673ffffffffffffffffffffffffffffffffffffffff168152602001908152602001600020600082825461108b919061312e565b925050819055508673ffffffffffffffffffffffffffffffffffffffff16600073ffffffffffffffffffffffffffffffffffffffff168473ffffffffffffffffffffffffffffffffffffffff167fc3d58168c5ae7397731d063d5bbf3d657854427343f4c083240f7aacaa2d0f628989604051611109929190613162565b60405180910390a461112083600089858589611afd565b61112f83600089898989611b05565b50505050505050565b600033905090565b8151835114611184576040517f08c379a000000000000000000000000000000000000000000000000000000000815260040161117b906131fd565b60405180910390fd5b600073ffffffffffffffffffffffffffffffffffffffff168473ffffffffffffffffffffffffffffffffffffffff16036111f3576040517f08c379a00000000000000000000000000000000000000000000000000000000081526004016111ea9061328f565b60405180910390fd5b60006111fd611138565b905061120d818787878787611af5565b60005b84518110156113c157600085828151811061122e5761122d612c69565b5b60200260200101519050600085838151811061124d5761124c612c69565b5b6020026020010151905060006065600084815260200190815260200160002060008b73ffffffffffffffffffffffffffffffffffffffff1673ffffffffffffffffffffffffffffffffffffffff168152602001908152602001600020549050818110156112ef576040517f08c379a00000000000000000000000000000000000000000000000000000000081526004016112e690613321565b60405180910390fd5b8181036065600085815260200190815260200160002060008c73ffffffffffffffffffffffffffffffffffffffff1673ffffffffffffffffffffffffffffffffffffffff16815260200190815260200160002081905550816065600085815260200190815260200160002060008b73ffffffffffffffffffffffffffffffffffffffff1673ffffffffffffffffffffffffffffffffffffffff16815260200190815260200160002060008282546113a6919061312e565b92505081905550505050806113ba90612cc7565b9050611210565b508473ffffffffffffffffffffffffffffffffffffffff168673ffffffffffffffffffffffffffffffffffffffff168273ffffffffffffffffffffffffffffffffffffffff167f4a39dc06d4c0dbc64b70af90fd698a233a518aa5d07e595d983b8c0526c8f7fb8787604051611438929190613341565b60405180910390a461144e818787878787611afd565b61145c818787878787611cdc565b505050505050565b638b78c6d81954331461147f576382b429006000526004601cfd5b565b638b78c6d8198160601b60601c91508181547f8be0079c531659141344cd1fd0a4f28419497f9722a3daafe3b4186f6b6457e0600080a38181555050565b8173ffffffffffffffffffffffffffffffffffffffff168373ffffffffffffffffffffffffffffffffffffffff160361152d576040517f08c379a0000000000000000000000000000000000000000000000000000000008152600401611524906133ea565b60405180910390fd5b80606660008573ffffffffffffffffffffffffffffffffffffffff1673ffffffffffffffffffffffffffffffffffffffff16815260200190815260200160002060008473ffffffffffffffffffffffffffffffffffffffff1673ffffffffffffffffffffffffffffffffffffffff16815260200190815260200160002060006101000a81548160ff0219169083151502179055508173ffffffffffffffffffffffffffffffffffffffff168373ffffffffffffffffffffffffffffffffffffffff167f17307eab39ab6107e8899845ad3d59bd9653f200f220920489ca2b5937696c318360405161161e9190612065565b60405180910390a3505050565b600073ffffffffffffffffffffffffffffffffffffffff168473ffffffffffffffffffffffffffffffffffffffff160361169a576040517f08c379a00000000000000000000000000000000000000000000000000000000081526004016116919061328f565b60405180910390fd5b60006116a4611138565b905060006116b185611a7b565b905060006116be85611a7b565b90506116ce838989858589611af5565b60006065600088815260200190815260200160002060008a73ffffffffffffffffffffffffffffffffffffffff1673ffffffffffffffffffffffffffffffffffffffff16815260200190815260200160002054905085811015611766576040517f08c379a000000000000000000000000000000000000000000000000000000000815260040161175d90613321565b60405180910390fd5b8581036065600089815260200190815260200160002060008b73ffffffffffffffffffffffffffffffffffffffff1673ffffffffffffffffffffffffffffffffffffffff16815260200190815260200160002081905550856065600089815260200190815260200160002060008a73ffffffffffffffffffffffffffffffffffffffff1673ffffffffffffffffffffffffffffffffffffffff168152602001908152602001600020600082825461181d919061312e565b925050819055508773ffffffffffffffffffffffffffffffffffffffff168973ffffffffffffffffffffffffffffffffffffffff168573ffffffffffffffffffffffffffffffffffffffff167fc3d58168c5ae7397731d063d5bbf3d657854427343f4c083240f7aacaa2d0f628a8a60405161189a929190613162565b60405180910390a46118b0848a8a86868a611afd565b6118be848a8a8a8a8a611b05565b505050505050505050565b6000808273ffffffffffffffffffffffffffffffffffffffff163b119050919050565b8060601b60601c905080638b78c6d819558060007f8be0079c531659141344cd1fd0a4f28419497f9722a3daafe3b4186f6b6457e0600080a350565b600080600090507a184f03e93ff9f4daa797ed6e38ed64bf6a1f0100000000000000008310611986577a184f03e93ff9f4daa797ed6e38ed64bf6a1f010000000000000000838161197c5761197b61306d565b5b0492506040810190505b6d04ee2d6d415b85acef810000000083106119c3576d04ee2d6d415b85acef810000000083816119b9576119b861306d565b5b0492506020810190505b662386f26fc1000083106119f257662386f26fc1000083816119e8576119e761306d565b5b0492506010810190505b6305f5e1008310611a1b576305f5e1008381611a1157611a1061306d565b5b0492506008810190505b6127108310611a40576127108381611a3657611a3561306d565b5b0492506004810190505b60648310611a635760648381611a5957611a5861306d565b5b0492506002810190505b600a8310611a72576001810190505b80915050919050565b60606000600167ffffffffffffffff811115611a9a57611a996121b7565b5b604051908082528060200260200182016040528015611ac85781602001602082028036833780820191505090505b5090508281600081518110611ae057611adf612c69565b5b60200260200101818152505080915050919050565b505050505050565b505050505050565b611b248473ffffffffffffffffffffffffffffffffffffffff166118c9565b15611cd4578373ffffffffffffffffffffffffffffffffffffffff1663f23a6e6187878686866040518663ffffffff1660e01b8152600401611b6a95949392919061345f565b6020604051808303816000875af1925050508015611ba657506040513d601f19601f82011682018060405250810190611ba391906134ce565b60015b611c4b57611bb2613508565b806308c379a003611c0e5750611bc661352a565b80611bd15750611c10565b806040517f08c379a0000000000000000000000000000000000000000000000000000000008152600401611c059190612110565b60405180910390fd5b505b6040517f08c379a0000000000000000000000000000000000000000000000000000000008152600401611c429061362c565b60405180910390fd5b63f23a6e6160e01b7bffffffffffffffffffffffffffffffffffffffffffffffffffffffff1916817bffffffffffffffffffffffffffffffffffffffffffffffffffffffff191614611cd2576040517f08c379a0000000000000000000000000000000000000000000000000000000008152600401611cc9906136be565b60405180910390fd5b505b505050505050565b611cfb8473ffffffffffffffffffffffffffffffffffffffff166118c9565b15611eab578373ffffffffffffffffffffffffffffffffffffffff1663bc197c8187878686866040518663ffffffff1660e01b8152600401611d419594939291906136de565b6020604051808303816000875af1925050508015611d7d57506040513d601f19601f82011682018060405250810190611d7a91906134ce565b60015b611e2257611d89613508565b806308c379a003611de55750611d9d61352a565b80611da85750611de7565b806040517f08c379a0000000000000000000000000000000000000000000000000000000008152600401611ddc9190612110565b60405180910390fd5b505b6040517f08c379a0000000000000000000000000000000000000000000000000000000008152600401611e199061362c565b60405180910390fd5b63bc197c8160e01b7bffffffffffffffffffffffffffffffffffffffffffffffffffffffff1916817bffffffffffffffffffffffffffffffffffffffffffffffffffffffff191614611ea9576040517f08c379a0000000000000000000000000000000000000000000000000000000008152600401611ea0906136be565b60405180910390fd5b505b505050505050565b6000604051905090565b600080fd5b600080fd5b600073ffffffffffffffffffffffffffffffffffffffff82169050919050565b6000611ef282611ec7565b9050919050565b611f0281611ee7565b8114611f0d57600080fd5b50565b600081359050611f1f81611ef9565b92915050565b6000819050919050565b611f3881611f25565b8114611f4357600080fd5b50565b600081359050611f5581611f2f565b92915050565b60008060408385031215611f7257611f71611ebd565b5b6000611f8085828601611f10565b9250506020611f9185828601611f46565b9150509250929050565b611fa481611f25565b82525050565b6000602082019050611fbf6000830184611f9b565b92915050565b60007fffffffff0000000000000000000000000000000000000000000000000000000082169050919050565b611ffa81611fc5565b811461200557600080fd5b50565b60008135905061201781611ff1565b92915050565b60006020828403121561203357612032611ebd565b5b600061204184828501612008565b91505092915050565b60008115159050919050565b61205f8161204a565b82525050565b600060208201905061207a6000830184612056565b92915050565b600081519050919050565b600082825260208201905092915050565b60005b838110156120ba57808201518184015260208101905061209f565b60008484015250505050565b6000601f19601f8301169050919050565b60006120e282612080565b6120ec818561208b565b93506120fc81856020860161209c565b612105816120c6565b840191505092915050565b6000602082019050818103600083015261212a81846120d7565b905092915050565b60006020828403121561214857612147611ebd565b5b600061215684828501611f46565b91505092915050565b60008060006060848603121561217857612177611ebd565b5b600061218686828701611f10565b935050602061219786828701611f46565b92505060406121a886828701611f46565b9150509250925092565b600080fd5b7f4e487b7100000000000000000000000000000000000000000000000000000000600052604160045260246000fd5b6121ef826120c6565b810181811067ffffffffffffffff8211171561220e5761220d6121b7565b5b80604052505050565b6000612221611eb3565b905061222d82826121e6565b919050565b600067ffffffffffffffff82111561224d5761224c6121b7565b5b602082029050602081019050919050565b600080fd5b600061227661227184612232565b612217565b905080838252602082019050602084028301858111156122995761229861225e565b5b835b818110156122c257806122ae8882611f46565b84526020840193505060208101905061229b565b5050509392505050565b600082601f8301126122e1576122e06121b2565b5b81356122f1848260208601612263565b91505092915050565b600080fd5b600067ffffffffffffffff82111561231a576123196121b7565b5b612323826120c6565b9050602081019050919050565b82818337600083830152505050565b600061235261234d846122ff565b612217565b90508281526020810184848401111561236e5761236d6122fa565b5b612379848285612330565b509392505050565b600082601f830112612396576123956121b2565b5b81356123a684826020860161233f565b91505092915050565b600080600080600060a086880312156123cb576123ca611ebd565b5b60006123d988828901611f10565b95505060206123ea88828901611f10565b945050604086013567ffffffffffffffff81111561240b5761240a611ec2565b5b612417888289016122cc565b935050606086013567ffffffffffffffff81111561243857612437611ec2565b5b612444888289016122cc565b925050608086013567ffffffffffffffff81111561246557612464611ec2565b5b61247188828901612381565b9150509295509295909350565b600067ffffffffffffffff821115612499576124986121b7565b5b602082029050602081019050919050565b60006124bd6124b88461247e565b612217565b905080838252602082019050602084028301858111156124e0576124df61225e565b5b835b8181101561250957806124f58882611f10565b8452602084019350506020810190506124e2565b5050509392505050565b600082601f830112612528576125276121b2565b5b81356125388482602086016124aa565b91505092915050565b6000806040838503121561255857612557611ebd565b5b600083013567ffffffffffffffff81111561257657612575611ec2565b5b61258285828601612513565b925050602083013567ffffffffffffffff8111156125a3576125a2611ec2565b5b6125af858286016122cc565b9150509250929050565b600081519050919050565b600082825260208201905092915050565b6000819050602082019050919050565b6125ee81611f25565b82525050565b600061260083836125e5565b60208301905092915050565b6000602082019050919050565b6000612624826125b9565b61262e81856125c4565b9350612639836125d5565b8060005b8381101561266a57815161265188826125f4565b975061265c8361260c565b92505060018101905061263d565b5085935050505092915050565b600060208201905081810360008301526126918184612619565b905092915050565b6126a281611ee7565b82525050565b60006020820190506126bd6000830184612699565b92915050565b6126cc8161204a565b81146126d757600080fd5b50565b6000813590506126e9816126c3565b92915050565b6000806040838503121561270657612705611ebd565b5b600061271485828601611f10565b9250506020612725858286016126da565b9150509250929050565b600067ffffffffffffffff82169050919050565b61274c8161272f565b82525050565b60006020820190506127676000830184612743565b92915050565b6000806040838503121561278457612783611ebd565b5b600061279285828601611f10565b92505060206127a385828601611f10565b9150509250929050565b6000602082840312156127c3576127c2611ebd565b5b60006127d184828501611f10565b91505092915050565b600080600080600060a086880312156127f6576127f5611ebd565b5b600061280488828901611f10565b955050602061281588828901611f10565b945050604061282688828901611f46565b935050606061283788828901611f46565b925050608086013567ffffffffffffffff81111561285857612857611ec2565b5b61286488828901612381565b9150509295509295909350565b600067ffffffffffffffff82111561288c5761288b6121b7565b5b612895826120c6565b9050602081019050919050565b60006128b56128b084612871565b612217565b9050828152602081018484840111156128d1576128d06122fa565b5b6128dc848285612330565b509392505050565b600082601f8301126128f9576128f86121b2565b5b81356129098482602086016128a2565b91505092915050565b60006020828403121561292857612927611ebd565b5b600082013567ffffffffffffffff81111561294657612945611ec2565b5b612952848285016128e4565b91505092915050565b7f455243313135353a2061646472657373207a65726f206973206e6f742061207660008201527f616c6964206f776e657200000000000000000000000000000000000000000000602082015250565b60006129b7602a8361208b565b91506129c28261295b565b604082019050919050565b600060208201905081810360008301526129e6816129aa565b9050919050565b7f4e487b7100000000000000000000000000000000000000000000000000000000600052602260045260246000fd5b60006002820490506001821680612a3457607f821691505b602082108103612a4757612a466129ed565b5b50919050565b600081905092915050565b60008190508160005260206000209050919050565b60008154612a7a81612a1c565b612a848186612a4d565b94506001821660008114612a9f5760018114612ab457612ae7565b60ff1983168652811515820286019350612ae7565b612abd85612a58565b60005b83811015612adf57815481890152600182019150602081019050612ac0565b838801955050505b50505092915050565b6000612afb82612080565b612b058185612a4d565b9350612b1581856020860161209c565b80840191505092915050565b6000612b2d8285612a6d565b9150612b398284612af0565b91508190509392505050565b7f455243313135353a2063616c6c6572206973206e6f7420746f6b656e206f776e60008201527f6572206f7220617070726f766564000000000000000000000000000000000000602082015250565b6000612ba1602e8361208b565b9150612bac82612b45565b604082019050919050565b60006020820190508181036000830152612bd081612b94565b9050919050565b7f455243313135353a206163636f756e747320616e6420696473206c656e67746860008201527f206d69736d617463680000000000000000000000000000000000000000000000602082015250565b6000612c3360298361208b565b9150612c3e82612bd7565b604082019050919050565b60006020820190508181036000830152612c6281612c26565b9050919050565b7f4e487b7100000000000000000000000000000000000000000000000000000000600052603260045260246000fd5b7f4e487b7100000000000000000000000000000000000000000000000000000000600052601160045260246000fd5b6000612cd282611f25565b91507fffffffffffffffffffffffffffffffffffffffffffffffffffffffffffffffff8203612d0457612d03612c98565b5b600182019050919050565b7f496e697469616c697a61626c653a20636f6e747261637420697320616c72656160008201527f647920696e697469616c697a6564000000000000000000000000000000000000602082015250565b6000612d6b602e8361208b565b9150612d7682612d0f565b604082019050919050565b60006020820190508181036000830152612d9a81612d5e565b9050919050565b60006020601f8301049050919050565b600082821b905092915050565b600060088302612dee7fffffffffffffffffffffffffffffffffffffffffffffffffffffffffffffffff82612db1565b612df88683612db1565b95508019841693508086168417925050509392505050565b6000819050919050565b6000612e35612e30612e2b84611f25565b612e10565b611f25565b9050919050565b6000819050919050565b612e4f83612e1a565b612e63612e5b82612e3c565b848454612dbe565b825550505050565b600090565b612e78612e6b565b612e83818484612e46565b505050565b5b81811015612ea757612e9c600082612e70565b600181019050612e89565b5050565b601f821115612eec57612ebd81612a58565b612ec684612da1565b81016020851015612ed5578190505b612ee9612ee185612da1565b830182612e88565b50505b505050565b600082821c905092915050565b6000612f0f60001984600802612ef1565b1980831691505092915050565b6000612f288383612efe565b9150826002028217905092915050565b612f4182612080565b67ffffffffffffffff811115612f5a57612f596121b7565b5b612f648254612a1c565b612f6f828285612eab565b600060209050601f831160018114612fa25760008415612f90578287015190505b612f9a8582612f1c565b865550613002565b601f198416612fb086612a58565b60005b82811015612fd857848901518255600182019150602085019450602081019050612fb3565b86831015612ff55784890151612ff1601f891682612efe565b8355505b6001600288020188555050505b505050505050565b6000819050919050565b600060ff82169050919050565b600061303c6130376130328461300a565b612e10565b613014565b9050919050565b61304c81613021565b82525050565b60006020820190506130676000830184613043565b92915050565b7f4e487b7100000000000000000000000000000000000000000000000000000000600052601260045260246000fd5b7f455243313135353a206d696e7420746f20746865207a65726f2061646472657360008201527f7300000000000000000000000000000000000000000000000000000000000000602082015250565b60006130f860218361208b565b91506131038261309c565b604082019050919050565b60006020820190508181036000830152613127816130eb565b9050919050565b600061313982611f25565b915061314483611f25565b925082820190508082111561315c5761315b612c98565b5b92915050565b60006040820190506131776000830185611f9b565b6131846020830184611f9b565b9392505050565b7f455243313135353a2069647320616e6420616d6f756e7473206c656e6774682060008201527f6d69736d61746368000000000000000000000000000000000000000000000000602082015250565b60006131e760288361208b565b91506131f28261318b565b604082019050919050565b60006020820190508181036000830152613216816131da565b9050919050565b7f455243313135353a207472616e7366657220746f20746865207a65726f20616460008201527f6472657373000000000000000000000000000000000000000000000000000000602082015250565b600061327960258361208b565b91506132848261321d565b604082019050919050565b600060208201905081810360008301526132a88161326c565b9050919050565b7f455243313135353a20696e73756666696369656e742062616c616e636520666f60008201527f72207472616e7366657200000000000000000000000000000000000000000000602082015250565b600061330b602a8361208b565b9150613316826132af565b604082019050919050565b6000602082019050818103600083015261333a816132fe565b9050919050565b6000604082019050818103600083015261335b8185612619565b9050818103602083015261336f8184612619565b90509392505050565b7f455243313135353a2073657474696e6720617070726f76616c2073746174757360008201527f20666f722073656c660000000000000000000000000000000000000000000000602082015250565b60006133d460298361208b565b91506133df82613378565b604082019050919050565b60006020820190508181036000830152613403816133c7565b9050919050565b600081519050919050565b600082825260208201905092915050565b60006134318261340a565b61343b8185613415565b935061344b81856020860161209c565b613454816120c6565b840191505092915050565b600060a0820190506134746000830188612699565b6134816020830187612699565b61348e6040830186611f9b565b61349b6060830185611f9b565b81810360808301526134ad8184613426565b90509695505050505050565b6000815190506134c881611ff1565b92915050565b6000602082840312156134e4576134e3611ebd565b5b60006134f2848285016134b9565b91505092915050565b60008160e01c9050919050565b600060033d11156135275760046000803e6135246000516134fb565b90505b90565b600060443d106135b75761353c611eb3565b60043d036004823e80513d602482011167ffffffffffffffff821117156135645750506135b7565b808201805167ffffffffffffffff81111561358257505050506135b7565b80602083010160043d03850181111561359f5750505050506135b7565b6135ae826020018501866121e6565b82955050505050505b90565b7f455243313135353a207472616e7366657220746f206e6f6e2d4552433131353560008201527f526563656976657220696d706c656d656e746572000000000000000000000000602082015250565b600061361660348361208b565b9150613621826135ba565b604082019050919050565b6000602082019050818103600083015261364581613609565b9050919050565b7f455243313135353a204552433131353552656365697665722072656a6563746560008201527f6420746f6b656e73000000000000000000000000000000000000000000000000602082015250565b60006136a860288361208b565b91506136b38261364c565b604082019050919050565b600060208201905081810360008301526136d78161369b565b9050919050565b600060a0820190506136f36000830188612699565b6137006020830187612699565b81810360408301526137128186612619565b905081810360608301526137268185612619565b9050818103608083015261373a8184613426565b9050969550505050505056fea2646970667358221220d89882f2245186b8b3748ad05330053b8820f898b87664593755994cc178d2ac64736f6c63430008110033",
  "linkReferences": {},
  "deployedLinkReferences": {}
}