{
  "address": "0x6609fA3E7e0f9Fb181f78f581D7B56b04bE3795C",
  "abi": [
    {
      "inputs": [],
      "name": "InvalidTokenId",
      "type": "error"
    },
    {
      "inputs": [],
      "name": "LengthsNotEqual",
      "type": "error"
    },
    {
      "inputs": [],
      "name": "NewOwnerIsZeroAddress",
      "type": "error"
    },
    {
      "inputs": [],
      "name": "NoHandoverRequest",
      "type": "error"
    },
    {
      "inputs": [],
      "name": "NotAuthorized",
      "type": "error"
    },
    {
      "inputs": [],
      "name": "Unauthorized",
      "type": "error"
    },
    {
      "anonymous": false,
      "inputs": [
        {
          "indexed": true,
          "internalType": "address",
          "name": "account",
          "type": "address"
        },
        {
          "indexed": true,
          "internalType": "address",
          "name": "operator",
          "type": "address"
        },
        {
          "indexed": false,
          "internalType": "bool",
          "name": "approved",
          "type": "bool"
        }
      ],
      "name": "ApprovalForAll",
      "type": "event"
    },
    {
      "anonymous": false,
      "inputs": [
        {
          "indexed": false,
          "internalType": "uint8",
          "name": "version",
          "type": "uint8"
        }
      ],
      "name": "Initialized",
      "type": "event"
    },
    {
      "anonymous": false,
      "inputs": [
        {
          "indexed": true,
          "internalType": "address",
          "name": "pendingOwner",
          "type": "address"
        }
      ],
      "name": "OwnershipHandoverCanceled",
      "type": "event"
    },
    {
      "anonymous": false,
      "inputs": [
        {
          "indexed": true,
          "internalType": "address",
          "name": "pendingOwner",
          "type": "address"
        }
      ],
      "name": "OwnershipHandoverRequested",
      "type": "event"
    },
    {
      "anonymous": false,
      "inputs": [
        {
          "indexed": true,
          "internalType": "address",
          "name": "oldOwner",
          "type": "address"
        },
        {
          "indexed": true,
          "internalType": "address",
          "name": "newOwner",
          "type": "address"
        }
      ],
      "name": "OwnershipTransferred",
      "type": "event"
    },
    {
      "anonymous": false,
      "inputs": [
        {
          "indexed": true,
          "internalType": "address",
          "name": "operator",
          "type": "address"
        },
        {
          "indexed": true,
          "internalType": "address",
          "name": "from",
          "type": "address"
        },
        {
          "indexed": true,
          "internalType": "address",
          "name": "to",
          "type": "address"
        },
        {
          "indexed": false,
          "internalType": "uint256[]",
          "name": "ids",
          "type": "uint256[]"
        },
        {
          "indexed": false,
          "internalType": "uint256[]",
          "name": "values",
          "type": "uint256[]"
        }
      ],
      "name": "TransferBatch",
      "type": "event"
    },
    {
      "anonymous": false,
      "inputs": [
        {
          "indexed": true,
          "internalType": "address",
          "name": "operator",
          "type": "address"
        },
        {
          "indexed": true,
          "internalType": "address",
          "name": "from",
          "type": "address"
        },
        {
          "indexed": true,
          "internalType": "address",
          "name": "to",
          "type": "address"
        },
        {
          "indexed": false,
          "internalType": "uint256",
          "name": "id",
          "type": "uint256"
        },
        {
          "indexed": false,
          "internalType": "uint256",
          "name": "value",
          "type": "uint256"
        }
      ],
      "name": "TransferSingle",
      "type": "event"
    },
    {
      "anonymous": false,
      "inputs": [
        {
          "indexed": false,
          "internalType": "string",
          "name": "value",
          "type": "string"
        },
        {
          "indexed": true,
          "internalType": "uint256",
          "name": "id",
          "type": "uint256"
        }
      ],
      "name": "URI",
      "type": "event"
    },
    {
      "inputs": [
        {
          "internalType": "address",
          "name": "account",
          "type": "address"
        },
        {
          "internalType": "uint256",
          "name": "id",
          "type": "uint256"
        }
      ],
      "name": "balanceOf",
      "outputs": [
        {
          "internalType": "uint256",
          "name": "",
          "type": "uint256"
        }
      ],
      "stateMutability": "view",
      "type": "function"
    },
    {
      "inputs": [
        {
          "internalType": "address[]",
          "name": "accounts",
          "type": "address[]"
        },
        {
          "internalType": "uint256[]",
          "name": "ids",
          "type": "uint256[]"
        }
      ],
      "name": "balanceOfBatch",
      "outputs": [
        {
          "internalType": "uint256[]",
          "name": "",
          "type": "uint256[]"
        }
      ],
      "stateMutability": "view",
      "type": "function"
    },
    {
      "inputs": [],
      "name": "bones",
      "outputs": [
        {
          "internalType": "address",
          "name": "",
          "type": "address"
        }
      ],
      "stateMutability": "view",
      "type": "function"
    },
    {
      "inputs": [],
      "name": "cancelOwnershipHandover",
      "outputs": [],
      "stateMutability": "payable",
      "type": "function"
    },
    {
      "inputs": [
        {
          "internalType": "address",
          "name": "pendingOwner",
          "type": "address"
        }
      ],
      "name": "completeOwnershipHandover",
      "outputs": [],
      "stateMutability": "payable",
      "type": "function"
    },
    {
      "inputs": [
        {
          "internalType": "address",
          "name": "_bones",
          "type": "address"
        },
        {
          "internalType": "address",
          "name": "_magic",
          "type": "address"
        },
        {
          "internalType": "address",
          "name": "_treasure",
          "type": "address"
        },
        {
          "internalType": "string",
          "name": "_baseUri",
          "type": "string"
        }
      ],
      "name": "initialize",
      "outputs": [],
      "stateMutability": "nonpayable",
      "type": "function"
    },
    {
      "inputs": [
        {
          "internalType": "address",
          "name": "account",
          "type": "address"
        },
        {
          "internalType": "address",
          "name": "operator",
          "type": "address"
        }
      ],
      "name": "isApprovedForAll",
      "outputs": [
        {
          "internalType": "bool",
          "name": "",
          "type": "bool"
        }
      ],
      "stateMutability": "view",
      "type": "function"
    },
    {
      "inputs": [],
      "name": "laborGround",
      "outputs": [
        {
          "internalType": "address",
          "name": "",
          "type": "address"
        }
      ],
      "stateMutability": "view",
      "type": "function"
    },
    {
      "inputs": [],
      "name": "magic",
      "outputs": [
        {
          "internalType": "address",
          "name": "",
          "type": "address"
        }
      ],
      "stateMutability": "view",
      "type": "function"
    },
    {
      "inputs": [
        {
          "internalType": "uint256[]",
          "name": "_tokenId",
          "type": "uint256[]"
        },
        {
          "internalType": "uint256[]",
          "name": "_amount",
          "type": "uint256[]"
        },
        {
          "internalType": "enum Supplies.Curr[]",
          "name": "_curr",
          "type": "uint8[]"
        }
      ],
      "name": "mint",
      "outputs": [],
      "stateMutability": "nonpayable",
      "type": "function"
    },
    {
      "inputs": [],
      "name": "name",
      "outputs": [
        {
          "internalType": "string",
          "name": "",
          "type": "string"
        }
      ],
      "stateMutability": "pure",
      "type": "function"
    },
    {
      "inputs": [],
      "name": "owner",
      "outputs": [
        {
          "internalType": "address",
          "name": "result",
          "type": "address"
        }
      ],
      "stateMutability": "view",
      "type": "function"
    },
    {
      "inputs": [
        {
          "internalType": "address",
          "name": "pendingOwner",
          "type": "address"
        }
      ],
      "name": "ownershipHandoverExpiresAt",
      "outputs": [
        {
          "internalType": "uint256",
          "name": "result",
          "type": "uint256"
        }
      ],
      "stateMutability": "view",
      "type": "function"
    },
    {
      "inputs": [],
      "name": "ownershipHandoverValidFor",
      "outputs": [
        {
          "internalType": "uint64",
          "name": "",
          "type": "uint64"
        }
      ],
      "stateMutability": "view",
      "type": "function"
    },
    {
      "inputs": [],
      "name": "renounceOwnership",
      "outputs": [],
      "stateMutability": "payable",
      "type": "function"
    },
    {
      "inputs": [],
      "name": "requestOwnershipHandover",
      "outputs": [],
      "stateMutability": "payable",
      "type": "function"
    },
    {
      "inputs": [
        {
          "internalType": "address",
          "name": "from",
          "type": "address"
        },
        {
          "internalType": "address",
          "name": "to",
          "type": "address"
        },
        {
          "internalType": "uint256[]",
          "name": "ids",
          "type": "uint256[]"
        },
        {
          "internalType": "uint256[]",
          "name": "amounts",
          "type": "uint256[]"
        },
        {
          "internalType": "bytes",
          "name": "data",
          "type": "bytes"
        }
      ],
      "name": "safeBatchTransferFrom",
      "outputs": [],
      "stateMutability": "nonpayable",
      "type": "function"
    },
    {
      "inputs": [
        {
          "internalType": "address",
          "name": "from",
          "type": "address"
        },
        {
          "internalType": "address",
          "name": "to",
          "type": "address"
        },
        {
          "internalType": "uint256",
          "name": "id",
          "type": "uint256"
        },
        {
          "internalType": "uint256",
          "name": "amount",
          "type": "uint256"
        },
        {
          "internalType": "bytes",
          "name": "data",
          "type": "bytes"
        }
      ],
      "name": "safeTransferFrom",
      "outputs": [],
      "stateMutability": "nonpayable",
      "type": "function"
    },
    {
      "inputs": [
        {
          "internalType": "address",
          "name": "operator",
          "type": "address"
        },
        {
          "internalType": "bool",
          "name": "approved",
          "type": "bool"
        }
      ],
      "name": "setApprovalForAll",
      "outputs": [],
      "stateMutability": "nonpayable",
      "type": "function"
    },
    {
      "inputs": [
        {
          "internalType": "address",
          "name": "_laborGround",
          "type": "address"
        }
      ],
      "name": "setLaborGroundAddresss",
      "outputs": [],
      "stateMutability": "nonpayable",
      "type": "function"
    },
    {
      "inputs": [
        {
          "internalType": "bytes4",
          "name": "interfaceId",
          "type": "bytes4"
        }
      ],
      "name": "supportsInterface",
      "outputs": [
        {
          "internalType": "bool",
          "name": "",
          "type": "bool"
        }
      ],
      "stateMutability": "view",
      "type": "function"
    },
    {
      "inputs": [],
      "name": "symbol",
      "outputs": [
        {
          "internalType": "string",
          "name": "",
          "type": "string"
        }
      ],
      "stateMutability": "pure",
      "type": "function"
    },
    {
      "inputs": [
        {
          "internalType": "address",
          "name": "newOwner",
          "type": "address"
        }
      ],
      "name": "transferOwnership",
      "outputs": [],
      "stateMutability": "payable",
      "type": "function"
    },
    {
      "inputs": [],
      "name": "treasure",
      "outputs": [
        {
          "internalType": "address",
          "name": "",
          "type": "address"
        }
      ],
      "stateMutability": "view",
      "type": "function"
    },
    {
      "inputs": [
        {
          "internalType": "uint256",
          "name": "_tokenId",
          "type": "uint256"
        }
      ],
      "name": "uri",
      "outputs": [
        {
          "internalType": "string",
          "name": "",
          "type": "string"
        }
      ],
      "stateMutability": "view",
      "type": "function"
    }
  ],
  "transactionHash": "0x347c5d915b822dd6b5929b2161f2cba6a6cab39024a4409a7b64452e117219f4",
  "args": [],
  "numDeployments": 1,
  "solcInputHash": "18f51bcb9845d8819b37cb038c9b098f",
  "bytecode": "0x608060405234801561001057600080fd5b50613f58806100206000396000f3fe6080604052600436106101655760003560e01c8063715018a6116100d1578063d88ad8871161008a578063f04e283e11610064578063f04e283e146104de578063f242432a146104fa578063f2fde38b14610523578063fee81cf41461053f57610165565b8063d88ad8871461044b578063e520fc7e14610476578063e985e9c5146104a157610165565b8063715018a61461036c57806372355af8146103765780638da5cb5b146103a157806395d89b41146103cc578063a22cb465146103f7578063d7533f021461042057610165565b8063256929621161012357806325692962146102a05780632eb2c2d6146102aa5780634b98d53b146102d35780634e1273f4146102fc57806354d1f13d1461033957806365e8e4f41461034357610165565b8062fdd58e1461016a57806301ffc9a7146101a757806306fdde03146101e45780630d8546461461020f5780630e89341c1461023a5780631963070e14610277575b600080fd5b34801561017657600080fd5b50610191600480360381019061018c9190612497565b61057c565b60405161019e91906124e6565b60405180910390f35b3480156101b357600080fd5b506101ce60048036038101906101c99190612559565b610645565b6040516101db91906125a1565b60405180910390f35b3480156101f057600080fd5b506101f9610727565b604051610206919061264c565b60405180910390f35b34801561021b57600080fd5b50610224610764565b604051610231919061267d565b60405180910390f35b34801561024657600080fd5b50610261600480360381019061025c9190612698565b61078a565b60405161026e919061264c565b60405180910390f35b34801561028357600080fd5b5061029e600480360381019061029991906126c5565b6107be565b005b6102a861080a565b005b3480156102b657600080fd5b506102d160048036038101906102cc91906128ef565b61085e565b005b3480156102df57600080fd5b506102fa60048036038101906102f59190612a6f565b6108ff565b005b34801561030857600080fd5b50610323600480360381019061031e9190612be6565b610a82565b6040516103309190612d1c565b60405180910390f35b610341610b9b565b005b34801561034f57600080fd5b5061036a60048036038101906103659190612ddf565b610bd7565b005b610374610ded565b005b34801561038257600080fd5b5061038b610e01565b604051610398919061267d565b60405180910390f35b3480156103ad57600080fd5b506103b6610e27565b6040516103c3919061267d565b60405180910390f35b3480156103d857600080fd5b506103e1610e35565b6040516103ee919061264c565b60405180910390f35b34801561040357600080fd5b5061041e60048036038101906104199190612e8e565b610e72565b005b34801561042c57600080fd5b50610435610f07565b6040516104429190612ef1565b60405180910390f35b34801561045757600080fd5b50610460610f12565b60405161046d919061267d565b60405180910390f35b34801561048257600080fd5b5061048b610f38565b604051610498919061267d565b60405180910390f35b3480156104ad57600080fd5b506104c860048036038101906104c39190612f0c565b610f5e565b6040516104d591906125a1565b60405180910390f35b6104f860048036038101906104f391906126c5565b610ff2565b005b34801561050657600080fd5b50610521600480360381019061051c9190612f4c565b611033565b005b61053d600480360381019061053891906126c5565b6110d4565b005b34801561054b57600080fd5b50610566600480360381019061056191906126c5565b6110fe565b60405161057391906124e6565b60405180910390f35b60008073ffffffffffffffffffffffffffffffffffffffff168373ffffffffffffffffffffffffffffffffffffffff16036105ec576040517f08c379a00000000000000000000000000000000000000000000000000000000081526004016105e390613055565b60405180910390fd5b6065600083815260200190815260200160002060008473ffffffffffffffffffffffffffffffffffffffff1673ffffffffffffffffffffffffffffffffffffffff16815260200190815260200160002054905092915050565b60007fd9b67a26000000000000000000000000000000000000000000000000000000007bffffffffffffffffffffffffffffffffffffffffffffffffffffffff1916827bffffffffffffffffffffffffffffffffffffffffffffffffffffffff1916148061071057507f0e89341c000000000000000000000000000000000000000000000000000000007bffffffffffffffffffffffffffffffffffffffffffffffffffffffff1916827bffffffffffffffffffffffffffffffffffffffffffffffffffffffff1916145b80610720575061071f82611119565b5b9050919050565b60606040518060400160405280600881526020017f537570706c696573000000000000000000000000000000000000000000000000815250905090565b609a60009054906101000a900473ffffffffffffffffffffffffffffffffffffffff1681565b6060609b61079783611183565b6040516020016107a89291906131a9565b6040516020818303038152906040529050919050565b6107c6611251565b80609760006101000a81548173ffffffffffffffffffffffffffffffffffffffff021916908373ffffffffffffffffffffffffffffffffffffffff16021790555050565b6000610814610f07565b67ffffffffffffffff164201905063389a75e1600c5233600052806020600c2055337fdbf36a107da19e49527a7176a1babf963b4b0ff8cde35ee35d6cd8f1f9ac7e1d600080a250565b61086661126e565b73ffffffffffffffffffffffffffffffffffffffff168573ffffffffffffffffffffffffffffffffffffffff1614806108ac57506108ab856108a661126e565b610f5e565b5b6108eb576040517f08c379a00000000000000000000000000000000000000000000000000000000081526004016108e29061323f565b60405180910390fd5b6108f88585858585611276565b5050505050565b6000848490508787905014158061091c5750828290508585905014155b15610953576040517f22cb666100000000000000000000000000000000000000000000000000000000815260040160405180910390fd5b5b86869050811015610a795760038787838181106109745761097361325f565b5b9050602002013511806109a0575060018787838181106109975761099661325f565b5b90506020020135105b156109d7576040517f3f6cc76800000000000000000000000000000000000000000000000000000000815260040160405180910390fd5b610a218383838181106109ed576109ec61325f565b5b9050602002016020810190610a0291906132b3565b868684818110610a1557610a1461325f565b5b9050602002013561159a565b610a6e33888884818110610a3857610a3761325f565b5b90506020020135878785818110610a5257610a5161325f565b5b90506020020135604051806020016040528060008152506117a6565b806001019050610954565b50505050505050565b60608151835114610ac8576040517f08c379a0000000000000000000000000000000000000000000000000000000008152600401610abf90613352565b60405180910390fd5b6000835167ffffffffffffffff811115610ae557610ae46126f7565b5b604051908082528060200260200182016040528015610b135781602001602082028036833780820191505090505b50905060005b8451811015610b9057610b60858281518110610b3857610b3761325f565b5b6020026020010151858381518110610b5357610b5261325f565b5b602002602001015161057c565b828281518110610b7357610b7261325f565b5b60200260200101818152505080610b89906133a1565b9050610b19565b508091505092915050565b63389a75e1600c523360005260006020600c2055337ffa7b8eab7da67f412cc9575ed43464468f9bfbae89d1675917346ca6d8fe3c92600080a2565b60008060019054906101000a900460ff16159050808015610c085750600160008054906101000a900460ff1660ff16105b80610c355750610c1730611957565b158015610c345750600160008054906101000a900460ff1660ff16145b5b610c74576040517f08c379a0000000000000000000000000000000000000000000000000000000008152600401610c6b9061345b565b60405180910390fd5b60016000806101000a81548160ff021916908360ff1602179055508015610cb1576001600060016101000a81548160ff0219169083151502179055505b610cba3361197a565b84609960006101000a81548173ffffffffffffffffffffffffffffffffffffffff021916908373ffffffffffffffffffffffffffffffffffffffff16021790555083609a60006101000a81548173ffffffffffffffffffffffffffffffffffffffff021916908373ffffffffffffffffffffffffffffffffffffffff16021790555082609860006101000a81548173ffffffffffffffffffffffffffffffffffffffff021916908373ffffffffffffffffffffffffffffffffffffffff16021790555081609b9081610d8c9190613612565b508015610de65760008060016101000a81548160ff0219169083151502179055507f7f26b83ff96e1f2b6a682f133852f6798a09c465da95921460cefb38474024986001604051610ddd919061372c565b60405180910390a15b5050505050565b610df5611251565b610dff60006119b6565b565b609760009054906101000a900473ffffffffffffffffffffffffffffffffffffffff1681565b6000638b78c6d81954905090565b60606040518060400160405280600881526020017f737570706c696573000000000000000000000000000000000000000000000000815250905090565b609760009054906101000a900473ffffffffffffffffffffffffffffffffffffffff1673ffffffffffffffffffffffffffffffffffffffff168273ffffffffffffffffffffffffffffffffffffffff1614610ef9576040517fea8e4eb500000000000000000000000000000000000000000000000000000000815260040160405180910390fd5b610f0382826119f4565b5050565b60006202a300905090565b609960009054906101000a900473ffffffffffffffffffffffffffffffffffffffff1681565b609860009054906101000a900473ffffffffffffffffffffffffffffffffffffffff1681565b6000606660008473ffffffffffffffffffffffffffffffffffffffff1673ffffffffffffffffffffffffffffffffffffffff16815260200190815260200160002060008373ffffffffffffffffffffffffffffffffffffffff1673ffffffffffffffffffffffffffffffffffffffff16815260200190815260200160002060009054906101000a900460ff16905092915050565b610ffa611251565b63389a75e1600c52806000526020600c20805442111561102257636f5e88186000526004601cfd5b6000815550611030816119b6565b50565b61103b61126e565b73ffffffffffffffffffffffffffffffffffffffff168573ffffffffffffffffffffffffffffffffffffffff16148061108157506110808561107b61126e565b610f5e565b5b6110c0576040517f08c379a00000000000000000000000000000000000000000000000000000000081526004016110b79061323f565b60405180910390fd5b6110cd8585858585611a0a565b5050505050565b6110dc611251565b8060601b6110f257637448fbae6000526004601cfd5b6110fb816119b6565b50565b600063389a75e1600c52816000526020600c20549050919050565b60007f01ffc9a7000000000000000000000000000000000000000000000000000000007bffffffffffffffffffffffffffffffffffffffffffffffffffffffff1916827bffffffffffffffffffffffffffffffffffffffffffffffffffffffff1916149050919050565b60606000600161119284611ca8565b01905060008167ffffffffffffffff8111156111b1576111b06126f7565b5b6040519080825280601f01601f1916602001820160405280156111e35781602001600182028036833780820191505090505b509050600082602001820190505b600115611246578080600190039150507f3031323334353637383961626364656600000000000000000000000000000000600a86061a8153600a858161123a57611239613747565b5b049450600085036111f1575b819350505050919050565b638b78c6d81954331461126c576382b429006000526004601cfd5b565b600033905090565b81518351146112ba576040517f08c379a00000000000000000000000000000000000000000000000000000000081526004016112b1906137e8565b60405180910390fd5b600073ffffffffffffffffffffffffffffffffffffffff168473ffffffffffffffffffffffffffffffffffffffff1603611329576040517f08c379a00000000000000000000000000000000000000000000000000000000081526004016113209061387a565b60405180910390fd5b600061133361126e565b9050611343818787878787611dfb565b60005b84518110156114f75760008582815181106113645761136361325f565b5b6020026020010151905060008583815181106113835761138261325f565b5b6020026020010151905060006065600084815260200190815260200160002060008b73ffffffffffffffffffffffffffffffffffffffff1673ffffffffffffffffffffffffffffffffffffffff16815260200190815260200160002054905081811015611425576040517f08c379a000000000000000000000000000000000000000000000000000000000815260040161141c9061390c565b60405180910390fd5b8181036065600085815260200190815260200160002060008c73ffffffffffffffffffffffffffffffffffffffff1673ffffffffffffffffffffffffffffffffffffffff16815260200190815260200160002081905550816065600085815260200190815260200160002060008b73ffffffffffffffffffffffffffffffffffffffff1673ffffffffffffffffffffffffffffffffffffffff16815260200190815260200160002060008282546114dc919061392c565b92505081905550505050806114f0906133a1565b9050611346565b508473ffffffffffffffffffffffffffffffffffffffff168673ffffffffffffffffffffffffffffffffffffffff168273ffffffffffffffffffffffffffffffffffffffff167f4a39dc06d4c0dbc64b70af90fd698a233a518aa5d07e595d983b8c0526c8f7fb878760405161156e929190613960565b60405180910390a4611584818787878787611e03565b611592818787878787611e0b565b505050505050565b600060028111156115ae576115ad613997565b5b8260028111156115c1576115c0613997565b5b0361160857611607609a60009054906101000a900473ffffffffffffffffffffffffffffffffffffffff16333084678ac7230489e8000061160291906139c6565b611fe2565b5b6001600281111561161c5761161b613997565b5b82600281111561162f5761162e613997565b5b036116d857609960009054906101000a900473ffffffffffffffffffffffffffffffffffffffff1673ffffffffffffffffffffffffffffffffffffffff16639dc29fac3383683635c9adc5dea0000061168891906139c6565b6040518363ffffffff1660e01b81526004016116a5929190613a08565b600060405180830381600087803b1580156116bf57600080fd5b505af11580156116d3573d6000803e3d6000fd5b505050505b6002808111156116eb576116ea613997565b5b8260028111156116fe576116fd613997565b5b036117a257609860009054906101000a900473ffffffffffffffffffffffffffffffffffffffff1673ffffffffffffffffffffffffffffffffffffffff1663f5298aca33600184600561175191906139c6565b6040518463ffffffff1660e01b815260040161176f93929190613a62565b600060405180830381600087803b15801561178957600080fd5b505af115801561179d573d6000803e3d6000fd5b505050505b5050565b600073ffffffffffffffffffffffffffffffffffffffff168473ffffffffffffffffffffffffffffffffffffffff1603611815576040517f08c379a000000000000000000000000000000000000000000000000000000000815260040161180c90613b0b565b60405180910390fd5b600061181f61126e565b9050600061182c85612032565b9050600061183985612032565b905061184a83600089858589611dfb565b846065600088815260200190815260200160002060008973ffffffffffffffffffffffffffffffffffffffff1673ffffffffffffffffffffffffffffffffffffffff16815260200190815260200160002060008282546118aa919061392c565b925050819055508673ffffffffffffffffffffffffffffffffffffffff16600073ffffffffffffffffffffffffffffffffffffffff168473ffffffffffffffffffffffffffffffffffffffff167fc3d58168c5ae7397731d063d5bbf3d657854427343f4c083240f7aacaa2d0f628989604051611928929190613b2b565b60405180910390a461193f83600089858589611e03565b61194e836000898989896120ac565b50505050505050565b6000808273ffffffffffffffffffffffffffffffffffffffff163b119050919050565b8060601b60601c905080638b78c6d819558060007f8be0079c531659141344cd1fd0a4f28419497f9722a3daafe3b4186f6b6457e0600080a350565b638b78c6d8198160601b60601c91508181547f8be0079c531659141344cd1fd0a4f28419497f9722a3daafe3b4186f6b6457e0600080a38181555050565b611a066119ff61126e565b8383612283565b5050565b600073ffffffffffffffffffffffffffffffffffffffff168473ffffffffffffffffffffffffffffffffffffffff1603611a79576040517f08c379a0000000000000000000000000000000000000000000000000000000008152600401611a709061387a565b60405180910390fd5b6000611a8361126e565b90506000611a9085612032565b90506000611a9d85612032565b9050611aad838989858589611dfb565b60006065600088815260200190815260200160002060008a73ffffffffffffffffffffffffffffffffffffffff1673ffffffffffffffffffffffffffffffffffffffff16815260200190815260200160002054905085811015611b45576040517f08c379a0000000000000000000000000000000000000000000000000000000008152600401611b3c9061390c565b60405180910390fd5b8581036065600089815260200190815260200160002060008b73ffffffffffffffffffffffffffffffffffffffff1673ffffffffffffffffffffffffffffffffffffffff16815260200190815260200160002081905550856065600089815260200190815260200160002060008a73ffffffffffffffffffffffffffffffffffffffff1673ffffffffffffffffffffffffffffffffffffffff1681526020019081526020016000206000828254611bfc919061392c565b925050819055508773ffffffffffffffffffffffffffffffffffffffff168973ffffffffffffffffffffffffffffffffffffffff168573ffffffffffffffffffffffffffffffffffffffff167fc3d58168c5ae7397731d063d5bbf3d657854427343f4c083240f7aacaa2d0f628a8a604051611c79929190613b2b565b60405180910390a4611c8f848a8a86868a611e03565b611c9d848a8a8a8a8a6120ac565b505050505050505050565b600080600090507a184f03e93ff9f4daa797ed6e38ed64bf6a1f0100000000000000008310611d06577a184f03e93ff9f4daa797ed6e38ed64bf6a1f0100000000000000008381611cfc57611cfb613747565b5b0492506040810190505b6d04ee2d6d415b85acef81000000008310611d43576d04ee2d6d415b85acef81000000008381611d3957611d38613747565b5b0492506020810190505b662386f26fc100008310611d7257662386f26fc100008381611d6857611d67613747565b5b0492506010810190505b6305f5e1008310611d9b576305f5e1008381611d9157611d90613747565b5b0492506008810190505b6127108310611dc0576127108381611db657611db5613747565b5b0492506004810190505b60648310611de35760648381611dd957611dd8613747565b5b0492506002810190505b600a8310611df2576001810190505b80915050919050565b505050505050565b505050505050565b611e2a8473ffffffffffffffffffffffffffffffffffffffff16611957565b15611fda578373ffffffffffffffffffffffffffffffffffffffff1663bc197c8187878686866040518663ffffffff1660e01b8152600401611e70959493929190613ba9565b6020604051808303816000875af1925050508015611eac57506040513d601f19601f82011682018060405250810190611ea99190613c26565b60015b611f5157611eb8613c60565b806308c379a003611f145750611ecc613c82565b80611ed75750611f16565b806040517f08c379a0000000000000000000000000000000000000000000000000000000008152600401611f0b919061264c565b60405180910390fd5b505b6040517f08c379a0000000000000000000000000000000000000000000000000000000008152600401611f4890613d84565b60405180910390fd5b63bc197c8160e01b7bffffffffffffffffffffffffffffffffffffffffffffffffffffffff1916817bffffffffffffffffffffffffffffffffffffffffffffffffffffffff191614611fd8576040517f08c379a0000000000000000000000000000000000000000000000000000000008152600401611fcf90613e16565b60405180910390fd5b505b505050505050565b6040516323b872dd600052836020528260405281606052602060006064601c6000895af13d15600160005114171661202257637939f4246000526004601cfd5b6000606052806040525050505050565b60606000600167ffffffffffffffff811115612051576120506126f7565b5b60405190808252806020026020018201604052801561207f5781602001602082028036833780820191505090505b50905082816000815181106120975761209661325f565b5b60200260200101818152505080915050919050565b6120cb8473ffffffffffffffffffffffffffffffffffffffff16611957565b1561227b578373ffffffffffffffffffffffffffffffffffffffff1663f23a6e6187878686866040518663ffffffff1660e01b8152600401612111959493929190613e36565b6020604051808303816000875af192505050801561214d57506040513d601f19601f8201168201806040525081019061214a9190613c26565b60015b6121f257612159613c60565b806308c379a0036121b5575061216d613c82565b8061217857506121b7565b806040517f08c379a00000000000000000000000000000000000000000000000000000000081526004016121ac919061264c565b60405180910390fd5b505b6040517f08c379a00000000000000000000000000000000000000000000000000000000081526004016121e990613d84565b60405180910390fd5b63f23a6e6160e01b7bffffffffffffffffffffffffffffffffffffffffffffffffffffffff1916817bffffffffffffffffffffffffffffffffffffffffffffffffffffffff191614612279576040517f08c379a000000000000000000000000000000000000000000000000000000000815260040161227090613e16565b60405180910390fd5b505b505050505050565b8173ffffffffffffffffffffffffffffffffffffffff168373ffffffffffffffffffffffffffffffffffffffff16036122f1576040517f08c379a00000000000000000000000000000000000000000000000000000000081526004016122e890613f02565b60405180910390fd5b80606660008573ffffffffffffffffffffffffffffffffffffffff1673ffffffffffffffffffffffffffffffffffffffff16815260200190815260200160002060008473ffffffffffffffffffffffffffffffffffffffff1673ffffffffffffffffffffffffffffffffffffffff16815260200190815260200160002060006101000a81548160ff0219169083151502179055508173ffffffffffffffffffffffffffffffffffffffff168373ffffffffffffffffffffffffffffffffffffffff167f17307eab39ab6107e8899845ad3d59bd9653f200f220920489ca2b5937696c31836040516123e291906125a1565b60405180910390a3505050565b6000604051905090565b600080fd5b600080fd5b600073ffffffffffffffffffffffffffffffffffffffff82169050919050565b600061242e82612403565b9050919050565b61243e81612423565b811461244957600080fd5b50565b60008135905061245b81612435565b92915050565b6000819050919050565b61247481612461565b811461247f57600080fd5b50565b6000813590506124918161246b565b92915050565b600080604083850312156124ae576124ad6123f9565b5b60006124bc8582860161244c565b92505060206124cd85828601612482565b9150509250929050565b6124e081612461565b82525050565b60006020820190506124fb60008301846124d7565b92915050565b60007fffffffff0000000000000000000000000000000000000000000000000000000082169050919050565b61253681612501565b811461254157600080fd5b50565b6000813590506125538161252d565b92915050565b60006020828403121561256f5761256e6123f9565b5b600061257d84828501612544565b91505092915050565b60008115159050919050565b61259b81612586565b82525050565b60006020820190506125b66000830184612592565b92915050565b600081519050919050565b600082825260208201905092915050565b60005b838110156125f65780820151818401526020810190506125db565b60008484015250505050565b6000601f19601f8301169050919050565b600061261e826125bc565b61262881856125c7565b93506126388185602086016125d8565b61264181612602565b840191505092915050565b600060208201905081810360008301526126668184612613565b905092915050565b61267781612423565b82525050565b6000602082019050612692600083018461266e565b92915050565b6000602082840312156126ae576126ad6123f9565b5b60006126bc84828501612482565b91505092915050565b6000602082840312156126db576126da6123f9565b5b60006126e98482850161244c565b91505092915050565b600080fd5b7f4e487b7100000000000000000000000000000000000000000000000000000000600052604160045260246000fd5b61272f82612602565b810181811067ffffffffffffffff8211171561274e5761274d6126f7565b5b80604052505050565b60006127616123ef565b905061276d8282612726565b919050565b600067ffffffffffffffff82111561278d5761278c6126f7565b5b602082029050602081019050919050565b600080fd5b60006127b66127b184612772565b612757565b905080838252602082019050602084028301858111156127d9576127d861279e565b5b835b8181101561280257806127ee8882612482565b8452602084019350506020810190506127db565b5050509392505050565b600082601f830112612821576128206126f2565b5b81356128318482602086016127a3565b91505092915050565b600080fd5b600067ffffffffffffffff82111561285a576128596126f7565b5b61286382612602565b9050602081019050919050565b82818337600083830152505050565b600061289261288d8461283f565b612757565b9050828152602081018484840111156128ae576128ad61283a565b5b6128b9848285612870565b509392505050565b600082601f8301126128d6576128d56126f2565b5b81356128e684826020860161287f565b91505092915050565b600080600080600060a0868803121561290b5761290a6123f9565b5b60006129198882890161244c565b955050602061292a8882890161244c565b945050604086013567ffffffffffffffff81111561294b5761294a6123fe565b5b6129578882890161280c565b935050606086013567ffffffffffffffff811115612978576129776123fe565b5b6129848882890161280c565b925050608086013567ffffffffffffffff8111156129a5576129a46123fe565b5b6129b1888289016128c1565b9150509295509295909350565b600080fd5b60008083601f8401126129d9576129d86126f2565b5b8235905067ffffffffffffffff8111156129f6576129f56129be565b5b602083019150836020820283011115612a1257612a1161279e565b5b9250929050565b60008083601f840112612a2f57612a2e6126f2565b5b8235905067ffffffffffffffff811115612a4c57612a4b6129be565b5b602083019150836020820283011115612a6857612a6761279e565b5b9250929050565b60008060008060008060608789031215612a8c57612a8b6123f9565b5b600087013567ffffffffffffffff811115612aaa57612aa96123fe565b5b612ab689828a016129c3565b9650965050602087013567ffffffffffffffff811115612ad957612ad86123fe565b5b612ae589828a016129c3565b9450945050604087013567ffffffffffffffff811115612b0857612b076123fe565b5b612b1489828a01612a19565b92509250509295509295509295565b600067ffffffffffffffff821115612b3e57612b3d6126f7565b5b602082029050602081019050919050565b6000612b62612b5d84612b23565b612757565b90508083825260208201905060208402830185811115612b8557612b8461279e565b5b835b81811015612bae5780612b9a888261244c565b845260208401935050602081019050612b87565b5050509392505050565b600082601f830112612bcd57612bcc6126f2565b5b8135612bdd848260208601612b4f565b91505092915050565b60008060408385031215612bfd57612bfc6123f9565b5b600083013567ffffffffffffffff811115612c1b57612c1a6123fe565b5b612c2785828601612bb8565b925050602083013567ffffffffffffffff811115612c4857612c476123fe565b5b612c548582860161280c565b9150509250929050565b600081519050919050565b600082825260208201905092915050565b6000819050602082019050919050565b612c9381612461565b82525050565b6000612ca58383612c8a565b60208301905092915050565b6000602082019050919050565b6000612cc982612c5e565b612cd38185612c69565b9350612cde83612c7a565b8060005b83811015612d0f578151612cf68882612c99565b9750612d0183612cb1565b925050600181019050612ce2565b5085935050505092915050565b60006020820190508181036000830152612d368184612cbe565b905092915050565b600067ffffffffffffffff821115612d5957612d586126f7565b5b612d6282612602565b9050602081019050919050565b6000612d82612d7d84612d3e565b612757565b905082815260208101848484011115612d9e57612d9d61283a565b5b612da9848285612870565b509392505050565b600082601f830112612dc657612dc56126f2565b5b8135612dd6848260208601612d6f565b91505092915050565b60008060008060808587031215612df957612df86123f9565b5b6000612e078782880161244c565b9450506020612e188782880161244c565b9350506040612e298782880161244c565b925050606085013567ffffffffffffffff811115612e4a57612e496123fe565b5b612e5687828801612db1565b91505092959194509250565b612e6b81612586565b8114612e7657600080fd5b50565b600081359050612e8881612e62565b92915050565b60008060408385031215612ea557612ea46123f9565b5b6000612eb38582860161244c565b9250506020612ec485828601612e79565b9150509250929050565b600067ffffffffffffffff82169050919050565b612eeb81612ece565b82525050565b6000602082019050612f066000830184612ee2565b92915050565b60008060408385031215612f2357612f226123f9565b5b6000612f318582860161244c565b9250506020612f428582860161244c565b9150509250929050565b600080600080600060a08688031215612f6857612f676123f9565b5b6000612f768882890161244c565b9550506020612f878882890161244c565b9450506040612f9888828901612482565b9350506060612fa988828901612482565b925050608086013567ffffffffffffffff811115612fca57612fc96123fe565b5b612fd6888289016128c1565b9150509295509295909350565b7f455243313135353a2061646472657373207a65726f206973206e6f742061207660008201527f616c6964206f776e657200000000000000000000000000000000000000000000602082015250565b600061303f602a836125c7565b915061304a82612fe3565b604082019050919050565b6000602082019050818103600083015261306e81613032565b9050919050565b7f4e487b7100000000000000000000000000000000000000000000000000000000600052602260045260246000fd5b600060028204905060018216806130bc57607f821691505b6020821081036130cf576130ce613075565b5b50919050565b600081905092915050565b60008190508160005260206000209050919050565b60008154613102816130a4565b61310c81866130d5565b94506001821660008114613127576001811461313c5761316f565b60ff198316865281151582028601935061316f565b613145856130e0565b60005b8381101561316757815481890152600182019150602081019050613148565b838801955050505b50505092915050565b6000613183826125bc565b61318d81856130d5565b935061319d8185602086016125d8565b80840191505092915050565b60006131b582856130f5565b91506131c18284613178565b91508190509392505050565b7f455243313135353a2063616c6c6572206973206e6f7420746f6b656e206f776e60008201527f6572206f7220617070726f766564000000000000000000000000000000000000602082015250565b6000613229602e836125c7565b9150613234826131cd565b604082019050919050565b600060208201905081810360008301526132588161321c565b9050919050565b7f4e487b7100000000000000000000000000000000000000000000000000000000600052603260045260246000fd5b6003811061329b57600080fd5b50565b6000813590506132ad8161328e565b92915050565b6000602082840312156132c9576132c86123f9565b5b60006132d78482850161329e565b91505092915050565b7f455243313135353a206163636f756e747320616e6420696473206c656e67746860008201527f206d69736d617463680000000000000000000000000000000000000000000000602082015250565b600061333c6029836125c7565b9150613347826132e0565b604082019050919050565b6000602082019050818103600083015261336b8161332f565b9050919050565b7f4e487b7100000000000000000000000000000000000000000000000000000000600052601160045260246000fd5b60006133ac82612461565b91507fffffffffffffffffffffffffffffffffffffffffffffffffffffffffffffffff82036133de576133dd613372565b5b600182019050919050565b7f496e697469616c697a61626c653a20636f6e747261637420697320616c72656160008201527f647920696e697469616c697a6564000000000000000000000000000000000000602082015250565b6000613445602e836125c7565b9150613450826133e9565b604082019050919050565b6000602082019050818103600083015261347481613438565b9050919050565b60006020601f8301049050919050565b600082821b905092915050565b6000600883026134c87fffffffffffffffffffffffffffffffffffffffffffffffffffffffffffffffff8261348b565b6134d2868361348b565b95508019841693508086168417925050509392505050565b6000819050919050565b600061350f61350a61350584612461565b6134ea565b612461565b9050919050565b6000819050919050565b613529836134f4565b61353d61353582613516565b848454613498565b825550505050565b600090565b613552613545565b61355d818484613520565b505050565b5b818110156135815761357660008261354a565b600181019050613563565b5050565b601f8211156135c657613597816130e0565b6135a08461347b565b810160208510156135af578190505b6135c36135bb8561347b565b830182613562565b50505b505050565b600082821c905092915050565b60006135e9600019846008026135cb565b1980831691505092915050565b600061360283836135d8565b9150826002028217905092915050565b61361b826125bc565b67ffffffffffffffff811115613634576136336126f7565b5b61363e82546130a4565b613649828285613585565b600060209050601f83116001811461367c576000841561366a578287015190505b61367485826135f6565b8655506136dc565b601f19841661368a866130e0565b60005b828110156136b25784890151825560018201915060208501945060208101905061368d565b868310156136cf57848901516136cb601f8916826135d8565b8355505b6001600288020188555050505b505050505050565b6000819050919050565b600060ff82169050919050565b600061371661371161370c846136e4565b6134ea565b6136ee565b9050919050565b613726816136fb565b82525050565b6000602082019050613741600083018461371d565b92915050565b7f4e487b7100000000000000000000000000000000000000000000000000000000600052601260045260246000fd5b7f455243313135353a2069647320616e6420616d6f756e7473206c656e6774682060008201527f6d69736d61746368000000000000000000000000000000000000000000000000602082015250565b60006137d26028836125c7565b91506137dd82613776565b604082019050919050565b60006020820190508181036000830152613801816137c5565b9050919050565b7f455243313135353a207472616e7366657220746f20746865207a65726f20616460008201527f6472657373000000000000000000000000000000000000000000000000000000602082015250565b60006138646025836125c7565b915061386f82613808565b604082019050919050565b6000602082019050818103600083015261389381613857565b9050919050565b7f455243313135353a20696e73756666696369656e742062616c616e636520666f60008201527f72207472616e7366657200000000000000000000000000000000000000000000602082015250565b60006138f6602a836125c7565b91506139018261389a565b604082019050919050565b60006020820190508181036000830152613925816138e9565b9050919050565b600061393782612461565b915061394283612461565b925082820190508082111561395a57613959613372565b5b92915050565b6000604082019050818103600083015261397a8185612cbe565b9050818103602083015261398e8184612cbe565b90509392505050565b7f4e487b7100000000000000000000000000000000000000000000000000000000600052602160045260246000fd5b60006139d182612461565b91506139dc83612461565b92508282026139ea81612461565b91508282048414831517613a0157613a00613372565b5b5092915050565b6000604082019050613a1d600083018561266e565b613a2a60208301846124d7565b9392505050565b6000613a4c613a47613a42846136e4565b6134ea565b612461565b9050919050565b613a5c81613a31565b82525050565b6000606082019050613a77600083018661266e565b613a846020830185613a53565b613a9160408301846124d7565b949350505050565b7f455243313135353a206d696e7420746f20746865207a65726f2061646472657360008201527f7300000000000000000000000000000000000000000000000000000000000000602082015250565b6000613af56021836125c7565b9150613b0082613a99565b604082019050919050565b60006020820190508181036000830152613b2481613ae8565b9050919050565b6000604082019050613b4060008301856124d7565b613b4d60208301846124d7565b9392505050565b600081519050919050565b600082825260208201905092915050565b6000613b7b82613b54565b613b858185613b5f565b9350613b958185602086016125d8565b613b9e81612602565b840191505092915050565b600060a082019050613bbe600083018861266e565b613bcb602083018761266e565b8181036040830152613bdd8186612cbe565b90508181036060830152613bf18185612cbe565b90508181036080830152613c058184613b70565b90509695505050505050565b600081519050613c208161252d565b92915050565b600060208284031215613c3c57613c3b6123f9565b5b6000613c4a84828501613c11565b91505092915050565b60008160e01c9050919050565b600060033d1115613c7f5760046000803e613c7c600051613c53565b90505b90565b600060443d10613d0f57613c946123ef565b60043d036004823e80513d602482011167ffffffffffffffff82111715613cbc575050613d0f565b808201805167ffffffffffffffff811115613cda5750505050613d0f565b80602083010160043d038501811115613cf7575050505050613d0f565b613d0682602001850186612726565b82955050505050505b90565b7f455243313135353a207472616e7366657220746f206e6f6e2d4552433131353560008201527f526563656976657220696d706c656d656e746572000000000000000000000000602082015250565b6000613d6e6034836125c7565b9150613d7982613d12565b604082019050919050565b60006020820190508181036000830152613d9d81613d61565b9050919050565b7f455243313135353a204552433131353552656365697665722072656a6563746560008201527f6420746f6b656e73000000000000000000000000000000000000000000000000602082015250565b6000613e006028836125c7565b9150613e0b82613da4565b604082019050919050565b60006020820190508181036000830152613e2f81613df3565b9050919050565b600060a082019050613e4b600083018861266e565b613e58602083018761266e565b613e6560408301866124d7565b613e7260608301856124d7565b8181036080830152613e848184613b70565b90509695505050505050565b7f455243313135353a2073657474696e6720617070726f76616c2073746174757360008201527f20666f722073656c660000000000000000000000000000000000000000000000602082015250565b6000613eec6029836125c7565b9150613ef782613e90565b604082019050919050565b60006020820190508181036000830152613f1b81613edf565b905091905056fea2646970667358221220cbec907e2652083f9bf94514187a291f4fd22b339397a903c6b14691d6f3fd0a64736f6c63430008110033",
  "devdoc": {
    "errors": {
      "NewOwnerIsZeroAddress()": [
        {
          "details": "The `newOwner` cannot be the zero address."
        }
      ],
      "NoHandoverRequest()": [
        {
          "details": "The `pendingOwner` does not have a valid handover request."
        }
      ],
      "Unauthorized()": [
        {
          "details": "The caller is not authorized to call the function."
        }
      ]
    },
    "kind": "dev",
    "methods": {
      "balanceOf(address,uint256)": {
        "details": "See {IERC1155-balanceOf}. Requirements: - `account` cannot be the zero address."
      },
      "balanceOfBatch(address[],uint256[])": {
        "details": "See {IERC1155-balanceOfBatch}. Requirements: - `accounts` and `ids` must have the same length."
      },
      "cancelOwnershipHandover()": {
        "details": "Cancels the two-step ownership handover to the caller, if any."
      },
      "completeOwnershipHandover(address)": {
        "details": "Allows the owner to complete the two-step ownership handover to `pendingOwner`. Reverts if there is no existing ownership handover requested by `pendingOwner`."
      },
      "isApprovedForAll(address,address)": {
        "details": "See {IERC1155-isApprovedForAll}."
      },
      "owner()": {
        "details": "Returns the owner of the contract."
      },
      "ownershipHandoverExpiresAt(address)": {
        "details": "Returns the expiry timestamp for the two-step ownership handover to `pendingOwner`."
      },
      "ownershipHandoverValidFor()": {
        "details": "Returns how long a two-step ownership handover is valid for in seconds."
      },
      "renounceOwnership()": {
        "details": "Allows the owner to renounce their ownership."
      },
      "requestOwnershipHandover()": {
        "details": "Request a two-step ownership handover to the caller. The request will be automatically expire in 48 hours (172800 seconds) by default."
      },
      "safeBatchTransferFrom(address,address,uint256[],uint256[],bytes)": {
        "details": "See {IERC1155-safeBatchTransferFrom}."
      },
      "safeTransferFrom(address,address,uint256,uint256,bytes)": {
        "details": "See {IERC1155-safeTransferFrom}."
      },
      "setApprovalForAll(address,bool)": {
        "details": "See {IERC1155-setApprovalForAll}."
      },
      "supportsInterface(bytes4)": {
        "details": "See {IERC165-supportsInterface}."
      },
      "transferOwnership(address)": {
        "details": "Allows the owner to transfer the ownership to `newOwner`."
      }
    },
    "version": 1
  },
  "userdoc": {
    "kind": "user",
    "methods": {
      "mint(uint256[],uint256[],uint8[])": {
        "notice": "this token can no be sold on the secondary market only mint it and used for job"
      }
    },
    "version": 1
  },
  "storageLayout": {
    "storage": [
      {
        "astId": 6,
        "contract": "contracts/Supplies.sol:Supplies",
        "label": "_initialized",
        "offset": 0,
        "slot": "0",
        "type": "t_uint8"
      },
      {
        "astId": 9,
        "contract": "contracts/Supplies.sol:Supplies",
        "label": "_initializing",
        "offset": 1,
        "slot": "0",
        "type": "t_bool"
      },
      {
        "astId": 3851,
        "contract": "contracts/Supplies.sol:Supplies",
        "label": "__gap",
        "offset": 0,
        "slot": "1",
        "type": "t_array(t_uint256)50_storage"
      },
      {
        "astId": 4070,
        "contract": "contracts/Supplies.sol:Supplies",
        "label": "__gap",
        "offset": 0,
        "slot": "51",
        "type": "t_array(t_uint256)50_storage"
      },
      {
        "astId": 197,
        "contract": "contracts/Supplies.sol:Supplies",
        "label": "_balances",
        "offset": 0,
        "slot": "101",
        "type": "t_mapping(t_uint256,t_mapping(t_address,t_uint256))"
      },
      {
        "astId": 203,
        "contract": "contracts/Supplies.sol:Supplies",
        "label": "_operatorApprovals",
        "offset": 0,
        "slot": "102",
        "type": "t_mapping(t_address,t_mapping(t_address,t_bool))"
      },
      {
        "astId": 205,
        "contract": "contracts/Supplies.sol:Supplies",
        "label": "_uri",
        "offset": 0,
        "slot": "103",
        "type": "t_string_storage"
      },
      {
        "astId": 1412,
        "contract": "contracts/Supplies.sol:Supplies",
        "label": "__gap",
        "offset": 0,
        "slot": "104",
        "type": "t_array(t_uint256)47_storage"
      },
      {
        "astId": 9492,
        "contract": "contracts/Supplies.sol:Supplies",
        "label": "laborGround",
        "offset": 0,
        "slot": "151",
        "type": "t_address"
      },
      {
        "astId": 9494,
        "contract": "contracts/Supplies.sol:Supplies",
        "label": "treasure",
        "offset": 0,
        "slot": "152",
        "type": "t_address"
      },
      {
        "astId": 9496,
        "contract": "contracts/Supplies.sol:Supplies",
        "label": "bones",
        "offset": 0,
        "slot": "153",
        "type": "t_address"
      },
      {
        "astId": 9498,
        "contract": "contracts/Supplies.sol:Supplies",
        "label": "magic",
        "offset": 0,
        "slot": "154",
        "type": "t_address"
      },
      {
        "astId": 9518,
        "contract": "contracts/Supplies.sol:Supplies",
        "label": "baseUri",
        "offset": 0,
        "slot": "155",
        "type": "t_string_storage"
      }
    ],
    "types": {
      "t_address": {
        "encoding": "inplace",
        "label": "address",
        "numberOfBytes": "20"
      },
      "t_array(t_uint256)47_storage": {
        "base": "t_uint256",
        "encoding": "inplace",
        "label": "uint256[47]",
        "numberOfBytes": "1504"
      },
      "t_array(t_uint256)50_storage": {
        "base": "t_uint256",
        "encoding": "inplace",
        "label": "uint256[50]",
        "numberOfBytes": "1600"
      },
      "t_bool": {
        "encoding": "inplace",
        "label": "bool",
        "numberOfBytes": "1"
      },
      "t_mapping(t_address,t_bool)": {
        "encoding": "mapping",
        "key": "t_address",
        "label": "mapping(address => bool)",
        "numberOfBytes": "32",
        "value": "t_bool"
      },
      "t_mapping(t_address,t_mapping(t_address,t_bool))": {
        "encoding": "mapping",
        "key": "t_address",
        "label": "mapping(address => mapping(address => bool))",
        "numberOfBytes": "32",
        "value": "t_mapping(t_address,t_bool)"
      },
      "t_mapping(t_address,t_uint256)": {
        "encoding": "mapping",
        "key": "t_address",
        "label": "mapping(address => uint256)",
        "numberOfBytes": "32",
        "value": "t_uint256"
      },
      "t_mapping(t_uint256,t_mapping(t_address,t_uint256))": {
        "encoding": "mapping",
        "key": "t_uint256",
        "label": "mapping(uint256 => mapping(address => uint256))",
        "numberOfBytes": "32",
        "value": "t_mapping(t_address,t_uint256)"
      },
      "t_string_storage": {
        "encoding": "bytes",
        "label": "string",
        "numberOfBytes": "32"
      },
      "t_uint256": {
        "encoding": "inplace",
        "label": "uint256",
        "numberOfBytes": "32"
      },
      "t_uint8": {
        "encoding": "inplace",
        "label": "uint8",
        "numberOfBytes": "1"
      }
    }
  }
}